{
  "contractName": "EntitiesManager",
  "abi": [
    {
      "inputs": [
        {
          "internalType": "uint256",
          "name": "",
          "type": "uint256"
        }
      ],
      "name": "allEntities",
      "outputs": [
        {
          "internalType": "address",
          "name": "",
          "type": "address"
        }
      ],
      "stateMutability": "view",
      "type": "function",
      "constant": true
    },
    {
      "inputs": [
        {
          "internalType": "address",
          "name": "",
          "type": "address"
        },
        {
          "internalType": "uint256",
          "name": "",
          "type": "uint256"
        }
      ],
      "name": "entitiesHistory",
      "outputs": [
        {
          "internalType": "string",
          "name": "userName",
          "type": "string"
        },
        {
          "internalType": "string",
          "name": "password",
          "type": "string"
        },
        {
          "internalType": "string",
          "name": "name",
          "type": "string"
        },
        {
          "internalType": "string",
          "name": "departmentCode",
          "type": "string"
        },
        {
          "internalType": "enum EntitiesManager.EntityType",
          "name": "entityType",
          "type": "uint8"
        },
        {
          "internalType": "address",
          "name": "entityAddress",
          "type": "address"
        },
        {
          "internalType": "uint32",
          "name": "timestamp",
          "type": "uint32"
        }
      ],
      "stateMutability": "view",
      "type": "function",
      "constant": true
    },
    {
      "inputs": [
        {
          "internalType": "address",
          "name": "_entity",
          "type": "address"
        },
        {
          "internalType": "string",
          "name": "_userName",
          "type": "string"
        },
        {
          "internalType": "string",
          "name": "_password",
          "type": "string"
        },
        {
          "internalType": "string",
          "name": "_name",
          "type": "string"
        },
        {
          "internalType": "string",
          "name": "_departmentCode",
          "type": "string"
        },
        {
          "internalType": "enum EntitiesManager.EntityType",
          "name": "_entityType",
          "type": "uint8"
        }
      ],
      "name": "createEntity",
      "outputs": [],
      "stateMutability": "nonpayable",
      "type": "function"
    },
    {
      "inputs": [
        {
          "internalType": "address",
          "name": "_entity",
          "type": "address"
        },
        {
          "internalType": "string",
          "name": "_userName",
          "type": "string"
        },
        {
          "internalType": "string",
          "name": "_password",
          "type": "string"
        },
        {
          "internalType": "string",
          "name": "_name",
          "type": "string"
        },
        {
          "internalType": "string",
          "name": "_departmentCode",
          "type": "string"
        }
      ],
      "name": "updateEntity",
      "outputs": [],
      "stateMutability": "nonpayable",
      "type": "function"
    },
    {
      "inputs": [],
      "name": "getEntities",
      "outputs": [
        {
          "internalType": "address[]",
          "name": "",
          "type": "address[]"
        }
      ],
      "stateMutability": "view",
      "type": "function",
      "constant": true
    },
    {
      "inputs": [
        {
          "internalType": "address",
          "name": "_entity",
          "type": "address"
        }
      ],
      "name": "getEntityHistory",
      "outputs": [
        {
          "components": [
            {
              "internalType": "string",
              "name": "userName",
              "type": "string"
            },
            {
              "internalType": "string",
              "name": "password",
              "type": "string"
            },
            {
              "internalType": "string",
              "name": "name",
              "type": "string"
            },
            {
              "internalType": "string",
              "name": "departmentCode",
              "type": "string"
            },
            {
              "internalType": "enum EntitiesManager.EntityType",
              "name": "entityType",
              "type": "uint8"
            },
            {
              "internalType": "address",
              "name": "entityAddress",
              "type": "address"
            },
            {
              "internalType": "uint32",
              "name": "timestamp",
              "type": "uint32"
            }
          ],
          "internalType": "struct EntitiesManager.Entity[]",
          "name": "",
          "type": "tuple[]"
        }
      ],
      "stateMutability": "view",
      "type": "function",
      "constant": true
    },
    {
      "inputs": [
        {
          "internalType": "address",
          "name": "_entity",
          "type": "address"
        }
      ],
      "name": "getLastUpdate",
      "outputs": [
        {
          "components": [
            {
              "internalType": "string",
              "name": "userName",
              "type": "string"
            },
            {
              "internalType": "string",
              "name": "password",
              "type": "string"
            },
            {
              "internalType": "string",
              "name": "name",
              "type": "string"
            },
            {
              "internalType": "string",
              "name": "departmentCode",
              "type": "string"
            },
            {
              "internalType": "enum EntitiesManager.EntityType",
              "name": "entityType",
              "type": "uint8"
            },
            {
              "internalType": "address",
              "name": "entityAddress",
              "type": "address"
            },
            {
              "internalType": "uint32",
              "name": "timestamp",
              "type": "uint32"
            }
          ],
          "internalType": "struct EntitiesManager.Entity",
          "name": "",
          "type": "tuple"
        }
      ],
      "stateMutability": "view",
      "type": "function",
      "constant": true
    }
  ],
  "bytecode": "0x608060405234801561001057600080fd5b50612465806100206000396000f3fe608060405234801561001057600080fd5b506004361061009a576000357c01000000000000000000000000000000000000000000000000000000009004806343daa9df1161007857806343daa9df146101095780635a7e19891461013f5780635c1612b01461016f57806388aac64c1461018b5761009a565b80631f7331471461009f57806328320e1c146100bb57806331b933b9146100eb575b600080fd5b6100b960048036038101906100b491906115f8565b6101bb565b005b6100d560048036038101906100d091906116e3565b6105aa565b6040516100e291906119a7565b60405180910390f35b6100f3610946565b6040516101009190611a78565b60405180910390f35b610123600480360381019061011e9190611ad0565b6109d4565b6040516101369796959493929190611b87565b60405180910390f35b610159600480360381019061015491906116e3565b610c90565b6040516101669190611cc3565b60405180910390f35b61018960048036038101906101849190611d0a565b61109d565b005b6101a560048036038101906101a09190611e07565b611396565b6040516101b29190611e34565b60405180910390f35b83805190602001206000808773ffffffffffffffffffffffffffffffffffffffff1673ffffffffffffffffffffffffffffffffffffffff16815260200190815260200160002060016000808973ffffffffffffffffffffffffffffffffffffffff1673ffffffffffffffffffffffffffffffffffffffff1681526020019081526020016000208054905061024f9190611e7e565b815481106102605761025f611eb2565b5b906000526020600020906005020160000160405161027e9190611fe4565b6040518091039020146102c6576040517f08c379a00000000000000000000000000000000000000000000000000000000081526004016102bd90612047565b60405180910390fd5b82805190602001206000808773ffffffffffffffffffffffffffffffffffffffff1673ffffffffffffffffffffffffffffffffffffffff16815260200190815260200160002060016000808973ffffffffffffffffffffffffffffffffffffffff1673ffffffffffffffffffffffffffffffffffffffff1681526020019081526020016000208054905061035a9190611e7e565b8154811061036b5761036a611eb2565b5b90600052602060002090600502016001016040516103899190611fe4565b6040518091039020146103d1576040517f08c379a00000000000000000000000000000000000000000000000000000000081526004016103c8906120b3565b60405180910390fd5b60006103dc86610c90565b90506000808773ffffffffffffffffffffffffffffffffffffffff1673ffffffffffffffffffffffffffffffffffffffff1681526020019081526020016000206040518060e0016040528087815260200186815260200185815260200184815260200183608001516003811115610456576104556117bb565b5b81526020018873ffffffffffffffffffffffffffffffffffffffff1681526020014263ffffffff16815250908060018154018082558091505060019003906000526020600020906005020160009091909190915060008201518160000190816104bf9190612285565b5060208201518160010190816104d59190612285565b5060408201518160020190816104eb9190612285565b5060608201518160030190816105019190612285565b5060808201518160040160006101000a81548160ff0219169083600381111561052d5761052c6117bb565b5b021790555060a08201518160040160016101000a81548173ffffffffffffffffffffffffffffffffffffffff021916908373ffffffffffffffffffffffffffffffffffffffff16021790555060c08201518160040160156101000a81548163ffffffff021916908363ffffffff1602179055505050505050505050565b60606000808373ffffffffffffffffffffffffffffffffffffffff1673ffffffffffffffffffffffffffffffffffffffff168152602001908152602001600020805480602002602001604051908101604052809291908181526020016000905b8282101561093b57838290600052602060002090600502016040518060e001604052908160008201805461063d90611f10565b80601f016020809104026020016040519081016040528092919081815260200182805461066990611f10565b80156106b65780601f1061068b576101008083540402835291602001916106b6565b820191906000526020600020905b81548152906001019060200180831161069957829003601f168201915b505050505081526020016001820180546106cf90611f10565b80601f01602080910402602001604051908101604052809291908181526020018280546106fb90611f10565b80156107485780601f1061071d57610100808354040283529160200191610748565b820191906000526020600020905b81548152906001019060200180831161072b57829003601f168201915b5050505050815260200160028201805461076190611f10565b80601f016020809104026020016040519081016040528092919081815260200182805461078d90611f10565b80156107da5780601f106107af576101008083540402835291602001916107da565b820191906000526020600020905b8154815290600101906020018083116107bd57829003601f168201915b505050505081526020016003820180546107f390611f10565b80601f016020809104026020016040519081016040528092919081815260200182805461081f90611f10565b801561086c5780601f106108415761010080835404028352916020019161086c565b820191906000526020600020905b81548152906001019060200180831161084f57829003601f168201915b505050505081526020016004820160009054906101000a900460ff16600381111561089a576108996117bb565b5b60038111156108ac576108ab6117bb565b5b81526020016004820160019054906101000a900473ffffffffffffffffffffffffffffffffffffffff1673ffffffffffffffffffffffffffffffffffffffff1673ffffffffffffffffffffffffffffffffffffffff1681526020016004820160159054906101000a900463ffffffff1663ffffffff1663ffffffff16815250508152602001906001019061060a565b505050509050919050565b606060018054806020026020016040519081016040528092919081815260200182805480156109ca57602002820191906000526020600020905b8160009054906101000a900473ffffffffffffffffffffffffffffffffffffffff1673ffffffffffffffffffffffffffffffffffffffff1681526020019060010190808311610980575b5050505050905090565b600060205281600052604060002081815481106109f057600080fd5b906000526020600020906005020160009150915050806000018054610a1490611f10565b80601f0160208091040260200160405190810160405280929190818152602001828054610a4090611f10565b8015610a8d5780601f10610a6257610100808354040283529160200191610a8d565b820191906000526020600020905b815481529060010190602001808311610a7057829003601f168201915b505050505090806001018054610aa290611f10565b80601f0160208091040260200160405190810160405280929190818152602001828054610ace90611f10565b8015610b1b5780601f10610af057610100808354040283529160200191610b1b565b820191906000526020600020905b815481529060010190602001808311610afe57829003601f168201915b505050505090806002018054610b3090611f10565b80601f0160208091040260200160405190810160405280929190818152602001828054610b5c90611f10565b8015610ba95780601f10610b7e57610100808354040283529160200191610ba9565b820191906000526020600020905b815481529060010190602001808311610b8c57829003601f168201915b505050505090806003018054610bbe90611f10565b80601f0160208091040260200160405190810160405280929190818152602001828054610bea90611f10565b8015610c375780601f10610c0c57610100808354040283529160200191610c37565b820191906000526020600020905b815481529060010190602001808311610c1a57829003601f168201915b5050505050908060040160009054906101000a900460ff16908060040160019054906101000a900473ffffffffffffffffffffffffffffffffffffffff16908060040160159054906101000a900463ffffffff16905087565b610c986113d5565b60008060008473ffffffffffffffffffffffffffffffffffffffff1673ffffffffffffffffffffffffffffffffffffffff16815260200190815260200160002080549050905060008111610d21576040517f08c379a0000000000000000000000000000000000000000000000000000000008152600401610d18906123a3565b60405180910390fd5b6000808473ffffffffffffffffffffffffffffffffffffffff1673ffffffffffffffffffffffffffffffffffffffff168152602001908152602001600020600182610d6c9190611e7e565b81548110610d7d57610d7c611eb2565b5b90600052602060002090600502016040518060e0016040529081600082018054610da690611f10565b80601f0160208091040260200160405190810160405280929190818152602001828054610dd290611f10565b8015610e1f5780601f10610df457610100808354040283529160200191610e1f565b820191906000526020600020905b815481529060010190602001808311610e0257829003601f168201915b50505050508152602001600182018054610e3890611f10565b80601f0160208091040260200160405190810160405280929190818152602001828054610e6490611f10565b8015610eb15780601f10610e8657610100808354040283529160200191610eb1565b820191906000526020600020905b815481529060010190602001808311610e9457829003601f168201915b50505050508152602001600282018054610eca90611f10565b80601f0160208091040260200160405190810160405280929190818152602001828054610ef690611f10565b8015610f435780601f10610f1857610100808354040283529160200191610f43565b820191906000526020600020905b815481529060010190602001808311610f2657829003601f168201915b50505050508152602001600382018054610f5c90611f10565b80601f0160208091040260200160405190810160405280929190818152602001828054610f8890611f10565b8015610fd55780601f10610faa57610100808354040283529160200191610fd5565b820191906000526020600020905b815481529060010190602001808311610fb857829003601f168201915b505050505081526020016004820160009054906101000a900460ff166003811115611003576110026117bb565b5b6003811115611015576110146117bb565b5b81526020016004820160019054906101000a900473ffffffffffffffffffffffffffffffffffffffff1673ffffffffffffffffffffffffffffffffffffffff1673ffffffffffffffffffffffffffffffffffffffff1681526020016004820160159054906101000a900463ffffffff1663ffffffff1663ffffffff1681525050915050919050565b60008060008873ffffffffffffffffffffffffffffffffffffffff1673ffffffffffffffffffffffffffffffffffffffff1681526020019081526020016000208054905014611121576040517f08c379a00000000000000000000000000000000000000000000000000000000081526004016111189061240f565b60405180910390fd5b60008060008873ffffffffffffffffffffffffffffffffffffffff1673ffffffffffffffffffffffffffffffffffffffff168152602001908152602001600020805490500361138e576000808773ffffffffffffffffffffffffffffffffffffffff1673ffffffffffffffffffffffffffffffffffffffff1681526020019081526020016000206040518060e001604052808781526020018681526020018581526020018481526020018360038111156111de576111dd6117bb565b5b81526020018873ffffffffffffffffffffffffffffffffffffffff1681526020014263ffffffff16815250908060018154018082558091505060019003906000526020600020906005020160009091909190915060008201518160000190816112479190612285565b50602082015181600101908161125d9190612285565b5060408201518160020190816112739190612285565b5060608201518160030190816112899190612285565b5060808201518160040160006101000a81548160ff021916908360038111156112b5576112b46117bb565b5b021790555060a08201518160040160016101000a81548173ffffffffffffffffffffffffffffffffffffffff021916908373ffffffffffffffffffffffffffffffffffffffff16021790555060c08201518160040160156101000a81548163ffffffff021916908363ffffffff16021790555050506001869080600181540180825580915050600190039060005260206000200160009091909190916101000a81548173ffffffffffffffffffffffffffffffffffffffff021916908373ffffffffffffffffffffffffffffffffffffffff1602179055505b505050505050565b600181815481106113a657600080fd5b906000526020600020016000915054906101000a900473ffffffffffffffffffffffffffffffffffffffff1681565b6040518060e0016040528060608152602001606081526020016060815260200160608152602001600060038111156114105761140f6117bb565b5b8152602001600073ffffffffffffffffffffffffffffffffffffffff168152602001600063ffffffff1681525090565b6000604051905090565b600080fd5b600080fd5b600073ffffffffffffffffffffffffffffffffffffffff82169050919050565b600061147f82611454565b9050919050565b61148f81611474565b811461149a57600080fd5b50565b6000813590506114ac81611486565b92915050565b600080fd5b600080fd5b6000601f19601f8301169050919050565b7f4e487b7100000000000000000000000000000000000000000000000000000000600052604160045260246000fd5b611505826114bc565b810181811067ffffffffffffffff82111715611524576115236114cd565b5b80604052505050565b6000611537611440565b905061154382826114fc565b919050565b600067ffffffffffffffff821115611563576115626114cd565b5b61156c826114bc565b9050602081019050919050565b82818337600083830152505050565b600061159b61159684611548565b61152d565b9050828152602081018484840111156115b7576115b66114b7565b5b6115c2848285611579565b509392505050565b600082601f8301126115df576115de6114b2565b5b81356115ef848260208601611588565b91505092915050565b600080600080600060a086880312156116145761161361144a565b5b60006116228882890161149d565b955050602086013567ffffffffffffffff8111156116435761164261144f565b5b61164f888289016115ca565b945050604086013567ffffffffffffffff8111156116705761166f61144f565b5b61167c888289016115ca565b935050606086013567ffffffffffffffff81111561169d5761169c61144f565b5b6116a9888289016115ca565b925050608086013567ffffffffffffffff8111156116ca576116c961144f565b5b6116d6888289016115ca565b9150509295509295909350565b6000602082840312156116f9576116f861144a565b5b60006117078482850161149d565b91505092915050565b600081519050919050565b600082825260208201905092915050565b6000819050602082019050919050565b600081519050919050565b600082825260208201905092915050565b60005b8381101561177657808201518184015260208101905061175b565b60008484015250505050565b600061178d8261173c565b6117978185611747565b93506117a7818560208601611758565b6117b0816114bc565b840191505092915050565b7f4e487b7100000000000000000000000000000000000000000000000000000000600052602160045260246000fd5b600481106117fb576117fa6117bb565b5b50565b600081905061180c826117ea565b919050565b600061181c826117fe565b9050919050565b61182c81611811565b82525050565b61183b81611474565b82525050565b600063ffffffff82169050919050565b61185a81611841565b82525050565b600060e083016000830151848203600086015261187d8282611782565b915050602083015184820360208601526118978282611782565b915050604083015184820360408601526118b18282611782565b915050606083015184820360608601526118cb8282611782565b91505060808301516118e06080860182611823565b5060a08301516118f360a0860182611832565b5060c083015161190660c0860182611851565b508091505092915050565b600061191d8383611860565b905092915050565b6000602082019050919050565b600061193d82611710565b611947818561171b565b9350836020820285016119598561172c565b8060005b8581101561199557848403895281516119768582611911565b945061198183611925565b925060208a0199505060018101905061195d565b50829750879550505050505092915050565b600060208201905081810360008301526119c18184611932565b905092915050565b600081519050919050565b600082825260208201905092915050565b6000819050602082019050919050565b6000611a018383611832565b60208301905092915050565b6000602082019050919050565b6000611a25826119c9565b611a2f81856119d4565b9350611a3a836119e5565b8060005b83811015611a6b578151611a5288826119f5565b9750611a5d83611a0d565b925050600181019050611a3e565b5085935050505092915050565b60006020820190508181036000830152611a928184611a1a565b905092915050565b6000819050919050565b611aad81611a9a565b8114611ab857600080fd5b50565b600081359050611aca81611aa4565b92915050565b60008060408385031215611ae757611ae661144a565b5b6000611af58582860161149d565b9250506020611b0685828601611abb565b9150509250929050565b600082825260208201905092915050565b6000611b2c8261173c565b611b368185611b10565b9350611b46818560208601611758565b611b4f816114bc565b840191505092915050565b611b6381611811565b82525050565b611b7281611474565b82525050565b611b8181611841565b82525050565b600060e0820190508181036000830152611ba1818a611b21565b90508181036020830152611bb58189611b21565b90508181036040830152611bc98188611b21565b90508181036060830152611bdd8187611b21565b9050611bec6080830186611b5a565b611bf960a0830185611b69565b611c0660c0830184611b78565b98975050505050505050565b600060e0830160008301518482036000860152611c2f8282611782565b91505060208301518482036020860152611c498282611782565b91505060408301518482036040860152611c638282611782565b91505060608301518482036060860152611c7d8282611782565b9150506080830151611c926080860182611823565b5060a0830151611ca560a0860182611832565b5060c0830151611cb860c0860182611851565b508091505092915050565b60006020820190508181036000830152611cdd8184611c12565b905092915050565b60048110611cf257600080fd5b50565b600081359050611d0481611ce5565b92915050565b60008060008060008060c08789031215611d2757611d2661144a565b5b6000611d3589828a0161149d565b965050602087013567ffffffffffffffff811115611d5657611d5561144f565b5b611d6289828a016115ca565b955050604087013567ffffffffffffffff811115611d8357611d8261144f565b5b611d8f89828a016115ca565b945050606087013567ffffffffffffffff811115611db057611daf61144f565b5b611dbc89828a016115ca565b935050608087013567ffffffffffffffff811115611ddd57611ddc61144f565b5b611de989828a016115ca565b92505060a0611dfa89828a01611cf5565b9150509295509295509295565b600060208284031215611e1d57611e1c61144a565b5b6000611e2b84828501611abb565b91505092915050565b6000602082019050611e496000830184611b69565b92915050565b7f4e487b7100000000000000000000000000000000000000000000000000000000600052601160045260246000fd5b6000611e8982611a9a565b9150611e9483611a9a565b9250828203905081811115611eac57611eab611e4f565b5b92915050565b7f4e487b7100000000000000000000000000000000000000000000000000000000600052603260045260246000fd5b7f4e487b7100000000000000000000000000000000000000000000000000000000600052602260045260246000fd5b60006002820490506001821680611f2857607f821691505b602082108103611f3b57611f3a611ee1565b5b50919050565b600081905092915050565b60008190508160005260206000209050919050565b60008154611f6e81611f10565b611f788186611f41565b94506001821660008114611f935760018114611fa857611fdb565b60ff1983168652811515820286019350611fdb565b611fb185611f4c565b60005b83811015611fd357815481890152600182019150602081019050611fb4565b838801955050505b50505092915050565b6000611ff08284611f61565b915081905092915050565b7f55736572204e616d65204469646e2774204d6174636800000000000000000000600082015250565b6000612031601683611b10565b915061203c82611ffb565b602082019050919050565b6000602082019050818103600083015261206081612024565b9050919050565b7f50617373776f7264204469646e2774204d617463680000000000000000000000600082015250565b600061209d601583611b10565b91506120a882612067565b602082019050919050565b600060208201905081810360008301526120cc81612090565b9050919050565b60008190508160005260206000209050919050565b60006020601f8301049050919050565b60008160020a8302905092915050565b6000600883026121387fffffffffffffffffffffffffffffffffffffffffffffffffffffffffffffffff826120f8565b61214286836120f8565b95508019841693508086168417925050509392505050565b6000819050919050565b600061217f61217a61217584611a9a565b61215a565b611a9a565b9050919050565b6000819050919050565b61219983612164565b6121ad6121a582612186565b848454612108565b825550505050565b600090565b6121c26121b5565b6121cd818484612190565b505050565b5b818110156121f1576121e66000826121ba565b6001810190506121d3565b5050565b601f82111561223657612207816120d3565b612210846120e8565b8101602085101561221f578190505b61223361222b856120e8565b8301826121d2565b50505b505050565b60008160020a8304905092915050565b600061225c6000198460080261223b565b1980831691505092915050565b6000612275838361224b565b9150826002028217905092915050565b61228e8261173c565b67ffffffffffffffff8111156122a7576122a66114cd565b5b6122b18254611f10565b6122bc8282856121f5565b600060209050601f8311600181146122ef57600084156122dd578287015190505b6122e78582612269565b86555061234f565b601f1984166122fd866120d3565b60005b8281101561232557848901518255600182019150602085019450602081019050612300565b86831015612342578489015161233e601f89168261224b565b8355505b6001600288020188555050505b505050505050565b7f456e74697479204e6f7420466f756e6400000000000000000000000000000000600082015250565b600061238d601083611b10565b915061239882612357565b602082019050919050565b600060208201905081810360008301526123bc81612380565b9050919050565b7f416c726561647920526567697374726564000000000000000000000000000000600082015250565b60006123f9601183611b10565b9150612404826123c3565b602082019050919050565b60006020820190508181036000830152612428816123ec565b905091905056fea2646970667358221220291c530a6466661e4bca247223ecdeec0ec2eea49f9254655261767a5b13a93a64736f6c63430008130033",
  "immutableReferences": {},
  "source": "pragma solidity ^0.8.0;\r\n\r\ncontract EntitiesManager {\r\n\r\n    enum EntityType {\r\n    LawEnforcementAgent,\r\n    Forensics,\r\n    Court,\r\n    Lawyer\r\n    }\r\n\r\n    struct Entity {\r\n        string userName;\r\n        string password;\r\n        string name;\r\n        string departmentCode;\r\n        EntityType entityType;\r\n        address entityAddress;\r\n        uint32 timestamp;\r\n    }\r\n\r\n    mapping(address => Entity[]) public entitiesHistory;\r\n    address[] public allEntities;\r\n\r\n    function createEntity(address _entity, string memory _userName, string memory _password, string memory _name, string  memory _departmentCode, EntityType _entityType) public {\r\n        require(entitiesHistory[_entity].length == 0, \"Already Registred\");\r\n        if (entitiesHistory[_entity].length == 0) \r\n        {\r\n            entitiesHistory[_entity].push(Entity(_userName, _password, _name, _departmentCode, _entityType, _entity,  uint32(block.timestamp)));\r\n            allEntities.push(_entity);\r\n        }\r\n    }\r\n\r\n    function updateEntity(address _entity, string memory _userName, string memory _password, string memory _name, string  memory _departmentCode) public {\r\n        require(keccak256(bytes(entitiesHistory[_entity][(entitiesHistory[_entity].length)-1].userName)) == keccak256(bytes(_userName)), \"User Name Didn't Match\");\r\n        require(keccak256(bytes(entitiesHistory[_entity][(entitiesHistory[_entity].length)-1].password)) == keccak256(bytes(_password)), \"Password Didn't Match\");\r\n        Entity memory lastUpdate = getLastUpdate(_entity);\r\n        entitiesHistory[_entity].push(Entity(_userName, _password, _name, _departmentCode, lastUpdate.entityType, _entity,  uint32(block.timestamp)));\r\n    }\r\n\r\n    function getEntities() public view returns (address[] memory) {\r\n        return allEntities;\r\n    }\r\n\r\n    function getEntityHistory(address _entity) public view returns (Entity[] memory) {\r\n        return entitiesHistory[_entity];\r\n    }\r\n\r\n    function getLastUpdate (address _entity) public view returns (Entity memory) {\r\n        uint totalVersions = entitiesHistory[_entity].length;\r\n        require(totalVersions > 0, \"Entity Not Found\");\r\n\r\n        return entitiesHistory[_entity][totalVersions - 1];\r\n    }\r\n}",
  "sourcePath": "C:\\IPCA DISSERTAO\\evidences_dapp\\contracts\\EntitiesManager.sol",
  "compiler": {
    "name": "solc",
    "version": "0.8.19+commit.7dd6d404.Emscripten.clang"
  },
  "schemaVersion": "3.4.13",
  "updatedAt": "2023-09-24T16:55:53.822Z",
  "networkType": "ethereum",
  "devdoc": {
    "kind": "dev",
    "methods": {},
    "version": 1
  },
  "userdoc": {
    "kind": "user",
    "methods": {},
    "version": 1
  }
}