{
  "contractName": "EvidencesManager",
  "abi": [
    {
      "inputs": [
        {
          "internalType": "address",
          "name": "_evidencesManagerAllowedUserAddress",
          "type": "address"
        }
      ],
      "stateMutability": "nonpayable",
      "type": "constructor"
    },
    {
      "inputs": [
        {
          "internalType": "uint256",
          "name": "",
          "type": "uint256"
        }
      ],
      "name": "allEvidences",
      "outputs": [
        {
          "internalType": "string",
          "name": "",
          "type": "string"
        }
      ],
      "stateMutability": "view",
      "type": "function",
      "constant": true
    },
    {
      "inputs": [
        {
          "internalType": "string",
          "name": "",
          "type": "string"
        },
        {
          "internalType": "uint256",
          "name": "",
          "type": "uint256"
        }
      ],
      "name": "evidencesFiles",
      "outputs": [
        {
          "internalType": "string",
          "name": "id",
          "type": "string"
        },
        {
          "internalType": "string",
          "name": "fileName",
          "type": "string"
        },
        {
          "internalType": "string",
          "name": "fileHash",
          "type": "string"
        }
      ],
      "stateMutability": "view",
      "type": "function",
      "constant": true
    },
    {
      "inputs": [
        {
          "internalType": "string",
          "name": "",
          "type": "string"
        },
        {
          "internalType": "uint256",
          "name": "",
          "type": "uint256"
        }
      ],
      "name": "evidencesHistory",
      "outputs": [
        {
          "internalType": "string",
          "name": "uniqueCode",
          "type": "string"
        },
        {
          "internalType": "string",
          "name": "caseNo",
          "type": "string"
        },
        {
          "internalType": "enum EvidencesManager.EvidenceClassification",
          "name": "classification",
          "type": "uint8"
        },
        {
          "internalType": "string",
          "name": "name",
          "type": "string"
        },
        {
          "internalType": "enum EvidencesManager.EvidenceType",
          "name": "eType",
          "type": "uint8"
        },
        {
          "components": [
            {
              "internalType": "string",
              "name": "userName",
              "type": "string"
            },
            {
              "internalType": "string",
              "name": "password",
              "type": "string"
            },
            {
              "internalType": "string",
              "name": "name",
              "type": "string"
            },
            {
              "internalType": "string",
              "name": "departmentCode",
              "type": "string"
            },
            {
              "internalType": "enum EntitiesManager.EntityType",
              "name": "entityType",
              "type": "uint8"
            },
            {
              "internalType": "address",
              "name": "entityAddress",
              "type": "address"
            },
            {
              "internalType": "uint256",
              "name": "timestamp",
              "type": "uint256"
            },
            {
              "internalType": "bool",
              "name": "isApproved",
              "type": "bool"
            },
            {
              "internalType": "address",
              "name": "approverAddress",
              "type": "address"
            }
          ],
          "internalType": "struct EntitiesManager.Entity",
          "name": "owner",
          "type": "tuple"
        },
        {
          "internalType": "uint256",
          "name": "timestamp",
          "type": "uint256"
        },
        {
          "internalType": "bool",
          "name": "isActive",
          "type": "bool"
        },
        {
          "internalType": "string",
          "name": "observations",
          "type": "string"
        }
      ],
      "stateMutability": "view",
      "type": "function",
      "constant": true
    },
    {
      "inputs": [],
      "name": "evidencesManagerAllowedUsers",
      "outputs": [
        {
          "internalType": "contract EvidencesManagerAllowedUsers",
          "name": "",
          "type": "address"
        }
      ],
      "stateMutability": "view",
      "type": "function",
      "constant": true
    },
    {
      "inputs": [
        {
          "internalType": "enum EvidencesManager.ObservationsTipified",
          "name": "_obs",
          "type": "uint8"
        }
      ],
      "name": "obsToString",
      "outputs": [
        {
          "internalType": "string",
          "name": "",
          "type": "string"
        }
      ],
      "stateMutability": "pure",
      "type": "function",
      "constant": true
    },
    {
      "inputs": [
        {
          "internalType": "string",
          "name": "_evidenceId",
          "type": "string"
        },
        {
          "internalType": "string",
          "name": "_caseNo",
          "type": "string"
        },
        {
          "internalType": "enum EvidencesManager.EvidenceClassification",
          "name": "_classification",
          "type": "uint8"
        },
        {
          "internalType": "string",
          "name": "_evidenceName",
          "type": "string"
        },
        {
          "internalType": "enum EvidencesManager.EvidenceType",
          "name": "_evidenceType",
          "type": "uint8"
        },
        {
          "components": [
            {
              "internalType": "string",
              "name": "userName",
              "type": "string"
            },
            {
              "internalType": "string",
              "name": "password",
              "type": "string"
            },
            {
              "internalType": "string",
              "name": "name",
              "type": "string"
            },
            {
              "internalType": "string",
              "name": "departmentCode",
              "type": "string"
            },
            {
              "internalType": "enum EntitiesManager.EntityType",
              "name": "entityType",
              "type": "uint8"
            },
            {
              "internalType": "address",
              "name": "entityAddress",
              "type": "address"
            },
            {
              "internalType": "uint256",
              "name": "timestamp",
              "type": "uint256"
            },
            {
              "internalType": "bool",
              "name": "isApproved",
              "type": "bool"
            },
            {
              "internalType": "address",
              "name": "approverAddress",
              "type": "address"
            }
          ],
          "internalType": "struct EntitiesManager.Entity",
          "name": "_entity",
          "type": "tuple"
        }
      ],
      "name": "addEvidence",
      "outputs": [],
      "stateMutability": "nonpayable",
      "type": "function"
    },
    {
      "inputs": [
        {
          "internalType": "string",
          "name": "_evidenceId",
          "type": "string"
        },
        {
          "components": [
            {
              "internalType": "string",
              "name": "id",
              "type": "string"
            },
            {
              "internalType": "string",
              "name": "fileName",
              "type": "string"
            },
            {
              "internalType": "string",
              "name": "fileHash",
              "type": "string"
            }
          ],
          "internalType": "struct EvidencesManager.EvidenceFile",
          "name": "_file",
          "type": "tuple"
        }
      ],
      "name": "addFile",
      "outputs": [],
      "stateMutability": "nonpayable",
      "type": "function"
    },
    {
      "inputs": [
        {
          "internalType": "string",
          "name": "_evidenceId",
          "type": "string"
        },
        {
          "components": [
            {
              "internalType": "string",
              "name": "userName",
              "type": "string"
            },
            {
              "internalType": "string",
              "name": "password",
              "type": "string"
            },
            {
              "internalType": "string",
              "name": "name",
              "type": "string"
            },
            {
              "internalType": "string",
              "name": "departmentCode",
              "type": "string"
            },
            {
              "internalType": "enum EntitiesManager.EntityType",
              "name": "entityType",
              "type": "uint8"
            },
            {
              "internalType": "address",
              "name": "entityAddress",
              "type": "address"
            },
            {
              "internalType": "uint256",
              "name": "timestamp",
              "type": "uint256"
            },
            {
              "internalType": "bool",
              "name": "isApproved",
              "type": "bool"
            },
            {
              "internalType": "address",
              "name": "approverAddress",
              "type": "address"
            }
          ],
          "internalType": "struct EntitiesManager.Entity[]",
          "name": "_entities",
          "type": "tuple[]"
        }
      ],
      "name": "addAllowedUsers",
      "outputs": [],
      "stateMutability": "nonpayable",
      "type": "function"
    },
    {
      "inputs": [
        {
          "internalType": "string",
          "name": "_evidenceId",
          "type": "string"
        },
        {
          "components": [
            {
              "internalType": "string",
              "name": "userName",
              "type": "string"
            },
            {
              "internalType": "string",
              "name": "password",
              "type": "string"
            },
            {
              "internalType": "string",
              "name": "name",
              "type": "string"
            },
            {
              "internalType": "string",
              "name": "departmentCode",
              "type": "string"
            },
            {
              "internalType": "enum EntitiesManager.EntityType",
              "name": "entityType",
              "type": "uint8"
            },
            {
              "internalType": "address",
              "name": "entityAddress",
              "type": "address"
            },
            {
              "internalType": "uint256",
              "name": "timestamp",
              "type": "uint256"
            },
            {
              "internalType": "bool",
              "name": "isApproved",
              "type": "bool"
            },
            {
              "internalType": "address",
              "name": "approverAddress",
              "type": "address"
            }
          ],
          "internalType": "struct EntitiesManager.Entity",
          "name": "_entity",
          "type": "tuple"
        }
      ],
      "name": "updateOwner",
      "outputs": [],
      "stateMutability": "nonpayable",
      "type": "function"
    },
    {
      "inputs": [
        {
          "components": [
            {
              "internalType": "string",
              "name": "userName",
              "type": "string"
            },
            {
              "internalType": "string",
              "name": "password",
              "type": "string"
            },
            {
              "internalType": "string",
              "name": "name",
              "type": "string"
            },
            {
              "internalType": "string",
              "name": "departmentCode",
              "type": "string"
            },
            {
              "internalType": "enum EntitiesManager.EntityType",
              "name": "entityType",
              "type": "uint8"
            },
            {
              "internalType": "address",
              "name": "entityAddress",
              "type": "address"
            },
            {
              "internalType": "uint256",
              "name": "timestamp",
              "type": "uint256"
            },
            {
              "internalType": "bool",
              "name": "isApproved",
              "type": "bool"
            },
            {
              "internalType": "address",
              "name": "approverAddress",
              "type": "address"
            }
          ],
          "internalType": "struct EntitiesManager.Entity",
          "name": "entity",
          "type": "tuple"
        }
      ],
      "name": "getEvidences",
      "outputs": [
        {
          "components": [
            {
              "internalType": "string",
              "name": "uniqueCode",
              "type": "string"
            },
            {
              "internalType": "string",
              "name": "caseNo",
              "type": "string"
            },
            {
              "internalType": "enum EvidencesManager.EvidenceClassification",
              "name": "classification",
              "type": "uint8"
            },
            {
              "internalType": "string",
              "name": "name",
              "type": "string"
            },
            {
              "internalType": "enum EvidencesManager.EvidenceType",
              "name": "eType",
              "type": "uint8"
            },
            {
              "components": [
                {
                  "internalType": "string",
                  "name": "userName",
                  "type": "string"
                },
                {
                  "internalType": "string",
                  "name": "password",
                  "type": "string"
                },
                {
                  "internalType": "string",
                  "name": "name",
                  "type": "string"
                },
                {
                  "internalType": "string",
                  "name": "departmentCode",
                  "type": "string"
                },
                {
                  "internalType": "enum EntitiesManager.EntityType",
                  "name": "entityType",
                  "type": "uint8"
                },
                {
                  "internalType": "address",
                  "name": "entityAddress",
                  "type": "address"
                },
                {
                  "internalType": "uint256",
                  "name": "timestamp",
                  "type": "uint256"
                },
                {
                  "internalType": "bool",
                  "name": "isApproved",
                  "type": "bool"
                },
                {
                  "internalType": "address",
                  "name": "approverAddress",
                  "type": "address"
                }
              ],
              "internalType": "struct EntitiesManager.Entity",
              "name": "owner",
              "type": "tuple"
            },
            {
              "internalType": "uint256",
              "name": "timestamp",
              "type": "uint256"
            },
            {
              "internalType": "string[]",
              "name": "uFilesCodes",
              "type": "string[]"
            },
            {
              "internalType": "bool",
              "name": "isActive",
              "type": "bool"
            },
            {
              "internalType": "string",
              "name": "observations",
              "type": "string"
            }
          ],
          "internalType": "struct EvidencesManager.Evidence[]",
          "name": "",
          "type": "tuple[]"
        }
      ],
      "stateMutability": "view",
      "type": "function",
      "constant": true
    },
    {
      "inputs": [
        {
          "internalType": "string",
          "name": "_evidenceId",
          "type": "string"
        },
        {
          "components": [
            {
              "internalType": "string",
              "name": "userName",
              "type": "string"
            },
            {
              "internalType": "string",
              "name": "password",
              "type": "string"
            },
            {
              "internalType": "string",
              "name": "name",
              "type": "string"
            },
            {
              "internalType": "string",
              "name": "departmentCode",
              "type": "string"
            },
            {
              "internalType": "enum EntitiesManager.EntityType",
              "name": "entityType",
              "type": "uint8"
            },
            {
              "internalType": "address",
              "name": "entityAddress",
              "type": "address"
            },
            {
              "internalType": "uint256",
              "name": "timestamp",
              "type": "uint256"
            },
            {
              "internalType": "bool",
              "name": "isApproved",
              "type": "bool"
            },
            {
              "internalType": "address",
              "name": "approverAddress",
              "type": "address"
            }
          ],
          "internalType": "struct EntitiesManager.Entity",
          "name": "entity",
          "type": "tuple"
        }
      ],
      "name": "getEvidenceHistory",
      "outputs": [
        {
          "components": [
            {
              "internalType": "string",
              "name": "uniqueCode",
              "type": "string"
            },
            {
              "internalType": "string",
              "name": "caseNo",
              "type": "string"
            },
            {
              "internalType": "enum EvidencesManager.EvidenceClassification",
              "name": "classification",
              "type": "uint8"
            },
            {
              "internalType": "string",
              "name": "name",
              "type": "string"
            },
            {
              "internalType": "enum EvidencesManager.EvidenceType",
              "name": "eType",
              "type": "uint8"
            },
            {
              "components": [
                {
                  "internalType": "string",
                  "name": "userName",
                  "type": "string"
                },
                {
                  "internalType": "string",
                  "name": "password",
                  "type": "string"
                },
                {
                  "internalType": "string",
                  "name": "name",
                  "type": "string"
                },
                {
                  "internalType": "string",
                  "name": "departmentCode",
                  "type": "string"
                },
                {
                  "internalType": "enum EntitiesManager.EntityType",
                  "name": "entityType",
                  "type": "uint8"
                },
                {
                  "internalType": "address",
                  "name": "entityAddress",
                  "type": "address"
                },
                {
                  "internalType": "uint256",
                  "name": "timestamp",
                  "type": "uint256"
                },
                {
                  "internalType": "bool",
                  "name": "isApproved",
                  "type": "bool"
                },
                {
                  "internalType": "address",
                  "name": "approverAddress",
                  "type": "address"
                }
              ],
              "internalType": "struct EntitiesManager.Entity",
              "name": "owner",
              "type": "tuple"
            },
            {
              "internalType": "uint256",
              "name": "timestamp",
              "type": "uint256"
            },
            {
              "internalType": "string[]",
              "name": "uFilesCodes",
              "type": "string[]"
            },
            {
              "internalType": "bool",
              "name": "isActive",
              "type": "bool"
            },
            {
              "internalType": "string",
              "name": "observations",
              "type": "string"
            }
          ],
          "internalType": "struct EvidencesManager.Evidence[]",
          "name": "",
          "type": "tuple[]"
        }
      ],
      "stateMutability": "view",
      "type": "function",
      "constant": true
    },
    {
      "inputs": [
        {
          "internalType": "string",
          "name": "_evidenceId",
          "type": "string"
        },
        {
          "internalType": "string",
          "name": "_fileId",
          "type": "string"
        }
      ],
      "name": "getFileInfo",
      "outputs": [
        {
          "components": [
            {
              "internalType": "string",
              "name": "id",
              "type": "string"
            },
            {
              "internalType": "string",
              "name": "fileName",
              "type": "string"
            },
            {
              "internalType": "string",
              "name": "fileHash",
              "type": "string"
            }
          ],
          "internalType": "struct EvidencesManager.EvidenceFile",
          "name": "",
          "type": "tuple"
        }
      ],
      "stateMutability": "view",
      "type": "function",
      "constant": true
    },
    {
      "inputs": [
        {
          "internalType": "string",
          "name": "_evidenceId",
          "type": "string"
        }
      ],
      "name": "getLastUpdate",
      "outputs": [
        {
          "components": [
            {
              "internalType": "string",
              "name": "uniqueCode",
              "type": "string"
            },
            {
              "internalType": "string",
              "name": "caseNo",
              "type": "string"
            },
            {
              "internalType": "enum EvidencesManager.EvidenceClassification",
              "name": "classification",
              "type": "uint8"
            },
            {
              "internalType": "string",
              "name": "name",
              "type": "string"
            },
            {
              "internalType": "enum EvidencesManager.EvidenceType",
              "name": "eType",
              "type": "uint8"
            },
            {
              "components": [
                {
                  "internalType": "string",
                  "name": "userName",
                  "type": "string"
                },
                {
                  "internalType": "string",
                  "name": "password",
                  "type": "string"
                },
                {
                  "internalType": "string",
                  "name": "name",
                  "type": "string"
                },
                {
                  "internalType": "string",
                  "name": "departmentCode",
                  "type": "string"
                },
                {
                  "internalType": "enum EntitiesManager.EntityType",
                  "name": "entityType",
                  "type": "uint8"
                },
                {
                  "internalType": "address",
                  "name": "entityAddress",
                  "type": "address"
                },
                {
                  "internalType": "uint256",
                  "name": "timestamp",
                  "type": "uint256"
                },
                {
                  "internalType": "bool",
                  "name": "isApproved",
                  "type": "bool"
                },
                {
                  "internalType": "address",
                  "name": "approverAddress",
                  "type": "address"
                }
              ],
              "internalType": "struct EntitiesManager.Entity",
              "name": "owner",
              "type": "tuple"
            },
            {
              "internalType": "uint256",
              "name": "timestamp",
              "type": "uint256"
            },
            {
              "internalType": "string[]",
              "name": "uFilesCodes",
              "type": "string[]"
            },
            {
              "internalType": "bool",
              "name": "isActive",
              "type": "bool"
            },
            {
              "internalType": "string",
              "name": "observations",
              "type": "string"
            }
          ],
          "internalType": "struct EvidencesManager.Evidence",
          "name": "",
          "type": "tuple"
        }
      ],
      "stateMutability": "view",
      "type": "function",
      "constant": true
    }
  ],
  "bytecode": "0x60806040523480156200001157600080fd5b5060405162005b6f38038062005b6f8339818101604052810190620000379190620000e8565b806000806101000a81548173ffffffffffffffffffffffffffffffffffffffff021916908373ffffffffffffffffffffffffffffffffffffffff160217905550506200011a565b600080fd5b600073ffffffffffffffffffffffffffffffffffffffff82169050919050565b6000620000b08262000083565b9050919050565b620000c281620000a3565b8114620000ce57600080fd5b50565b600081519050620000e281620000b7565b92915050565b6000602082840312156200010157620001006200007e565b5b60006200011184828501620000d1565b91505092915050565b615a45806200012a6000396000f3fe608060405234801561001057600080fd5b50600436106100ec576000357c010000000000000000000000000000000000000000000000000000000090048063656fc077116100a9578063a076b31f11610083578063a076b31f1461026f578063d012140e146102a1578063e634926e146102bd578063fe441f43146102d9576100ec565b8063656fc077146101d7578063697b22da14610207578063947ea5ac1461023f576100ec565b80630b97f701146100f15780631deea486146101215780632c5ec5c81461013f5780633eeb568b1461016f57806345ac77d91461019f5780635c02a7c6146101bb575b600080fd5b61010b60048036038101906101069190614186565b610309565b604051610118919061470c565b60405180910390f35b610129610bb2565b604051610136919061478d565b60405180910390f35b610159600480360381019061015491906147a8565b610bd6565b604051610166919061487e565b60405180910390f35b610189600480360381019061018491906148a0565b610ecc565b60405161019691906149e6565b60405180910390f35b6101b960048036038101906101b49190614186565b6116c0565b005b6101d560048036038101906101d09190614aee565b611b61565b005b6101f160048036038101906101ec9190614b66565b612067565b6040516101fe919061470c565b60405180910390f35b610221600480360381019061021c9190614baf565b6122eb565b60405161023699989796959493929190614d6b565b60405180910390f35b61025960048036038101906102549190614e1b565b612912565b6040516102669190614e48565b60405180910390f35b61028960048036038101906102849190614baf565b6129be565b60405161029893929190614e6a565b60405180910390f35b6102bb60048036038101906102b69190614f00565b612bb3565b005b6102d760048036038101906102d291906150b5565b61347c565b005b6102f360048036038101906102ee9190615152565b613924565b6040516103009190614e48565b60405180910390f35b6060600061031684610ecc565b905060008054906101000a900473ffffffffffffffffffffffffffffffffffffffff1673ffffffffffffffffffffffffffffffffffffffff16634bf25d9b82856040518363ffffffff167c010000000000000000000000000000000000000000000000000000000002815260040161038f92919061517f565b602060405180830381865afa1580156103ac573d6000803e3d6000fd5b505050506040513d601f19601f820116820180604052508101906103d091906151cb565b61040f576040517f08c379a000000000000000000000000000000000000000000000000000000000815260040161040690615244565b60405180910390fd5b60018460405161041f91906152a0565b9081526020016040518091039020805480602002602001604051908101604052809291908181526020016000905b82821015610ba5578382906000526020600020906010020160405180610140016040529081600082018054610481906152e6565b80601f01602080910402602001604051908101604052809291908181526020018280546104ad906152e6565b80156104fa5780601f106104cf576101008083540402835291602001916104fa565b820191906000526020600020905b8154815290600101906020018083116104dd57829003601f168201915b50505050508152602001600182018054610513906152e6565b80601f016020809104026020016040519081016040528092919081815260200182805461053f906152e6565b801561058c5780601f106105615761010080835404028352916020019161058c565b820191906000526020600020905b81548152906001019060200180831161056f57829003601f168201915b505050505081526020016002820160009054906101000a900460ff1660028111156105ba576105b96142a9565b5b60028111156105cc576105cb6142a9565b5b81526020016003820180546105e0906152e6565b80601f016020809104026020016040519081016040528092919081815260200182805461060c906152e6565b80156106595780601f1061062e57610100808354040283529160200191610659565b820191906000526020600020905b81548152906001019060200180831161063c57829003601f168201915b505050505081526020016004820160009054906101000a900460ff166003811115610687576106866142a9565b5b6003811115610699576106986142a9565b5b815260200160058201604051806101200160405290816000820180546106be906152e6565b80601f01602080910402602001604051908101604052809291908181526020018280546106ea906152e6565b80156107375780601f1061070c57610100808354040283529160200191610737565b820191906000526020600020905b81548152906001019060200180831161071a57829003601f168201915b50505050508152602001600182018054610750906152e6565b80601f016020809104026020016040519081016040528092919081815260200182805461077c906152e6565b80156107c95780601f1061079e576101008083540402835291602001916107c9565b820191906000526020600020905b8154815290600101906020018083116107ac57829003601f168201915b505050505081526020016002820180546107e2906152e6565b80601f016020809104026020016040519081016040528092919081815260200182805461080e906152e6565b801561085b5780601f106108305761010080835404028352916020019161085b565b820191906000526020600020905b81548152906001019060200180831161083e57829003601f168201915b50505050508152602001600382018054610874906152e6565b80601f01602080910402602001604051908101604052809291908181526020018280546108a0906152e6565b80156108ed5780601f106108c2576101008083540402835291602001916108ed565b820191906000526020600020905b8154815290600101906020018083116108d057829003601f168201915b505050505081526020016004820160009054906101000a900460ff16600481111561091b5761091a6142a9565b5b600481111561092d5761092c6142a9565b5b81526020016004820160019054906101000a900473ffffffffffffffffffffffffffffffffffffffff1673ffffffffffffffffffffffffffffffffffffffff1673ffffffffffffffffffffffffffffffffffffffff168152602001600582015481526020016006820160009054906101000a900460ff161515151581526020016006820160019054906101000a900473ffffffffffffffffffffffffffffffffffffffff1673ffffffffffffffffffffffffffffffffffffffff1673ffffffffffffffffffffffffffffffffffffffff16815250508152602001600c8201548152602001600d8201805480602002602001604051908101604052809291908181526020016000905b82821015610ae1578382906000526020600020018054610a54906152e6565b80601f0160208091040260200160405190810160405280929190818152602001828054610a80906152e6565b8015610acd5780601f10610aa257610100808354040283529160200191610acd565b820191906000526020600020905b815481529060010190602001808311610ab057829003601f168201915b505050505081526020019060010190610a35565b505050508152602001600e820160009054906101000a900460ff16151515158152602001600f82018054610b14906152e6565b80601f0160208091040260200160405190810160405280929190818152602001828054610b40906152e6565b8015610b8d5780601f10610b6257610100808354040283529160200191610b8d565b820191906000526020600020905b815481529060010190602001808311610b7057829003601f168201915b5050505050815250508152602001906001019061044d565b5050505091505092915050565b60008054906101000a900473ffffffffffffffffffffffffffffffffffffffff1681565b610bde613bdb565b610be6613bdb565b60005b600285604051610bf991906152a0565b908152602001604051809103902080549050811015610ec05783604051602001610c2391906152a0565b60405160208183030381529060405280519060200120600286604051610c4991906152a0565b90815260200160405180910390208281548110610c6957610c68615317565b5b9060005260206000209060030201600001604051602001610c8a91906153de565b6040516020818303038152906040528051906020012003610ead57600285604051610cb591906152a0565b90815260200160405180910390208181548110610cd557610cd4615317565b5b9060005260206000209060030201604051806060016040529081600082018054610cfe906152e6565b80601f0160208091040260200160405190810160405280929190818152602001828054610d2a906152e6565b8015610d775780601f10610d4c57610100808354040283529160200191610d77565b820191906000526020600020905b815481529060010190602001808311610d5a57829003601f168201915b50505050508152602001600182018054610d90906152e6565b80601f0160208091040260200160405190810160405280929190818152602001828054610dbc906152e6565b8015610e095780601f10610dde57610100808354040283529160200191610e09565b820191906000526020600020905b815481529060010190602001808311610dec57829003601f168201915b50505050508152602001600282018054610e22906152e6565b80601f0160208091040260200160405190810160405280929190818152602001828054610e4e906152e6565b8015610e9b5780601f10610e7057610100808354040283529160200191610e9b565b820191906000526020600020905b815481529060010190602001808311610e7e57829003601f168201915b50505050508152505092505050610ec6565b8080610eb890615424565b915050610be9565b50809150505b92915050565b610ed4613bfc565b6000600183604051610ee691906152a0565b908152602001604051809103902080549050905060008111610f3d576040517f08c379a0000000000000000000000000000000000000000000000000000000008152600401610f34906154b8565b60405180910390fd5b600183604051610f4d91906152a0565b9081526020016040518091039020600182610f6891906154d8565b81548110610f7957610f78615317565b5b906000526020600020906010020160405180610140016040529081600082018054610fa3906152e6565b80601f0160208091040260200160405190810160405280929190818152602001828054610fcf906152e6565b801561101c5780601f10610ff15761010080835404028352916020019161101c565b820191906000526020600020905b815481529060010190602001808311610fff57829003601f168201915b50505050508152602001600182018054611035906152e6565b80601f0160208091040260200160405190810160405280929190818152602001828054611061906152e6565b80156110ae5780601f10611083576101008083540402835291602001916110ae565b820191906000526020600020905b81548152906001019060200180831161109157829003601f168201915b505050505081526020016002820160009054906101000a900460ff1660028111156110dc576110db6142a9565b5b60028111156110ee576110ed6142a9565b5b8152602001600382018054611102906152e6565b80601f016020809104026020016040519081016040528092919081815260200182805461112e906152e6565b801561117b5780601f106111505761010080835404028352916020019161117b565b820191906000526020600020905b81548152906001019060200180831161115e57829003601f168201915b505050505081526020016004820160009054906101000a900460ff1660038111156111a9576111a86142a9565b5b60038111156111bb576111ba6142a9565b5b815260200160058201604051806101200160405290816000820180546111e0906152e6565b80601f016020809104026020016040519081016040528092919081815260200182805461120c906152e6565b80156112595780601f1061122e57610100808354040283529160200191611259565b820191906000526020600020905b81548152906001019060200180831161123c57829003601f168201915b50505050508152602001600182018054611272906152e6565b80601f016020809104026020016040519081016040528092919081815260200182805461129e906152e6565b80156112eb5780601f106112c0576101008083540402835291602001916112eb565b820191906000526020600020905b8154815290600101906020018083116112ce57829003601f168201915b50505050508152602001600282018054611304906152e6565b80601f0160208091040260200160405190810160405280929190818152602001828054611330906152e6565b801561137d5780601f106113525761010080835404028352916020019161137d565b820191906000526020600020905b81548152906001019060200180831161136057829003601f168201915b50505050508152602001600382018054611396906152e6565b80601f01602080910402602001604051908101604052809291908181526020018280546113c2906152e6565b801561140f5780601f106113e45761010080835404028352916020019161140f565b820191906000526020600020905b8154815290600101906020018083116113f257829003601f168201915b505050505081526020016004820160009054906101000a900460ff16600481111561143d5761143c6142a9565b5b600481111561144f5761144e6142a9565b5b81526020016004820160019054906101000a900473ffffffffffffffffffffffffffffffffffffffff1673ffffffffffffffffffffffffffffffffffffffff1673ffffffffffffffffffffffffffffffffffffffff168152602001600582015481526020016006820160009054906101000a900460ff161515151581526020016006820160019054906101000a900473ffffffffffffffffffffffffffffffffffffffff1673ffffffffffffffffffffffffffffffffffffffff1673ffffffffffffffffffffffffffffffffffffffff16815250508152602001600c8201548152602001600d8201805480602002602001604051908101604052809291908181526020016000905b82821015611603578382906000526020600020018054611576906152e6565b80601f01602080910402602001604051908101604052809291908181526020018280546115a2906152e6565b80156115ef5780601f106115c4576101008083540402835291602001916115ef565b820191906000526020600020905b8154815290600101906020018083116115d257829003601f168201915b505050505081526020019060010190611557565b505050508152602001600e820160009054906101000a900460ff16151515158152602001600f82018054611636906152e6565b80601f0160208091040260200160405190810160405280929190818152602001828054611662906152e6565b80156116af5780601f10611684576101008083540402835291602001916116af565b820191906000526020600020905b81548152906001019060200180831161169257829003601f168201915b505050505081525050915050919050565b60006116cb83610ecc565b905060011515816101000151151514611719576040517f08c379a000000000000000000000000000000000000000000000000000000000815260040161171090615558565b60405180910390fd5b60018360405161172991906152a0565b9081526020016040518091039020604051806101400160405280858152602001836020015181526020018360400151600281111561176a576117696142a9565b5b815260200183606001518152602001836080015160038111156117905761178f6142a9565b5b8152602001848152602001428152602001600067ffffffffffffffff8111156117bc576117bb613e10565b5b6040519080825280602002602001820160405280156117ef57816020015b60608152602001906001900390816117da5790505b5081526020016001151581526020016118086004613924565b81525090806001815401808255809150506001900390600052602060002090601002016000909190919091506000820151816000019081611849919061570b565b50602082015181600101908161185f919061570b565b5060408201518160020160006101000a81548160ff0219169083600281111561188b5761188a6142a9565b5b021790555060608201518160030190816118a5919061570b565b5060808201518160040160006101000a81548160ff021916908360038111156118d1576118d06142a9565b5b021790555060a08201518160050160008201518160000190816118f4919061570b565b50602082015181600101908161190a919061570b565b506040820151816002019081611920919061570b565b506060820151816003019081611936919061570b565b5060808201518160040160006101000a81548160ff02191690836004811115611962576119616142a9565b5b021790555060a08201518160040160016101000a81548173ffffffffffffffffffffffffffffffffffffffff021916908373ffffffffffffffffffffffffffffffffffffffff16021790555060c0820151816005015560e08201518160060160006101000a81548160ff0219169083151502179055506101008201518160060160016101000a81548173ffffffffffffffffffffffffffffffffffffffff021916908373ffffffffffffffffffffffffffffffffffffffff160217905550505060c082015181600c015560e082015181600d019080519060200190611a48929190613c7b565b5061010082015181600e0160006101000a81548160ff02191690831515021790555061012082015181600f019081611a80919061570b565b505050600280811115611a9657611a956142a9565b5b81604001516002811115611aad57611aac6142a9565b5b03611b5c5760008054906101000a900473ffffffffffffffffffffffffffffffffffffffff1673ffffffffffffffffffffffffffffffffffffffff1663186b0cb084846040518363ffffffff167c0100000000000000000000000000000000000000000000000000000000028152600401611b299291906157dd565b600060405180830381600087803b158015611b4357600080fd5b505af1158015611b57573d6000803e3d6000fd5b505050505b505050565b6000611b6c83610ecc565b905060011515816101000151151514611bba576040517f08c379a0000000000000000000000000000000000000000000000000000000008152600401611bb190615558565b60405180910390fd5b60005b82518163ffffffff1610156120615760008054906101000a900473ffffffffffffffffffffffffffffffffffffffff1673ffffffffffffffffffffffffffffffffffffffff1663186b0cb085858463ffffffff1681518110611c2257611c21615317565b5b60200260200101516040518363ffffffff167c0100000000000000000000000000000000000000000000000000000000028152600401611c639291906157dd565b600060405180830381600087803b158015611c7d57600080fd5b505af1158015611c91573d6000803e3d6000fd5b505050506000611ca16005613924565b848363ffffffff1681518110611cba57611cb9615317565b5b602002602001015160000151604051602001611cd7929190615860565b6040516020818303038152906040529050600185604051611cf891906152a0565b90815260200160405180910390206040518061014001604052808781526020018560200151815260200185604001516002811115611d3957611d386142a9565b5b81526020018560600151815260200185608001516003811115611d5f57611d5e6142a9565b5b81526020018560a001518152602001428152602001600067ffffffffffffffff811115611d8f57611d8e613e10565b5b604051908082528060200260200182016040528015611dc257816020015b6060815260200190600190039081611dad5790505b5081526020016001151581526020018381525090806001815401808255809150506001900390600052602060002090601002016000909190919091506000820151816000019081611e13919061570b565b506020820151816001019081611e29919061570b565b5060408201518160020160006101000a81548160ff02191690836002811115611e5557611e546142a9565b5b02179055506060820151816003019081611e6f919061570b565b5060808201518160040160006101000a81548160ff02191690836003811115611e9b57611e9a6142a9565b5b021790555060a0820151816005016000820151816000019081611ebe919061570b565b506020820151816001019081611ed4919061570b565b506040820151816002019081611eea919061570b565b506060820151816003019081611f00919061570b565b5060808201518160040160006101000a81548160ff02191690836004811115611f2c57611f2b6142a9565b5b021790555060a08201518160040160016101000a81548173ffffffffffffffffffffffffffffffffffffffff021916908373ffffffffffffffffffffffffffffffffffffffff16021790555060c0820151816005015560e08201518160060160006101000a81548160ff0219169083151502179055506101008201518160060160016101000a81548173ffffffffffffffffffffffffffffffffffffffff021916908373ffffffffffffffffffffffffffffffffffffffff160217905550505060c082015181600c015560e082015181600d019080519060200190612012929190613c7b565b5061010082015181600e0160006101000a81548160ff02191690831515021790555061012082015181600f01908161204a919061570b565b5050505080806120599061589f565b915050611bbd565b50505050565b60606000600380549050116120b1576040517f08c379a00000000000000000000000000000000000000000000000000000000081526004016120a890615917565b60405180910390fd5b600060038054905067ffffffffffffffff8111156120d2576120d1613e10565b5b60405190808252806020026020018201604052801561210b57816020015b6120f8613bfc565b8152602001906001900390816120f05790505b5090506000805b6003805490508163ffffffff1610156122dd5760006121dc60038363ffffffff168154811061214457612143615317565b5b906000526020600020018054612159906152e6565b80601f0160208091040260200160405190810160405280929190818152602001828054612185906152e6565b80156121d25780601f106121a7576101008083540402835291602001916121d2565b820191906000526020600020905b8154815290600101906020018083116121b557829003601f168201915b5050505050610ecc565b905060008054906101000a900473ffffffffffffffffffffffffffffffffffffffff1673ffffffffffffffffffffffffffffffffffffffff16634bf25d9b82886040518363ffffffff167c010000000000000000000000000000000000000000000000000000000002815260040161225592919061517f565b602060405180830381865afa158015612272573d6000803e3d6000fd5b505050506040513d601f19601f8201168201806040525081019061229691906151cb565b156122c957808484815181106122af576122ae615317565b5b602002602001018190525082806122c590615424565b9350505b5080806122d59061589f565b915050612112565b508082528192505050919050565b600182805160208101820180518482526020830160208501208183528095505050505050818154811061231d57600080fd5b906000526020600020906010020160009150915050806000018054612341906152e6565b80601f016020809104026020016040519081016040528092919081815260200182805461236d906152e6565b80156123ba5780601f1061238f576101008083540402835291602001916123ba565b820191906000526020600020905b81548152906001019060200180831161239d57829003601f168201915b5050505050908060010180546123cf906152e6565b80601f01602080910402602001604051908101604052809291908181526020018280546123fb906152e6565b80156124485780601f1061241d57610100808354040283529160200191612448565b820191906000526020600020905b81548152906001019060200180831161242b57829003601f168201915b5050505050908060020160009054906101000a900460ff1690806003018054612470906152e6565b80601f016020809104026020016040519081016040528092919081815260200182805461249c906152e6565b80156124e95780601f106124be576101008083540402835291602001916124e9565b820191906000526020600020905b8154815290600101906020018083116124cc57829003601f168201915b5050505050908060040160009054906101000a900460ff16908060050160405180610120016040529081600082018054612522906152e6565b80601f016020809104026020016040519081016040528092919081815260200182805461254e906152e6565b801561259b5780601f106125705761010080835404028352916020019161259b565b820191906000526020600020905b81548152906001019060200180831161257e57829003601f168201915b505050505081526020016001820180546125b4906152e6565b80601f01602080910402602001604051908101604052809291908181526020018280546125e0906152e6565b801561262d5780601f106126025761010080835404028352916020019161262d565b820191906000526020600020905b81548152906001019060200180831161261057829003601f168201915b50505050508152602001600282018054612646906152e6565b80601f0160208091040260200160405190810160405280929190818152602001828054612672906152e6565b80156126bf5780601f10612694576101008083540402835291602001916126bf565b820191906000526020600020905b8154815290600101906020018083116126a257829003601f168201915b505050505081526020016003820180546126d8906152e6565b80601f0160208091040260200160405190810160405280929190818152602001828054612704906152e6565b80156127515780601f1061272657610100808354040283529160200191612751565b820191906000526020600020905b81548152906001019060200180831161273457829003601f168201915b505050505081526020016004820160009054906101000a900460ff16600481111561277f5761277e6142a9565b5b6004811115612791576127906142a9565b5b81526020016004820160019054906101000a900473ffffffffffffffffffffffffffffffffffffffff1673ffffffffffffffffffffffffffffffffffffffff1673ffffffffffffffffffffffffffffffffffffffff168152602001600582015481526020016006820160009054906101000a900460ff161515151581526020016006820160019054906101000a900473ffffffffffffffffffffffffffffffffffffffff1673ffffffffffffffffffffffffffffffffffffffff1673ffffffffffffffffffffffffffffffffffffffff16815250509080600c01549080600e0160009054906101000a900460ff169080600f01805461288f906152e6565b80601f01602080910402602001604051908101604052809291908181526020018280546128bb906152e6565b80156129085780601f106128dd57610100808354040283529160200191612908565b820191906000526020600020905b8154815290600101906020018083116128eb57829003601f168201915b5050505050905089565b6003818154811061292257600080fd5b90600052602060002001600091509050805461293d906152e6565b80601f0160208091040260200160405190810160405280929190818152602001828054612969906152e6565b80156129b65780601f1061298b576101008083540402835291602001916129b6565b820191906000526020600020905b81548152906001019060200180831161299957829003601f168201915b505050505081565b60028280516020810182018051848252602083016020850120818352809550505050505081815481106129f057600080fd5b906000526020600020906003020160009150915050806000018054612a14906152e6565b80601f0160208091040260200160405190810160405280929190818152602001828054612a40906152e6565b8015612a8d5780601f10612a6257610100808354040283529160200191612a8d565b820191906000526020600020905b815481529060010190602001808311612a7057829003601f168201915b505050505090806001018054612aa2906152e6565b80601f0160208091040260200160405190810160405280929190818152602001828054612ace906152e6565b8015612b1b5780601f10612af057610100808354040283529160200191612b1b565b820191906000526020600020905b815481529060010190602001808311612afe57829003601f168201915b505050505090806002018054612b30906152e6565b80601f0160208091040260200160405190810160405280929190818152602001828054612b5c906152e6565b8015612ba95780601f10612b7e57610100808354040283529160200191612ba9565b820191906000526020600020905b815481529060010190602001808311612b8c57829003601f168201915b5050505050905083565b6000600187604051612bc591906152a0565b90815260200160405180910390208054905003612f7057600186604051612bec91906152a0565b9081526020016040518091039020604051806101400160405280888152602001878152602001866002811115612c2557612c246142a9565b5b8152602001858152602001846003811115612c4357612c426142a9565b5b8152602001838152602001428152602001600067ffffffffffffffff811115612c6f57612c6e613e10565b5b604051908082528060200260200182016040528015612ca257816020015b6060815260200190600190039081612c8d5790505b508152602001600115158152602001612cbb6000613924565b81525090806001815401808255809150506001900390600052602060002090601002016000909190919091506000820151816000019081612cfc919061570b565b506020820151816001019081612d12919061570b565b5060408201518160020160006101000a81548160ff02191690836002811115612d3e57612d3d6142a9565b5b02179055506060820151816003019081612d58919061570b565b5060808201518160040160006101000a81548160ff02191690836003811115612d8457612d836142a9565b5b021790555060a0820151816005016000820151816000019081612da7919061570b565b506020820151816001019081612dbd919061570b565b506040820151816002019081612dd3919061570b565b506060820151816003019081612de9919061570b565b5060808201518160040160006101000a81548160ff02191690836004811115612e1557612e146142a9565b5b021790555060a08201518160040160016101000a81548173ffffffffffffffffffffffffffffffffffffffff021916908373ffffffffffffffffffffffffffffffffffffffff16021790555060c0820151816005015560e08201518160060160006101000a81548160ff0219169083151502179055506101008201518160060160016101000a81548173ffffffffffffffffffffffffffffffffffffffff021916908373ffffffffffffffffffffffffffffffffffffffff160217905550505060c082015181600c015560e082015181600d019080519060200190612efb929190613c7b565b5061010082015181600e0160006101000a81548160ff02191690831515021790555061012082015181600f019081612f33919061570b565b505050600386908060018154018082558091505060019003906000526020600020016000909190919091509081612f6a919061570b565b5061339f565b6000612f7b87610ecc565b90508160a0015173ffffffffffffffffffffffffffffffffffffffff168160a0015160a0015173ffffffffffffffffffffffffffffffffffffffff1614612ff7576040517f08c379a0000000000000000000000000000000000000000000000000000000008152600401612fee90615983565b60405180910390fd5b60011515816101000151151514613043576040517f08c379a000000000000000000000000000000000000000000000000000000000815260040161303a90615558565b60405180910390fd5b60018760405161305391906152a0565b908152602001604051809103902060405180610140016040528089815260200188815260200187600281111561308c5761308b6142a9565b5b81526020018681526020018560038111156130aa576130a96142a9565b5b8152602001848152602001428152602001600067ffffffffffffffff8111156130d6576130d5613e10565b5b60405190808252806020026020018201604052801561310957816020015b60608152602001906001900390816130f45790505b5081526020016001151581526020016131226001613924565b81525090806001815401808255809150506001900390600052602060002090601002016000909190919091506000820151816000019081613163919061570b565b506020820151816001019081613179919061570b565b5060408201518160020160006101000a81548160ff021916908360028111156131a5576131a46142a9565b5b021790555060608201518160030190816131bf919061570b565b5060808201518160040160006101000a81548160ff021916908360038111156131eb576131ea6142a9565b5b021790555060a082015181600501600082015181600001908161320e919061570b565b506020820151816001019081613224919061570b565b50604082015181600201908161323a919061570b565b506060820151816003019081613250919061570b565b5060808201518160040160006101000a81548160ff0219169083600481111561327c5761327b6142a9565b5b021790555060a08201518160040160016101000a81548173ffffffffffffffffffffffffffffffffffffffff021916908373ffffffffffffffffffffffffffffffffffffffff16021790555060c0820151816005015560e08201518160060160006101000a81548160ff0219169083151502179055506101008201518160060160016101000a81548173ffffffffffffffffffffffffffffffffffffffff021916908373ffffffffffffffffffffffffffffffffffffffff160217905550505060c082015181600c015560e082015181600d019080519060200190613362929190613c7b565b5061010082015181600e0160006101000a81548160ff02191690831515021790555061012082015181600f01908161339a919061570b565b505050505b6002808111156133b2576133b16142a9565b5b8460028111156133c5576133c46142a9565b5b036134745760008054906101000a900473ffffffffffffffffffffffffffffffffffffffff1673ffffffffffffffffffffffffffffffffffffffff1663186b0cb087836040518363ffffffff167c01000000000000000000000000000000000000000000000000000000000281526004016134419291906157dd565b600060405180830381600087803b15801561345b57600080fd5b505af115801561346f573d6000803e3d6000fd5b505050505b505050505050565b600061348783610ecc565b9050600115158161010001511515146134d5576040517f08c379a00000000000000000000000000000000000000000000000000000000081526004016134cc90615558565b60405180910390fd5b6000600167ffffffffffffffff8111156134f2576134f1613e10565b5b60405190808252806020026020018201604052801561352557816020015b60608152602001906001900390816135105790505b50905082600001518160008151811061354157613540615317565b5b602002602001018190525060028460405161355c91906152a0565b9081526020016040518091039020604051806060016040528085600001518152602001856020015181526020018560400151815250908060018154018082558091505060019003906000526020600020906003020160009091909190915060008201518160000190816135cf919061570b565b5060208201518160010190816135e5919061570b565b5060408201518160020190816135fb919061570b565b50505060018460405161360e91906152a0565b9081526020016040518091039020604051806101400160405280868152602001846020015181526020018460400151600281111561364f5761364e6142a9565b5b81526020018460600151815260200184608001516003811115613675576136746142a9565b5b81526020018460a0015181526020014281526020018381526020016001151581526020016136a36003613924565b815250908060018154018082558091505060019003906000526020600020906010020160009091909190915060008201518160000190816136e4919061570b565b5060208201518160010190816136fa919061570b565b5060408201518160020160006101000a81548160ff02191690836002811115613726576137256142a9565b5b02179055506060820151816003019081613740919061570b565b5060808201518160040160006101000a81548160ff0219169083600381111561376c5761376b6142a9565b5b021790555060a082015181600501600082015181600001908161378f919061570b565b5060208201518160010190816137a5919061570b565b5060408201518160020190816137bb919061570b565b5060608201518160030190816137d1919061570b565b5060808201518160040160006101000a81548160ff021916908360048111156137fd576137fc6142a9565b5b021790555060a08201518160040160016101000a81548173ffffffffffffffffffffffffffffffffffffffff021916908373ffffffffffffffffffffffffffffffffffffffff16021790555060c0820151816005015560e08201518160060160006101000a81548160ff0219169083151502179055506101008201518160060160016101000a81548173ffffffffffffffffffffffffffffffffffffffff021916908373ffffffffffffffffffffffffffffffffffffffff160217905550505060c082015181600c015560e082015181600d0190805190602001906138e3929190613c7b565b5061010082015181600e0160006101000a81548160ff02191690831515021790555061012082015181600f01908161391b919061570b565b50505050505050565b60606001600581111561393a576139396142a9565b5b82600581111561394d5761394c6142a9565b5b0361398f576040518060400160405280600781526020017f55706461746564000000000000000000000000000000000000000000000000008152509050613bd6565b600060058111156139a3576139a26142a9565b5b8260058111156139b6576139b56142a9565b5b036139f8576040518060400160405280600781526020017f43726561746564000000000000000000000000000000000000000000000000008152509050613bd6565b60036005811115613a0c57613a0b6142a9565b5b826005811115613a1f57613a1e6142a9565b5b03613a61576040518060400160405280600a81526020017f41646465642046696c65000000000000000000000000000000000000000000008152509050613bd6565b60026005811115613a7557613a746142a9565b5b826005811115613a8857613a876142a9565b5b03613aca576040518060400160405280600b81526020017f496e6163746976617465640000000000000000000000000000000000000000008152509050613bd6565b60046005811115613ade57613add6142a9565b5b826005811115613af157613af06142a9565b5b03613b33576040518060400160405280600d81526020017f55706461746564204f776e6572000000000000000000000000000000000000008152509050613bd6565b600580811115613b4657613b456142a9565b5b826005811115613b5957613b586142a9565b5b03613b9b576040518060400160405280601281526020017f416464656420416c6c6f776564205573657200000000000000000000000000008152509050613bd6565b6040517f08c379a0000000000000000000000000000000000000000000000000000000008152600401613bcd906159ef565b60405180910390fd5b919050565b60405180606001604052806060815260200160608152602001606081525090565b604051806101400160405280606081526020016060815260200160006002811115613c2a57613c296142a9565b5b81526020016060815260200160006003811115613c4a57613c496142a9565b5b8152602001613c57613cd4565b81526020016000815260200160608152602001600015158152602001606081525090565b828054828255906000526020600020908101928215613cc3579160200282015b82811115613cc2578251829081613cb2919061570b565b5091602001919060010190613c9b565b5b509050613cd09190613d60565b5090565b6040518061012001604052806060815260200160608152602001606081526020016060815260200160006004811115613d1057613d0f6142a9565b5b8152602001600073ffffffffffffffffffffffffffffffffffffffff16815260200160008152602001600015158152602001600073ffffffffffffffffffffffffffffffffffffffff1681525090565b5b80821115613d805760008181613d779190613d84565b50600101613d61565b5090565b508054613d90906152e6565b6000825580601f10613da25750613dc1565b601f016020900490600052602060002090810190613dc09190613dc4565b5b50565b5b80821115613ddd576000816000905550600101613dc5565b5090565b6000604051905090565b600080fd5b600080fd5b600080fd5b600080fd5b6000601f19601f8301169050919050565b7f4e487b7100000000000000000000000000000000000000000000000000000000600052604160045260246000fd5b613e4882613dff565b810181811067ffffffffffffffff82111715613e6757613e66613e10565b5b80604052505050565b6000613e7a613de1565b9050613e868282613e3f565b919050565b600067ffffffffffffffff821115613ea657613ea5613e10565b5b613eaf82613dff565b9050602081019050919050565b82818337600083830152505050565b6000613ede613ed984613e8b565b613e70565b905082815260208101848484011115613efa57613ef9613dfa565b5b613f05848285613ebc565b509392505050565b600082601f830112613f2257613f21613df5565b5b8135613f32848260208601613ecb565b91505092915050565b600080fd5b600080fd5b60058110613f5257600080fd5b50565b600081359050613f6481613f45565b92915050565b600073ffffffffffffffffffffffffffffffffffffffff82169050919050565b6000613f9582613f6a565b9050919050565b613fa581613f8a565b8114613fb057600080fd5b50565b600081359050613fc281613f9c565b92915050565b6000819050919050565b613fdb81613fc8565b8114613fe657600080fd5b50565b600081359050613ff881613fd2565b92915050565b60008115159050919050565b61401381613ffe565b811461401e57600080fd5b50565b6000813590506140308161400a565b92915050565b6000610120828403121561404d5761404c613f3b565b5b614058610120613e70565b9050600082013567ffffffffffffffff81111561407857614077613f40565b5b61408484828501613f0d565b600083015250602082013567ffffffffffffffff8111156140a8576140a7613f40565b5b6140b484828501613f0d565b602083015250604082013567ffffffffffffffff8111156140d8576140d7613f40565b5b6140e484828501613f0d565b604083015250606082013567ffffffffffffffff81111561410857614107613f40565b5b61411484828501613f0d565b606083015250608061412884828501613f55565b60808301525060a061413c84828501613fb3565b60a08301525060c061415084828501613fe9565b60c08301525060e061416484828501614021565b60e08301525061010061417984828501613fb3565b6101008301525092915050565b6000806040838503121561419d5761419c613deb565b5b600083013567ffffffffffffffff8111156141bb576141ba613df0565b5b6141c785828601613f0d565b925050602083013567ffffffffffffffff8111156141e8576141e7613df0565b5b6141f485828601614036565b9150509250929050565b600081519050919050565b600082825260208201905092915050565b6000819050602082019050919050565b600081519050919050565b600082825260208201905092915050565b60005b83811015614264578082015181840152602081019050614249565b60008484015250505050565b600061427b8261422a565b6142858185614235565b9350614295818560208601614246565b61429e81613dff565b840191505092915050565b7f4e487b7100000000000000000000000000000000000000000000000000000000600052602160045260246000fd5b600381106142e9576142e86142a9565b5b50565b60008190506142fa826142d8565b919050565b600061430a826142ec565b9050919050565b61431a816142ff565b82525050565b60048110614331576143306142a9565b5b50565b600081905061434282614320565b919050565b600061435282614334565b9050919050565b61436281614347565b82525050565b60058110614379576143786142a9565b5b50565b600081905061438a82614368565b919050565b600061439a8261437c565b9050919050565b6143aa8161438f565b82525050565b6143b981613f8a565b82525050565b6143c881613fc8565b82525050565b6143d781613ffe565b82525050565b60006101208301600083015184820360008601526143fb8282614270565b915050602083015184820360208601526144158282614270565b9150506040830151848203604086015261442f8282614270565b915050606083015184820360608601526144498282614270565b915050608083015161445e60808601826143a1565b5060a083015161447160a08601826143b0565b5060c083015161448460c08601826143bf565b5060e083015161449760e08601826143ce565b506101008301516144ac6101008601826143b0565b508091505092915050565b600081519050919050565b600082825260208201905092915050565b6000819050602082019050919050565b60006144ef8383614270565b905092915050565b6000602082019050919050565b600061450f826144b7565b61451981856144c2565b93508360208202850161452b856144d3565b8060005b85811015614567578484038952815161454885826144e3565b9450614553836144f7565b925060208a0199505060018101905061452f565b50829750879550505050505092915050565b60006101408301600083015184820360008601526145978282614270565b915050602083015184820360208601526145b18282614270565b91505060408301516145c66040860182614311565b50606083015184820360608601526145de8282614270565b91505060808301516145f36080860182614359565b5060a083015184820360a086015261460b82826143dd565b91505060c083015161462060c08601826143bf565b5060e083015184820360e08601526146388282614504565b91505061010083015161464f6101008601826143ce565b506101208301518482036101208601526146698282614270565b9150508091505092915050565b60006146828383614579565b905092915050565b6000602082019050919050565b60006146a2826141fe565b6146ac8185614209565b9350836020820285016146be8561421a565b8060005b858110156146fa57848403895281516146db8582614676565b94506146e68361468a565b925060208a019950506001810190506146c2565b50829750879550505050505092915050565b600060208201905081810360008301526147268184614697565b905092915050565b6000819050919050565b600061475361474e61474984613f6a565b61472e565b613f6a565b9050919050565b600061476582614738565b9050919050565b60006147778261475a565b9050919050565b6147878161476c565b82525050565b60006020820190506147a2600083018461477e565b92915050565b600080604083850312156147bf576147be613deb565b5b600083013567ffffffffffffffff8111156147dd576147dc613df0565b5b6147e985828601613f0d565b925050602083013567ffffffffffffffff81111561480a57614809613df0565b5b61481685828601613f0d565b9150509250929050565b6000606083016000830151848203600086015261483d8282614270565b915050602083015184820360208601526148578282614270565b915050604083015184820360408601526148718282614270565b9150508091505092915050565b600060208201905081810360008301526148988184614820565b905092915050565b6000602082840312156148b6576148b5613deb565b5b600082013567ffffffffffffffff8111156148d4576148d3613df0565b5b6148e084828501613f0d565b91505092915050565b60006101408301600083015184820360008601526149078282614270565b915050602083015184820360208601526149218282614270565b91505060408301516149366040860182614311565b506060830151848203606086015261494e8282614270565b91505060808301516149636080860182614359565b5060a083015184820360a086015261497b82826143dd565b91505060c083015161499060c08601826143bf565b5060e083015184820360e08601526149a88282614504565b9150506101008301516149bf6101008601826143ce565b506101208301518482036101208601526149d98282614270565b9150508091505092915050565b60006020820190508181036000830152614a0081846148e9565b905092915050565b600067ffffffffffffffff821115614a2357614a22613e10565b5b602082029050602081019050919050565b600080fd5b6000614a4c614a4784614a08565b613e70565b90508083825260208201905060208402830185811115614a6f57614a6e614a34565b5b835b81811015614ab657803567ffffffffffffffff811115614a9457614a93613df5565b5b808601614aa18982614036565b85526020850194505050602081019050614a71565b5050509392505050565b600082601f830112614ad557614ad4613df5565b5b8135614ae5848260208601614a39565b91505092915050565b60008060408385031215614b0557614b04613deb565b5b600083013567ffffffffffffffff811115614b2357614b22613df0565b5b614b2f85828601613f0d565b925050602083013567ffffffffffffffff811115614b5057614b4f613df0565b5b614b5c85828601614ac0565b9150509250929050565b600060208284031215614b7c57614b7b613deb565b5b600082013567ffffffffffffffff811115614b9a57614b99613df0565b5b614ba684828501614036565b91505092915050565b60008060408385031215614bc657614bc5613deb565b5b600083013567ffffffffffffffff811115614be457614be3613df0565b5b614bf085828601613f0d565b9250506020614c0185828601613fe9565b9150509250929050565b600082825260208201905092915050565b6000614c278261422a565b614c318185614c0b565b9350614c41818560208601614246565b614c4a81613dff565b840191505092915050565b614c5e816142ff565b82525050565b614c6d81614347565b82525050565b6000610120830160008301518482036000860152614c918282614270565b91505060208301518482036020860152614cab8282614270565b91505060408301518482036040860152614cc58282614270565b91505060608301518482036060860152614cdf8282614270565b9150506080830151614cf460808601826143a1565b5060a0830151614d0760a08601826143b0565b5060c0830151614d1a60c08601826143bf565b5060e0830151614d2d60e08601826143ce565b50610100830151614d426101008601826143b0565b508091505092915050565b614d5681613fc8565b82525050565b614d6581613ffe565b82525050565b6000610120820190508181036000830152614d86818c614c1c565b90508181036020830152614d9a818b614c1c565b9050614da9604083018a614c55565b8181036060830152614dbb8189614c1c565b9050614dca6080830188614c64565b81810360a0830152614ddc8187614c73565b9050614deb60c0830186614d4d565b614df860e0830185614d5c565b818103610100830152614e0b8184614c1c565b90509a9950505050505050505050565b600060208284031215614e3157614e30613deb565b5b6000614e3f84828501613fe9565b91505092915050565b60006020820190508181036000830152614e628184614c1c565b905092915050565b60006060820190508181036000830152614e848186614c1c565b90508181036020830152614e988185614c1c565b90508181036040830152614eac8184614c1c565b9050949350505050565b60038110614ec357600080fd5b50565b600081359050614ed581614eb6565b92915050565b60048110614ee857600080fd5b50565b600081359050614efa81614edb565b92915050565b60008060008060008060c08789031215614f1d57614f1c613deb565b5b600087013567ffffffffffffffff811115614f3b57614f3a613df0565b5b614f4789828a01613f0d565b965050602087013567ffffffffffffffff811115614f6857614f67613df0565b5b614f7489828a01613f0d565b9550506040614f8589828a01614ec6565b945050606087013567ffffffffffffffff811115614fa657614fa5613df0565b5b614fb289828a01613f0d565b9350506080614fc389828a01614eeb565b92505060a087013567ffffffffffffffff811115614fe457614fe3613df0565b5b614ff089828a01614036565b9150509295509295509295565b60006060828403121561501357615012613f3b565b5b61501d6060613e70565b9050600082013567ffffffffffffffff81111561503d5761503c613f40565b5b61504984828501613f0d565b600083015250602082013567ffffffffffffffff81111561506d5761506c613f40565b5b61507984828501613f0d565b602083015250604082013567ffffffffffffffff81111561509d5761509c613f40565b5b6150a984828501613f0d565b60408301525092915050565b600080604083850312156150cc576150cb613deb565b5b600083013567ffffffffffffffff8111156150ea576150e9613df0565b5b6150f685828601613f0d565b925050602083013567ffffffffffffffff81111561511757615116613df0565b5b61512385828601614ffd565b9150509250929050565b6006811061513a57600080fd5b50565b60008135905061514c8161512d565b92915050565b60006020828403121561516857615167613deb565b5b60006151768482850161513d565b91505092915050565b6000604082019050818103600083015261519981856148e9565b905081810360208301526151ad8184614c73565b90509392505050565b6000815190506151c58161400a565b92915050565b6000602082840312156151e1576151e0613deb565b5b60006151ef848285016151b6565b91505092915050565b7f4e6f7420416c6c6f776564000000000000000000000000000000000000000000600082015250565b600061522e600b83614c0b565b9150615239826151f8565b602082019050919050565b6000602082019050818103600083015261525d81615221565b9050919050565b600081905092915050565b600061527a8261422a565b6152848185615264565b9350615294818560208601614246565b80840191505092915050565b60006152ac828461526f565b915081905092915050565b7f4e487b7100000000000000000000000000000000000000000000000000000000600052602260045260246000fd5b600060028204905060018216806152fe57607f821691505b602082108103615311576153106152b7565b5b50919050565b7f4e487b7100000000000000000000000000000000000000000000000000000000600052603260045260246000fd5b60008190508160005260206000209050919050565b60008154615368816152e6565b6153728186615264565b9450600182166000811461538d57600181146153a2576153d5565b60ff19831686528115158202860193506153d5565b6153ab85615346565b60005b838110156153cd578154818901526001820191506020810190506153ae565b838801955050505b50505092915050565b60006153ea828461535b565b915081905092915050565b7f4e487b7100000000000000000000000000000000000000000000000000000000600052601160045260246000fd5b600061542f82613fc8565b91507fffffffffffffffffffffffffffffffffffffffffffffffffffffffffffffffff8203615461576154606153f5565b5b600182019050919050565b7f45766964656e6365206e6f7420666f756e640000000000000000000000000000600082015250565b60006154a2601283614c0b565b91506154ad8261546c565b602082019050919050565b600060208201905081810360008301526154d181615495565b9050919050565b60006154e382613fc8565b91506154ee83613fc8565b9250828203905081811115615506576155056153f5565b5b92915050565b7f45766964656e636520696e616374697665000000000000000000000000000000600082015250565b6000615542601183614c0b565b915061554d8261550c565b602082019050919050565b6000602082019050818103600083015261557181615535565b9050919050565b60006020601f8301049050919050565b60008160020a8302905092915050565b6000600883026155c87fffffffffffffffffffffffffffffffffffffffffffffffffffffffffffffffff82615588565b6155d28683615588565b95508019841693508086168417925050509392505050565b60006156056156006155fb84613fc8565b61472e565b613fc8565b9050919050565b6000819050919050565b61561f836155ea565b61563361562b8261560c565b848454615598565b825550505050565b600090565b61564861563b565b615653818484615616565b505050565b5b818110156156775761566c600082615640565b600181019050615659565b5050565b601f8211156156bc5761568d81615346565b61569684615578565b810160208510156156a5578190505b6156b96156b185615578565b830182615658565b50505b505050565b60008160020a8304905092915050565b60006156e2600019846008026156c1565b1980831691505092915050565b60006156fb83836156d1565b9150826002028217905092915050565b6157148261422a565b67ffffffffffffffff81111561572d5761572c613e10565b5b61573782546152e6565b61574282828561567b565b600060209050601f8311600181146157755760008415615763578287015190505b61576d85826156ef565b8655506157d5565b601f19841661578386615346565b60005b828110156157ab57848901518255600182019150602085019450602081019050615786565b868310156157c857848901516157c4601f8916826156d1565b8355505b6001600288020188555050505b505050505050565b600060408201905081810360008301526157f78185614c1c565b9050818103602083015261580b8184614c73565b90509392505050565b7f2000000000000000000000000000000000000000000000000000000000000000600082015250565b600061584a600183615264565b915061585582615814565b600182019050919050565b600061586c828561526f565b91506158778261583d565b9150615883828461526f565b91508190509392505050565b600063ffffffff82169050919050565b60006158aa8261588f565b915063ffffffff82036158c0576158bf6153f5565b5b600182019050919050565b7f4e6f2045766964656e6365730000000000000000000000000000000000000000600082015250565b6000615901600c83614c0b565b915061590c826158cb565b602082019050919050565b60006020820190508181036000830152615930816158f4565b9050919050565b7f4e6f74204f776e65720000000000000000000000000000000000000000000000600082015250565b600061596d600983614c0b565b915061597882615937565b602082019050919050565b6000602082019050818103600083015261599c81615960565b9050919050565b7f496e76616c696420737461747573000000000000000000000000000000000000600082015250565b60006159d9600e83614c0b565b91506159e4826159a3565b602082019050919050565b60006020820190508181036000830152615a08816159cc565b905091905056fea26469706673582212208a6fc0864cf4bca4a8ed5d5ac7c51151486b24aed43c88f4bd4cb50c9c23868464736f6c63430008130033",
  "immutableReferences": {},
  "source": "pragma solidity ^0.8.0;\r\nimport \"./EntitiesManager.sol\";\r\nimport \"./EvidencesManagerAllowedUsers.sol\";\r\n\r\ncontract EvidencesManager {\r\n    EvidencesManagerAllowedUsers public evidencesManagerAllowedUsers;\r\n\r\n    constructor(\r\n        address _evidencesManagerAllowedUserAddress\r\n    ) {\r\n        evidencesManagerAllowedUsers = EvidencesManagerAllowedUsers(_evidencesManagerAllowedUserAddress);\r\n    }\r\n\r\n    enum ObservationsTipified{\r\n        Created,\r\n        Updated,\r\n        Inactive,\r\n        AddFile,\r\n        UpdatedOwner,\r\n        AddAllowedUser\r\n    }\r\n\r\n    enum EvidenceClassification {\r\n    Public,\r\n    Secret,\r\n    AllowedPersonalOnly\r\n    }\r\n\r\n    enum EvidenceType {\r\n    Document,\r\n    Image,\r\n    Video,\r\n    Other\r\n    }\r\n\r\n    struct Evidence {\r\n        string uniqueCode;\r\n        string caseNo;\r\n        EvidenceClassification classification;\r\n        string name;\r\n        EvidenceType eType;\r\n        EntitiesManager.Entity owner;\r\n        uint256 timestamp;\r\n        string [] uFilesCodes;\r\n        bool isActive;\r\n        string observations;\r\n    }\r\n\r\n    mapping(string => Evidence[]) public evidencesHistory;\r\n\r\n    struct EvidenceFile {\r\n        string id;\r\n        string fileName;\r\n        string fileHash;\r\n    }\r\n    \r\n    mapping(string => EvidenceFile[]) public evidencesFiles;\r\n\r\n    string[] public allEvidences;\r\n\r\n    function obsToString(ObservationsTipified _obs) public pure returns (string memory) {\r\n        if (_obs == ObservationsTipified.Updated) {\r\n            return \"Updated\";\r\n        } else if (_obs == ObservationsTipified.Created) {\r\n            return \"Created\";\r\n        } else if (_obs == ObservationsTipified.AddFile) {\r\n            return \"Added File\";\r\n        } else if (_obs == ObservationsTipified.Inactive) {\r\n            return \"Inactivated\";\r\n        } else if (_obs == ObservationsTipified.UpdatedOwner) {\r\n            return \"Updated Owner\";\r\n        } else if (_obs == ObservationsTipified.AddAllowedUser) {\r\n            return \"Added Allowed User\";\r\n        } else {\r\n            revert(\"Invalid status\");\r\n        }\r\n    }\r\n\r\n    function addEvidence(\r\n            string memory _evidenceId, \r\n            string memory _caseNo, \r\n            EvidenceClassification _classification, \r\n            string memory _evidenceName, \r\n            EvidenceType _evidenceType, \r\n            EntitiesManager.Entity memory \r\n            _entity)\r\n    public {\r\n        if (evidencesHistory[_evidenceId].length == 0) \r\n        {\r\n            evidencesHistory[_evidenceId].push(\r\n                Evidence(_evidenceId, \r\n                _caseNo, \r\n                _classification,\r\n                _evidenceName, \r\n                _evidenceType, \r\n                _entity, \r\n                block.timestamp, \r\n                new string[](0), \r\n                true, \r\n                obsToString(ObservationsTipified.Created)));\r\n\r\n            allEvidences.push(_evidenceId);\r\n        }\r\n        else{\r\n            Evidence memory lastUpdateEvidence = getLastUpdate(_evidenceId);\r\n            require(lastUpdateEvidence.owner.entityAddress == _entity.entityAddress, \"Not Owner\");\r\n            require(lastUpdateEvidence.isActive == true, \"Evidence inactive\");\r\n            evidencesHistory[_evidenceId].push(\r\n                    Evidence(_evidenceId, \r\n                            _caseNo, \r\n                            _classification,\r\n                            _evidenceName, \r\n                            _evidenceType, \r\n                            _entity, \r\n                            block.timestamp, \r\n                            new string[](0), \r\n                            true, \r\n                            obsToString(ObservationsTipified.Updated)));\r\n        }\r\n\r\n        if (_classification == EvidenceClassification.AllowedPersonalOnly){\r\n            evidencesManagerAllowedUsers.addAllowedUser(_evidenceId, _entity);\r\n        }\r\n    }\r\n\r\n    function addFile(string memory _evidenceId, EvidenceFile memory _file) public {\r\n        Evidence memory evidence = getLastUpdate(_evidenceId);\r\n        require(evidence.isActive == true, \"Evidence inactive\");\r\n        string[] memory fileIds = new string[](1);\r\n        fileIds[0] = _file.id;\r\n        evidencesFiles[_evidenceId].push(EvidenceFile(_file.id, _file.fileName, _file.fileHash));\r\n\r\n        evidencesHistory[_evidenceId].push(Evidence(_evidenceId, evidence.caseNo, evidence.classification, evidence.name, evidence.eType, evidence.owner, block.timestamp, fileIds, true, obsToString(ObservationsTipified.AddFile)));\r\n    }\r\n\r\n    function addAllowedUsers (string memory _evidenceId, EntitiesManager.Entity[] memory _entities) public {\r\n        Evidence memory evidence = getLastUpdate(_evidenceId);\r\n        require(evidence.isActive == true, \"Evidence inactive\");\r\n    \r\n        for (uint32 i = 0; i < _entities.length; i++) {\r\n            evidencesManagerAllowedUsers.addAllowedUser(_evidenceId, _entities[i]);\r\n            string memory _obs= string(abi.encodePacked(obsToString(ObservationsTipified.AddAllowedUser), ' ', _entities[i].userName));\r\n            evidencesHistory[_evidenceId].push(Evidence(_evidenceId, evidence.caseNo, evidence.classification, evidence.name, evidence.eType, evidence.owner, block.timestamp, new string[](0), true, _obs));\r\n        }\r\n    }\r\n\r\n\r\n    function updateOwner(string memory _evidenceId, EntitiesManager.Entity memory _entity)public \r\n    {\r\n        Evidence memory evidence = getLastUpdate(_evidenceId);\r\n        require(evidence.isActive == true, \"Evidence inactive\");\r\n        evidencesHistory[_evidenceId].push(Evidence(_evidenceId, evidence.caseNo, evidence.classification, evidence.name, evidence.eType, _entity, block.timestamp, new string[](0), true, obsToString(ObservationsTipified.UpdatedOwner)));\r\n        if (evidence.classification == EvidenceClassification.AllowedPersonalOnly){\r\n            evidencesManagerAllowedUsers.addAllowedUser(_evidenceId, _entity);\r\n        }\r\n    }\r\n\r\n    function getEvidences(EntitiesManager.Entity memory entity) public view returns (EvidencesManager.Evidence[] memory) {\r\n        require(allEvidences.length > 0, \"No Evidences\");\r\n\r\n        EvidencesManager.Evidence[] memory evidences = new EvidencesManager.Evidence[](allEvidences.length);\r\n        \r\n        uint256 count = 0;\r\n        for (uint32 i = 0; i < allEvidences.length; i++) {\r\n            Evidence memory evidence = getLastUpdate(allEvidences[i]);\r\n            if (evidencesManagerAllowedUsers.checkIfAllowed(evidence, entity))\r\n            {\r\n                evidences[count] = evidence;\r\n                count++;\r\n            }    \r\n        }\r\n\r\n        // Resize the memory array to the actual number of filtered results\r\n        assembly {\r\n            mstore(evidences, count)\r\n        }\r\n\r\n        return evidences;\r\n    }\r\n\r\n    function getEvidenceHistory(string memory _evidenceId, EntitiesManager.Entity memory entity) public view returns (Evidence[] memory) {\r\n        Evidence memory evidence = getLastUpdate(_evidenceId);\r\n        require(evidencesManagerAllowedUsers.checkIfAllowed(evidence, entity), \"Not Allowed\");\r\n        \r\n        return evidencesHistory[_evidenceId];\r\n    }\r\n\r\n    function getFileInfo(string memory _evidenceId, string memory _fileId) public view returns (EvidenceFile memory){\r\n        EvidenceFile memory evidenceFile;\r\n        for (uint256 i = 0; i < evidencesFiles[_evidenceId].length; i++) {\r\n            if (keccak256(abi.encodePacked(evidencesFiles[_evidenceId][i].id)) == keccak256(abi.encodePacked(_fileId))) {\r\n                return evidencesFiles[_evidenceId][i];\r\n            }\r\n        }\r\n        return evidenceFile;\r\n    }\r\n\r\n    function getLastUpdate (string memory _evidenceId) public view returns (Evidence memory) {\r\n        uint totalVersions = evidencesHistory[_evidenceId].length;\r\n        require(totalVersions > 0, \"Evidence not found\");\r\n\r\n        return evidencesHistory[_evidenceId][totalVersions - 1];\r\n    }\r\n}",
  "sourcePath": "C:\\IPCA DISSERTAO\\evidences_dapp\\contracts\\EvidencesManager.sol",
  "compiler": {
    "name": "solc",
    "version": "0.8.19+commit.7dd6d404.Emscripten.clang"
  },
  "schemaVersion": "3.4.13",
  "updatedAt": "2023-10-15T15:11:28.509Z",
  "networkType": "ethereum",
  "devdoc": {
    "kind": "dev",
    "methods": {},
    "version": 1
  },
  "userdoc": {
    "kind": "user",
    "methods": {},
    "version": 1
  }
}