{
  "contractName": "EvidenceChain",
  "abi": [
    {
      "inputs": [
        {
          "internalType": "address",
          "name": "_entitiesManagerAddress",
          "type": "address"
        },
        {
          "internalType": "address",
          "name": "_evidencesManagerAddress",
          "type": "address"
        }
      ],
      "stateMutability": "nonpayable",
      "type": "constructor"
    },
    {
      "anonymous": false,
      "inputs": [
        {
          "indexed": true,
          "internalType": "uint32",
          "name": "evidenceId",
          "type": "uint32"
        }
      ],
      "name": "EvidenceAdded",
      "type": "event"
    },
    {
      "anonymous": false,
      "inputs": [
        {
          "indexed": true,
          "internalType": "uint32",
          "name": "userId",
          "type": "uint32"
        }
      ],
      "name": "ParticipantAdded",
      "type": "event"
    },
    {
      "anonymous": false,
      "inputs": [
        {
          "indexed": false,
          "internalType": "uint32",
          "name": "evidenceId",
          "type": "uint32"
        }
      ],
      "name": "TransferOwnership",
      "type": "event"
    },
    {
      "inputs": [],
      "name": "entitiesManager",
      "outputs": [
        {
          "internalType": "contract EntitiesManager",
          "name": "",
          "type": "address"
        }
      ],
      "stateMutability": "view",
      "type": "function",
      "constant": true
    },
    {
      "inputs": [
        {
          "internalType": "uint32",
          "name": "",
          "type": "uint32"
        },
        {
          "internalType": "uint256",
          "name": "",
          "type": "uint256"
        }
      ],
      "name": "evidenceTrack",
      "outputs": [
        {
          "internalType": "uint32",
          "name": "",
          "type": "uint32"
        }
      ],
      "stateMutability": "view",
      "type": "function",
      "constant": true
    },
    {
      "inputs": [],
      "name": "evidencesManager",
      "outputs": [
        {
          "internalType": "contract EvidencesManager",
          "name": "",
          "type": "address"
        }
      ],
      "stateMutability": "view",
      "type": "function",
      "constant": true
    },
    {
      "inputs": [],
      "name": "owner_id",
      "outputs": [
        {
          "internalType": "uint32",
          "name": "",
          "type": "uint32"
        }
      ],
      "stateMutability": "view",
      "type": "function",
      "constant": true
    },
    {
      "inputs": [
        {
          "internalType": "uint32",
          "name": "",
          "type": "uint32"
        }
      ],
      "name": "ownerships",
      "outputs": [
        {
          "internalType": "uint32",
          "name": "evidenceId",
          "type": "uint32"
        },
        {
          "internalType": "uint32",
          "name": "ownerId",
          "type": "uint32"
        },
        {
          "internalType": "uint32",
          "name": "trxTimeStamp",
          "type": "uint32"
        },
        {
          "internalType": "address",
          "name": "evidenceOwner",
          "type": "address"
        }
      ],
      "stateMutability": "view",
      "type": "function",
      "constant": true
    },
    {
      "inputs": [
        {
          "internalType": "address",
          "name": "_entity",
          "type": "address"
        },
        {
          "internalType": "string",
          "name": "_userName",
          "type": "string"
        },
        {
          "internalType": "string",
          "name": "_password",
          "type": "string"
        },
        {
          "internalType": "string",
          "name": "_name",
          "type": "string"
        },
        {
          "internalType": "string",
          "name": "_departmentCode",
          "type": "string"
        },
        {
          "internalType": "enum EntitiesManager.EntityType",
          "name": "_entityType",
          "type": "uint8"
        }
      ],
      "name": "addEntity",
      "outputs": [],
      "stateMutability": "nonpayable",
      "type": "function"
    },
    {
      "inputs": [
        {
          "internalType": "address",
          "name": "_entity",
          "type": "address"
        },
        {
          "internalType": "string",
          "name": "_userName",
          "type": "string"
        },
        {
          "internalType": "string",
          "name": "_password",
          "type": "string"
        },
        {
          "internalType": "string",
          "name": "_name",
          "type": "string"
        },
        {
          "internalType": "string",
          "name": "_departmentCode",
          "type": "string"
        }
      ],
      "name": "updateEntity",
      "outputs": [],
      "stateMutability": "nonpayable",
      "type": "function"
    },
    {
      "inputs": [],
      "name": "getEntities",
      "outputs": [
        {
          "components": [
            {
              "internalType": "string",
              "name": "userName",
              "type": "string"
            },
            {
              "internalType": "string",
              "name": "password",
              "type": "string"
            },
            {
              "internalType": "string",
              "name": "name",
              "type": "string"
            },
            {
              "internalType": "string",
              "name": "departmentCode",
              "type": "string"
            },
            {
              "internalType": "enum EntitiesManager.EntityType",
              "name": "entityType",
              "type": "uint8"
            },
            {
              "internalType": "address",
              "name": "entityAddress",
              "type": "address"
            },
            {
              "internalType": "uint32",
              "name": "timestamp",
              "type": "uint32"
            }
          ],
          "internalType": "struct EntitiesManager.Entity[]",
          "name": "",
          "type": "tuple[]"
        }
      ],
      "stateMutability": "view",
      "type": "function",
      "constant": true
    },
    {
      "inputs": [
        {
          "internalType": "address",
          "name": "_entity",
          "type": "address"
        }
      ],
      "name": "getEntityHistory",
      "outputs": [
        {
          "components": [
            {
              "internalType": "string",
              "name": "userName",
              "type": "string"
            },
            {
              "internalType": "string",
              "name": "password",
              "type": "string"
            },
            {
              "internalType": "string",
              "name": "name",
              "type": "string"
            },
            {
              "internalType": "string",
              "name": "departmentCode",
              "type": "string"
            },
            {
              "internalType": "enum EntitiesManager.EntityType",
              "name": "entityType",
              "type": "uint8"
            },
            {
              "internalType": "address",
              "name": "entityAddress",
              "type": "address"
            },
            {
              "internalType": "uint32",
              "name": "timestamp",
              "type": "uint32"
            }
          ],
          "internalType": "struct EntitiesManager.Entity[]",
          "name": "",
          "type": "tuple[]"
        }
      ],
      "stateMutability": "view",
      "type": "function",
      "constant": true
    },
    {
      "inputs": [],
      "name": "getEntityHistory",
      "outputs": [
        {
          "components": [
            {
              "internalType": "string",
              "name": "userName",
              "type": "string"
            },
            {
              "internalType": "string",
              "name": "password",
              "type": "string"
            },
            {
              "internalType": "string",
              "name": "name",
              "type": "string"
            },
            {
              "internalType": "string",
              "name": "departmentCode",
              "type": "string"
            },
            {
              "internalType": "enum EntitiesManager.EntityType",
              "name": "entityType",
              "type": "uint8"
            },
            {
              "internalType": "address",
              "name": "entityAddress",
              "type": "address"
            },
            {
              "internalType": "uint32",
              "name": "timestamp",
              "type": "uint32"
            }
          ],
          "internalType": "struct EntitiesManager.Entity[]",
          "name": "",
          "type": "tuple[]"
        }
      ],
      "stateMutability": "view",
      "type": "function",
      "constant": true
    },
    {
      "inputs": [
        {
          "internalType": "address",
          "name": "_entity",
          "type": "address"
        }
      ],
      "name": "getEntity",
      "outputs": [
        {
          "components": [
            {
              "internalType": "string",
              "name": "userName",
              "type": "string"
            },
            {
              "internalType": "string",
              "name": "password",
              "type": "string"
            },
            {
              "internalType": "string",
              "name": "name",
              "type": "string"
            },
            {
              "internalType": "string",
              "name": "departmentCode",
              "type": "string"
            },
            {
              "internalType": "enum EntitiesManager.EntityType",
              "name": "entityType",
              "type": "uint8"
            },
            {
              "internalType": "address",
              "name": "entityAddress",
              "type": "address"
            },
            {
              "internalType": "uint32",
              "name": "timestamp",
              "type": "uint32"
            }
          ],
          "internalType": "struct EntitiesManager.Entity",
          "name": "",
          "type": "tuple"
        }
      ],
      "stateMutability": "view",
      "type": "function",
      "constant": true
    },
    {
      "inputs": [],
      "name": "getEntity",
      "outputs": [
        {
          "components": [
            {
              "internalType": "string",
              "name": "userName",
              "type": "string"
            },
            {
              "internalType": "string",
              "name": "password",
              "type": "string"
            },
            {
              "internalType": "string",
              "name": "name",
              "type": "string"
            },
            {
              "internalType": "string",
              "name": "departmentCode",
              "type": "string"
            },
            {
              "internalType": "enum EntitiesManager.EntityType",
              "name": "entityType",
              "type": "uint8"
            },
            {
              "internalType": "address",
              "name": "entityAddress",
              "type": "address"
            },
            {
              "internalType": "uint32",
              "name": "timestamp",
              "type": "uint32"
            }
          ],
          "internalType": "struct EntitiesManager.Entity",
          "name": "",
          "type": "tuple"
        }
      ],
      "stateMutability": "view",
      "type": "function",
      "constant": true
    },
    {
      "inputs": [
        {
          "internalType": "string",
          "name": "_uname",
          "type": "string"
        },
        {
          "internalType": "string",
          "name": "_pass",
          "type": "string"
        }
      ],
      "name": "authenticateEntity",
      "outputs": [
        {
          "internalType": "bool",
          "name": "",
          "type": "bool"
        }
      ],
      "stateMutability": "view",
      "type": "function",
      "constant": true
    },
    {
      "inputs": [
        {
          "internalType": "string",
          "name": "_evidenceUniqueCode",
          "type": "string"
        },
        {
          "internalType": "string",
          "name": "_caseNo",
          "type": "string"
        },
        {
          "internalType": "enum EvidencesManager.EvidenceClassification",
          "name": "_classification",
          "type": "uint8"
        },
        {
          "internalType": "string",
          "name": "_evidenceName",
          "type": "string"
        },
        {
          "internalType": "enum EvidencesManager.EvidenceType",
          "name": "_evidenceType",
          "type": "uint8"
        }
      ],
      "name": "addEvidence",
      "outputs": [],
      "stateMutability": "nonpayable",
      "type": "function"
    },
    {
      "inputs": [],
      "name": "getEvidences",
      "outputs": [
        {
          "components": [
            {
              "internalType": "string",
              "name": "uniqueCode",
              "type": "string"
            },
            {
              "internalType": "string",
              "name": "caseNo",
              "type": "string"
            },
            {
              "internalType": "enum EvidencesManager.EvidenceClassification",
              "name": "classification",
              "type": "uint8"
            },
            {
              "internalType": "string",
              "name": "name",
              "type": "string"
            },
            {
              "internalType": "enum EvidencesManager.EvidenceType",
              "name": "eType",
              "type": "uint8"
            },
            {
              "components": [
                {
                  "internalType": "string",
                  "name": "userName",
                  "type": "string"
                },
                {
                  "internalType": "string",
                  "name": "password",
                  "type": "string"
                },
                {
                  "internalType": "string",
                  "name": "name",
                  "type": "string"
                },
                {
                  "internalType": "string",
                  "name": "departmentCode",
                  "type": "string"
                },
                {
                  "internalType": "enum EntitiesManager.EntityType",
                  "name": "entityType",
                  "type": "uint8"
                },
                {
                  "internalType": "address",
                  "name": "entityAddress",
                  "type": "address"
                },
                {
                  "internalType": "uint32",
                  "name": "timestamp",
                  "type": "uint32"
                }
              ],
              "internalType": "struct EntitiesManager.Entity",
              "name": "owner",
              "type": "tuple"
            },
            {
              "internalType": "uint256",
              "name": "timestamp",
              "type": "uint256"
            },
            {
              "internalType": "string[]",
              "name": "uFilesCodes",
              "type": "string[]"
            },
            {
              "internalType": "bool",
              "name": "isActive",
              "type": "bool"
            },
            {
              "internalType": "string",
              "name": "observations",
              "type": "string"
            }
          ],
          "internalType": "struct EvidencesManager.Evidence[]",
          "name": "",
          "type": "tuple[]"
        }
      ],
      "stateMutability": "view",
      "type": "function",
      "constant": true
    },
    {
      "inputs": [
        {
          "internalType": "string",
          "name": "_evidenceUniqueCode",
          "type": "string"
        }
      ],
      "name": "getEvidenceHistory",
      "outputs": [
        {
          "components": [
            {
              "internalType": "string",
              "name": "uniqueCode",
              "type": "string"
            },
            {
              "internalType": "string",
              "name": "caseNo",
              "type": "string"
            },
            {
              "internalType": "enum EvidencesManager.EvidenceClassification",
              "name": "classification",
              "type": "uint8"
            },
            {
              "internalType": "string",
              "name": "name",
              "type": "string"
            },
            {
              "internalType": "enum EvidencesManager.EvidenceType",
              "name": "eType",
              "type": "uint8"
            },
            {
              "components": [
                {
                  "internalType": "string",
                  "name": "userName",
                  "type": "string"
                },
                {
                  "internalType": "string",
                  "name": "password",
                  "type": "string"
                },
                {
                  "internalType": "string",
                  "name": "name",
                  "type": "string"
                },
                {
                  "internalType": "string",
                  "name": "departmentCode",
                  "type": "string"
                },
                {
                  "internalType": "enum EntitiesManager.EntityType",
                  "name": "entityType",
                  "type": "uint8"
                },
                {
                  "internalType": "address",
                  "name": "entityAddress",
                  "type": "address"
                },
                {
                  "internalType": "uint32",
                  "name": "timestamp",
                  "type": "uint32"
                }
              ],
              "internalType": "struct EntitiesManager.Entity",
              "name": "owner",
              "type": "tuple"
            },
            {
              "internalType": "uint256",
              "name": "timestamp",
              "type": "uint256"
            },
            {
              "internalType": "string[]",
              "name": "uFilesCodes",
              "type": "string[]"
            },
            {
              "internalType": "bool",
              "name": "isActive",
              "type": "bool"
            },
            {
              "internalType": "string",
              "name": "observations",
              "type": "string"
            }
          ],
          "internalType": "struct EvidencesManager.Evidence[]",
          "name": "",
          "type": "tuple[]"
        }
      ],
      "stateMutability": "view",
      "type": "function",
      "constant": true
    },
    {
      "inputs": [
        {
          "internalType": "string",
          "name": "_evidenceUniqueCode",
          "type": "string"
        }
      ],
      "name": "getEvidence",
      "outputs": [
        {
          "components": [
            {
              "internalType": "string",
              "name": "uniqueCode",
              "type": "string"
            },
            {
              "internalType": "string",
              "name": "caseNo",
              "type": "string"
            },
            {
              "internalType": "enum EvidencesManager.EvidenceClassification",
              "name": "classification",
              "type": "uint8"
            },
            {
              "internalType": "string",
              "name": "name",
              "type": "string"
            },
            {
              "internalType": "enum EvidencesManager.EvidenceType",
              "name": "eType",
              "type": "uint8"
            },
            {
              "components": [
                {
                  "internalType": "string",
                  "name": "userName",
                  "type": "string"
                },
                {
                  "internalType": "string",
                  "name": "password",
                  "type": "string"
                },
                {
                  "internalType": "string",
                  "name": "name",
                  "type": "string"
                },
                {
                  "internalType": "string",
                  "name": "departmentCode",
                  "type": "string"
                },
                {
                  "internalType": "enum EntitiesManager.EntityType",
                  "name": "entityType",
                  "type": "uint8"
                },
                {
                  "internalType": "address",
                  "name": "entityAddress",
                  "type": "address"
                },
                {
                  "internalType": "uint32",
                  "name": "timestamp",
                  "type": "uint32"
                }
              ],
              "internalType": "struct EntitiesManager.Entity",
              "name": "owner",
              "type": "tuple"
            },
            {
              "internalType": "uint256",
              "name": "timestamp",
              "type": "uint256"
            },
            {
              "internalType": "string[]",
              "name": "uFilesCodes",
              "type": "string[]"
            },
            {
              "internalType": "bool",
              "name": "isActive",
              "type": "bool"
            },
            {
              "internalType": "string",
              "name": "observations",
              "type": "string"
            }
          ],
          "internalType": "struct EvidencesManager.Evidence",
          "name": "",
          "type": "tuple"
        }
      ],
      "stateMutability": "view",
      "type": "function",
      "constant": true
    },
    {
      "inputs": [
        {
          "internalType": "string",
          "name": "_evidenceUniqueCode",
          "type": "string"
        },
        {
          "internalType": "address[]",
          "name": "_entities",
          "type": "address[]"
        }
      ],
      "name": "addAllowedUsers",
      "outputs": [],
      "stateMutability": "nonpayable",
      "type": "function"
    },
    {
      "inputs": [
        {
          "internalType": "string",
          "name": "_evidenceUniqueCode",
          "type": "string"
        },
        {
          "internalType": "address",
          "name": "_newOwner",
          "type": "address"
        }
      ],
      "name": "evidenceNewOwner",
      "outputs": [],
      "stateMutability": "nonpayable",
      "type": "function"
    },
    {
      "inputs": [
        {
          "internalType": "string",
          "name": "_evidenceUniqueCode",
          "type": "string"
        },
        {
          "internalType": "string",
          "name": "_fileId",
          "type": "string"
        },
        {
          "internalType": "string",
          "name": "_fileName",
          "type": "string"
        },
        {
          "internalType": "string",
          "name": "_fileHash",
          "type": "string"
        }
      ],
      "name": "addFile",
      "outputs": [],
      "stateMutability": "nonpayable",
      "type": "function"
    },
    {
      "inputs": [
        {
          "internalType": "string",
          "name": "_evidenceUniqueCode",
          "type": "string"
        },
        {
          "internalType": "string",
          "name": "_fileUniqueCode",
          "type": "string"
        }
      ],
      "name": "getFileInfo",
      "outputs": [
        {
          "components": [
            {
              "internalType": "string",
              "name": "id",
              "type": "string"
            },
            {
              "internalType": "string",
              "name": "fileName",
              "type": "string"
            },
            {
              "internalType": "string",
              "name": "fileHash",
              "type": "string"
            }
          ],
          "internalType": "struct EvidencesManager.EvidenceFile",
          "name": "",
          "type": "tuple"
        }
      ],
      "stateMutability": "view",
      "type": "function",
      "constant": true
    }
  ],
  "bytecode": "0x60806040526000600160146101000a81548163ffffffff021916908363ffffffff1602179055503480156200003357600080fd5b5060405162003f9e38038062003f9e83398181016040528101906200005991906200014c565b816000806101000a81548173ffffffffffffffffffffffffffffffffffffffff021916908373ffffffffffffffffffffffffffffffffffffffff16021790555080600160006101000a81548173ffffffffffffffffffffffffffffffffffffffff021916908373ffffffffffffffffffffffffffffffffffffffff160217905550505062000193565b600080fd5b600073ffffffffffffffffffffffffffffffffffffffff82169050919050565b60006200011482620000e7565b9050919050565b620001268162000107565b81146200013257600080fd5b50565b60008151905062000146816200011b565b92915050565b60008060408385031215620001665762000165620000e2565b5b6000620001768582860162000135565b9250506020620001898582860162000135565b9150509250929050565b613dfb80620001a36000396000f3fe608060405234801561001057600080fd5b5060043610610154576000357c0100000000000000000000000000000000000000000000000000000000900480638b57d984116100d5578063b16c6ee711610099578063b16c6ee714610380578063c6a22c41146103b0578063c892522e146103cc578063dff95aac146103fc578063e3271cf91461041a578063ff200d2b1461043857610154565b80638b57d984146102ee5780638cb58fc11461030c5780638f5ebf711461032a578063b0d9d59b14610348578063b15aae601461036457610154565b806331eb897f1161011c57806331eb897f1461020f5780635760620b1461023f5780635f067db01461026f57806375894e8c1461028b57806381e15610146102bb57610154565b806303c8b6fc146101595780631f7331471461017557806328320e1c146101915780632c5ec5c8146101c157806331b933b9146101f1575b600080fd5b610173600480360381019061016e9190611e72565b610456565b005b61018f600480360381019061018a9190611f6f565b61050f565b005b6101ab60048036038101906101a6919061205a565b6105c5565b6040516101b8919061231e565b60405180910390f35b6101db60048036038101906101d69190612340565b610689565b6040516101e89190612416565b60405180910390f35b6101f9610758565b604051610206919061231e565b60405180910390f35b61022960048036038101906102249190612340565b6109d9565b6040516102369190612453565b60405180910390f35b610259600480360381019061025491906124d0565b610b5e565b604051610266919061251f565b60405180910390f35b6102896004803603810190610284919061253a565b610ba7565b005b6102a560048036038101906102a0919061205a565b610db2565b6040516102b291906126c2565b60405180910390f35b6102d560048036038101906102d091906126e4565b610e7c565b6040516102e59493929190612720565b60405180910390f35b6102f6610efc565b604051610303919061231e565b60405180910390f35b610314610fbe565b60405161032191906127c4565b60405180910390f35b610332610fe4565b60405161033f919061251f565b60405180910390f35b610362600480360381019061035d9190612829565b610ffa565b005b61037e600480360381019061037991906129c0565b611175565b005b61039a60048036038101906103959190612a38565b6114dd565b6040516103a79190612cee565b60405180910390f35b6103ca60048036038101906103c59190612d10565b6115a9565b005b6103e660048036038101906103e19190612a38565b611853565b6040516103f39190612f2b565b60405180910390f35b610404611919565b6040516104119190612f2b565b60405180910390f35b610422611a9e565b60405161042f9190612f6e565b60405180910390f35b610440611ac2565b60405161044d91906126c2565b60405180910390f35b60008054906101000a900473ffffffffffffffffffffffffffffffffffffffff1673ffffffffffffffffffffffffffffffffffffffff16635c1612b08787878787876040518763ffffffff167c01000000000000000000000000000000000000000000000000000000000281526004016104d596959493929190612fe2565b600060405180830381600087803b1580156104ef57600080fd5b505af1158015610503573d6000803e3d6000fd5b50505050505050505050565b60008054906101000a900473ffffffffffffffffffffffffffffffffffffffff1673ffffffffffffffffffffffffffffffffffffffff16631f73314786868686866040518663ffffffff167c010000000000000000000000000000000000000000000000000000000002815260040161058c95949392919061305f565b600060405180830381600087803b1580156105a657600080fd5b505af11580156105ba573d6000803e3d6000fd5b505050505050505050565b606060008054906101000a900473ffffffffffffffffffffffffffffffffffffffff1673ffffffffffffffffffffffffffffffffffffffff166328320e1c836040518263ffffffff167c010000000000000000000000000000000000000000000000000000000002815260040161063c91906130ce565b600060405180830381865afa158015610659573d6000803e3d6000fd5b505050506040513d6000823e3d601f19601f8201168201806040525081019061068291906133a7565b9050919050565b610691611b8a565b600160009054906101000a900473ffffffffffffffffffffffffffffffffffffffff1673ffffffffffffffffffffffffffffffffffffffff16632c5ec5c884846040518363ffffffff167c010000000000000000000000000000000000000000000000000000000002815260040161070a9291906133f0565b600060405180830381865afa158015610727573d6000803e3d6000fd5b505050506040513d6000823e3d601f19601f8201168201806040525081019061075091906134df565b905092915050565b606060008060009054906101000a900473ffffffffffffffffffffffffffffffffffffffff1673ffffffffffffffffffffffffffffffffffffffff166331b933b96040518163ffffffff167c0100000000000000000000000000000000000000000000000000000000028152600401600060405180830381865afa1580156107e4573d6000803e3d6000fd5b505050506040513d6000823e3d601f19601f8201168201806040525081019061080d91906135bf565b90506000815111610853576040517f08c379a000000000000000000000000000000000000000000000000000000000815260040161084a90613654565b60405180910390fd5b6000815167ffffffffffffffff8111156108705761086f611d22565b5b6040519080825280602002602001820160405280156108a957816020015b610896611bab565b81526020019060019003908161088e5790505b50905060005b82518163ffffffff1610156109d05760008054906101000a900473ffffffffffffffffffffffffffffffffffffffff1673ffffffffffffffffffffffffffffffffffffffff16635a7e1989848363ffffffff168151811061091357610912613674565b5b60200260200101516040518263ffffffff167c010000000000000000000000000000000000000000000000000000000002815260040161095391906130ce565b600060405180830381865afa158015610970573d6000803e3d6000fd5b505050506040513d6000823e3d601f19601f8201168201806040525081019061099991906136a3565b828263ffffffff16815181106109b2576109b1613674565b5b602002602001018190525080806109c89061371b565b9150506108af565b50809250505090565b60008060008054906101000a900473ffffffffffffffffffffffffffffffffffffffff1673ffffffffffffffffffffffffffffffffffffffff16635a7e1989336040518263ffffffff167c0100000000000000000000000000000000000000000000000000000000028152600401610a5191906130ce565b600060405180830381865afa158015610a6e573d6000803e3d6000fd5b505050506040513d6000823e3d601f19601f82011682018060405250810190610a9791906136a3565b905083604051602001610aaa9190613783565b604051602081830303815290604052805190602001208160000151604051602001610ad59190613783565b6040516020818303038152906040528051906020012003610b525782604051602001610b019190613783565b604051602081830303815290604052805190602001208160200151604051602001610b2c9190613783565b6040516020818303038152906040528051906020012003610b51576001915050610b58565b5b60009150505b92915050565b60036020528160005260406000208181548110610b7a57600080fd5b9060005260206000209060089182820401919006600402915091509054906101000a900463ffffffff1681565b836000600160009054906101000a900473ffffffffffffffffffffffffffffffffffffffff1673ffffffffffffffffffffffffffffffffffffffff16633eeb568b836040518263ffffffff167c0100000000000000000000000000000000000000000000000000000000028152600401610c21919061379a565b600060405180830381865afa158015610c3e573d6000803e3d6000fd5b505050506040513d6000823e3d601f19601f82011682018060405250810190610c679190613aa6565b90508060a0015160a0015173ffffffffffffffffffffffffffffffffffffffff163373ffffffffffffffffffffffffffffffffffffffff1614610cdf576040517f08c379a0000000000000000000000000000000000000000000000000000000008152600401610cd690613b3b565b60405180910390fd5b60006040518060600160405280878152602001868152602001858152509050600160009054906101000a900473ffffffffffffffffffffffffffffffffffffffff1673ffffffffffffffffffffffffffffffffffffffff1663e634926e88836040518363ffffffff167c0100000000000000000000000000000000000000000000000000000000028152600401610d77929190613b5b565b600060405180830381600087803b158015610d9157600080fd5b505af1158015610da5573d6000803e3d6000fd5b5050505050505050505050565b610dba611bab565b60008054906101000a900473ffffffffffffffffffffffffffffffffffffffff1673ffffffffffffffffffffffffffffffffffffffff16635a7e1989836040518263ffffffff167c0100000000000000000000000000000000000000000000000000000000028152600401610e2f91906130ce565b600060405180830381865afa158015610e4c573d6000803e3d6000fd5b505050506040513d6000823e3d601f19601f82011682018060405250810190610e7591906136a3565b9050919050565b60026020528060005260406000206000915090508060000160009054906101000a900463ffffffff16908060000160049054906101000a900463ffffffff16908060000160089054906101000a900463ffffffff169080600001600c9054906101000a900473ffffffffffffffffffffffffffffffffffffffff16905084565b606060008054906101000a900473ffffffffffffffffffffffffffffffffffffffff1673ffffffffffffffffffffffffffffffffffffffff166328320e1c336040518263ffffffff167c0100000000000000000000000000000000000000000000000000000000028152600401610f7391906130ce565b600060405180830381865afa158015610f90573d6000803e3d6000fd5b505050506040513d6000823e3d601f19601f82011682018060405250810190610fb991906133a7565b905090565b600160009054906101000a900473ffffffffffffffffffffffffffffffffffffffff1681565b600160149054906101000a900463ffffffff1681565b60008060009054906101000a900473ffffffffffffffffffffffffffffffffffffffff1673ffffffffffffffffffffffffffffffffffffffff16635a7e1989336040518263ffffffff167c010000000000000000000000000000000000000000000000000000000002815260040161107291906130ce565b600060405180830381865afa15801561108f573d6000803e3d6000fd5b505050506040513d6000823e3d601f19601f820116820180604052508101906110b891906136a3565b9050600160009054906101000a900473ffffffffffffffffffffffffffffffffffffffff1673ffffffffffffffffffffffffffffffffffffffff16633adcc7f98787878787876040518763ffffffff167c010000000000000000000000000000000000000000000000000000000002815260040161113b96959493929190613bb0565b600060405180830381600087803b15801561115557600080fd5b505af1158015611169573d6000803e3d6000fd5b50505050505050505050565b816000600160009054906101000a900473ffffffffffffffffffffffffffffffffffffffff1673ffffffffffffffffffffffffffffffffffffffff16633eeb568b836040518263ffffffff167c01000000000000000000000000000000000000000000000000000000000281526004016111ef919061379a565b600060405180830381865afa15801561120c573d6000803e3d6000fd5b505050506040513d6000823e3d601f19601f820116820180604052508101906112359190613aa6565b90508060a0015160a0015173ffffffffffffffffffffffffffffffffffffffff163373ffffffffffffffffffffffffffffffffffffffff16146112ad576040517f08c379a00000000000000000000000000000000000000000000000000000000081526004016112a490613b3b565b60405180910390fd5b6000835167ffffffffffffffff8111156112ca576112c9611d22565b5b60405190808252806020026020018201604052801561130357816020015b6112f0611bab565b8152602001906001900390816112e85790505b50905060005b84518163ffffffff16101561142a5760008054906101000a900473ffffffffffffffffffffffffffffffffffffffff1673ffffffffffffffffffffffffffffffffffffffff16635a7e1989868363ffffffff168151811061136d5761136c613674565b5b60200260200101516040518263ffffffff167c01000000000000000000000000000000000000000000000000000000000281526004016113ad91906130ce565b600060405180830381865afa1580156113ca573d6000803e3d6000fd5b505050506040513d6000823e3d601f19601f820116820180604052508101906113f391906136a3565b828263ffffffff168151811061140c5761140b613674565b5b602002602001018190525080806114229061371b565b915050611309565b50600160009054906101000a900473ffffffffffffffffffffffffffffffffffffffff1673ffffffffffffffffffffffffffffffffffffffff16639be9b6f586836040518363ffffffff167c01000000000000000000000000000000000000000000000000000000000281526004016114a4929190613c2d565b600060405180830381600087803b1580156114be57600080fd5b505af11580156114d2573d6000803e3d6000fd5b505050505050505050565b6114e5611c16565b600160009054906101000a900473ffffffffffffffffffffffffffffffffffffffff1673ffffffffffffffffffffffffffffffffffffffff16633eeb568b836040518263ffffffff167c010000000000000000000000000000000000000000000000000000000002815260040161155c919061379a565b600060405180830381865afa158015611579573d6000803e3d6000fd5b505050506040513d6000823e3d601f19601f820116820180604052508101906115a29190613aa6565b9050919050565b816000600160009054906101000a900473ffffffffffffffffffffffffffffffffffffffff1673ffffffffffffffffffffffffffffffffffffffff16633eeb568b836040518263ffffffff167c0100000000000000000000000000000000000000000000000000000000028152600401611623919061379a565b600060405180830381865afa158015611640573d6000803e3d6000fd5b505050506040513d6000823e3d601f19601f820116820180604052508101906116699190613aa6565b90508060a0015160a0015173ffffffffffffffffffffffffffffffffffffffff163373ffffffffffffffffffffffffffffffffffffffff16146116e1576040517f08c379a00000000000000000000000000000000000000000000000000000000081526004016116d890613b3b565b60405180910390fd5b60008060009054906101000a900473ffffffffffffffffffffffffffffffffffffffff1673ffffffffffffffffffffffffffffffffffffffff16635a7e1989856040518263ffffffff167c010000000000000000000000000000000000000000000000000000000002815260040161175991906130ce565b600060405180830381865afa158015611776573d6000803e3d6000fd5b505050506040513d6000823e3d601f19601f8201168201806040525081019061179f91906136a3565b9050600160009054906101000a900473ffffffffffffffffffffffffffffffffffffffff1673ffffffffffffffffffffffffffffffffffffffff1663ddd16bb286836040518363ffffffff167c010000000000000000000000000000000000000000000000000000000002815260040161181a929190613c64565b600060405180830381600087803b15801561183457600080fd5b505af1158015611848573d6000803e3d6000fd5b505050505050505050565b6060600160009054906101000a900473ffffffffffffffffffffffffffffffffffffffff1673ffffffffffffffffffffffffffffffffffffffff1663c892522e836040518263ffffffff167c01000000000000000000000000000000000000000000000000000000000281526004016118cc919061379a565b600060405180830381865afa1580156118e9573d6000803e3d6000fd5b505050506040513d6000823e3d601f19601f820116820180604052508101906119129190613d7c565b9050919050565b606060008060009054906101000a900473ffffffffffffffffffffffffffffffffffffffff1673ffffffffffffffffffffffffffffffffffffffff16635a7e1989336040518263ffffffff167c010000000000000000000000000000000000000000000000000000000002815260040161199391906130ce565b600060405180830381865afa1580156119b0573d6000803e3d6000fd5b505050506040513d6000823e3d601f19601f820116820180604052508101906119d991906136a3565b9050600160009054906101000a900473ffffffffffffffffffffffffffffffffffffffff1673ffffffffffffffffffffffffffffffffffffffff16630ac606ca826040518263ffffffff167c0100000000000000000000000000000000000000000000000000000000028152600401611a5291906126c2565b600060405180830381865afa158015611a6f573d6000803e3d6000fd5b505050506040513d6000823e3d601f19601f82011682018060405250810190611a989190613d7c565b91505090565b60008054906101000a900473ffffffffffffffffffffffffffffffffffffffff1681565b611aca611bab565b60008054906101000a900473ffffffffffffffffffffffffffffffffffffffff1673ffffffffffffffffffffffffffffffffffffffff16635a7e1989336040518263ffffffff167c0100000000000000000000000000000000000000000000000000000000028152600401611b3f91906130ce565b600060405180830381865afa158015611b5c573d6000803e3d6000fd5b505050506040513d6000823e3d601f19601f82011682018060405250810190611b8591906136a3565b905090565b60405180606001604052806060815260200160608152602001606081525090565b6040518060e001604052806060815260200160608152602001606081526020016060815260200160006003811115611be657611be5612132565b5b8152602001600073ffffffffffffffffffffffffffffffffffffffff168152602001600063ffffffff1681525090565b604051806101400160405280606081526020016060815260200160006002811115611c4457611c43612132565b5b81526020016060815260200160006002811115611c6457611c63612132565b5b8152602001611c71611bab565b81526020016000815260200160608152602001600015158152602001606081525090565b6000604051905090565b600080fd5b600080fd5b600073ffffffffffffffffffffffffffffffffffffffff82169050919050565b6000611cd482611ca9565b9050919050565b611ce481611cc9565b8114611cef57600080fd5b50565b600081359050611d0181611cdb565b92915050565b600080fd5b600080fd5b6000601f19601f8301169050919050565b7f4e487b7100000000000000000000000000000000000000000000000000000000600052604160045260246000fd5b611d5a82611d11565b810181811067ffffffffffffffff82111715611d7957611d78611d22565b5b80604052505050565b6000611d8c611c95565b9050611d988282611d51565b919050565b600067ffffffffffffffff821115611db857611db7611d22565b5b611dc182611d11565b9050602081019050919050565b82818337600083830152505050565b6000611df0611deb84611d9d565b611d82565b905082815260208101848484011115611e0c57611e0b611d0c565b5b611e17848285611dce565b509392505050565b600082601f830112611e3457611e33611d07565b5b8135611e44848260208601611ddd565b91505092915050565b60048110611e5a57600080fd5b50565b600081359050611e6c81611e4d565b92915050565b60008060008060008060c08789031215611e8f57611e8e611c9f565b5b6000611e9d89828a01611cf2565b965050602087013567ffffffffffffffff811115611ebe57611ebd611ca4565b5b611eca89828a01611e1f565b955050604087013567ffffffffffffffff811115611eeb57611eea611ca4565b5b611ef789828a01611e1f565b945050606087013567ffffffffffffffff811115611f1857611f17611ca4565b5b611f2489828a01611e1f565b935050608087013567ffffffffffffffff811115611f4557611f44611ca4565b5b611f5189828a01611e1f565b92505060a0611f6289828a01611e5d565b9150509295509295509295565b600080600080600060a08688031215611f8b57611f8a611c9f565b5b6000611f9988828901611cf2565b955050602086013567ffffffffffffffff811115611fba57611fb9611ca4565b5b611fc688828901611e1f565b945050604086013567ffffffffffffffff811115611fe757611fe6611ca4565b5b611ff388828901611e1f565b935050606086013567ffffffffffffffff81111561201457612013611ca4565b5b61202088828901611e1f565b925050608086013567ffffffffffffffff81111561204157612040611ca4565b5b61204d88828901611e1f565b9150509295509295909350565b6000602082840312156120705761206f611c9f565b5b600061207e84828501611cf2565b91505092915050565b600081519050919050565b600082825260208201905092915050565b6000819050602082019050919050565b600081519050919050565b600082825260208201905092915050565b60005b838110156120ed5780820151818401526020810190506120d2565b60008484015250505050565b6000612104826120b3565b61210e81856120be565b935061211e8185602086016120cf565b61212781611d11565b840191505092915050565b7f4e487b7100000000000000000000000000000000000000000000000000000000600052602160045260246000fd5b6004811061217257612171612132565b5b50565b600081905061218382612161565b919050565b600061219382612175565b9050919050565b6121a381612188565b82525050565b6121b281611cc9565b82525050565b600063ffffffff82169050919050565b6121d1816121b8565b82525050565b600060e08301600083015184820360008601526121f482826120f9565b9150506020830151848203602086015261220e82826120f9565b9150506040830151848203604086015261222882826120f9565b9150506060830151848203606086015261224282826120f9565b9150506080830151612257608086018261219a565b5060a083015161226a60a08601826121a9565b5060c083015161227d60c08601826121c8565b508091505092915050565b600061229483836121d7565b905092915050565b6000602082019050919050565b60006122b482612087565b6122be8185612092565b9350836020820285016122d0856120a3565b8060005b8581101561230c57848403895281516122ed8582612288565b94506122f88361229c565b925060208a019950506001810190506122d4565b50829750879550505050505092915050565b6000602082019050818103600083015261233881846122a9565b905092915050565b6000806040838503121561235757612356611c9f565b5b600083013567ffffffffffffffff81111561237557612374611ca4565b5b61238185828601611e1f565b925050602083013567ffffffffffffffff8111156123a2576123a1611ca4565b5b6123ae85828601611e1f565b9150509250929050565b600060608301600083015184820360008601526123d582826120f9565b915050602083015184820360208601526123ef82826120f9565b9150506040830151848203604086015261240982826120f9565b9150508091505092915050565b6000602082019050818103600083015261243081846123b8565b905092915050565b60008115159050919050565b61244d81612438565b82525050565b60006020820190506124686000830184612444565b92915050565b612477816121b8565b811461248257600080fd5b50565b6000813590506124948161246e565b92915050565b6000819050919050565b6124ad8161249a565b81146124b857600080fd5b50565b6000813590506124ca816124a4565b92915050565b600080604083850312156124e7576124e6611c9f565b5b60006124f585828601612485565b9250506020612506858286016124bb565b9150509250929050565b612519816121b8565b82525050565b60006020820190506125346000830184612510565b92915050565b6000806000806080858703121561255457612553611c9f565b5b600085013567ffffffffffffffff81111561257257612571611ca4565b5b61257e87828801611e1f565b945050602085013567ffffffffffffffff81111561259f5761259e611ca4565b5b6125ab87828801611e1f565b935050604085013567ffffffffffffffff8111156125cc576125cb611ca4565b5b6125d887828801611e1f565b925050606085013567ffffffffffffffff8111156125f9576125f8611ca4565b5b61260587828801611e1f565b91505092959194509250565b600060e083016000830151848203600086015261262e82826120f9565b9150506020830151848203602086015261264882826120f9565b9150506040830151848203604086015261266282826120f9565b9150506060830151848203606086015261267c82826120f9565b9150506080830151612691608086018261219a565b5060a08301516126a460a08601826121a9565b5060c08301516126b760c08601826121c8565b508091505092915050565b600060208201905081810360008301526126dc8184612611565b905092915050565b6000602082840312156126fa576126f9611c9f565b5b600061270884828501612485565b91505092915050565b61271a81611cc9565b82525050565b60006080820190506127356000830187612510565b6127426020830186612510565b61274f6040830185612510565b61275c6060830184612711565b95945050505050565b6000819050919050565b600061278a61278561278084611ca9565b612765565b611ca9565b9050919050565b600061279c8261276f565b9050919050565b60006127ae82612791565b9050919050565b6127be816127a3565b82525050565b60006020820190506127d960008301846127b5565b92915050565b600381106127ec57600080fd5b50565b6000813590506127fe816127df565b92915050565b6003811061281157600080fd5b50565b60008135905061282381612804565b92915050565b600080600080600060a0868803121561284557612844611c9f565b5b600086013567ffffffffffffffff81111561286357612862611ca4565b5b61286f88828901611e1f565b955050602086013567ffffffffffffffff8111156128905761288f611ca4565b5b61289c88828901611e1f565b94505060406128ad888289016127ef565b935050606086013567ffffffffffffffff8111156128ce576128cd611ca4565b5b6128da88828901611e1f565b92505060806128eb88828901612814565b9150509295509295909350565b600067ffffffffffffffff82111561291357612912611d22565b5b602082029050602081019050919050565b600080fd5b600061293c612937846128f8565b611d82565b9050808382526020820190506020840283018581111561295f5761295e612924565b5b835b8181101561298857806129748882611cf2565b845260208401935050602081019050612961565b5050509392505050565b600082601f8301126129a7576129a6611d07565b5b81356129b7848260208601612929565b91505092915050565b600080604083850312156129d7576129d6611c9f565b5b600083013567ffffffffffffffff8111156129f5576129f4611ca4565b5b612a0185828601611e1f565b925050602083013567ffffffffffffffff811115612a2257612a21611ca4565b5b612a2e85828601612992565b9150509250929050565b600060208284031215612a4e57612a4d611c9f565b5b600082013567ffffffffffffffff811115612a6c57612a6b611ca4565b5b612a7884828501611e1f565b91505092915050565b60038110612a9257612a91612132565b5b50565b6000819050612aa382612a81565b919050565b6000612ab382612a95565b9050919050565b612ac381612aa8565b82525050565b60038110612ada57612ad9612132565b5b50565b6000819050612aeb82612ac9565b919050565b6000612afb82612add565b9050919050565b612b0b81612af0565b82525050565b612b1a8161249a565b82525050565b600081519050919050565b600082825260208201905092915050565b6000819050602082019050919050565b6000612b5883836120f9565b905092915050565b6000602082019050919050565b6000612b7882612b20565b612b828185612b2b565b935083602082028501612b9485612b3c565b8060005b85811015612bd05784840389528151612bb18582612b4c565b9450612bbc83612b60565b925060208a01995050600181019050612b98565b50829750879550505050505092915050565b612beb81612438565b82525050565b6000610140830160008301518482036000860152612c0f82826120f9565b91505060208301518482036020860152612c2982826120f9565b9150506040830151612c3e6040860182612aba565b5060608301518482036060860152612c5682826120f9565b9150506080830151612c6b6080860182612b02565b5060a083015184820360a0860152612c8382826121d7565b91505060c0830151612c9860c0860182612b11565b5060e083015184820360e0860152612cb08282612b6d565b915050610100830151612cc7610100860182612be2565b50610120830151848203610120860152612ce182826120f9565b9150508091505092915050565b60006020820190508181036000830152612d088184612bf1565b905092915050565b60008060408385031215612d2757612d26611c9f565b5b600083013567ffffffffffffffff811115612d4557612d44611ca4565b5b612d5185828601611e1f565b9250506020612d6285828601611cf2565b9150509250929050565b600081519050919050565b600082825260208201905092915050565b6000819050602082019050919050565b6000610140830160008301518482036000860152612db682826120f9565b91505060208301518482036020860152612dd082826120f9565b9150506040830151612de56040860182612aba565b5060608301518482036060860152612dfd82826120f9565b9150506080830151612e126080860182612b02565b5060a083015184820360a0860152612e2a82826121d7565b91505060c0830151612e3f60c0860182612b11565b5060e083015184820360e0860152612e578282612b6d565b915050610100830151612e6e610100860182612be2565b50610120830151848203610120860152612e8882826120f9565b9150508091505092915050565b6000612ea18383612d98565b905092915050565b6000602082019050919050565b6000612ec182612d6c565b612ecb8185612d77565b935083602082028501612edd85612d88565b8060005b85811015612f195784840389528151612efa8582612e95565b9450612f0583612ea9565b925060208a01995050600181019050612ee1565b50829750879550505050505092915050565b60006020820190508181036000830152612f458184612eb6565b905092915050565b6000612f5882612791565b9050919050565b612f6881612f4d565b82525050565b6000602082019050612f836000830184612f5f565b92915050565b600082825260208201905092915050565b6000612fa5826120b3565b612faf8185612f89565b9350612fbf8185602086016120cf565b612fc881611d11565b840191505092915050565b612fdc81612188565b82525050565b600060c082019050612ff76000830189612711565b81810360208301526130098188612f9a565b9050818103604083015261301d8187612f9a565b905081810360608301526130318186612f9a565b905081810360808301526130458185612f9a565b905061305460a0830184612fd3565b979650505050505050565b600060a0820190506130746000830188612711565b81810360208301526130868187612f9a565b9050818103604083015261309a8186612f9a565b905081810360608301526130ae8185612f9a565b905081810360808301526130c28184612f9a565b90509695505050505050565b60006020820190506130e36000830184612711565b92915050565b600067ffffffffffffffff82111561310457613103611d22565b5b602082029050602081019050919050565b600080fd5b600080fd5b600061313261312d84611d9d565b611d82565b90508281526020810184848401111561314e5761314d611d0c565b5b6131598482856120cf565b509392505050565b600082601f83011261317657613175611d07565b5b815161318684826020860161311f565b91505092915050565b60008151905061319e81611e4d565b92915050565b6000815190506131b381611cdb565b92915050565b6000815190506131c88161246e565b92915050565b600060e082840312156131e4576131e3613115565b5b6131ee60e0611d82565b9050600082015167ffffffffffffffff81111561320e5761320d61311a565b5b61321a84828501613161565b600083015250602082015167ffffffffffffffff81111561323e5761323d61311a565b5b61324a84828501613161565b602083015250604082015167ffffffffffffffff81111561326e5761326d61311a565b5b61327a84828501613161565b604083015250606082015167ffffffffffffffff81111561329e5761329d61311a565b5b6132aa84828501613161565b60608301525060806132be8482850161318f565b60808301525060a06132d2848285016131a4565b60a08301525060c06132e6848285016131b9565b60c08301525092915050565b6000613305613300846130e9565b611d82565b9050808382526020820190506020840283018581111561332857613327612924565b5b835b8181101561336f57805167ffffffffffffffff81111561334d5761334c611d07565b5b80860161335a89826131ce565b8552602085019450505060208101905061332a565b5050509392505050565b600082601f83011261338e5761338d611d07565b5b815161339e8482602086016132f2565b91505092915050565b6000602082840312156133bd576133bc611c9f565b5b600082015167ffffffffffffffff8111156133db576133da611ca4565b5b6133e784828501613379565b91505092915050565b6000604082019050818103600083015261340a8185612f9a565b9050818103602083015261341e8184612f9a565b90509392505050565b60006060828403121561343d5761343c613115565b5b6134476060611d82565b9050600082015167ffffffffffffffff8111156134675761346661311a565b5b61347384828501613161565b600083015250602082015167ffffffffffffffff8111156134975761349661311a565b5b6134a384828501613161565b602083015250604082015167ffffffffffffffff8111156134c7576134c661311a565b5b6134d384828501613161565b60408301525092915050565b6000602082840312156134f5576134f4611c9f565b5b600082015167ffffffffffffffff81111561351357613512611ca4565b5b61351f84828501613427565b91505092915050565b600061353b613536846128f8565b611d82565b9050808382526020820190506020840283018581111561355e5761355d612924565b5b835b81811015613587578061357388826131a4565b845260208401935050602081019050613560565b5050509392505050565b600082601f8301126135a6576135a5611d07565b5b81516135b6848260208601613528565b91505092915050565b6000602082840312156135d5576135d4611c9f565b5b600082015167ffffffffffffffff8111156135f3576135f2611ca4565b5b6135ff84828501613591565b91505092915050565b7f4e6f20456e746974696573000000000000000000000000000000000000000000600082015250565b600061363e600b83612f89565b915061364982613608565b602082019050919050565b6000602082019050818103600083015261366d81613631565b9050919050565b7f4e487b7100000000000000000000000000000000000000000000000000000000600052603260045260246000fd5b6000602082840312156136b9576136b8611c9f565b5b600082015167ffffffffffffffff8111156136d7576136d6611ca4565b5b6136e3848285016131ce565b91505092915050565b7f4e487b7100000000000000000000000000000000000000000000000000000000600052601160045260246000fd5b6000613726826121b8565b915063ffffffff820361373c5761373b6136ec565b5b600182019050919050565b600081905092915050565b600061375d826120b3565b6137678185613747565b93506137778185602086016120cf565b80840191505092915050565b600061378f8284613752565b915081905092915050565b600060208201905081810360008301526137b48184612f9a565b905092915050565b6000815190506137cb816127df565b92915050565b6000815190506137e081612804565b92915050565b6000815190506137f5816124a4565b92915050565b600067ffffffffffffffff82111561381657613815611d22565b5b602082029050602081019050919050565b600061383a613835846137fb565b611d82565b9050808382526020820190506020840283018581111561385d5761385c612924565b5b835b818110156138a457805167ffffffffffffffff81111561388257613881611d07565b5b80860161388f8982613161565b8552602085019450505060208101905061385f565b5050509392505050565b600082601f8301126138c3576138c2611d07565b5b81516138d3848260208601613827565b91505092915050565b6138e581612438565b81146138f057600080fd5b50565b600081519050613902816138dc565b92915050565b6000610140828403121561391f5761391e613115565b5b61392a610140611d82565b9050600082015167ffffffffffffffff81111561394a5761394961311a565b5b61395684828501613161565b600083015250602082015167ffffffffffffffff81111561397a5761397961311a565b5b61398684828501613161565b602083015250604061399a848285016137bc565b604083015250606082015167ffffffffffffffff8111156139be576139bd61311a565b5b6139ca84828501613161565b60608301525060806139de848285016137d1565b60808301525060a082015167ffffffffffffffff811115613a0257613a0161311a565b5b613a0e848285016131ce565b60a08301525060c0613a22848285016137e6565b60c08301525060e082015167ffffffffffffffff811115613a4657613a4561311a565b5b613a52848285016138ae565b60e083015250610100613a67848285016138f3565b6101008301525061012082015167ffffffffffffffff811115613a8d57613a8c61311a565b5b613a9984828501613161565b6101208301525092915050565b600060208284031215613abc57613abb611c9f565b5b600082015167ffffffffffffffff811115613ada57613ad9611ca4565b5b613ae684828501613908565b91505092915050565b7f4e6f74204f776e65720000000000000000000000000000000000000000000000600082015250565b6000613b25600983612f89565b9150613b3082613aef565b602082019050919050565b60006020820190508181036000830152613b5481613b18565b9050919050565b60006040820190508181036000830152613b758185612f9a565b90508181036020830152613b8981846123b8565b90509392505050565b613b9b81612aa8565b82525050565b613baa81612af0565b82525050565b600060c0820190508181036000830152613bca8189612f9a565b90508181036020830152613bde8188612f9a565b9050613bed6040830187613b92565b8181036060830152613bff8186612f9a565b9050613c0e6080830185613ba1565b81810360a0830152613c208184612611565b9050979650505050505050565b60006040820190508181036000830152613c478185612f9a565b90508181036020830152613c5b81846122a9565b90509392505050565b60006040820190508181036000830152613c7e8185612f9a565b90508181036020830152613c928184612611565b90509392505050565b600067ffffffffffffffff821115613cb657613cb5611d22565b5b602082029050602081019050919050565b6000613cda613cd584613c9b565b611d82565b90508083825260208201905060208402830185811115613cfd57613cfc612924565b5b835b81811015613d4457805167ffffffffffffffff811115613d2257613d21611d07565b5b808601613d2f8982613908565b85526020850194505050602081019050613cff565b5050509392505050565b600082601f830112613d6357613d62611d07565b5b8151613d73848260208601613cc7565b91505092915050565b600060208284031215613d9257613d91611c9f565b5b600082015167ffffffffffffffff811115613db057613daf611ca4565b5b613dbc84828501613d4e565b9150509291505056fea2646970667358221220a4850e38071c0e1ebf02ea6ff6068b6e277250b48949f60579d962d15dba78f364736f6c63430008130033",
  "immutableReferences": {},
  "source": "pragma solidity >=0.8.0;\r\n\r\nimport \"./EntitiesManager.sol\";\r\nimport \"./EvidencesManager.sol\";\r\n\r\ncontract EvidenceChain {\r\n    EntitiesManager public entitiesManager;\r\n    EvidencesManager public evidencesManager;\r\n\r\n    constructor(\r\n        address _entitiesManagerAddress,\r\n        address _evidencesManagerAddress\r\n    ) {\r\n        entitiesManager = EntitiesManager(_entitiesManagerAddress);\r\n        evidencesManager = EvidencesManager(_evidencesManagerAddress);\r\n    }\r\n\r\n    uint32 public owner_id = 0;\r\n\r\n    struct ownership {\r\n        uint32 evidenceId;\r\n        uint32 ownerId;\r\n        uint32 trxTimeStamp;\r\n        address evidenceOwner;\r\n    }\r\n\r\n    mapping(uint32 => ownership) public ownerships;\r\n    mapping(uint32 => uint32[]) public evidenceTrack;\r\n\r\n    event TransferOwnership(uint32 evidenceId);\r\n    event ParticipantAdded(uint32 indexed userId);\r\n    event EvidenceAdded(uint32 indexed evidenceId);\r\n\r\n    function addEntity(\r\n        address _entity,\r\n        string memory _userName,\r\n        string memory _password,\r\n        string memory _name,\r\n        string memory _departmentCode,\r\n        EntitiesManager.EntityType _entityType\r\n    ) public {\r\n        entitiesManager.createEntity(\r\n            _entity,\r\n            _userName,\r\n            _password,\r\n            _name,\r\n            _departmentCode,\r\n            _entityType\r\n        );\r\n    }\r\n\r\n    function updateEntity(\r\n        address _entity,\r\n        string memory _userName,\r\n        string memory _password,\r\n        string memory _name,\r\n        string memory _departmentCode\r\n    ) public {\r\n        entitiesManager.updateEntity(\r\n            _entity,\r\n            _userName,\r\n            _password,\r\n            _name,\r\n            _departmentCode\r\n        );\r\n    }\r\n\r\n    function getEntities()\r\n        public\r\n        view\r\n        returns (EntitiesManager.Entity[] memory)\r\n    {\r\n        address[] memory entityAddresses = entitiesManager.getEntities();\r\n        require(entityAddresses.length > 0, \"No Entities\");\r\n        EntitiesManager.Entity[] memory entities = new EntitiesManager.Entity[](\r\n            entityAddresses.length\r\n        );\r\n        for (uint32 i = 0; i < entityAddresses.length; i++) {\r\n            entities[i] = entitiesManager.getLastUpdate(entityAddresses[i]);\r\n        }\r\n\r\n        return entities;\r\n    }\r\n\r\n    function getEntityHistory()\r\n        public\r\n        view\r\n        returns (EntitiesManager.Entity[] memory)\r\n    {\r\n        return entitiesManager.getEntityHistory(msg.sender);\r\n    }\r\n\r\n    function getEntityHistory(\r\n        address _entity\r\n    ) public view returns (EntitiesManager.Entity[] memory) {\r\n        return entitiesManager.getEntityHistory(_entity);\r\n    }\r\n\r\n    function getEntity(\r\n        address _entity\r\n    ) public view returns (EntitiesManager.Entity memory) {\r\n        return entitiesManager.getLastUpdate(_entity);\r\n    }\r\n\r\n    function getEntity() public view returns (EntitiesManager.Entity memory) {\r\n        return entitiesManager.getLastUpdate(msg.sender);\r\n    }\r\n\r\n    function authenticateEntity(\r\n        string memory _uname,\r\n        string memory _pass\r\n    ) public view returns (bool) {\r\n        EntitiesManager.Entity memory entity = entitiesManager.getLastUpdate(\r\n            msg.sender\r\n        );\r\n\r\n        if (\r\n            keccak256(abi.encodePacked(entity.userName)) ==\r\n            keccak256(abi.encodePacked(_uname))\r\n        ) {\r\n            if (\r\n                keccak256(abi.encodePacked(entity.password)) ==\r\n                keccak256(abi.encodePacked(_pass))\r\n            ) {\r\n                return (true);\r\n            }\r\n        }\r\n\r\n        return (false);\r\n    }\r\n\r\n    function addEvidence(\r\n        string memory _evidenceUniqueCode,\r\n        string memory _caseNo,\r\n        EvidencesManager.EvidenceClassification _classification,\r\n        string memory _evidenceName,\r\n        EvidencesManager.EvidenceType _evidenceType\r\n    ) public {\r\n        EntitiesManager.Entity memory _entity = entitiesManager.getLastUpdate(\r\n            msg.sender\r\n        );\r\n        evidencesManager.addEvidence(\r\n            _evidenceUniqueCode,\r\n            _caseNo,\r\n            _classification,\r\n            _evidenceName,\r\n            _evidenceType,\r\n            _entity\r\n        );\r\n    }\r\n\r\n    function getEvidences()\r\n        public\r\n        view\r\n        returns (EvidencesManager.Evidence[] memory)\r\n    {\r\n        EntitiesManager.Entity memory entity = entitiesManager.getLastUpdate(msg.sender);\r\n        return evidencesManager.getEvidences(entity);\r\n    }\r\n\r\n    function getEvidenceHistory(\r\n        string memory _evidenceUniqueCode\r\n    ) public view returns (EvidencesManager.Evidence[] memory) {\r\n        return evidencesManager.getEvidenceHistory(_evidenceUniqueCode);\r\n    }\r\n\r\n    function getEvidence(\r\n        string memory _evidenceUniqueCode\r\n    ) public view returns (EvidencesManager.Evidence memory) {\r\n        return evidencesManager.getLastUpdate(_evidenceUniqueCode);\r\n    }\r\n\r\n    function addAllowedUsers (string memory _evidenceUniqueCode, address[] memory _entities) public onlyOwner(_evidenceUniqueCode) {\r\n        EntitiesManager.Entity[] memory entities = new EntitiesManager.Entity[](\r\n            _entities.length\r\n        );\r\n\r\n        for (uint32 i = 0; i < _entities.length; i++) {\r\n            entities[i] = entitiesManager.getLastUpdate(_entities[i]);\r\n        }\r\n\r\n       evidencesManager.addAllowedUsers(_evidenceUniqueCode, entities);\r\n    }\r\n\r\n    function evidenceNewOwner(\r\n        string memory _evidenceUniqueCode,\r\n        address _newOwner\r\n    ) public onlyOwner(_evidenceUniqueCode) {\r\n        EntitiesManager.Entity memory _entity = entitiesManager.getLastUpdate(\r\n            _newOwner\r\n        );\r\n        evidencesManager.updateOwner(_evidenceUniqueCode, _entity);\r\n    }\r\n\r\n    function addFile(\r\n        string memory _evidenceUniqueCode,\r\n        string memory _fileId,\r\n        string memory _fileName,\r\n        string memory _fileHash\r\n    ) public onlyOwner(_evidenceUniqueCode) {\r\n        EvidencesManager.EvidenceFile memory file =  EvidencesManager.EvidenceFile(_fileId, _fileName, _fileHash);\r\n        evidencesManager.addFile(_evidenceUniqueCode, file);\r\n    }\r\n\r\n    modifier onlyOwner(string memory _evidenceUniqueCode) {\r\n        EvidencesManager.Evidence memory _evidence = evidencesManager\r\n            .getLastUpdate(_evidenceUniqueCode);\r\n        require(msg.sender == _evidence.owner.entityAddress, \"Not Owner\");\r\n        _;\r\n    }\r\n\r\n    function getFileInfo(string memory _evidenceUniqueCode, string memory _fileUniqueCode) external view returns (EvidencesManager.EvidenceFile memory)\r\n    {\r\n        return evidencesManager.getFileInfo(_evidenceUniqueCode, _fileUniqueCode);\r\n    }\r\n    \r\n    // function getProvenance(\r\n    //     uint32 _evidenceId\r\n    // ) external view returns (uint32[] memory) {\r\n    //     return evidenceTrack[_evidenceId];\r\n    // }\r\n\r\n    // function getOwnership(\r\n    //     uint32 _regId\r\n    // ) public view returns (uint32, uint32, address, uint32) {\r\n    //     ownership memory r = ownerships[_regId];\r\n\r\n    //     return (r.evidenceId, r.ownerId, r.evidenceOwner, r.trxTimeStamp);\r\n    // }\r\n}\r\n",
  "sourcePath": "C:\\IPCA DISSERTAO\\evidences_dapp\\contracts\\EvidenceChain.sol",
  "compiler": {
    "name": "solc",
    "version": "0.8.19+commit.7dd6d404.Emscripten.clang"
  },
  "schemaVersion": "3.4.13",
  "updatedAt": "2023-10-05T12:44:27.160Z",
  "networkType": "ethereum",
  "devdoc": {
    "kind": "dev",
    "methods": {},
    "version": 1
  },
  "userdoc": {
    "kind": "user",
    "methods": {},
    "version": 1
  }
}