{
  "contractName": "EvidencesManager",
  "abi": [
    {
      "inputs": [
        {
          "internalType": "uint256",
          "name": "",
          "type": "uint256"
        }
      ],
      "name": "allEvidences",
      "outputs": [
        {
          "internalType": "string",
          "name": "",
          "type": "string"
        }
      ],
      "stateMutability": "view",
      "type": "function",
      "constant": true
    },
    {
      "inputs": [
        {
          "internalType": "string",
          "name": "",
          "type": "string"
        },
        {
          "internalType": "uint256",
          "name": "",
          "type": "uint256"
        }
      ],
      "name": "evidencesHistory",
      "outputs": [
        {
          "internalType": "string",
          "name": "uniqueCode",
          "type": "string"
        },
        {
          "internalType": "string",
          "name": "caseNo",
          "type": "string"
        },
        {
          "internalType": "string",
          "name": "classification",
          "type": "string"
        },
        {
          "internalType": "string",
          "name": "name",
          "type": "string"
        },
        {
          "internalType": "string",
          "name": "eType",
          "type": "string"
        },
        {
          "components": [
            {
              "internalType": "string",
              "name": "userName",
              "type": "string"
            },
            {
              "internalType": "string",
              "name": "password",
              "type": "string"
            },
            {
              "internalType": "string",
              "name": "name",
              "type": "string"
            },
            {
              "internalType": "string",
              "name": "departmentCode",
              "type": "string"
            },
            {
              "internalType": "string",
              "name": "entityType",
              "type": "string"
            },
            {
              "internalType": "address",
              "name": "entityAddress",
              "type": "address"
            },
            {
              "internalType": "uint32",
              "name": "timestamp",
              "type": "uint32"
            }
          ],
          "internalType": "struct EntitiesManager.Entity",
          "name": "owner",
          "type": "tuple"
        },
        {
          "internalType": "uint256",
          "name": "timestamp",
          "type": "uint256"
        }
      ],
      "stateMutability": "view",
      "type": "function",
      "constant": true
    },
    {
      "inputs": [
        {
          "internalType": "string",
          "name": "_evidenceUniqueCode",
          "type": "string"
        },
        {
          "internalType": "string",
          "name": "_caseNo",
          "type": "string"
        },
        {
          "internalType": "string",
          "name": "_classification",
          "type": "string"
        },
        {
          "internalType": "string",
          "name": "_evidenceName",
          "type": "string"
        },
        {
          "internalType": "string",
          "name": "_evidenceType",
          "type": "string"
        },
        {
          "components": [
            {
              "internalType": "string",
              "name": "userName",
              "type": "string"
            },
            {
              "internalType": "string",
              "name": "password",
              "type": "string"
            },
            {
              "internalType": "string",
              "name": "name",
              "type": "string"
            },
            {
              "internalType": "string",
              "name": "departmentCode",
              "type": "string"
            },
            {
              "internalType": "string",
              "name": "entityType",
              "type": "string"
            },
            {
              "internalType": "address",
              "name": "entityAddress",
              "type": "address"
            },
            {
              "internalType": "uint32",
              "name": "timestamp",
              "type": "uint32"
            }
          ],
          "internalType": "struct EntitiesManager.Entity",
          "name": "_entity",
          "type": "tuple"
        },
        {
          "internalType": "string[]",
          "name": "_files",
          "type": "string[]"
        }
      ],
      "name": "addEvidence",
      "outputs": [],
      "stateMutability": "nonpayable",
      "type": "function"
    },
    {
      "inputs": [
        {
          "internalType": "string",
          "name": "_evidenceUniqueCode",
          "type": "string"
        },
        {
          "internalType": "string",
          "name": "_caseNo",
          "type": "string"
        },
        {
          "internalType": "string",
          "name": "_classification",
          "type": "string"
        },
        {
          "internalType": "string",
          "name": "_evidenceName",
          "type": "string"
        },
        {
          "internalType": "string",
          "name": "_evidenceType",
          "type": "string"
        },
        {
          "components": [
            {
              "internalType": "string",
              "name": "userName",
              "type": "string"
            },
            {
              "internalType": "string",
              "name": "password",
              "type": "string"
            },
            {
              "internalType": "string",
              "name": "name",
              "type": "string"
            },
            {
              "internalType": "string",
              "name": "departmentCode",
              "type": "string"
            },
            {
              "internalType": "string",
              "name": "entityType",
              "type": "string"
            },
            {
              "internalType": "address",
              "name": "entityAddress",
              "type": "address"
            },
            {
              "internalType": "uint32",
              "name": "timestamp",
              "type": "uint32"
            }
          ],
          "internalType": "struct EntitiesManager.Entity",
          "name": "_entity",
          "type": "tuple"
        }
      ],
      "name": "addEvidence",
      "outputs": [],
      "stateMutability": "nonpayable",
      "type": "function"
    },
    {
      "inputs": [
        {
          "internalType": "string",
          "name": "_evidenceUniqueCode",
          "type": "string"
        },
        {
          "internalType": "string[]",
          "name": "_files",
          "type": "string[]"
        }
      ],
      "name": "addFiles",
      "outputs": [],
      "stateMutability": "nonpayable",
      "type": "function"
    },
    {
      "inputs": [
        {
          "internalType": "string",
          "name": "_evidenceUniqueCode",
          "type": "string"
        },
        {
          "components": [
            {
              "internalType": "string",
              "name": "userName",
              "type": "string"
            },
            {
              "internalType": "string",
              "name": "password",
              "type": "string"
            },
            {
              "internalType": "string",
              "name": "name",
              "type": "string"
            },
            {
              "internalType": "string",
              "name": "departmentCode",
              "type": "string"
            },
            {
              "internalType": "string",
              "name": "entityType",
              "type": "string"
            },
            {
              "internalType": "address",
              "name": "entityAddress",
              "type": "address"
            },
            {
              "internalType": "uint32",
              "name": "timestamp",
              "type": "uint32"
            }
          ],
          "internalType": "struct EntitiesManager.Entity",
          "name": "_entity",
          "type": "tuple"
        }
      ],
      "name": "updateOwner",
      "outputs": [],
      "stateMutability": "nonpayable",
      "type": "function"
    },
    {
      "inputs": [],
      "name": "getEvidences",
      "outputs": [
        {
          "internalType": "string[]",
          "name": "",
          "type": "string[]"
        }
      ],
      "stateMutability": "view",
      "type": "function",
      "constant": true
    },
    {
      "inputs": [
        {
          "internalType": "string",
          "name": "_evidenceUniqueCode",
          "type": "string"
        }
      ],
      "name": "getEvidenceHistory",
      "outputs": [
        {
          "components": [
            {
              "internalType": "string",
              "name": "uniqueCode",
              "type": "string"
            },
            {
              "internalType": "string",
              "name": "caseNo",
              "type": "string"
            },
            {
              "internalType": "string",
              "name": "classification",
              "type": "string"
            },
            {
              "internalType": "string",
              "name": "name",
              "type": "string"
            },
            {
              "internalType": "string",
              "name": "eType",
              "type": "string"
            },
            {
              "components": [
                {
                  "internalType": "string",
                  "name": "userName",
                  "type": "string"
                },
                {
                  "internalType": "string",
                  "name": "password",
                  "type": "string"
                },
                {
                  "internalType": "string",
                  "name": "name",
                  "type": "string"
                },
                {
                  "internalType": "string",
                  "name": "departmentCode",
                  "type": "string"
                },
                {
                  "internalType": "string",
                  "name": "entityType",
                  "type": "string"
                },
                {
                  "internalType": "address",
                  "name": "entityAddress",
                  "type": "address"
                },
                {
                  "internalType": "uint32",
                  "name": "timestamp",
                  "type": "uint32"
                }
              ],
              "internalType": "struct EntitiesManager.Entity",
              "name": "owner",
              "type": "tuple"
            },
            {
              "internalType": "uint256",
              "name": "timestamp",
              "type": "uint256"
            },
            {
              "internalType": "string[]",
              "name": "uFiles",
              "type": "string[]"
            }
          ],
          "internalType": "struct EvidencesManager.Evidence[]",
          "name": "",
          "type": "tuple[]"
        }
      ],
      "stateMutability": "view",
      "type": "function",
      "constant": true
    },
    {
      "inputs": [
        {
          "internalType": "string",
          "name": "_evidenceUniqueCode",
          "type": "string"
        }
      ],
      "name": "getLastUpdate",
      "outputs": [
        {
          "components": [
            {
              "internalType": "string",
              "name": "uniqueCode",
              "type": "string"
            },
            {
              "internalType": "string",
              "name": "caseNo",
              "type": "string"
            },
            {
              "internalType": "string",
              "name": "classification",
              "type": "string"
            },
            {
              "internalType": "string",
              "name": "name",
              "type": "string"
            },
            {
              "internalType": "string",
              "name": "eType",
              "type": "string"
            },
            {
              "components": [
                {
                  "internalType": "string",
                  "name": "userName",
                  "type": "string"
                },
                {
                  "internalType": "string",
                  "name": "password",
                  "type": "string"
                },
                {
                  "internalType": "string",
                  "name": "name",
                  "type": "string"
                },
                {
                  "internalType": "string",
                  "name": "departmentCode",
                  "type": "string"
                },
                {
                  "internalType": "string",
                  "name": "entityType",
                  "type": "string"
                },
                {
                  "internalType": "address",
                  "name": "entityAddress",
                  "type": "address"
                },
                {
                  "internalType": "uint32",
                  "name": "timestamp",
                  "type": "uint32"
                }
              ],
              "internalType": "struct EntitiesManager.Entity",
              "name": "owner",
              "type": "tuple"
            },
            {
              "internalType": "uint256",
              "name": "timestamp",
              "type": "uint256"
            },
            {
              "internalType": "string[]",
              "name": "uFiles",
              "type": "string[]"
            }
          ],
          "internalType": "struct EvidencesManager.Evidence",
          "name": "",
          "type": "tuple"
        }
      ],
      "stateMutability": "view",
      "type": "function",
      "constant": true
    }
  ],
  "bytecode": "0x608060405234801561001057600080fd5b50614e26806100206000396000f3fe608060405234801561001057600080fd5b50600436106100925760003560e01c8063697b22da11610066578063697b22da1461011b578063947ea5ac14610151578063acf51e0514610181578063c892522e1461019d578063dff95aac146101cd57610092565b8062ffd9221461009757806333a4721f146100b35780633c39a363146100cf5780633eeb568b146100eb575b600080fd5b6100b160048036038101906100ac9190613d6e565b6101eb565b005b6100cd60048036038101906100c89190613ed4565b610e76565b005b6100e960048036038101906100e49190613f4c565b61109b565b005b61010560048036038101906101009190613fc4565b61130a565b6040516101129190614317565b60405180910390f35b61013560048036038101906101309190614365565b611aff565b60405161014897969594939291906144d2565b60405180910390f35b61016b6004803603810190610166919061456b565b61217c565b6040516101789190614598565b60405180910390f35b61019b600480360381019061019691906145ba565b612228565b005b6101b760048036038101906101b29190613fc4565b612f4e565b6040516101c4919061488b565b60405180910390f35b6101d56136f3565b6040516101e29190614933565b60405180910390f35b600080886040516101fc9190614991565b9081526020016040518091039020805490500361044c576000876040516102239190614991565b90815260200160405180910390206040518061010001604052808981526020018881526020018781526020018681526020018581526020018481526020014281526020018381525090806001815401808255809150506001900390600052602060002090600d020160009091909190915060008201518160000190816102a99190614bb4565b5060208201518160010190816102bf9190614bb4565b5060408201518160020190816102d59190614bb4565b5060608201518160030190816102eb9190614bb4565b5060808201518160040190816103019190614bb4565b5060a08201518160050160008201518160000190816103209190614bb4565b5060208201518160010190816103369190614bb4565b50604082015181600201908161034c9190614bb4565b5060608201518160030190816103629190614bb4565b5060808201518160040190816103789190614bb4565b5060a08201518160050160006101000a81548173ffffffffffffffffffffffffffffffffffffffff021916908373ffffffffffffffffffffffffffffffffffffffff16021790555060c08201518160050160146101000a81548163ffffffff021916908363ffffffff160217905550505060c082015181600b015560e082015181600c01908051906020019061040f9291906137cc565b5050506001879080600181540180825580915050600190039060005260206000200160009091909190915090816104469190614bb4565b50610e6d565b6000808860405161045d9190614991565b9081526020016040518091039020805490509050600080896040516104829190614991565b908152602001604051809103902060018361049d9190614cb5565b815481106104ae576104ad614ce9565b5b90600052602060002090600d0201604051806101000160405290816000820180546104d8906149d7565b80601f0160208091040260200160405190810160405280929190818152602001828054610504906149d7565b80156105515780601f1061052657610100808354040283529160200191610551565b820191906000526020600020905b81548152906001019060200180831161053457829003601f168201915b5050505050815260200160018201805461056a906149d7565b80601f0160208091040260200160405190810160405280929190818152602001828054610596906149d7565b80156105e35780601f106105b8576101008083540402835291602001916105e3565b820191906000526020600020905b8154815290600101906020018083116105c657829003601f168201915b505050505081526020016002820180546105fc906149d7565b80601f0160208091040260200160405190810160405280929190818152602001828054610628906149d7565b80156106755780601f1061064a57610100808354040283529160200191610675565b820191906000526020600020905b81548152906001019060200180831161065857829003601f168201915b5050505050815260200160038201805461068e906149d7565b80601f01602080910402602001604051908101604052809291908181526020018280546106ba906149d7565b80156107075780601f106106dc57610100808354040283529160200191610707565b820191906000526020600020905b8154815290600101906020018083116106ea57829003601f168201915b50505050508152602001600482018054610720906149d7565b80601f016020809104026020016040519081016040528092919081815260200182805461074c906149d7565b80156107995780601f1061076e57610100808354040283529160200191610799565b820191906000526020600020905b81548152906001019060200180831161077c57829003601f168201915b50505050508152602001600582016040518060e00160405290816000820180546107c2906149d7565b80601f01602080910402602001604051908101604052809291908181526020018280546107ee906149d7565b801561083b5780601f106108105761010080835404028352916020019161083b565b820191906000526020600020905b81548152906001019060200180831161081e57829003601f168201915b50505050508152602001600182018054610854906149d7565b80601f0160208091040260200160405190810160405280929190818152602001828054610880906149d7565b80156108cd5780601f106108a2576101008083540402835291602001916108cd565b820191906000526020600020905b8154815290600101906020018083116108b057829003601f168201915b505050505081526020016002820180546108e6906149d7565b80601f0160208091040260200160405190810160405280929190818152602001828054610912906149d7565b801561095f5780601f106109345761010080835404028352916020019161095f565b820191906000526020600020905b81548152906001019060200180831161094257829003601f168201915b50505050508152602001600382018054610978906149d7565b80601f01602080910402602001604051908101604052809291908181526020018280546109a4906149d7565b80156109f15780601f106109c6576101008083540402835291602001916109f1565b820191906000526020600020905b8154815290600101906020018083116109d457829003601f168201915b50505050508152602001600482018054610a0a906149d7565b80601f0160208091040260200160405190810160405280929190818152602001828054610a36906149d7565b8015610a835780601f10610a5857610100808354040283529160200191610a83565b820191906000526020600020905b815481529060010190602001808311610a6657829003601f168201915b505050505081526020016005820160009054906101000a900473ffffffffffffffffffffffffffffffffffffffff1673ffffffffffffffffffffffffffffffffffffffff1673ffffffffffffffffffffffffffffffffffffffff1681526020016005820160149054906101000a900463ffffffff1663ffffffff1663ffffffff16815250508152602001600b8201548152602001600c8201805480602002602001604051908101604052809291908181526020016000905b82821015610be7578382906000526020600020018054610b5a906149d7565b80601f0160208091040260200160405190810160405280929190818152602001828054610b86906149d7565b8015610bd35780601f10610ba857610100808354040283529160200191610bd3565b820191906000526020600020905b815481529060010190602001808311610bb657829003601f168201915b505050505081526020019060010190610b3b565b505050508152505090508360a0015173ffffffffffffffffffffffffffffffffffffffff168160a0015160a0015173ffffffffffffffffffffffffffffffffffffffff1614610c6b576040517f08c379a0000000000000000000000000000000000000000000000000000000008152600401610c6290614d64565b60405180910390fd5b600089604051610c7b9190614991565b90815260200160405180910390206040518061010001604052808b81526020018a81526020018981526020018881526020018781526020018681526020014281526020018581525090806001815401808255809150506001900390600052602060002090600d02016000909190919091506000820151816000019081610d019190614bb4565b506020820151816001019081610d179190614bb4565b506040820151816002019081610d2d9190614bb4565b506060820151816003019081610d439190614bb4565b506080820151816004019081610d599190614bb4565b5060a0820151816005016000820151816000019081610d789190614bb4565b506020820151816001019081610d8e9190614bb4565b506040820151816002019081610da49190614bb4565b506060820151816003019081610dba9190614bb4565b506080820151816004019081610dd09190614bb4565b5060a08201518160050160006101000a81548173ffffffffffffffffffffffffffffffffffffffff021916908373ffffffffffffffffffffffffffffffffffffffff16021790555060c08201518160050160146101000a81548163ffffffff021916908363ffffffff160217905550505060c082015181600b015560e082015181600c019080519060200190610e679291906137cc565b50505050505b50505050505050565b6000610e818361130a565b9050600083604051610e939190614991565b9081526020016040518091039020604051806101000160405280858152602001836020015181526020018360400151815260200183606001518152602001836080015181526020018360a0015181526020014281526020018481525090806001815401808255809150506001900390600052602060002090600d02016000909190919091506000820151816000019081610f2d9190614bb4565b506020820151816001019081610f439190614bb4565b506040820151816002019081610f599190614bb4565b506060820151816003019081610f6f9190614bb4565b506080820151816004019081610f859190614bb4565b5060a0820151816005016000820151816000019081610fa49190614bb4565b506020820151816001019081610fba9190614bb4565b506040820151816002019081610fd09190614bb4565b506060820151816003019081610fe69190614bb4565b506080820151816004019081610ffc9190614bb4565b5060a08201518160050160006101000a81548173ffffffffffffffffffffffffffffffffffffffff021916908373ffffffffffffffffffffffffffffffffffffffff16021790555060c08201518160050160146101000a81548163ffffffff021916908363ffffffff160217905550505060c082015181600b015560e082015181600c0190805190602001906110939291906137cc565b505050505050565b60006110a68361130a565b90506000836040516110b89190614991565b908152602001604051809103902060405180610100016040528085815260200183602001518152602001836040015181526020018360600151815260200183608001518152602001848152602001428152602001600067ffffffffffffffff81111561112757611126613979565b5b60405190808252806020026020018201604052801561115a57816020015b60608152602001906001900390816111455790505b5081525090806001815401808255809150506001900390600052602060002090600d0201600090919091909150600082015181600001908161119c9190614bb4565b5060208201518160010190816111b29190614bb4565b5060408201518160020190816111c89190614bb4565b5060608201518160030190816111de9190614bb4565b5060808201518160040190816111f49190614bb4565b5060a08201518160050160008201518160000190816112139190614bb4565b5060208201518160010190816112299190614bb4565b50604082015181600201908161123f9190614bb4565b5060608201518160030190816112559190614bb4565b50608082015181600401908161126b9190614bb4565b5060a08201518160050160006101000a81548173ffffffffffffffffffffffffffffffffffffffff021916908373ffffffffffffffffffffffffffffffffffffffff16021790555060c08201518160050160146101000a81548163ffffffff021916908363ffffffff160217905550505060c082015181600b015560e082015181600c0190805190602001906113029291906137cc565b505050505050565b611312613825565b600080836040516113239190614991565b90815260200160405180910390208054905090506000811161137a576040517f08c379a000000000000000000000000000000000000000000000000000000000815260040161137190614dd0565b60405180910390fd5b60008360405161138a9190614991565b90815260200160405180910390206001826113a59190614cb5565b815481106113b6576113b5614ce9565b5b90600052602060002090600d0201604051806101000160405290816000820180546113e0906149d7565b80601f016020809104026020016040519081016040528092919081815260200182805461140c906149d7565b80156114595780601f1061142e57610100808354040283529160200191611459565b820191906000526020600020905b81548152906001019060200180831161143c57829003601f168201915b50505050508152602001600182018054611472906149d7565b80601f016020809104026020016040519081016040528092919081815260200182805461149e906149d7565b80156114eb5780601f106114c0576101008083540402835291602001916114eb565b820191906000526020600020905b8154815290600101906020018083116114ce57829003601f168201915b50505050508152602001600282018054611504906149d7565b80601f0160208091040260200160405190810160405280929190818152602001828054611530906149d7565b801561157d5780601f106115525761010080835404028352916020019161157d565b820191906000526020600020905b81548152906001019060200180831161156057829003601f168201915b50505050508152602001600382018054611596906149d7565b80601f01602080910402602001604051908101604052809291908181526020018280546115c2906149d7565b801561160f5780601f106115e45761010080835404028352916020019161160f565b820191906000526020600020905b8154815290600101906020018083116115f257829003601f168201915b50505050508152602001600482018054611628906149d7565b80601f0160208091040260200160405190810160405280929190818152602001828054611654906149d7565b80156116a15780601f10611676576101008083540402835291602001916116a1565b820191906000526020600020905b81548152906001019060200180831161168457829003601f168201915b50505050508152602001600582016040518060e00160405290816000820180546116ca906149d7565b80601f01602080910402602001604051908101604052809291908181526020018280546116f6906149d7565b80156117435780601f1061171857610100808354040283529160200191611743565b820191906000526020600020905b81548152906001019060200180831161172657829003601f168201915b5050505050815260200160018201805461175c906149d7565b80601f0160208091040260200160405190810160405280929190818152602001828054611788906149d7565b80156117d55780601f106117aa576101008083540402835291602001916117d5565b820191906000526020600020905b8154815290600101906020018083116117b857829003601f168201915b505050505081526020016002820180546117ee906149d7565b80601f016020809104026020016040519081016040528092919081815260200182805461181a906149d7565b80156118675780601f1061183c57610100808354040283529160200191611867565b820191906000526020600020905b81548152906001019060200180831161184a57829003601f168201915b50505050508152602001600382018054611880906149d7565b80601f01602080910402602001604051908101604052809291908181526020018280546118ac906149d7565b80156118f95780601f106118ce576101008083540402835291602001916118f9565b820191906000526020600020905b8154815290600101906020018083116118dc57829003601f168201915b50505050508152602001600482018054611912906149d7565b80601f016020809104026020016040519081016040528092919081815260200182805461193e906149d7565b801561198b5780601f106119605761010080835404028352916020019161198b565b820191906000526020600020905b81548152906001019060200180831161196e57829003601f168201915b505050505081526020016005820160009054906101000a900473ffffffffffffffffffffffffffffffffffffffff1673ffffffffffffffffffffffffffffffffffffffff1673ffffffffffffffffffffffffffffffffffffffff1681526020016005820160149054906101000a900463ffffffff1663ffffffff1663ffffffff16815250508152602001600b8201548152602001600c8201805480602002602001604051908101604052809291908181526020016000905b82821015611aef578382906000526020600020018054611a62906149d7565b80601f0160208091040260200160405190810160405280929190818152602001828054611a8e906149d7565b8015611adb5780601f10611ab057610100808354040283529160200191611adb565b820191906000526020600020905b815481529060010190602001808311611abe57829003601f168201915b505050505081526020019060010190611a43565b5050505081525050915050919050565b6000828051602081018201805184825260208301602085012081835280955050505050508181548110611b3157600080fd5b90600052602060002090600d020160009150915050806000018054611b55906149d7565b80601f0160208091040260200160405190810160405280929190818152602001828054611b81906149d7565b8015611bce5780601f10611ba357610100808354040283529160200191611bce565b820191906000526020600020905b815481529060010190602001808311611bb157829003601f168201915b505050505090806001018054611be3906149d7565b80601f0160208091040260200160405190810160405280929190818152602001828054611c0f906149d7565b8015611c5c5780601f10611c3157610100808354040283529160200191611c5c565b820191906000526020600020905b815481529060010190602001808311611c3f57829003601f168201915b505050505090806002018054611c71906149d7565b80601f0160208091040260200160405190810160405280929190818152602001828054611c9d906149d7565b8015611cea5780601f10611cbf57610100808354040283529160200191611cea565b820191906000526020600020905b815481529060010190602001808311611ccd57829003601f168201915b505050505090806003018054611cff906149d7565b80601f0160208091040260200160405190810160405280929190818152602001828054611d2b906149d7565b8015611d785780601f10611d4d57610100808354040283529160200191611d78565b820191906000526020600020905b815481529060010190602001808311611d5b57829003601f168201915b505050505090806004018054611d8d906149d7565b80601f0160208091040260200160405190810160405280929190818152602001828054611db9906149d7565b8015611e065780601f10611ddb57610100808354040283529160200191611e06565b820191906000526020600020905b815481529060010190602001808311611de957829003601f168201915b505050505090806005016040518060e0016040529081600082018054611e2b906149d7565b80601f0160208091040260200160405190810160405280929190818152602001828054611e57906149d7565b8015611ea45780601f10611e7957610100808354040283529160200191611ea4565b820191906000526020600020905b815481529060010190602001808311611e8757829003601f168201915b50505050508152602001600182018054611ebd906149d7565b80601f0160208091040260200160405190810160405280929190818152602001828054611ee9906149d7565b8015611f365780601f10611f0b57610100808354040283529160200191611f36565b820191906000526020600020905b815481529060010190602001808311611f1957829003601f168201915b50505050508152602001600282018054611f4f906149d7565b80601f0160208091040260200160405190810160405280929190818152602001828054611f7b906149d7565b8015611fc85780601f10611f9d57610100808354040283529160200191611fc8565b820191906000526020600020905b815481529060010190602001808311611fab57829003601f168201915b50505050508152602001600382018054611fe1906149d7565b80601f016020809104026020016040519081016040528092919081815260200182805461200d906149d7565b801561205a5780601f1061202f5761010080835404028352916020019161205a565b820191906000526020600020905b81548152906001019060200180831161203d57829003601f168201915b50505050508152602001600482018054612073906149d7565b80601f016020809104026020016040519081016040528092919081815260200182805461209f906149d7565b80156120ec5780601f106120c1576101008083540402835291602001916120ec565b820191906000526020600020905b8154815290600101906020018083116120cf57829003601f168201915b505050505081526020016005820160009054906101000a900473ffffffffffffffffffffffffffffffffffffffff1673ffffffffffffffffffffffffffffffffffffffff1673ffffffffffffffffffffffffffffffffffffffff1681526020016005820160149054906101000a900463ffffffff1663ffffffff1663ffffffff16815250509080600b0154905087565b6001818154811061218c57600080fd5b9060005260206000200160009150905080546121a7906149d7565b80601f01602080910402602001604051908101604052809291908181526020018280546121d3906149d7565b80156122205780601f106121f557610100808354040283529160200191612220565b820191906000526020600020905b81548152906001019060200180831161220357829003601f168201915b505050505081565b600080876040516122399190614991565b908152602001604051809103902080549050036124d7576000866040516122609190614991565b9081526020016040518091039020604051806101000160405280888152602001878152602001868152602001858152602001848152602001838152602001428152602001600067ffffffffffffffff8111156122bf576122be613979565b5b6040519080825280602002602001820160405280156122f257816020015b60608152602001906001900390816122dd5790505b5081525090806001815401808255809150506001900390600052602060002090600d020160009091909190915060008201518160000190816123349190614bb4565b50602082015181600101908161234a9190614bb4565b5060408201518160020190816123609190614bb4565b5060608201518160030190816123769190614bb4565b50608082015181600401908161238c9190614bb4565b5060a08201518160050160008201518160000190816123ab9190614bb4565b5060208201518160010190816123c19190614bb4565b5060408201518160020190816123d79190614bb4565b5060608201518160030190816123ed9190614bb4565b5060808201518160040190816124039190614bb4565b5060a08201518160050160006101000a81548173ffffffffffffffffffffffffffffffffffffffff021916908373ffffffffffffffffffffffffffffffffffffffff16021790555060c08201518160050160146101000a81548163ffffffff021916908363ffffffff160217905550505060c082015181600b015560e082015181600c01908051906020019061249a9291906137cc565b5050506001869080600181540180825580915050600190039060005260206000200160009091909190915090816124d19190614bb4565b50612f46565b600080876040516124e89190614991565b90815260200160405180910390208054905090506000808860405161250d9190614991565b90815260200160405180910390206001836125289190614cb5565b8154811061253957612538614ce9565b5b90600052602060002090600d020160405180610100016040529081600082018054612563906149d7565b80601f016020809104026020016040519081016040528092919081815260200182805461258f906149d7565b80156125dc5780601f106125b1576101008083540402835291602001916125dc565b820191906000526020600020905b8154815290600101906020018083116125bf57829003601f168201915b505050505081526020016001820180546125f5906149d7565b80601f0160208091040260200160405190810160405280929190818152602001828054612621906149d7565b801561266e5780601f106126435761010080835404028352916020019161266e565b820191906000526020600020905b81548152906001019060200180831161265157829003601f168201915b50505050508152602001600282018054612687906149d7565b80601f01602080910402602001604051908101604052809291908181526020018280546126b3906149d7565b80156127005780601f106126d557610100808354040283529160200191612700565b820191906000526020600020905b8154815290600101906020018083116126e357829003601f168201915b50505050508152602001600382018054612719906149d7565b80601f0160208091040260200160405190810160405280929190818152602001828054612745906149d7565b80156127925780601f1061276757610100808354040283529160200191612792565b820191906000526020600020905b81548152906001019060200180831161277557829003601f168201915b505050505081526020016004820180546127ab906149d7565b80601f01602080910402602001604051908101604052809291908181526020018280546127d7906149d7565b80156128245780601f106127f957610100808354040283529160200191612824565b820191906000526020600020905b81548152906001019060200180831161280757829003601f168201915b50505050508152602001600582016040518060e001604052908160008201805461284d906149d7565b80601f0160208091040260200160405190810160405280929190818152602001828054612879906149d7565b80156128c65780601f1061289b576101008083540402835291602001916128c6565b820191906000526020600020905b8154815290600101906020018083116128a957829003601f168201915b505050505081526020016001820180546128df906149d7565b80601f016020809104026020016040519081016040528092919081815260200182805461290b906149d7565b80156129585780601f1061292d57610100808354040283529160200191612958565b820191906000526020600020905b81548152906001019060200180831161293b57829003601f168201915b50505050508152602001600282018054612971906149d7565b80601f016020809104026020016040519081016040528092919081815260200182805461299d906149d7565b80156129ea5780601f106129bf576101008083540402835291602001916129ea565b820191906000526020600020905b8154815290600101906020018083116129cd57829003601f168201915b50505050508152602001600382018054612a03906149d7565b80601f0160208091040260200160405190810160405280929190818152602001828054612a2f906149d7565b8015612a7c5780601f10612a5157610100808354040283529160200191612a7c565b820191906000526020600020905b815481529060010190602001808311612a5f57829003601f168201915b50505050508152602001600482018054612a95906149d7565b80601f0160208091040260200160405190810160405280929190818152602001828054612ac1906149d7565b8015612b0e5780601f10612ae357610100808354040283529160200191612b0e565b820191906000526020600020905b815481529060010190602001808311612af157829003601f168201915b505050505081526020016005820160009054906101000a900473ffffffffffffffffffffffffffffffffffffffff1673ffffffffffffffffffffffffffffffffffffffff1673ffffffffffffffffffffffffffffffffffffffff1681526020016005820160149054906101000a900463ffffffff1663ffffffff1663ffffffff16815250508152602001600b8201548152602001600c8201805480602002602001604051908101604052809291908181526020016000905b82821015612c72578382906000526020600020018054612be5906149d7565b80601f0160208091040260200160405190810160405280929190818152602001828054612c11906149d7565b8015612c5e5780601f10612c3357610100808354040283529160200191612c5e565b820191906000526020600020905b815481529060010190602001808311612c4157829003601f168201915b505050505081526020019060010190612bc6565b505050508152505090508260a0015173ffffffffffffffffffffffffffffffffffffffff168160a0015160a0015173ffffffffffffffffffffffffffffffffffffffff1614612cf6576040517f08c379a0000000000000000000000000000000000000000000000000000000008152600401612ced90614d64565b60405180910390fd5b600088604051612d069190614991565b90815260200160405180910390206040518061010001604052808a8152602001898152602001888152602001878152602001868152602001858152602001428152602001600067ffffffffffffffff811115612d6557612d64613979565b5b604051908082528060200260200182016040528015612d9857816020015b6060815260200190600190039081612d835790505b5081525090806001815401808255809150506001900390600052602060002090600d02016000909190919091506000820151816000019081612dda9190614bb4565b506020820151816001019081612df09190614bb4565b506040820151816002019081612e069190614bb4565b506060820151816003019081612e1c9190614bb4565b506080820151816004019081612e329190614bb4565b5060a0820151816005016000820151816000019081612e519190614bb4565b506020820151816001019081612e679190614bb4565b506040820151816002019081612e7d9190614bb4565b506060820151816003019081612e939190614bb4565b506080820151816004019081612ea99190614bb4565b5060a08201518160050160006101000a81548173ffffffffffffffffffffffffffffffffffffffff021916908373ffffffffffffffffffffffffffffffffffffffff16021790555060c08201518160050160146101000a81548163ffffffff021916908363ffffffff160217905550505060c082015181600b015560e082015181600c019080519060200190612f409291906137cc565b50505050505b505050505050565b6060600082604051612f609190614991565b9081526020016040518091039020805480602002602001604051908101604052809291908181526020016000905b828210156136e857838290600052602060002090600d020160405180610100016040529081600082018054612fc2906149d7565b80601f0160208091040260200160405190810160405280929190818152602001828054612fee906149d7565b801561303b5780601f106130105761010080835404028352916020019161303b565b820191906000526020600020905b81548152906001019060200180831161301e57829003601f168201915b50505050508152602001600182018054613054906149d7565b80601f0160208091040260200160405190810160405280929190818152602001828054613080906149d7565b80156130cd5780601f106130a2576101008083540402835291602001916130cd565b820191906000526020600020905b8154815290600101906020018083116130b057829003601f168201915b505050505081526020016002820180546130e6906149d7565b80601f0160208091040260200160405190810160405280929190818152602001828054613112906149d7565b801561315f5780601f106131345761010080835404028352916020019161315f565b820191906000526020600020905b81548152906001019060200180831161314257829003601f168201915b50505050508152602001600382018054613178906149d7565b80601f01602080910402602001604051908101604052809291908181526020018280546131a4906149d7565b80156131f15780601f106131c6576101008083540402835291602001916131f1565b820191906000526020600020905b8154815290600101906020018083116131d457829003601f168201915b5050505050815260200160048201805461320a906149d7565b80601f0160208091040260200160405190810160405280929190818152602001828054613236906149d7565b80156132835780601f1061325857610100808354040283529160200191613283565b820191906000526020600020905b81548152906001019060200180831161326657829003601f168201915b50505050508152602001600582016040518060e00160405290816000820180546132ac906149d7565b80601f01602080910402602001604051908101604052809291908181526020018280546132d8906149d7565b80156133255780601f106132fa57610100808354040283529160200191613325565b820191906000526020600020905b81548152906001019060200180831161330857829003601f168201915b5050505050815260200160018201805461333e906149d7565b80601f016020809104026020016040519081016040528092919081815260200182805461336a906149d7565b80156133b75780601f1061338c576101008083540402835291602001916133b7565b820191906000526020600020905b81548152906001019060200180831161339a57829003601f168201915b505050505081526020016002820180546133d0906149d7565b80601f01602080910402602001604051908101604052809291908181526020018280546133fc906149d7565b80156134495780601f1061341e57610100808354040283529160200191613449565b820191906000526020600020905b81548152906001019060200180831161342c57829003601f168201915b50505050508152602001600382018054613462906149d7565b80601f016020809104026020016040519081016040528092919081815260200182805461348e906149d7565b80156134db5780601f106134b0576101008083540402835291602001916134db565b820191906000526020600020905b8154815290600101906020018083116134be57829003601f168201915b505050505081526020016004820180546134f4906149d7565b80601f0160208091040260200160405190810160405280929190818152602001828054613520906149d7565b801561356d5780601f106135425761010080835404028352916020019161356d565b820191906000526020600020905b81548152906001019060200180831161355057829003601f168201915b505050505081526020016005820160009054906101000a900473ffffffffffffffffffffffffffffffffffffffff1673ffffffffffffffffffffffffffffffffffffffff1673ffffffffffffffffffffffffffffffffffffffff1681526020016005820160149054906101000a900463ffffffff1663ffffffff1663ffffffff16815250508152602001600b8201548152602001600c8201805480602002602001604051908101604052809291908181526020016000905b828210156136d1578382906000526020600020018054613644906149d7565b80601f0160208091040260200160405190810160405280929190818152602001828054613670906149d7565b80156136bd5780601f10613692576101008083540402835291602001916136bd565b820191906000526020600020905b8154815290600101906020018083116136a057829003601f168201915b505050505081526020019060010190613625565b505050508152505081526020019060010190612f8e565b505050509050919050565b60606001805480602002602001604051908101604052809291908181526020016000905b828210156137c3578382906000526020600020018054613736906149d7565b80601f0160208091040260200160405190810160405280929190818152602001828054613762906149d7565b80156137af5780601f10613784576101008083540402835291602001916137af565b820191906000526020600020905b81548152906001019060200180831161379257829003601f168201915b505050505081526020019060010190613717565b50505050905090565b828054828255906000526020600020908101928215613814579160200282015b828111156138135782518290816138039190614bb4565b50916020019190600101906137ec565b5b5090506138219190613870565b5090565b604051806101000160405280606081526020016060815260200160608152602001606081526020016060815260200161385c613894565b815260200160008152602001606081525090565b5b80821115613890576000818161388791906138ed565b50600101613871565b5090565b6040518060e001604052806060815260200160608152602001606081526020016060815260200160608152602001600073ffffffffffffffffffffffffffffffffffffffff168152602001600063ffffffff1681525090565b5080546138f9906149d7565b6000825580601f1061390b575061392a565b601f016020900490600052602060002090810190613929919061392d565b5b50565b5b8082111561394657600081600090555060010161392e565b5090565b6000604051905090565b600080fd5b600080fd5b600080fd5b600080fd5b6000601f19601f8301169050919050565b7f4e487b7100000000000000000000000000000000000000000000000000000000600052604160045260246000fd5b6139b182613968565b810181811067ffffffffffffffff821117156139d0576139cf613979565b5b80604052505050565b60006139e361394a565b90506139ef82826139a8565b919050565b600067ffffffffffffffff821115613a0f57613a0e613979565b5b613a1882613968565b9050602081019050919050565b82818337600083830152505050565b6000613a47613a42846139f4565b6139d9565b905082815260208101848484011115613a6357613a62613963565b5b613a6e848285613a25565b509392505050565b600082601f830112613a8b57613a8a61395e565b5b8135613a9b848260208601613a34565b91505092915050565b600080fd5b600080fd5b600073ffffffffffffffffffffffffffffffffffffffff82169050919050565b6000613ad982613aae565b9050919050565b613ae981613ace565b8114613af457600080fd5b50565b600081359050613b0681613ae0565b92915050565b600063ffffffff82169050919050565b613b2581613b0c565b8114613b3057600080fd5b50565b600081359050613b4281613b1c565b92915050565b600060e08284031215613b5e57613b5d613aa4565b5b613b6860e06139d9565b9050600082013567ffffffffffffffff811115613b8857613b87613aa9565b5b613b9484828501613a76565b600083015250602082013567ffffffffffffffff811115613bb857613bb7613aa9565b5b613bc484828501613a76565b602083015250604082013567ffffffffffffffff811115613be857613be7613aa9565b5b613bf484828501613a76565b604083015250606082013567ffffffffffffffff811115613c1857613c17613aa9565b5b613c2484828501613a76565b606083015250608082013567ffffffffffffffff811115613c4857613c47613aa9565b5b613c5484828501613a76565b60808301525060a0613c6884828501613af7565b60a08301525060c0613c7c84828501613b33565b60c08301525092915050565b600067ffffffffffffffff821115613ca357613ca2613979565b5b602082029050602081019050919050565b600080fd5b6000613ccc613cc784613c88565b6139d9565b90508083825260208201905060208402830185811115613cef57613cee613cb4565b5b835b81811015613d3657803567ffffffffffffffff811115613d1457613d1361395e565b5b808601613d218982613a76565b85526020850194505050602081019050613cf1565b5050509392505050565b600082601f830112613d5557613d5461395e565b5b8135613d65848260208601613cb9565b91505092915050565b600080600080600080600060e0888a031215613d8d57613d8c613954565b5b600088013567ffffffffffffffff811115613dab57613daa613959565b5b613db78a828b01613a76565b975050602088013567ffffffffffffffff811115613dd857613dd7613959565b5b613de48a828b01613a76565b965050604088013567ffffffffffffffff811115613e0557613e04613959565b5b613e118a828b01613a76565b955050606088013567ffffffffffffffff811115613e3257613e31613959565b5b613e3e8a828b01613a76565b945050608088013567ffffffffffffffff811115613e5f57613e5e613959565b5b613e6b8a828b01613a76565b93505060a088013567ffffffffffffffff811115613e8c57613e8b613959565b5b613e988a828b01613b48565b92505060c088013567ffffffffffffffff811115613eb957613eb8613959565b5b613ec58a828b01613d40565b91505092959891949750929550565b60008060408385031215613eeb57613eea613954565b5b600083013567ffffffffffffffff811115613f0957613f08613959565b5b613f1585828601613a76565b925050602083013567ffffffffffffffff811115613f3657613f35613959565b5b613f4285828601613d40565b9150509250929050565b60008060408385031215613f6357613f62613954565b5b600083013567ffffffffffffffff811115613f8157613f80613959565b5b613f8d85828601613a76565b925050602083013567ffffffffffffffff811115613fae57613fad613959565b5b613fba85828601613b48565b9150509250929050565b600060208284031215613fda57613fd9613954565b5b600082013567ffffffffffffffff811115613ff857613ff7613959565b5b61400484828501613a76565b91505092915050565b600081519050919050565b600082825260208201905092915050565b60005b8381101561404757808201518184015260208101905061402c565b60008484015250505050565b600061405e8261400d565b6140688185614018565b9350614078818560208601614029565b61408181613968565b840191505092915050565b61409581613ace565b82525050565b6140a481613b0c565b82525050565b600060e08301600083015184820360008601526140c78282614053565b915050602083015184820360208601526140e18282614053565b915050604083015184820360408601526140fb8282614053565b915050606083015184820360608601526141158282614053565b9150506080830151848203608086015261412f8282614053565b91505060a083015161414460a086018261408c565b5060c083015161415760c086018261409b565b508091505092915050565b6000819050919050565b61417581614162565b82525050565b600081519050919050565b600082825260208201905092915050565b6000819050602082019050919050565b60006141b38383614053565b905092915050565b6000602082019050919050565b60006141d38261417b565b6141dd8185614186565b9350836020820285016141ef85614197565b8060005b8581101561422b578484038952815161420c85826141a7565b9450614217836141bb565b925060208a019950506001810190506141f3565b50829750879550505050505092915050565b600061010083016000830151848203600086015261425b8282614053565b915050602083015184820360208601526142758282614053565b9150506040830151848203604086015261428f8282614053565b915050606083015184820360608601526142a98282614053565b915050608083015184820360808601526142c38282614053565b91505060a083015184820360a08601526142dd82826140aa565b91505060c08301516142f260c086018261416c565b5060e083015184820360e086015261430a82826141c8565b9150508091505092915050565b60006020820190508181036000830152614331818461423d565b905092915050565b61434281614162565b811461434d57600080fd5b50565b60008135905061435f81614339565b92915050565b6000806040838503121561437c5761437b613954565b5b600083013567ffffffffffffffff81111561439a57614399613959565b5b6143a685828601613a76565b92505060206143b785828601614350565b9150509250929050565b600082825260208201905092915050565b60006143dd8261400d565b6143e781856143c1565b93506143f7818560208601614029565b61440081613968565b840191505092915050565b600060e08301600083015184820360008601526144288282614053565b915050602083015184820360208601526144428282614053565b9150506040830151848203604086015261445c8282614053565b915050606083015184820360608601526144768282614053565b915050608083015184820360808601526144908282614053565b91505060a08301516144a560a086018261408c565b5060c08301516144b860c086018261409b565b508091505092915050565b6144cc81614162565b82525050565b600060e08201905081810360008301526144ec818a6143d2565b9050818103602083015261450081896143d2565b9050818103604083015261451481886143d2565b9050818103606083015261452881876143d2565b9050818103608083015261453c81866143d2565b905081810360a0830152614550818561440b565b905061455f60c08301846144c3565b98975050505050505050565b60006020828403121561458157614580613954565b5b600061458f84828501614350565b91505092915050565b600060208201905081810360008301526145b281846143d2565b905092915050565b60008060008060008060c087890312156145d7576145d6613954565b5b600087013567ffffffffffffffff8111156145f5576145f4613959565b5b61460189828a01613a76565b965050602087013567ffffffffffffffff81111561462257614621613959565b5b61462e89828a01613a76565b955050604087013567ffffffffffffffff81111561464f5761464e613959565b5b61465b89828a01613a76565b945050606087013567ffffffffffffffff81111561467c5761467b613959565b5b61468889828a01613a76565b935050608087013567ffffffffffffffff8111156146a9576146a8613959565b5b6146b589828a01613a76565b92505060a087013567ffffffffffffffff8111156146d6576146d5613959565b5b6146e289828a01613b48565b9150509295509295509295565b600081519050919050565b600082825260208201905092915050565b6000819050602082019050919050565b60006101008301600083015184820360008601526147398282614053565b915050602083015184820360208601526147538282614053565b9150506040830151848203604086015261476d8282614053565b915050606083015184820360608601526147878282614053565b915050608083015184820360808601526147a18282614053565b91505060a083015184820360a08601526147bb82826140aa565b91505060c08301516147d060c086018261416c565b5060e083015184820360e08601526147e882826141c8565b9150508091505092915050565b6000614801838361471b565b905092915050565b6000602082019050919050565b6000614821826146ef565b61482b81856146fa565b93508360208202850161483d8561470b565b8060005b85811015614879578484038952815161485a85826147f5565b945061486583614809565b925060208a01995050600181019050614841565b50829750879550505050505092915050565b600060208201905081810360008301526148a58184614816565b905092915050565b600082825260208201905092915050565b60006148c98261417b565b6148d381856148ad565b9350836020820285016148e585614197565b8060005b85811015614921578484038952815161490285826141a7565b945061490d836141bb565b925060208a019950506001810190506148e9565b50829750879550505050505092915050565b6000602082019050818103600083015261494d81846148be565b905092915050565b600081905092915050565b600061496b8261400d565b6149758185614955565b9350614985818560208601614029565b80840191505092915050565b600061499d8284614960565b915081905092915050565b7f4e487b7100000000000000000000000000000000000000000000000000000000600052602260045260246000fd5b600060028204905060018216806149ef57607f821691505b602082108103614a0257614a016149a8565b5b50919050565b60008190508160005260206000209050919050565b60006020601f8301049050919050565b600082821b905092915050565b600060088302614a6a7fffffffffffffffffffffffffffffffffffffffffffffffffffffffffffffffff82614a2d565b614a748683614a2d565b95508019841693508086168417925050509392505050565b6000819050919050565b6000614ab1614aac614aa784614162565b614a8c565b614162565b9050919050565b6000819050919050565b614acb83614a96565b614adf614ad782614ab8565b848454614a3a565b825550505050565b600090565b614af4614ae7565b614aff818484614ac2565b505050565b5b81811015614b2357614b18600082614aec565b600181019050614b05565b5050565b601f821115614b6857614b3981614a08565b614b4284614a1d565b81016020851015614b51578190505b614b65614b5d85614a1d565b830182614b04565b50505b505050565b600082821c905092915050565b6000614b8b60001984600802614b6d565b1980831691505092915050565b6000614ba48383614b7a565b9150826002028217905092915050565b614bbd8261400d565b67ffffffffffffffff811115614bd657614bd5613979565b5b614be082546149d7565b614beb828285614b27565b600060209050601f831160018114614c1e5760008415614c0c578287015190505b614c168582614b98565b865550614c7e565b601f198416614c2c86614a08565b60005b82811015614c5457848901518255600182019150602085019450602081019050614c2f565b86831015614c715784890151614c6d601f891682614b7a565b8355505b6001600288020188555050505b505050505050565b7f4e487b7100000000000000000000000000000000000000000000000000000000600052601160045260246000fd5b6000614cc082614162565b9150614ccb83614162565b9250828203905081811115614ce357614ce2614c86565b5b92915050565b7f4e487b7100000000000000000000000000000000000000000000000000000000600052603260045260246000fd5b7f4e6f74204f776e65720000000000000000000000000000000000000000000000600082015250565b6000614d4e6009836143c1565b9150614d5982614d18565b602082019050919050565b60006020820190508181036000830152614d7d81614d41565b9050919050565b7f45766964656e6365206e6f7420666f756e640000000000000000000000000000600082015250565b6000614dba6012836143c1565b9150614dc582614d84565b602082019050919050565b60006020820190508181036000830152614de981614dad565b905091905056fea2646970667358221220bde7df021f31e2ed0f0b784733a1e310a0044f3633b4f8527ba16bffd13f6a0364736f6c63430008130033",
  "immutableReferences": {},
  "source": "pragma solidity ^0.8.0;\r\nimport \"./EntitiesManager.sol\";\r\n\r\ncontract EvidencesManager {\r\n\r\n    struct Evidence {\r\n        string uniqueCode;\r\n        string caseNo;\r\n        string classification;\r\n        string name;\r\n        string eType;\r\n        EntitiesManager.Entity owner;\r\n        uint256 timestamp;\r\n        string [] uFiles;\r\n    }\r\n\r\n    mapping(string => Evidence[]) public evidencesHistory;\r\n    string[] public allEvidences;\r\n\r\n    function addEvidence(string memory _evidenceUniqueCode, string memory _caseNo, string memory _classification, string memory _evidenceName, string memory _evidenceType, EntitiesManager.Entity memory _entity) public {\r\n        if (evidencesHistory[_evidenceUniqueCode].length == 0) \r\n        {\r\n            evidencesHistory[_evidenceUniqueCode].push(Evidence(_evidenceUniqueCode, _caseNo, _classification,_evidenceName, _evidenceType, _entity, block.timestamp, new string[](0)));\r\n            allEvidences.push(_evidenceUniqueCode);\r\n        }\r\n        else{\r\n            uint totalVersions = evidencesHistory[_evidenceUniqueCode].length;\r\n            Evidence memory lastEvidence = evidencesHistory[_evidenceUniqueCode][totalVersions - 1];\r\n            require(lastEvidence.owner.entityAddress == _entity.entityAddress, \"Not Owner\");\r\n            evidencesHistory[_evidenceUniqueCode].push(Evidence(_evidenceUniqueCode, _caseNo, _classification,_evidenceName, _evidenceType, _entity, block.timestamp, new string[](0)));\r\n        }\r\n    }\r\n\r\n    function addEvidence(string memory _evidenceUniqueCode, string memory _caseNo, string memory _classification, string memory _evidenceName, string memory _evidenceType, EntitiesManager.Entity memory _entity, string[] memory _files) public {\r\n        if (evidencesHistory[_evidenceUniqueCode].length == 0) \r\n        {\r\n            evidencesHistory[_evidenceUniqueCode].push(Evidence(_evidenceUniqueCode, _caseNo, _classification,_evidenceName, _evidenceType, _entity, block.timestamp, _files));\r\n            allEvidences.push(_evidenceUniqueCode);\r\n        }\r\n        else{\r\n            uint totalVersions = evidencesHistory[_evidenceUniqueCode].length;\r\n            Evidence memory lastEvidence = evidencesHistory[_evidenceUniqueCode][totalVersions - 1];\r\n            require(lastEvidence.owner.entityAddress == _entity.entityAddress, \"Not Owner\");\r\n            evidencesHistory[_evidenceUniqueCode].push(Evidence(_evidenceUniqueCode, _caseNo, _classification,_evidenceName, _evidenceType, _entity, block.timestamp, _files));\r\n        }\r\n    }\r\n\r\n    function addFiles(string memory _evidenceUniqueCode, string[] memory _files) public {\r\n        Evidence memory evidence = getLastUpdate(_evidenceUniqueCode);\r\n        evidencesHistory[_evidenceUniqueCode].push(Evidence(_evidenceUniqueCode, evidence.caseNo, evidence.classification, evidence.name, evidence.eType, evidence.owner, block.timestamp, _files));\r\n    }\r\n\r\n\r\n    function updateOwner(string memory _evidenceUniqueCode, EntitiesManager.Entity memory _entity)public \r\n    {\r\n        Evidence memory evidence = getLastUpdate(_evidenceUniqueCode);\r\n        evidencesHistory[_evidenceUniqueCode].push(Evidence(_evidenceUniqueCode, evidence.caseNo, evidence.classification, evidence.name, evidence.eType, _entity, block.timestamp, new string[](0)));\r\n    }\r\n\r\n    function getEvidences() public view returns (string[] memory) {\r\n        return allEvidences;\r\n    }\r\n\r\n    function getEvidenceHistory(string memory _evidenceUniqueCode) public view returns (Evidence[] memory) {\r\n        return evidencesHistory[_evidenceUniqueCode];\r\n    }\r\n\r\n    function getLastUpdate (string memory _evidenceUniqueCode) public view returns (Evidence memory) {\r\n        uint totalVersions = evidencesHistory[_evidenceUniqueCode].length;\r\n        require(totalVersions > 0, \"Evidence not found\");\r\n\r\n        return evidencesHistory[_evidenceUniqueCode][totalVersions - 1];\r\n    }\r\n}",
  "sourcePath": "C:\\IPCA DISSERTAO\\evidences_dapp\\contracts\\EvidencesManager.sol",
  "compiler": {
    "name": "solc",
    "version": "0.8.19+commit.7dd6d404.Emscripten.clang"
  },
  "schemaVersion": "3.4.13",
  "updatedAt": "2023-08-27T13:27:32.565Z",
  "networkType": "ethereum",
  "devdoc": {
    "kind": "dev",
    "methods": {},
    "version": 1
  },
  "userdoc": {
    "kind": "user",
    "methods": {},
    "version": 1
  }
}