{
  "contractName": "EvidenceChain",
  "abi": [
    {
      "inputs": [
        {
          "internalType": "address",
          "name": "_entitiesManagerAddress",
          "type": "address"
        },
        {
          "internalType": "address",
          "name": "_evidencesManagerAddress",
          "type": "address"
        }
      ],
      "stateMutability": "nonpayable",
      "type": "constructor"
    },
    {
      "anonymous": false,
      "inputs": [
        {
          "indexed": true,
          "internalType": "uint32",
          "name": "evidenceId",
          "type": "uint32"
        }
      ],
      "name": "EvidenceAdded",
      "type": "event"
    },
    {
      "anonymous": false,
      "inputs": [
        {
          "indexed": true,
          "internalType": "uint32",
          "name": "userId",
          "type": "uint32"
        }
      ],
      "name": "ParticipantAdded",
      "type": "event"
    },
    {
      "anonymous": false,
      "inputs": [
        {
          "indexed": false,
          "internalType": "uint32",
          "name": "evidenceId",
          "type": "uint32"
        }
      ],
      "name": "TransferOwnership",
      "type": "event"
    },
    {
      "inputs": [],
      "name": "entitiesManager",
      "outputs": [
        {
          "internalType": "contract EntitiesManager",
          "name": "",
          "type": "address"
        }
      ],
      "stateMutability": "view",
      "type": "function",
      "constant": true
    },
    {
      "inputs": [
        {
          "internalType": "uint32",
          "name": "",
          "type": "uint32"
        },
        {
          "internalType": "uint256",
          "name": "",
          "type": "uint256"
        }
      ],
      "name": "evidenceTrack",
      "outputs": [
        {
          "internalType": "uint32",
          "name": "",
          "type": "uint32"
        }
      ],
      "stateMutability": "view",
      "type": "function",
      "constant": true
    },
    {
      "inputs": [],
      "name": "evidencesManager",
      "outputs": [
        {
          "internalType": "contract EvidencesManager",
          "name": "",
          "type": "address"
        }
      ],
      "stateMutability": "view",
      "type": "function",
      "constant": true
    },
    {
      "inputs": [],
      "name": "owner_id",
      "outputs": [
        {
          "internalType": "uint32",
          "name": "",
          "type": "uint32"
        }
      ],
      "stateMutability": "view",
      "type": "function",
      "constant": true
    },
    {
      "inputs": [
        {
          "internalType": "uint32",
          "name": "",
          "type": "uint32"
        }
      ],
      "name": "ownerships",
      "outputs": [
        {
          "internalType": "uint32",
          "name": "evidenceId",
          "type": "uint32"
        },
        {
          "internalType": "uint32",
          "name": "ownerId",
          "type": "uint32"
        },
        {
          "internalType": "uint32",
          "name": "trxTimeStamp",
          "type": "uint32"
        },
        {
          "internalType": "address",
          "name": "evidenceOwner",
          "type": "address"
        }
      ],
      "stateMutability": "view",
      "type": "function",
      "constant": true
    },
    {
      "inputs": [
        {
          "internalType": "address",
          "name": "_entity",
          "type": "address"
        },
        {
          "internalType": "string",
          "name": "_userName",
          "type": "string"
        },
        {
          "internalType": "string",
          "name": "_password",
          "type": "string"
        },
        {
          "internalType": "string",
          "name": "_name",
          "type": "string"
        },
        {
          "internalType": "string",
          "name": "_departmentCode",
          "type": "string"
        },
        {
          "internalType": "string",
          "name": "_entityType",
          "type": "string"
        }
      ],
      "name": "addEntity",
      "outputs": [],
      "stateMutability": "nonpayable",
      "type": "function"
    },
    {
      "inputs": [],
      "name": "getEntities",
      "outputs": [
        {
          "components": [
            {
              "internalType": "string",
              "name": "userName",
              "type": "string"
            },
            {
              "internalType": "string",
              "name": "password",
              "type": "string"
            },
            {
              "internalType": "string",
              "name": "name",
              "type": "string"
            },
            {
              "internalType": "string",
              "name": "departmentCode",
              "type": "string"
            },
            {
              "internalType": "string",
              "name": "entityType",
              "type": "string"
            },
            {
              "internalType": "address",
              "name": "entityAddress",
              "type": "address"
            },
            {
              "internalType": "uint32",
              "name": "timestamp",
              "type": "uint32"
            }
          ],
          "internalType": "struct EntitiesManager.Entity[]",
          "name": "",
          "type": "tuple[]"
        }
      ],
      "stateMutability": "view",
      "type": "function",
      "constant": true
    },
    {
      "inputs": [
        {
          "internalType": "address",
          "name": "_entity",
          "type": "address"
        }
      ],
      "name": "getEntityHistory",
      "outputs": [
        {
          "components": [
            {
              "internalType": "string",
              "name": "userName",
              "type": "string"
            },
            {
              "internalType": "string",
              "name": "password",
              "type": "string"
            },
            {
              "internalType": "string",
              "name": "name",
              "type": "string"
            },
            {
              "internalType": "string",
              "name": "departmentCode",
              "type": "string"
            },
            {
              "internalType": "string",
              "name": "entityType",
              "type": "string"
            },
            {
              "internalType": "address",
              "name": "entityAddress",
              "type": "address"
            },
            {
              "internalType": "uint32",
              "name": "timestamp",
              "type": "uint32"
            }
          ],
          "internalType": "struct EntitiesManager.Entity[]",
          "name": "",
          "type": "tuple[]"
        }
      ],
      "stateMutability": "view",
      "type": "function",
      "constant": true
    },
    {
      "inputs": [],
      "name": "getEntityHistory",
      "outputs": [
        {
          "components": [
            {
              "internalType": "string",
              "name": "userName",
              "type": "string"
            },
            {
              "internalType": "string",
              "name": "password",
              "type": "string"
            },
            {
              "internalType": "string",
              "name": "name",
              "type": "string"
            },
            {
              "internalType": "string",
              "name": "departmentCode",
              "type": "string"
            },
            {
              "internalType": "string",
              "name": "entityType",
              "type": "string"
            },
            {
              "internalType": "address",
              "name": "entityAddress",
              "type": "address"
            },
            {
              "internalType": "uint32",
              "name": "timestamp",
              "type": "uint32"
            }
          ],
          "internalType": "struct EntitiesManager.Entity[]",
          "name": "",
          "type": "tuple[]"
        }
      ],
      "stateMutability": "view",
      "type": "function",
      "constant": true
    },
    {
      "inputs": [
        {
          "internalType": "address",
          "name": "_entity",
          "type": "address"
        }
      ],
      "name": "getEntity",
      "outputs": [
        {
          "components": [
            {
              "internalType": "string",
              "name": "userName",
              "type": "string"
            },
            {
              "internalType": "string",
              "name": "password",
              "type": "string"
            },
            {
              "internalType": "string",
              "name": "name",
              "type": "string"
            },
            {
              "internalType": "string",
              "name": "departmentCode",
              "type": "string"
            },
            {
              "internalType": "string",
              "name": "entityType",
              "type": "string"
            },
            {
              "internalType": "address",
              "name": "entityAddress",
              "type": "address"
            },
            {
              "internalType": "uint32",
              "name": "timestamp",
              "type": "uint32"
            }
          ],
          "internalType": "struct EntitiesManager.Entity",
          "name": "",
          "type": "tuple"
        }
      ],
      "stateMutability": "view",
      "type": "function",
      "constant": true
    },
    {
      "inputs": [],
      "name": "getEntity",
      "outputs": [
        {
          "components": [
            {
              "internalType": "string",
              "name": "userName",
              "type": "string"
            },
            {
              "internalType": "string",
              "name": "password",
              "type": "string"
            },
            {
              "internalType": "string",
              "name": "name",
              "type": "string"
            },
            {
              "internalType": "string",
              "name": "departmentCode",
              "type": "string"
            },
            {
              "internalType": "string",
              "name": "entityType",
              "type": "string"
            },
            {
              "internalType": "address",
              "name": "entityAddress",
              "type": "address"
            },
            {
              "internalType": "uint32",
              "name": "timestamp",
              "type": "uint32"
            }
          ],
          "internalType": "struct EntitiesManager.Entity",
          "name": "",
          "type": "tuple"
        }
      ],
      "stateMutability": "view",
      "type": "function",
      "constant": true
    },
    {
      "inputs": [
        {
          "internalType": "string",
          "name": "_uname",
          "type": "string"
        },
        {
          "internalType": "string",
          "name": "_pass",
          "type": "string"
        }
      ],
      "name": "authenticateEntity",
      "outputs": [
        {
          "internalType": "bool",
          "name": "",
          "type": "bool"
        }
      ],
      "stateMutability": "view",
      "type": "function",
      "constant": true
    },
    {
      "inputs": [
        {
          "internalType": "string",
          "name": "_evidenceUniqueCode",
          "type": "string"
        },
        {
          "internalType": "string",
          "name": "_caseNo",
          "type": "string"
        },
        {
          "internalType": "string",
          "name": "_classification",
          "type": "string"
        },
        {
          "internalType": "string",
          "name": "_evidenceName",
          "type": "string"
        },
        {
          "internalType": "string",
          "name": "_evidenceType",
          "type": "string"
        }
      ],
      "name": "addEvidence",
      "outputs": [],
      "stateMutability": "nonpayable",
      "type": "function"
    },
    {
      "inputs": [],
      "name": "getEvidences",
      "outputs": [
        {
          "components": [
            {
              "internalType": "string",
              "name": "uniqueCode",
              "type": "string"
            },
            {
              "internalType": "string",
              "name": "caseNo",
              "type": "string"
            },
            {
              "internalType": "string",
              "name": "classification",
              "type": "string"
            },
            {
              "internalType": "string",
              "name": "name",
              "type": "string"
            },
            {
              "internalType": "string",
              "name": "eType",
              "type": "string"
            },
            {
              "components": [
                {
                  "internalType": "string",
                  "name": "userName",
                  "type": "string"
                },
                {
                  "internalType": "string",
                  "name": "password",
                  "type": "string"
                },
                {
                  "internalType": "string",
                  "name": "name",
                  "type": "string"
                },
                {
                  "internalType": "string",
                  "name": "departmentCode",
                  "type": "string"
                },
                {
                  "internalType": "string",
                  "name": "entityType",
                  "type": "string"
                },
                {
                  "internalType": "address",
                  "name": "entityAddress",
                  "type": "address"
                },
                {
                  "internalType": "uint32",
                  "name": "timestamp",
                  "type": "uint32"
                }
              ],
              "internalType": "struct EntitiesManager.Entity",
              "name": "owner",
              "type": "tuple"
            },
            {
              "internalType": "uint256",
              "name": "timestamp",
              "type": "uint256"
            },
            {
              "internalType": "string[]",
              "name": "uFilesCodes",
              "type": "string[]"
            }
          ],
          "internalType": "struct EvidencesManager.Evidence[]",
          "name": "",
          "type": "tuple[]"
        }
      ],
      "stateMutability": "view",
      "type": "function",
      "constant": true
    },
    {
      "inputs": [
        {
          "internalType": "string",
          "name": "_evidenceUniqueCode",
          "type": "string"
        }
      ],
      "name": "getEvidenceHistory",
      "outputs": [
        {
          "components": [
            {
              "internalType": "string",
              "name": "uniqueCode",
              "type": "string"
            },
            {
              "internalType": "string",
              "name": "caseNo",
              "type": "string"
            },
            {
              "internalType": "string",
              "name": "classification",
              "type": "string"
            },
            {
              "internalType": "string",
              "name": "name",
              "type": "string"
            },
            {
              "internalType": "string",
              "name": "eType",
              "type": "string"
            },
            {
              "components": [
                {
                  "internalType": "string",
                  "name": "userName",
                  "type": "string"
                },
                {
                  "internalType": "string",
                  "name": "password",
                  "type": "string"
                },
                {
                  "internalType": "string",
                  "name": "name",
                  "type": "string"
                },
                {
                  "internalType": "string",
                  "name": "departmentCode",
                  "type": "string"
                },
                {
                  "internalType": "string",
                  "name": "entityType",
                  "type": "string"
                },
                {
                  "internalType": "address",
                  "name": "entityAddress",
                  "type": "address"
                },
                {
                  "internalType": "uint32",
                  "name": "timestamp",
                  "type": "uint32"
                }
              ],
              "internalType": "struct EntitiesManager.Entity",
              "name": "owner",
              "type": "tuple"
            },
            {
              "internalType": "uint256",
              "name": "timestamp",
              "type": "uint256"
            },
            {
              "internalType": "string[]",
              "name": "uFilesCodes",
              "type": "string[]"
            }
          ],
          "internalType": "struct EvidencesManager.Evidence[]",
          "name": "",
          "type": "tuple[]"
        }
      ],
      "stateMutability": "view",
      "type": "function",
      "constant": true
    },
    {
      "inputs": [
        {
          "internalType": "string",
          "name": "_evidenceUniqueCode",
          "type": "string"
        }
      ],
      "name": "getEvidence",
      "outputs": [
        {
          "components": [
            {
              "internalType": "string",
              "name": "uniqueCode",
              "type": "string"
            },
            {
              "internalType": "string",
              "name": "caseNo",
              "type": "string"
            },
            {
              "internalType": "string",
              "name": "classification",
              "type": "string"
            },
            {
              "internalType": "string",
              "name": "name",
              "type": "string"
            },
            {
              "internalType": "string",
              "name": "eType",
              "type": "string"
            },
            {
              "components": [
                {
                  "internalType": "string",
                  "name": "userName",
                  "type": "string"
                },
                {
                  "internalType": "string",
                  "name": "password",
                  "type": "string"
                },
                {
                  "internalType": "string",
                  "name": "name",
                  "type": "string"
                },
                {
                  "internalType": "string",
                  "name": "departmentCode",
                  "type": "string"
                },
                {
                  "internalType": "string",
                  "name": "entityType",
                  "type": "string"
                },
                {
                  "internalType": "address",
                  "name": "entityAddress",
                  "type": "address"
                },
                {
                  "internalType": "uint32",
                  "name": "timestamp",
                  "type": "uint32"
                }
              ],
              "internalType": "struct EntitiesManager.Entity",
              "name": "owner",
              "type": "tuple"
            },
            {
              "internalType": "uint256",
              "name": "timestamp",
              "type": "uint256"
            },
            {
              "internalType": "string[]",
              "name": "uFilesCodes",
              "type": "string[]"
            }
          ],
          "internalType": "struct EvidencesManager.Evidence",
          "name": "",
          "type": "tuple"
        }
      ],
      "stateMutability": "view",
      "type": "function",
      "constant": true
    },
    {
      "inputs": [
        {
          "internalType": "string",
          "name": "_evidenceUniqueCode",
          "type": "string"
        },
        {
          "internalType": "address",
          "name": "_newOwner",
          "type": "address"
        }
      ],
      "name": "evidenceNewOwner",
      "outputs": [],
      "stateMutability": "nonpayable",
      "type": "function"
    },
    {
      "inputs": [
        {
          "internalType": "string",
          "name": "_evidenceUniqueCode",
          "type": "string"
        },
        {
          "internalType": "string",
          "name": "_fileId",
          "type": "string"
        },
        {
          "internalType": "string",
          "name": "_fileName",
          "type": "string"
        },
        {
          "internalType": "string",
          "name": "_fileHash",
          "type": "string"
        }
      ],
      "name": "addFile",
      "outputs": [],
      "stateMutability": "nonpayable",
      "type": "function"
    },
    {
      "inputs": [
        {
          "internalType": "string",
          "name": "_evidenceUniqueCode",
          "type": "string"
        },
        {
          "internalType": "string",
          "name": "_fileUniqueCode",
          "type": "string"
        }
      ],
      "name": "getFileInfo",
      "outputs": [
        {
          "components": [
            {
              "internalType": "string",
              "name": "id",
              "type": "string"
            },
            {
              "internalType": "string",
              "name": "fileName",
              "type": "string"
            },
            {
              "internalType": "string",
              "name": "fileHash",
              "type": "string"
            }
          ],
          "internalType": "struct EvidencesManager.EvidenceFile",
          "name": "",
          "type": "tuple"
        }
      ],
      "stateMutability": "view",
      "type": "function",
      "constant": true
    }
  ],
  "bytecode": "0x60806040526000600160146101000a81548163ffffffff021916908363ffffffff1602179055503480156200003357600080fd5b50604051620036cb380380620036cb83398181016040528101906200005991906200014c565b816000806101000a81548173ffffffffffffffffffffffffffffffffffffffff021916908373ffffffffffffffffffffffffffffffffffffffff16021790555080600160006101000a81548173ffffffffffffffffffffffffffffffffffffffff021916908373ffffffffffffffffffffffffffffffffffffffff160217905550505062000193565b600080fd5b600073ffffffffffffffffffffffffffffffffffffffff82169050919050565b60006200011482620000e7565b9050919050565b620001268162000107565b81146200013257600080fd5b50565b60008151905062000146816200011b565b92915050565b60008060408385031215620001665762000165620000e2565b5b6000620001768582860162000135565b9250506020620001898582860162000135565b9150509250929050565b61352880620001a36000396000f3fe608060405234801561001057600080fd5b50600436106101215760003560e01c80638b57d984116100ad578063c6a22c4111610071578063c6a22c4114610345578063c892522e14610361578063dff95aac14610391578063e3271cf9146103af578063ff200d2b146103cd57610121565b80638b57d9841461029f5780638cb58fc1146102bd5780638f5ebf71146102db5780639dce4667146102f9578063b16c6ee71461031557610121565b806331eb897f116100f457806331eb897f146101c05780635760620b146101f05780635f067db01461022057806375894e8c1461023c57806381e156101461026c57610121565b80631252a0831461012657806328320e1c146101425780632c5ec5c81461017257806331b933b9146101a2575b600080fd5b610140600480360381019061013b91906118d9565b6103eb565b005b61015c600480360381019061015791906119f2565b610488565b6040516101699190611c46565b60405180910390f35b61018c60048036038101906101879190611c68565b610530565b6040516101999190611d3e565b60405180910390f35b6101aa6105e3565b6040516101b79190611c46565b60405180910390f35b6101da60048036038101906101d59190611c68565b61082c565b6040516101e79190611d7b565b60405180910390f35b61020a60048036038101906102059190611df8565b610995565b6040516102179190611e47565b60405180910390f35b61023a60048036038101906102359190611e62565b6109de565b005b610256600480360381019061025191906119f2565b610bb1565b6040516102639190611ff1565b60405180910390f35b61028660048036038101906102819190612013565b610c5f565b604051610296949392919061204f565b60405180910390f35b6102a7610cdf565b6040516102b49190611c46565b60405180910390f35b6102c5610d85565b6040516102d291906120f3565b60405180910390f35b6102e3610dab565b6040516102f09190611e47565b60405180910390f35b610313600480360381019061030e919061210e565b610dc1565b005b61032f600480360381019061032a9190612215565b610f90565b60405161033c9190612409565b60405180910390f35b61035f600480360381019061035a919061242b565b611040565b005b61037b60048036038101906103769190612215565b611296565b6040516103889190612623565b60405180910390f35b610399611340565b6040516103a69190612623565b60405180910390f35b6103b761158c565b6040516103c49190612666565b60405180910390f35b6103d56115b0565b6040516103e29190611ff1565b60405180910390f35b60008054906101000a900473ffffffffffffffffffffffffffffffffffffffff1673ffffffffffffffffffffffffffffffffffffffff16631252a0838787878787876040518763ffffffff1660e01b815260040161044e969594939291906126cb565b600060405180830381600087803b15801561046857600080fd5b505af115801561047c573d6000803e3d6000fd5b50505050505050505050565b606060008054906101000a900473ffffffffffffffffffffffffffffffffffffffff1673ffffffffffffffffffffffffffffffffffffffff166328320e1c836040518263ffffffff1660e01b81526004016104e3919061274f565b600060405180830381865afa158015610500573d6000803e3d6000fd5b505050506040513d6000823e3d601f19601f820116820180604052508101906105299190612a34565b9050919050565b61053861165c565b600160009054906101000a900473ffffffffffffffffffffffffffffffffffffffff1673ffffffffffffffffffffffffffffffffffffffff16632c5ec5c884846040518363ffffffff1660e01b8152600401610595929190612a7d565b600060405180830381865afa1580156105b2573d6000803e3d6000fd5b505050506040513d6000823e3d601f19601f820116820180604052508101906105db9190612b6c565b905092915050565b606060008060009054906101000a900473ffffffffffffffffffffffffffffffffffffffff1673ffffffffffffffffffffffffffffffffffffffff166331b933b96040518163ffffffff1660e01b8152600401600060405180830381865afa158015610653573d6000803e3d6000fd5b505050506040513d6000823e3d601f19601f8201168201806040525081019061067c9190612c78565b905060008151116106c2576040517f08c379a00000000000000000000000000000000000000000000000000000000081526004016106b990612d0d565b60405180910390fd5b6000815167ffffffffffffffff8111156106df576106de6117ae565b5b60405190808252806020026020018201604052801561071857816020015b61070561167d565b8152602001906001900390816106fd5790505b50905060005b82518163ffffffff1610156108235760008054906101000a900473ffffffffffffffffffffffffffffffffffffffff1673ffffffffffffffffffffffffffffffffffffffff16635a7e1989848363ffffffff168151811061078257610781612d2d565b5b60200260200101516040518263ffffffff1660e01b81526004016107a6919061274f565b600060405180830381865afa1580156107c3573d6000803e3d6000fd5b505050506040513d6000823e3d601f19601f820116820180604052508101906107ec9190612d5c565b828263ffffffff168151811061080557610804612d2d565b5b6020026020010181905250808061081b90612dd4565b91505061071e565b50809250505090565b60008060008054906101000a900473ffffffffffffffffffffffffffffffffffffffff1673ffffffffffffffffffffffffffffffffffffffff16635a7e1989336040518263ffffffff1660e01b8152600401610888919061274f565b600060405180830381865afa1580156108a5573d6000803e3d6000fd5b505050506040513d6000823e3d601f19601f820116820180604052508101906108ce9190612d5c565b9050836040516020016108e19190612e3c565b60405160208183030381529060405280519060200120816000015160405160200161090c9190612e3c565b604051602081830303815290604052805190602001200361098957826040516020016109389190612e3c565b6040516020818303038152906040528051906020012081602001516040516020016109639190612e3c565b604051602081830303815290604052805190602001200361098857600191505061098f565b5b60009150505b92915050565b600360205281600052604060002081815481106109b157600080fd5b9060005260206000209060089182820401919006600402915091509054906101000a900463ffffffff1681565b836000600160009054906101000a900473ffffffffffffffffffffffffffffffffffffffff1673ffffffffffffffffffffffffffffffffffffffff16633eeb568b836040518263ffffffff1660e01b8152600401610a3c9190612e53565b600060405180830381865afa158015610a59573d6000803e3d6000fd5b505050506040513d6000823e3d601f19601f82011682018060405250810190610a8291906130f9565b90508060a0015160a0015173ffffffffffffffffffffffffffffffffffffffff163373ffffffffffffffffffffffffffffffffffffffff1614610afa576040517f08c379a0000000000000000000000000000000000000000000000000000000008152600401610af19061318e565b60405180910390fd5b60006040518060600160405280878152602001868152602001858152509050600160009054906101000a900473ffffffffffffffffffffffffffffffffffffffff1673ffffffffffffffffffffffffffffffffffffffff1663e634926e88836040518363ffffffff1660e01b8152600401610b769291906131ae565b600060405180830381600087803b158015610b9057600080fd5b505af1158015610ba4573d6000803e3d6000fd5b5050505050505050505050565b610bb961167d565b60008054906101000a900473ffffffffffffffffffffffffffffffffffffffff1673ffffffffffffffffffffffffffffffffffffffff16635a7e1989836040518263ffffffff1660e01b8152600401610c12919061274f565b600060405180830381865afa158015610c2f573d6000803e3d6000fd5b505050506040513d6000823e3d601f19601f82011682018060405250810190610c589190612d5c565b9050919050565b60026020528060005260406000206000915090508060000160009054906101000a900463ffffffff16908060000160049054906101000a900463ffffffff16908060000160089054906101000a900463ffffffff169080600001600c9054906101000a900473ffffffffffffffffffffffffffffffffffffffff16905084565b606060008054906101000a900473ffffffffffffffffffffffffffffffffffffffff1673ffffffffffffffffffffffffffffffffffffffff166328320e1c336040518263ffffffff1660e01b8152600401610d3a919061274f565b600060405180830381865afa158015610d57573d6000803e3d6000fd5b505050506040513d6000823e3d601f19601f82011682018060405250810190610d809190612a34565b905090565b600160009054906101000a900473ffffffffffffffffffffffffffffffffffffffff1681565b600160149054906101000a900463ffffffff1681565b60008060009054906101000a900473ffffffffffffffffffffffffffffffffffffffff1673ffffffffffffffffffffffffffffffffffffffff16635a7e1989336040518263ffffffff1660e01b8152600401610e1d919061274f565b600060405180830381865afa158015610e3a573d6000803e3d6000fd5b505050506040513d6000823e3d601f19601f82011682018060405250810190610e639190612d5c565b90507fe419ba2484d9efb5ea120ea8d8b86dc666551db29ed65e4d8c975262e7a9c3658160800151604051602001610e9b9190612e3c565b6040516020818303038152906040528051906020012014610ef1576040517f08c379a0000000000000000000000000000000000000000000000000000000008152600401610ee890613231565b60405180910390fd5b600160009054906101000a900473ffffffffffffffffffffffffffffffffffffffff1673ffffffffffffffffffffffffffffffffffffffff1663acf51e058787878787876040518763ffffffff1660e01b8152600401610f5696959493929190613251565b600060405180830381600087803b158015610f7057600080fd5b505af1158015610f84573d6000803e3d6000fd5b50505050505050505050565b610f986116d6565b600160009054906101000a900473ffffffffffffffffffffffffffffffffffffffff1673ffffffffffffffffffffffffffffffffffffffff16633eeb568b836040518263ffffffff1660e01b8152600401610ff39190612e53565b600060405180830381865afa158015611010573d6000803e3d6000fd5b505050506040513d6000823e3d601f19601f8201168201806040525081019061103991906130f9565b9050919050565b816000600160009054906101000a900473ffffffffffffffffffffffffffffffffffffffff1673ffffffffffffffffffffffffffffffffffffffff16633eeb568b836040518263ffffffff1660e01b815260040161109e9190612e53565b600060405180830381865afa1580156110bb573d6000803e3d6000fd5b505050506040513d6000823e3d601f19601f820116820180604052508101906110e491906130f9565b90508060a0015160a0015173ffffffffffffffffffffffffffffffffffffffff163373ffffffffffffffffffffffffffffffffffffffff161461115c576040517f08c379a00000000000000000000000000000000000000000000000000000000081526004016111539061318e565b60405180910390fd5b60008060009054906101000a900473ffffffffffffffffffffffffffffffffffffffff1673ffffffffffffffffffffffffffffffffffffffff16635a7e1989856040518263ffffffff1660e01b81526004016111b8919061274f565b600060405180830381865afa1580156111d5573d6000803e3d6000fd5b505050506040513d6000823e3d601f19601f820116820180604052508101906111fe9190612d5c565b9050600160009054906101000a900473ffffffffffffffffffffffffffffffffffffffff1673ffffffffffffffffffffffffffffffffffffffff16633c39a36386836040518363ffffffff1660e01b815260040161125d9291906132dc565b600060405180830381600087803b15801561127757600080fd5b505af115801561128b573d6000803e3d6000fd5b505050505050505050565b6060600160009054906101000a900473ffffffffffffffffffffffffffffffffffffffff1673ffffffffffffffffffffffffffffffffffffffff1663c892522e836040518263ffffffff1660e01b81526004016112f39190612e53565b600060405180830381865afa158015611310573d6000803e3d6000fd5b505050506040513d6000823e3d601f19601f8201168201806040525081019061133991906133f4565b9050919050565b60606000600160009054906101000a900473ffffffffffffffffffffffffffffffffffffffff1673ffffffffffffffffffffffffffffffffffffffff1663dff95aac6040518163ffffffff1660e01b8152600401600060405180830381865afa1580156113b1573d6000803e3d6000fd5b505050506040513d6000823e3d601f19601f820116820180604052508101906113da919061343d565b90506000815111611420576040517f08c379a0000000000000000000000000000000000000000000000000000000008152600401611417906134d2565b60405180910390fd5b6000815167ffffffffffffffff81111561143d5761143c6117ae565b5b60405190808252806020026020018201604052801561147657816020015b6114636116d6565b81526020019060019003908161145b5790505b50905060005b82518163ffffffff16101561158357600160009054906101000a900473ffffffffffffffffffffffffffffffffffffffff1673ffffffffffffffffffffffffffffffffffffffff16633eeb568b848363ffffffff16815181106114e2576114e1612d2d565b5b60200260200101516040518263ffffffff1660e01b81526004016115069190612e53565b600060405180830381865afa158015611523573d6000803e3d6000fd5b505050506040513d6000823e3d601f19601f8201168201806040525081019061154c91906130f9565b828263ffffffff168151811061156557611564612d2d565b5b6020026020010181905250808061157b90612dd4565b91505061147c565b50809250505090565b60008054906101000a900473ffffffffffffffffffffffffffffffffffffffff1681565b6115b861167d565b60008054906101000a900473ffffffffffffffffffffffffffffffffffffffff1673ffffffffffffffffffffffffffffffffffffffff16635a7e1989336040518263ffffffff1660e01b8152600401611611919061274f565b600060405180830381865afa15801561162e573d6000803e3d6000fd5b505050506040513d6000823e3d601f19601f820116820180604052508101906116579190612d5c565b905090565b60405180606001604052806060815260200160608152602001606081525090565b6040518060e001604052806060815260200160608152602001606081526020016060815260200160608152602001600073ffffffffffffffffffffffffffffffffffffffff168152602001600063ffffffff1681525090565b604051806101000160405280606081526020016060815260200160608152602001606081526020016060815260200161170d61167d565b815260200160008152602001606081525090565b6000604051905090565b600080fd5b600080fd5b600073ffffffffffffffffffffffffffffffffffffffff82169050919050565b600061176082611735565b9050919050565b61177081611755565b811461177b57600080fd5b50565b60008135905061178d81611767565b92915050565b600080fd5b600080fd5b6000601f19601f8301169050919050565b7f4e487b7100000000000000000000000000000000000000000000000000000000600052604160045260246000fd5b6117e68261179d565b810181811067ffffffffffffffff82111715611805576118046117ae565b5b80604052505050565b6000611818611721565b905061182482826117dd565b919050565b600067ffffffffffffffff821115611844576118436117ae565b5b61184d8261179d565b9050602081019050919050565b82818337600083830152505050565b600061187c61187784611829565b61180e565b90508281526020810184848401111561189857611897611798565b5b6118a384828561185a565b509392505050565b600082601f8301126118c0576118bf611793565b5b81356118d0848260208601611869565b91505092915050565b60008060008060008060c087890312156118f6576118f561172b565b5b600061190489828a0161177e565b965050602087013567ffffffffffffffff81111561192557611924611730565b5b61193189828a016118ab565b955050604087013567ffffffffffffffff81111561195257611951611730565b5b61195e89828a016118ab565b945050606087013567ffffffffffffffff81111561197f5761197e611730565b5b61198b89828a016118ab565b935050608087013567ffffffffffffffff8111156119ac576119ab611730565b5b6119b889828a016118ab565b92505060a087013567ffffffffffffffff8111156119d9576119d8611730565b5b6119e589828a016118ab565b9150509295509295509295565b600060208284031215611a0857611a0761172b565b5b6000611a168482850161177e565b91505092915050565b600081519050919050565b600082825260208201905092915050565b6000819050602082019050919050565b600081519050919050565b600082825260208201905092915050565b60005b83811015611a85578082015181840152602081019050611a6a565b60008484015250505050565b6000611a9c82611a4b565b611aa68185611a56565b9350611ab6818560208601611a67565b611abf8161179d565b840191505092915050565b611ad381611755565b82525050565b600063ffffffff82169050919050565b611af281611ad9565b82525050565b600060e0830160008301518482036000860152611b158282611a91565b91505060208301518482036020860152611b2f8282611a91565b91505060408301518482036040860152611b498282611a91565b91505060608301518482036060860152611b638282611a91565b91505060808301518482036080860152611b7d8282611a91565b91505060a0830151611b9260a0860182611aca565b5060c0830151611ba560c0860182611ae9565b508091505092915050565b6000611bbc8383611af8565b905092915050565b6000602082019050919050565b6000611bdc82611a1f565b611be68185611a2a565b935083602082028501611bf885611a3b565b8060005b85811015611c345784840389528151611c158582611bb0565b9450611c2083611bc4565b925060208a01995050600181019050611bfc565b50829750879550505050505092915050565b60006020820190508181036000830152611c608184611bd1565b905092915050565b60008060408385031215611c7f57611c7e61172b565b5b600083013567ffffffffffffffff811115611c9d57611c9c611730565b5b611ca9858286016118ab565b925050602083013567ffffffffffffffff811115611cca57611cc9611730565b5b611cd6858286016118ab565b9150509250929050565b60006060830160008301518482036000860152611cfd8282611a91565b91505060208301518482036020860152611d178282611a91565b91505060408301518482036040860152611d318282611a91565b9150508091505092915050565b60006020820190508181036000830152611d588184611ce0565b905092915050565b60008115159050919050565b611d7581611d60565b82525050565b6000602082019050611d906000830184611d6c565b92915050565b611d9f81611ad9565b8114611daa57600080fd5b50565b600081359050611dbc81611d96565b92915050565b6000819050919050565b611dd581611dc2565b8114611de057600080fd5b50565b600081359050611df281611dcc565b92915050565b60008060408385031215611e0f57611e0e61172b565b5b6000611e1d85828601611dad565b9250506020611e2e85828601611de3565b9150509250929050565b611e4181611ad9565b82525050565b6000602082019050611e5c6000830184611e38565b92915050565b60008060008060808587031215611e7c57611e7b61172b565b5b600085013567ffffffffffffffff811115611e9a57611e99611730565b5b611ea6878288016118ab565b945050602085013567ffffffffffffffff811115611ec757611ec6611730565b5b611ed3878288016118ab565b935050604085013567ffffffffffffffff811115611ef457611ef3611730565b5b611f00878288016118ab565b925050606085013567ffffffffffffffff811115611f2157611f20611730565b5b611f2d878288016118ab565b91505092959194509250565b600060e0830160008301518482036000860152611f568282611a91565b91505060208301518482036020860152611f708282611a91565b91505060408301518482036040860152611f8a8282611a91565b91505060608301518482036060860152611fa48282611a91565b91505060808301518482036080860152611fbe8282611a91565b91505060a0830151611fd360a0860182611aca565b5060c0830151611fe660c0860182611ae9565b508091505092915050565b6000602082019050818103600083015261200b8184611f39565b905092915050565b6000602082840312156120295761202861172b565b5b600061203784828501611dad565b91505092915050565b61204981611755565b82525050565b60006080820190506120646000830187611e38565b6120716020830186611e38565b61207e6040830185611e38565b61208b6060830184612040565b95945050505050565b6000819050919050565b60006120b96120b46120af84611735565b612094565b611735565b9050919050565b60006120cb8261209e565b9050919050565b60006120dd826120c0565b9050919050565b6120ed816120d2565b82525050565b600060208201905061210860008301846120e4565b92915050565b600080600080600060a0868803121561212a5761212961172b565b5b600086013567ffffffffffffffff81111561214857612147611730565b5b612154888289016118ab565b955050602086013567ffffffffffffffff81111561217557612174611730565b5b612181888289016118ab565b945050604086013567ffffffffffffffff8111156121a2576121a1611730565b5b6121ae888289016118ab565b935050606086013567ffffffffffffffff8111156121cf576121ce611730565b5b6121db888289016118ab565b925050608086013567ffffffffffffffff8111156121fc576121fb611730565b5b612208888289016118ab565b9150509295509295909350565b60006020828403121561222b5761222a61172b565b5b600082013567ffffffffffffffff81111561224957612248611730565b5b612255848285016118ab565b91505092915050565b61226781611dc2565b82525050565b600081519050919050565b600082825260208201905092915050565b6000819050602082019050919050565b60006122a58383611a91565b905092915050565b6000602082019050919050565b60006122c58261226d565b6122cf8185612278565b9350836020820285016122e185612289565b8060005b8581101561231d57848403895281516122fe8582612299565b9450612309836122ad565b925060208a019950506001810190506122e5565b50829750879550505050505092915050565b600061010083016000830151848203600086015261234d8282611a91565b915050602083015184820360208601526123678282611a91565b915050604083015184820360408601526123818282611a91565b9150506060830151848203606086015261239b8282611a91565b915050608083015184820360808601526123b58282611a91565b91505060a083015184820360a08601526123cf8282611af8565b91505060c08301516123e460c086018261225e565b5060e083015184820360e08601526123fc82826122ba565b9150508091505092915050565b60006020820190508181036000830152612423818461232f565b905092915050565b600080604083850312156124425761244161172b565b5b600083013567ffffffffffffffff8111156124605761245f611730565b5b61246c858286016118ab565b925050602061247d8582860161177e565b9150509250929050565b600081519050919050565b600082825260208201905092915050565b6000819050602082019050919050565b60006101008301600083015184820360008601526124d18282611a91565b915050602083015184820360208601526124eb8282611a91565b915050604083015184820360408601526125058282611a91565b9150506060830151848203606086015261251f8282611a91565b915050608083015184820360808601526125398282611a91565b91505060a083015184820360a08601526125538282611af8565b91505060c083015161256860c086018261225e565b5060e083015184820360e086015261258082826122ba565b9150508091505092915050565b600061259983836124b3565b905092915050565b6000602082019050919050565b60006125b982612487565b6125c38185612492565b9350836020820285016125d5856124a3565b8060005b8581101561261157848403895281516125f2858261258d565b94506125fd836125a1565b925060208a019950506001810190506125d9565b50829750879550505050505092915050565b6000602082019050818103600083015261263d81846125ae565b905092915050565b6000612650826120c0565b9050919050565b61266081612645565b82525050565b600060208201905061267b6000830184612657565b92915050565b600082825260208201905092915050565b600061269d82611a4b565b6126a78185612681565b93506126b7818560208601611a67565b6126c08161179d565b840191505092915050565b600060c0820190506126e06000830189612040565b81810360208301526126f28188612692565b905081810360408301526127068187612692565b9050818103606083015261271a8186612692565b9050818103608083015261272e8185612692565b905081810360a08301526127428184612692565b9050979650505050505050565b60006020820190506127646000830184612040565b92915050565b600067ffffffffffffffff821115612785576127846117ae565b5b602082029050602081019050919050565b600080fd5b600080fd5b600080fd5b60006127b86127b384611829565b61180e565b9050828152602081018484840111156127d4576127d3611798565b5b6127df848285611a67565b509392505050565b600082601f8301126127fc576127fb611793565b5b815161280c8482602086016127a5565b91505092915050565b60008151905061282481611767565b92915050565b60008151905061283981611d96565b92915050565b600060e082840312156128555761285461279b565b5b61285f60e061180e565b9050600082015167ffffffffffffffff81111561287f5761287e6127a0565b5b61288b848285016127e7565b600083015250602082015167ffffffffffffffff8111156128af576128ae6127a0565b5b6128bb848285016127e7565b602083015250604082015167ffffffffffffffff8111156128df576128de6127a0565b5b6128eb848285016127e7565b604083015250606082015167ffffffffffffffff81111561290f5761290e6127a0565b5b61291b848285016127e7565b606083015250608082015167ffffffffffffffff81111561293f5761293e6127a0565b5b61294b848285016127e7565b60808301525060a061295f84828501612815565b60a08301525060c06129738482850161282a565b60c08301525092915050565b600061299261298d8461276a565b61180e565b905080838252602082019050602084028301858111156129b5576129b4612796565b5b835b818110156129fc57805167ffffffffffffffff8111156129da576129d9611793565b5b8086016129e7898261283f565b855260208501945050506020810190506129b7565b5050509392505050565b600082601f830112612a1b57612a1a611793565b5b8151612a2b84826020860161297f565b91505092915050565b600060208284031215612a4a57612a4961172b565b5b600082015167ffffffffffffffff811115612a6857612a67611730565b5b612a7484828501612a06565b91505092915050565b60006040820190508181036000830152612a978185612692565b90508181036020830152612aab8184612692565b90509392505050565b600060608284031215612aca57612ac961279b565b5b612ad4606061180e565b9050600082015167ffffffffffffffff811115612af457612af36127a0565b5b612b00848285016127e7565b600083015250602082015167ffffffffffffffff811115612b2457612b236127a0565b5b612b30848285016127e7565b602083015250604082015167ffffffffffffffff811115612b5457612b536127a0565b5b612b60848285016127e7565b60408301525092915050565b600060208284031215612b8257612b8161172b565b5b600082015167ffffffffffffffff811115612ba057612b9f611730565b5b612bac84828501612ab4565b91505092915050565b600067ffffffffffffffff821115612bd057612bcf6117ae565b5b602082029050602081019050919050565b6000612bf4612bef84612bb5565b61180e565b90508083825260208201905060208402830185811115612c1757612c16612796565b5b835b81811015612c405780612c2c8882612815565b845260208401935050602081019050612c19565b5050509392505050565b600082601f830112612c5f57612c5e611793565b5b8151612c6f848260208601612be1565b91505092915050565b600060208284031215612c8e57612c8d61172b565b5b600082015167ffffffffffffffff811115612cac57612cab611730565b5b612cb884828501612c4a565b91505092915050565b7f4e6f20456e746974696573000000000000000000000000000000000000000000600082015250565b6000612cf7600b83612681565b9150612d0282612cc1565b602082019050919050565b60006020820190508181036000830152612d2681612cea565b9050919050565b7f4e487b7100000000000000000000000000000000000000000000000000000000600052603260045260246000fd5b600060208284031215612d7257612d7161172b565b5b600082015167ffffffffffffffff811115612d9057612d8f611730565b5b612d9c8482850161283f565b91505092915050565b7f4e487b7100000000000000000000000000000000000000000000000000000000600052601160045260246000fd5b6000612ddf82611ad9565b915063ffffffff8203612df557612df4612da5565b5b600182019050919050565b600081905092915050565b6000612e1682611a4b565b612e208185612e00565b9350612e30818560208601611a67565b80840191505092915050565b6000612e488284612e0b565b915081905092915050565b60006020820190508181036000830152612e6d8184612692565b905092915050565b600081519050612e8481611dcc565b92915050565b600067ffffffffffffffff821115612ea557612ea46117ae565b5b602082029050602081019050919050565b6000612ec9612ec484612e8a565b61180e565b90508083825260208201905060208402830185811115612eec57612eeb612796565b5b835b81811015612f3357805167ffffffffffffffff811115612f1157612f10611793565b5b808601612f1e89826127e7565b85526020850194505050602081019050612eee565b5050509392505050565b600082601f830112612f5257612f51611793565b5b8151612f62848260208601612eb6565b91505092915050565b60006101008284031215612f8257612f8161279b565b5b612f8d61010061180e565b9050600082015167ffffffffffffffff811115612fad57612fac6127a0565b5b612fb9848285016127e7565b600083015250602082015167ffffffffffffffff811115612fdd57612fdc6127a0565b5b612fe9848285016127e7565b602083015250604082015167ffffffffffffffff81111561300d5761300c6127a0565b5b613019848285016127e7565b604083015250606082015167ffffffffffffffff81111561303d5761303c6127a0565b5b613049848285016127e7565b606083015250608082015167ffffffffffffffff81111561306d5761306c6127a0565b5b613079848285016127e7565b60808301525060a082015167ffffffffffffffff81111561309d5761309c6127a0565b5b6130a98482850161283f565b60a08301525060c06130bd84828501612e75565b60c08301525060e082015167ffffffffffffffff8111156130e1576130e06127a0565b5b6130ed84828501612f3d565b60e08301525092915050565b60006020828403121561310f5761310e61172b565b5b600082015167ffffffffffffffff81111561312d5761312c611730565b5b61313984828501612f6b565b91505092915050565b7f4e6f74204f776e65720000000000000000000000000000000000000000000000600082015250565b6000613178600983612681565b915061318382613142565b602082019050919050565b600060208201905081810360008301526131a78161316b565b9050919050565b600060408201905081810360008301526131c88185612692565b905081810360208301526131dc8184611ce0565b90509392505050565b7f4e6f7420506f6c6963652e000000000000000000000000000000000000000000600082015250565b600061321b600b83612681565b9150613226826131e5565b602082019050919050565b6000602082019050818103600083015261324a8161320e565b9050919050565b600060c082019050818103600083015261326b8189612692565b9050818103602083015261327f8188612692565b905081810360408301526132938187612692565b905081810360608301526132a78186612692565b905081810360808301526132bb8185612692565b905081810360a08301526132cf8184611f39565b9050979650505050505050565b600060408201905081810360008301526132f68185612692565b9050818103602083015261330a8184611f39565b90509392505050565b600067ffffffffffffffff82111561332e5761332d6117ae565b5b602082029050602081019050919050565b600061335261334d84613313565b61180e565b9050808382526020820190506020840283018581111561337557613374612796565b5b835b818110156133bc57805167ffffffffffffffff81111561339a57613399611793565b5b8086016133a78982612f6b565b85526020850194505050602081019050613377565b5050509392505050565b600082601f8301126133db576133da611793565b5b81516133eb84826020860161333f565b91505092915050565b60006020828403121561340a5761340961172b565b5b600082015167ffffffffffffffff81111561342857613427611730565b5b613434848285016133c6565b91505092915050565b6000602082840312156134535761345261172b565b5b600082015167ffffffffffffffff81111561347157613470611730565b5b61347d84828501612f3d565b91505092915050565b7f4e6f2045766964656e6365730000000000000000000000000000000000000000600082015250565b60006134bc600c83612681565b91506134c782613486565b602082019050919050565b600060208201905081810360008301526134eb816134af565b905091905056fea264697066735822122053936dc887b2203b5128222dacf17147436cb0fb39e43a6c7badd48502099ebb64736f6c63430008130033",
  "immutableReferences": {},
  "source": "pragma solidity >=0.8.0;\r\n\r\nimport \"./EntitiesManager.sol\";\r\nimport \"./EvidencesManager.sol\";\r\n\r\ncontract EvidenceChain {\r\n    EntitiesManager public entitiesManager;\r\n    EvidencesManager public evidencesManager;\r\n\r\n    constructor(\r\n        address _entitiesManagerAddress,\r\n        address _evidencesManagerAddress\r\n    ) {\r\n        entitiesManager = EntitiesManager(_entitiesManagerAddress);\r\n        evidencesManager = EvidencesManager(_evidencesManagerAddress);\r\n    }\r\n\r\n    uint32 public owner_id = 0;\r\n\r\n    struct ownership {\r\n        uint32 evidenceId;\r\n        uint32 ownerId;\r\n        uint32 trxTimeStamp;\r\n        address evidenceOwner;\r\n    }\r\n\r\n    mapping(uint32 => ownership) public ownerships;\r\n    mapping(uint32 => uint32[]) public evidenceTrack;\r\n\r\n    event TransferOwnership(uint32 evidenceId);\r\n    event ParticipantAdded(uint32 indexed userId);\r\n    event EvidenceAdded(uint32 indexed evidenceId);\r\n\r\n    function addEntity(\r\n        address _entity,\r\n        string memory _userName,\r\n        string memory _password,\r\n        string memory _name,\r\n        string memory _departmentCode,\r\n        string memory _entityType\r\n    ) public {\r\n        entitiesManager.addEntity(\r\n            _entity,\r\n            _userName,\r\n            _password,\r\n            _name,\r\n            _departmentCode,\r\n            _entityType\r\n        );\r\n    }\r\n\r\n    function getEntities()\r\n        public\r\n        view\r\n        returns (EntitiesManager.Entity[] memory)\r\n    {\r\n        address[] memory entityAddresses = entitiesManager.getEntities();\r\n        require(entityAddresses.length > 0, \"No Entities\");\r\n        EntitiesManager.Entity[] memory entities = new EntitiesManager.Entity[](\r\n            entityAddresses.length\r\n        );\r\n        for (uint32 i = 0; i < entityAddresses.length; i++) {\r\n            entities[i] = entitiesManager.getLastUpdate(entityAddresses[i]);\r\n        }\r\n\r\n        return entities;\r\n    }\r\n\r\n    function getEntityHistory()\r\n        public\r\n        view\r\n        returns (EntitiesManager.Entity[] memory)\r\n    {\r\n        return entitiesManager.getEntityHistory(msg.sender);\r\n    }\r\n\r\n    function getEntityHistory(\r\n        address _entity\r\n    ) public view returns (EntitiesManager.Entity[] memory) {\r\n        return entitiesManager.getEntityHistory(_entity);\r\n    }\r\n\r\n    function getEntity(\r\n        address _entity\r\n    ) public view returns (EntitiesManager.Entity memory) {\r\n        return entitiesManager.getLastUpdate(_entity);\r\n    }\r\n\r\n    function getEntity() public view returns (EntitiesManager.Entity memory) {\r\n        return entitiesManager.getLastUpdate(msg.sender);\r\n    }\r\n\r\n    function authenticateEntity(\r\n        string memory _uname,\r\n        string memory _pass\r\n    ) public view returns (bool) {\r\n        EntitiesManager.Entity memory entity = entitiesManager.getLastUpdate(\r\n            msg.sender\r\n        );\r\n\r\n        if (\r\n            keccak256(abi.encodePacked(entity.userName)) ==\r\n            keccak256(abi.encodePacked(_uname))\r\n        ) {\r\n            if (\r\n                keccak256(abi.encodePacked(entity.password)) ==\r\n                keccak256(abi.encodePacked(_pass))\r\n            ) {\r\n                return (true);\r\n            }\r\n        }\r\n\r\n        return (false);\r\n    }\r\n\r\n    function addEvidence(\r\n        string memory _evidenceUniqueCode,\r\n        string memory _caseNo,\r\n        string memory _classification,\r\n        string memory _evidenceName,\r\n        string memory _evidenceType\r\n    ) public {\r\n        EntitiesManager.Entity memory _entity = entitiesManager.getLastUpdate(\r\n            msg.sender\r\n        );\r\n        require(\r\n            keccak256(abi.encodePacked(_entity.entityType)) ==\r\n                keccak256(\"Police\"),\r\n            \"Not Police.\"\r\n        );\r\n        evidencesManager.addEvidence(\r\n            _evidenceUniqueCode,\r\n            _caseNo,\r\n            _classification,\r\n            _evidenceName,\r\n            _evidenceType,\r\n            _entity\r\n        );\r\n    }\r\n\r\n    // function addEvidence(\r\n    //     string memory _evidenceUniqueCode,\r\n    //     string memory _caseNo,\r\n    //     string memory _classification,\r\n    //     string memory _evidenceName,\r\n    //     string memory _evidenceType,\r\n    //     EvidencesManager.EvidenceFile[] memory _files\r\n    // ) public {\r\n    //     EntitiesManager.Entity memory _entity = entitiesManager.getLastUpdate(\r\n    //         msg.sender\r\n    //     );\r\n    //     require(\r\n    //         keccak256(abi.encodePacked(_entity.entityType)) ==\r\n    //             keccak256(\"Police\"),\r\n    //         \"Not Police.\"\r\n    //     );\r\n    //     evidencesManager.addEvidence(\r\n    //         _evidenceUniqueCode,\r\n    //         _caseNo,\r\n    //         _classification,\r\n    //         _evidenceName,\r\n    //         _evidenceType,\r\n    //         _entity,\r\n    //         _files\r\n    //     );\r\n    // }\r\n\r\n    function getEvidences()\r\n        public\r\n        view\r\n        returns (EvidencesManager.Evidence[] memory)\r\n    {\r\n        string[] memory evidencesCodes = evidencesManager.getEvidences();\r\n        require(evidencesCodes.length > 0, \"No Evidences\");\r\n        EvidencesManager.Evidence[]\r\n            memory evidences = new EvidencesManager.Evidence[](\r\n                evidencesCodes.length\r\n            );\r\n        for (uint32 i = 0; i < evidencesCodes.length; i++) {\r\n            evidences[i] = evidencesManager.getLastUpdate(evidencesCodes[i]);\r\n        }\r\n\r\n        return evidences;\r\n    }\r\n\r\n    function getEvidenceHistory(\r\n        string memory _evidenceUniqueCode\r\n    ) public view returns (EvidencesManager.Evidence[] memory) {\r\n        return evidencesManager.getEvidenceHistory(_evidenceUniqueCode);\r\n    }\r\n\r\n    function getEvidence(\r\n        string memory _evidenceUniqueCode\r\n    ) public view returns (EvidencesManager.Evidence memory) {\r\n        return evidencesManager.getLastUpdate(_evidenceUniqueCode);\r\n    }\r\n\r\n    function evidenceNewOwner(\r\n        string memory _evidenceUniqueCode,\r\n        address _newOwner\r\n    ) public onlyOwner(_evidenceUniqueCode) {\r\n        EntitiesManager.Entity memory _entity = entitiesManager.getLastUpdate(\r\n            _newOwner\r\n        );\r\n        evidencesManager.updateOwner(_evidenceUniqueCode, _entity);\r\n    }\r\n\r\n    function addFile(\r\n        string memory _evidenceUniqueCode,\r\n        string memory _fileId,\r\n        string memory _fileName,\r\n        string memory _fileHash\r\n    ) public onlyOwner(_evidenceUniqueCode) {\r\n        EvidencesManager.EvidenceFile memory file =  EvidencesManager.EvidenceFile(_fileId, _fileName, _fileHash);\r\n        evidencesManager.addFile(_evidenceUniqueCode, file);\r\n    }\r\n\r\n    modifier onlyOwner(string memory _evidenceUniqueCode) {\r\n        EvidencesManager.Evidence memory _evidence = evidencesManager\r\n            .getLastUpdate(_evidenceUniqueCode);\r\n        require(msg.sender == _evidence.owner.entityAddress, \"Not Owner\");\r\n        _;\r\n    }\r\n\r\n    function getFileInfo(string memory _evidenceUniqueCode, string memory _fileUniqueCode) external view returns (EvidencesManager.EvidenceFile memory)\r\n    {\r\n        return evidencesManager.getFileInfo(_evidenceUniqueCode, _fileUniqueCode);\r\n    }\r\n    \r\n    // function getProvenance(\r\n    //     uint32 _evidenceId\r\n    // ) external view returns (uint32[] memory) {\r\n    //     return evidenceTrack[_evidenceId];\r\n    // }\r\n\r\n    // function getOwnership(\r\n    //     uint32 _regId\r\n    // ) public view returns (uint32, uint32, address, uint32) {\r\n    //     ownership memory r = ownerships[_regId];\r\n\r\n    //     return (r.evidenceId, r.ownerId, r.evidenceOwner, r.trxTimeStamp);\r\n    // }\r\n}\r\n",
  "sourcePath": "C:\\IPCA DISSERTAO\\evidences_dapp\\contracts\\EvidenceChain.sol",
  "compiler": {
    "name": "solc",
    "version": "0.8.19+commit.7dd6d404.Emscripten.clang"
  },
  "schemaVersion": "3.4.13",
  "updatedAt": "2023-08-28T22:30:01.585Z",
  "networkType": "ethereum",
  "devdoc": {
    "kind": "dev",
    "methods": {},
    "version": 1
  },
  "userdoc": {
    "kind": "user",
    "methods": {},
    "version": 1
  }
}