{
  "contractName": "EvidencesManager",
  "abi": [
    {
      "inputs": [
        {
          "internalType": "uint256",
          "name": "",
          "type": "uint256"
        }
      ],
      "name": "allEvidences",
      "outputs": [
        {
          "internalType": "string",
          "name": "",
          "type": "string"
        }
      ],
      "stateMutability": "view",
      "type": "function",
      "constant": true
    },
    {
      "inputs": [
        {
          "internalType": "string",
          "name": "",
          "type": "string"
        },
        {
          "internalType": "uint256",
          "name": "",
          "type": "uint256"
        }
      ],
      "name": "evidencesFiles",
      "outputs": [
        {
          "internalType": "string",
          "name": "id",
          "type": "string"
        },
        {
          "internalType": "string",
          "name": "fileName",
          "type": "string"
        },
        {
          "internalType": "string",
          "name": "fileHash",
          "type": "string"
        }
      ],
      "stateMutability": "view",
      "type": "function",
      "constant": true
    },
    {
      "inputs": [
        {
          "internalType": "string",
          "name": "",
          "type": "string"
        },
        {
          "internalType": "uint256",
          "name": "",
          "type": "uint256"
        }
      ],
      "name": "evidencesHistory",
      "outputs": [
        {
          "internalType": "string",
          "name": "uniqueCode",
          "type": "string"
        },
        {
          "internalType": "string",
          "name": "caseNo",
          "type": "string"
        },
        {
          "internalType": "string",
          "name": "classification",
          "type": "string"
        },
        {
          "internalType": "string",
          "name": "name",
          "type": "string"
        },
        {
          "internalType": "string",
          "name": "eType",
          "type": "string"
        },
        {
          "components": [
            {
              "internalType": "string",
              "name": "userName",
              "type": "string"
            },
            {
              "internalType": "string",
              "name": "password",
              "type": "string"
            },
            {
              "internalType": "string",
              "name": "name",
              "type": "string"
            },
            {
              "internalType": "string",
              "name": "departmentCode",
              "type": "string"
            },
            {
              "internalType": "string",
              "name": "entityType",
              "type": "string"
            },
            {
              "internalType": "address",
              "name": "entityAddress",
              "type": "address"
            },
            {
              "internalType": "uint32",
              "name": "timestamp",
              "type": "uint32"
            }
          ],
          "internalType": "struct EntitiesManager.Entity",
          "name": "owner",
          "type": "tuple"
        },
        {
          "internalType": "uint256",
          "name": "timestamp",
          "type": "uint256"
        }
      ],
      "stateMutability": "view",
      "type": "function",
      "constant": true
    },
    {
      "inputs": [
        {
          "internalType": "string",
          "name": "_evidenceUniqueCode",
          "type": "string"
        },
        {
          "internalType": "string",
          "name": "_caseNo",
          "type": "string"
        },
        {
          "internalType": "string",
          "name": "_classification",
          "type": "string"
        },
        {
          "internalType": "string",
          "name": "_evidenceName",
          "type": "string"
        },
        {
          "internalType": "string",
          "name": "_evidenceType",
          "type": "string"
        },
        {
          "components": [
            {
              "internalType": "string",
              "name": "userName",
              "type": "string"
            },
            {
              "internalType": "string",
              "name": "password",
              "type": "string"
            },
            {
              "internalType": "string",
              "name": "name",
              "type": "string"
            },
            {
              "internalType": "string",
              "name": "departmentCode",
              "type": "string"
            },
            {
              "internalType": "string",
              "name": "entityType",
              "type": "string"
            },
            {
              "internalType": "address",
              "name": "entityAddress",
              "type": "address"
            },
            {
              "internalType": "uint32",
              "name": "timestamp",
              "type": "uint32"
            }
          ],
          "internalType": "struct EntitiesManager.Entity",
          "name": "_entity",
          "type": "tuple"
        }
      ],
      "name": "addEvidence",
      "outputs": [],
      "stateMutability": "nonpayable",
      "type": "function"
    },
    {
      "inputs": [
        {
          "internalType": "string",
          "name": "_evidenceUniqueCode",
          "type": "string"
        },
        {
          "components": [
            {
              "internalType": "string",
              "name": "id",
              "type": "string"
            },
            {
              "internalType": "string",
              "name": "fileName",
              "type": "string"
            },
            {
              "internalType": "string",
              "name": "fileHash",
              "type": "string"
            }
          ],
          "internalType": "struct EvidencesManager.EvidenceFile[]",
          "name": "_files",
          "type": "tuple[]"
        }
      ],
      "name": "addFiles",
      "outputs": [],
      "stateMutability": "nonpayable",
      "type": "function"
    },
    {
      "inputs": [
        {
          "internalType": "string",
          "name": "_evidenceUniqueCode",
          "type": "string"
        },
        {
          "components": [
            {
              "internalType": "string",
              "name": "id",
              "type": "string"
            },
            {
              "internalType": "string",
              "name": "fileName",
              "type": "string"
            },
            {
              "internalType": "string",
              "name": "fileHash",
              "type": "string"
            }
          ],
          "internalType": "struct EvidencesManager.EvidenceFile",
          "name": "_file",
          "type": "tuple"
        }
      ],
      "name": "addFile",
      "outputs": [],
      "stateMutability": "nonpayable",
      "type": "function"
    },
    {
      "inputs": [
        {
          "internalType": "string",
          "name": "_evidenceUniqueCode",
          "type": "string"
        },
        {
          "components": [
            {
              "internalType": "string",
              "name": "userName",
              "type": "string"
            },
            {
              "internalType": "string",
              "name": "password",
              "type": "string"
            },
            {
              "internalType": "string",
              "name": "name",
              "type": "string"
            },
            {
              "internalType": "string",
              "name": "departmentCode",
              "type": "string"
            },
            {
              "internalType": "string",
              "name": "entityType",
              "type": "string"
            },
            {
              "internalType": "address",
              "name": "entityAddress",
              "type": "address"
            },
            {
              "internalType": "uint32",
              "name": "timestamp",
              "type": "uint32"
            }
          ],
          "internalType": "struct EntitiesManager.Entity",
          "name": "_entity",
          "type": "tuple"
        }
      ],
      "name": "updateOwner",
      "outputs": [],
      "stateMutability": "nonpayable",
      "type": "function"
    },
    {
      "inputs": [],
      "name": "getEvidences",
      "outputs": [
        {
          "internalType": "string[]",
          "name": "",
          "type": "string[]"
        }
      ],
      "stateMutability": "view",
      "type": "function",
      "constant": true
    },
    {
      "inputs": [
        {
          "internalType": "string",
          "name": "_evidenceUniqueCode",
          "type": "string"
        }
      ],
      "name": "getEvidenceHistory",
      "outputs": [
        {
          "components": [
            {
              "internalType": "string",
              "name": "uniqueCode",
              "type": "string"
            },
            {
              "internalType": "string",
              "name": "caseNo",
              "type": "string"
            },
            {
              "internalType": "string",
              "name": "classification",
              "type": "string"
            },
            {
              "internalType": "string",
              "name": "name",
              "type": "string"
            },
            {
              "internalType": "string",
              "name": "eType",
              "type": "string"
            },
            {
              "components": [
                {
                  "internalType": "string",
                  "name": "userName",
                  "type": "string"
                },
                {
                  "internalType": "string",
                  "name": "password",
                  "type": "string"
                },
                {
                  "internalType": "string",
                  "name": "name",
                  "type": "string"
                },
                {
                  "internalType": "string",
                  "name": "departmentCode",
                  "type": "string"
                },
                {
                  "internalType": "string",
                  "name": "entityType",
                  "type": "string"
                },
                {
                  "internalType": "address",
                  "name": "entityAddress",
                  "type": "address"
                },
                {
                  "internalType": "uint32",
                  "name": "timestamp",
                  "type": "uint32"
                }
              ],
              "internalType": "struct EntitiesManager.Entity",
              "name": "owner",
              "type": "tuple"
            },
            {
              "internalType": "uint256",
              "name": "timestamp",
              "type": "uint256"
            },
            {
              "internalType": "string[]",
              "name": "uFilesCodes",
              "type": "string[]"
            }
          ],
          "internalType": "struct EvidencesManager.Evidence[]",
          "name": "",
          "type": "tuple[]"
        }
      ],
      "stateMutability": "view",
      "type": "function",
      "constant": true
    },
    {
      "inputs": [
        {
          "internalType": "string",
          "name": "_evidenceUniqueCode",
          "type": "string"
        }
      ],
      "name": "getLastUpdate",
      "outputs": [
        {
          "components": [
            {
              "internalType": "string",
              "name": "uniqueCode",
              "type": "string"
            },
            {
              "internalType": "string",
              "name": "caseNo",
              "type": "string"
            },
            {
              "internalType": "string",
              "name": "classification",
              "type": "string"
            },
            {
              "internalType": "string",
              "name": "name",
              "type": "string"
            },
            {
              "internalType": "string",
              "name": "eType",
              "type": "string"
            },
            {
              "components": [
                {
                  "internalType": "string",
                  "name": "userName",
                  "type": "string"
                },
                {
                  "internalType": "string",
                  "name": "password",
                  "type": "string"
                },
                {
                  "internalType": "string",
                  "name": "name",
                  "type": "string"
                },
                {
                  "internalType": "string",
                  "name": "departmentCode",
                  "type": "string"
                },
                {
                  "internalType": "string",
                  "name": "entityType",
                  "type": "string"
                },
                {
                  "internalType": "address",
                  "name": "entityAddress",
                  "type": "address"
                },
                {
                  "internalType": "uint32",
                  "name": "timestamp",
                  "type": "uint32"
                }
              ],
              "internalType": "struct EntitiesManager.Entity",
              "name": "owner",
              "type": "tuple"
            },
            {
              "internalType": "uint256",
              "name": "timestamp",
              "type": "uint256"
            },
            {
              "internalType": "string[]",
              "name": "uFilesCodes",
              "type": "string[]"
            }
          ],
          "internalType": "struct EvidencesManager.Evidence",
          "name": "",
          "type": "tuple"
        }
      ],
      "stateMutability": "view",
      "type": "function",
      "constant": true
    }
  ],
  "bytecode": "0x608060405234801561001057600080fd5b5061492c806100206000396000f3fe608060405234801561001057600080fd5b506004361061009e5760003560e01c8063a076b31f11610066578063a076b31f14610171578063acf51e05146101a3578063c892522e146101bf578063dff95aac146101ef578063e634926e1461020d5761009e565b8063277ecf4b146100a35780633c39a363146100bf5780633eeb568b146100db578063697b22da1461010b578063947ea5ac14610141575b600080fd5b6100bd60048036038101906100b891906136f4565b610229565b005b6100d960048036038101906100d49190613946565b6105ff565b005b6100f560048036038101906100f091906139be565b61086e565b6040516101029190613d11565b60405180910390f35b61012560048036038101906101209190613d5f565b611063565b6040516101389796959493929190613ecc565b60405180910390f35b61015b60048036038101906101569190613f65565b6116e0565b6040516101689190613f92565b60405180910390f35b61018b60048036038101906101869190613d5f565b61178c565b60405161019a93929190613fb4565b60405180910390f35b6101bd60048036038101906101b89190614000565b611981565b005b6101d960048036038101906101d491906139be565b6126a7565b6040516101e691906142d1565b60405180910390f35b6101f7612e4c565b6040516102049190614379565b60405180910390f35b6102276004803603810190610222919061439b565b612f25565b005b60006102348361086e565b90506000825167ffffffffffffffff81111561025357610252613421565b5b60405190808252806020026020018201604052801561028657816020015b60608152602001906001900390816102715790505b50905060005b83518110156103e5576001856040516102a5919061444f565b908152602001604051809103902060405180606001604052808684815181106102d1576102d0614466565b5b60200260200101516000015181526020018684815181106102f5576102f4614466565b5b602002602001015160200151815260200186848151811061031957610318614466565b5b6020026020010151604001518152509080600181540180825580915050600190039060005260206000209060030201600090919091909150600082015181600001908161036691906146a1565b50602082015181600101908161037c91906146a1565b50604082015181600201908161039291906146a1565b5050508381815181106103a8576103a7614466565b5b6020026020010151600001518282815181106103c7576103c6614466565b5b602002602001018190525080806103dd906147a2565b91505061028c565b506000846040516103f6919061444f565b9081526020016040518091039020604051806101000160405280868152602001846020015181526020018460400151815260200184606001518152602001846080015181526020018460a0015181526020014281526020018381525090806001815401808255809150506001900390600052602060002090600d0201600090919091909150600082015181600001908161049091906146a1565b5060208201518160010190816104a691906146a1565b5060408201518160020190816104bc91906146a1565b5060608201518160030190816104d291906146a1565b5060808201518160040190816104e891906146a1565b5060a082015181600501600082015181600001908161050791906146a1565b50602082015181600101908161051d91906146a1565b50604082015181600201908161053391906146a1565b50606082015181600301908161054991906146a1565b50608082015181600401908161055f91906146a1565b5060a08201518160050160006101000a81548173ffffffffffffffffffffffffffffffffffffffff021916908373ffffffffffffffffffffffffffffffffffffffff16021790555060c08201518160050160146101000a81548163ffffffff021916908363ffffffff160217905550505060c082015181600b015560e082015181600c0190805190602001906105f6929190613274565b50505050505050565b600061060a8361086e565b905060008360405161061c919061444f565b908152602001604051809103902060405180610100016040528085815260200183602001518152602001836040015181526020018360600151815260200183608001518152602001848152602001428152602001600067ffffffffffffffff81111561068b5761068a613421565b5b6040519080825280602002602001820160405280156106be57816020015b60608152602001906001900390816106a95790505b5081525090806001815401808255809150506001900390600052602060002090600d0201600090919091909150600082015181600001908161070091906146a1565b50602082015181600101908161071691906146a1565b50604082015181600201908161072c91906146a1565b50606082015181600301908161074291906146a1565b50608082015181600401908161075891906146a1565b5060a082015181600501600082015181600001908161077791906146a1565b50602082015181600101908161078d91906146a1565b5060408201518160020190816107a391906146a1565b5060608201518160030190816107b991906146a1565b5060808201518160040190816107cf91906146a1565b5060a08201518160050160006101000a81548173ffffffffffffffffffffffffffffffffffffffff021916908373ffffffffffffffffffffffffffffffffffffffff16021790555060c08201518160050160146101000a81548163ffffffff021916908363ffffffff160217905550505060c082015181600b015560e082015181600c019080519060200190610866929190613274565b505050505050565b6108766132cd565b60008083604051610887919061444f565b9081526020016040518091039020805490509050600081116108de576040517f08c379a00000000000000000000000000000000000000000000000000000000081526004016108d590614836565b60405180910390fd5b6000836040516108ee919061444f565b90815260200160405180910390206001826109099190614856565b8154811061091a57610919614466565b5b90600052602060002090600d020160405180610100016040529081600082018054610944906144c4565b80601f0160208091040260200160405190810160405280929190818152602001828054610970906144c4565b80156109bd5780601f10610992576101008083540402835291602001916109bd565b820191906000526020600020905b8154815290600101906020018083116109a057829003601f168201915b505050505081526020016001820180546109d6906144c4565b80601f0160208091040260200160405190810160405280929190818152602001828054610a02906144c4565b8015610a4f5780601f10610a2457610100808354040283529160200191610a4f565b820191906000526020600020905b815481529060010190602001808311610a3257829003601f168201915b50505050508152602001600282018054610a68906144c4565b80601f0160208091040260200160405190810160405280929190818152602001828054610a94906144c4565b8015610ae15780601f10610ab657610100808354040283529160200191610ae1565b820191906000526020600020905b815481529060010190602001808311610ac457829003601f168201915b50505050508152602001600382018054610afa906144c4565b80601f0160208091040260200160405190810160405280929190818152602001828054610b26906144c4565b8015610b735780601f10610b4857610100808354040283529160200191610b73565b820191906000526020600020905b815481529060010190602001808311610b5657829003601f168201915b50505050508152602001600482018054610b8c906144c4565b80601f0160208091040260200160405190810160405280929190818152602001828054610bb8906144c4565b8015610c055780601f10610bda57610100808354040283529160200191610c05565b820191906000526020600020905b815481529060010190602001808311610be857829003601f168201915b50505050508152602001600582016040518060e0016040529081600082018054610c2e906144c4565b80601f0160208091040260200160405190810160405280929190818152602001828054610c5a906144c4565b8015610ca75780601f10610c7c57610100808354040283529160200191610ca7565b820191906000526020600020905b815481529060010190602001808311610c8a57829003601f168201915b50505050508152602001600182018054610cc0906144c4565b80601f0160208091040260200160405190810160405280929190818152602001828054610cec906144c4565b8015610d395780601f10610d0e57610100808354040283529160200191610d39565b820191906000526020600020905b815481529060010190602001808311610d1c57829003601f168201915b50505050508152602001600282018054610d52906144c4565b80601f0160208091040260200160405190810160405280929190818152602001828054610d7e906144c4565b8015610dcb5780601f10610da057610100808354040283529160200191610dcb565b820191906000526020600020905b815481529060010190602001808311610dae57829003601f168201915b50505050508152602001600382018054610de4906144c4565b80601f0160208091040260200160405190810160405280929190818152602001828054610e10906144c4565b8015610e5d5780601f10610e3257610100808354040283529160200191610e5d565b820191906000526020600020905b815481529060010190602001808311610e4057829003601f168201915b50505050508152602001600482018054610e76906144c4565b80601f0160208091040260200160405190810160405280929190818152602001828054610ea2906144c4565b8015610eef5780601f10610ec457610100808354040283529160200191610eef565b820191906000526020600020905b815481529060010190602001808311610ed257829003601f168201915b505050505081526020016005820160009054906101000a900473ffffffffffffffffffffffffffffffffffffffff1673ffffffffffffffffffffffffffffffffffffffff1673ffffffffffffffffffffffffffffffffffffffff1681526020016005820160149054906101000a900463ffffffff1663ffffffff1663ffffffff16815250508152602001600b8201548152602001600c8201805480602002602001604051908101604052809291908181526020016000905b82821015611053578382906000526020600020018054610fc6906144c4565b80601f0160208091040260200160405190810160405280929190818152602001828054610ff2906144c4565b801561103f5780601f106110145761010080835404028352916020019161103f565b820191906000526020600020905b81548152906001019060200180831161102257829003601f168201915b505050505081526020019060010190610fa7565b5050505081525050915050919050565b600082805160208101820180518482526020830160208501208183528095505050505050818154811061109557600080fd5b90600052602060002090600d0201600091509150508060000180546110b9906144c4565b80601f01602080910402602001604051908101604052809291908181526020018280546110e5906144c4565b80156111325780601f1061110757610100808354040283529160200191611132565b820191906000526020600020905b81548152906001019060200180831161111557829003601f168201915b505050505090806001018054611147906144c4565b80601f0160208091040260200160405190810160405280929190818152602001828054611173906144c4565b80156111c05780601f10611195576101008083540402835291602001916111c0565b820191906000526020600020905b8154815290600101906020018083116111a357829003601f168201915b5050505050908060020180546111d5906144c4565b80601f0160208091040260200160405190810160405280929190818152602001828054611201906144c4565b801561124e5780601f106112235761010080835404028352916020019161124e565b820191906000526020600020905b81548152906001019060200180831161123157829003601f168201915b505050505090806003018054611263906144c4565b80601f016020809104026020016040519081016040528092919081815260200182805461128f906144c4565b80156112dc5780601f106112b1576101008083540402835291602001916112dc565b820191906000526020600020905b8154815290600101906020018083116112bf57829003601f168201915b5050505050908060040180546112f1906144c4565b80601f016020809104026020016040519081016040528092919081815260200182805461131d906144c4565b801561136a5780601f1061133f5761010080835404028352916020019161136a565b820191906000526020600020905b81548152906001019060200180831161134d57829003601f168201915b505050505090806005016040518060e001604052908160008201805461138f906144c4565b80601f01602080910402602001604051908101604052809291908181526020018280546113bb906144c4565b80156114085780601f106113dd57610100808354040283529160200191611408565b820191906000526020600020905b8154815290600101906020018083116113eb57829003601f168201915b50505050508152602001600182018054611421906144c4565b80601f016020809104026020016040519081016040528092919081815260200182805461144d906144c4565b801561149a5780601f1061146f5761010080835404028352916020019161149a565b820191906000526020600020905b81548152906001019060200180831161147d57829003601f168201915b505050505081526020016002820180546114b3906144c4565b80601f01602080910402602001604051908101604052809291908181526020018280546114df906144c4565b801561152c5780601f106115015761010080835404028352916020019161152c565b820191906000526020600020905b81548152906001019060200180831161150f57829003601f168201915b50505050508152602001600382018054611545906144c4565b80601f0160208091040260200160405190810160405280929190818152602001828054611571906144c4565b80156115be5780601f10611593576101008083540402835291602001916115be565b820191906000526020600020905b8154815290600101906020018083116115a157829003601f168201915b505050505081526020016004820180546115d7906144c4565b80601f0160208091040260200160405190810160405280929190818152602001828054611603906144c4565b80156116505780601f1061162557610100808354040283529160200191611650565b820191906000526020600020905b81548152906001019060200180831161163357829003601f168201915b505050505081526020016005820160009054906101000a900473ffffffffffffffffffffffffffffffffffffffff1673ffffffffffffffffffffffffffffffffffffffff1673ffffffffffffffffffffffffffffffffffffffff1681526020016005820160149054906101000a900463ffffffff1663ffffffff1663ffffffff16815250509080600b0154905087565b600281815481106116f057600080fd5b90600052602060002001600091509050805461170b906144c4565b80601f0160208091040260200160405190810160405280929190818152602001828054611737906144c4565b80156117845780601f1061175957610100808354040283529160200191611784565b820191906000526020600020905b81548152906001019060200180831161176757829003601f168201915b505050505081565b60018280516020810182018051848252602083016020850120818352809550505050505081815481106117be57600080fd5b9060005260206000209060030201600091509150508060000180546117e2906144c4565b80601f016020809104026020016040519081016040528092919081815260200182805461180e906144c4565b801561185b5780601f106118305761010080835404028352916020019161185b565b820191906000526020600020905b81548152906001019060200180831161183e57829003601f168201915b505050505090806001018054611870906144c4565b80601f016020809104026020016040519081016040528092919081815260200182805461189c906144c4565b80156118e95780601f106118be576101008083540402835291602001916118e9565b820191906000526020600020905b8154815290600101906020018083116118cc57829003601f168201915b5050505050908060020180546118fe906144c4565b80601f016020809104026020016040519081016040528092919081815260200182805461192a906144c4565b80156119775780601f1061194c57610100808354040283529160200191611977565b820191906000526020600020905b81548152906001019060200180831161195a57829003601f168201915b5050505050905083565b60008087604051611992919061444f565b90815260200160405180910390208054905003611c30576000866040516119b9919061444f565b9081526020016040518091039020604051806101000160405280888152602001878152602001868152602001858152602001848152602001838152602001428152602001600067ffffffffffffffff811115611a1857611a17613421565b5b604051908082528060200260200182016040528015611a4b57816020015b6060815260200190600190039081611a365790505b5081525090806001815401808255809150506001900390600052602060002090600d02016000909190919091506000820151816000019081611a8d91906146a1565b506020820151816001019081611aa391906146a1565b506040820151816002019081611ab991906146a1565b506060820151816003019081611acf91906146a1565b506080820151816004019081611ae591906146a1565b5060a0820151816005016000820151816000019081611b0491906146a1565b506020820151816001019081611b1a91906146a1565b506040820151816002019081611b3091906146a1565b506060820151816003019081611b4691906146a1565b506080820151816004019081611b5c91906146a1565b5060a08201518160050160006101000a81548173ffffffffffffffffffffffffffffffffffffffff021916908373ffffffffffffffffffffffffffffffffffffffff16021790555060c08201518160050160146101000a81548163ffffffff021916908363ffffffff160217905550505060c082015181600b015560e082015181600c019080519060200190611bf3929190613274565b505050600286908060018154018082558091505060019003906000526020600020016000909190919091509081611c2a91906146a1565b5061269f565b60008087604051611c41919061444f565b908152602001604051809103902080549050905060008088604051611c66919061444f565b9081526020016040518091039020600183611c819190614856565b81548110611c9257611c91614466565b5b90600052602060002090600d020160405180610100016040529081600082018054611cbc906144c4565b80601f0160208091040260200160405190810160405280929190818152602001828054611ce8906144c4565b8015611d355780601f10611d0a57610100808354040283529160200191611d35565b820191906000526020600020905b815481529060010190602001808311611d1857829003601f168201915b50505050508152602001600182018054611d4e906144c4565b80601f0160208091040260200160405190810160405280929190818152602001828054611d7a906144c4565b8015611dc75780601f10611d9c57610100808354040283529160200191611dc7565b820191906000526020600020905b815481529060010190602001808311611daa57829003601f168201915b50505050508152602001600282018054611de0906144c4565b80601f0160208091040260200160405190810160405280929190818152602001828054611e0c906144c4565b8015611e595780601f10611e2e57610100808354040283529160200191611e59565b820191906000526020600020905b815481529060010190602001808311611e3c57829003601f168201915b50505050508152602001600382018054611e72906144c4565b80601f0160208091040260200160405190810160405280929190818152602001828054611e9e906144c4565b8015611eeb5780601f10611ec057610100808354040283529160200191611eeb565b820191906000526020600020905b815481529060010190602001808311611ece57829003601f168201915b50505050508152602001600482018054611f04906144c4565b80601f0160208091040260200160405190810160405280929190818152602001828054611f30906144c4565b8015611f7d5780601f10611f5257610100808354040283529160200191611f7d565b820191906000526020600020905b815481529060010190602001808311611f6057829003601f168201915b50505050508152602001600582016040518060e0016040529081600082018054611fa6906144c4565b80601f0160208091040260200160405190810160405280929190818152602001828054611fd2906144c4565b801561201f5780601f10611ff45761010080835404028352916020019161201f565b820191906000526020600020905b81548152906001019060200180831161200257829003601f168201915b50505050508152602001600182018054612038906144c4565b80601f0160208091040260200160405190810160405280929190818152602001828054612064906144c4565b80156120b15780601f10612086576101008083540402835291602001916120b1565b820191906000526020600020905b81548152906001019060200180831161209457829003601f168201915b505050505081526020016002820180546120ca906144c4565b80601f01602080910402602001604051908101604052809291908181526020018280546120f6906144c4565b80156121435780601f1061211857610100808354040283529160200191612143565b820191906000526020600020905b81548152906001019060200180831161212657829003601f168201915b5050505050815260200160038201805461215c906144c4565b80601f0160208091040260200160405190810160405280929190818152602001828054612188906144c4565b80156121d55780601f106121aa576101008083540402835291602001916121d5565b820191906000526020600020905b8154815290600101906020018083116121b857829003601f168201915b505050505081526020016004820180546121ee906144c4565b80601f016020809104026020016040519081016040528092919081815260200182805461221a906144c4565b80156122675780601f1061223c57610100808354040283529160200191612267565b820191906000526020600020905b81548152906001019060200180831161224a57829003601f168201915b505050505081526020016005820160009054906101000a900473ffffffffffffffffffffffffffffffffffffffff1673ffffffffffffffffffffffffffffffffffffffff1673ffffffffffffffffffffffffffffffffffffffff1681526020016005820160149054906101000a900463ffffffff1663ffffffff1663ffffffff16815250508152602001600b8201548152602001600c8201805480602002602001604051908101604052809291908181526020016000905b828210156123cb57838290600052602060002001805461233e906144c4565b80601f016020809104026020016040519081016040528092919081815260200182805461236a906144c4565b80156123b75780601f1061238c576101008083540402835291602001916123b7565b820191906000526020600020905b81548152906001019060200180831161239a57829003601f168201915b50505050508152602001906001019061231f565b505050508152505090508260a0015173ffffffffffffffffffffffffffffffffffffffff168160a0015160a0015173ffffffffffffffffffffffffffffffffffffffff161461244f576040517f08c379a0000000000000000000000000000000000000000000000000000000008152600401612446906148d6565b60405180910390fd5b60008860405161245f919061444f565b90815260200160405180910390206040518061010001604052808a8152602001898152602001888152602001878152602001868152602001858152602001428152602001600067ffffffffffffffff8111156124be576124bd613421565b5b6040519080825280602002602001820160405280156124f157816020015b60608152602001906001900390816124dc5790505b5081525090806001815401808255809150506001900390600052602060002090600d0201600090919091909150600082015181600001908161253391906146a1565b50602082015181600101908161254991906146a1565b50604082015181600201908161255f91906146a1565b50606082015181600301908161257591906146a1565b50608082015181600401908161258b91906146a1565b5060a08201518160050160008201518160000190816125aa91906146a1565b5060208201518160010190816125c091906146a1565b5060408201518160020190816125d691906146a1565b5060608201518160030190816125ec91906146a1565b50608082015181600401908161260291906146a1565b5060a08201518160050160006101000a81548173ffffffffffffffffffffffffffffffffffffffff021916908373ffffffffffffffffffffffffffffffffffffffff16021790555060c08201518160050160146101000a81548163ffffffff021916908363ffffffff160217905550505060c082015181600b015560e082015181600c019080519060200190612699929190613274565b50505050505b505050505050565b60606000826040516126b9919061444f565b9081526020016040518091039020805480602002602001604051908101604052809291908181526020016000905b82821015612e4157838290600052602060002090600d02016040518061010001604052908160008201805461271b906144c4565b80601f0160208091040260200160405190810160405280929190818152602001828054612747906144c4565b80156127945780601f1061276957610100808354040283529160200191612794565b820191906000526020600020905b81548152906001019060200180831161277757829003601f168201915b505050505081526020016001820180546127ad906144c4565b80601f01602080910402602001604051908101604052809291908181526020018280546127d9906144c4565b80156128265780601f106127fb57610100808354040283529160200191612826565b820191906000526020600020905b81548152906001019060200180831161280957829003601f168201915b5050505050815260200160028201805461283f906144c4565b80601f016020809104026020016040519081016040528092919081815260200182805461286b906144c4565b80156128b85780601f1061288d576101008083540402835291602001916128b8565b820191906000526020600020905b81548152906001019060200180831161289b57829003601f168201915b505050505081526020016003820180546128d1906144c4565b80601f01602080910402602001604051908101604052809291908181526020018280546128fd906144c4565b801561294a5780601f1061291f5761010080835404028352916020019161294a565b820191906000526020600020905b81548152906001019060200180831161292d57829003601f168201915b50505050508152602001600482018054612963906144c4565b80601f016020809104026020016040519081016040528092919081815260200182805461298f906144c4565b80156129dc5780601f106129b1576101008083540402835291602001916129dc565b820191906000526020600020905b8154815290600101906020018083116129bf57829003601f168201915b50505050508152602001600582016040518060e0016040529081600082018054612a05906144c4565b80601f0160208091040260200160405190810160405280929190818152602001828054612a31906144c4565b8015612a7e5780601f10612a5357610100808354040283529160200191612a7e565b820191906000526020600020905b815481529060010190602001808311612a6157829003601f168201915b50505050508152602001600182018054612a97906144c4565b80601f0160208091040260200160405190810160405280929190818152602001828054612ac3906144c4565b8015612b105780601f10612ae557610100808354040283529160200191612b10565b820191906000526020600020905b815481529060010190602001808311612af357829003601f168201915b50505050508152602001600282018054612b29906144c4565b80601f0160208091040260200160405190810160405280929190818152602001828054612b55906144c4565b8015612ba25780601f10612b7757610100808354040283529160200191612ba2565b820191906000526020600020905b815481529060010190602001808311612b8557829003601f168201915b50505050508152602001600382018054612bbb906144c4565b80601f0160208091040260200160405190810160405280929190818152602001828054612be7906144c4565b8015612c345780601f10612c0957610100808354040283529160200191612c34565b820191906000526020600020905b815481529060010190602001808311612c1757829003601f168201915b50505050508152602001600482018054612c4d906144c4565b80601f0160208091040260200160405190810160405280929190818152602001828054612c79906144c4565b8015612cc65780601f10612c9b57610100808354040283529160200191612cc6565b820191906000526020600020905b815481529060010190602001808311612ca957829003601f168201915b505050505081526020016005820160009054906101000a900473ffffffffffffffffffffffffffffffffffffffff1673ffffffffffffffffffffffffffffffffffffffff1673ffffffffffffffffffffffffffffffffffffffff1681526020016005820160149054906101000a900463ffffffff1663ffffffff1663ffffffff16815250508152602001600b8201548152602001600c8201805480602002602001604051908101604052809291908181526020016000905b82821015612e2a578382906000526020600020018054612d9d906144c4565b80601f0160208091040260200160405190810160405280929190818152602001828054612dc9906144c4565b8015612e165780601f10612deb57610100808354040283529160200191612e16565b820191906000526020600020905b815481529060010190602001808311612df957829003601f168201915b505050505081526020019060010190612d7e565b5050505081525050815260200190600101906126e7565b505050509050919050565b60606002805480602002602001604051908101604052809291908181526020016000905b82821015612f1c578382906000526020600020018054612e8f906144c4565b80601f0160208091040260200160405190810160405280929190818152602001828054612ebb906144c4565b8015612f085780601f10612edd57610100808354040283529160200191612f08565b820191906000526020600020905b815481529060010190602001808311612eeb57829003601f168201915b505050505081526020019060010190612e70565b50505050905090565b6000612f308361086e565b90506000600167ffffffffffffffff811115612f4f57612f4e613421565b5b604051908082528060200260200182016040528015612f8257816020015b6060815260200190600190039081612f6d5790505b509050826000015181600081518110612f9e57612f9d614466565b5b6020026020010181905250600184604051612fb9919061444f565b90815260200160405180910390206040518060600160405280856000015181526020018560200151815260200185604001518152509080600181540180825580915050600190039060005260206000209060030201600090919091909150600082015181600001908161302c91906146a1565b50602082015181600101908161304291906146a1565b50604082015181600201908161305891906146a1565b50505060008460405161306b919061444f565b9081526020016040518091039020604051806101000160405280868152602001846020015181526020018460400151815260200184606001518152602001846080015181526020018460a0015181526020014281526020018381525090806001815401808255809150506001900390600052602060002090600d0201600090919091909150600082015181600001908161310591906146a1565b50602082015181600101908161311b91906146a1565b50604082015181600201908161313191906146a1565b50606082015181600301908161314791906146a1565b50608082015181600401908161315d91906146a1565b5060a082015181600501600082015181600001908161317c91906146a1565b50602082015181600101908161319291906146a1565b5060408201518160020190816131a891906146a1565b5060608201518160030190816131be91906146a1565b5060808201518160040190816131d491906146a1565b5060a08201518160050160006101000a81548173ffffffffffffffffffffffffffffffffffffffff021916908373ffffffffffffffffffffffffffffffffffffffff16021790555060c08201518160050160146101000a81548163ffffffff021916908363ffffffff160217905550505060c082015181600b015560e082015181600c01908051906020019061326b929190613274565b50505050505050565b8280548282559060005260206000209081019282156132bc579160200282015b828111156132bb5782518290816132ab91906146a1565b5091602001919060010190613294565b5b5090506132c99190613318565b5090565b604051806101000160405280606081526020016060815260200160608152602001606081526020016060815260200161330461333c565b815260200160008152602001606081525090565b5b80821115613338576000818161332f9190613395565b50600101613319565b5090565b6040518060e001604052806060815260200160608152602001606081526020016060815260200160608152602001600073ffffffffffffffffffffffffffffffffffffffff168152602001600063ffffffff1681525090565b5080546133a1906144c4565b6000825580601f106133b357506133d2565b601f0160209004906000526020600020908101906133d191906133d5565b5b50565b5b808211156133ee5760008160009055506001016133d6565b5090565b6000604051905090565b600080fd5b600080fd5b600080fd5b600080fd5b6000601f19601f8301169050919050565b7f4e487b7100000000000000000000000000000000000000000000000000000000600052604160045260246000fd5b61345982613410565b810181811067ffffffffffffffff8211171561347857613477613421565b5b80604052505050565b600061348b6133f2565b90506134978282613450565b919050565b600067ffffffffffffffff8211156134b7576134b6613421565b5b6134c082613410565b9050602081019050919050565b82818337600083830152505050565b60006134ef6134ea8461349c565b613481565b90508281526020810184848401111561350b5761350a61340b565b5b6135168482856134cd565b509392505050565b600082601f83011261353357613532613406565b5b81356135438482602086016134dc565b91505092915050565b600067ffffffffffffffff82111561356757613566613421565b5b602082029050602081019050919050565b600080fd5b600080fd5b600080fd5b60006060828403121561359d5761359c61357d565b5b6135a76060613481565b9050600082013567ffffffffffffffff8111156135c7576135c6613582565b5b6135d38482850161351e565b600083015250602082013567ffffffffffffffff8111156135f7576135f6613582565b5b6136038482850161351e565b602083015250604082013567ffffffffffffffff81111561362757613626613582565b5b6136338482850161351e565b60408301525092915050565b600061365261364d8461354c565b613481565b9050808382526020820190506020840283018581111561367557613674613578565b5b835b818110156136bc57803567ffffffffffffffff81111561369a57613699613406565b5b8086016136a78982613587565b85526020850194505050602081019050613677565b5050509392505050565b600082601f8301126136db576136da613406565b5b81356136eb84826020860161363f565b91505092915050565b6000806040838503121561370b5761370a6133fc565b5b600083013567ffffffffffffffff81111561372957613728613401565b5b6137358582860161351e565b925050602083013567ffffffffffffffff81111561375657613755613401565b5b613762858286016136c6565b9150509250929050565b600073ffffffffffffffffffffffffffffffffffffffff82169050919050565b60006137978261376c565b9050919050565b6137a78161378c565b81146137b257600080fd5b50565b6000813590506137c48161379e565b92915050565b600063ffffffff82169050919050565b6137e3816137ca565b81146137ee57600080fd5b50565b600081359050613800816137da565b92915050565b600060e0828403121561381c5761381b61357d565b5b61382660e0613481565b9050600082013567ffffffffffffffff81111561384657613845613582565b5b6138528482850161351e565b600083015250602082013567ffffffffffffffff81111561387657613875613582565b5b6138828482850161351e565b602083015250604082013567ffffffffffffffff8111156138a6576138a5613582565b5b6138b28482850161351e565b604083015250606082013567ffffffffffffffff8111156138d6576138d5613582565b5b6138e28482850161351e565b606083015250608082013567ffffffffffffffff81111561390657613905613582565b5b6139128482850161351e565b60808301525060a0613926848285016137b5565b60a08301525060c061393a848285016137f1565b60c08301525092915050565b6000806040838503121561395d5761395c6133fc565b5b600083013567ffffffffffffffff81111561397b5761397a613401565b5b6139878582860161351e565b925050602083013567ffffffffffffffff8111156139a8576139a7613401565b5b6139b485828601613806565b9150509250929050565b6000602082840312156139d4576139d36133fc565b5b600082013567ffffffffffffffff8111156139f2576139f1613401565b5b6139fe8482850161351e565b91505092915050565b600081519050919050565b600082825260208201905092915050565b60005b83811015613a41578082015181840152602081019050613a26565b60008484015250505050565b6000613a5882613a07565b613a628185613a12565b9350613a72818560208601613a23565b613a7b81613410565b840191505092915050565b613a8f8161378c565b82525050565b613a9e816137ca565b82525050565b600060e0830160008301518482036000860152613ac18282613a4d565b91505060208301518482036020860152613adb8282613a4d565b91505060408301518482036040860152613af58282613a4d565b91505060608301518482036060860152613b0f8282613a4d565b91505060808301518482036080860152613b298282613a4d565b91505060a0830151613b3e60a0860182613a86565b5060c0830151613b5160c0860182613a95565b508091505092915050565b6000819050919050565b613b6f81613b5c565b82525050565b600081519050919050565b600082825260208201905092915050565b6000819050602082019050919050565b6000613bad8383613a4d565b905092915050565b6000602082019050919050565b6000613bcd82613b75565b613bd78185613b80565b935083602082028501613be985613b91565b8060005b85811015613c255784840389528151613c068582613ba1565b9450613c1183613bb5565b925060208a01995050600181019050613bed565b50829750879550505050505092915050565b6000610100830160008301518482036000860152613c558282613a4d565b91505060208301518482036020860152613c6f8282613a4d565b91505060408301518482036040860152613c898282613a4d565b91505060608301518482036060860152613ca38282613a4d565b91505060808301518482036080860152613cbd8282613a4d565b91505060a083015184820360a0860152613cd78282613aa4565b91505060c0830151613cec60c0860182613b66565b5060e083015184820360e0860152613d048282613bc2565b9150508091505092915050565b60006020820190508181036000830152613d2b8184613c37565b905092915050565b613d3c81613b5c565b8114613d4757600080fd5b50565b600081359050613d5981613d33565b92915050565b60008060408385031215613d7657613d756133fc565b5b600083013567ffffffffffffffff811115613d9457613d93613401565b5b613da08582860161351e565b9250506020613db185828601613d4a565b9150509250929050565b600082825260208201905092915050565b6000613dd782613a07565b613de18185613dbb565b9350613df1818560208601613a23565b613dfa81613410565b840191505092915050565b600060e0830160008301518482036000860152613e228282613a4d565b91505060208301518482036020860152613e3c8282613a4d565b91505060408301518482036040860152613e568282613a4d565b91505060608301518482036060860152613e708282613a4d565b91505060808301518482036080860152613e8a8282613a4d565b91505060a0830151613e9f60a0860182613a86565b5060c0830151613eb260c0860182613a95565b508091505092915050565b613ec681613b5c565b82525050565b600060e0820190508181036000830152613ee6818a613dcc565b90508181036020830152613efa8189613dcc565b90508181036040830152613f0e8188613dcc565b90508181036060830152613f228187613dcc565b90508181036080830152613f368186613dcc565b905081810360a0830152613f4a8185613e05565b9050613f5960c0830184613ebd565b98975050505050505050565b600060208284031215613f7b57613f7a6133fc565b5b6000613f8984828501613d4a565b91505092915050565b60006020820190508181036000830152613fac8184613dcc565b905092915050565b60006060820190508181036000830152613fce8186613dcc565b90508181036020830152613fe28185613dcc565b90508181036040830152613ff68184613dcc565b9050949350505050565b60008060008060008060c0878903121561401d5761401c6133fc565b5b600087013567ffffffffffffffff81111561403b5761403a613401565b5b61404789828a0161351e565b965050602087013567ffffffffffffffff81111561406857614067613401565b5b61407489828a0161351e565b955050604087013567ffffffffffffffff81111561409557614094613401565b5b6140a189828a0161351e565b945050606087013567ffffffffffffffff8111156140c2576140c1613401565b5b6140ce89828a0161351e565b935050608087013567ffffffffffffffff8111156140ef576140ee613401565b5b6140fb89828a0161351e565b92505060a087013567ffffffffffffffff81111561411c5761411b613401565b5b61412889828a01613806565b9150509295509295509295565b600081519050919050565b600082825260208201905092915050565b6000819050602082019050919050565b600061010083016000830151848203600086015261417f8282613a4d565b915050602083015184820360208601526141998282613a4d565b915050604083015184820360408601526141b38282613a4d565b915050606083015184820360608601526141cd8282613a4d565b915050608083015184820360808601526141e78282613a4d565b91505060a083015184820360a08601526142018282613aa4565b91505060c083015161421660c0860182613b66565b5060e083015184820360e086015261422e8282613bc2565b9150508091505092915050565b60006142478383614161565b905092915050565b6000602082019050919050565b600061426782614135565b6142718185614140565b93508360208202850161428385614151565b8060005b858110156142bf57848403895281516142a0858261423b565b94506142ab8361424f565b925060208a01995050600181019050614287565b50829750879550505050505092915050565b600060208201905081810360008301526142eb818461425c565b905092915050565b600082825260208201905092915050565b600061430f82613b75565b61431981856142f3565b93508360208202850161432b85613b91565b8060005b8581101561436757848403895281516143488582613ba1565b945061435383613bb5565b925060208a0199505060018101905061432f565b50829750879550505050505092915050565b600060208201905081810360008301526143938184614304565b905092915050565b600080604083850312156143b2576143b16133fc565b5b600083013567ffffffffffffffff8111156143d0576143cf613401565b5b6143dc8582860161351e565b925050602083013567ffffffffffffffff8111156143fd576143fc613401565b5b61440985828601613587565b9150509250929050565b600081905092915050565b600061442982613a07565b6144338185614413565b9350614443818560208601613a23565b80840191505092915050565b600061445b828461441e565b915081905092915050565b7f4e487b7100000000000000000000000000000000000000000000000000000000600052603260045260246000fd5b7f4e487b7100000000000000000000000000000000000000000000000000000000600052602260045260246000fd5b600060028204905060018216806144dc57607f821691505b6020821081036144ef576144ee614495565b5b50919050565b60008190508160005260206000209050919050565b60006020601f8301049050919050565b600082821b905092915050565b6000600883026145577fffffffffffffffffffffffffffffffffffffffffffffffffffffffffffffffff8261451a565b614561868361451a565b95508019841693508086168417925050509392505050565b6000819050919050565b600061459e61459961459484613b5c565b614579565b613b5c565b9050919050565b6000819050919050565b6145b883614583565b6145cc6145c4826145a5565b848454614527565b825550505050565b600090565b6145e16145d4565b6145ec8184846145af565b505050565b5b81811015614610576146056000826145d9565b6001810190506145f2565b5050565b601f82111561465557614626816144f5565b61462f8461450a565b8101602085101561463e578190505b61465261464a8561450a565b8301826145f1565b50505b505050565b600082821c905092915050565b60006146786000198460080261465a565b1980831691505092915050565b60006146918383614667565b9150826002028217905092915050565b6146aa82613a07565b67ffffffffffffffff8111156146c3576146c2613421565b5b6146cd82546144c4565b6146d8828285614614565b600060209050601f83116001811461470b57600084156146f9578287015190505b6147038582614685565b86555061476b565b601f198416614719866144f5565b60005b828110156147415784890151825560018201915060208501945060208101905061471c565b8683101561475e578489015161475a601f891682614667565b8355505b6001600288020188555050505b505050505050565b7f4e487b7100000000000000000000000000000000000000000000000000000000600052601160045260246000fd5b60006147ad82613b5c565b91507fffffffffffffffffffffffffffffffffffffffffffffffffffffffffffffffff82036147df576147de614773565b5b600182019050919050565b7f45766964656e6365206e6f7420666f756e640000000000000000000000000000600082015250565b6000614820601283613dbb565b915061482b826147ea565b602082019050919050565b6000602082019050818103600083015261484f81614813565b9050919050565b600061486182613b5c565b915061486c83613b5c565b925082820390508181111561488457614883614773565b5b92915050565b7f4e6f74204f776e65720000000000000000000000000000000000000000000000600082015250565b60006148c0600983613dbb565b91506148cb8261488a565b602082019050919050565b600060208201905081810360008301526148ef816148b3565b905091905056fea26469706673582212201af25874471eac695d150bcfaec9e4e2364bbb5a670fc5a0c03506db0dbc511c64736f6c63430008130033",
  "immutableReferences": {},
  "source": "pragma solidity ^0.8.0;\r\nimport \"./EntitiesManager.sol\";\r\n\r\ncontract EvidencesManager {\r\n    \r\n    struct EvidenceFile {\r\n        string id;\r\n        string fileName;\r\n        string fileHash;\r\n    }\r\n\r\n    struct Evidence {\r\n        string uniqueCode;\r\n        string caseNo;\r\n        string classification;\r\n        string name;\r\n        string eType;\r\n        EntitiesManager.Entity owner;\r\n        uint256 timestamp;\r\n        string [] uFilesCodes;\r\n    }\r\n\r\n    mapping(string => Evidence[]) public evidencesHistory;\r\n    mapping(string => EvidenceFile[]) public evidencesFiles;\r\n\r\n    string[] public allEvidences;\r\n\r\n    function addEvidence(string memory _evidenceUniqueCode, string memory _caseNo, string memory _classification, string memory _evidenceName, string memory _evidenceType, EntitiesManager.Entity memory _entity) public {\r\n        if (evidencesHistory[_evidenceUniqueCode].length == 0) \r\n        {\r\n            evidencesHistory[_evidenceUniqueCode].push(Evidence(_evidenceUniqueCode, _caseNo, _classification,_evidenceName, _evidenceType, _entity, block.timestamp, new string[](0)));\r\n            allEvidences.push(_evidenceUniqueCode);\r\n        }\r\n        else{\r\n            uint totalVersions = evidencesHistory[_evidenceUniqueCode].length;\r\n            Evidence memory lastEvidence = evidencesHistory[_evidenceUniqueCode][totalVersions - 1];\r\n            require(lastEvidence.owner.entityAddress == _entity.entityAddress, \"Not Owner\");\r\n            evidencesHistory[_evidenceUniqueCode].push(Evidence(_evidenceUniqueCode, _caseNo, _classification,_evidenceName, _evidenceType, _entity, block.timestamp, new string[](0)));\r\n        }\r\n    }\r\n\r\n    // function addEvidence(string memory _evidenceUniqueCode, string memory _caseNo, string memory _classification, string memory _evidenceName, string memory _evidenceType, EntitiesManager.Entity memory _entity, EvidenceFile[] memory _files) public {\r\n        \r\n    //     string[] memory fileIds = new string[](_files.length);\r\n        \r\n    //     for (uint256 i = 0; i < _files.length; i++) {\r\n    //         evidencesFiles[_evidenceUniqueCode].push(EvidenceFile(_files[i].id, _files[i].fileName, _files[i].fileHash));\r\n    //         fileIds[i] = _files[i].id;\r\n    //     }\r\n        \r\n    //     if (evidencesHistory[_evidenceUniqueCode].length == 0) \r\n    //     {\r\n    //         evidencesHistory[_evidenceUniqueCode].push(Evidence(_evidenceUniqueCode, _caseNo, _classification,_evidenceName, _evidenceType, _entity, block.timestamp, fileIds));\r\n    //         allEvidences.push(_evidenceUniqueCode);\r\n    //     }\r\n    //     else{\r\n    //         uint totalVersions = evidencesHistory[_evidenceUniqueCode].length;\r\n    //         Evidence memory lastEvidence = evidencesHistory[_evidenceUniqueCode][totalVersions - 1];\r\n    //         require(lastEvidence.owner.entityAddress == _entity.entityAddress, \"Not Owner\");\r\n    //         evidencesHistory[_evidenceUniqueCode].push(Evidence(_evidenceUniqueCode, _caseNo, _classification,_evidenceName, _evidenceType, _entity, block.timestamp, fileIds));\r\n    //     }\r\n    // }\r\n\r\n    function addFiles(string memory _evidenceUniqueCode, EvidenceFile[] memory _files) public {\r\n        Evidence memory evidence = getLastUpdate(_evidenceUniqueCode);\r\n        string[] memory fileIds = new string[](_files.length);\r\n\r\n        for (uint256 i = 0; i < _files.length; i++) {\r\n            evidencesFiles[_evidenceUniqueCode].push(EvidenceFile(_files[i].id, _files[i].fileName, _files[i].fileHash));\r\n            fileIds[i] = _files[i].id;\r\n        }\r\n\r\n        evidencesHistory[_evidenceUniqueCode].push(Evidence(_evidenceUniqueCode, evidence.caseNo, evidence.classification, evidence.name, evidence.eType, evidence.owner, block.timestamp, fileIds));\r\n    }\r\n\r\n    function addFile(string memory _evidenceUniqueCode, EvidenceFile memory _file) public {\r\n        Evidence memory evidence = getLastUpdate(_evidenceUniqueCode);\r\n        string[] memory fileIds = new string[](1);\r\n        fileIds[0] = _file.id;\r\n        evidencesFiles[_evidenceUniqueCode].push(EvidenceFile(_file.id, _file.fileName, _file.fileHash));\r\n\r\n        evidencesHistory[_evidenceUniqueCode].push(Evidence(_evidenceUniqueCode, evidence.caseNo, evidence.classification, evidence.name, evidence.eType, evidence.owner, block.timestamp, fileIds));\r\n    }\r\n\r\n\r\n    function updateOwner(string memory _evidenceUniqueCode, EntitiesManager.Entity memory _entity)public \r\n    {\r\n        Evidence memory evidence = getLastUpdate(_evidenceUniqueCode);\r\n        evidencesHistory[_evidenceUniqueCode].push(Evidence(_evidenceUniqueCode, evidence.caseNo, evidence.classification, evidence.name, evidence.eType, _entity, block.timestamp, new string[](0)));\r\n    }\r\n\r\n    function getEvidences() public view returns (string[] memory) {\r\n        return allEvidences;\r\n    }\r\n\r\n    function getEvidenceHistory(string memory _evidenceUniqueCode) public view returns (Evidence[] memory) {\r\n        return evidencesHistory[_evidenceUniqueCode];\r\n    }\r\n\r\n    function getLastUpdate (string memory _evidenceUniqueCode) public view returns (Evidence memory) {\r\n        uint totalVersions = evidencesHistory[_evidenceUniqueCode].length;\r\n        require(totalVersions > 0, \"Evidence not found\");\r\n\r\n        return evidencesHistory[_evidenceUniqueCode][totalVersions - 1];\r\n    }\r\n}",
  "sourcePath": "C:\\IPCA DISSERTAO\\evidences_dapp\\contracts\\EvidencesManager.sol",
  "compiler": {
    "name": "solc",
    "version": "0.8.19+commit.7dd6d404.Emscripten.clang"
  },
  "schemaVersion": "3.4.13",
  "updatedAt": "2023-08-28T19:18:46.632Z",
  "networkType": "ethereum",
  "devdoc": {
    "kind": "dev",
    "methods": {},
    "version": 1
  },
  "userdoc": {
    "kind": "user",
    "methods": {},
    "version": 1
  }
}