{
  "contractName": "EvidenceChain",
  "abi": [
    {
      "inputs": [
        {
          "internalType": "address",
          "name": "_entitiesManagerAddress",
          "type": "address"
        },
        {
          "internalType": "address",
          "name": "_evidencesManagerAddress",
          "type": "address"
        }
      ],
      "stateMutability": "nonpayable",
      "type": "constructor"
    },
    {
      "anonymous": false,
      "inputs": [
        {
          "indexed": true,
          "internalType": "uint32",
          "name": "evidenceId",
          "type": "uint32"
        }
      ],
      "name": "EvidenceAdded",
      "type": "event"
    },
    {
      "anonymous": false,
      "inputs": [
        {
          "indexed": true,
          "internalType": "uint32",
          "name": "userId",
          "type": "uint32"
        }
      ],
      "name": "ParticipantAdded",
      "type": "event"
    },
    {
      "anonymous": false,
      "inputs": [
        {
          "indexed": false,
          "internalType": "uint32",
          "name": "evidenceId",
          "type": "uint32"
        }
      ],
      "name": "TransferOwnership",
      "type": "event"
    },
    {
      "inputs": [],
      "name": "entitiesManager",
      "outputs": [
        {
          "internalType": "contract EntitiesManager",
          "name": "",
          "type": "address"
        }
      ],
      "stateMutability": "view",
      "type": "function",
      "constant": true
    },
    {
      "inputs": [
        {
          "internalType": "uint32",
          "name": "",
          "type": "uint32"
        },
        {
          "internalType": "uint256",
          "name": "",
          "type": "uint256"
        }
      ],
      "name": "evidenceTrack",
      "outputs": [
        {
          "internalType": "uint32",
          "name": "",
          "type": "uint32"
        }
      ],
      "stateMutability": "view",
      "type": "function",
      "constant": true
    },
    {
      "inputs": [],
      "name": "evidencesManager",
      "outputs": [
        {
          "internalType": "contract EvidencesManager",
          "name": "",
          "type": "address"
        }
      ],
      "stateMutability": "view",
      "type": "function",
      "constant": true
    },
    {
      "inputs": [],
      "name": "owner_id",
      "outputs": [
        {
          "internalType": "uint32",
          "name": "",
          "type": "uint32"
        }
      ],
      "stateMutability": "view",
      "type": "function",
      "constant": true
    },
    {
      "inputs": [
        {
          "internalType": "uint32",
          "name": "",
          "type": "uint32"
        }
      ],
      "name": "ownerships",
      "outputs": [
        {
          "internalType": "uint32",
          "name": "evidenceId",
          "type": "uint32"
        },
        {
          "internalType": "uint32",
          "name": "ownerId",
          "type": "uint32"
        },
        {
          "internalType": "uint32",
          "name": "trxTimeStamp",
          "type": "uint32"
        },
        {
          "internalType": "address",
          "name": "evidenceOwner",
          "type": "address"
        }
      ],
      "stateMutability": "view",
      "type": "function",
      "constant": true
    },
    {
      "inputs": [
        {
          "internalType": "address",
          "name": "_entity",
          "type": "address"
        },
        {
          "internalType": "string",
          "name": "_userName",
          "type": "string"
        },
        {
          "internalType": "string",
          "name": "_password",
          "type": "string"
        },
        {
          "internalType": "string",
          "name": "_name",
          "type": "string"
        },
        {
          "internalType": "string",
          "name": "_departmentCode",
          "type": "string"
        },
        {
          "internalType": "string",
          "name": "_entityType",
          "type": "string"
        }
      ],
      "name": "addEntity",
      "outputs": [],
      "stateMutability": "nonpayable",
      "type": "function"
    },
    {
      "inputs": [],
      "name": "getEntities",
      "outputs": [
        {
          "components": [
            {
              "internalType": "string",
              "name": "userName",
              "type": "string"
            },
            {
              "internalType": "string",
              "name": "password",
              "type": "string"
            },
            {
              "internalType": "string",
              "name": "name",
              "type": "string"
            },
            {
              "internalType": "string",
              "name": "departmentCode",
              "type": "string"
            },
            {
              "internalType": "string",
              "name": "entityType",
              "type": "string"
            },
            {
              "internalType": "address",
              "name": "entityAddress",
              "type": "address"
            },
            {
              "internalType": "uint32",
              "name": "timestamp",
              "type": "uint32"
            }
          ],
          "internalType": "struct EntitiesManager.Entity[]",
          "name": "",
          "type": "tuple[]"
        }
      ],
      "stateMutability": "view",
      "type": "function",
      "constant": true
    },
    {
      "inputs": [
        {
          "internalType": "address",
          "name": "_entity",
          "type": "address"
        }
      ],
      "name": "getEntityHistory",
      "outputs": [
        {
          "components": [
            {
              "internalType": "string",
              "name": "userName",
              "type": "string"
            },
            {
              "internalType": "string",
              "name": "password",
              "type": "string"
            },
            {
              "internalType": "string",
              "name": "name",
              "type": "string"
            },
            {
              "internalType": "string",
              "name": "departmentCode",
              "type": "string"
            },
            {
              "internalType": "string",
              "name": "entityType",
              "type": "string"
            },
            {
              "internalType": "address",
              "name": "entityAddress",
              "type": "address"
            },
            {
              "internalType": "uint32",
              "name": "timestamp",
              "type": "uint32"
            }
          ],
          "internalType": "struct EntitiesManager.Entity[]",
          "name": "",
          "type": "tuple[]"
        }
      ],
      "stateMutability": "view",
      "type": "function",
      "constant": true
    },
    {
      "inputs": [],
      "name": "getEntityHistory",
      "outputs": [
        {
          "components": [
            {
              "internalType": "string",
              "name": "userName",
              "type": "string"
            },
            {
              "internalType": "string",
              "name": "password",
              "type": "string"
            },
            {
              "internalType": "string",
              "name": "name",
              "type": "string"
            },
            {
              "internalType": "string",
              "name": "departmentCode",
              "type": "string"
            },
            {
              "internalType": "string",
              "name": "entityType",
              "type": "string"
            },
            {
              "internalType": "address",
              "name": "entityAddress",
              "type": "address"
            },
            {
              "internalType": "uint32",
              "name": "timestamp",
              "type": "uint32"
            }
          ],
          "internalType": "struct EntitiesManager.Entity[]",
          "name": "",
          "type": "tuple[]"
        }
      ],
      "stateMutability": "view",
      "type": "function",
      "constant": true
    },
    {
      "inputs": [
        {
          "internalType": "address",
          "name": "_entity",
          "type": "address"
        }
      ],
      "name": "getEntity",
      "outputs": [
        {
          "components": [
            {
              "internalType": "string",
              "name": "userName",
              "type": "string"
            },
            {
              "internalType": "string",
              "name": "password",
              "type": "string"
            },
            {
              "internalType": "string",
              "name": "name",
              "type": "string"
            },
            {
              "internalType": "string",
              "name": "departmentCode",
              "type": "string"
            },
            {
              "internalType": "string",
              "name": "entityType",
              "type": "string"
            },
            {
              "internalType": "address",
              "name": "entityAddress",
              "type": "address"
            },
            {
              "internalType": "uint32",
              "name": "timestamp",
              "type": "uint32"
            }
          ],
          "internalType": "struct EntitiesManager.Entity",
          "name": "",
          "type": "tuple"
        }
      ],
      "stateMutability": "view",
      "type": "function",
      "constant": true
    },
    {
      "inputs": [],
      "name": "getEntity",
      "outputs": [
        {
          "components": [
            {
              "internalType": "string",
              "name": "userName",
              "type": "string"
            },
            {
              "internalType": "string",
              "name": "password",
              "type": "string"
            },
            {
              "internalType": "string",
              "name": "name",
              "type": "string"
            },
            {
              "internalType": "string",
              "name": "departmentCode",
              "type": "string"
            },
            {
              "internalType": "string",
              "name": "entityType",
              "type": "string"
            },
            {
              "internalType": "address",
              "name": "entityAddress",
              "type": "address"
            },
            {
              "internalType": "uint32",
              "name": "timestamp",
              "type": "uint32"
            }
          ],
          "internalType": "struct EntitiesManager.Entity",
          "name": "",
          "type": "tuple"
        }
      ],
      "stateMutability": "view",
      "type": "function",
      "constant": true
    },
    {
      "inputs": [
        {
          "internalType": "string",
          "name": "_uname",
          "type": "string"
        },
        {
          "internalType": "string",
          "name": "_pass",
          "type": "string"
        }
      ],
      "name": "authenticateEntity",
      "outputs": [
        {
          "internalType": "bool",
          "name": "",
          "type": "bool"
        }
      ],
      "stateMutability": "view",
      "type": "function",
      "constant": true
    },
    {
      "inputs": [
        {
          "internalType": "string",
          "name": "_evidenceUniqueCode",
          "type": "string"
        },
        {
          "internalType": "string",
          "name": "_caseNo",
          "type": "string"
        },
        {
          "internalType": "string",
          "name": "_classification",
          "type": "string"
        },
        {
          "internalType": "string",
          "name": "_evidenceName",
          "type": "string"
        },
        {
          "internalType": "string",
          "name": "_evidenceType",
          "type": "string"
        }
      ],
      "name": "addEvidence",
      "outputs": [],
      "stateMutability": "nonpayable",
      "type": "function"
    },
    {
      "inputs": [],
      "name": "getEvidences",
      "outputs": [
        {
          "components": [
            {
              "internalType": "string",
              "name": "uniqueCode",
              "type": "string"
            },
            {
              "internalType": "string",
              "name": "caseNo",
              "type": "string"
            },
            {
              "internalType": "string",
              "name": "classification",
              "type": "string"
            },
            {
              "internalType": "string",
              "name": "name",
              "type": "string"
            },
            {
              "internalType": "string",
              "name": "eType",
              "type": "string"
            },
            {
              "components": [
                {
                  "internalType": "string",
                  "name": "userName",
                  "type": "string"
                },
                {
                  "internalType": "string",
                  "name": "password",
                  "type": "string"
                },
                {
                  "internalType": "string",
                  "name": "name",
                  "type": "string"
                },
                {
                  "internalType": "string",
                  "name": "departmentCode",
                  "type": "string"
                },
                {
                  "internalType": "string",
                  "name": "entityType",
                  "type": "string"
                },
                {
                  "internalType": "address",
                  "name": "entityAddress",
                  "type": "address"
                },
                {
                  "internalType": "uint32",
                  "name": "timestamp",
                  "type": "uint32"
                }
              ],
              "internalType": "struct EntitiesManager.Entity",
              "name": "owner",
              "type": "tuple"
            },
            {
              "internalType": "uint256",
              "name": "timestamp",
              "type": "uint256"
            },
            {
              "internalType": "string[]",
              "name": "uFilesCodes",
              "type": "string[]"
            }
          ],
          "internalType": "struct EvidencesManager.Evidence[]",
          "name": "",
          "type": "tuple[]"
        }
      ],
      "stateMutability": "view",
      "type": "function",
      "constant": true
    },
    {
      "inputs": [
        {
          "internalType": "string",
          "name": "_evidenceUniqueCode",
          "type": "string"
        }
      ],
      "name": "getEvidenceHistory",
      "outputs": [
        {
          "components": [
            {
              "internalType": "string",
              "name": "uniqueCode",
              "type": "string"
            },
            {
              "internalType": "string",
              "name": "caseNo",
              "type": "string"
            },
            {
              "internalType": "string",
              "name": "classification",
              "type": "string"
            },
            {
              "internalType": "string",
              "name": "name",
              "type": "string"
            },
            {
              "internalType": "string",
              "name": "eType",
              "type": "string"
            },
            {
              "components": [
                {
                  "internalType": "string",
                  "name": "userName",
                  "type": "string"
                },
                {
                  "internalType": "string",
                  "name": "password",
                  "type": "string"
                },
                {
                  "internalType": "string",
                  "name": "name",
                  "type": "string"
                },
                {
                  "internalType": "string",
                  "name": "departmentCode",
                  "type": "string"
                },
                {
                  "internalType": "string",
                  "name": "entityType",
                  "type": "string"
                },
                {
                  "internalType": "address",
                  "name": "entityAddress",
                  "type": "address"
                },
                {
                  "internalType": "uint32",
                  "name": "timestamp",
                  "type": "uint32"
                }
              ],
              "internalType": "struct EntitiesManager.Entity",
              "name": "owner",
              "type": "tuple"
            },
            {
              "internalType": "uint256",
              "name": "timestamp",
              "type": "uint256"
            },
            {
              "internalType": "string[]",
              "name": "uFilesCodes",
              "type": "string[]"
            }
          ],
          "internalType": "struct EvidencesManager.Evidence[]",
          "name": "",
          "type": "tuple[]"
        }
      ],
      "stateMutability": "view",
      "type": "function",
      "constant": true
    },
    {
      "inputs": [
        {
          "internalType": "string",
          "name": "_evidenceUniqueCode",
          "type": "string"
        }
      ],
      "name": "getEvidence",
      "outputs": [
        {
          "components": [
            {
              "internalType": "string",
              "name": "uniqueCode",
              "type": "string"
            },
            {
              "internalType": "string",
              "name": "caseNo",
              "type": "string"
            },
            {
              "internalType": "string",
              "name": "classification",
              "type": "string"
            },
            {
              "internalType": "string",
              "name": "name",
              "type": "string"
            },
            {
              "internalType": "string",
              "name": "eType",
              "type": "string"
            },
            {
              "components": [
                {
                  "internalType": "string",
                  "name": "userName",
                  "type": "string"
                },
                {
                  "internalType": "string",
                  "name": "password",
                  "type": "string"
                },
                {
                  "internalType": "string",
                  "name": "name",
                  "type": "string"
                },
                {
                  "internalType": "string",
                  "name": "departmentCode",
                  "type": "string"
                },
                {
                  "internalType": "string",
                  "name": "entityType",
                  "type": "string"
                },
                {
                  "internalType": "address",
                  "name": "entityAddress",
                  "type": "address"
                },
                {
                  "internalType": "uint32",
                  "name": "timestamp",
                  "type": "uint32"
                }
              ],
              "internalType": "struct EntitiesManager.Entity",
              "name": "owner",
              "type": "tuple"
            },
            {
              "internalType": "uint256",
              "name": "timestamp",
              "type": "uint256"
            },
            {
              "internalType": "string[]",
              "name": "uFilesCodes",
              "type": "string[]"
            }
          ],
          "internalType": "struct EvidencesManager.Evidence",
          "name": "",
          "type": "tuple"
        }
      ],
      "stateMutability": "view",
      "type": "function",
      "constant": true
    },
    {
      "inputs": [
        {
          "internalType": "string",
          "name": "_evidenceUniqueCode",
          "type": "string"
        },
        {
          "internalType": "address",
          "name": "_newOwner",
          "type": "address"
        }
      ],
      "name": "evidenceNewOwner",
      "outputs": [],
      "stateMutability": "nonpayable",
      "type": "function"
    },
    {
      "inputs": [
        {
          "internalType": "string",
          "name": "_evidenceUniqueCode",
          "type": "string"
        },
        {
          "internalType": "string",
          "name": "_fileId",
          "type": "string"
        },
        {
          "internalType": "string",
          "name": "_fileName",
          "type": "string"
        },
        {
          "internalType": "string",
          "name": "_fileHash",
          "type": "string"
        }
      ],
      "name": "addFile",
      "outputs": [],
      "stateMutability": "nonpayable",
      "type": "function"
    },
    {
      "inputs": [
        {
          "internalType": "uint32",
          "name": "_evidenceId",
          "type": "uint32"
        }
      ],
      "name": "getProvenance",
      "outputs": [
        {
          "internalType": "uint32[]",
          "name": "",
          "type": "uint32[]"
        }
      ],
      "stateMutability": "view",
      "type": "function",
      "constant": true
    },
    {
      "inputs": [
        {
          "internalType": "uint32",
          "name": "_regId",
          "type": "uint32"
        }
      ],
      "name": "getOwnership",
      "outputs": [
        {
          "internalType": "uint32",
          "name": "",
          "type": "uint32"
        },
        {
          "internalType": "uint32",
          "name": "",
          "type": "uint32"
        },
        {
          "internalType": "address",
          "name": "",
          "type": "address"
        },
        {
          "internalType": "uint32",
          "name": "",
          "type": "uint32"
        }
      ],
      "stateMutability": "view",
      "type": "function",
      "constant": true
    }
  ],
  "bytecode": "0x60806040526000600160146101000a81548163ffffffff021916908363ffffffff1602179055503480156200003357600080fd5b50604051620037b4380380620037b483398181016040528101906200005991906200014c565b816000806101000a81548173ffffffffffffffffffffffffffffffffffffffff021916908373ffffffffffffffffffffffffffffffffffffffff16021790555080600160006101000a81548173ffffffffffffffffffffffffffffffffffffffff021916908373ffffffffffffffffffffffffffffffffffffffff160217905550505062000193565b600080fd5b600073ffffffffffffffffffffffffffffffffffffffff82169050919050565b60006200011482620000e7565b9050919050565b620001268162000107565b81146200013257600080fd5b50565b60008151905062000146816200011b565b92915050565b60008060408385031215620001665762000165620000e2565b5b6000620001768582860162000135565b9250506020620001898582860162000135565b9150509250929050565b61361180620001a36000396000f3fe608060405234801561001057600080fd5b506004361061012c5760003560e01c80638f5ebf71116100ad578063c892522e11610071578063c892522e1461036c578063df6d23f11461039c578063dff95aac146103cf578063e3271cf9146103ed578063ff200d2b1461040b5761012c565b80638f5ebf71146102b65780639dce4667146102d4578063b16c6ee7146102f0578063c6a22c4114610320578063c85695651461033c5761012c565b80635f067db0116100f45780635f067db0146101fb57806375894e8c1461021757806381e15610146102475780638b57d9841461027a5780638cb58fc1146102985761012c565b80631252a0831461013157806328320e1c1461014d57806331b933b91461017d57806331eb897f1461019b5780635760620b146101cb575b600080fd5b61014b60048036038101906101469190611a06565b610429565b005b61016760048036038101906101629190611b1f565b6104c6565b6040516101749190611d73565b60405180910390f35b61018561056e565b6040516101929190611d73565b60405180910390f35b6101b560048036038101906101b09190611d95565b6107b7565b6040516101c29190611e28565b60405180910390f35b6101e560048036038101906101e09190611ea5565b610920565b6040516101f29190611ef4565b60405180910390f35b61021560048036038101906102109190611f0f565b610969565b005b610231600480360381019061022c9190611b1f565b610b3c565b60405161023e919061209e565b60405180910390f35b610261600480360381019061025c91906120c0565b610bea565b60405161027194939291906120fc565b60405180910390f35b610282610c6a565b60405161028f9190611d73565b60405180910390f35b6102a0610d10565b6040516102ad91906121a0565b60405180910390f35b6102be610d36565b6040516102cb9190611ef4565b60405180910390f35b6102ee60048036038101906102e991906121bb565b610d4c565b005b61030a600480360381019061030591906122c2565b610f1b565b60405161031791906124b6565b60405180910390f35b61033a600480360381019061033591906124d8565b610fcb565b005b610356600480360381019061035191906120c0565b611221565b60405161036391906125e3565b60405180910390f35b610386600480360381019061038191906122c2565b6112c4565b60405161039391906127a1565b60405180910390f35b6103b660048036038101906103b191906120c0565b61136e565b6040516103c694939291906127c3565b60405180910390f35b6103d761148e565b6040516103e491906127a1565b60405180910390f35b6103f56116da565b6040516104029190612829565b60405180910390f35b6104136116fe565b604051610420919061209e565b60405180910390f35b60008054906101000a900473ffffffffffffffffffffffffffffffffffffffff1673ffffffffffffffffffffffffffffffffffffffff16631252a0838787878787876040518763ffffffff1660e01b815260040161048c9695949392919061288e565b600060405180830381600087803b1580156104a657600080fd5b505af11580156104ba573d6000803e3d6000fd5b50505050505050505050565b606060008054906101000a900473ffffffffffffffffffffffffffffffffffffffff1673ffffffffffffffffffffffffffffffffffffffff166328320e1c836040518263ffffffff1660e01b81526004016105219190612912565b600060405180830381865afa15801561053e573d6000803e3d6000fd5b505050506040513d6000823e3d601f19601f820116820180604052508101906105679190612bf7565b9050919050565b606060008060009054906101000a900473ffffffffffffffffffffffffffffffffffffffff1673ffffffffffffffffffffffffffffffffffffffff166331b933b96040518163ffffffff1660e01b8152600401600060405180830381865afa1580156105de573d6000803e3d6000fd5b505050506040513d6000823e3d601f19601f820116820180604052508101906106079190612d03565b9050600081511161064d576040517f08c379a000000000000000000000000000000000000000000000000000000000815260040161064490612d98565b60405180910390fd5b6000815167ffffffffffffffff81111561066a576106696118db565b5b6040519080825280602002602001820160405280156106a357816020015b6106906117aa565b8152602001906001900390816106885790505b50905060005b82518163ffffffff1610156107ae5760008054906101000a900473ffffffffffffffffffffffffffffffffffffffff1673ffffffffffffffffffffffffffffffffffffffff16635a7e1989848363ffffffff168151811061070d5761070c612db8565b5b60200260200101516040518263ffffffff1660e01b81526004016107319190612912565b600060405180830381865afa15801561074e573d6000803e3d6000fd5b505050506040513d6000823e3d601f19601f820116820180604052508101906107779190612de7565b828263ffffffff16815181106107905761078f612db8565b5b602002602001018190525080806107a690612e5f565b9150506106a9565b50809250505090565b60008060008054906101000a900473ffffffffffffffffffffffffffffffffffffffff1673ffffffffffffffffffffffffffffffffffffffff16635a7e1989336040518263ffffffff1660e01b81526004016108139190612912565b600060405180830381865afa158015610830573d6000803e3d6000fd5b505050506040513d6000823e3d601f19601f820116820180604052508101906108599190612de7565b90508360405160200161086c9190612ec7565b6040516020818303038152906040528051906020012081600001516040516020016108979190612ec7565b604051602081830303815290604052805190602001200361091457826040516020016108c39190612ec7565b6040516020818303038152906040528051906020012081602001516040516020016108ee9190612ec7565b604051602081830303815290604052805190602001200361091357600191505061091a565b5b60009150505b92915050565b6003602052816000526040600020818154811061093c57600080fd5b9060005260206000209060089182820401919006600402915091509054906101000a900463ffffffff1681565b836000600160009054906101000a900473ffffffffffffffffffffffffffffffffffffffff1673ffffffffffffffffffffffffffffffffffffffff16633eeb568b836040518263ffffffff1660e01b81526004016109c79190612ede565b600060405180830381865afa1580156109e4573d6000803e3d6000fd5b505050506040513d6000823e3d601f19601f82011682018060405250810190610a0d9190613184565b90508060a0015160a0015173ffffffffffffffffffffffffffffffffffffffff163373ffffffffffffffffffffffffffffffffffffffff1614610a85576040517f08c379a0000000000000000000000000000000000000000000000000000000008152600401610a7c90613219565b60405180910390fd5b60006040518060600160405280878152602001868152602001858152509050600160009054906101000a900473ffffffffffffffffffffffffffffffffffffffff1673ffffffffffffffffffffffffffffffffffffffff1663e634926e88836040518363ffffffff1660e01b8152600401610b01929190613297565b600060405180830381600087803b158015610b1b57600080fd5b505af1158015610b2f573d6000803e3d6000fd5b5050505050505050505050565b610b446117aa565b60008054906101000a900473ffffffffffffffffffffffffffffffffffffffff1673ffffffffffffffffffffffffffffffffffffffff16635a7e1989836040518263ffffffff1660e01b8152600401610b9d9190612912565b600060405180830381865afa158015610bba573d6000803e3d6000fd5b505050506040513d6000823e3d601f19601f82011682018060405250810190610be39190612de7565b9050919050565b60026020528060005260406000206000915090508060000160009054906101000a900463ffffffff16908060000160049054906101000a900463ffffffff16908060000160089054906101000a900463ffffffff169080600001600c9054906101000a900473ffffffffffffffffffffffffffffffffffffffff16905084565b606060008054906101000a900473ffffffffffffffffffffffffffffffffffffffff1673ffffffffffffffffffffffffffffffffffffffff166328320e1c336040518263ffffffff1660e01b8152600401610cc59190612912565b600060405180830381865afa158015610ce2573d6000803e3d6000fd5b505050506040513d6000823e3d601f19601f82011682018060405250810190610d0b9190612bf7565b905090565b600160009054906101000a900473ffffffffffffffffffffffffffffffffffffffff1681565b600160149054906101000a900463ffffffff1681565b60008060009054906101000a900473ffffffffffffffffffffffffffffffffffffffff1673ffffffffffffffffffffffffffffffffffffffff16635a7e1989336040518263ffffffff1660e01b8152600401610da89190612912565b600060405180830381865afa158015610dc5573d6000803e3d6000fd5b505050506040513d6000823e3d601f19601f82011682018060405250810190610dee9190612de7565b90507fe419ba2484d9efb5ea120ea8d8b86dc666551db29ed65e4d8c975262e7a9c3658160800151604051602001610e269190612ec7565b6040516020818303038152906040528051906020012014610e7c576040517f08c379a0000000000000000000000000000000000000000000000000000000008152600401610e739061331a565b60405180910390fd5b600160009054906101000a900473ffffffffffffffffffffffffffffffffffffffff1673ffffffffffffffffffffffffffffffffffffffff1663acf51e058787878787876040518763ffffffff1660e01b8152600401610ee19695949392919061333a565b600060405180830381600087803b158015610efb57600080fd5b505af1158015610f0f573d6000803e3d6000fd5b50505050505050505050565b610f23611803565b600160009054906101000a900473ffffffffffffffffffffffffffffffffffffffff1673ffffffffffffffffffffffffffffffffffffffff16633eeb568b836040518263ffffffff1660e01b8152600401610f7e9190612ede565b600060405180830381865afa158015610f9b573d6000803e3d6000fd5b505050506040513d6000823e3d601f19601f82011682018060405250810190610fc49190613184565b9050919050565b816000600160009054906101000a900473ffffffffffffffffffffffffffffffffffffffff1673ffffffffffffffffffffffffffffffffffffffff16633eeb568b836040518263ffffffff1660e01b81526004016110299190612ede565b600060405180830381865afa158015611046573d6000803e3d6000fd5b505050506040513d6000823e3d601f19601f8201168201806040525081019061106f9190613184565b90508060a0015160a0015173ffffffffffffffffffffffffffffffffffffffff163373ffffffffffffffffffffffffffffffffffffffff16146110e7576040517f08c379a00000000000000000000000000000000000000000000000000000000081526004016110de90613219565b60405180910390fd5b60008060009054906101000a900473ffffffffffffffffffffffffffffffffffffffff1673ffffffffffffffffffffffffffffffffffffffff16635a7e1989856040518263ffffffff1660e01b81526004016111439190612912565b600060405180830381865afa158015611160573d6000803e3d6000fd5b505050506040513d6000823e3d601f19601f820116820180604052508101906111899190612de7565b9050600160009054906101000a900473ffffffffffffffffffffffffffffffffffffffff1673ffffffffffffffffffffffffffffffffffffffff16633c39a36386836040518363ffffffff1660e01b81526004016111e89291906133c5565b600060405180830381600087803b15801561120257600080fd5b505af1158015611216573d6000803e3d6000fd5b505050505050505050565b6060600360008363ffffffff1663ffffffff1681526020019081526020016000208054806020026020016040519081016040528092919081815260200182805480156112b857602002820191906000526020600020906000905b82829054906101000a900463ffffffff1663ffffffff168152602001906004019060208260030104928301926001038202915080841161127b5790505b50505050509050919050565b6060600160009054906101000a900473ffffffffffffffffffffffffffffffffffffffff1673ffffffffffffffffffffffffffffffffffffffff1663c892522e836040518263ffffffff1660e01b81526004016113219190612ede565b600060405180830381865afa15801561133e573d6000803e3d6000fd5b505050506040513d6000823e3d601f19601f8201168201806040525081019061136791906134dd565b9050919050565b6000806000806000600260008763ffffffff1663ffffffff1681526020019081526020016000206040518060800160405290816000820160009054906101000a900463ffffffff1663ffffffff1663ffffffff1681526020016000820160049054906101000a900463ffffffff1663ffffffff1663ffffffff1681526020016000820160089054906101000a900463ffffffff1663ffffffff1663ffffffff16815260200160008201600c9054906101000a900473ffffffffffffffffffffffffffffffffffffffff1673ffffffffffffffffffffffffffffffffffffffff1673ffffffffffffffffffffffffffffffffffffffff1681525050905080600001518160200151826060015183604001519450945094509450509193509193565b60606000600160009054906101000a900473ffffffffffffffffffffffffffffffffffffffff1673ffffffffffffffffffffffffffffffffffffffff1663dff95aac6040518163ffffffff1660e01b8152600401600060405180830381865afa1580156114ff573d6000803e3d6000fd5b505050506040513d6000823e3d601f19601f820116820180604052508101906115289190613526565b9050600081511161156e576040517f08c379a0000000000000000000000000000000000000000000000000000000008152600401611565906135bb565b60405180910390fd5b6000815167ffffffffffffffff81111561158b5761158a6118db565b5b6040519080825280602002602001820160405280156115c457816020015b6115b1611803565b8152602001906001900390816115a95790505b50905060005b82518163ffffffff1610156116d157600160009054906101000a900473ffffffffffffffffffffffffffffffffffffffff1673ffffffffffffffffffffffffffffffffffffffff16633eeb568b848363ffffffff16815181106116305761162f612db8565b5b60200260200101516040518263ffffffff1660e01b81526004016116549190612ede565b600060405180830381865afa158015611671573d6000803e3d6000fd5b505050506040513d6000823e3d601f19601f8201168201806040525081019061169a9190613184565b828263ffffffff16815181106116b3576116b2612db8565b5b602002602001018190525080806116c990612e5f565b9150506115ca565b50809250505090565b60008054906101000a900473ffffffffffffffffffffffffffffffffffffffff1681565b6117066117aa565b60008054906101000a900473ffffffffffffffffffffffffffffffffffffffff1673ffffffffffffffffffffffffffffffffffffffff16635a7e1989336040518263ffffffff1660e01b815260040161175f9190612912565b600060405180830381865afa15801561177c573d6000803e3d6000fd5b505050506040513d6000823e3d601f19601f820116820180604052508101906117a59190612de7565b905090565b6040518060e001604052806060815260200160608152602001606081526020016060815260200160608152602001600073ffffffffffffffffffffffffffffffffffffffff168152602001600063ffffffff1681525090565b604051806101000160405280606081526020016060815260200160608152602001606081526020016060815260200161183a6117aa565b815260200160008152602001606081525090565b6000604051905090565b600080fd5b600080fd5b600073ffffffffffffffffffffffffffffffffffffffff82169050919050565b600061188d82611862565b9050919050565b61189d81611882565b81146118a857600080fd5b50565b6000813590506118ba81611894565b92915050565b600080fd5b600080fd5b6000601f19601f8301169050919050565b7f4e487b7100000000000000000000000000000000000000000000000000000000600052604160045260246000fd5b611913826118ca565b810181811067ffffffffffffffff82111715611932576119316118db565b5b80604052505050565b600061194561184e565b9050611951828261190a565b919050565b600067ffffffffffffffff821115611971576119706118db565b5b61197a826118ca565b9050602081019050919050565b82818337600083830152505050565b60006119a96119a484611956565b61193b565b9050828152602081018484840111156119c5576119c46118c5565b5b6119d0848285611987565b509392505050565b600082601f8301126119ed576119ec6118c0565b5b81356119fd848260208601611996565b91505092915050565b60008060008060008060c08789031215611a2357611a22611858565b5b6000611a3189828a016118ab565b965050602087013567ffffffffffffffff811115611a5257611a5161185d565b5b611a5e89828a016119d8565b955050604087013567ffffffffffffffff811115611a7f57611a7e61185d565b5b611a8b89828a016119d8565b945050606087013567ffffffffffffffff811115611aac57611aab61185d565b5b611ab889828a016119d8565b935050608087013567ffffffffffffffff811115611ad957611ad861185d565b5b611ae589828a016119d8565b92505060a087013567ffffffffffffffff811115611b0657611b0561185d565b5b611b1289828a016119d8565b9150509295509295509295565b600060208284031215611b3557611b34611858565b5b6000611b43848285016118ab565b91505092915050565b600081519050919050565b600082825260208201905092915050565b6000819050602082019050919050565b600081519050919050565b600082825260208201905092915050565b60005b83811015611bb2578082015181840152602081019050611b97565b60008484015250505050565b6000611bc982611b78565b611bd38185611b83565b9350611be3818560208601611b94565b611bec816118ca565b840191505092915050565b611c0081611882565b82525050565b600063ffffffff82169050919050565b611c1f81611c06565b82525050565b600060e0830160008301518482036000860152611c428282611bbe565b91505060208301518482036020860152611c5c8282611bbe565b91505060408301518482036040860152611c768282611bbe565b91505060608301518482036060860152611c908282611bbe565b91505060808301518482036080860152611caa8282611bbe565b91505060a0830151611cbf60a0860182611bf7565b5060c0830151611cd260c0860182611c16565b508091505092915050565b6000611ce98383611c25565b905092915050565b6000602082019050919050565b6000611d0982611b4c565b611d138185611b57565b935083602082028501611d2585611b68565b8060005b85811015611d615784840389528151611d428582611cdd565b9450611d4d83611cf1565b925060208a01995050600181019050611d29565b50829750879550505050505092915050565b60006020820190508181036000830152611d8d8184611cfe565b905092915050565b60008060408385031215611dac57611dab611858565b5b600083013567ffffffffffffffff811115611dca57611dc961185d565b5b611dd6858286016119d8565b925050602083013567ffffffffffffffff811115611df757611df661185d565b5b611e03858286016119d8565b9150509250929050565b60008115159050919050565b611e2281611e0d565b82525050565b6000602082019050611e3d6000830184611e19565b92915050565b611e4c81611c06565b8114611e5757600080fd5b50565b600081359050611e6981611e43565b92915050565b6000819050919050565b611e8281611e6f565b8114611e8d57600080fd5b50565b600081359050611e9f81611e79565b92915050565b60008060408385031215611ebc57611ebb611858565b5b6000611eca85828601611e5a565b9250506020611edb85828601611e90565b9150509250929050565b611eee81611c06565b82525050565b6000602082019050611f096000830184611ee5565b92915050565b60008060008060808587031215611f2957611f28611858565b5b600085013567ffffffffffffffff811115611f4757611f4661185d565b5b611f53878288016119d8565b945050602085013567ffffffffffffffff811115611f7457611f7361185d565b5b611f80878288016119d8565b935050604085013567ffffffffffffffff811115611fa157611fa061185d565b5b611fad878288016119d8565b925050606085013567ffffffffffffffff811115611fce57611fcd61185d565b5b611fda878288016119d8565b91505092959194509250565b600060e08301600083015184820360008601526120038282611bbe565b9150506020830151848203602086015261201d8282611bbe565b915050604083015184820360408601526120378282611bbe565b915050606083015184820360608601526120518282611bbe565b9150506080830151848203608086015261206b8282611bbe565b91505060a083015161208060a0860182611bf7565b5060c083015161209360c0860182611c16565b508091505092915050565b600060208201905081810360008301526120b88184611fe6565b905092915050565b6000602082840312156120d6576120d5611858565b5b60006120e484828501611e5a565b91505092915050565b6120f681611882565b82525050565b60006080820190506121116000830187611ee5565b61211e6020830186611ee5565b61212b6040830185611ee5565b61213860608301846120ed565b95945050505050565b6000819050919050565b600061216661216161215c84611862565b612141565b611862565b9050919050565b60006121788261214b565b9050919050565b600061218a8261216d565b9050919050565b61219a8161217f565b82525050565b60006020820190506121b56000830184612191565b92915050565b600080600080600060a086880312156121d7576121d6611858565b5b600086013567ffffffffffffffff8111156121f5576121f461185d565b5b612201888289016119d8565b955050602086013567ffffffffffffffff8111156122225761222161185d565b5b61222e888289016119d8565b945050604086013567ffffffffffffffff81111561224f5761224e61185d565b5b61225b888289016119d8565b935050606086013567ffffffffffffffff81111561227c5761227b61185d565b5b612288888289016119d8565b925050608086013567ffffffffffffffff8111156122a9576122a861185d565b5b6122b5888289016119d8565b9150509295509295909350565b6000602082840312156122d8576122d7611858565b5b600082013567ffffffffffffffff8111156122f6576122f561185d565b5b612302848285016119d8565b91505092915050565b61231481611e6f565b82525050565b600081519050919050565b600082825260208201905092915050565b6000819050602082019050919050565b60006123528383611bbe565b905092915050565b6000602082019050919050565b60006123728261231a565b61237c8185612325565b93508360208202850161238e85612336565b8060005b858110156123ca57848403895281516123ab8582612346565b94506123b68361235a565b925060208a01995050600181019050612392565b50829750879550505050505092915050565b60006101008301600083015184820360008601526123fa8282611bbe565b915050602083015184820360208601526124148282611bbe565b9150506040830151848203604086015261242e8282611bbe565b915050606083015184820360608601526124488282611bbe565b915050608083015184820360808601526124628282611bbe565b91505060a083015184820360a086015261247c8282611c25565b91505060c083015161249160c086018261230b565b5060e083015184820360e08601526124a98282612367565b9150508091505092915050565b600060208201905081810360008301526124d081846123dc565b905092915050565b600080604083850312156124ef576124ee611858565b5b600083013567ffffffffffffffff81111561250d5761250c61185d565b5b612519858286016119d8565b925050602061252a858286016118ab565b9150509250929050565b600081519050919050565b600082825260208201905092915050565b6000819050602082019050919050565b600061256c8383611c16565b60208301905092915050565b6000602082019050919050565b600061259082612534565b61259a818561253f565b93506125a583612550565b8060005b838110156125d65781516125bd8882612560565b97506125c883612578565b9250506001810190506125a9565b5085935050505092915050565b600060208201905081810360008301526125fd8184612585565b905092915050565b600081519050919050565b600082825260208201905092915050565b6000819050602082019050919050565b600061010083016000830151848203600086015261264f8282611bbe565b915050602083015184820360208601526126698282611bbe565b915050604083015184820360408601526126838282611bbe565b9150506060830151848203606086015261269d8282611bbe565b915050608083015184820360808601526126b78282611bbe565b91505060a083015184820360a08601526126d18282611c25565b91505060c08301516126e660c086018261230b565b5060e083015184820360e08601526126fe8282612367565b9150508091505092915050565b60006127178383612631565b905092915050565b6000602082019050919050565b600061273782612605565b6127418185612610565b93508360208202850161275385612621565b8060005b8581101561278f5784840389528151612770858261270b565b945061277b8361271f565b925060208a01995050600181019050612757565b50829750879550505050505092915050565b600060208201905081810360008301526127bb818461272c565b905092915050565b60006080820190506127d86000830187611ee5565b6127e56020830186611ee5565b6127f260408301856120ed565b6127ff6060830184611ee5565b95945050505050565b60006128138261216d565b9050919050565b61282381612808565b82525050565b600060208201905061283e600083018461281a565b92915050565b600082825260208201905092915050565b600061286082611b78565b61286a8185612844565b935061287a818560208601611b94565b612883816118ca565b840191505092915050565b600060c0820190506128a360008301896120ed565b81810360208301526128b58188612855565b905081810360408301526128c98187612855565b905081810360608301526128dd8186612855565b905081810360808301526128f18185612855565b905081810360a08301526129058184612855565b9050979650505050505050565b600060208201905061292760008301846120ed565b92915050565b600067ffffffffffffffff821115612948576129476118db565b5b602082029050602081019050919050565b600080fd5b600080fd5b600080fd5b600061297b61297684611956565b61193b565b905082815260208101848484011115612997576129966118c5565b5b6129a2848285611b94565b509392505050565b600082601f8301126129bf576129be6118c0565b5b81516129cf848260208601612968565b91505092915050565b6000815190506129e781611894565b92915050565b6000815190506129fc81611e43565b92915050565b600060e08284031215612a1857612a1761295e565b5b612a2260e061193b565b9050600082015167ffffffffffffffff811115612a4257612a41612963565b5b612a4e848285016129aa565b600083015250602082015167ffffffffffffffff811115612a7257612a71612963565b5b612a7e848285016129aa565b602083015250604082015167ffffffffffffffff811115612aa257612aa1612963565b5b612aae848285016129aa565b604083015250606082015167ffffffffffffffff811115612ad257612ad1612963565b5b612ade848285016129aa565b606083015250608082015167ffffffffffffffff811115612b0257612b01612963565b5b612b0e848285016129aa565b60808301525060a0612b22848285016129d8565b60a08301525060c0612b36848285016129ed565b60c08301525092915050565b6000612b55612b508461292d565b61193b565b90508083825260208201905060208402830185811115612b7857612b77612959565b5b835b81811015612bbf57805167ffffffffffffffff811115612b9d57612b9c6118c0565b5b808601612baa8982612a02565b85526020850194505050602081019050612b7a565b5050509392505050565b600082601f830112612bde57612bdd6118c0565b5b8151612bee848260208601612b42565b91505092915050565b600060208284031215612c0d57612c0c611858565b5b600082015167ffffffffffffffff811115612c2b57612c2a61185d565b5b612c3784828501612bc9565b91505092915050565b600067ffffffffffffffff821115612c5b57612c5a6118db565b5b602082029050602081019050919050565b6000612c7f612c7a84612c40565b61193b565b90508083825260208201905060208402830185811115612ca257612ca1612959565b5b835b81811015612ccb5780612cb788826129d8565b845260208401935050602081019050612ca4565b5050509392505050565b600082601f830112612cea57612ce96118c0565b5b8151612cfa848260208601612c6c565b91505092915050565b600060208284031215612d1957612d18611858565b5b600082015167ffffffffffffffff811115612d3757612d3661185d565b5b612d4384828501612cd5565b91505092915050565b7f4e6f20456e746974696573000000000000000000000000000000000000000000600082015250565b6000612d82600b83612844565b9150612d8d82612d4c565b602082019050919050565b60006020820190508181036000830152612db181612d75565b9050919050565b7f4e487b7100000000000000000000000000000000000000000000000000000000600052603260045260246000fd5b600060208284031215612dfd57612dfc611858565b5b600082015167ffffffffffffffff811115612e1b57612e1a61185d565b5b612e2784828501612a02565b91505092915050565b7f4e487b7100000000000000000000000000000000000000000000000000000000600052601160045260246000fd5b6000612e6a82611c06565b915063ffffffff8203612e8057612e7f612e30565b5b600182019050919050565b600081905092915050565b6000612ea182611b78565b612eab8185612e8b565b9350612ebb818560208601611b94565b80840191505092915050565b6000612ed38284612e96565b915081905092915050565b60006020820190508181036000830152612ef88184612855565b905092915050565b600081519050612f0f81611e79565b92915050565b600067ffffffffffffffff821115612f3057612f2f6118db565b5b602082029050602081019050919050565b6000612f54612f4f84612f15565b61193b565b90508083825260208201905060208402830185811115612f7757612f76612959565b5b835b81811015612fbe57805167ffffffffffffffff811115612f9c57612f9b6118c0565b5b808601612fa989826129aa565b85526020850194505050602081019050612f79565b5050509392505050565b600082601f830112612fdd57612fdc6118c0565b5b8151612fed848260208601612f41565b91505092915050565b6000610100828403121561300d5761300c61295e565b5b61301861010061193b565b9050600082015167ffffffffffffffff81111561303857613037612963565b5b613044848285016129aa565b600083015250602082015167ffffffffffffffff81111561306857613067612963565b5b613074848285016129aa565b602083015250604082015167ffffffffffffffff81111561309857613097612963565b5b6130a4848285016129aa565b604083015250606082015167ffffffffffffffff8111156130c8576130c7612963565b5b6130d4848285016129aa565b606083015250608082015167ffffffffffffffff8111156130f8576130f7612963565b5b613104848285016129aa565b60808301525060a082015167ffffffffffffffff81111561312857613127612963565b5b61313484828501612a02565b60a08301525060c061314884828501612f00565b60c08301525060e082015167ffffffffffffffff81111561316c5761316b612963565b5b61317884828501612fc8565b60e08301525092915050565b60006020828403121561319a57613199611858565b5b600082015167ffffffffffffffff8111156131b8576131b761185d565b5b6131c484828501612ff6565b91505092915050565b7f4e6f74204f776e65720000000000000000000000000000000000000000000000600082015250565b6000613203600983612844565b915061320e826131cd565b602082019050919050565b60006020820190508181036000830152613232816131f6565b9050919050565b600060608301600083015184820360008601526132568282611bbe565b915050602083015184820360208601526132708282611bbe565b9150506040830151848203604086015261328a8282611bbe565b9150508091505092915050565b600060408201905081810360008301526132b18185612855565b905081810360208301526132c58184613239565b90509392505050565b7f4e6f7420506f6c6963652e000000000000000000000000000000000000000000600082015250565b6000613304600b83612844565b915061330f826132ce565b602082019050919050565b60006020820190508181036000830152613333816132f7565b9050919050565b600060c08201905081810360008301526133548189612855565b905081810360208301526133688188612855565b9050818103604083015261337c8187612855565b905081810360608301526133908186612855565b905081810360808301526133a48185612855565b905081810360a08301526133b88184611fe6565b9050979650505050505050565b600060408201905081810360008301526133df8185612855565b905081810360208301526133f38184611fe6565b90509392505050565b600067ffffffffffffffff821115613417576134166118db565b5b602082029050602081019050919050565b600061343b613436846133fc565b61193b565b9050808382526020820190506020840283018581111561345e5761345d612959565b5b835b818110156134a557805167ffffffffffffffff811115613483576134826118c0565b5b8086016134908982612ff6565b85526020850194505050602081019050613460565b5050509392505050565b600082601f8301126134c4576134c36118c0565b5b81516134d4848260208601613428565b91505092915050565b6000602082840312156134f3576134f2611858565b5b600082015167ffffffffffffffff8111156135115761351061185d565b5b61351d848285016134af565b91505092915050565b60006020828403121561353c5761353b611858565b5b600082015167ffffffffffffffff81111561355a5761355961185d565b5b61356684828501612fc8565b91505092915050565b7f4e6f2045766964656e6365730000000000000000000000000000000000000000600082015250565b60006135a5600c83612844565b91506135b08261356f565b602082019050919050565b600060208201905081810360008301526135d481613598565b905091905056fea26469706673582212204c1d826dfe77643e2c816d0d7235a1d4bc9c6025d05b8754f0b3881710c9389464736f6c63430008130033",
  "immutableReferences": {},
  "source": "pragma solidity >=0.8.0;\r\n\r\nimport \"./EntitiesManager.sol\";\r\nimport \"./EvidencesManager.sol\";\r\n\r\ncontract EvidenceChain {\r\n    EntitiesManager public entitiesManager;\r\n    EvidencesManager public evidencesManager;\r\n\r\n    constructor(\r\n        address _entitiesManagerAddress,\r\n        address _evidencesManagerAddress\r\n    ) {\r\n        entitiesManager = EntitiesManager(_entitiesManagerAddress);\r\n        evidencesManager = EvidencesManager(_evidencesManagerAddress);\r\n    }\r\n\r\n    uint32 public owner_id = 0;\r\n\r\n    struct ownership {\r\n        uint32 evidenceId;\r\n        uint32 ownerId;\r\n        uint32 trxTimeStamp;\r\n        address evidenceOwner;\r\n    }\r\n\r\n    mapping(uint32 => ownership) public ownerships;\r\n    mapping(uint32 => uint32[]) public evidenceTrack;\r\n\r\n    event TransferOwnership(uint32 evidenceId);\r\n    event ParticipantAdded(uint32 indexed userId);\r\n    event EvidenceAdded(uint32 indexed evidenceId);\r\n\r\n    function addEntity(\r\n        address _entity,\r\n        string memory _userName,\r\n        string memory _password,\r\n        string memory _name,\r\n        string memory _departmentCode,\r\n        string memory _entityType\r\n    ) public {\r\n        entitiesManager.addEntity(\r\n            _entity,\r\n            _userName,\r\n            _password,\r\n            _name,\r\n            _departmentCode,\r\n            _entityType\r\n        );\r\n    }\r\n\r\n    function getEntities()\r\n        public\r\n        view\r\n        returns (EntitiesManager.Entity[] memory)\r\n    {\r\n        address[] memory entityAddresses = entitiesManager.getEntities();\r\n        require(entityAddresses.length > 0, \"No Entities\");\r\n        EntitiesManager.Entity[] memory entities = new EntitiesManager.Entity[](\r\n            entityAddresses.length\r\n        );\r\n        for (uint32 i = 0; i < entityAddresses.length; i++) {\r\n            entities[i] = entitiesManager.getLastUpdate(entityAddresses[i]);\r\n        }\r\n\r\n        return entities;\r\n    }\r\n\r\n    function getEntityHistory()\r\n        public\r\n        view\r\n        returns (EntitiesManager.Entity[] memory)\r\n    {\r\n        return entitiesManager.getEntityHistory(msg.sender);\r\n    }\r\n\r\n    function getEntityHistory(\r\n        address _entity\r\n    ) public view returns (EntitiesManager.Entity[] memory) {\r\n        return entitiesManager.getEntityHistory(_entity);\r\n    }\r\n\r\n    function getEntity(\r\n        address _entity\r\n    ) public view returns (EntitiesManager.Entity memory) {\r\n        return entitiesManager.getLastUpdate(_entity);\r\n    }\r\n\r\n    function getEntity() public view returns (EntitiesManager.Entity memory) {\r\n        return entitiesManager.getLastUpdate(msg.sender);\r\n    }\r\n\r\n    function authenticateEntity(\r\n        string memory _uname,\r\n        string memory _pass\r\n    ) public view returns (bool) {\r\n        EntitiesManager.Entity memory entity = entitiesManager.getLastUpdate(\r\n            msg.sender\r\n        );\r\n\r\n        if (\r\n            keccak256(abi.encodePacked(entity.userName)) ==\r\n            keccak256(abi.encodePacked(_uname))\r\n        ) {\r\n            if (\r\n                keccak256(abi.encodePacked(entity.password)) ==\r\n                keccak256(abi.encodePacked(_pass))\r\n            ) {\r\n                return (true);\r\n            }\r\n        }\r\n\r\n        return (false);\r\n    }\r\n\r\n    function addEvidence(\r\n        string memory _evidenceUniqueCode,\r\n        string memory _caseNo,\r\n        string memory _classification,\r\n        string memory _evidenceName,\r\n        string memory _evidenceType\r\n    ) public {\r\n        EntitiesManager.Entity memory _entity = entitiesManager.getLastUpdate(\r\n            msg.sender\r\n        );\r\n        require(\r\n            keccak256(abi.encodePacked(_entity.entityType)) ==\r\n                keccak256(\"Police\"),\r\n            \"Not Police.\"\r\n        );\r\n        evidencesManager.addEvidence(\r\n            _evidenceUniqueCode,\r\n            _caseNo,\r\n            _classification,\r\n            _evidenceName,\r\n            _evidenceType,\r\n            _entity\r\n        );\r\n    }\r\n\r\n    // function addEvidence(\r\n    //     string memory _evidenceUniqueCode,\r\n    //     string memory _caseNo,\r\n    //     string memory _classification,\r\n    //     string memory _evidenceName,\r\n    //     string memory _evidenceType,\r\n    //     EvidencesManager.EvidenceFile[] memory _files\r\n    // ) public {\r\n    //     EntitiesManager.Entity memory _entity = entitiesManager.getLastUpdate(\r\n    //         msg.sender\r\n    //     );\r\n    //     require(\r\n    //         keccak256(abi.encodePacked(_entity.entityType)) ==\r\n    //             keccak256(\"Police\"),\r\n    //         \"Not Police.\"\r\n    //     );\r\n    //     evidencesManager.addEvidence(\r\n    //         _evidenceUniqueCode,\r\n    //         _caseNo,\r\n    //         _classification,\r\n    //         _evidenceName,\r\n    //         _evidenceType,\r\n    //         _entity,\r\n    //         _files\r\n    //     );\r\n    // }\r\n\r\n    function getEvidences()\r\n        public\r\n        view\r\n        returns (EvidencesManager.Evidence[] memory)\r\n    {\r\n        string[] memory evidencesCodes = evidencesManager.getEvidences();\r\n        require(evidencesCodes.length > 0, \"No Evidences\");\r\n        EvidencesManager.Evidence[]\r\n            memory evidences = new EvidencesManager.Evidence[](\r\n                evidencesCodes.length\r\n            );\r\n        for (uint32 i = 0; i < evidencesCodes.length; i++) {\r\n            evidences[i] = evidencesManager.getLastUpdate(evidencesCodes[i]);\r\n        }\r\n\r\n        return evidences;\r\n    }\r\n\r\n    function getEvidenceHistory(\r\n        string memory _evidenceUniqueCode\r\n    ) public view returns (EvidencesManager.Evidence[] memory) {\r\n        return evidencesManager.getEvidenceHistory(_evidenceUniqueCode);\r\n    }\r\n\r\n    function getEvidence(\r\n        string memory _evidenceUniqueCode\r\n    ) public view returns (EvidencesManager.Evidence memory) {\r\n        return evidencesManager.getLastUpdate(_evidenceUniqueCode);\r\n    }\r\n\r\n    function evidenceNewOwner(\r\n        string memory _evidenceUniqueCode,\r\n        address _newOwner\r\n    ) public onlyOwner(_evidenceUniqueCode) {\r\n        EntitiesManager.Entity memory _entity = entitiesManager.getLastUpdate(\r\n            _newOwner\r\n        );\r\n        evidencesManager.updateOwner(_evidenceUniqueCode, _entity);\r\n    }\r\n\r\n    function addFile(\r\n        string memory _evidenceUniqueCode,\r\n        string memory _fileId,\r\n        string memory _fileName,\r\n        string memory _fileHash\r\n    ) public onlyOwner(_evidenceUniqueCode) {\r\n        EvidencesManager.EvidenceFile memory file =  EvidencesManager.EvidenceFile(_fileId, _fileName, _fileHash);\r\n        evidencesManager.addFile(_evidenceUniqueCode, file);\r\n    }\r\n\r\n    modifier onlyOwner(string memory _evidenceUniqueCode) {\r\n        EvidencesManager.Evidence memory _evidence = evidencesManager\r\n            .getLastUpdate(_evidenceUniqueCode);\r\n        require(msg.sender == _evidence.owner.entityAddress, \"Not Owner\");\r\n        _;\r\n    }\r\n    \r\n    function getProvenance(\r\n        uint32 _evidenceId\r\n    ) external view returns (uint32[] memory) {\r\n        return evidenceTrack[_evidenceId];\r\n    }\r\n\r\n    function getOwnership(\r\n        uint32 _regId\r\n    ) public view returns (uint32, uint32, address, uint32) {\r\n        ownership memory r = ownerships[_regId];\r\n\r\n        return (r.evidenceId, r.ownerId, r.evidenceOwner, r.trxTimeStamp);\r\n    }\r\n}\r\n",
  "sourcePath": "C:\\IPCA DISSERTAO\\evidences_dapp\\contracts\\EvidenceChain.sol",
  "compiler": {
    "name": "solc",
    "version": "0.8.19+commit.7dd6d404.Emscripten.clang"
  },
  "schemaVersion": "3.4.13",
  "updatedAt": "2023-08-28T19:18:46.594Z",
  "networkType": "ethereum",
  "devdoc": {
    "kind": "dev",
    "methods": {},
    "version": 1
  },
  "userdoc": {
    "kind": "user",
    "methods": {},
    "version": 1
  }
}