{
  "contractName": "EvidenceChain",
  "abi": [
    {
      "inputs": [
        {
          "internalType": "address",
          "name": "_entitiesManagerAddress",
          "type": "address"
        },
        {
          "internalType": "address",
          "name": "_evidencesManagerAddress",
          "type": "address"
        }
      ],
      "stateMutability": "nonpayable",
      "type": "constructor"
    },
    {
      "anonymous": false,
      "inputs": [
        {
          "indexed": true,
          "internalType": "uint32",
          "name": "evidenceId",
          "type": "uint32"
        }
      ],
      "name": "EvidenceAdded",
      "type": "event"
    },
    {
      "anonymous": false,
      "inputs": [
        {
          "indexed": true,
          "internalType": "uint32",
          "name": "userId",
          "type": "uint32"
        }
      ],
      "name": "ParticipantAdded",
      "type": "event"
    },
    {
      "anonymous": false,
      "inputs": [
        {
          "indexed": false,
          "internalType": "uint32",
          "name": "evidenceId",
          "type": "uint32"
        }
      ],
      "name": "TransferOwnership",
      "type": "event"
    },
    {
      "inputs": [],
      "name": "entitiesManager",
      "outputs": [
        {
          "internalType": "contract EntitiesManager",
          "name": "",
          "type": "address"
        }
      ],
      "stateMutability": "view",
      "type": "function",
      "constant": true
    },
    {
      "inputs": [
        {
          "internalType": "uint32",
          "name": "",
          "type": "uint32"
        },
        {
          "internalType": "uint256",
          "name": "",
          "type": "uint256"
        }
      ],
      "name": "evidenceTrack",
      "outputs": [
        {
          "internalType": "uint32",
          "name": "",
          "type": "uint32"
        }
      ],
      "stateMutability": "view",
      "type": "function",
      "constant": true
    },
    {
      "inputs": [],
      "name": "evidencesManager",
      "outputs": [
        {
          "internalType": "contract EvidencesManager",
          "name": "",
          "type": "address"
        }
      ],
      "stateMutability": "view",
      "type": "function",
      "constant": true
    },
    {
      "inputs": [],
      "name": "owner_id",
      "outputs": [
        {
          "internalType": "uint32",
          "name": "",
          "type": "uint32"
        }
      ],
      "stateMutability": "view",
      "type": "function",
      "constant": true
    },
    {
      "inputs": [
        {
          "internalType": "uint32",
          "name": "",
          "type": "uint32"
        }
      ],
      "name": "ownerships",
      "outputs": [
        {
          "internalType": "uint32",
          "name": "evidenceId",
          "type": "uint32"
        },
        {
          "internalType": "uint32",
          "name": "ownerId",
          "type": "uint32"
        },
        {
          "internalType": "uint32",
          "name": "trxTimeStamp",
          "type": "uint32"
        },
        {
          "internalType": "address",
          "name": "evidenceOwner",
          "type": "address"
        }
      ],
      "stateMutability": "view",
      "type": "function",
      "constant": true
    },
    {
      "inputs": [
        {
          "internalType": "address",
          "name": "_entity",
          "type": "address"
        },
        {
          "internalType": "string",
          "name": "_userName",
          "type": "string"
        },
        {
          "internalType": "string",
          "name": "_password",
          "type": "string"
        },
        {
          "internalType": "string",
          "name": "_name",
          "type": "string"
        },
        {
          "internalType": "string",
          "name": "_departmentCode",
          "type": "string"
        },
        {
          "internalType": "string",
          "name": "_entityType",
          "type": "string"
        }
      ],
      "name": "addEntity",
      "outputs": [],
      "stateMutability": "nonpayable",
      "type": "function"
    },
    {
      "inputs": [],
      "name": "getEntities",
      "outputs": [
        {
          "components": [
            {
              "internalType": "string",
              "name": "userName",
              "type": "string"
            },
            {
              "internalType": "string",
              "name": "password",
              "type": "string"
            },
            {
              "internalType": "string",
              "name": "name",
              "type": "string"
            },
            {
              "internalType": "string",
              "name": "departmentCode",
              "type": "string"
            },
            {
              "internalType": "string",
              "name": "entityType",
              "type": "string"
            },
            {
              "internalType": "address",
              "name": "entityAddress",
              "type": "address"
            },
            {
              "internalType": "uint32",
              "name": "timestamp",
              "type": "uint32"
            }
          ],
          "internalType": "struct EntitiesManager.Entity[]",
          "name": "",
          "type": "tuple[]"
        }
      ],
      "stateMutability": "view",
      "type": "function",
      "constant": true
    },
    {
      "inputs": [
        {
          "internalType": "address",
          "name": "_entity",
          "type": "address"
        }
      ],
      "name": "getEntityHistory",
      "outputs": [
        {
          "components": [
            {
              "internalType": "string",
              "name": "userName",
              "type": "string"
            },
            {
              "internalType": "string",
              "name": "password",
              "type": "string"
            },
            {
              "internalType": "string",
              "name": "name",
              "type": "string"
            },
            {
              "internalType": "string",
              "name": "departmentCode",
              "type": "string"
            },
            {
              "internalType": "string",
              "name": "entityType",
              "type": "string"
            },
            {
              "internalType": "address",
              "name": "entityAddress",
              "type": "address"
            },
            {
              "internalType": "uint32",
              "name": "timestamp",
              "type": "uint32"
            }
          ],
          "internalType": "struct EntitiesManager.Entity[]",
          "name": "",
          "type": "tuple[]"
        }
      ],
      "stateMutability": "view",
      "type": "function",
      "constant": true
    },
    {
      "inputs": [],
      "name": "getEntityHistory",
      "outputs": [
        {
          "components": [
            {
              "internalType": "string",
              "name": "userName",
              "type": "string"
            },
            {
              "internalType": "string",
              "name": "password",
              "type": "string"
            },
            {
              "internalType": "string",
              "name": "name",
              "type": "string"
            },
            {
              "internalType": "string",
              "name": "departmentCode",
              "type": "string"
            },
            {
              "internalType": "string",
              "name": "entityType",
              "type": "string"
            },
            {
              "internalType": "address",
              "name": "entityAddress",
              "type": "address"
            },
            {
              "internalType": "uint32",
              "name": "timestamp",
              "type": "uint32"
            }
          ],
          "internalType": "struct EntitiesManager.Entity[]",
          "name": "",
          "type": "tuple[]"
        }
      ],
      "stateMutability": "view",
      "type": "function",
      "constant": true
    },
    {
      "inputs": [
        {
          "internalType": "address",
          "name": "_entity",
          "type": "address"
        }
      ],
      "name": "getEntity",
      "outputs": [
        {
          "components": [
            {
              "internalType": "string",
              "name": "userName",
              "type": "string"
            },
            {
              "internalType": "string",
              "name": "password",
              "type": "string"
            },
            {
              "internalType": "string",
              "name": "name",
              "type": "string"
            },
            {
              "internalType": "string",
              "name": "departmentCode",
              "type": "string"
            },
            {
              "internalType": "string",
              "name": "entityType",
              "type": "string"
            },
            {
              "internalType": "address",
              "name": "entityAddress",
              "type": "address"
            },
            {
              "internalType": "uint32",
              "name": "timestamp",
              "type": "uint32"
            }
          ],
          "internalType": "struct EntitiesManager.Entity",
          "name": "",
          "type": "tuple"
        }
      ],
      "stateMutability": "view",
      "type": "function",
      "constant": true
    },
    {
      "inputs": [],
      "name": "getEntity",
      "outputs": [
        {
          "components": [
            {
              "internalType": "string",
              "name": "userName",
              "type": "string"
            },
            {
              "internalType": "string",
              "name": "password",
              "type": "string"
            },
            {
              "internalType": "string",
              "name": "name",
              "type": "string"
            },
            {
              "internalType": "string",
              "name": "departmentCode",
              "type": "string"
            },
            {
              "internalType": "string",
              "name": "entityType",
              "type": "string"
            },
            {
              "internalType": "address",
              "name": "entityAddress",
              "type": "address"
            },
            {
              "internalType": "uint32",
              "name": "timestamp",
              "type": "uint32"
            }
          ],
          "internalType": "struct EntitiesManager.Entity",
          "name": "",
          "type": "tuple"
        }
      ],
      "stateMutability": "view",
      "type": "function",
      "constant": true
    },
    {
      "inputs": [
        {
          "internalType": "string",
          "name": "_evidenceUniqueCode",
          "type": "string"
        },
        {
          "internalType": "string",
          "name": "_caseNo",
          "type": "string"
        },
        {
          "internalType": "string",
          "name": "_classification",
          "type": "string"
        },
        {
          "internalType": "string",
          "name": "_evidenceName",
          "type": "string"
        },
        {
          "internalType": "string",
          "name": "_evidenceType",
          "type": "string"
        },
        {
          "internalType": "string[]",
          "name": "_files",
          "type": "string[]"
        }
      ],
      "name": "addEvidence",
      "outputs": [],
      "stateMutability": "nonpayable",
      "type": "function"
    },
    {
      "inputs": [
        {
          "internalType": "string",
          "name": "_evidenceUniqueCode",
          "type": "string"
        },
        {
          "internalType": "string",
          "name": "_caseNo",
          "type": "string"
        },
        {
          "internalType": "string",
          "name": "_classification",
          "type": "string"
        },
        {
          "internalType": "string",
          "name": "_evidenceName",
          "type": "string"
        },
        {
          "internalType": "string",
          "name": "_evidenceType",
          "type": "string"
        }
      ],
      "name": "addEvidence",
      "outputs": [],
      "stateMutability": "nonpayable",
      "type": "function"
    },
    {
      "inputs": [],
      "name": "getEvidences",
      "outputs": [
        {
          "components": [
            {
              "internalType": "string",
              "name": "uniqueCode",
              "type": "string"
            },
            {
              "internalType": "string",
              "name": "caseNo",
              "type": "string"
            },
            {
              "internalType": "string",
              "name": "classification",
              "type": "string"
            },
            {
              "internalType": "string",
              "name": "name",
              "type": "string"
            },
            {
              "internalType": "string",
              "name": "eType",
              "type": "string"
            },
            {
              "components": [
                {
                  "internalType": "string",
                  "name": "userName",
                  "type": "string"
                },
                {
                  "internalType": "string",
                  "name": "password",
                  "type": "string"
                },
                {
                  "internalType": "string",
                  "name": "name",
                  "type": "string"
                },
                {
                  "internalType": "string",
                  "name": "departmentCode",
                  "type": "string"
                },
                {
                  "internalType": "string",
                  "name": "entityType",
                  "type": "string"
                },
                {
                  "internalType": "address",
                  "name": "entityAddress",
                  "type": "address"
                },
                {
                  "internalType": "uint32",
                  "name": "timestamp",
                  "type": "uint32"
                }
              ],
              "internalType": "struct EntitiesManager.Entity",
              "name": "owner",
              "type": "tuple"
            },
            {
              "internalType": "uint256",
              "name": "timestamp",
              "type": "uint256"
            },
            {
              "internalType": "string[]",
              "name": "uFiles",
              "type": "string[]"
            }
          ],
          "internalType": "struct EvidencesManager.Evidence[]",
          "name": "",
          "type": "tuple[]"
        }
      ],
      "stateMutability": "view",
      "type": "function",
      "constant": true
    },
    {
      "inputs": [
        {
          "internalType": "string",
          "name": "_evidenceUniqueCode",
          "type": "string"
        }
      ],
      "name": "getEvidenceHistory",
      "outputs": [
        {
          "components": [
            {
              "internalType": "string",
              "name": "uniqueCode",
              "type": "string"
            },
            {
              "internalType": "string",
              "name": "caseNo",
              "type": "string"
            },
            {
              "internalType": "string",
              "name": "classification",
              "type": "string"
            },
            {
              "internalType": "string",
              "name": "name",
              "type": "string"
            },
            {
              "internalType": "string",
              "name": "eType",
              "type": "string"
            },
            {
              "components": [
                {
                  "internalType": "string",
                  "name": "userName",
                  "type": "string"
                },
                {
                  "internalType": "string",
                  "name": "password",
                  "type": "string"
                },
                {
                  "internalType": "string",
                  "name": "name",
                  "type": "string"
                },
                {
                  "internalType": "string",
                  "name": "departmentCode",
                  "type": "string"
                },
                {
                  "internalType": "string",
                  "name": "entityType",
                  "type": "string"
                },
                {
                  "internalType": "address",
                  "name": "entityAddress",
                  "type": "address"
                },
                {
                  "internalType": "uint32",
                  "name": "timestamp",
                  "type": "uint32"
                }
              ],
              "internalType": "struct EntitiesManager.Entity",
              "name": "owner",
              "type": "tuple"
            },
            {
              "internalType": "uint256",
              "name": "timestamp",
              "type": "uint256"
            },
            {
              "internalType": "string[]",
              "name": "uFiles",
              "type": "string[]"
            }
          ],
          "internalType": "struct EvidencesManager.Evidence[]",
          "name": "",
          "type": "tuple[]"
        }
      ],
      "stateMutability": "view",
      "type": "function",
      "constant": true
    },
    {
      "inputs": [
        {
          "internalType": "string",
          "name": "_evidenceUniqueCode",
          "type": "string"
        }
      ],
      "name": "getEvidence",
      "outputs": [
        {
          "components": [
            {
              "internalType": "string",
              "name": "uniqueCode",
              "type": "string"
            },
            {
              "internalType": "string",
              "name": "caseNo",
              "type": "string"
            },
            {
              "internalType": "string",
              "name": "classification",
              "type": "string"
            },
            {
              "internalType": "string",
              "name": "name",
              "type": "string"
            },
            {
              "internalType": "string",
              "name": "eType",
              "type": "string"
            },
            {
              "components": [
                {
                  "internalType": "string",
                  "name": "userName",
                  "type": "string"
                },
                {
                  "internalType": "string",
                  "name": "password",
                  "type": "string"
                },
                {
                  "internalType": "string",
                  "name": "name",
                  "type": "string"
                },
                {
                  "internalType": "string",
                  "name": "departmentCode",
                  "type": "string"
                },
                {
                  "internalType": "string",
                  "name": "entityType",
                  "type": "string"
                },
                {
                  "internalType": "address",
                  "name": "entityAddress",
                  "type": "address"
                },
                {
                  "internalType": "uint32",
                  "name": "timestamp",
                  "type": "uint32"
                }
              ],
              "internalType": "struct EntitiesManager.Entity",
              "name": "owner",
              "type": "tuple"
            },
            {
              "internalType": "uint256",
              "name": "timestamp",
              "type": "uint256"
            },
            {
              "internalType": "string[]",
              "name": "uFiles",
              "type": "string[]"
            }
          ],
          "internalType": "struct EvidencesManager.Evidence",
          "name": "",
          "type": "tuple"
        }
      ],
      "stateMutability": "view",
      "type": "function",
      "constant": true
    },
    {
      "inputs": [
        {
          "internalType": "string",
          "name": "_evidenceUniqueCode",
          "type": "string"
        },
        {
          "internalType": "address",
          "name": "_newOwner",
          "type": "address"
        }
      ],
      "name": "evidenceNewOwner",
      "outputs": [],
      "stateMutability": "nonpayable",
      "type": "function"
    },
    {
      "inputs": [
        {
          "internalType": "string",
          "name": "_evidenceUniqueCode",
          "type": "string"
        },
        {
          "internalType": "string[]",
          "name": "_files",
          "type": "string[]"
        }
      ],
      "name": "addFiles",
      "outputs": [],
      "stateMutability": "nonpayable",
      "type": "function"
    },
    {
      "inputs": [
        {
          "internalType": "uint32",
          "name": "_evidenceId",
          "type": "uint32"
        }
      ],
      "name": "getProvenance",
      "outputs": [
        {
          "internalType": "uint32[]",
          "name": "",
          "type": "uint32[]"
        }
      ],
      "stateMutability": "view",
      "type": "function",
      "constant": true
    },
    {
      "inputs": [
        {
          "internalType": "uint32",
          "name": "_regId",
          "type": "uint32"
        }
      ],
      "name": "getOwnership",
      "outputs": [
        {
          "internalType": "uint32",
          "name": "",
          "type": "uint32"
        },
        {
          "internalType": "uint32",
          "name": "",
          "type": "uint32"
        },
        {
          "internalType": "address",
          "name": "",
          "type": "address"
        },
        {
          "internalType": "uint32",
          "name": "",
          "type": "uint32"
        }
      ],
      "stateMutability": "view",
      "type": "function",
      "constant": true
    }
  ],
  "bytecode": "0x60806040526000600160146101000a81548163ffffffff021916908363ffffffff1602179055503480156200003357600080fd5b506040516200398b3803806200398b83398181016040528101906200005991906200014c565b816000806101000a81548173ffffffffffffffffffffffffffffffffffffffff021916908373ffffffffffffffffffffffffffffffffffffffff16021790555080600160006101000a81548173ffffffffffffffffffffffffffffffffffffffff021916908373ffffffffffffffffffffffffffffffffffffffff160217905550505062000193565b600080fd5b600073ffffffffffffffffffffffffffffffffffffffff82169050919050565b60006200011482620000e7565b9050919050565b620001268162000107565b81146200013257600080fd5b50565b60008151905062000146816200011b565b92915050565b60008060408385031215620001665762000165620000e2565b5b6000620001768582860162000135565b9250506020620001898582860162000135565b9150509250929050565b6137e880620001a36000396000f3fe608060405234801561001057600080fd5b506004361061012c5760003560e01c80638f5ebf71116100ad578063c892522e11610071578063c892522e14610358578063df6d23f114610388578063dff95aac146103bb578063e3271cf9146103d9578063ff200d2b146103f75761012c565b80638f5ebf71146102a25780639dce4667146102c0578063b16c6ee7146102dc578063c6a22c411461030c578063c8569565146103285761012c565b8063621c2605116100f4578063621c2605146101e757806375894e8c1461020357806381e15610146102335780638b57d984146102665780638cb58fc1146102845761012c565b80631252a0831461013157806328320e1c1461014d57806331b933b91461017d57806333a4721f1461019b5780635760620b146101b7575b600080fd5b61014b60048036038101906101469190611a38565b610415565b005b61016760048036038101906101629190611b51565b6104b2565b6040516101749190611da5565b60405180910390f35b61018561055a565b6040516101929190611da5565b60405180910390f35b6101b560048036038101906101b09190611ead565b6107a3565b005b6101d160048036038101906101cc9190611f87565b610954565b6040516101de9190611fd6565b60405180910390f35b61020160048036038101906101fc9190611ff1565b61099d565b005b61021d60048036038101906102189190611b51565b610b6e565b60405161022a91906121de565b60405180910390f35b61024d60048036038101906102489190612200565b610c1c565b60405161025d949392919061223c565b60405180910390f35b61026e610c9c565b60405161027b9190611da5565b60405180910390f35b61028c610d42565b60405161029991906122e0565b60405180910390f35b6102aa610d68565b6040516102b79190611fd6565b60405180910390f35b6102da60048036038101906102d591906122fb565b610d7e565b005b6102f660048036038101906102f19190612402565b610f4d565b60405161030391906125f6565b60405180910390f35b61032660048036038101906103219190612618565b610ffd565b005b610342600480360381019061033d9190612200565b611253565b60405161034f9190612723565b60405180910390f35b610372600480360381019061036d9190612402565b6112f6565b60405161037f91906128e1565b60405180910390f35b6103a2600480360381019061039d9190612200565b6113a0565b6040516103b29493929190612903565b60405180910390f35b6103c36114c0565b6040516103d091906128e1565b60405180910390f35b6103e161170c565b6040516103ee9190612969565b60405180910390f35b6103ff611730565b60405161040c91906121de565b60405180910390f35b60008054906101000a900473ffffffffffffffffffffffffffffffffffffffff1673ffffffffffffffffffffffffffffffffffffffff16631252a0838787878787876040518763ffffffff1660e01b8152600401610478969594939291906129ce565b600060405180830381600087803b15801561049257600080fd5b505af11580156104a6573d6000803e3d6000fd5b50505050505050505050565b606060008054906101000a900473ffffffffffffffffffffffffffffffffffffffff1673ffffffffffffffffffffffffffffffffffffffff166328320e1c836040518263ffffffff1660e01b815260040161050d9190612a52565b600060405180830381865afa15801561052a573d6000803e3d6000fd5b505050506040513d6000823e3d601f19601f820116820180604052508101906105539190612d32565b9050919050565b606060008060009054906101000a900473ffffffffffffffffffffffffffffffffffffffff1673ffffffffffffffffffffffffffffffffffffffff166331b933b96040518163ffffffff1660e01b8152600401600060405180830381865afa1580156105ca573d6000803e3d6000fd5b505050506040513d6000823e3d601f19601f820116820180604052508101906105f39190612e3e565b90506000815111610639576040517f08c379a000000000000000000000000000000000000000000000000000000000815260040161063090612ed3565b60405180910390fd5b6000815167ffffffffffffffff8111156106565761065561190d565b5b60405190808252806020026020018201604052801561068f57816020015b61067c6117dc565b8152602001906001900390816106745790505b50905060005b82518163ffffffff16101561079a5760008054906101000a900473ffffffffffffffffffffffffffffffffffffffff1673ffffffffffffffffffffffffffffffffffffffff16635a7e1989848363ffffffff16815181106106f9576106f8612ef3565b5b60200260200101516040518263ffffffff1660e01b815260040161071d9190612a52565b600060405180830381865afa15801561073a573d6000803e3d6000fd5b505050506040513d6000823e3d601f19601f820116820180604052508101906107639190612f22565b828263ffffffff168151811061077c5761077b612ef3565b5b6020026020010181905250808061079290612f9a565b915050610695565b50809250505090565b816000600160009054906101000a900473ffffffffffffffffffffffffffffffffffffffff1673ffffffffffffffffffffffffffffffffffffffff16633eeb568b836040518263ffffffff1660e01b81526004016108019190612fc6565b600060405180830381865afa15801561081e573d6000803e3d6000fd5b505050506040513d6000823e3d601f19601f820116820180604052508101906108479190613240565b90508060a0015160a0015173ffffffffffffffffffffffffffffffffffffffff163373ffffffffffffffffffffffffffffffffffffffff16146108bf576040517f08c379a00000000000000000000000000000000000000000000000000000000081526004016108b6906132d5565b60405180910390fd5b600160009054906101000a900473ffffffffffffffffffffffffffffffffffffffff1673ffffffffffffffffffffffffffffffffffffffff166333a4721f85856040518363ffffffff1660e01b815260040161091c92919061337b565b600060405180830381600087803b15801561093657600080fd5b505af115801561094a573d6000803e3d6000fd5b5050505050505050565b6003602052816000526040600020818154811061097057600080fd5b9060005260206000209060089182820401919006600402915091509054906101000a900463ffffffff1681565b60008060009054906101000a900473ffffffffffffffffffffffffffffffffffffffff1673ffffffffffffffffffffffffffffffffffffffff16635a7e1989336040518263ffffffff1660e01b81526004016109f99190612a52565b600060405180830381865afa158015610a16573d6000803e3d6000fd5b505050506040513d6000823e3d601f19601f82011682018060405250810190610a3f9190612f22565b90507fe419ba2484d9efb5ea120ea8d8b86dc666551db29ed65e4d8c975262e7a9c3658160800151604051602001610a7791906133ee565b6040516020818303038152906040528051906020012014610acd576040517f08c379a0000000000000000000000000000000000000000000000000000000008152600401610ac490613451565b60405180910390fd5b600160009054906101000a900473ffffffffffffffffffffffffffffffffffffffff1673ffffffffffffffffffffffffffffffffffffffff1662ffd922888888888887896040518863ffffffff1660e01b8152600401610b339796959493929190613471565b600060405180830381600087803b158015610b4d57600080fd5b505af1158015610b61573d6000803e3d6000fd5b5050505050505050505050565b610b766117dc565b60008054906101000a900473ffffffffffffffffffffffffffffffffffffffff1673ffffffffffffffffffffffffffffffffffffffff16635a7e1989836040518263ffffffff1660e01b8152600401610bcf9190612a52565b600060405180830381865afa158015610bec573d6000803e3d6000fd5b505050506040513d6000823e3d601f19601f82011682018060405250810190610c159190612f22565b9050919050565b60026020528060005260406000206000915090508060000160009054906101000a900463ffffffff16908060000160049054906101000a900463ffffffff16908060000160089054906101000a900463ffffffff169080600001600c9054906101000a900473ffffffffffffffffffffffffffffffffffffffff16905084565b606060008054906101000a900473ffffffffffffffffffffffffffffffffffffffff1673ffffffffffffffffffffffffffffffffffffffff166328320e1c336040518263ffffffff1660e01b8152600401610cf79190612a52565b600060405180830381865afa158015610d14573d6000803e3d6000fd5b505050506040513d6000823e3d601f19601f82011682018060405250810190610d3d9190612d32565b905090565b600160009054906101000a900473ffffffffffffffffffffffffffffffffffffffff1681565b600160149054906101000a900463ffffffff1681565b60008060009054906101000a900473ffffffffffffffffffffffffffffffffffffffff1673ffffffffffffffffffffffffffffffffffffffff16635a7e1989336040518263ffffffff1660e01b8152600401610dda9190612a52565b600060405180830381865afa158015610df7573d6000803e3d6000fd5b505050506040513d6000823e3d601f19601f82011682018060405250810190610e209190612f22565b90507fe419ba2484d9efb5ea120ea8d8b86dc666551db29ed65e4d8c975262e7a9c3658160800151604051602001610e5891906133ee565b6040516020818303038152906040528051906020012014610eae576040517f08c379a0000000000000000000000000000000000000000000000000000000008152600401610ea590613451565b60405180910390fd5b600160009054906101000a900473ffffffffffffffffffffffffffffffffffffffff1673ffffffffffffffffffffffffffffffffffffffff1663acf51e058787878787876040518763ffffffff1660e01b8152600401610f1396959493929190613511565b600060405180830381600087803b158015610f2d57600080fd5b505af1158015610f41573d6000803e3d6000fd5b50505050505050505050565b610f55611835565b600160009054906101000a900473ffffffffffffffffffffffffffffffffffffffff1673ffffffffffffffffffffffffffffffffffffffff16633eeb568b836040518263ffffffff1660e01b8152600401610fb09190612fc6565b600060405180830381865afa158015610fcd573d6000803e3d6000fd5b505050506040513d6000823e3d601f19601f82011682018060405250810190610ff69190613240565b9050919050565b816000600160009054906101000a900473ffffffffffffffffffffffffffffffffffffffff1673ffffffffffffffffffffffffffffffffffffffff16633eeb568b836040518263ffffffff1660e01b815260040161105b9190612fc6565b600060405180830381865afa158015611078573d6000803e3d6000fd5b505050506040513d6000823e3d601f19601f820116820180604052508101906110a19190613240565b90508060a0015160a0015173ffffffffffffffffffffffffffffffffffffffff163373ffffffffffffffffffffffffffffffffffffffff1614611119576040517f08c379a0000000000000000000000000000000000000000000000000000000008152600401611110906132d5565b60405180910390fd5b60008060009054906101000a900473ffffffffffffffffffffffffffffffffffffffff1673ffffffffffffffffffffffffffffffffffffffff16635a7e1989856040518263ffffffff1660e01b81526004016111759190612a52565b600060405180830381865afa158015611192573d6000803e3d6000fd5b505050506040513d6000823e3d601f19601f820116820180604052508101906111bb9190612f22565b9050600160009054906101000a900473ffffffffffffffffffffffffffffffffffffffff1673ffffffffffffffffffffffffffffffffffffffff16633c39a36386836040518363ffffffff1660e01b815260040161121a92919061359c565b600060405180830381600087803b15801561123457600080fd5b505af1158015611248573d6000803e3d6000fd5b505050505050505050565b6060600360008363ffffffff1663ffffffff1681526020019081526020016000208054806020026020016040519081016040528092919081815260200182805480156112ea57602002820191906000526020600020906000905b82829054906101000a900463ffffffff1663ffffffff16815260200190600401906020826003010492830192600103820291508084116112ad5790505b50505050509050919050565b6060600160009054906101000a900473ffffffffffffffffffffffffffffffffffffffff1673ffffffffffffffffffffffffffffffffffffffff1663c892522e836040518263ffffffff1660e01b81526004016113539190612fc6565b600060405180830381865afa158015611370573d6000803e3d6000fd5b505050506040513d6000823e3d601f19601f8201168201806040525081019061139991906136b4565b9050919050565b6000806000806000600260008763ffffffff1663ffffffff1681526020019081526020016000206040518060800160405290816000820160009054906101000a900463ffffffff1663ffffffff1663ffffffff1681526020016000820160049054906101000a900463ffffffff1663ffffffff1663ffffffff1681526020016000820160089054906101000a900463ffffffff1663ffffffff1663ffffffff16815260200160008201600c9054906101000a900473ffffffffffffffffffffffffffffffffffffffff1673ffffffffffffffffffffffffffffffffffffffff1673ffffffffffffffffffffffffffffffffffffffff1681525050905080600001518160200151826060015183604001519450945094509450509193509193565b60606000600160009054906101000a900473ffffffffffffffffffffffffffffffffffffffff1673ffffffffffffffffffffffffffffffffffffffff1663dff95aac6040518163ffffffff1660e01b8152600401600060405180830381865afa158015611531573d6000803e3d6000fd5b505050506040513d6000823e3d601f19601f8201168201806040525081019061155a91906136fd565b905060008151116115a0576040517f08c379a000000000000000000000000000000000000000000000000000000000815260040161159790613792565b60405180910390fd5b6000815167ffffffffffffffff8111156115bd576115bc61190d565b5b6040519080825280602002602001820160405280156115f657816020015b6115e3611835565b8152602001906001900390816115db5790505b50905060005b82518163ffffffff16101561170357600160009054906101000a900473ffffffffffffffffffffffffffffffffffffffff1673ffffffffffffffffffffffffffffffffffffffff16633eeb568b848363ffffffff168151811061166257611661612ef3565b5b60200260200101516040518263ffffffff1660e01b81526004016116869190612fc6565b600060405180830381865afa1580156116a3573d6000803e3d6000fd5b505050506040513d6000823e3d601f19601f820116820180604052508101906116cc9190613240565b828263ffffffff16815181106116e5576116e4612ef3565b5b602002602001018190525080806116fb90612f9a565b9150506115fc565b50809250505090565b60008054906101000a900473ffffffffffffffffffffffffffffffffffffffff1681565b6117386117dc565b60008054906101000a900473ffffffffffffffffffffffffffffffffffffffff1673ffffffffffffffffffffffffffffffffffffffff16635a7e1989336040518263ffffffff1660e01b81526004016117919190612a52565b600060405180830381865afa1580156117ae573d6000803e3d6000fd5b505050506040513d6000823e3d601f19601f820116820180604052508101906117d79190612f22565b905090565b6040518060e001604052806060815260200160608152602001606081526020016060815260200160608152602001600073ffffffffffffffffffffffffffffffffffffffff168152602001600063ffffffff1681525090565b604051806101000160405280606081526020016060815260200160608152602001606081526020016060815260200161186c6117dc565b815260200160008152602001606081525090565b6000604051905090565b600080fd5b600080fd5b600073ffffffffffffffffffffffffffffffffffffffff82169050919050565b60006118bf82611894565b9050919050565b6118cf816118b4565b81146118da57600080fd5b50565b6000813590506118ec816118c6565b92915050565b600080fd5b600080fd5b6000601f19601f8301169050919050565b7f4e487b7100000000000000000000000000000000000000000000000000000000600052604160045260246000fd5b611945826118fc565b810181811067ffffffffffffffff821117156119645761196361190d565b5b80604052505050565b6000611977611880565b9050611983828261193c565b919050565b600067ffffffffffffffff8211156119a3576119a261190d565b5b6119ac826118fc565b9050602081019050919050565b82818337600083830152505050565b60006119db6119d684611988565b61196d565b9050828152602081018484840111156119f7576119f66118f7565b5b611a028482856119b9565b509392505050565b600082601f830112611a1f57611a1e6118f2565b5b8135611a2f8482602086016119c8565b91505092915050565b60008060008060008060c08789031215611a5557611a5461188a565b5b6000611a6389828a016118dd565b965050602087013567ffffffffffffffff811115611a8457611a8361188f565b5b611a9089828a01611a0a565b955050604087013567ffffffffffffffff811115611ab157611ab061188f565b5b611abd89828a01611a0a565b945050606087013567ffffffffffffffff811115611ade57611add61188f565b5b611aea89828a01611a0a565b935050608087013567ffffffffffffffff811115611b0b57611b0a61188f565b5b611b1789828a01611a0a565b92505060a087013567ffffffffffffffff811115611b3857611b3761188f565b5b611b4489828a01611a0a565b9150509295509295509295565b600060208284031215611b6757611b6661188a565b5b6000611b75848285016118dd565b91505092915050565b600081519050919050565b600082825260208201905092915050565b6000819050602082019050919050565b600081519050919050565b600082825260208201905092915050565b60005b83811015611be4578082015181840152602081019050611bc9565b60008484015250505050565b6000611bfb82611baa565b611c058185611bb5565b9350611c15818560208601611bc6565b611c1e816118fc565b840191505092915050565b611c32816118b4565b82525050565b600063ffffffff82169050919050565b611c5181611c38565b82525050565b600060e0830160008301518482036000860152611c748282611bf0565b91505060208301518482036020860152611c8e8282611bf0565b91505060408301518482036040860152611ca88282611bf0565b91505060608301518482036060860152611cc28282611bf0565b91505060808301518482036080860152611cdc8282611bf0565b91505060a0830151611cf160a0860182611c29565b5060c0830151611d0460c0860182611c48565b508091505092915050565b6000611d1b8383611c57565b905092915050565b6000602082019050919050565b6000611d3b82611b7e565b611d458185611b89565b935083602082028501611d5785611b9a565b8060005b85811015611d935784840389528151611d748582611d0f565b9450611d7f83611d23565b925060208a01995050600181019050611d5b565b50829750879550505050505092915050565b60006020820190508181036000830152611dbf8184611d30565b905092915050565b600067ffffffffffffffff821115611de257611de161190d565b5b602082029050602081019050919050565b600080fd5b6000611e0b611e0684611dc7565b61196d565b90508083825260208201905060208402830185811115611e2e57611e2d611df3565b5b835b81811015611e7557803567ffffffffffffffff811115611e5357611e526118f2565b5b808601611e608982611a0a565b85526020850194505050602081019050611e30565b5050509392505050565b600082601f830112611e9457611e936118f2565b5b8135611ea4848260208601611df8565b91505092915050565b60008060408385031215611ec457611ec361188a565b5b600083013567ffffffffffffffff811115611ee257611ee161188f565b5b611eee85828601611a0a565b925050602083013567ffffffffffffffff811115611f0f57611f0e61188f565b5b611f1b85828601611e7f565b9150509250929050565b611f2e81611c38565b8114611f3957600080fd5b50565b600081359050611f4b81611f25565b92915050565b6000819050919050565b611f6481611f51565b8114611f6f57600080fd5b50565b600081359050611f8181611f5b565b92915050565b60008060408385031215611f9e57611f9d61188a565b5b6000611fac85828601611f3c565b9250506020611fbd85828601611f72565b9150509250929050565b611fd081611c38565b82525050565b6000602082019050611feb6000830184611fc7565b92915050565b60008060008060008060c0878903121561200e5761200d61188a565b5b600087013567ffffffffffffffff81111561202c5761202b61188f565b5b61203889828a01611a0a565b965050602087013567ffffffffffffffff8111156120595761205861188f565b5b61206589828a01611a0a565b955050604087013567ffffffffffffffff8111156120865761208561188f565b5b61209289828a01611a0a565b945050606087013567ffffffffffffffff8111156120b3576120b261188f565b5b6120bf89828a01611a0a565b935050608087013567ffffffffffffffff8111156120e0576120df61188f565b5b6120ec89828a01611a0a565b92505060a087013567ffffffffffffffff81111561210d5761210c61188f565b5b61211989828a01611e7f565b9150509295509295509295565b600060e08301600083015184820360008601526121438282611bf0565b9150506020830151848203602086015261215d8282611bf0565b915050604083015184820360408601526121778282611bf0565b915050606083015184820360608601526121918282611bf0565b915050608083015184820360808601526121ab8282611bf0565b91505060a08301516121c060a0860182611c29565b5060c08301516121d360c0860182611c48565b508091505092915050565b600060208201905081810360008301526121f88184612126565b905092915050565b6000602082840312156122165761221561188a565b5b600061222484828501611f3c565b91505092915050565b612236816118b4565b82525050565b60006080820190506122516000830187611fc7565b61225e6020830186611fc7565b61226b6040830185611fc7565b612278606083018461222d565b95945050505050565b6000819050919050565b60006122a66122a161229c84611894565b612281565b611894565b9050919050565b60006122b88261228b565b9050919050565b60006122ca826122ad565b9050919050565b6122da816122bf565b82525050565b60006020820190506122f560008301846122d1565b92915050565b600080600080600060a086880312156123175761231661188a565b5b600086013567ffffffffffffffff8111156123355761233461188f565b5b61234188828901611a0a565b955050602086013567ffffffffffffffff8111156123625761236161188f565b5b61236e88828901611a0a565b945050604086013567ffffffffffffffff81111561238f5761238e61188f565b5b61239b88828901611a0a565b935050606086013567ffffffffffffffff8111156123bc576123bb61188f565b5b6123c888828901611a0a565b925050608086013567ffffffffffffffff8111156123e9576123e861188f565b5b6123f588828901611a0a565b9150509295509295909350565b6000602082840312156124185761241761188a565b5b600082013567ffffffffffffffff8111156124365761243561188f565b5b61244284828501611a0a565b91505092915050565b61245481611f51565b82525050565b600081519050919050565b600082825260208201905092915050565b6000819050602082019050919050565b60006124928383611bf0565b905092915050565b6000602082019050919050565b60006124b28261245a565b6124bc8185612465565b9350836020820285016124ce85612476565b8060005b8581101561250a57848403895281516124eb8582612486565b94506124f68361249a565b925060208a019950506001810190506124d2565b50829750879550505050505092915050565b600061010083016000830151848203600086015261253a8282611bf0565b915050602083015184820360208601526125548282611bf0565b9150506040830151848203604086015261256e8282611bf0565b915050606083015184820360608601526125888282611bf0565b915050608083015184820360808601526125a28282611bf0565b91505060a083015184820360a08601526125bc8282611c57565b91505060c08301516125d160c086018261244b565b5060e083015184820360e08601526125e982826124a7565b9150508091505092915050565b60006020820190508181036000830152612610818461251c565b905092915050565b6000806040838503121561262f5761262e61188a565b5b600083013567ffffffffffffffff81111561264d5761264c61188f565b5b61265985828601611a0a565b925050602061266a858286016118dd565b9150509250929050565b600081519050919050565b600082825260208201905092915050565b6000819050602082019050919050565b60006126ac8383611c48565b60208301905092915050565b6000602082019050919050565b60006126d082612674565b6126da818561267f565b93506126e583612690565b8060005b838110156127165781516126fd88826126a0565b9750612708836126b8565b9250506001810190506126e9565b5085935050505092915050565b6000602082019050818103600083015261273d81846126c5565b905092915050565b600081519050919050565b600082825260208201905092915050565b6000819050602082019050919050565b600061010083016000830151848203600086015261278f8282611bf0565b915050602083015184820360208601526127a98282611bf0565b915050604083015184820360408601526127c38282611bf0565b915050606083015184820360608601526127dd8282611bf0565b915050608083015184820360808601526127f78282611bf0565b91505060a083015184820360a08601526128118282611c57565b91505060c083015161282660c086018261244b565b5060e083015184820360e086015261283e82826124a7565b9150508091505092915050565b60006128578383612771565b905092915050565b6000602082019050919050565b600061287782612745565b6128818185612750565b93508360208202850161289385612761565b8060005b858110156128cf57848403895281516128b0858261284b565b94506128bb8361285f565b925060208a01995050600181019050612897565b50829750879550505050505092915050565b600060208201905081810360008301526128fb818461286c565b905092915050565b60006080820190506129186000830187611fc7565b6129256020830186611fc7565b612932604083018561222d565b61293f6060830184611fc7565b95945050505050565b6000612953826122ad565b9050919050565b61296381612948565b82525050565b600060208201905061297e600083018461295a565b92915050565b600082825260208201905092915050565b60006129a082611baa565b6129aa8185612984565b93506129ba818560208601611bc6565b6129c3816118fc565b840191505092915050565b600060c0820190506129e3600083018961222d565b81810360208301526129f58188612995565b90508181036040830152612a098187612995565b90508181036060830152612a1d8186612995565b90508181036080830152612a318185612995565b905081810360a0830152612a458184612995565b9050979650505050505050565b6000602082019050612a67600083018461222d565b92915050565b600067ffffffffffffffff821115612a8857612a8761190d565b5b602082029050602081019050919050565b600080fd5b600080fd5b6000612ab6612ab184611988565b61196d565b905082815260208101848484011115612ad257612ad16118f7565b5b612add848285611bc6565b509392505050565b600082601f830112612afa57612af96118f2565b5b8151612b0a848260208601612aa3565b91505092915050565b600081519050612b22816118c6565b92915050565b600081519050612b3781611f25565b92915050565b600060e08284031215612b5357612b52612a99565b5b612b5d60e061196d565b9050600082015167ffffffffffffffff811115612b7d57612b7c612a9e565b5b612b8984828501612ae5565b600083015250602082015167ffffffffffffffff811115612bad57612bac612a9e565b5b612bb984828501612ae5565b602083015250604082015167ffffffffffffffff811115612bdd57612bdc612a9e565b5b612be984828501612ae5565b604083015250606082015167ffffffffffffffff811115612c0d57612c0c612a9e565b5b612c1984828501612ae5565b606083015250608082015167ffffffffffffffff811115612c3d57612c3c612a9e565b5b612c4984828501612ae5565b60808301525060a0612c5d84828501612b13565b60a08301525060c0612c7184828501612b28565b60c08301525092915050565b6000612c90612c8b84612a6d565b61196d565b90508083825260208201905060208402830185811115612cb357612cb2611df3565b5b835b81811015612cfa57805167ffffffffffffffff811115612cd857612cd76118f2565b5b808601612ce58982612b3d565b85526020850194505050602081019050612cb5565b5050509392505050565b600082601f830112612d1957612d186118f2565b5b8151612d29848260208601612c7d565b91505092915050565b600060208284031215612d4857612d4761188a565b5b600082015167ffffffffffffffff811115612d6657612d6561188f565b5b612d7284828501612d04565b91505092915050565b600067ffffffffffffffff821115612d9657612d9561190d565b5b602082029050602081019050919050565b6000612dba612db584612d7b565b61196d565b90508083825260208201905060208402830185811115612ddd57612ddc611df3565b5b835b81811015612e065780612df28882612b13565b845260208401935050602081019050612ddf565b5050509392505050565b600082601f830112612e2557612e246118f2565b5b8151612e35848260208601612da7565b91505092915050565b600060208284031215612e5457612e5361188a565b5b600082015167ffffffffffffffff811115612e7257612e7161188f565b5b612e7e84828501612e10565b91505092915050565b7f4e6f20456e746974696573000000000000000000000000000000000000000000600082015250565b6000612ebd600b83612984565b9150612ec882612e87565b602082019050919050565b60006020820190508181036000830152612eec81612eb0565b9050919050565b7f4e487b7100000000000000000000000000000000000000000000000000000000600052603260045260246000fd5b600060208284031215612f3857612f3761188a565b5b600082015167ffffffffffffffff811115612f5657612f5561188f565b5b612f6284828501612b3d565b91505092915050565b7f4e487b7100000000000000000000000000000000000000000000000000000000600052601160045260246000fd5b6000612fa582611c38565b915063ffffffff8203612fbb57612fba612f6b565b5b600182019050919050565b60006020820190508181036000830152612fe08184612995565b905092915050565b600081519050612ff781611f5b565b92915050565b600061301061300b84611dc7565b61196d565b9050808382526020820190506020840283018581111561303357613032611df3565b5b835b8181101561307a57805167ffffffffffffffff811115613058576130576118f2565b5b8086016130658982612ae5565b85526020850194505050602081019050613035565b5050509392505050565b600082601f830112613099576130986118f2565b5b81516130a9848260208601612ffd565b91505092915050565b600061010082840312156130c9576130c8612a99565b5b6130d461010061196d565b9050600082015167ffffffffffffffff8111156130f4576130f3612a9e565b5b61310084828501612ae5565b600083015250602082015167ffffffffffffffff81111561312457613123612a9e565b5b61313084828501612ae5565b602083015250604082015167ffffffffffffffff81111561315457613153612a9e565b5b61316084828501612ae5565b604083015250606082015167ffffffffffffffff81111561318457613183612a9e565b5b61319084828501612ae5565b606083015250608082015167ffffffffffffffff8111156131b4576131b3612a9e565b5b6131c084828501612ae5565b60808301525060a082015167ffffffffffffffff8111156131e4576131e3612a9e565b5b6131f084828501612b3d565b60a08301525060c061320484828501612fe8565b60c08301525060e082015167ffffffffffffffff81111561322857613227612a9e565b5b61323484828501613084565b60e08301525092915050565b6000602082840312156132565761325561188a565b5b600082015167ffffffffffffffff8111156132745761327361188f565b5b613280848285016130b2565b91505092915050565b7f4e6f74204f776e65720000000000000000000000000000000000000000000000600082015250565b60006132bf600983612984565b91506132ca82613289565b602082019050919050565b600060208201905081810360008301526132ee816132b2565b9050919050565b600082825260208201905092915050565b60006133118261245a565b61331b81856132f5565b93508360208202850161332d85612476565b8060005b85811015613369578484038952815161334a8582612486565b94506133558361249a565b925060208a01995050600181019050613331565b50829750879550505050505092915050565b600060408201905081810360008301526133958185612995565b905081810360208301526133a98184613306565b90509392505050565b600081905092915050565b60006133c882611baa565b6133d281856133b2565b93506133e2818560208601611bc6565b80840191505092915050565b60006133fa82846133bd565b915081905092915050565b7f4e6f7420506f6c6963652e000000000000000000000000000000000000000000600082015250565b600061343b600b83612984565b915061344682613405565b602082019050919050565b6000602082019050818103600083015261346a8161342e565b9050919050565b600060e082019050818103600083015261348b818a612995565b9050818103602083015261349f8189612995565b905081810360408301526134b38188612995565b905081810360608301526134c78187612995565b905081810360808301526134db8186612995565b905081810360a08301526134ef8185612126565b905081810360c08301526135038184613306565b905098975050505050505050565b600060c082019050818103600083015261352b8189612995565b9050818103602083015261353f8188612995565b905081810360408301526135538187612995565b905081810360608301526135678186612995565b9050818103608083015261357b8185612995565b905081810360a083015261358f8184612126565b9050979650505050505050565b600060408201905081810360008301526135b68185612995565b905081810360208301526135ca8184612126565b90509392505050565b600067ffffffffffffffff8211156135ee576135ed61190d565b5b602082029050602081019050919050565b600061361261360d846135d3565b61196d565b9050808382526020820190506020840283018581111561363557613634611df3565b5b835b8181101561367c57805167ffffffffffffffff81111561365a576136596118f2565b5b80860161366789826130b2565b85526020850194505050602081019050613637565b5050509392505050565b600082601f83011261369b5761369a6118f2565b5b81516136ab8482602086016135ff565b91505092915050565b6000602082840312156136ca576136c961188a565b5b600082015167ffffffffffffffff8111156136e8576136e761188f565b5b6136f484828501613686565b91505092915050565b6000602082840312156137135761371261188a565b5b600082015167ffffffffffffffff8111156137315761373061188f565b5b61373d84828501613084565b91505092915050565b7f4e6f2045766964656e6365730000000000000000000000000000000000000000600082015250565b600061377c600c83612984565b915061378782613746565b602082019050919050565b600060208201905081810360008301526137ab8161376f565b905091905056fea2646970667358221220d8a1c8c4e95b0a5a44fe2a24eaf9c86fd4e6904fa0c209caeadd649d6176d10364736f6c63430008130033",
  "immutableReferences": {},
  "source": "pragma solidity >=0.8.0;\r\n\r\nimport \"./EntitiesManager.sol\";\r\nimport \"./EvidencesManager.sol\";\r\n\r\ncontract EvidenceChain {\r\n    EntitiesManager public entitiesManager;\r\n    EvidencesManager public evidencesManager;\r\n\r\n    constructor(address _entitiesManagerAddress, address _evidencesManagerAddress) {\r\n        entitiesManager = EntitiesManager(_entitiesManagerAddress);\r\n        evidencesManager = EvidencesManager(_evidencesManagerAddress);\r\n    }\r\n    \r\n    // uint32 public evidence_id = 0;\r\n    uint32 public owner_id = 0;\r\n\r\n    // struct Evidence {\r\n    //     string evidenceUniqueCode;\r\n    //     string evidenceName;\r\n    //     string evidenceType;\r\n    //     address evidenceOwner;\r\n    //     uint32 mfgTimeStamp;\r\n    // }\r\n\r\n    // Evidence [] public evidences;\r\n    \r\n    struct ownership {\r\n        uint32 evidenceId;\r\n        uint32 ownerId;\r\n        uint32 trxTimeStamp;\r\n        address evidenceOwner;\r\n    }\r\n\r\n    mapping(uint32 => ownership) public ownerships;\r\n    mapping(uint32 => uint32[]) public evidenceTrack;  \r\n\r\n    event TransferOwnership(uint32 evidenceId);\r\n    event ParticipantAdded(uint32 indexed userId);\r\n    event EvidenceAdded(uint32 indexed evidenceId);\r\n\r\n    function addEntity(address _entity, string memory _userName, string memory _password, string memory _name, string  memory _departmentCode, string memory _entityType) public {\r\n        entitiesManager.addEntity(_entity, _userName, _password, _name, _departmentCode, _entityType);\r\n    }\r\n\r\n    function getEntities() public view returns (EntitiesManager.Entity[] memory) {\r\n        address[] memory entityAddresses = entitiesManager.getEntities();\r\n        require(entityAddresses.length > 0, \"No Entities\");\r\n        EntitiesManager.Entity[] memory entities = new EntitiesManager.Entity[](entityAddresses.length);\r\n        for (uint32 i = 0; i < entityAddresses.length; i++) {\r\n            entities[i] = entitiesManager.getLastUpdate(entityAddresses[i]);\r\n        }\r\n\r\n        return entities;\r\n    }\r\n\r\n    // function getEntities() public view returns (address[] memory) {\r\n    //     return entitiesManager.getEntities();\r\n    // }\r\n\r\n    function getEntityHistory() public view returns (EntitiesManager.Entity[] memory) {\r\n        return entitiesManager.getEntityHistory(msg.sender);\r\n    }\r\n\r\n    function getEntityHistory(address _entity) public view returns (EntitiesManager.Entity[] memory) {\r\n        return entitiesManager.getEntityHistory(_entity);\r\n    }\r\n\r\n    function getEntity(address _entity) public view returns (EntitiesManager.Entity memory) {\r\n        return entitiesManager.getLastUpdate(_entity);\r\n    }\r\n\r\n    function getEntity() public view returns (EntitiesManager.Entity memory) {\r\n        return entitiesManager.getLastUpdate(msg.sender);\r\n    }\r\n\r\n    // function addParticipant(string memory _name, string memory _pass, address _pAdd, string memory _pType) public {\r\n    //     uint32 userId = participant_id++;\r\n\r\n    //     participants.push(Participant(_name, _pass, _pType, _pAdd));\r\n\r\n    //     emit ParticipantAdded(userId);\r\n    // }\r\n\r\n    // function getParticipants() onlyParticipant() public view returns (Participant[] memory){\r\n    //     return participants;\r\n    // }\r\n\r\n    // function getParticipant() public view returns (Participant memory) \r\n    // {\r\n    //     for (uint32 i = 0; i < participants.length; i++) {\r\n    //         if (participants[i].participantAddress == msg.sender) {\r\n    //             return participants[i];\r\n    //         }\r\n    //     }\r\n    //     revert(\"Participant not found\");\r\n    // }\r\n\r\n    // modifier onlyParticipant() {\r\n    //     require(isParticipant(), \"The address was not found in the list.\");\r\n    //     _;\r\n    // }\r\n\r\n    // function isParticipant() internal view returns(bool) {\r\n    // for (uint32 i = 0; i < participant_id; i++) {\r\n    //     if (participants[i].participantAddress == msg.sender) {\r\n    //         return true;\r\n    //     }\r\n    // }\r\n    // return false;\r\n    // }\r\n\r\n    // function getParticipantId() internal view returns(int32) {\r\n    // for (uint32 i = 0; i < participant_id; i++) {\r\n    //     if (participants[i].participantAddress == msg.sender) {\r\n    //         return int32(i);\r\n    //     }\r\n    // }\r\n    // return -1;\r\n    // }\r\n\r\n    function addEvidence(string memory _evidenceUniqueCode, string memory _caseNo, string memory _classification, string memory _evidenceName, string memory _evidenceType) public {\r\n        EntitiesManager.Entity memory _entity = entitiesManager.getLastUpdate(msg.sender);\r\n        require(keccak256(abi.encodePacked(_entity.entityType)) == keccak256(\"Police\"),\"Not Police.\");\r\n        evidencesManager.addEvidence(_evidenceUniqueCode, _caseNo, _classification, _evidenceName, _evidenceType, _entity);\r\n    }\r\n\r\n    function addEvidence(string memory _evidenceUniqueCode, string memory _caseNo, string memory _classification, string memory _evidenceName, string memory _evidenceType, string[] memory _files) public {\r\n        EntitiesManager.Entity memory _entity = entitiesManager.getLastUpdate(msg.sender);\r\n        require(keccak256(abi.encodePacked(_entity.entityType)) == keccak256(\"Police\"),\"Not Police.\");\r\n        evidencesManager.addEvidence(_evidenceUniqueCode, _caseNo, _classification, _evidenceName, _evidenceType, _entity, _files);\r\n    }\r\n\r\n    function getEvidences() public view returns (EvidencesManager.Evidence[] memory) {\r\n        string[] memory evidencesCodes = evidencesManager.getEvidences();\r\n        require(evidencesCodes.length > 0, \"No Evidences\");\r\n        EvidencesManager.Evidence[] memory evidences = new EvidencesManager.Evidence[](evidencesCodes.length);\r\n        for (uint32 i = 0; i < evidencesCodes.length; i++) {\r\n            evidences[i] = evidencesManager.getLastUpdate(evidencesCodes[i]);\r\n        }\r\n\r\n        return evidences;\r\n    }\r\n\r\n    function getEvidenceHistory(string memory _evidenceUniqueCode) public view returns (EvidencesManager.Evidence[] memory) {\r\n        return evidencesManager.getEvidenceHistory(_evidenceUniqueCode);\r\n    }\r\n\r\n    function getEvidence(string memory _evidenceUniqueCode) public view returns (EvidencesManager.Evidence memory) {\r\n        return evidencesManager.getLastUpdate(_evidenceUniqueCode);\r\n    }\r\n    \r\n    function evidenceNewOwner(string memory _evidenceUniqueCode, address _newOwner) onlyOwner(_evidenceUniqueCode) public {\r\n        EntitiesManager.Entity memory _entity =  entitiesManager.getLastUpdate(_newOwner);\r\n        evidencesManager.updateOwner(_evidenceUniqueCode, _entity);\r\n    } \r\n    \r\n\r\n    function addFiles(string memory _evidenceUniqueCode, string[] memory _files) onlyOwner(_evidenceUniqueCode) public {\r\n        evidencesManager.addFiles(_evidenceUniqueCode, _files); \r\n    }\r\n\r\n     modifier onlyOwner(string memory _evidenceUniqueCode) {\r\n          EvidencesManager.Evidence memory _evidence =  evidencesManager.getLastUpdate(_evidenceUniqueCode);\r\n          require(msg.sender == _evidence.owner.entityAddress,\"Not Owner\");\r\n          _;\r\n     }\r\n\r\n\r\n    // function addEvidence(string memory _evidenceUniqueCode,\r\n    //                     string memory _evidenceName,\r\n    //                     string memory _evidenceType) public \r\n    // {\r\n    //     // require(verifyEvidenceUniqueCode(_evidenceUniqueCode));\r\n    //     // int32 _ownerId = getParticipantId();\r\n    //     // require(_ownerId >= 0, \"Not Found Participant!\");\r\n    //     // require(keccak256(abi.encodePacked(participants[uint32(_ownerId)].participantType)) == keccak256(\"Police\"),\"Not Police.\");\r\n        \r\n    //     uint32 evidenceId = evidence_id++;\r\n\r\n    //     evidences.push(Evidence(_evidenceUniqueCode, _evidenceName, _evidenceType, msg.sender, uint32(block.timestamp)));\r\n        \r\n    //     // evidences[evidenceId].evidenceName = _evidenceName;\r\n    //     // evidences[evidenceId].evidenceType = _evidenceType;\r\n    //     // evidences[evidenceId].evidenceOwner = participants[_ownerId].participantAddress;\r\n    //     // evidences[evidenceId].mfgTimeStamp = uint32(block.timestamp);\r\n\r\n    //     //emit EvidenceAdded(evidenceId);\r\n    // }\r\n\r\n    // function verifyEvidenceUniqueCode(string memory _evidenceUniqueCode) internal view returns(bool) {\r\n    // for (uint32 i = 0; i < evidence_id; i++) {\r\n    //     if (keccak256(bytes(evidences[i].evidenceUniqueCode)) == keccak256(bytes(_evidenceUniqueCode))) {\r\n    //         return false;\r\n    //     }\r\n    // }\r\n    // return true;\r\n    // }\r\n\r\n    // function getEvidences() public view returns (Evidence[] memory){\r\n    //     return evidences;\r\n    // }\r\n\r\n    // function getEvidence(uint32 _evidenceId) public view returns (string memory,string memory,address,uint32){\r\n    //     return (evidences[_evidenceId].evidenceName,\r\n    //             evidences[_evidenceId].evidenceType,\r\n    //             evidences[_evidenceId].evidenceOwner,\r\n    //             evidences[_evidenceId].mfgTimeStamp);\r\n    // }\r\n\r\n\r\n    // function newOwner(uint32 _user1Id,uint32 _user2Id, uint32 _evidId) onlyOwner(_evidId) public returns (bool) {\r\n    //     Participant memory p1 = participants[_user1Id];\r\n    //     Participant memory p2 = participants[_user2Id];\r\n    //     uint32 ownership_id = owner_id++;\r\n\r\n    //     if(keccak256(abi.encodePacked(p1.participantType)) == keccak256(\"Police\")\r\n    //         && keccak256(abi.encodePacked(p2.participantType))==keccak256(\"Lab\")){\r\n    //         ownerships[ownership_id].evidenceId = _evidId;\r\n    //         ownerships[ownership_id].evidenceOwner = p2.participantAddress;\r\n    //         ownerships[ownership_id].ownerId = _user2Id;\r\n    //         ownerships[ownership_id].trxTimeStamp = uint32(block.timestamp);\r\n    //         evidences[_evidId].evidenceOwner = p2.participantAddress;\r\n    //         evidenceTrack[_evidId].push(ownership_id);\r\n    //         emit TransferOwnership(_evidId);\r\n\r\n    //         return (true);\r\n    //     }\r\n    //     else if(keccak256(abi.encodePacked(p1.participantType)) == keccak256(\"Lab\") \r\n    //         && keccak256(abi.encodePacked(p2.participantType))==keccak256(\"Lab\")){\r\n    //         ownerships[ownership_id].evidenceId = _evidId;\r\n    //         ownerships[ownership_id].evidenceOwner = p2.participantAddress;\r\n    //         ownerships[ownership_id].ownerId = _user2Id;\r\n    //         ownerships[ownership_id].trxTimeStamp = uint32(block.timestamp);\r\n    //         evidences[_evidId].evidenceOwner = p2.participantAddress;\r\n    //         evidenceTrack[_evidId].push(ownership_id);\r\n    //         emit TransferOwnership(_evidId);\r\n\r\n    //         return (true);\r\n    //     }\r\n    //     else if(keccak256(abi.encodePacked(p1.participantType)) == keccak256(\"Lab\") \r\n    //         && keccak256(abi.encodePacked(p2.participantType))==keccak256(\"Court\")){\r\n    //         ownerships[ownership_id].evidenceId = _evidId;\r\n    //         ownerships[ownership_id].evidenceOwner = p2.participantAddress;\r\n    //         ownerships[ownership_id].ownerId = _user2Id;\r\n    //         ownerships[ownership_id].trxTimeStamp = uint32(block.timestamp);\r\n    //         evidences[_evidId].evidenceOwner = p2.participantAddress;\r\n    //         evidenceTrack[_evidId].push(ownership_id);\r\n    //         emit TransferOwnership(_evidId);\r\n\r\n    //         return (true);\r\n    //     }\r\n\r\n    //     return (false);\r\n    // }\r\n\r\n    function getProvenance(uint32 _evidenceId) external view returns (uint32[] memory) {\r\n       return evidenceTrack[_evidenceId];\r\n    }\r\n\r\n    function getOwnership(uint32 _regId)  public view returns (uint32,uint32,address,uint32) {\r\n\r\n        ownership memory r = ownerships[_regId];\r\n\r\n         return (r.evidenceId ,r.ownerId ,r.evidenceOwner,r.trxTimeStamp);\r\n    }\r\n\r\n    // function authenticateParticipant(uint32 _uid,\r\n    //                                 string memory _uname,\r\n    //                                 string memory _pass,\r\n    //                                 string memory _utype) public view returns (bool){\r\n    //     if(keccak256(abi.encodePacked(participants[_uid].participantType)) == keccak256(abi.encodePacked(_utype))) {\r\n    //         if(keccak256(abi.encodePacked(participants[_uid].userName)) == keccak256(abi.encodePacked(_uname))) {\r\n    //             if(keccak256(abi.encodePacked(participants[_uid].password)) == keccak256(abi.encodePacked(_pass))) {\r\n    //                 return (true);\r\n    //             }\r\n    //         }\r\n    //     }\r\n\r\n    //     return (false);\r\n    // }\r\n}",
  "sourcePath": "C:\\IPCA DISSERTAO\\evidences_dapp\\contracts\\EvidenceChain.sol",
  "compiler": {
    "name": "solc",
    "version": "0.8.19+commit.7dd6d404.Emscripten.clang"
  },
  "schemaVersion": "3.4.13",
  "updatedAt": "2023-08-22T20:36:35.982Z",
  "networkType": "ethereum",
  "devdoc": {
    "kind": "dev",
    "methods": {},
    "version": 1
  },
  "userdoc": {
    "kind": "user",
    "methods": {},
    "version": 1
  }
}