{
  "contractName": "EvidenceChain",
  "abi": [
    {
      "inputs": [
        {
          "internalType": "address",
          "name": "_entitiesManagerAddress",
          "type": "address"
        },
        {
          "internalType": "address",
          "name": "_evidencesManagerAddress",
          "type": "address"
        }
      ],
      "stateMutability": "nonpayable",
      "type": "constructor"
    },
    {
      "anonymous": false,
      "inputs": [
        {
          "indexed": true,
          "internalType": "uint32",
          "name": "evidenceId",
          "type": "uint32"
        }
      ],
      "name": "EvidenceAdded",
      "type": "event"
    },
    {
      "anonymous": false,
      "inputs": [
        {
          "indexed": true,
          "internalType": "uint32",
          "name": "userId",
          "type": "uint32"
        }
      ],
      "name": "ParticipantAdded",
      "type": "event"
    },
    {
      "anonymous": false,
      "inputs": [
        {
          "indexed": false,
          "internalType": "uint32",
          "name": "evidenceId",
          "type": "uint32"
        }
      ],
      "name": "TransferOwnership",
      "type": "event"
    },
    {
      "inputs": [],
      "name": "entitiesManager",
      "outputs": [
        {
          "internalType": "contract EntitiesManager",
          "name": "",
          "type": "address"
        }
      ],
      "stateMutability": "view",
      "type": "function",
      "constant": true
    },
    {
      "inputs": [
        {
          "internalType": "uint32",
          "name": "",
          "type": "uint32"
        },
        {
          "internalType": "uint256",
          "name": "",
          "type": "uint256"
        }
      ],
      "name": "evidenceTrack",
      "outputs": [
        {
          "internalType": "uint32",
          "name": "",
          "type": "uint32"
        }
      ],
      "stateMutability": "view",
      "type": "function",
      "constant": true
    },
    {
      "inputs": [],
      "name": "evidencesManager",
      "outputs": [
        {
          "internalType": "contract EvidencesManager",
          "name": "",
          "type": "address"
        }
      ],
      "stateMutability": "view",
      "type": "function",
      "constant": true
    },
    {
      "inputs": [],
      "name": "owner_id",
      "outputs": [
        {
          "internalType": "uint32",
          "name": "",
          "type": "uint32"
        }
      ],
      "stateMutability": "view",
      "type": "function",
      "constant": true
    },
    {
      "inputs": [
        {
          "internalType": "uint32",
          "name": "",
          "type": "uint32"
        }
      ],
      "name": "ownerships",
      "outputs": [
        {
          "internalType": "uint32",
          "name": "evidenceId",
          "type": "uint32"
        },
        {
          "internalType": "uint32",
          "name": "ownerId",
          "type": "uint32"
        },
        {
          "internalType": "uint32",
          "name": "trxTimeStamp",
          "type": "uint32"
        },
        {
          "internalType": "address",
          "name": "evidenceOwner",
          "type": "address"
        }
      ],
      "stateMutability": "view",
      "type": "function",
      "constant": true
    },
    {
      "inputs": [
        {
          "internalType": "address",
          "name": "_entity",
          "type": "address"
        },
        {
          "internalType": "string",
          "name": "_userName",
          "type": "string"
        },
        {
          "internalType": "string",
          "name": "_password",
          "type": "string"
        },
        {
          "internalType": "string",
          "name": "_name",
          "type": "string"
        },
        {
          "internalType": "string",
          "name": "_departmentCode",
          "type": "string"
        },
        {
          "internalType": "enum EntitiesManager.EntityType",
          "name": "_entityType",
          "type": "uint8"
        }
      ],
      "name": "addEntity",
      "outputs": [],
      "stateMutability": "nonpayable",
      "type": "function"
    },
    {
      "inputs": [
        {
          "internalType": "address",
          "name": "_entity",
          "type": "address"
        },
        {
          "internalType": "string",
          "name": "_userName",
          "type": "string"
        },
        {
          "internalType": "string",
          "name": "_password",
          "type": "string"
        },
        {
          "internalType": "string",
          "name": "_name",
          "type": "string"
        },
        {
          "internalType": "string",
          "name": "_departmentCode",
          "type": "string"
        }
      ],
      "name": "updateEntity",
      "outputs": [],
      "stateMutability": "nonpayable",
      "type": "function"
    },
    {
      "inputs": [
        {
          "internalType": "address",
          "name": "_entityToBeApproved",
          "type": "address"
        }
      ],
      "name": "approveEntity",
      "outputs": [],
      "stateMutability": "nonpayable",
      "type": "function"
    },
    {
      "inputs": [],
      "name": "getEntities",
      "outputs": [
        {
          "components": [
            {
              "internalType": "string",
              "name": "userName",
              "type": "string"
            },
            {
              "internalType": "string",
              "name": "password",
              "type": "string"
            },
            {
              "internalType": "string",
              "name": "name",
              "type": "string"
            },
            {
              "internalType": "string",
              "name": "departmentCode",
              "type": "string"
            },
            {
              "internalType": "enum EntitiesManager.EntityType",
              "name": "entityType",
              "type": "uint8"
            },
            {
              "internalType": "address",
              "name": "entityAddress",
              "type": "address"
            },
            {
              "internalType": "uint256",
              "name": "timestamp",
              "type": "uint256"
            },
            {
              "internalType": "bool",
              "name": "isApproved",
              "type": "bool"
            },
            {
              "internalType": "address",
              "name": "approverAddress",
              "type": "address"
            }
          ],
          "internalType": "struct EntitiesManager.Entity[]",
          "name": "",
          "type": "tuple[]"
        }
      ],
      "stateMutability": "view",
      "type": "function",
      "constant": true
    },
    {
      "inputs": [
        {
          "internalType": "address",
          "name": "_entity",
          "type": "address"
        }
      ],
      "name": "getEntityHistory",
      "outputs": [
        {
          "components": [
            {
              "internalType": "string",
              "name": "userName",
              "type": "string"
            },
            {
              "internalType": "string",
              "name": "password",
              "type": "string"
            },
            {
              "internalType": "string",
              "name": "name",
              "type": "string"
            },
            {
              "internalType": "string",
              "name": "departmentCode",
              "type": "string"
            },
            {
              "internalType": "enum EntitiesManager.EntityType",
              "name": "entityType",
              "type": "uint8"
            },
            {
              "internalType": "address",
              "name": "entityAddress",
              "type": "address"
            },
            {
              "internalType": "uint256",
              "name": "timestamp",
              "type": "uint256"
            },
            {
              "internalType": "bool",
              "name": "isApproved",
              "type": "bool"
            },
            {
              "internalType": "address",
              "name": "approverAddress",
              "type": "address"
            }
          ],
          "internalType": "struct EntitiesManager.Entity[]",
          "name": "",
          "type": "tuple[]"
        }
      ],
      "stateMutability": "view",
      "type": "function",
      "constant": true
    },
    {
      "inputs": [],
      "name": "getEntityHistory",
      "outputs": [
        {
          "components": [
            {
              "internalType": "string",
              "name": "userName",
              "type": "string"
            },
            {
              "internalType": "string",
              "name": "password",
              "type": "string"
            },
            {
              "internalType": "string",
              "name": "name",
              "type": "string"
            },
            {
              "internalType": "string",
              "name": "departmentCode",
              "type": "string"
            },
            {
              "internalType": "enum EntitiesManager.EntityType",
              "name": "entityType",
              "type": "uint8"
            },
            {
              "internalType": "address",
              "name": "entityAddress",
              "type": "address"
            },
            {
              "internalType": "uint256",
              "name": "timestamp",
              "type": "uint256"
            },
            {
              "internalType": "bool",
              "name": "isApproved",
              "type": "bool"
            },
            {
              "internalType": "address",
              "name": "approverAddress",
              "type": "address"
            }
          ],
          "internalType": "struct EntitiesManager.Entity[]",
          "name": "",
          "type": "tuple[]"
        }
      ],
      "stateMutability": "view",
      "type": "function",
      "constant": true
    },
    {
      "inputs": [
        {
          "internalType": "address",
          "name": "_entity",
          "type": "address"
        }
      ],
      "name": "getEntity",
      "outputs": [
        {
          "components": [
            {
              "internalType": "string",
              "name": "userName",
              "type": "string"
            },
            {
              "internalType": "string",
              "name": "password",
              "type": "string"
            },
            {
              "internalType": "string",
              "name": "name",
              "type": "string"
            },
            {
              "internalType": "string",
              "name": "departmentCode",
              "type": "string"
            },
            {
              "internalType": "enum EntitiesManager.EntityType",
              "name": "entityType",
              "type": "uint8"
            },
            {
              "internalType": "address",
              "name": "entityAddress",
              "type": "address"
            },
            {
              "internalType": "uint256",
              "name": "timestamp",
              "type": "uint256"
            },
            {
              "internalType": "bool",
              "name": "isApproved",
              "type": "bool"
            },
            {
              "internalType": "address",
              "name": "approverAddress",
              "type": "address"
            }
          ],
          "internalType": "struct EntitiesManager.Entity",
          "name": "",
          "type": "tuple"
        }
      ],
      "stateMutability": "view",
      "type": "function",
      "constant": true
    },
    {
      "inputs": [],
      "name": "getEntity",
      "outputs": [
        {
          "components": [
            {
              "internalType": "string",
              "name": "userName",
              "type": "string"
            },
            {
              "internalType": "string",
              "name": "password",
              "type": "string"
            },
            {
              "internalType": "string",
              "name": "name",
              "type": "string"
            },
            {
              "internalType": "string",
              "name": "departmentCode",
              "type": "string"
            },
            {
              "internalType": "enum EntitiesManager.EntityType",
              "name": "entityType",
              "type": "uint8"
            },
            {
              "internalType": "address",
              "name": "entityAddress",
              "type": "address"
            },
            {
              "internalType": "uint256",
              "name": "timestamp",
              "type": "uint256"
            },
            {
              "internalType": "bool",
              "name": "isApproved",
              "type": "bool"
            },
            {
              "internalType": "address",
              "name": "approverAddress",
              "type": "address"
            }
          ],
          "internalType": "struct EntitiesManager.Entity",
          "name": "",
          "type": "tuple"
        }
      ],
      "stateMutability": "view",
      "type": "function",
      "constant": true
    },
    {
      "inputs": [
        {
          "internalType": "string",
          "name": "_uname",
          "type": "string"
        },
        {
          "internalType": "string",
          "name": "_pass",
          "type": "string"
        }
      ],
      "name": "authenticateEntity",
      "outputs": [
        {
          "internalType": "bool",
          "name": "",
          "type": "bool"
        }
      ],
      "stateMutability": "view",
      "type": "function",
      "constant": true
    },
    {
      "inputs": [
        {
          "internalType": "string",
          "name": "_evidenceUniqueCode",
          "type": "string"
        },
        {
          "internalType": "string",
          "name": "_caseNo",
          "type": "string"
        },
        {
          "internalType": "enum EvidencesManager.EvidenceClassification",
          "name": "_classification",
          "type": "uint8"
        },
        {
          "internalType": "string",
          "name": "_evidenceName",
          "type": "string"
        },
        {
          "internalType": "enum EvidencesManager.EvidenceType",
          "name": "_evidenceType",
          "type": "uint8"
        }
      ],
      "name": "addEvidence",
      "outputs": [],
      "stateMutability": "nonpayable",
      "type": "function"
    },
    {
      "inputs": [],
      "name": "getEvidences",
      "outputs": [
        {
          "components": [
            {
              "internalType": "string",
              "name": "uniqueCode",
              "type": "string"
            },
            {
              "internalType": "string",
              "name": "caseNo",
              "type": "string"
            },
            {
              "internalType": "enum EvidencesManager.EvidenceClassification",
              "name": "classification",
              "type": "uint8"
            },
            {
              "internalType": "string",
              "name": "name",
              "type": "string"
            },
            {
              "internalType": "enum EvidencesManager.EvidenceType",
              "name": "eType",
              "type": "uint8"
            },
            {
              "components": [
                {
                  "internalType": "string",
                  "name": "userName",
                  "type": "string"
                },
                {
                  "internalType": "string",
                  "name": "password",
                  "type": "string"
                },
                {
                  "internalType": "string",
                  "name": "name",
                  "type": "string"
                },
                {
                  "internalType": "string",
                  "name": "departmentCode",
                  "type": "string"
                },
                {
                  "internalType": "enum EntitiesManager.EntityType",
                  "name": "entityType",
                  "type": "uint8"
                },
                {
                  "internalType": "address",
                  "name": "entityAddress",
                  "type": "address"
                },
                {
                  "internalType": "uint256",
                  "name": "timestamp",
                  "type": "uint256"
                },
                {
                  "internalType": "bool",
                  "name": "isApproved",
                  "type": "bool"
                },
                {
                  "internalType": "address",
                  "name": "approverAddress",
                  "type": "address"
                }
              ],
              "internalType": "struct EntitiesManager.Entity",
              "name": "owner",
              "type": "tuple"
            },
            {
              "internalType": "uint256",
              "name": "timestamp",
              "type": "uint256"
            },
            {
              "internalType": "string[]",
              "name": "uFilesCodes",
              "type": "string[]"
            },
            {
              "internalType": "bool",
              "name": "isActive",
              "type": "bool"
            },
            {
              "internalType": "string",
              "name": "observations",
              "type": "string"
            }
          ],
          "internalType": "struct EvidencesManager.Evidence[]",
          "name": "",
          "type": "tuple[]"
        }
      ],
      "stateMutability": "view",
      "type": "function",
      "constant": true
    },
    {
      "inputs": [
        {
          "internalType": "string",
          "name": "_evidenceUniqueCode",
          "type": "string"
        }
      ],
      "name": "getEvidenceHistory",
      "outputs": [
        {
          "components": [
            {
              "internalType": "string",
              "name": "uniqueCode",
              "type": "string"
            },
            {
              "internalType": "string",
              "name": "caseNo",
              "type": "string"
            },
            {
              "internalType": "enum EvidencesManager.EvidenceClassification",
              "name": "classification",
              "type": "uint8"
            },
            {
              "internalType": "string",
              "name": "name",
              "type": "string"
            },
            {
              "internalType": "enum EvidencesManager.EvidenceType",
              "name": "eType",
              "type": "uint8"
            },
            {
              "components": [
                {
                  "internalType": "string",
                  "name": "userName",
                  "type": "string"
                },
                {
                  "internalType": "string",
                  "name": "password",
                  "type": "string"
                },
                {
                  "internalType": "string",
                  "name": "name",
                  "type": "string"
                },
                {
                  "internalType": "string",
                  "name": "departmentCode",
                  "type": "string"
                },
                {
                  "internalType": "enum EntitiesManager.EntityType",
                  "name": "entityType",
                  "type": "uint8"
                },
                {
                  "internalType": "address",
                  "name": "entityAddress",
                  "type": "address"
                },
                {
                  "internalType": "uint256",
                  "name": "timestamp",
                  "type": "uint256"
                },
                {
                  "internalType": "bool",
                  "name": "isApproved",
                  "type": "bool"
                },
                {
                  "internalType": "address",
                  "name": "approverAddress",
                  "type": "address"
                }
              ],
              "internalType": "struct EntitiesManager.Entity",
              "name": "owner",
              "type": "tuple"
            },
            {
              "internalType": "uint256",
              "name": "timestamp",
              "type": "uint256"
            },
            {
              "internalType": "string[]",
              "name": "uFilesCodes",
              "type": "string[]"
            },
            {
              "internalType": "bool",
              "name": "isActive",
              "type": "bool"
            },
            {
              "internalType": "string",
              "name": "observations",
              "type": "string"
            }
          ],
          "internalType": "struct EvidencesManager.Evidence[]",
          "name": "",
          "type": "tuple[]"
        }
      ],
      "stateMutability": "view",
      "type": "function",
      "constant": true
    },
    {
      "inputs": [
        {
          "internalType": "string",
          "name": "_evidenceUniqueCode",
          "type": "string"
        }
      ],
      "name": "getEvidence",
      "outputs": [
        {
          "components": [
            {
              "internalType": "string",
              "name": "uniqueCode",
              "type": "string"
            },
            {
              "internalType": "string",
              "name": "caseNo",
              "type": "string"
            },
            {
              "internalType": "enum EvidencesManager.EvidenceClassification",
              "name": "classification",
              "type": "uint8"
            },
            {
              "internalType": "string",
              "name": "name",
              "type": "string"
            },
            {
              "internalType": "enum EvidencesManager.EvidenceType",
              "name": "eType",
              "type": "uint8"
            },
            {
              "components": [
                {
                  "internalType": "string",
                  "name": "userName",
                  "type": "string"
                },
                {
                  "internalType": "string",
                  "name": "password",
                  "type": "string"
                },
                {
                  "internalType": "string",
                  "name": "name",
                  "type": "string"
                },
                {
                  "internalType": "string",
                  "name": "departmentCode",
                  "type": "string"
                },
                {
                  "internalType": "enum EntitiesManager.EntityType",
                  "name": "entityType",
                  "type": "uint8"
                },
                {
                  "internalType": "address",
                  "name": "entityAddress",
                  "type": "address"
                },
                {
                  "internalType": "uint256",
                  "name": "timestamp",
                  "type": "uint256"
                },
                {
                  "internalType": "bool",
                  "name": "isApproved",
                  "type": "bool"
                },
                {
                  "internalType": "address",
                  "name": "approverAddress",
                  "type": "address"
                }
              ],
              "internalType": "struct EntitiesManager.Entity",
              "name": "owner",
              "type": "tuple"
            },
            {
              "internalType": "uint256",
              "name": "timestamp",
              "type": "uint256"
            },
            {
              "internalType": "string[]",
              "name": "uFilesCodes",
              "type": "string[]"
            },
            {
              "internalType": "bool",
              "name": "isActive",
              "type": "bool"
            },
            {
              "internalType": "string",
              "name": "observations",
              "type": "string"
            }
          ],
          "internalType": "struct EvidencesManager.Evidence",
          "name": "",
          "type": "tuple"
        }
      ],
      "stateMutability": "view",
      "type": "function",
      "constant": true
    },
    {
      "inputs": [
        {
          "internalType": "string",
          "name": "_evidenceUniqueCode",
          "type": "string"
        },
        {
          "internalType": "address[]",
          "name": "_entities",
          "type": "address[]"
        }
      ],
      "name": "addAllowedUsers",
      "outputs": [],
      "stateMutability": "nonpayable",
      "type": "function"
    },
    {
      "inputs": [
        {
          "internalType": "string",
          "name": "_evidenceUniqueCode",
          "type": "string"
        },
        {
          "internalType": "address",
          "name": "_newOwner",
          "type": "address"
        }
      ],
      "name": "evidenceNewOwner",
      "outputs": [],
      "stateMutability": "nonpayable",
      "type": "function"
    },
    {
      "inputs": [
        {
          "internalType": "string",
          "name": "_evidenceUniqueCode",
          "type": "string"
        },
        {
          "internalType": "string",
          "name": "_fileId",
          "type": "string"
        },
        {
          "internalType": "string",
          "name": "_fileName",
          "type": "string"
        },
        {
          "internalType": "string",
          "name": "_fileHash",
          "type": "string"
        }
      ],
      "name": "addFile",
      "outputs": [],
      "stateMutability": "nonpayable",
      "type": "function"
    },
    {
      "inputs": [
        {
          "internalType": "string",
          "name": "_evidenceUniqueCode",
          "type": "string"
        },
        {
          "internalType": "string",
          "name": "_fileUniqueCode",
          "type": "string"
        }
      ],
      "name": "getFileInfo",
      "outputs": [
        {
          "components": [
            {
              "internalType": "string",
              "name": "id",
              "type": "string"
            },
            {
              "internalType": "string",
              "name": "fileName",
              "type": "string"
            },
            {
              "internalType": "string",
              "name": "fileHash",
              "type": "string"
            }
          ],
          "internalType": "struct EvidencesManager.EvidenceFile",
          "name": "",
          "type": "tuple"
        }
      ],
      "stateMutability": "view",
      "type": "function",
      "constant": true
    }
  ],
  "bytecode": "0x60806040526000600160146101000a81548163ffffffff021916908363ffffffff1602179055503480156200003357600080fd5b50604051620041d8380380620041d883398181016040528101906200005991906200014c565b816000806101000a81548173ffffffffffffffffffffffffffffffffffffffff021916908373ffffffffffffffffffffffffffffffffffffffff16021790555080600160006101000a81548173ffffffffffffffffffffffffffffffffffffffff021916908373ffffffffffffffffffffffffffffffffffffffff160217905550505062000193565b600080fd5b600073ffffffffffffffffffffffffffffffffffffffff82169050919050565b60006200011482620000e7565b9050919050565b620001268162000107565b81146200013257600080fd5b50565b60008151905062000146816200011b565b92915050565b60008060408385031215620001665762000165620000e2565b5b6000620001768582860162000135565b9250506020620001898582860162000135565b9150509250929050565b61403580620001a36000396000f3fe608060405234801561001057600080fd5b506004361061015f576000357c0100000000000000000000000000000000000000000000000000000000900480638b57d984116100d5578063b16c6ee711610099578063b16c6ee7146103a7578063c6a22c41146103d7578063c892522e146103f3578063dff95aac14610423578063e3271cf914610441578063ff200d2b1461045f5761015f565b80638b57d984146103155780638cb58fc1146103335780638f5ebf7114610351578063b0d9d59b1461036f578063b15aae601461038b5761015f565b806331eb897f1161012757806331eb897f1461021a5780635760620b1461024a5780635f067db01461027a578063679352fd1461029657806375894e8c146102b257806381e15610146102e25761015f565b806303c8b6fc146101645780631f7331471461018057806328320e1c1461019c5780632c5ec5c8146101cc57806331b933b9146101fc575b600080fd5b61017e60048036038101906101799190612029565b61047d565b005b61019a60048036038101906101959190612126565b610536565b005b6101b660048036038101906101b19190612211565b6105ec565b6040516101c39190612513565b60405180910390f35b6101e660048036038101906101e19190612535565b6106b0565b6040516101f3919061260b565b60405180910390f35b61020461077f565b6040516102119190612513565b60405180910390f35b610234600480360381019061022f9190612535565b610a00565b604051610241919061263c565b60405180910390f35b610264600480360381019061025f91906126bf565b610b85565b604051610271919061270e565b60405180910390f35b610294600480360381019061028f9190612729565b610bce565b005b6102b060048036038101906102ab9190612211565b610dd9565b005b6102cc60048036038101906102c79190612211565b610e85565b6040516102d991906128da565b60405180910390f35b6102fc60048036038101906102f791906128fc565b610f4f565b60405161030c9493929190612938565b60405180910390f35b61031d610fcf565b60405161032a9190612513565b60405180910390f35b61033b611091565b60405161034891906129dc565b60405180910390f35b6103596110b7565b604051610366919061270e565b60405180910390f35b61038960048036038101906103849190612a41565b6110cd565b005b6103a560048036038101906103a09190612bd8565b611248565b005b6103c160048036038101906103bc9190612c50565b6115b0565b6040516103ce9190612ee8565b60405180910390f35b6103f160048036038101906103ec9190612f0a565b61167c565b005b61040d60048036038101906104089190612c50565b611926565b60405161041a9190613125565b60405180910390f35b61042b611aaf565b6040516104389190613125565b60405180910390f35b610449611c34565b6040516104569190613168565b60405180910390f35b610467611c58565b60405161047491906128da565b60405180910390f35b60008054906101000a900473ffffffffffffffffffffffffffffffffffffffff1673ffffffffffffffffffffffffffffffffffffffff16635c1612b08787878787876040518763ffffffff167c01000000000000000000000000000000000000000000000000000000000281526004016104fc969594939291906131dc565b600060405180830381600087803b15801561051657600080fd5b505af115801561052a573d6000803e3d6000fd5b50505050505050505050565b60008054906101000a900473ffffffffffffffffffffffffffffffffffffffff1673ffffffffffffffffffffffffffffffffffffffff16631f73314786868686866040518663ffffffff167c01000000000000000000000000000000000000000000000000000000000281526004016105b3959493929190613259565b600060405180830381600087803b1580156105cd57600080fd5b505af11580156105e1573d6000803e3d6000fd5b505050505050505050565b606060008054906101000a900473ffffffffffffffffffffffffffffffffffffffff1673ffffffffffffffffffffffffffffffffffffffff166328320e1c836040518263ffffffff167c010000000000000000000000000000000000000000000000000000000002815260040161066391906132c8565b600060405180830381865afa158015610680573d6000803e3d6000fd5b505050506040513d6000823e3d601f19601f820116820180604052508101906106a991906135f9565b9050919050565b6106b8611d20565b600160009054906101000a900473ffffffffffffffffffffffffffffffffffffffff1673ffffffffffffffffffffffffffffffffffffffff16632c5ec5c884846040518363ffffffff167c0100000000000000000000000000000000000000000000000000000000028152600401610731929190613642565b600060405180830381865afa15801561074e573d6000803e3d6000fd5b505050506040513d6000823e3d601f19601f820116820180604052508101906107779190613731565b905092915050565b606060008060009054906101000a900473ffffffffffffffffffffffffffffffffffffffff1673ffffffffffffffffffffffffffffffffffffffff166331b933b96040518163ffffffff167c0100000000000000000000000000000000000000000000000000000000028152600401600060405180830381865afa15801561080b573d6000803e3d6000fd5b505050506040513d6000823e3d601f19601f820116820180604052508101906108349190613811565b9050600081511161087a576040517f08c379a0000000000000000000000000000000000000000000000000000000008152600401610871906138a6565b60405180910390fd5b6000815167ffffffffffffffff81111561089757610896611ed9565b5b6040519080825280602002602001820160405280156108d057816020015b6108bd611d41565b8152602001906001900390816108b55790505b50905060005b82518163ffffffff1610156109f75760008054906101000a900473ffffffffffffffffffffffffffffffffffffffff1673ffffffffffffffffffffffffffffffffffffffff16635a7e1989848363ffffffff168151811061093a576109396138c6565b5b60200260200101516040518263ffffffff167c010000000000000000000000000000000000000000000000000000000002815260040161097a91906132c8565b600060405180830381865afa158015610997573d6000803e3d6000fd5b505050506040513d6000823e3d601f19601f820116820180604052508101906109c091906138f5565b828263ffffffff16815181106109d9576109d86138c6565b5b602002602001018190525080806109ef9061396d565b9150506108d6565b50809250505090565b60008060008054906101000a900473ffffffffffffffffffffffffffffffffffffffff1673ffffffffffffffffffffffffffffffffffffffff16635a7e1989336040518263ffffffff167c0100000000000000000000000000000000000000000000000000000000028152600401610a7891906132c8565b600060405180830381865afa158015610a95573d6000803e3d6000fd5b505050506040513d6000823e3d601f19601f82011682018060405250810190610abe91906138f5565b905083604051602001610ad191906139d5565b604051602081830303815290604052805190602001208160000151604051602001610afc91906139d5565b6040516020818303038152906040528051906020012003610b795782604051602001610b2891906139d5565b604051602081830303815290604052805190602001208160200151604051602001610b5391906139d5565b6040516020818303038152906040528051906020012003610b78576001915050610b7f565b5b60009150505b92915050565b60036020528160005260406000208181548110610ba157600080fd5b9060005260206000209060089182820401919006600402915091509054906101000a900463ffffffff1681565b836000600160009054906101000a900473ffffffffffffffffffffffffffffffffffffffff1673ffffffffffffffffffffffffffffffffffffffff16633eeb568b836040518263ffffffff167c0100000000000000000000000000000000000000000000000000000000028152600401610c4891906139ec565b600060405180830381865afa158015610c65573d6000803e3d6000fd5b505050506040513d6000823e3d601f19601f82011682018060405250810190610c8e9190613cb7565b90508060a0015160a0015173ffffffffffffffffffffffffffffffffffffffff163373ffffffffffffffffffffffffffffffffffffffff1614610d06576040517f08c379a0000000000000000000000000000000000000000000000000000000008152600401610cfd90613d4c565b60405180910390fd5b60006040518060600160405280878152602001868152602001858152509050600160009054906101000a900473ffffffffffffffffffffffffffffffffffffffff1673ffffffffffffffffffffffffffffffffffffffff1663e634926e88836040518363ffffffff167c0100000000000000000000000000000000000000000000000000000000028152600401610d9e929190613d6c565b600060405180830381600087803b158015610db857600080fd5b505af1158015610dcc573d6000803e3d6000fd5b5050505050505050505050565b60008054906101000a900473ffffffffffffffffffffffffffffffffffffffff1673ffffffffffffffffffffffffffffffffffffffff166389667cb033836040518363ffffffff167c0100000000000000000000000000000000000000000000000000000000028152600401610e50929190613da3565b600060405180830381600087803b158015610e6a57600080fd5b505af1158015610e7e573d6000803e3d6000fd5b5050505050565b610e8d611d41565b60008054906101000a900473ffffffffffffffffffffffffffffffffffffffff1673ffffffffffffffffffffffffffffffffffffffff16635a7e1989836040518263ffffffff167c0100000000000000000000000000000000000000000000000000000000028152600401610f0291906132c8565b600060405180830381865afa158015610f1f573d6000803e3d6000fd5b505050506040513d6000823e3d601f19601f82011682018060405250810190610f4891906138f5565b9050919050565b60026020528060005260406000206000915090508060000160009054906101000a900463ffffffff16908060000160049054906101000a900463ffffffff16908060000160089054906101000a900463ffffffff169080600001600c9054906101000a900473ffffffffffffffffffffffffffffffffffffffff16905084565b606060008054906101000a900473ffffffffffffffffffffffffffffffffffffffff1673ffffffffffffffffffffffffffffffffffffffff166328320e1c336040518263ffffffff167c010000000000000000000000000000000000000000000000000000000002815260040161104691906132c8565b600060405180830381865afa158015611063573d6000803e3d6000fd5b505050506040513d6000823e3d601f19601f8201168201806040525081019061108c91906135f9565b905090565b600160009054906101000a900473ffffffffffffffffffffffffffffffffffffffff1681565b600160149054906101000a900463ffffffff1681565b60008060009054906101000a900473ffffffffffffffffffffffffffffffffffffffff1673ffffffffffffffffffffffffffffffffffffffff16635a7e1989336040518263ffffffff167c010000000000000000000000000000000000000000000000000000000002815260040161114591906132c8565b600060405180830381865afa158015611162573d6000803e3d6000fd5b505050506040513d6000823e3d601f19601f8201168201806040525081019061118b91906138f5565b9050600160009054906101000a900473ffffffffffffffffffffffffffffffffffffffff1673ffffffffffffffffffffffffffffffffffffffff1663d012140e8787878787876040518763ffffffff167c010000000000000000000000000000000000000000000000000000000002815260040161120e96959493929190613dea565b600060405180830381600087803b15801561122857600080fd5b505af115801561123c573d6000803e3d6000fd5b50505050505050505050565b816000600160009054906101000a900473ffffffffffffffffffffffffffffffffffffffff1673ffffffffffffffffffffffffffffffffffffffff16633eeb568b836040518263ffffffff167c01000000000000000000000000000000000000000000000000000000000281526004016112c291906139ec565b600060405180830381865afa1580156112df573d6000803e3d6000fd5b505050506040513d6000823e3d601f19601f820116820180604052508101906113089190613cb7565b90508060a0015160a0015173ffffffffffffffffffffffffffffffffffffffff163373ffffffffffffffffffffffffffffffffffffffff1614611380576040517f08c379a000000000000000000000000000000000000000000000000000000000815260040161137790613d4c565b60405180910390fd5b6000835167ffffffffffffffff81111561139d5761139c611ed9565b5b6040519080825280602002602001820160405280156113d657816020015b6113c3611d41565b8152602001906001900390816113bb5790505b50905060005b84518163ffffffff1610156114fd5760008054906101000a900473ffffffffffffffffffffffffffffffffffffffff1673ffffffffffffffffffffffffffffffffffffffff16635a7e1989868363ffffffff16815181106114405761143f6138c6565b5b60200260200101516040518263ffffffff167c010000000000000000000000000000000000000000000000000000000002815260040161148091906132c8565b600060405180830381865afa15801561149d573d6000803e3d6000fd5b505050506040513d6000823e3d601f19601f820116820180604052508101906114c691906138f5565b828263ffffffff16815181106114df576114de6138c6565b5b602002602001018190525080806114f59061396d565b9150506113dc565b50600160009054906101000a900473ffffffffffffffffffffffffffffffffffffffff1673ffffffffffffffffffffffffffffffffffffffff16635c02a7c686836040518363ffffffff167c0100000000000000000000000000000000000000000000000000000000028152600401611577929190613e67565b600060405180830381600087803b15801561159157600080fd5b505af11580156115a5573d6000803e3d6000fd5b505050505050505050565b6115b8611dcd565b600160009054906101000a900473ffffffffffffffffffffffffffffffffffffffff1673ffffffffffffffffffffffffffffffffffffffff16633eeb568b836040518263ffffffff167c010000000000000000000000000000000000000000000000000000000002815260040161162f91906139ec565b600060405180830381865afa15801561164c573d6000803e3d6000fd5b505050506040513d6000823e3d601f19601f820116820180604052508101906116759190613cb7565b9050919050565b816000600160009054906101000a900473ffffffffffffffffffffffffffffffffffffffff1673ffffffffffffffffffffffffffffffffffffffff16633eeb568b836040518263ffffffff167c01000000000000000000000000000000000000000000000000000000000281526004016116f691906139ec565b600060405180830381865afa158015611713573d6000803e3d6000fd5b505050506040513d6000823e3d601f19601f8201168201806040525081019061173c9190613cb7565b90508060a0015160a0015173ffffffffffffffffffffffffffffffffffffffff163373ffffffffffffffffffffffffffffffffffffffff16146117b4576040517f08c379a00000000000000000000000000000000000000000000000000000000081526004016117ab90613d4c565b60405180910390fd5b60008060009054906101000a900473ffffffffffffffffffffffffffffffffffffffff1673ffffffffffffffffffffffffffffffffffffffff16635a7e1989856040518263ffffffff167c010000000000000000000000000000000000000000000000000000000002815260040161182c91906132c8565b600060405180830381865afa158015611849573d6000803e3d6000fd5b505050506040513d6000823e3d601f19601f8201168201806040525081019061187291906138f5565b9050600160009054906101000a900473ffffffffffffffffffffffffffffffffffffffff1673ffffffffffffffffffffffffffffffffffffffff166345ac77d986836040518363ffffffff167c01000000000000000000000000000000000000000000000000000000000281526004016118ed929190613e9e565b600060405180830381600087803b15801561190757600080fd5b505af115801561191b573d6000803e3d6000fd5b505050505050505050565b606060008060009054906101000a900473ffffffffffffffffffffffffffffffffffffffff1673ffffffffffffffffffffffffffffffffffffffff16635a7e1989336040518263ffffffff167c01000000000000000000000000000000000000000000000000000000000281526004016119a091906132c8565b600060405180830381865afa1580156119bd573d6000803e3d6000fd5b505050506040513d6000823e3d601f19601f820116820180604052508101906119e691906138f5565b9050600160009054906101000a900473ffffffffffffffffffffffffffffffffffffffff1673ffffffffffffffffffffffffffffffffffffffff16630b97f70184836040518363ffffffff167c0100000000000000000000000000000000000000000000000000000000028152600401611a61929190613e9e565b600060405180830381865afa158015611a7e573d6000803e3d6000fd5b505050506040513d6000823e3d601f19601f82011682018060405250810190611aa79190613fb6565b915050919050565b606060008060009054906101000a900473ffffffffffffffffffffffffffffffffffffffff1673ffffffffffffffffffffffffffffffffffffffff16635a7e1989336040518263ffffffff167c0100000000000000000000000000000000000000000000000000000000028152600401611b2991906132c8565b600060405180830381865afa158015611b46573d6000803e3d6000fd5b505050506040513d6000823e3d601f19601f82011682018060405250810190611b6f91906138f5565b9050600160009054906101000a900473ffffffffffffffffffffffffffffffffffffffff1673ffffffffffffffffffffffffffffffffffffffff1663656fc077826040518263ffffffff167c0100000000000000000000000000000000000000000000000000000000028152600401611be891906128da565b600060405180830381865afa158015611c05573d6000803e3d6000fd5b505050506040513d6000823e3d601f19601f82011682018060405250810190611c2e9190613fb6565b91505090565b60008054906101000a900473ffffffffffffffffffffffffffffffffffffffff1681565b611c60611d41565b60008054906101000a900473ffffffffffffffffffffffffffffffffffffffff1673ffffffffffffffffffffffffffffffffffffffff16635a7e1989336040518263ffffffff167c0100000000000000000000000000000000000000000000000000000000028152600401611cd591906132c8565b600060405180830381865afa158015611cf2573d6000803e3d6000fd5b505050506040513d6000823e3d601f19601f82011682018060405250810190611d1b91906138f5565b905090565b60405180606001604052806060815260200160608152602001606081525090565b6040518061012001604052806060815260200160608152602001606081526020016060815260200160006004811115611d7d57611d7c6122e9565b5b8152602001600073ffffffffffffffffffffffffffffffffffffffff16815260200160008152602001600015158152602001600073ffffffffffffffffffffffffffffffffffffffff1681525090565b604051806101400160405280606081526020016060815260200160006002811115611dfb57611dfa6122e9565b5b81526020016060815260200160006003811115611e1b57611e1a6122e9565b5b8152602001611e28611d41565b81526020016000815260200160608152602001600015158152602001606081525090565b6000604051905090565b600080fd5b600080fd5b600073ffffffffffffffffffffffffffffffffffffffff82169050919050565b6000611e8b82611e60565b9050919050565b611e9b81611e80565b8114611ea657600080fd5b50565b600081359050611eb881611e92565b92915050565b600080fd5b600080fd5b6000601f19601f8301169050919050565b7f4e487b7100000000000000000000000000000000000000000000000000000000600052604160045260246000fd5b611f1182611ec8565b810181811067ffffffffffffffff82111715611f3057611f2f611ed9565b5b80604052505050565b6000611f43611e4c565b9050611f4f8282611f08565b919050565b600067ffffffffffffffff821115611f6f57611f6e611ed9565b5b611f7882611ec8565b9050602081019050919050565b82818337600083830152505050565b6000611fa7611fa284611f54565b611f39565b905082815260208101848484011115611fc357611fc2611ec3565b5b611fce848285611f85565b509392505050565b600082601f830112611feb57611fea611ebe565b5b8135611ffb848260208601611f94565b91505092915050565b6005811061201157600080fd5b50565b60008135905061202381612004565b92915050565b60008060008060008060c0878903121561204657612045611e56565b5b600061205489828a01611ea9565b965050602087013567ffffffffffffffff81111561207557612074611e5b565b5b61208189828a01611fd6565b955050604087013567ffffffffffffffff8111156120a2576120a1611e5b565b5b6120ae89828a01611fd6565b945050606087013567ffffffffffffffff8111156120cf576120ce611e5b565b5b6120db89828a01611fd6565b935050608087013567ffffffffffffffff8111156120fc576120fb611e5b565b5b61210889828a01611fd6565b92505060a061211989828a01612014565b9150509295509295509295565b600080600080600060a0868803121561214257612141611e56565b5b600061215088828901611ea9565b955050602086013567ffffffffffffffff81111561217157612170611e5b565b5b61217d88828901611fd6565b945050604086013567ffffffffffffffff81111561219e5761219d611e5b565b5b6121aa88828901611fd6565b935050606086013567ffffffffffffffff8111156121cb576121ca611e5b565b5b6121d788828901611fd6565b925050608086013567ffffffffffffffff8111156121f8576121f7611e5b565b5b61220488828901611fd6565b9150509295509295909350565b60006020828403121561222757612226611e56565b5b600061223584828501611ea9565b91505092915050565b600081519050919050565b600082825260208201905092915050565b6000819050602082019050919050565b600081519050919050565b600082825260208201905092915050565b60005b838110156122a4578082015181840152602081019050612289565b60008484015250505050565b60006122bb8261226a565b6122c58185612275565b93506122d5818560208601612286565b6122de81611ec8565b840191505092915050565b7f4e487b7100000000000000000000000000000000000000000000000000000000600052602160045260246000fd5b60058110612329576123286122e9565b5b50565b600081905061233a82612318565b919050565b600061234a8261232c565b9050919050565b61235a8161233f565b82525050565b61236981611e80565b82525050565b6000819050919050565b6123828161236f565b82525050565b60008115159050919050565b61239d81612388565b82525050565b60006101208301600083015184820360008601526123c182826122b0565b915050602083015184820360208601526123db82826122b0565b915050604083015184820360408601526123f582826122b0565b9150506060830151848203606086015261240f82826122b0565b91505060808301516124246080860182612351565b5060a083015161243760a0860182612360565b5060c083015161244a60c0860182612379565b5060e083015161245d60e0860182612394565b50610100830151612472610100860182612360565b508091505092915050565b600061248983836123a3565b905092915050565b6000602082019050919050565b60006124a98261223e565b6124b38185612249565b9350836020820285016124c58561225a565b8060005b8581101561250157848403895281516124e2858261247d565b94506124ed83612491565b925060208a019950506001810190506124c9565b50829750879550505050505092915050565b6000602082019050818103600083015261252d818461249e565b905092915050565b6000806040838503121561254c5761254b611e56565b5b600083013567ffffffffffffffff81111561256a57612569611e5b565b5b61257685828601611fd6565b925050602083013567ffffffffffffffff81111561259757612596611e5b565b5b6125a385828601611fd6565b9150509250929050565b600060608301600083015184820360008601526125ca82826122b0565b915050602083015184820360208601526125e482826122b0565b915050604083015184820360408601526125fe82826122b0565b9150508091505092915050565b6000602082019050818103600083015261262581846125ad565b905092915050565b61263681612388565b82525050565b6000602082019050612651600083018461262d565b92915050565b600063ffffffff82169050919050565b61267081612657565b811461267b57600080fd5b50565b60008135905061268d81612667565b92915050565b61269c8161236f565b81146126a757600080fd5b50565b6000813590506126b981612693565b92915050565b600080604083850312156126d6576126d5611e56565b5b60006126e48582860161267e565b92505060206126f5858286016126aa565b9150509250929050565b61270881612657565b82525050565b600060208201905061272360008301846126ff565b92915050565b6000806000806080858703121561274357612742611e56565b5b600085013567ffffffffffffffff81111561276157612760611e5b565b5b61276d87828801611fd6565b945050602085013567ffffffffffffffff81111561278e5761278d611e5b565b5b61279a87828801611fd6565b935050604085013567ffffffffffffffff8111156127bb576127ba611e5b565b5b6127c787828801611fd6565b925050606085013567ffffffffffffffff8111156127e8576127e7611e5b565b5b6127f487828801611fd6565b91505092959194509250565b600061012083016000830151848203600086015261281e82826122b0565b9150506020830151848203602086015261283882826122b0565b9150506040830151848203604086015261285282826122b0565b9150506060830151848203606086015261286c82826122b0565b91505060808301516128816080860182612351565b5060a083015161289460a0860182612360565b5060c08301516128a760c0860182612379565b5060e08301516128ba60e0860182612394565b506101008301516128cf610100860182612360565b508091505092915050565b600060208201905081810360008301526128f48184612800565b905092915050565b60006020828403121561291257612911611e56565b5b60006129208482850161267e565b91505092915050565b61293281611e80565b82525050565b600060808201905061294d60008301876126ff565b61295a60208301866126ff565b61296760408301856126ff565b6129746060830184612929565b95945050505050565b6000819050919050565b60006129a261299d61299884611e60565b61297d565b611e60565b9050919050565b60006129b482612987565b9050919050565b60006129c6826129a9565b9050919050565b6129d6816129bb565b82525050565b60006020820190506129f160008301846129cd565b92915050565b60038110612a0457600080fd5b50565b600081359050612a16816129f7565b92915050565b60048110612a2957600080fd5b50565b600081359050612a3b81612a1c565b92915050565b600080600080600060a08688031215612a5d57612a5c611e56565b5b600086013567ffffffffffffffff811115612a7b57612a7a611e5b565b5b612a8788828901611fd6565b955050602086013567ffffffffffffffff811115612aa857612aa7611e5b565b5b612ab488828901611fd6565b9450506040612ac588828901612a07565b935050606086013567ffffffffffffffff811115612ae657612ae5611e5b565b5b612af288828901611fd6565b9250506080612b0388828901612a2c565b9150509295509295909350565b600067ffffffffffffffff821115612b2b57612b2a611ed9565b5b602082029050602081019050919050565b600080fd5b6000612b54612b4f84612b10565b611f39565b90508083825260208201905060208402830185811115612b7757612b76612b3c565b5b835b81811015612ba05780612b8c8882611ea9565b845260208401935050602081019050612b79565b5050509392505050565b600082601f830112612bbf57612bbe611ebe565b5b8135612bcf848260208601612b41565b91505092915050565b60008060408385031215612bef57612bee611e56565b5b600083013567ffffffffffffffff811115612c0d57612c0c611e5b565b5b612c1985828601611fd6565b925050602083013567ffffffffffffffff811115612c3a57612c39611e5b565b5b612c4685828601612baa565b9150509250929050565b600060208284031215612c6657612c65611e56565b5b600082013567ffffffffffffffff811115612c8457612c83611e5b565b5b612c9084828501611fd6565b91505092915050565b60038110612caa57612ca96122e9565b5b50565b6000819050612cbb82612c99565b919050565b6000612ccb82612cad565b9050919050565b612cdb81612cc0565b82525050565b60048110612cf257612cf16122e9565b5b50565b6000819050612d0382612ce1565b919050565b6000612d1382612cf5565b9050919050565b612d2381612d08565b82525050565b600081519050919050565b600082825260208201905092915050565b6000819050602082019050919050565b6000612d6183836122b0565b905092915050565b6000602082019050919050565b6000612d8182612d29565b612d8b8185612d34565b935083602082028501612d9d85612d45565b8060005b85811015612dd95784840389528151612dba8582612d55565b9450612dc583612d69565b925060208a01995050600181019050612da1565b50829750879550505050505092915050565b6000610140830160008301518482036000860152612e0982826122b0565b91505060208301518482036020860152612e2382826122b0565b9150506040830151612e386040860182612cd2565b5060608301518482036060860152612e5082826122b0565b9150506080830151612e656080860182612d1a565b5060a083015184820360a0860152612e7d82826123a3565b91505060c0830151612e9260c0860182612379565b5060e083015184820360e0860152612eaa8282612d76565b915050610100830151612ec1610100860182612394565b50610120830151848203610120860152612edb82826122b0565b9150508091505092915050565b60006020820190508181036000830152612f028184612deb565b905092915050565b60008060408385031215612f2157612f20611e56565b5b600083013567ffffffffffffffff811115612f3f57612f3e611e5b565b5b612f4b85828601611fd6565b9250506020612f5c85828601611ea9565b9150509250929050565b600081519050919050565b600082825260208201905092915050565b6000819050602082019050919050565b6000610140830160008301518482036000860152612fb082826122b0565b91505060208301518482036020860152612fca82826122b0565b9150506040830151612fdf6040860182612cd2565b5060608301518482036060860152612ff782826122b0565b915050608083015161300c6080860182612d1a565b5060a083015184820360a086015261302482826123a3565b91505060c083015161303960c0860182612379565b5060e083015184820360e08601526130518282612d76565b915050610100830151613068610100860182612394565b5061012083015184820361012086015261308282826122b0565b9150508091505092915050565b600061309b8383612f92565b905092915050565b6000602082019050919050565b60006130bb82612f66565b6130c58185612f71565b9350836020820285016130d785612f82565b8060005b8581101561311357848403895281516130f4858261308f565b94506130ff836130a3565b925060208a019950506001810190506130db565b50829750879550505050505092915050565b6000602082019050818103600083015261313f81846130b0565b905092915050565b6000613152826129a9565b9050919050565b61316281613147565b82525050565b600060208201905061317d6000830184613159565b92915050565b600082825260208201905092915050565b600061319f8261226a565b6131a98185613183565b93506131b9818560208601612286565b6131c281611ec8565b840191505092915050565b6131d68161233f565b82525050565b600060c0820190506131f16000830189612929565b81810360208301526132038188613194565b905081810360408301526132178187613194565b9050818103606083015261322b8186613194565b9050818103608083015261323f8185613194565b905061324e60a08301846131cd565b979650505050505050565b600060a08201905061326e6000830188612929565b81810360208301526132808187613194565b905081810360408301526132948186613194565b905081810360608301526132a88185613194565b905081810360808301526132bc8184613194565b90509695505050505050565b60006020820190506132dd6000830184612929565b92915050565b600067ffffffffffffffff8211156132fe576132fd611ed9565b5b602082029050602081019050919050565b600080fd5b600080fd5b600061332c61332784611f54565b611f39565b90508281526020810184848401111561334857613347611ec3565b5b613353848285612286565b509392505050565b600082601f8301126133705761336f611ebe565b5b8151613380848260208601613319565b91505092915050565b60008151905061339881612004565b92915050565b6000815190506133ad81611e92565b92915050565b6000815190506133c281612693565b92915050565b6133d181612388565b81146133dc57600080fd5b50565b6000815190506133ee816133c8565b92915050565b6000610120828403121561340b5761340a61330f565b5b613416610120611f39565b9050600082015167ffffffffffffffff81111561343657613435613314565b5b6134428482850161335b565b600083015250602082015167ffffffffffffffff81111561346657613465613314565b5b6134728482850161335b565b602083015250604082015167ffffffffffffffff81111561349657613495613314565b5b6134a28482850161335b565b604083015250606082015167ffffffffffffffff8111156134c6576134c5613314565b5b6134d28482850161335b565b60608301525060806134e684828501613389565b60808301525060a06134fa8482850161339e565b60a08301525060c061350e848285016133b3565b60c08301525060e0613522848285016133df565b60e0830152506101006135378482850161339e565b6101008301525092915050565b6000613557613552846132e3565b611f39565b9050808382526020820190506020840283018581111561357a57613579612b3c565b5b835b818110156135c157805167ffffffffffffffff81111561359f5761359e611ebe565b5b8086016135ac89826133f4565b8552602085019450505060208101905061357c565b5050509392505050565b600082601f8301126135e0576135df611ebe565b5b81516135f0848260208601613544565b91505092915050565b60006020828403121561360f5761360e611e56565b5b600082015167ffffffffffffffff81111561362d5761362c611e5b565b5b613639848285016135cb565b91505092915050565b6000604082019050818103600083015261365c8185613194565b905081810360208301526136708184613194565b90509392505050565b60006060828403121561368f5761368e61330f565b5b6136996060611f39565b9050600082015167ffffffffffffffff8111156136b9576136b8613314565b5b6136c58482850161335b565b600083015250602082015167ffffffffffffffff8111156136e9576136e8613314565b5b6136f58482850161335b565b602083015250604082015167ffffffffffffffff81111561371957613718613314565b5b6137258482850161335b565b60408301525092915050565b60006020828403121561374757613746611e56565b5b600082015167ffffffffffffffff81111561376557613764611e5b565b5b61377184828501613679565b91505092915050565b600061378d61378884612b10565b611f39565b905080838252602082019050602084028301858111156137b0576137af612b3c565b5b835b818110156137d957806137c5888261339e565b8452602084019350506020810190506137b2565b5050509392505050565b600082601f8301126137f8576137f7611ebe565b5b815161380884826020860161377a565b91505092915050565b60006020828403121561382757613826611e56565b5b600082015167ffffffffffffffff81111561384557613844611e5b565b5b613851848285016137e3565b91505092915050565b7f4e6f20456e746974696573000000000000000000000000000000000000000000600082015250565b6000613890600b83613183565b915061389b8261385a565b602082019050919050565b600060208201905081810360008301526138bf81613883565b9050919050565b7f4e487b7100000000000000000000000000000000000000000000000000000000600052603260045260246000fd5b60006020828403121561390b5761390a611e56565b5b600082015167ffffffffffffffff81111561392957613928611e5b565b5b613935848285016133f4565b91505092915050565b7f4e487b7100000000000000000000000000000000000000000000000000000000600052601160045260246000fd5b600061397882612657565b915063ffffffff820361398e5761398d61393e565b5b600182019050919050565b600081905092915050565b60006139af8261226a565b6139b98185613999565b93506139c9818560208601612286565b80840191505092915050565b60006139e182846139a4565b915081905092915050565b60006020820190508181036000830152613a068184613194565b905092915050565b600081519050613a1d816129f7565b92915050565b600081519050613a3281612a1c565b92915050565b600067ffffffffffffffff821115613a5357613a52611ed9565b5b602082029050602081019050919050565b6000613a77613a7284613a38565b611f39565b90508083825260208201905060208402830185811115613a9a57613a99612b3c565b5b835b81811015613ae157805167ffffffffffffffff811115613abf57613abe611ebe565b5b808601613acc898261335b565b85526020850194505050602081019050613a9c565b5050509392505050565b600082601f830112613b0057613aff611ebe565b5b8151613b10848260208601613a64565b91505092915050565b60006101408284031215613b3057613b2f61330f565b5b613b3b610140611f39565b9050600082015167ffffffffffffffff811115613b5b57613b5a613314565b5b613b678482850161335b565b600083015250602082015167ffffffffffffffff811115613b8b57613b8a613314565b5b613b978482850161335b565b6020830152506040613bab84828501613a0e565b604083015250606082015167ffffffffffffffff811115613bcf57613bce613314565b5b613bdb8482850161335b565b6060830152506080613bef84828501613a23565b60808301525060a082015167ffffffffffffffff811115613c1357613c12613314565b5b613c1f848285016133f4565b60a08301525060c0613c33848285016133b3565b60c08301525060e082015167ffffffffffffffff811115613c5757613c56613314565b5b613c6384828501613aeb565b60e083015250610100613c78848285016133df565b6101008301525061012082015167ffffffffffffffff811115613c9e57613c9d613314565b5b613caa8482850161335b565b6101208301525092915050565b600060208284031215613ccd57613ccc611e56565b5b600082015167ffffffffffffffff811115613ceb57613cea611e5b565b5b613cf784828501613b19565b91505092915050565b7f4e6f74204f776e65720000000000000000000000000000000000000000000000600082015250565b6000613d36600983613183565b9150613d4182613d00565b602082019050919050565b60006020820190508181036000830152613d6581613d29565b9050919050565b60006040820190508181036000830152613d868185613194565b90508181036020830152613d9a81846125ad565b90509392505050565b6000604082019050613db86000830185612929565b613dc56020830184612929565b9392505050565b613dd581612cc0565b82525050565b613de481612d08565b82525050565b600060c0820190508181036000830152613e048189613194565b90508181036020830152613e188188613194565b9050613e276040830187613dcc565b8181036060830152613e398186613194565b9050613e486080830185613ddb565b81810360a0830152613e5a8184612800565b9050979650505050505050565b60006040820190508181036000830152613e818185613194565b90508181036020830152613e95818461249e565b90509392505050565b60006040820190508181036000830152613eb88185613194565b90508181036020830152613ecc8184612800565b90509392505050565b600067ffffffffffffffff821115613ef057613eef611ed9565b5b602082029050602081019050919050565b6000613f14613f0f84613ed5565b611f39565b90508083825260208201905060208402830185811115613f3757613f36612b3c565b5b835b81811015613f7e57805167ffffffffffffffff811115613f5c57613f5b611ebe565b5b808601613f698982613b19565b85526020850194505050602081019050613f39565b5050509392505050565b600082601f830112613f9d57613f9c611ebe565b5b8151613fad848260208601613f01565b91505092915050565b600060208284031215613fcc57613fcb611e56565b5b600082015167ffffffffffffffff811115613fea57613fe9611e5b565b5b613ff684828501613f88565b9150509291505056fea2646970667358221220b285f80dfda68fb04b80f8a58deedf080c76cfcacafd0106bfefc7f461b1c64464736f6c63430008130033",
  "immutableReferences": {},
  "source": "pragma solidity >=0.8.0;\r\n\r\nimport \"./EntitiesManager.sol\";\r\nimport \"./EvidencesManager.sol\";\r\n\r\ncontract EvidenceChain {\r\n    EntitiesManager public entitiesManager;\r\n    EvidencesManager public evidencesManager;\r\n\r\n    constructor(\r\n        address _entitiesManagerAddress,\r\n        address _evidencesManagerAddress\r\n    ) {\r\n        entitiesManager = EntitiesManager(_entitiesManagerAddress);\r\n        evidencesManager = EvidencesManager(_evidencesManagerAddress);\r\n    }\r\n\r\n    uint32 public owner_id = 0;\r\n\r\n    struct ownership {\r\n        uint32 evidenceId;\r\n        uint32 ownerId;\r\n        uint32 trxTimeStamp;\r\n        address evidenceOwner;\r\n    }\r\n\r\n    mapping(uint32 => ownership) public ownerships;\r\n    mapping(uint32 => uint32[]) public evidenceTrack;\r\n\r\n    event TransferOwnership(uint32 evidenceId);\r\n    event ParticipantAdded(uint32 indexed userId);\r\n    event EvidenceAdded(uint32 indexed evidenceId);\r\n\r\n    function addEntity(\r\n        address _entity,\r\n        string memory _userName,\r\n        string memory _password,\r\n        string memory _name,\r\n        string memory _departmentCode,\r\n        EntitiesManager.EntityType _entityType\r\n    ) public {\r\n        entitiesManager.createEntity(\r\n            _entity,\r\n            _userName,\r\n            _password,\r\n            _name,\r\n            _departmentCode,\r\n            _entityType\r\n        );\r\n    }\r\n\r\n    function updateEntity(\r\n        address _entity,\r\n        string memory _userName,\r\n        string memory _password,\r\n        string memory _name,\r\n        string memory _departmentCode\r\n    ) public {\r\n        entitiesManager.updateEntity(\r\n            _entity,\r\n            _userName,\r\n            _password,\r\n            _name,\r\n            _departmentCode\r\n        );\r\n    }\r\n\r\n    function approveEntity(address _entityToBeApproved) public {\r\n        entitiesManager.approveEntity(msg.sender, _entityToBeApproved);\r\n    }\r\n\r\n    function getEntities()\r\n        public\r\n        view\r\n        returns (EntitiesManager.Entity[] memory)\r\n    {\r\n        address[] memory entityAddresses = entitiesManager.getEntities();\r\n        require(entityAddresses.length > 0, \"No Entities\");\r\n        EntitiesManager.Entity[] memory entities = new EntitiesManager.Entity[](\r\n            entityAddresses.length\r\n        );\r\n        for (uint32 i = 0; i < entityAddresses.length; i++) {\r\n            entities[i] = entitiesManager.getLastUpdate(entityAddresses[i]);\r\n        }\r\n\r\n        return entities;\r\n    }\r\n\r\n    function getEntityHistory()\r\n        public\r\n        view\r\n        returns (EntitiesManager.Entity[] memory)\r\n    {\r\n        return entitiesManager.getEntityHistory(msg.sender);\r\n    }\r\n\r\n    function getEntityHistory(\r\n        address _entity\r\n    ) public view returns (EntitiesManager.Entity[] memory) {\r\n        return entitiesManager.getEntityHistory(_entity);\r\n    }\r\n\r\n    function getEntity(\r\n        address _entity\r\n    ) public view returns (EntitiesManager.Entity memory) {\r\n        return entitiesManager.getLastUpdate(_entity);\r\n    }\r\n\r\n    function getEntity() public view returns (EntitiesManager.Entity memory) {\r\n        return entitiesManager.getLastUpdate(msg.sender);\r\n    }\r\n\r\n    function authenticateEntity(\r\n        string memory _uname,\r\n        string memory _pass\r\n    ) public view returns (bool) {\r\n        EntitiesManager.Entity memory entity = entitiesManager.getLastUpdate(\r\n            msg.sender\r\n        );\r\n\r\n        if (\r\n            keccak256(abi.encodePacked(entity.userName)) ==\r\n            keccak256(abi.encodePacked(_uname))\r\n        ) {\r\n            if (\r\n                keccak256(abi.encodePacked(entity.password)) ==\r\n                keccak256(abi.encodePacked(_pass))\r\n            ) {\r\n                return (true);\r\n            }\r\n        }\r\n\r\n        return (false);\r\n    }\r\n\r\n    function addEvidence(\r\n        string memory _evidenceUniqueCode,\r\n        string memory _caseNo,\r\n        EvidencesManager.EvidenceClassification _classification,\r\n        string memory _evidenceName,\r\n        EvidencesManager.EvidenceType _evidenceType\r\n    ) public {\r\n        EntitiesManager.Entity memory _entity = entitiesManager.getLastUpdate(\r\n            msg.sender\r\n        );\r\n        evidencesManager.addEvidence(\r\n            _evidenceUniqueCode,\r\n            _caseNo,\r\n            _classification,\r\n            _evidenceName,\r\n            _evidenceType,\r\n            _entity\r\n        );\r\n    }\r\n\r\n    function getEvidences()\r\n        public\r\n        view\r\n        returns (EvidencesManager.Evidence[] memory)\r\n    {\r\n        EntitiesManager.Entity memory entity = entitiesManager.getLastUpdate(\r\n            msg.sender\r\n        );\r\n        return evidencesManager.getEvidences(entity);\r\n    }\r\n\r\n    function getEvidenceHistory(\r\n        string memory _evidenceUniqueCode\r\n    ) public view returns (EvidencesManager.Evidence[] memory) {\r\n        EntitiesManager.Entity memory entity = entitiesManager.getLastUpdate(\r\n            msg.sender\r\n        );\r\n\r\n        return evidencesManager.getEvidenceHistory(_evidenceUniqueCode, entity);\r\n    }\r\n\r\n    function getEvidence(\r\n        string memory _evidenceUniqueCode\r\n    ) public view returns (EvidencesManager.Evidence memory) {\r\n        return evidencesManager.getLastUpdate(_evidenceUniqueCode);\r\n    }\r\n\r\n    function addAllowedUsers(\r\n        string memory _evidenceUniqueCode,\r\n        address[] memory _entities\r\n    ) public onlyOwner(_evidenceUniqueCode) {\r\n        EntitiesManager.Entity[] memory entities = new EntitiesManager.Entity[](\r\n            _entities.length\r\n        );\r\n\r\n        for (uint32 i = 0; i < _entities.length; i++) {\r\n            entities[i] = entitiesManager.getLastUpdate(_entities[i]);\r\n        }\r\n\r\n        evidencesManager.addAllowedUsers(_evidenceUniqueCode, entities);\r\n    }\r\n\r\n    function evidenceNewOwner(\r\n        string memory _evidenceUniqueCode,\r\n        address _newOwner\r\n    ) public onlyOwner(_evidenceUniqueCode) {\r\n        EntitiesManager.Entity memory _entity = entitiesManager.getLastUpdate(\r\n            _newOwner\r\n        );\r\n        evidencesManager.updateOwner(_evidenceUniqueCode, _entity);\r\n    }\r\n\r\n    function addFile(\r\n        string memory _evidenceUniqueCode,\r\n        string memory _fileId,\r\n        string memory _fileName,\r\n        string memory _fileHash\r\n    ) public onlyOwner(_evidenceUniqueCode) {\r\n        EvidencesManager.EvidenceFile memory file = EvidencesManager\r\n            .EvidenceFile(_fileId, _fileName, _fileHash);\r\n        evidencesManager.addFile(_evidenceUniqueCode, file);\r\n    }\r\n\r\n    modifier onlyOwner(string memory _evidenceUniqueCode) {\r\n        EvidencesManager.Evidence memory _evidence = evidencesManager\r\n            .getLastUpdate(_evidenceUniqueCode);\r\n        require(msg.sender == _evidence.owner.entityAddress, \"Not Owner\");\r\n        _;\r\n    }\r\n\r\n    function getFileInfo(\r\n        string memory _evidenceUniqueCode,\r\n        string memory _fileUniqueCode\r\n    ) external view returns (EvidencesManager.EvidenceFile memory) {\r\n        return\r\n            evidencesManager.getFileInfo(_evidenceUniqueCode, _fileUniqueCode);\r\n    }\r\n\r\n    // function getProvenance(\r\n    //     uint32 _evidenceId\r\n    // ) external view returns (uint32[] memory) {\r\n    //     return evidenceTrack[_evidenceId];\r\n    // }\r\n\r\n    // function getOwnership(\r\n    //     uint32 _regId\r\n    // ) public view returns (uint32, uint32, address, uint32) {\r\n    //     ownership memory r = ownerships[_regId];\r\n\r\n    //     return (r.evidenceId, r.ownerId, r.evidenceOwner, r.trxTimeStamp);\r\n    // }\r\n}\r\n",
  "sourcePath": "C:\\IPCA DISSERTAO\\evidences_dapp\\contracts\\EvidenceChain.sol",
  "compiler": {
    "name": "solc",
    "version": "0.8.19+commit.7dd6d404.Emscripten.clang"
  },
  "schemaVersion": "3.4.13",
  "updatedAt": "2023-10-22T12:58:20.628Z",
  "networkType": "ethereum",
  "devdoc": {
    "kind": "dev",
    "methods": {},
    "version": 1
  },
  "userdoc": {
    "kind": "user",
    "methods": {},
    "version": 1
  }
}