{
  "contractName": "EntitiesManager",
  "abi": [
    {
      "inputs": [
        {
          "internalType": "uint256",
          "name": "",
          "type": "uint256"
        }
      ],
      "name": "allEntities",
      "outputs": [
        {
          "internalType": "address",
          "name": "",
          "type": "address"
        }
      ],
      "stateMutability": "view",
      "type": "function",
      "constant": true
    },
    {
      "inputs": [
        {
          "internalType": "address",
          "name": "",
          "type": "address"
        },
        {
          "internalType": "uint256",
          "name": "",
          "type": "uint256"
        }
      ],
      "name": "entitiesHistory",
      "outputs": [
        {
          "internalType": "string",
          "name": "userName",
          "type": "string"
        },
        {
          "internalType": "string",
          "name": "password",
          "type": "string"
        },
        {
          "internalType": "string",
          "name": "name",
          "type": "string"
        },
        {
          "internalType": "string",
          "name": "departmentCode",
          "type": "string"
        },
        {
          "internalType": "enum EntitiesManager.EntityType",
          "name": "entityType",
          "type": "uint8"
        },
        {
          "internalType": "address",
          "name": "entityAddress",
          "type": "address"
        },
        {
          "internalType": "uint256",
          "name": "timestamp",
          "type": "uint256"
        },
        {
          "internalType": "bool",
          "name": "isApproved",
          "type": "bool"
        },
        {
          "internalType": "address",
          "name": "approverAddress",
          "type": "address"
        }
      ],
      "stateMutability": "view",
      "type": "function",
      "constant": true
    },
    {
      "inputs": [
        {
          "internalType": "address",
          "name": "_entity",
          "type": "address"
        },
        {
          "internalType": "string",
          "name": "_userName",
          "type": "string"
        },
        {
          "internalType": "string",
          "name": "_password",
          "type": "string"
        },
        {
          "internalType": "string",
          "name": "_name",
          "type": "string"
        },
        {
          "internalType": "string",
          "name": "_departmentCode",
          "type": "string"
        },
        {
          "internalType": "enum EntitiesManager.EntityType",
          "name": "_entityType",
          "type": "uint8"
        }
      ],
      "name": "createEntity",
      "outputs": [],
      "stateMutability": "nonpayable",
      "type": "function"
    },
    {
      "inputs": [
        {
          "internalType": "address",
          "name": "_entity",
          "type": "address"
        },
        {
          "internalType": "string",
          "name": "_userName",
          "type": "string"
        },
        {
          "internalType": "string",
          "name": "_password",
          "type": "string"
        },
        {
          "internalType": "string",
          "name": "_name",
          "type": "string"
        },
        {
          "internalType": "string",
          "name": "_departmentCode",
          "type": "string"
        }
      ],
      "name": "updateEntity",
      "outputs": [],
      "stateMutability": "nonpayable",
      "type": "function"
    },
    {
      "inputs": [
        {
          "internalType": "address",
          "name": "_entity",
          "type": "address"
        },
        {
          "internalType": "address",
          "name": "_entityToBeApproved",
          "type": "address"
        }
      ],
      "name": "approveEntity",
      "outputs": [],
      "stateMutability": "nonpayable",
      "type": "function"
    },
    {
      "inputs": [],
      "name": "getEntities",
      "outputs": [
        {
          "internalType": "address[]",
          "name": "",
          "type": "address[]"
        }
      ],
      "stateMutability": "view",
      "type": "function",
      "constant": true
    },
    {
      "inputs": [
        {
          "internalType": "address",
          "name": "_entity",
          "type": "address"
        }
      ],
      "name": "getEntityHistory",
      "outputs": [
        {
          "components": [
            {
              "internalType": "string",
              "name": "userName",
              "type": "string"
            },
            {
              "internalType": "string",
              "name": "password",
              "type": "string"
            },
            {
              "internalType": "string",
              "name": "name",
              "type": "string"
            },
            {
              "internalType": "string",
              "name": "departmentCode",
              "type": "string"
            },
            {
              "internalType": "enum EntitiesManager.EntityType",
              "name": "entityType",
              "type": "uint8"
            },
            {
              "internalType": "address",
              "name": "entityAddress",
              "type": "address"
            },
            {
              "internalType": "uint256",
              "name": "timestamp",
              "type": "uint256"
            },
            {
              "internalType": "bool",
              "name": "isApproved",
              "type": "bool"
            },
            {
              "internalType": "address",
              "name": "approverAddress",
              "type": "address"
            }
          ],
          "internalType": "struct EntitiesManager.Entity[]",
          "name": "",
          "type": "tuple[]"
        }
      ],
      "stateMutability": "view",
      "type": "function",
      "constant": true
    },
    {
      "inputs": [
        {
          "internalType": "address",
          "name": "_entity",
          "type": "address"
        }
      ],
      "name": "getLastUpdate",
      "outputs": [
        {
          "components": [
            {
              "internalType": "string",
              "name": "userName",
              "type": "string"
            },
            {
              "internalType": "string",
              "name": "password",
              "type": "string"
            },
            {
              "internalType": "string",
              "name": "name",
              "type": "string"
            },
            {
              "internalType": "string",
              "name": "departmentCode",
              "type": "string"
            },
            {
              "internalType": "enum EntitiesManager.EntityType",
              "name": "entityType",
              "type": "uint8"
            },
            {
              "internalType": "address",
              "name": "entityAddress",
              "type": "address"
            },
            {
              "internalType": "uint256",
              "name": "timestamp",
              "type": "uint256"
            },
            {
              "internalType": "bool",
              "name": "isApproved",
              "type": "bool"
            },
            {
              "internalType": "address",
              "name": "approverAddress",
              "type": "address"
            }
          ],
          "internalType": "struct EntitiesManager.Entity",
          "name": "",
          "type": "tuple"
        }
      ],
      "stateMutability": "view",
      "type": "function",
      "constant": true
    }
  ],
  "bytecode": "0x608060405234801561001057600080fd5b506128ec806100206000396000f3fe608060405234801561001057600080fd5b50600436106100a5576000357c0100000000000000000000000000000000000000000000000000000000900480635a7e1989116100785780635a7e19891461014c5780635c1612b01461017c57806388aac64c1461019857806389667cb0146101c8576100a5565b80631f733147146100aa57806328320e1c146100c657806331b933b9146100f657806343daa9df14610114575b600080fd5b6100c460048036038101906100bf9190611997565b6101e4565b005b6100e060048036038101906100db9190611a82565b6104d0565b6040516100ed9190611d84565b60405180910390f35b6100fe6108c2565b60405161010b9190611e55565b60405180910390f35b61012e60048036038101906101299190611ea3565b610950565b60405161014399989796959493929190611f69565b60405180910390f35b61016660048036038101906101619190611a82565b610c35565b60405161017391906120ec565b60405180910390f35b61019660048036038101906101919190612133565b611098565b005b6101b260048036038101906101ad9190612230565b6113fc565b6040516101bf919061225d565b60405180910390f35b6101e260048036038101906101dd9190612278565b61143b565b005b60006101ef86610c35565b9050848051906020012081600001518051906020012014610245576040517f08c379a000000000000000000000000000000000000000000000000000000000815260040161023c90612304565b60405180910390fd5b838051906020012081602001518051906020012014610299576040517f08c379a000000000000000000000000000000000000000000000000000000000815260040161029090612370565b60405180910390fd5b6000808773ffffffffffffffffffffffffffffffffffffffff1673ffffffffffffffffffffffffffffffffffffffff1681526020019081526020016000206040518061012001604052808781526020018681526020018581526020018481526020018360800151600481111561031257610311611b5a565b5b81526020018873ffffffffffffffffffffffffffffffffffffffff1681526020014281526020016000151581526020018873ffffffffffffffffffffffffffffffffffffffff168152509080600181540180825580915050600190039060005260206000209060070201600090919091909150600082015181600001908161039a91906125a2565b5060208201518160010190816103b091906125a2565b5060408201518160020190816103c691906125a2565b5060608201518160030190816103dc91906125a2565b5060808201518160040160006101000a81548160ff0219169083600481111561040857610407611b5a565b5b021790555060a08201518160040160016101000a81548173ffffffffffffffffffffffffffffffffffffffff021916908373ffffffffffffffffffffffffffffffffffffffff16021790555060c0820151816005015560e08201518160060160006101000a81548160ff0219169083151502179055506101008201518160060160016101000a81548173ffffffffffffffffffffffffffffffffffffffff021916908373ffffffffffffffffffffffffffffffffffffffff1602179055505050505050505050565b60606000808373ffffffffffffffffffffffffffffffffffffffff1673ffffffffffffffffffffffffffffffffffffffff168152602001908152602001600020805480602002602001604051908101604052809291908181526020016000905b828210156108b7578382906000526020600020906007020160405180610120016040529081600082018054610564906123bf565b80601f0160208091040260200160405190810160405280929190818152602001828054610590906123bf565b80156105dd5780601f106105b2576101008083540402835291602001916105dd565b820191906000526020600020905b8154815290600101906020018083116105c057829003601f168201915b505050505081526020016001820180546105f6906123bf565b80601f0160208091040260200160405190810160405280929190818152602001828054610622906123bf565b801561066f5780601f106106445761010080835404028352916020019161066f565b820191906000526020600020905b81548152906001019060200180831161065257829003601f168201915b50505050508152602001600282018054610688906123bf565b80601f01602080910402602001604051908101604052809291908181526020018280546106b4906123bf565b80156107015780601f106106d657610100808354040283529160200191610701565b820191906000526020600020905b8154815290600101906020018083116106e457829003601f168201915b5050505050815260200160038201805461071a906123bf565b80601f0160208091040260200160405190810160405280929190818152602001828054610746906123bf565b80156107935780601f1061076857610100808354040283529160200191610793565b820191906000526020600020905b81548152906001019060200180831161077657829003601f168201915b505050505081526020016004820160009054906101000a900460ff1660048111156107c1576107c0611b5a565b5b60048111156107d3576107d2611b5a565b5b81526020016004820160019054906101000a900473ffffffffffffffffffffffffffffffffffffffff1673ffffffffffffffffffffffffffffffffffffffff1673ffffffffffffffffffffffffffffffffffffffff168152602001600582015481526020016006820160009054906101000a900460ff161515151581526020016006820160019054906101000a900473ffffffffffffffffffffffffffffffffffffffff1673ffffffffffffffffffffffffffffffffffffffff1673ffffffffffffffffffffffffffffffffffffffff168152505081526020019060010190610530565b505050509050919050565b6060600180548060200260200160405190810160405280929190818152602001828054801561094657602002820191906000526020600020905b8160009054906101000a900473ffffffffffffffffffffffffffffffffffffffff1673ffffffffffffffffffffffffffffffffffffffff16815260200190600101908083116108fc575b5050505050905090565b6000602052816000526040600020818154811061096c57600080fd5b906000526020600020906007020160009150915050806000018054610990906123bf565b80601f01602080910402602001604051908101604052809291908181526020018280546109bc906123bf565b8015610a095780601f106109de57610100808354040283529160200191610a09565b820191906000526020600020905b8154815290600101906020018083116109ec57829003601f168201915b505050505090806001018054610a1e906123bf565b80601f0160208091040260200160405190810160405280929190818152602001828054610a4a906123bf565b8015610a975780601f10610a6c57610100808354040283529160200191610a97565b820191906000526020600020905b815481529060010190602001808311610a7a57829003601f168201915b505050505090806002018054610aac906123bf565b80601f0160208091040260200160405190810160405280929190818152602001828054610ad8906123bf565b8015610b255780601f10610afa57610100808354040283529160200191610b25565b820191906000526020600020905b815481529060010190602001808311610b0857829003601f168201915b505050505090806003018054610b3a906123bf565b80601f0160208091040260200160405190810160405280929190818152602001828054610b66906123bf565b8015610bb35780601f10610b8857610100808354040283529160200191610bb3565b820191906000526020600020905b815481529060010190602001808311610b9657829003601f168201915b5050505050908060040160009054906101000a900460ff16908060040160019054906101000a900473ffffffffffffffffffffffffffffffffffffffff16908060050154908060060160009054906101000a900460ff16908060060160019054906101000a900473ffffffffffffffffffffffffffffffffffffffff16905089565b610c3d611753565b60008060008473ffffffffffffffffffffffffffffffffffffffff1673ffffffffffffffffffffffffffffffffffffffff16815260200190815260200160002080549050905060008111610cc6576040517f08c379a0000000000000000000000000000000000000000000000000000000008152600401610cbd906126c0565b60405180910390fd5b6000808473ffffffffffffffffffffffffffffffffffffffff1673ffffffffffffffffffffffffffffffffffffffff168152602001908152602001600020600182610d11919061270f565b81548110610d2257610d21612743565b5b906000526020600020906007020160405180610120016040529081600082018054610d4c906123bf565b80601f0160208091040260200160405190810160405280929190818152602001828054610d78906123bf565b8015610dc55780601f10610d9a57610100808354040283529160200191610dc5565b820191906000526020600020905b815481529060010190602001808311610da857829003601f168201915b50505050508152602001600182018054610dde906123bf565b80601f0160208091040260200160405190810160405280929190818152602001828054610e0a906123bf565b8015610e575780601f10610e2c57610100808354040283529160200191610e57565b820191906000526020600020905b815481529060010190602001808311610e3a57829003601f168201915b50505050508152602001600282018054610e70906123bf565b80601f0160208091040260200160405190810160405280929190818152602001828054610e9c906123bf565b8015610ee95780601f10610ebe57610100808354040283529160200191610ee9565b820191906000526020600020905b815481529060010190602001808311610ecc57829003601f168201915b50505050508152602001600382018054610f02906123bf565b80601f0160208091040260200160405190810160405280929190818152602001828054610f2e906123bf565b8015610f7b5780601f10610f5057610100808354040283529160200191610f7b565b820191906000526020600020905b815481529060010190602001808311610f5e57829003601f168201915b505050505081526020016004820160009054906101000a900460ff166004811115610fa957610fa8611b5a565b5b6004811115610fbb57610fba611b5a565b5b81526020016004820160019054906101000a900473ffffffffffffffffffffffffffffffffffffffff1673ffffffffffffffffffffffffffffffffffffffff1673ffffffffffffffffffffffffffffffffffffffff168152602001600582015481526020016006820160009054906101000a900460ff161515151581526020016006820160019054906101000a900473ffffffffffffffffffffffffffffffffffffffff1673ffffffffffffffffffffffffffffffffffffffff1673ffffffffffffffffffffffffffffffffffffffff1681525050915050919050565b60008060008873ffffffffffffffffffffffffffffffffffffffff1673ffffffffffffffffffffffffffffffffffffffff168152602001908152602001600020805490501461111c576040517f08c379a0000000000000000000000000000000000000000000000000000000008152600401611113906127be565b60405180910390fd5b60008060008873ffffffffffffffffffffffffffffffffffffffff1673ffffffffffffffffffffffffffffffffffffffff16815260200190815260200160002080549050036113f4576000808773ffffffffffffffffffffffffffffffffffffffff1673ffffffffffffffffffffffffffffffffffffffff1681526020019081526020016000206040518061012001604052808781526020018681526020018581526020018481526020018360048111156111da576111d9611b5a565b5b81526020018873ffffffffffffffffffffffffffffffffffffffff1681526020014281526020016000151581526020018873ffffffffffffffffffffffffffffffffffffffff168152509080600181540180825580915050600190039060005260206000209060070201600090919091909150600082015181600001908161126291906125a2565b50602082015181600101908161127891906125a2565b50604082015181600201908161128e91906125a2565b5060608201518160030190816112a491906125a2565b5060808201518160040160006101000a81548160ff021916908360048111156112d0576112cf611b5a565b5b021790555060a08201518160040160016101000a81548173ffffffffffffffffffffffffffffffffffffffff021916908373ffffffffffffffffffffffffffffffffffffffff16021790555060c0820151816005015560e08201518160060160006101000a81548160ff0219169083151502179055506101008201518160060160016101000a81548173ffffffffffffffffffffffffffffffffffffffff021916908373ffffffffffffffffffffffffffffffffffffffff16021790555050506001869080600181540180825580915050600190039060005260206000200160009091909190916101000a81548173ffffffffffffffffffffffffffffffffffffffff021916908373ffffffffffffffffffffffffffffffffffffffff1602179055505b505050505050565b6001818154811061140c57600080fd5b906000526020600020016000915054906101000a900473ffffffffffffffffffffffffffffffffffffffff1681565b600061144683610c35565b905060048081111561145b5761145a611b5a565b5b8160800151600481111561147257611471611b5a565b5b146114b2576040517f08c379a00000000000000000000000000000000000000000000000000000000081526004016114a99061282a565b60405180910390fd5b60006114bd83610c35565b9050600015158160e0015115151461150a576040517f08c379a000000000000000000000000000000000000000000000000000000000815260040161150190612896565b60405180910390fd5b6000808473ffffffffffffffffffffffffffffffffffffffff1673ffffffffffffffffffffffffffffffffffffffff168152602001908152602001600020604051806101200160405280836000015181526020018360200151815260200183604001518152602001836060015181526020018460800151600481111561159357611592611b5a565b5b81526020018360a0015173ffffffffffffffffffffffffffffffffffffffff1681526020014281526020016001151581526020018673ffffffffffffffffffffffffffffffffffffffff168152509080600181540180825580915050600190039060005260206000209060070201600090919091909150600082015181600001908161161f91906125a2565b50602082015181600101908161163591906125a2565b50604082015181600201908161164b91906125a2565b50606082015181600301908161166191906125a2565b5060808201518160040160006101000a81548160ff0219169083600481111561168d5761168c611b5a565b5b021790555060a08201518160040160016101000a81548173ffffffffffffffffffffffffffffffffffffffff021916908373ffffffffffffffffffffffffffffffffffffffff16021790555060c0820151816005015560e08201518160060160006101000a81548160ff0219169083151502179055506101008201518160060160016101000a81548173ffffffffffffffffffffffffffffffffffffffff021916908373ffffffffffffffffffffffffffffffffffffffff160217905550505050505050565b604051806101200160405280606081526020016060815260200160608152602001606081526020016000600481111561178f5761178e611b5a565b5b8152602001600073ffffffffffffffffffffffffffffffffffffffff16815260200160008152602001600015158152602001600073ffffffffffffffffffffffffffffffffffffffff1681525090565b6000604051905090565b600080fd5b600080fd5b600073ffffffffffffffffffffffffffffffffffffffff82169050919050565b600061181e826117f3565b9050919050565b61182e81611813565b811461183957600080fd5b50565b60008135905061184b81611825565b92915050565b600080fd5b600080fd5b6000601f19601f8301169050919050565b7f4e487b7100000000000000000000000000000000000000000000000000000000600052604160045260246000fd5b6118a48261185b565b810181811067ffffffffffffffff821117156118c3576118c261186c565b5b80604052505050565b60006118d66117df565b90506118e2828261189b565b919050565b600067ffffffffffffffff8211156119025761190161186c565b5b61190b8261185b565b9050602081019050919050565b82818337600083830152505050565b600061193a611935846118e7565b6118cc565b90508281526020810184848401111561195657611955611856565b5b611961848285611918565b509392505050565b600082601f83011261197e5761197d611851565b5b813561198e848260208601611927565b91505092915050565b600080600080600060a086880312156119b3576119b26117e9565b5b60006119c18882890161183c565b955050602086013567ffffffffffffffff8111156119e2576119e16117ee565b5b6119ee88828901611969565b945050604086013567ffffffffffffffff811115611a0f57611a0e6117ee565b5b611a1b88828901611969565b935050606086013567ffffffffffffffff811115611a3c57611a3b6117ee565b5b611a4888828901611969565b925050608086013567ffffffffffffffff811115611a6957611a686117ee565b5b611a7588828901611969565b9150509295509295909350565b600060208284031215611a9857611a976117e9565b5b6000611aa68482850161183c565b91505092915050565b600081519050919050565b600082825260208201905092915050565b6000819050602082019050919050565b600081519050919050565b600082825260208201905092915050565b60005b83811015611b15578082015181840152602081019050611afa565b60008484015250505050565b6000611b2c82611adb565b611b368185611ae6565b9350611b46818560208601611af7565b611b4f8161185b565b840191505092915050565b7f4e487b7100000000000000000000000000000000000000000000000000000000600052602160045260246000fd5b60058110611b9a57611b99611b5a565b5b50565b6000819050611bab82611b89565b919050565b6000611bbb82611b9d565b9050919050565b611bcb81611bb0565b82525050565b611bda81611813565b82525050565b6000819050919050565b611bf381611be0565b82525050565b60008115159050919050565b611c0e81611bf9565b82525050565b6000610120830160008301518482036000860152611c328282611b21565b91505060208301518482036020860152611c4c8282611b21565b91505060408301518482036040860152611c668282611b21565b91505060608301518482036060860152611c808282611b21565b9150506080830151611c956080860182611bc2565b5060a0830151611ca860a0860182611bd1565b5060c0830151611cbb60c0860182611bea565b5060e0830151611cce60e0860182611c05565b50610100830151611ce3610100860182611bd1565b508091505092915050565b6000611cfa8383611c14565b905092915050565b6000602082019050919050565b6000611d1a82611aaf565b611d248185611aba565b935083602082028501611d3685611acb565b8060005b85811015611d725784840389528151611d538582611cee565b9450611d5e83611d02565b925060208a01995050600181019050611d3a565b50829750879550505050505092915050565b60006020820190508181036000830152611d9e8184611d0f565b905092915050565b600081519050919050565b600082825260208201905092915050565b6000819050602082019050919050565b6000611dde8383611bd1565b60208301905092915050565b6000602082019050919050565b6000611e0282611da6565b611e0c8185611db1565b9350611e1783611dc2565b8060005b83811015611e48578151611e2f8882611dd2565b9750611e3a83611dea565b925050600181019050611e1b565b5085935050505092915050565b60006020820190508181036000830152611e6f8184611df7565b905092915050565b611e8081611be0565b8114611e8b57600080fd5b50565b600081359050611e9d81611e77565b92915050565b60008060408385031215611eba57611eb96117e9565b5b6000611ec88582860161183c565b9250506020611ed985828601611e8e565b9150509250929050565b600082825260208201905092915050565b6000611eff82611adb565b611f098185611ee3565b9350611f19818560208601611af7565b611f228161185b565b840191505092915050565b611f3681611bb0565b82525050565b611f4581611813565b82525050565b611f5481611be0565b82525050565b611f6381611bf9565b82525050565b6000610120820190508181036000830152611f84818c611ef4565b90508181036020830152611f98818b611ef4565b90508181036040830152611fac818a611ef4565b90508181036060830152611fc08189611ef4565b9050611fcf6080830188611f2d565b611fdc60a0830187611f3c565b611fe960c0830186611f4b565b611ff660e0830185611f5a565b612004610100830184611f3c565b9a9950505050505050505050565b60006101208301600083015184820360008601526120308282611b21565b9150506020830151848203602086015261204a8282611b21565b915050604083015184820360408601526120648282611b21565b9150506060830151848203606086015261207e8282611b21565b91505060808301516120936080860182611bc2565b5060a08301516120a660a0860182611bd1565b5060c08301516120b960c0860182611bea565b5060e08301516120cc60e0860182611c05565b506101008301516120e1610100860182611bd1565b508091505092915050565b600060208201905081810360008301526121068184612012565b905092915050565b6005811061211b57600080fd5b50565b60008135905061212d8161210e565b92915050565b60008060008060008060c087890312156121505761214f6117e9565b5b600061215e89828a0161183c565b965050602087013567ffffffffffffffff81111561217f5761217e6117ee565b5b61218b89828a01611969565b955050604087013567ffffffffffffffff8111156121ac576121ab6117ee565b5b6121b889828a01611969565b945050606087013567ffffffffffffffff8111156121d9576121d86117ee565b5b6121e589828a01611969565b935050608087013567ffffffffffffffff811115612206576122056117ee565b5b61221289828a01611969565b92505060a061222389828a0161211e565b9150509295509295509295565b600060208284031215612246576122456117e9565b5b600061225484828501611e8e565b91505092915050565b60006020820190506122726000830184611f3c565b92915050565b6000806040838503121561228f5761228e6117e9565b5b600061229d8582860161183c565b92505060206122ae8582860161183c565b9150509250929050565b7f55736572204e616d65204469646e2774204d6174636800000000000000000000600082015250565b60006122ee601683611ee3565b91506122f9826122b8565b602082019050919050565b6000602082019050818103600083015261231d816122e1565b9050919050565b7f50617373776f7264204469646e2774204d617463680000000000000000000000600082015250565b600061235a601583611ee3565b915061236582612324565b602082019050919050565b600060208201905081810360008301526123898161234d565b9050919050565b7f4e487b7100000000000000000000000000000000000000000000000000000000600052602260045260246000fd5b600060028204905060018216806123d757607f821691505b6020821081036123ea576123e9612390565b5b50919050565b60008190508160005260206000209050919050565b60006020601f8301049050919050565b60008160020a8302905092915050565b6000600883026124557fffffffffffffffffffffffffffffffffffffffffffffffffffffffffffffffff82612415565b61245f8683612415565b95508019841693508086168417925050509392505050565b6000819050919050565b600061249c61249761249284611be0565b612477565b611be0565b9050919050565b6000819050919050565b6124b683612481565b6124ca6124c2826124a3565b848454612425565b825550505050565b600090565b6124df6124d2565b6124ea8184846124ad565b505050565b5b8181101561250e576125036000826124d7565b6001810190506124f0565b5050565b601f82111561255357612524816123f0565b61252d84612405565b8101602085101561253c578190505b61255061254885612405565b8301826124ef565b50505b505050565b60008160020a8304905092915050565b600061257960001984600802612558565b1980831691505092915050565b60006125928383612568565b9150826002028217905092915050565b6125ab82611adb565b67ffffffffffffffff8111156125c4576125c361186c565b5b6125ce82546123bf565b6125d9828285612512565b600060209050601f83116001811461260c57600084156125fa578287015190505b6126048582612586565b86555061266c565b601f19841661261a866123f0565b60005b828110156126425784890151825560018201915060208501945060208101905061261d565b8683101561265f578489015161265b601f891682612568565b8355505b6001600288020188555050505b505050505050565b7f456e74697479204e6f7420466f756e6400000000000000000000000000000000600082015250565b60006126aa601083611ee3565b91506126b582612674565b602082019050919050565b600060208201905081810360008301526126d98161269d565b9050919050565b7f4e487b7100000000000000000000000000000000000000000000000000000000600052601160045260246000fd5b600061271a82611be0565b915061272583611be0565b925082820390508181111561273d5761273c6126e0565b5b92915050565b7f4e487b7100000000000000000000000000000000000000000000000000000000600052603260045260246000fd5b7f416c726561647920526567697374726564000000000000000000000000000000600082015250565b60006127a8601183611ee3565b91506127b382612772565b602082019050919050565b600060208201905081810360008301526127d78161279b565b9050919050565b7f4e6f742041646d696e6973747261746f72000000000000000000000000000000600082015250565b6000612814601183611ee3565b915061281f826127de565b602082019050919050565b6000602082019050818103600083015261284381612807565b9050919050565b7f416c726561647920417070726f76656400000000000000000000000000000000600082015250565b6000612880601083611ee3565b915061288b8261284a565b602082019050919050565b600060208201905081810360008301526128af81612873565b905091905056fea26469706673582212207568d1d9fb2c7c53f8222b9692bdf27fd228126112902a0648aff7393d27b2e864736f6c63430008130033",
  "immutableReferences": {},
  "source": "pragma solidity ^0.8.0;\r\n\r\ncontract EntitiesManager {\r\n\r\n    enum EntityType {\r\n    LawEnforcementAgent,\r\n    Forensics,\r\n    Court,\r\n    Lawyer,\r\n    Administrator\r\n    }\r\n\r\n    struct Entity {\r\n        string userName;\r\n        string password;\r\n        string name;\r\n        string departmentCode;\r\n        EntityType entityType;\r\n        address entityAddress;\r\n        uint256 timestamp;\r\n        bool isApproved;\r\n        address approverAddress;\r\n    }\r\n\r\n    mapping(address => Entity[]) public entitiesHistory;\r\n    address[] public allEntities;\r\n\r\n    function createEntity(address _entity, string memory _userName, string memory _password, string memory _name, string  memory _departmentCode, EntityType _entityType) public {\r\n        require(entitiesHistory[_entity].length == 0, \"Already Registred\");\r\n        if (entitiesHistory[_entity].length == 0) \r\n        {\r\n            entitiesHistory[_entity].push(Entity(_userName, _password, _name, _departmentCode, _entityType, _entity,  block.timestamp, false, _entity));\r\n            allEntities.push(_entity);\r\n        }\r\n    }\r\n\r\n    function updateEntity(address _entity, string memory _userName, string memory _password, string memory _name, string  memory _departmentCode) public {\r\n        Entity memory entity = getLastUpdate(_entity);\r\n        require(keccak256(bytes(entity.userName)) == keccak256(bytes(_userName)), \"User Name Didn't Match\");\r\n        require(keccak256(bytes(entity.password)) == keccak256(bytes(_password)), \"Password Didn't Match\");\r\n        entitiesHistory[_entity].push(Entity(_userName, _password, _name, _departmentCode, entity.entityType, _entity,  block.timestamp, false, _entity));\r\n    }\r\n\r\n    function approveEntity(address _entity, address _entityToBeApproved) public {\r\n        Entity memory entity = getLastUpdate(_entity);\r\n        require(entity.entityType == EntityType.Administrator, \"Not Administrator\");\r\n        Entity memory entityToBeApproved = getLastUpdate(_entityToBeApproved);\r\n        require(entityToBeApproved.isApproved == false, \"Already Approved\");\r\n        \r\n        entitiesHistory[_entityToBeApproved].push(Entity(entityToBeApproved.userName, entityToBeApproved.password, entityToBeApproved.name, entityToBeApproved.departmentCode, entity.entityType, entityToBeApproved.entityAddress,  block.timestamp, true, _entity));\r\n    }\r\n\r\n    function getEntities() public view returns (address[] memory) {\r\n        return allEntities;\r\n    }\r\n\r\n    function getEntityHistory(address _entity) public view returns (Entity[] memory) {\r\n        return entitiesHistory[_entity];\r\n    }\r\n\r\n    function getLastUpdate (address _entity) public view returns (Entity memory) {\r\n        uint totalVersions = entitiesHistory[_entity].length;\r\n        require(totalVersions > 0, \"Entity Not Found\");\r\n\r\n        return entitiesHistory[_entity][totalVersions - 1];\r\n    }\r\n}",
  "sourcePath": "C:\\IPCA DISSERTAO\\evidences_dapp\\contracts\\EntitiesManager.sol",
  "compiler": {
    "name": "solc",
    "version": "0.8.19+commit.7dd6d404.Emscripten.clang"
  },
  "schemaVersion": "3.4.13",
  "updatedAt": "2023-10-15T15:11:28.492Z",
  "networkType": "ethereum",
  "devdoc": {
    "kind": "dev",
    "methods": {},
    "version": 1
  },
  "userdoc": {
    "kind": "user",
    "methods": {},
    "version": 1
  }
}