{
  "contractName": "EntitiesManager",
  "abi": [
    {
      "inputs": [
        {
          "internalType": "uint256",
          "name": "",
          "type": "uint256"
        }
      ],
      "name": "allEntities",
      "outputs": [
        {
          "internalType": "address",
          "name": "",
          "type": "address"
        }
      ],
      "stateMutability": "view",
      "type": "function",
      "constant": true
    },
    {
      "inputs": [
        {
          "internalType": "address",
          "name": "",
          "type": "address"
        },
        {
          "internalType": "uint256",
          "name": "",
          "type": "uint256"
        }
      ],
      "name": "entitiesHistory",
      "outputs": [
        {
          "internalType": "string",
          "name": "userName",
          "type": "string"
        },
        {
          "internalType": "string",
          "name": "password",
          "type": "string"
        },
        {
          "internalType": "string",
          "name": "name",
          "type": "string"
        },
        {
          "internalType": "string",
          "name": "departmentCode",
          "type": "string"
        },
        {
          "internalType": "string",
          "name": "entityType",
          "type": "string"
        },
        {
          "internalType": "address",
          "name": "entityAddress",
          "type": "address"
        },
        {
          "internalType": "uint32",
          "name": "timestamp",
          "type": "uint32"
        }
      ],
      "stateMutability": "view",
      "type": "function",
      "constant": true
    },
    {
      "inputs": [
        {
          "internalType": "address",
          "name": "_entity",
          "type": "address"
        },
        {
          "internalType": "string",
          "name": "_userName",
          "type": "string"
        },
        {
          "internalType": "string",
          "name": "_password",
          "type": "string"
        },
        {
          "internalType": "string",
          "name": "_name",
          "type": "string"
        },
        {
          "internalType": "string",
          "name": "_departmentCode",
          "type": "string"
        },
        {
          "internalType": "string",
          "name": "_entityType",
          "type": "string"
        }
      ],
      "name": "addEntity",
      "outputs": [],
      "stateMutability": "nonpayable",
      "type": "function"
    },
    {
      "inputs": [],
      "name": "getEntities",
      "outputs": [
        {
          "internalType": "address[]",
          "name": "",
          "type": "address[]"
        }
      ],
      "stateMutability": "view",
      "type": "function",
      "constant": true
    },
    {
      "inputs": [
        {
          "internalType": "address",
          "name": "_entity",
          "type": "address"
        }
      ],
      "name": "getEntityHistory",
      "outputs": [
        {
          "components": [
            {
              "internalType": "string",
              "name": "userName",
              "type": "string"
            },
            {
              "internalType": "string",
              "name": "password",
              "type": "string"
            },
            {
              "internalType": "string",
              "name": "name",
              "type": "string"
            },
            {
              "internalType": "string",
              "name": "departmentCode",
              "type": "string"
            },
            {
              "internalType": "string",
              "name": "entityType",
              "type": "string"
            },
            {
              "internalType": "address",
              "name": "entityAddress",
              "type": "address"
            },
            {
              "internalType": "uint32",
              "name": "timestamp",
              "type": "uint32"
            }
          ],
          "internalType": "struct EntitiesManager.Entity[]",
          "name": "",
          "type": "tuple[]"
        }
      ],
      "stateMutability": "view",
      "type": "function",
      "constant": true
    },
    {
      "inputs": [
        {
          "internalType": "address",
          "name": "_entity",
          "type": "address"
        }
      ],
      "name": "getLastUpdate",
      "outputs": [
        {
          "components": [
            {
              "internalType": "string",
              "name": "userName",
              "type": "string"
            },
            {
              "internalType": "string",
              "name": "password",
              "type": "string"
            },
            {
              "internalType": "string",
              "name": "name",
              "type": "string"
            },
            {
              "internalType": "string",
              "name": "departmentCode",
              "type": "string"
            },
            {
              "internalType": "string",
              "name": "entityType",
              "type": "string"
            },
            {
              "internalType": "address",
              "name": "entityAddress",
              "type": "address"
            },
            {
              "internalType": "uint32",
              "name": "timestamp",
              "type": "uint32"
            }
          ],
          "internalType": "struct EntitiesManager.Entity",
          "name": "",
          "type": "tuple"
        }
      ],
      "stateMutability": "view",
      "type": "function",
      "constant": true
    }
  ],
  "bytecode": "0x608060405234801561001057600080fd5b50611d20806100206000396000f3fe608060405234801561001057600080fd5b50600436106100625760003560e01c80631252a0831461006757806328320e1c1461008357806331b933b9146100b357806343daa9df146100d15780635a7e19891461010757806388aac64c14610137575b600080fd5b610081600480360381019061007c919061121c565b610167565b005b61009d60048036038101906100989190611335565b6103b0565b6040516100aa9190611589565b60405180910390f35b6100bb6107a3565b6040516100c8919061165a565b60405180910390f35b6100eb60048036038101906100e691906116b2565b610831565b6040516100fe979695949392919061175a565b60405180910390f35b610121600480360381019061011c9190611335565b610b68565b60405161012e91906118a4565b60405180910390f35b610151600480360381019061014c91906118c6565b610fcc565b60405161015e91906118f3565b60405180910390f35b6000808773ffffffffffffffffffffffffffffffffffffffff1673ffffffffffffffffffffffffffffffffffffffff1681526020019081526020016000206040518060e001604052808781526020018681526020018581526020018481526020018381526020018873ffffffffffffffffffffffffffffffffffffffff1681526020014263ffffffff16815250908060018154018082558091505060019003906000526020600020906006020160009091909190915060008201518160000190816102329190611b1a565b5060208201518160010190816102489190611b1a565b50604082015181600201908161025e9190611b1a565b5060608201518160030190816102749190611b1a565b50608082015181600401908161028a9190611b1a565b5060a08201518160050160006101000a81548173ffffffffffffffffffffffffffffffffffffffff021916908373ffffffffffffffffffffffffffffffffffffffff16021790555060c08201518160050160146101000a81548163ffffffff021916908363ffffffff160217905550505060016000808873ffffffffffffffffffffffffffffffffffffffff1673ffffffffffffffffffffffffffffffffffffffff16815260200190815260200160002080549050036103a8576001869080600181540180825580915050600190039060005260206000200160009091909190916101000a81548173ffffffffffffffffffffffffffffffffffffffff021916908373ffffffffffffffffffffffffffffffffffffffff1602179055505b505050505050565b60606000808373ffffffffffffffffffffffffffffffffffffffff1673ffffffffffffffffffffffffffffffffffffffff168152602001908152602001600020805480602002602001604051908101604052809291908181526020016000905b8282101561079857838290600052602060002090600602016040518060e00160405290816000820180546104439061193d565b80601f016020809104026020016040519081016040528092919081815260200182805461046f9061193d565b80156104bc5780601f10610491576101008083540402835291602001916104bc565b820191906000526020600020905b81548152906001019060200180831161049f57829003601f168201915b505050505081526020016001820180546104d59061193d565b80601f01602080910402602001604051908101604052809291908181526020018280546105019061193d565b801561054e5780601f106105235761010080835404028352916020019161054e565b820191906000526020600020905b81548152906001019060200180831161053157829003601f168201915b505050505081526020016002820180546105679061193d565b80601f01602080910402602001604051908101604052809291908181526020018280546105939061193d565b80156105e05780601f106105b5576101008083540402835291602001916105e0565b820191906000526020600020905b8154815290600101906020018083116105c357829003601f168201915b505050505081526020016003820180546105f99061193d565b80601f01602080910402602001604051908101604052809291908181526020018280546106259061193d565b80156106725780601f1061064757610100808354040283529160200191610672565b820191906000526020600020905b81548152906001019060200180831161065557829003601f168201915b5050505050815260200160048201805461068b9061193d565b80601f01602080910402602001604051908101604052809291908181526020018280546106b79061193d565b80156107045780601f106106d957610100808354040283529160200191610704565b820191906000526020600020905b8154815290600101906020018083116106e757829003601f168201915b505050505081526020016005820160009054906101000a900473ffffffffffffffffffffffffffffffffffffffff1673ffffffffffffffffffffffffffffffffffffffff1673ffffffffffffffffffffffffffffffffffffffff1681526020016005820160149054906101000a900463ffffffff1663ffffffff1663ffffffff168152505081526020019060010190610410565b505050509050919050565b6060600180548060200260200160405190810160405280929190818152602001828054801561082757602002820191906000526020600020905b8160009054906101000a900473ffffffffffffffffffffffffffffffffffffffff1673ffffffffffffffffffffffffffffffffffffffff16815260200190600101908083116107dd575b5050505050905090565b6000602052816000526040600020818154811061084d57600080fd5b9060005260206000209060060201600091509150508060000180546108719061193d565b80601f016020809104026020016040519081016040528092919081815260200182805461089d9061193d565b80156108ea5780601f106108bf576101008083540402835291602001916108ea565b820191906000526020600020905b8154815290600101906020018083116108cd57829003601f168201915b5050505050908060010180546108ff9061193d565b80601f016020809104026020016040519081016040528092919081815260200182805461092b9061193d565b80156109785780601f1061094d57610100808354040283529160200191610978565b820191906000526020600020905b81548152906001019060200180831161095b57829003601f168201915b50505050509080600201805461098d9061193d565b80601f01602080910402602001604051908101604052809291908181526020018280546109b99061193d565b8015610a065780601f106109db57610100808354040283529160200191610a06565b820191906000526020600020905b8154815290600101906020018083116109e957829003601f168201915b505050505090806003018054610a1b9061193d565b80601f0160208091040260200160405190810160405280929190818152602001828054610a479061193d565b8015610a945780601f10610a6957610100808354040283529160200191610a94565b820191906000526020600020905b815481529060010190602001808311610a7757829003601f168201915b505050505090806004018054610aa99061193d565b80601f0160208091040260200160405190810160405280929190818152602001828054610ad59061193d565b8015610b225780601f10610af757610100808354040283529160200191610b22565b820191906000526020600020905b815481529060010190602001808311610b0557829003601f168201915b5050505050908060050160009054906101000a900473ffffffffffffffffffffffffffffffffffffffff16908060050160149054906101000a900463ffffffff16905087565b610b7061100b565b60008060008473ffffffffffffffffffffffffffffffffffffffff1673ffffffffffffffffffffffffffffffffffffffff16815260200190815260200160002080549050905060008111610bf9576040517f08c379a0000000000000000000000000000000000000000000000000000000008152600401610bf090611c38565b60405180910390fd5b6000808473ffffffffffffffffffffffffffffffffffffffff1673ffffffffffffffffffffffffffffffffffffffff168152602001908152602001600020600182610c449190611c87565b81548110610c5557610c54611cbb565b5b90600052602060002090600602016040518060e0016040529081600082018054610c7e9061193d565b80601f0160208091040260200160405190810160405280929190818152602001828054610caa9061193d565b8015610cf75780601f10610ccc57610100808354040283529160200191610cf7565b820191906000526020600020905b815481529060010190602001808311610cda57829003601f168201915b50505050508152602001600182018054610d109061193d565b80601f0160208091040260200160405190810160405280929190818152602001828054610d3c9061193d565b8015610d895780601f10610d5e57610100808354040283529160200191610d89565b820191906000526020600020905b815481529060010190602001808311610d6c57829003601f168201915b50505050508152602001600282018054610da29061193d565b80601f0160208091040260200160405190810160405280929190818152602001828054610dce9061193d565b8015610e1b5780601f10610df057610100808354040283529160200191610e1b565b820191906000526020600020905b815481529060010190602001808311610dfe57829003601f168201915b50505050508152602001600382018054610e349061193d565b80601f0160208091040260200160405190810160405280929190818152602001828054610e609061193d565b8015610ead5780601f10610e8257610100808354040283529160200191610ead565b820191906000526020600020905b815481529060010190602001808311610e9057829003601f168201915b50505050508152602001600482018054610ec69061193d565b80601f0160208091040260200160405190810160405280929190818152602001828054610ef29061193d565b8015610f3f5780601f10610f1457610100808354040283529160200191610f3f565b820191906000526020600020905b815481529060010190602001808311610f2257829003601f168201915b505050505081526020016005820160009054906101000a900473ffffffffffffffffffffffffffffffffffffffff1673ffffffffffffffffffffffffffffffffffffffff1673ffffffffffffffffffffffffffffffffffffffff1681526020016005820160149054906101000a900463ffffffff1663ffffffff1663ffffffff1681525050915050919050565b60018181548110610fdc57600080fd5b906000526020600020016000915054906101000a900473ffffffffffffffffffffffffffffffffffffffff1681565b6040518060e001604052806060815260200160608152602001606081526020016060815260200160608152602001600073ffffffffffffffffffffffffffffffffffffffff168152602001600063ffffffff1681525090565b6000604051905090565b600080fd5b600080fd5b600073ffffffffffffffffffffffffffffffffffffffff82169050919050565b60006110a382611078565b9050919050565b6110b381611098565b81146110be57600080fd5b50565b6000813590506110d0816110aa565b92915050565b600080fd5b600080fd5b6000601f19601f8301169050919050565b7f4e487b7100000000000000000000000000000000000000000000000000000000600052604160045260246000fd5b611129826110e0565b810181811067ffffffffffffffff82111715611148576111476110f1565b5b80604052505050565b600061115b611064565b90506111678282611120565b919050565b600067ffffffffffffffff821115611187576111866110f1565b5b611190826110e0565b9050602081019050919050565b82818337600083830152505050565b60006111bf6111ba8461116c565b611151565b9050828152602081018484840111156111db576111da6110db565b5b6111e684828561119d565b509392505050565b600082601f830112611203576112026110d6565b5b81356112138482602086016111ac565b91505092915050565b60008060008060008060c087890312156112395761123861106e565b5b600061124789828a016110c1565b965050602087013567ffffffffffffffff81111561126857611267611073565b5b61127489828a016111ee565b955050604087013567ffffffffffffffff81111561129557611294611073565b5b6112a189828a016111ee565b945050606087013567ffffffffffffffff8111156112c2576112c1611073565b5b6112ce89828a016111ee565b935050608087013567ffffffffffffffff8111156112ef576112ee611073565b5b6112fb89828a016111ee565b92505060a087013567ffffffffffffffff81111561131c5761131b611073565b5b61132889828a016111ee565b9150509295509295509295565b60006020828403121561134b5761134a61106e565b5b6000611359848285016110c1565b91505092915050565b600081519050919050565b600082825260208201905092915050565b6000819050602082019050919050565b600081519050919050565b600082825260208201905092915050565b60005b838110156113c85780820151818401526020810190506113ad565b60008484015250505050565b60006113df8261138e565b6113e98185611399565b93506113f98185602086016113aa565b611402816110e0565b840191505092915050565b61141681611098565b82525050565b600063ffffffff82169050919050565b6114358161141c565b82525050565b600060e083016000830151848203600086015261145882826113d4565b9150506020830151848203602086015261147282826113d4565b9150506040830151848203604086015261148c82826113d4565b915050606083015184820360608601526114a682826113d4565b915050608083015184820360808601526114c082826113d4565b91505060a08301516114d560a086018261140d565b5060c08301516114e860c086018261142c565b508091505092915050565b60006114ff838361143b565b905092915050565b6000602082019050919050565b600061151f82611362565b611529818561136d565b93508360208202850161153b8561137e565b8060005b85811015611577578484038952815161155885826114f3565b945061156383611507565b925060208a0199505060018101905061153f565b50829750879550505050505092915050565b600060208201905081810360008301526115a38184611514565b905092915050565b600081519050919050565b600082825260208201905092915050565b6000819050602082019050919050565b60006115e3838361140d565b60208301905092915050565b6000602082019050919050565b6000611607826115ab565b61161181856115b6565b935061161c836115c7565b8060005b8381101561164d57815161163488826115d7565b975061163f836115ef565b925050600181019050611620565b5085935050505092915050565b6000602082019050818103600083015261167481846115fc565b905092915050565b6000819050919050565b61168f8161167c565b811461169a57600080fd5b50565b6000813590506116ac81611686565b92915050565b600080604083850312156116c9576116c861106e565b5b60006116d7858286016110c1565b92505060206116e88582860161169d565b9150509250929050565b600082825260208201905092915050565b600061170e8261138e565b61171881856116f2565b93506117288185602086016113aa565b611731816110e0565b840191505092915050565b61174581611098565b82525050565b6117548161141c565b82525050565b600060e0820190508181036000830152611774818a611703565b905081810360208301526117888189611703565b9050818103604083015261179c8188611703565b905081810360608301526117b08187611703565b905081810360808301526117c48186611703565b90506117d360a083018561173c565b6117e060c083018461174b565b98975050505050505050565b600060e083016000830151848203600086015261180982826113d4565b9150506020830151848203602086015261182382826113d4565b9150506040830151848203604086015261183d82826113d4565b9150506060830151848203606086015261185782826113d4565b9150506080830151848203608086015261187182826113d4565b91505060a083015161188660a086018261140d565b5060c083015161189960c086018261142c565b508091505092915050565b600060208201905081810360008301526118be81846117ec565b905092915050565b6000602082840312156118dc576118db61106e565b5b60006118ea8482850161169d565b91505092915050565b6000602082019050611908600083018461173c565b92915050565b7f4e487b7100000000000000000000000000000000000000000000000000000000600052602260045260246000fd5b6000600282049050600182168061195557607f821691505b6020821081036119685761196761190e565b5b50919050565b60008190508160005260206000209050919050565b60006020601f8301049050919050565b600082821b905092915050565b6000600883026119d07fffffffffffffffffffffffffffffffffffffffffffffffffffffffffffffffff82611993565b6119da8683611993565b95508019841693508086168417925050509392505050565b6000819050919050565b6000611a17611a12611a0d8461167c565b6119f2565b61167c565b9050919050565b6000819050919050565b611a31836119fc565b611a45611a3d82611a1e565b8484546119a0565b825550505050565b600090565b611a5a611a4d565b611a65818484611a28565b505050565b5b81811015611a8957611a7e600082611a52565b600181019050611a6b565b5050565b601f821115611ace57611a9f8161196e565b611aa884611983565b81016020851015611ab7578190505b611acb611ac385611983565b830182611a6a565b50505b505050565b600082821c905092915050565b6000611af160001984600802611ad3565b1980831691505092915050565b6000611b0a8383611ae0565b9150826002028217905092915050565b611b238261138e565b67ffffffffffffffff811115611b3c57611b3b6110f1565b5b611b46825461193d565b611b51828285611a8d565b600060209050601f831160018114611b845760008415611b72578287015190505b611b7c8582611afe565b865550611be4565b601f198416611b928661196e565b60005b82811015611bba57848901518255600182019150602085019450602081019050611b95565b86831015611bd75784890151611bd3601f891682611ae0565b8355505b6001600288020188555050505b505050505050565b7f5061727469636970616e7465206e616f20656e636f6e747261646f0000000000600082015250565b6000611c22601b836116f2565b9150611c2d82611bec565b602082019050919050565b60006020820190508181036000830152611c5181611c15565b9050919050565b7f4e487b7100000000000000000000000000000000000000000000000000000000600052601160045260246000fd5b6000611c928261167c565b9150611c9d8361167c565b9250828203905081811115611cb557611cb4611c58565b5b92915050565b7f4e487b7100000000000000000000000000000000000000000000000000000000600052603260045260246000fdfea2646970667358221220c58af29fb5ffcad833085b624955689e1f5e4fa1e272cd23fddebf67607035ec64736f6c63430008130033",
  "immutableReferences": {},
  "source": "pragma solidity ^0.8.0;\r\n\r\ncontract EntitiesManager {\r\n\r\n    struct Entity {\r\n        string userName;\r\n        string password;\r\n        string name;\r\n        string departmentCode;\r\n        string entityType;\r\n        address entityAddress;\r\n        uint32 timestamp;\r\n    }\r\n\r\n    mapping(address => Entity[]) public entitiesHistory;\r\n    address[] public allEntities;\r\n\r\n    function addEntity(address _entity, string memory _userName, string memory _password, string memory _name, string  memory _departmentCode, string memory _entityType) public {\r\n        entitiesHistory[_entity].push(Entity(_userName, _password, _name, _departmentCode, _entityType, _entity,  uint32(block.timestamp)));\r\n        if (entitiesHistory[_entity].length == 1) \r\n        {\r\n            allEntities.push(_entity);\r\n        }\r\n    }\r\n\r\n    function getEntities() public view returns (address[] memory) {\r\n        return allEntities;\r\n    }\r\n\r\n    function getEntityHistory(address _entity) public view returns (Entity[] memory) {\r\n        return entitiesHistory[_entity];\r\n    }\r\n\r\n    function getLastUpdate (address _entity) public view returns (Entity memory) {\r\n        uint totalVersions = entitiesHistory[_entity].length;\r\n        require(totalVersions > 0, \"Participante nao encontrado\");\r\n\r\n        return entitiesHistory[_entity][totalVersions - 1];\r\n    }\r\n}",
  "sourcePath": "C:\\IPCA DISSERTAO\\evidences_dapp\\contracts\\EntitiesManager.sol",
  "compiler": {
    "name": "solc",
    "version": "0.8.19+commit.7dd6d404.Emscripten.clang"
  },
  "schemaVersion": "3.4.13",
  "updatedAt": "2023-08-28T19:18:46.612Z",
  "networkType": "ethereum",
  "devdoc": {
    "kind": "dev",
    "methods": {},
    "version": 1
  },
  "userdoc": {
    "kind": "user",
    "methods": {},
    "version": 1
  }
}