{
  "contractName": "EntitiesManager",
  "abi": [
    {
      "inputs": [
        {
          "internalType": "uint256",
          "name": "",
          "type": "uint256"
        }
      ],
      "name": "allEntities",
      "outputs": [
        {
          "internalType": "address",
          "name": "",
          "type": "address"
        }
      ],
      "stateMutability": "view",
      "type": "function"
    },
    {
      "inputs": [
        {
          "internalType": "address",
          "name": "",
          "type": "address"
        },
        {
          "internalType": "uint256",
          "name": "",
          "type": "uint256"
        }
      ],
      "name": "entitiesHistory",
      "outputs": [
        {
          "internalType": "string",
          "name": "userName",
          "type": "string"
        },
        {
          "internalType": "string",
          "name": "password",
          "type": "string"
        },
        {
          "internalType": "string",
          "name": "name",
          "type": "string"
        },
        {
          "internalType": "string",
          "name": "departmentCode",
          "type": "string"
        },
        {
          "internalType": "string",
          "name": "entityType",
          "type": "string"
        },
        {
          "internalType": "address",
          "name": "entityAddress",
          "type": "address"
        },
        {
          "internalType": "uint256",
          "name": "timestamp",
          "type": "uint256"
        }
      ],
      "stateMutability": "view",
      "type": "function"
    },
    {
      "inputs": [
        {
          "internalType": "address",
          "name": "_entity",
          "type": "address"
        },
        {
          "internalType": "string",
          "name": "_userName",
          "type": "string"
        },
        {
          "internalType": "string",
          "name": "_password",
          "type": "string"
        },
        {
          "internalType": "string",
          "name": "_name",
          "type": "string"
        },
        {
          "internalType": "string",
          "name": "_departmentCode",
          "type": "string"
        },
        {
          "internalType": "string",
          "name": "_entityType",
          "type": "string"
        }
      ],
      "name": "addEntity",
      "outputs": [],
      "stateMutability": "nonpayable",
      "type": "function"
    },
    {
      "inputs": [],
      "name": "getEntities",
      "outputs": [
        {
          "internalType": "address[]",
          "name": "",
          "type": "address[]"
        }
      ],
      "stateMutability": "view",
      "type": "function"
    },
    {
      "inputs": [
        {
          "internalType": "address",
          "name": "_entity",
          "type": "address"
        }
      ],
      "name": "getEntityHistory",
      "outputs": [
        {
          "components": [
            {
              "internalType": "string",
              "name": "userName",
              "type": "string"
            },
            {
              "internalType": "string",
              "name": "password",
              "type": "string"
            },
            {
              "internalType": "string",
              "name": "name",
              "type": "string"
            },
            {
              "internalType": "string",
              "name": "departmentCode",
              "type": "string"
            },
            {
              "internalType": "string",
              "name": "entityType",
              "type": "string"
            },
            {
              "internalType": "address",
              "name": "entityAddress",
              "type": "address"
            },
            {
              "internalType": "uint256",
              "name": "timestamp",
              "type": "uint256"
            }
          ],
          "internalType": "struct EntitiesManager.Entity[]",
          "name": "",
          "type": "tuple[]"
        }
      ],
      "stateMutability": "view",
      "type": "function"
    },
    {
      "inputs": [
        {
          "internalType": "address",
          "name": "_entity",
          "type": "address"
        }
      ],
      "name": "getLastUpdate",
      "outputs": [
        {
          "components": [
            {
              "internalType": "string",
              "name": "userName",
              "type": "string"
            },
            {
              "internalType": "string",
              "name": "password",
              "type": "string"
            },
            {
              "internalType": "string",
              "name": "name",
              "type": "string"
            },
            {
              "internalType": "string",
              "name": "departmentCode",
              "type": "string"
            },
            {
              "internalType": "string",
              "name": "entityType",
              "type": "string"
            },
            {
              "internalType": "address",
              "name": "entityAddress",
              "type": "address"
            },
            {
              "internalType": "uint256",
              "name": "timestamp",
              "type": "uint256"
            }
          ],
          "internalType": "struct EntitiesManager.Entity",
          "name": "",
          "type": "tuple"
        }
      ],
      "stateMutability": "view",
      "type": "function"
    }
  ],
  "bytecode": "0x608060405234801561001057600080fd5b50611c9f806100206000396000f3fe608060405234801561001057600080fd5b50600436106100625760003560e01c80631252a0831461006757806328320e1c1461008357806331b933b9146100b357806343daa9df146100d15780635a7e19891461010757806388aac64c14610137575b600080fd5b610081600480360381019061007c91906111ab565b610167565b005b61009d600480360381019061009891906112c4565b61038d565b6040516100aa9190611512565b60405180910390f35b6100bb610764565b6040516100c891906115e3565b60405180910390f35b6100eb60048036038101906100e69190611631565b6107f2565b6040516100fe97969594939291906116d9565b60405180910390f35b610121600480360381019061011c91906112c4565b610b19565b60405161012e9190611823565b60405180910390f35b610151600480360381019061014c9190611845565b610f61565b60405161015e9190611872565b60405180910390f35b6000808773ffffffffffffffffffffffffffffffffffffffff1673ffffffffffffffffffffffffffffffffffffffff1681526020019081526020016000206040518060e001604052808781526020018681526020018581526020018481526020018381526020018873ffffffffffffffffffffffffffffffffffffffff168152602001428152509080600181540180825580915050600190039060005260206000209060070201600090919091909150600082015181600001908161022c9190611a99565b5060208201518160010190816102429190611a99565b5060408201518160020190816102589190611a99565b50606082015181600301908161026e9190611a99565b5060808201518160040190816102849190611a99565b5060a08201518160050160006101000a81548173ffffffffffffffffffffffffffffffffffffffff021916908373ffffffffffffffffffffffffffffffffffffffff16021790555060c08201518160060155505060016000808873ffffffffffffffffffffffffffffffffffffffff1673ffffffffffffffffffffffffffffffffffffffff1681526020019081526020016000208054905003610385576001869080600181540180825580915050600190039060005260206000200160009091909190916101000a81548173ffffffffffffffffffffffffffffffffffffffff021916908373ffffffffffffffffffffffffffffffffffffffff1602179055505b505050505050565b60606000808373ffffffffffffffffffffffffffffffffffffffff1673ffffffffffffffffffffffffffffffffffffffff168152602001908152602001600020805480602002602001604051908101604052809291908181526020016000905b8282101561075957838290600052602060002090600702016040518060e0016040529081600082018054610420906118bc565b80601f016020809104026020016040519081016040528092919081815260200182805461044c906118bc565b80156104995780601f1061046e57610100808354040283529160200191610499565b820191906000526020600020905b81548152906001019060200180831161047c57829003601f168201915b505050505081526020016001820180546104b2906118bc565b80601f01602080910402602001604051908101604052809291908181526020018280546104de906118bc565b801561052b5780601f106105005761010080835404028352916020019161052b565b820191906000526020600020905b81548152906001019060200180831161050e57829003601f168201915b50505050508152602001600282018054610544906118bc565b80601f0160208091040260200160405190810160405280929190818152602001828054610570906118bc565b80156105bd5780601f10610592576101008083540402835291602001916105bd565b820191906000526020600020905b8154815290600101906020018083116105a057829003601f168201915b505050505081526020016003820180546105d6906118bc565b80601f0160208091040260200160405190810160405280929190818152602001828054610602906118bc565b801561064f5780601f106106245761010080835404028352916020019161064f565b820191906000526020600020905b81548152906001019060200180831161063257829003601f168201915b50505050508152602001600482018054610668906118bc565b80601f0160208091040260200160405190810160405280929190818152602001828054610694906118bc565b80156106e15780601f106106b6576101008083540402835291602001916106e1565b820191906000526020600020905b8154815290600101906020018083116106c457829003601f168201915b505050505081526020016005820160009054906101000a900473ffffffffffffffffffffffffffffffffffffffff1673ffffffffffffffffffffffffffffffffffffffff1673ffffffffffffffffffffffffffffffffffffffff168152602001600682015481525050815260200190600101906103ed565b505050509050919050565b606060018054806020026020016040519081016040528092919081815260200182805480156107e857602002820191906000526020600020905b8160009054906101000a900473ffffffffffffffffffffffffffffffffffffffff1673ffffffffffffffffffffffffffffffffffffffff168152602001906001019080831161079e575b5050505050905090565b6000602052816000526040600020818154811061080e57600080fd5b906000526020600020906007020160009150915050806000018054610832906118bc565b80601f016020809104026020016040519081016040528092919081815260200182805461085e906118bc565b80156108ab5780601f10610880576101008083540402835291602001916108ab565b820191906000526020600020905b81548152906001019060200180831161088e57829003601f168201915b5050505050908060010180546108c0906118bc565b80601f01602080910402602001604051908101604052809291908181526020018280546108ec906118bc565b80156109395780601f1061090e57610100808354040283529160200191610939565b820191906000526020600020905b81548152906001019060200180831161091c57829003601f168201915b50505050509080600201805461094e906118bc565b80601f016020809104026020016040519081016040528092919081815260200182805461097a906118bc565b80156109c75780601f1061099c576101008083540402835291602001916109c7565b820191906000526020600020905b8154815290600101906020018083116109aa57829003601f168201915b5050505050908060030180546109dc906118bc565b80601f0160208091040260200160405190810160405280929190818152602001828054610a08906118bc565b8015610a555780601f10610a2a57610100808354040283529160200191610a55565b820191906000526020600020905b815481529060010190602001808311610a3857829003601f168201915b505050505090806004018054610a6a906118bc565b80601f0160208091040260200160405190810160405280929190818152602001828054610a96906118bc565b8015610ae35780601f10610ab857610100808354040283529160200191610ae3565b820191906000526020600020905b815481529060010190602001808311610ac657829003601f168201915b5050505050908060050160009054906101000a900473ffffffffffffffffffffffffffffffffffffffff16908060060154905087565b610b21610fa0565b60008060008473ffffffffffffffffffffffffffffffffffffffff1673ffffffffffffffffffffffffffffffffffffffff16815260200190815260200160002080549050905060008111610baa576040517f08c379a0000000000000000000000000000000000000000000000000000000008152600401610ba190611bb7565b60405180910390fd5b6000808473ffffffffffffffffffffffffffffffffffffffff1673ffffffffffffffffffffffffffffffffffffffff168152602001908152602001600020600182610bf59190611c06565b81548110610c0657610c05611c3a565b5b90600052602060002090600702016040518060e0016040529081600082018054610c2f906118bc565b80601f0160208091040260200160405190810160405280929190818152602001828054610c5b906118bc565b8015610ca85780601f10610c7d57610100808354040283529160200191610ca8565b820191906000526020600020905b815481529060010190602001808311610c8b57829003601f168201915b50505050508152602001600182018054610cc1906118bc565b80601f0160208091040260200160405190810160405280929190818152602001828054610ced906118bc565b8015610d3a5780601f10610d0f57610100808354040283529160200191610d3a565b820191906000526020600020905b815481529060010190602001808311610d1d57829003601f168201915b50505050508152602001600282018054610d53906118bc565b80601f0160208091040260200160405190810160405280929190818152602001828054610d7f906118bc565b8015610dcc5780601f10610da157610100808354040283529160200191610dcc565b820191906000526020600020905b815481529060010190602001808311610daf57829003601f168201915b50505050508152602001600382018054610de5906118bc565b80601f0160208091040260200160405190810160405280929190818152602001828054610e11906118bc565b8015610e5e5780601f10610e3357610100808354040283529160200191610e5e565b820191906000526020600020905b815481529060010190602001808311610e4157829003601f168201915b50505050508152602001600482018054610e77906118bc565b80601f0160208091040260200160405190810160405280929190818152602001828054610ea3906118bc565b8015610ef05780601f10610ec557610100808354040283529160200191610ef0565b820191906000526020600020905b815481529060010190602001808311610ed357829003601f168201915b505050505081526020016005820160009054906101000a900473ffffffffffffffffffffffffffffffffffffffff1673ffffffffffffffffffffffffffffffffffffffff1673ffffffffffffffffffffffffffffffffffffffff168152602001600682015481525050915050919050565b60018181548110610f7157600080fd5b906000526020600020016000915054906101000a900473ffffffffffffffffffffffffffffffffffffffff1681565b6040518060e001604052806060815260200160608152602001606081526020016060815260200160608152602001600073ffffffffffffffffffffffffffffffffffffffff168152602001600081525090565b6000604051905090565b600080fd5b600080fd5b600073ffffffffffffffffffffffffffffffffffffffff82169050919050565b600061103282611007565b9050919050565b61104281611027565b811461104d57600080fd5b50565b60008135905061105f81611039565b92915050565b600080fd5b600080fd5b6000601f19601f8301169050919050565b7f4e487b7100000000000000000000000000000000000000000000000000000000600052604160045260246000fd5b6110b88261106f565b810181811067ffffffffffffffff821117156110d7576110d6611080565b5b80604052505050565b60006110ea610ff3565b90506110f682826110af565b919050565b600067ffffffffffffffff82111561111657611115611080565b5b61111f8261106f565b9050602081019050919050565b82818337600083830152505050565b600061114e611149846110fb565b6110e0565b90508281526020810184848401111561116a5761116961106a565b5b61117584828561112c565b509392505050565b600082601f83011261119257611191611065565b5b81356111a284826020860161113b565b91505092915050565b60008060008060008060c087890312156111c8576111c7610ffd565b5b60006111d689828a01611050565b965050602087013567ffffffffffffffff8111156111f7576111f6611002565b5b61120389828a0161117d565b955050604087013567ffffffffffffffff81111561122457611223611002565b5b61123089828a0161117d565b945050606087013567ffffffffffffffff81111561125157611250611002565b5b61125d89828a0161117d565b935050608087013567ffffffffffffffff81111561127e5761127d611002565b5b61128a89828a0161117d565b92505060a087013567ffffffffffffffff8111156112ab576112aa611002565b5b6112b789828a0161117d565b9150509295509295509295565b6000602082840312156112da576112d9610ffd565b5b60006112e884828501611050565b91505092915050565b600081519050919050565b600082825260208201905092915050565b6000819050602082019050919050565b600081519050919050565b600082825260208201905092915050565b60005b8381101561135757808201518184015260208101905061133c565b60008484015250505050565b600061136e8261131d565b6113788185611328565b9350611388818560208601611339565b6113918161106f565b840191505092915050565b6113a581611027565b82525050565b6000819050919050565b6113be816113ab565b82525050565b600060e08301600083015184820360008601526113e18282611363565b915050602083015184820360208601526113fb8282611363565b915050604083015184820360408601526114158282611363565b9150506060830151848203606086015261142f8282611363565b915050608083015184820360808601526114498282611363565b91505060a083015161145e60a086018261139c565b5060c083015161147160c08601826113b5565b508091505092915050565b600061148883836113c4565b905092915050565b6000602082019050919050565b60006114a8826112f1565b6114b281856112fc565b9350836020820285016114c48561130d565b8060005b8581101561150057848403895281516114e1858261147c565b94506114ec83611490565b925060208a019950506001810190506114c8565b50829750879550505050505092915050565b6000602082019050818103600083015261152c818461149d565b905092915050565b600081519050919050565b600082825260208201905092915050565b6000819050602082019050919050565b600061156c838361139c565b60208301905092915050565b6000602082019050919050565b600061159082611534565b61159a818561153f565b93506115a583611550565b8060005b838110156115d65781516115bd8882611560565b97506115c883611578565b9250506001810190506115a9565b5085935050505092915050565b600060208201905081810360008301526115fd8184611585565b905092915050565b61160e816113ab565b811461161957600080fd5b50565b60008135905061162b81611605565b92915050565b6000806040838503121561164857611647610ffd565b5b600061165685828601611050565b92505060206116678582860161161c565b9150509250929050565b600082825260208201905092915050565b600061168d8261131d565b6116978185611671565b93506116a7818560208601611339565b6116b08161106f565b840191505092915050565b6116c481611027565b82525050565b6116d3816113ab565b82525050565b600060e08201905081810360008301526116f3818a611682565b905081810360208301526117078189611682565b9050818103604083015261171b8188611682565b9050818103606083015261172f8187611682565b905081810360808301526117438186611682565b905061175260a08301856116bb565b61175f60c08301846116ca565b98975050505050505050565b600060e08301600083015184820360008601526117888282611363565b915050602083015184820360208601526117a28282611363565b915050604083015184820360408601526117bc8282611363565b915050606083015184820360608601526117d68282611363565b915050608083015184820360808601526117f08282611363565b91505060a083015161180560a086018261139c565b5060c083015161181860c08601826113b5565b508091505092915050565b6000602082019050818103600083015261183d818461176b565b905092915050565b60006020828403121561185b5761185a610ffd565b5b60006118698482850161161c565b91505092915050565b600060208201905061188760008301846116bb565b92915050565b7f4e487b7100000000000000000000000000000000000000000000000000000000600052602260045260246000fd5b600060028204905060018216806118d457607f821691505b6020821081036118e7576118e661188d565b5b50919050565b60008190508160005260206000209050919050565b60006020601f8301049050919050565b600082821b905092915050565b60006008830261194f7fffffffffffffffffffffffffffffffffffffffffffffffffffffffffffffffff82611912565b6119598683611912565b95508019841693508086168417925050509392505050565b6000819050919050565b600061199661199161198c846113ab565b611971565b6113ab565b9050919050565b6000819050919050565b6119b08361197b565b6119c46119bc8261199d565b84845461191f565b825550505050565b600090565b6119d96119cc565b6119e48184846119a7565b505050565b5b81811015611a08576119fd6000826119d1565b6001810190506119ea565b5050565b601f821115611a4d57611a1e816118ed565b611a2784611902565b81016020851015611a36578190505b611a4a611a4285611902565b8301826119e9565b50505b505050565b600082821c905092915050565b6000611a7060001984600802611a52565b1980831691505092915050565b6000611a898383611a5f565b9150826002028217905092915050565b611aa28261131d565b67ffffffffffffffff811115611abb57611aba611080565b5b611ac582546118bc565b611ad0828285611a0c565b600060209050601f831160018114611b035760008415611af1578287015190505b611afb8582611a7d565b865550611b63565b601f198416611b11866118ed565b60005b82811015611b3957848901518255600182019150602085019450602081019050611b14565b86831015611b565784890151611b52601f891682611a5f565b8355505b6001600288020188555050505b505050505050565b7f5061727469636970616e7465206e616f20656e636f6e747261646f0000000000600082015250565b6000611ba1601b83611671565b9150611bac82611b6b565b602082019050919050565b60006020820190508181036000830152611bd081611b94565b9050919050565b7f4e487b7100000000000000000000000000000000000000000000000000000000600052601160045260246000fd5b6000611c11826113ab565b9150611c1c836113ab565b9250828203905081811115611c3457611c33611bd7565b5b92915050565b7f4e487b7100000000000000000000000000000000000000000000000000000000600052603260045260246000fdfea26469706673582212201005a28429c6f0aae10c9871c27f34d9fb4906dbf9be665c68d6378b5f11e95864736f6c63430008130033",
  "immutableReferences": {},
  "source": "pragma solidity ^0.8.0;\r\n\r\ncontract EntitiesManager {\r\n\r\n    struct Entity {\r\n        string userName;\r\n        string password;\r\n        string name;\r\n        string departmentCode;\r\n        string entityType;\r\n        address entityAddress;\r\n        uint256 timestamp;\r\n    }\r\n\r\n    mapping(address => Entity[]) public entitiesHistory;\r\n    address[] public allEntities;\r\n\r\n    function addEntity(address _entity, string memory _userName, string memory _password, string memory _name, string  memory _departmentCode, string memory _entityType) public {\r\n        entitiesHistory[_entity].push(Entity(_userName, _password, _name, _departmentCode, _entityType, _entity, block.timestamp));\r\n        if (entitiesHistory[_entity].length == 1) \r\n        {\r\n            allEntities.push(_entity);\r\n        }\r\n    }\r\n\r\n    function getEntities() public view returns (address[] memory) {\r\n        return allEntities;\r\n    }\r\n\r\n    function getEntityHistory(address _entity) public view returns (Entity[] memory) {\r\n        return entitiesHistory[_entity];\r\n    }\r\n\r\n    function getLastUpdate (address _entity) public view returns (Entity memory) {\r\n        uint totalVersions = entitiesHistory[_entity].length;\r\n        require(totalVersions > 0, \"Participante nao encontrado\");\r\n\r\n        return entitiesHistory[_entity][totalVersions - 1];\r\n    }\r\n}",
  "sourcePath": "C:\\IPCA DISSERTAO\\evidences_dapp\\contracts\\EntitiesManager.sol",
  "compiler": {
    "name": "solc",
    "version": "0.8.19+commit.7dd6d404.Emscripten.clang"
  },
  "schemaVersion": "3.4.13",
  "updatedAt": "2023-08-12T13:45:07.690Z",
  "devdoc": {
    "kind": "dev",
    "methods": {},
    "version": 1
  },
  "userdoc": {
    "kind": "user",
    "methods": {},
    "version": 1
  }
}