{
  "contractName": "EvidenceChain",
  "abi": [
    {
      "inputs": [
        {
          "internalType": "address",
          "name": "_entitiesManagerAddress",
          "type": "address"
        },
        {
          "internalType": "address",
          "name": "_evidencesManagerAddress",
          "type": "address"
        }
      ],
      "stateMutability": "nonpayable",
      "type": "constructor"
    },
    {
      "anonymous": false,
      "inputs": [
        {
          "indexed": true,
          "internalType": "uint32",
          "name": "evidenceId",
          "type": "uint32"
        }
      ],
      "name": "EvidenceAdded",
      "type": "event"
    },
    {
      "anonymous": false,
      "inputs": [
        {
          "indexed": true,
          "internalType": "uint32",
          "name": "userId",
          "type": "uint32"
        }
      ],
      "name": "ParticipantAdded",
      "type": "event"
    },
    {
      "anonymous": false,
      "inputs": [
        {
          "indexed": false,
          "internalType": "uint32",
          "name": "evidenceId",
          "type": "uint32"
        }
      ],
      "name": "TransferOwnership",
      "type": "event"
    },
    {
      "inputs": [],
      "name": "entitiesManager",
      "outputs": [
        {
          "internalType": "contract EntitiesManager",
          "name": "",
          "type": "address"
        }
      ],
      "stateMutability": "view",
      "type": "function"
    },
    {
      "inputs": [
        {
          "internalType": "uint32",
          "name": "",
          "type": "uint32"
        },
        {
          "internalType": "uint256",
          "name": "",
          "type": "uint256"
        }
      ],
      "name": "evidenceTrack",
      "outputs": [
        {
          "internalType": "uint32",
          "name": "",
          "type": "uint32"
        }
      ],
      "stateMutability": "view",
      "type": "function"
    },
    {
      "inputs": [],
      "name": "evidencesManager",
      "outputs": [
        {
          "internalType": "contract EvidencesManager",
          "name": "",
          "type": "address"
        }
      ],
      "stateMutability": "view",
      "type": "function"
    },
    {
      "inputs": [],
      "name": "owner_id",
      "outputs": [
        {
          "internalType": "uint32",
          "name": "",
          "type": "uint32"
        }
      ],
      "stateMutability": "view",
      "type": "function"
    },
    {
      "inputs": [
        {
          "internalType": "uint32",
          "name": "",
          "type": "uint32"
        }
      ],
      "name": "ownerships",
      "outputs": [
        {
          "internalType": "uint32",
          "name": "evidenceId",
          "type": "uint32"
        },
        {
          "internalType": "uint32",
          "name": "ownerId",
          "type": "uint32"
        },
        {
          "internalType": "uint32",
          "name": "trxTimeStamp",
          "type": "uint32"
        },
        {
          "internalType": "address",
          "name": "evidenceOwner",
          "type": "address"
        }
      ],
      "stateMutability": "view",
      "type": "function"
    },
    {
      "inputs": [
        {
          "internalType": "address",
          "name": "_entity",
          "type": "address"
        },
        {
          "internalType": "string",
          "name": "_userName",
          "type": "string"
        },
        {
          "internalType": "string",
          "name": "_password",
          "type": "string"
        },
        {
          "internalType": "string",
          "name": "_name",
          "type": "string"
        },
        {
          "internalType": "string",
          "name": "_departmentCode",
          "type": "string"
        },
        {
          "internalType": "string",
          "name": "_entityType",
          "type": "string"
        }
      ],
      "name": "addEntity",
      "outputs": [],
      "stateMutability": "nonpayable",
      "type": "function"
    },
    {
      "inputs": [],
      "name": "getEntities",
      "outputs": [
        {
          "components": [
            {
              "internalType": "string",
              "name": "userName",
              "type": "string"
            },
            {
              "internalType": "string",
              "name": "password",
              "type": "string"
            },
            {
              "internalType": "string",
              "name": "name",
              "type": "string"
            },
            {
              "internalType": "string",
              "name": "departmentCode",
              "type": "string"
            },
            {
              "internalType": "string",
              "name": "entityType",
              "type": "string"
            },
            {
              "internalType": "address",
              "name": "entityAddress",
              "type": "address"
            },
            {
              "internalType": "uint256",
              "name": "timestamp",
              "type": "uint256"
            }
          ],
          "internalType": "struct EntitiesManager.Entity[]",
          "name": "",
          "type": "tuple[]"
        }
      ],
      "stateMutability": "view",
      "type": "function"
    },
    {
      "inputs": [
        {
          "internalType": "address",
          "name": "_entity",
          "type": "address"
        }
      ],
      "name": "getEntityHistory",
      "outputs": [
        {
          "components": [
            {
              "internalType": "string",
              "name": "userName",
              "type": "string"
            },
            {
              "internalType": "string",
              "name": "password",
              "type": "string"
            },
            {
              "internalType": "string",
              "name": "name",
              "type": "string"
            },
            {
              "internalType": "string",
              "name": "departmentCode",
              "type": "string"
            },
            {
              "internalType": "string",
              "name": "entityType",
              "type": "string"
            },
            {
              "internalType": "address",
              "name": "entityAddress",
              "type": "address"
            },
            {
              "internalType": "uint256",
              "name": "timestamp",
              "type": "uint256"
            }
          ],
          "internalType": "struct EntitiesManager.Entity[]",
          "name": "",
          "type": "tuple[]"
        }
      ],
      "stateMutability": "view",
      "type": "function"
    },
    {
      "inputs": [],
      "name": "getEntityHistory",
      "outputs": [
        {
          "components": [
            {
              "internalType": "string",
              "name": "userName",
              "type": "string"
            },
            {
              "internalType": "string",
              "name": "password",
              "type": "string"
            },
            {
              "internalType": "string",
              "name": "name",
              "type": "string"
            },
            {
              "internalType": "string",
              "name": "departmentCode",
              "type": "string"
            },
            {
              "internalType": "string",
              "name": "entityType",
              "type": "string"
            },
            {
              "internalType": "address",
              "name": "entityAddress",
              "type": "address"
            },
            {
              "internalType": "uint256",
              "name": "timestamp",
              "type": "uint256"
            }
          ],
          "internalType": "struct EntitiesManager.Entity[]",
          "name": "",
          "type": "tuple[]"
        }
      ],
      "stateMutability": "view",
      "type": "function"
    },
    {
      "inputs": [
        {
          "internalType": "address",
          "name": "_entity",
          "type": "address"
        }
      ],
      "name": "getEntity",
      "outputs": [
        {
          "components": [
            {
              "internalType": "string",
              "name": "userName",
              "type": "string"
            },
            {
              "internalType": "string",
              "name": "password",
              "type": "string"
            },
            {
              "internalType": "string",
              "name": "name",
              "type": "string"
            },
            {
              "internalType": "string",
              "name": "departmentCode",
              "type": "string"
            },
            {
              "internalType": "string",
              "name": "entityType",
              "type": "string"
            },
            {
              "internalType": "address",
              "name": "entityAddress",
              "type": "address"
            },
            {
              "internalType": "uint256",
              "name": "timestamp",
              "type": "uint256"
            }
          ],
          "internalType": "struct EntitiesManager.Entity",
          "name": "",
          "type": "tuple"
        }
      ],
      "stateMutability": "view",
      "type": "function"
    },
    {
      "inputs": [],
      "name": "getEntity",
      "outputs": [
        {
          "components": [
            {
              "internalType": "string",
              "name": "userName",
              "type": "string"
            },
            {
              "internalType": "string",
              "name": "password",
              "type": "string"
            },
            {
              "internalType": "string",
              "name": "name",
              "type": "string"
            },
            {
              "internalType": "string",
              "name": "departmentCode",
              "type": "string"
            },
            {
              "internalType": "string",
              "name": "entityType",
              "type": "string"
            },
            {
              "internalType": "address",
              "name": "entityAddress",
              "type": "address"
            },
            {
              "internalType": "uint256",
              "name": "timestamp",
              "type": "uint256"
            }
          ],
          "internalType": "struct EntitiesManager.Entity",
          "name": "",
          "type": "tuple"
        }
      ],
      "stateMutability": "view",
      "type": "function"
    },
    {
      "inputs": [
        {
          "internalType": "string",
          "name": "_evidenceUniqueCode",
          "type": "string"
        },
        {
          "internalType": "string",
          "name": "_evidenceName",
          "type": "string"
        },
        {
          "internalType": "string",
          "name": "_evidenceType",
          "type": "string"
        }
      ],
      "name": "addEvidence",
      "outputs": [],
      "stateMutability": "nonpayable",
      "type": "function"
    },
    {
      "inputs": [],
      "name": "getEvidences",
      "outputs": [
        {
          "components": [
            {
              "internalType": "string",
              "name": "evidenceUniqueCode",
              "type": "string"
            },
            {
              "internalType": "string",
              "name": "evidenceName",
              "type": "string"
            },
            {
              "internalType": "string",
              "name": "evidenceType",
              "type": "string"
            },
            {
              "components": [
                {
                  "internalType": "string",
                  "name": "userName",
                  "type": "string"
                },
                {
                  "internalType": "string",
                  "name": "password",
                  "type": "string"
                },
                {
                  "internalType": "string",
                  "name": "name",
                  "type": "string"
                },
                {
                  "internalType": "string",
                  "name": "departmentCode",
                  "type": "string"
                },
                {
                  "internalType": "string",
                  "name": "entityType",
                  "type": "string"
                },
                {
                  "internalType": "address",
                  "name": "entityAddress",
                  "type": "address"
                },
                {
                  "internalType": "uint256",
                  "name": "timestamp",
                  "type": "uint256"
                }
              ],
              "internalType": "struct EntitiesManager.Entity",
              "name": "evidenceOwner",
              "type": "tuple"
            },
            {
              "internalType": "uint256",
              "name": "timestamp",
              "type": "uint256"
            }
          ],
          "internalType": "struct EvidencesManager.Evidence[]",
          "name": "",
          "type": "tuple[]"
        }
      ],
      "stateMutability": "view",
      "type": "function"
    },
    {
      "inputs": [
        {
          "internalType": "string",
          "name": "_evidenceUniqueCode",
          "type": "string"
        }
      ],
      "name": "getEvidenceHistory",
      "outputs": [
        {
          "components": [
            {
              "internalType": "string",
              "name": "evidenceUniqueCode",
              "type": "string"
            },
            {
              "internalType": "string",
              "name": "evidenceName",
              "type": "string"
            },
            {
              "internalType": "string",
              "name": "evidenceType",
              "type": "string"
            },
            {
              "components": [
                {
                  "internalType": "string",
                  "name": "userName",
                  "type": "string"
                },
                {
                  "internalType": "string",
                  "name": "password",
                  "type": "string"
                },
                {
                  "internalType": "string",
                  "name": "name",
                  "type": "string"
                },
                {
                  "internalType": "string",
                  "name": "departmentCode",
                  "type": "string"
                },
                {
                  "internalType": "string",
                  "name": "entityType",
                  "type": "string"
                },
                {
                  "internalType": "address",
                  "name": "entityAddress",
                  "type": "address"
                },
                {
                  "internalType": "uint256",
                  "name": "timestamp",
                  "type": "uint256"
                }
              ],
              "internalType": "struct EntitiesManager.Entity",
              "name": "evidenceOwner",
              "type": "tuple"
            },
            {
              "internalType": "uint256",
              "name": "timestamp",
              "type": "uint256"
            }
          ],
          "internalType": "struct EvidencesManager.Evidence[]",
          "name": "",
          "type": "tuple[]"
        }
      ],
      "stateMutability": "view",
      "type": "function"
    },
    {
      "inputs": [
        {
          "internalType": "string",
          "name": "_evidenceUniqueCode",
          "type": "string"
        }
      ],
      "name": "getEvidence",
      "outputs": [
        {
          "components": [
            {
              "internalType": "string",
              "name": "evidenceUniqueCode",
              "type": "string"
            },
            {
              "internalType": "string",
              "name": "evidenceName",
              "type": "string"
            },
            {
              "internalType": "string",
              "name": "evidenceType",
              "type": "string"
            },
            {
              "components": [
                {
                  "internalType": "string",
                  "name": "userName",
                  "type": "string"
                },
                {
                  "internalType": "string",
                  "name": "password",
                  "type": "string"
                },
                {
                  "internalType": "string",
                  "name": "name",
                  "type": "string"
                },
                {
                  "internalType": "string",
                  "name": "departmentCode",
                  "type": "string"
                },
                {
                  "internalType": "string",
                  "name": "entityType",
                  "type": "string"
                },
                {
                  "internalType": "address",
                  "name": "entityAddress",
                  "type": "address"
                },
                {
                  "internalType": "uint256",
                  "name": "timestamp",
                  "type": "uint256"
                }
              ],
              "internalType": "struct EntitiesManager.Entity",
              "name": "evidenceOwner",
              "type": "tuple"
            },
            {
              "internalType": "uint256",
              "name": "timestamp",
              "type": "uint256"
            }
          ],
          "internalType": "struct EvidencesManager.Evidence",
          "name": "",
          "type": "tuple"
        }
      ],
      "stateMutability": "view",
      "type": "function"
    },
    {
      "inputs": [
        {
          "internalType": "uint32",
          "name": "_evidenceId",
          "type": "uint32"
        }
      ],
      "name": "getProvenance",
      "outputs": [
        {
          "internalType": "uint32[]",
          "name": "",
          "type": "uint32[]"
        }
      ],
      "stateMutability": "view",
      "type": "function"
    },
    {
      "inputs": [
        {
          "internalType": "uint32",
          "name": "_regId",
          "type": "uint32"
        }
      ],
      "name": "getOwnership",
      "outputs": [
        {
          "internalType": "uint32",
          "name": "",
          "type": "uint32"
        },
        {
          "internalType": "uint32",
          "name": "",
          "type": "uint32"
        },
        {
          "internalType": "address",
          "name": "",
          "type": "address"
        },
        {
          "internalType": "uint32",
          "name": "",
          "type": "uint32"
        }
      ],
      "stateMutability": "view",
      "type": "function"
    }
  ],
  "bytecode": "0x60806040526000600160146101000a81548163ffffffff021916908363ffffffff1602179055503480156200003357600080fd5b5060405162002bcd38038062002bcd83398181016040528101906200005991906200014c565b816000806101000a81548173ffffffffffffffffffffffffffffffffffffffff021916908373ffffffffffffffffffffffffffffffffffffffff16021790555080600160006101000a81548173ffffffffffffffffffffffffffffffffffffffff021916908373ffffffffffffffffffffffffffffffffffffffff160217905550505062000193565b600080fd5b600073ffffffffffffffffffffffffffffffffffffffff82169050919050565b60006200011482620000e7565b9050919050565b620001268162000107565b81146200013257600080fd5b50565b60008151905062000146816200011b565b92915050565b60008060408385031215620001665762000165620000e2565b5b6000620001768582860162000135565b9250506020620001898582860162000135565b9150509250929050565b612a2a80620001a36000396000f3fe608060405234801561001057600080fd5b506004361061010b5760003560e01c80638cb58fc1116100a2578063c892522e11610071578063c892522e146102e3578063df6d23f114610313578063dff95aac14610346578063e3271cf914610364578063ff200d2b146103825761010b565b80638cb58fc1146102475780638f5ebf7114610265578063b16c6ee714610283578063c8569565146102b35761010b565b80635760620b116100de5780635760620b1461019657806375894e8c146101c657806381e15610146101f65780638b57d984146102295761010b565b80631252a0831461011057806328320e1c1461012c57806331b933b91461015c5780633cf16fda1461017a575b600080fd5b61012a600480360381019061012591906113c9565b6103a0565b005b610146600480360381019061014191906114e2565b61043d565b6040516101539190611730565b60405180910390f35b6101646104e5565b6040516101719190611730565b60405180910390f35b610194600480360381019061018f9190611752565b61072e565b005b6101b060048036038101906101ab9190611861565b6108f7565b6040516101bd91906118b0565b60405180910390f35b6101e060048036038101906101db91906114e2565b610940565b6040516101ed9190611983565b60405180910390f35b610210600480360381019061020b91906119a5565b6109ee565b60405161022094939291906119e1565b60405180910390f35b610231610a6e565b60405161023e9190611730565b60405180910390f35b61024f610b14565b60405161025c9190611a85565b60405180910390f35b61026d610b3a565b60405161027a91906118b0565b60405180910390f35b61029d60048036038101906102989190611aa0565b610b50565b6040516102aa9190611b74565b60405180910390f35b6102cd60048036038101906102c891906119a5565b610c00565b6040516102da9190611c54565b60405180910390f35b6102fd60048036038101906102f89190611aa0565b610ca3565b60405161030a9190611dc3565b60405180910390f35b61032d600480360381019061032891906119a5565b610d4d565b60405161033d9493929190611de5565b60405180910390f35b61034e610e6d565b60405161035b9190611dc3565b60405180910390f35b61036c6110b9565b6040516103799190611e4b565b60405180910390f35b61038a6110dd565b6040516103979190611983565b60405180910390f35b60008054906101000a900473ffffffffffffffffffffffffffffffffffffffff1673ffffffffffffffffffffffffffffffffffffffff16631252a0838787878787876040518763ffffffff1660e01b815260040161040396959493929190611eb0565b600060405180830381600087803b15801561041d57600080fd5b505af1158015610431573d6000803e3d6000fd5b50505050505050505050565b606060008054906101000a900473ffffffffffffffffffffffffffffffffffffffff1673ffffffffffffffffffffffffffffffffffffffff166328320e1c836040518263ffffffff1660e01b81526004016104989190611f34565b600060405180830381865afa1580156104b5573d6000803e3d6000fd5b505050506040513d6000823e3d601f19601f820116820180604052508101906104de9190612219565b9050919050565b606060008060009054906101000a900473ffffffffffffffffffffffffffffffffffffffff1673ffffffffffffffffffffffffffffffffffffffff166331b933b96040518163ffffffff1660e01b8152600401600060405180830381865afa158015610555573d6000803e3d6000fd5b505050506040513d6000823e3d601f19601f8201168201806040525081019061057e9190612325565b905060008151116105c4576040517f08c379a00000000000000000000000000000000000000000000000000000000081526004016105bb906123ba565b60405180910390fd5b6000815167ffffffffffffffff8111156105e1576105e061129e565b5b60405190808252806020026020018201604052801561061a57816020015b610607611189565b8152602001906001900390816105ff5790505b50905060005b82518163ffffffff1610156107255760008054906101000a900473ffffffffffffffffffffffffffffffffffffffff1673ffffffffffffffffffffffffffffffffffffffff16635a7e1989848363ffffffff1681518110610684576106836123da565b5b60200260200101516040518263ffffffff1660e01b81526004016106a89190611f34565b600060405180830381865afa1580156106c5573d6000803e3d6000fd5b505050506040513d6000823e3d601f19601f820116820180604052508101906106ee9190612409565b828263ffffffff1681518110610707576107066123da565b5b6020026020010181905250808061071d90612481565b915050610620565b50809250505090565b60008060009054906101000a900473ffffffffffffffffffffffffffffffffffffffff1673ffffffffffffffffffffffffffffffffffffffff16635a7e1989336040518263ffffffff1660e01b815260040161078a9190611f34565b600060405180830381865afa1580156107a7573d6000803e3d6000fd5b505050506040513d6000823e3d601f19601f820116820180604052508101906107d09190612409565b90507fe419ba2484d9efb5ea120ea8d8b86dc666551db29ed65e4d8c975262e7a9c365816080015160405160200161080891906124e9565b604051602081830303815290604052805190602001201461085e576040517f08c379a00000000000000000000000000000000000000000000000000000000081526004016108559061254c565b60405180910390fd5b600160009054906101000a900473ffffffffffffffffffffffffffffffffffffffff1673ffffffffffffffffffffffffffffffffffffffff1663590800a0858585856040518563ffffffff1660e01b81526004016108bf949392919061256c565b600060405180830381600087803b1580156108d957600080fd5b505af11580156108ed573d6000803e3d6000fd5b5050505050505050565b6003602052816000526040600020818154811061091357600080fd5b9060005260206000209060089182820401919006600402915091509054906101000a900463ffffffff1681565b610948611189565b60008054906101000a900473ffffffffffffffffffffffffffffffffffffffff1673ffffffffffffffffffffffffffffffffffffffff16635a7e1989836040518263ffffffff1660e01b81526004016109a19190611f34565b600060405180830381865afa1580156109be573d6000803e3d6000fd5b505050506040513d6000823e3d601f19601f820116820180604052508101906109e79190612409565b9050919050565b60026020528060005260406000206000915090508060000160009054906101000a900463ffffffff16908060000160049054906101000a900463ffffffff16908060000160089054906101000a900463ffffffff169080600001600c9054906101000a900473ffffffffffffffffffffffffffffffffffffffff16905084565b606060008054906101000a900473ffffffffffffffffffffffffffffffffffffffff1673ffffffffffffffffffffffffffffffffffffffff166328320e1c336040518263ffffffff1660e01b8152600401610ac99190611f34565b600060405180830381865afa158015610ae6573d6000803e3d6000fd5b505050506040513d6000823e3d601f19601f82011682018060405250810190610b0f9190612219565b905090565b600160009054906101000a900473ffffffffffffffffffffffffffffffffffffffff1681565b600160149054906101000a900463ffffffff1681565b610b586111dc565b600160009054906101000a900473ffffffffffffffffffffffffffffffffffffffff1673ffffffffffffffffffffffffffffffffffffffff16633eeb568b836040518263ffffffff1660e01b8152600401610bb391906125cd565b600060405180830381865afa158015610bd0573d6000803e3d6000fd5b505050506040513d6000823e3d601f19601f82011682018060405250810190610bf991906126eb565b9050919050565b6060600360008363ffffffff1663ffffffff168152602001908152602001600020805480602002602001604051908101604052809291908181526020018280548015610c9757602002820191906000526020600020906000905b82829054906101000a900463ffffffff1663ffffffff1681526020019060040190602082600301049283019260010382029150808411610c5a5790505b50505050509050919050565b6060600160009054906101000a900473ffffffffffffffffffffffffffffffffffffffff1673ffffffffffffffffffffffffffffffffffffffff1663c892522e836040518263ffffffff1660e01b8152600401610d0091906125cd565b600060405180830381865afa158015610d1d573d6000803e3d6000fd5b505050506040513d6000823e3d601f19601f82011682018060405250810190610d469190612815565b9050919050565b6000806000806000600260008763ffffffff1663ffffffff1681526020019081526020016000206040518060800160405290816000820160009054906101000a900463ffffffff1663ffffffff1663ffffffff1681526020016000820160049054906101000a900463ffffffff1663ffffffff1663ffffffff1681526020016000820160089054906101000a900463ffffffff1663ffffffff1663ffffffff16815260200160008201600c9054906101000a900473ffffffffffffffffffffffffffffffffffffffff1673ffffffffffffffffffffffffffffffffffffffff1673ffffffffffffffffffffffffffffffffffffffff1681525050905080600001518160200151826060015183604001519450945094509450509193509193565b60606000600160009054906101000a900473ffffffffffffffffffffffffffffffffffffffff1673ffffffffffffffffffffffffffffffffffffffff1663dff95aac6040518163ffffffff1660e01b8152600401600060405180830381865afa158015610ede573d6000803e3d6000fd5b505050506040513d6000823e3d601f19601f82011682018060405250810190610f07919061293f565b90506000815111610f4d576040517f08c379a0000000000000000000000000000000000000000000000000000000008152600401610f44906129d4565b60405180910390fd5b6000815167ffffffffffffffff811115610f6a57610f6961129e565b5b604051908082528060200260200182016040528015610fa357816020015b610f906111dc565b815260200190600190039081610f885790505b50905060005b82518163ffffffff1610156110b057600160009054906101000a900473ffffffffffffffffffffffffffffffffffffffff1673ffffffffffffffffffffffffffffffffffffffff16633eeb568b848363ffffffff168151811061100f5761100e6123da565b5b60200260200101516040518263ffffffff1660e01b815260040161103391906125cd565b600060405180830381865afa158015611050573d6000803e3d6000fd5b505050506040513d6000823e3d601f19601f8201168201806040525081019061107991906126eb565b828263ffffffff1681518110611092576110916123da565b5b602002602001018190525080806110a890612481565b915050610fa9565b50809250505090565b60008054906101000a900473ffffffffffffffffffffffffffffffffffffffff1681565b6110e5611189565b60008054906101000a900473ffffffffffffffffffffffffffffffffffffffff1673ffffffffffffffffffffffffffffffffffffffff16635a7e1989336040518263ffffffff1660e01b815260040161113e9190611f34565b600060405180830381865afa15801561115b573d6000803e3d6000fd5b505050506040513d6000823e3d601f19601f820116820180604052508101906111849190612409565b905090565b6040518060e001604052806060815260200160608152602001606081526020016060815260200160608152602001600073ffffffffffffffffffffffffffffffffffffffff168152602001600081525090565b6040518060a00160405280606081526020016060815260200160608152602001611204611189565b8152602001600081525090565b6000604051905090565b600080fd5b600080fd5b600073ffffffffffffffffffffffffffffffffffffffff82169050919050565b600061125082611225565b9050919050565b61126081611245565b811461126b57600080fd5b50565b60008135905061127d81611257565b92915050565b600080fd5b600080fd5b6000601f19601f8301169050919050565b7f4e487b7100000000000000000000000000000000000000000000000000000000600052604160045260246000fd5b6112d68261128d565b810181811067ffffffffffffffff821117156112f5576112f461129e565b5b80604052505050565b6000611308611211565b905061131482826112cd565b919050565b600067ffffffffffffffff8211156113345761133361129e565b5b61133d8261128d565b9050602081019050919050565b82818337600083830152505050565b600061136c61136784611319565b6112fe565b90508281526020810184848401111561138857611387611288565b5b61139384828561134a565b509392505050565b600082601f8301126113b0576113af611283565b5b81356113c0848260208601611359565b91505092915050565b60008060008060008060c087890312156113e6576113e561121b565b5b60006113f489828a0161126e565b965050602087013567ffffffffffffffff81111561141557611414611220565b5b61142189828a0161139b565b955050604087013567ffffffffffffffff81111561144257611441611220565b5b61144e89828a0161139b565b945050606087013567ffffffffffffffff81111561146f5761146e611220565b5b61147b89828a0161139b565b935050608087013567ffffffffffffffff81111561149c5761149b611220565b5b6114a889828a0161139b565b92505060a087013567ffffffffffffffff8111156114c9576114c8611220565b5b6114d589828a0161139b565b9150509295509295509295565b6000602082840312156114f8576114f761121b565b5b60006115068482850161126e565b91505092915050565b600081519050919050565b600082825260208201905092915050565b6000819050602082019050919050565b600081519050919050565b600082825260208201905092915050565b60005b8381101561157557808201518184015260208101905061155a565b60008484015250505050565b600061158c8261153b565b6115968185611546565b93506115a6818560208601611557565b6115af8161128d565b840191505092915050565b6115c381611245565b82525050565b6000819050919050565b6115dc816115c9565b82525050565b600060e08301600083015184820360008601526115ff8282611581565b915050602083015184820360208601526116198282611581565b915050604083015184820360408601526116338282611581565b9150506060830151848203606086015261164d8282611581565b915050608083015184820360808601526116678282611581565b91505060a083015161167c60a08601826115ba565b5060c083015161168f60c08601826115d3565b508091505092915050565b60006116a683836115e2565b905092915050565b6000602082019050919050565b60006116c68261150f565b6116d0818561151a565b9350836020820285016116e28561152b565b8060005b8581101561171e57848403895281516116ff858261169a565b945061170a836116ae565b925060208a019950506001810190506116e6565b50829750879550505050505092915050565b6000602082019050818103600083015261174a81846116bb565b905092915050565b60008060006060848603121561176b5761176a61121b565b5b600084013567ffffffffffffffff81111561178957611788611220565b5b6117958682870161139b565b935050602084013567ffffffffffffffff8111156117b6576117b5611220565b5b6117c28682870161139b565b925050604084013567ffffffffffffffff8111156117e3576117e2611220565b5b6117ef8682870161139b565b9150509250925092565b600063ffffffff82169050919050565b611812816117f9565b811461181d57600080fd5b50565b60008135905061182f81611809565b92915050565b61183e816115c9565b811461184957600080fd5b50565b60008135905061185b81611835565b92915050565b600080604083850312156118785761187761121b565b5b600061188685828601611820565b92505060206118978582860161184c565b9150509250929050565b6118aa816117f9565b82525050565b60006020820190506118c560008301846118a1565b92915050565b600060e08301600083015184820360008601526118e88282611581565b915050602083015184820360208601526119028282611581565b9150506040830151848203604086015261191c8282611581565b915050606083015184820360608601526119368282611581565b915050608083015184820360808601526119508282611581565b91505060a083015161196560a08601826115ba565b5060c083015161197860c08601826115d3565b508091505092915050565b6000602082019050818103600083015261199d81846118cb565b905092915050565b6000602082840312156119bb576119ba61121b565b5b60006119c984828501611820565b91505092915050565b6119db81611245565b82525050565b60006080820190506119f660008301876118a1565b611a0360208301866118a1565b611a1060408301856118a1565b611a1d60608301846119d2565b95945050505050565b6000819050919050565b6000611a4b611a46611a4184611225565b611a26565b611225565b9050919050565b6000611a5d82611a30565b9050919050565b6000611a6f82611a52565b9050919050565b611a7f81611a64565b82525050565b6000602082019050611a9a6000830184611a76565b92915050565b600060208284031215611ab657611ab561121b565b5b600082013567ffffffffffffffff811115611ad457611ad3611220565b5b611ae08482850161139b565b91505092915050565b600060a0830160008301518482036000860152611b068282611581565b91505060208301518482036020860152611b208282611581565b91505060408301518482036040860152611b3a8282611581565b91505060608301518482036060860152611b5482826115e2565b9150506080830151611b6960808601826115d3565b508091505092915050565b60006020820190508181036000830152611b8e8184611ae9565b905092915050565b600081519050919050565b600082825260208201905092915050565b6000819050602082019050919050565b611bcb816117f9565b82525050565b6000611bdd8383611bc2565b60208301905092915050565b6000602082019050919050565b6000611c0182611b96565b611c0b8185611ba1565b9350611c1683611bb2565b8060005b83811015611c47578151611c2e8882611bd1565b9750611c3983611be9565b925050600181019050611c1a565b5085935050505092915050565b60006020820190508181036000830152611c6e8184611bf6565b905092915050565b600081519050919050565b600082825260208201905092915050565b6000819050602082019050919050565b600060a0830160008301518482036000860152611cbf8282611581565b91505060208301518482036020860152611cd98282611581565b91505060408301518482036040860152611cf38282611581565b91505060608301518482036060860152611d0d82826115e2565b9150506080830151611d2260808601826115d3565b508091505092915050565b6000611d398383611ca2565b905092915050565b6000602082019050919050565b6000611d5982611c76565b611d638185611c81565b935083602082028501611d7585611c92565b8060005b85811015611db15784840389528151611d928582611d2d565b9450611d9d83611d41565b925060208a01995050600181019050611d79565b50829750879550505050505092915050565b60006020820190508181036000830152611ddd8184611d4e565b905092915050565b6000608082019050611dfa60008301876118a1565b611e0760208301866118a1565b611e1460408301856119d2565b611e2160608301846118a1565b95945050505050565b6000611e3582611a52565b9050919050565b611e4581611e2a565b82525050565b6000602082019050611e606000830184611e3c565b92915050565b600082825260208201905092915050565b6000611e828261153b565b611e8c8185611e66565b9350611e9c818560208601611557565b611ea58161128d565b840191505092915050565b600060c082019050611ec560008301896119d2565b8181036020830152611ed78188611e77565b90508181036040830152611eeb8187611e77565b90508181036060830152611eff8186611e77565b90508181036080830152611f138185611e77565b905081810360a0830152611f278184611e77565b9050979650505050505050565b6000602082019050611f4960008301846119d2565b92915050565b600067ffffffffffffffff821115611f6a57611f6961129e565b5b602082029050602081019050919050565b600080fd5b600080fd5b600080fd5b6000611f9d611f9884611319565b6112fe565b905082815260208101848484011115611fb957611fb8611288565b5b611fc4848285611557565b509392505050565b600082601f830112611fe157611fe0611283565b5b8151611ff1848260208601611f8a565b91505092915050565b60008151905061200981611257565b92915050565b60008151905061201e81611835565b92915050565b600060e0828403121561203a57612039611f80565b5b61204460e06112fe565b9050600082015167ffffffffffffffff81111561206457612063611f85565b5b61207084828501611fcc565b600083015250602082015167ffffffffffffffff81111561209457612093611f85565b5b6120a084828501611fcc565b602083015250604082015167ffffffffffffffff8111156120c4576120c3611f85565b5b6120d084828501611fcc565b604083015250606082015167ffffffffffffffff8111156120f4576120f3611f85565b5b61210084828501611fcc565b606083015250608082015167ffffffffffffffff81111561212457612123611f85565b5b61213084828501611fcc565b60808301525060a061214484828501611ffa565b60a08301525060c06121588482850161200f565b60c08301525092915050565b600061217761217284611f4f565b6112fe565b9050808382526020820190506020840283018581111561219a57612199611f7b565b5b835b818110156121e157805167ffffffffffffffff8111156121bf576121be611283565b5b8086016121cc8982612024565b8552602085019450505060208101905061219c565b5050509392505050565b600082601f830112612200576121ff611283565b5b8151612210848260208601612164565b91505092915050565b60006020828403121561222f5761222e61121b565b5b600082015167ffffffffffffffff81111561224d5761224c611220565b5b612259848285016121eb565b91505092915050565b600067ffffffffffffffff82111561227d5761227c61129e565b5b602082029050602081019050919050565b60006122a161229c84612262565b6112fe565b905080838252602082019050602084028301858111156122c4576122c3611f7b565b5b835b818110156122ed57806122d98882611ffa565b8452602084019350506020810190506122c6565b5050509392505050565b600082601f83011261230c5761230b611283565b5b815161231c84826020860161228e565b91505092915050565b60006020828403121561233b5761233a61121b565b5b600082015167ffffffffffffffff81111561235957612358611220565b5b612365848285016122f7565b91505092915050565b7f4e6f20456e746974696573000000000000000000000000000000000000000000600082015250565b60006123a4600b83611e66565b91506123af8261236e565b602082019050919050565b600060208201905081810360008301526123d381612397565b9050919050565b7f4e487b7100000000000000000000000000000000000000000000000000000000600052603260045260246000fd5b60006020828403121561241f5761241e61121b565b5b600082015167ffffffffffffffff81111561243d5761243c611220565b5b61244984828501612024565b91505092915050565b7f4e487b7100000000000000000000000000000000000000000000000000000000600052601160045260246000fd5b600061248c826117f9565b915063ffffffff82036124a2576124a1612452565b5b600182019050919050565b600081905092915050565b60006124c38261153b565b6124cd81856124ad565b93506124dd818560208601611557565b80840191505092915050565b60006124f582846124b8565b915081905092915050565b7f4e6f7420506f6c6963652e000000000000000000000000000000000000000000600082015250565b6000612536600b83611e66565b915061254182612500565b602082019050919050565b6000602082019050818103600083015261256581612529565b9050919050565b600060808201905081810360008301526125868187611e77565b9050818103602083015261259a8186611e77565b905081810360408301526125ae8185611e77565b905081810360608301526125c281846118cb565b905095945050505050565b600060208201905081810360008301526125e78184611e77565b905092915050565b600060a0828403121561260557612604611f80565b5b61260f60a06112fe565b9050600082015167ffffffffffffffff81111561262f5761262e611f85565b5b61263b84828501611fcc565b600083015250602082015167ffffffffffffffff81111561265f5761265e611f85565b5b61266b84828501611fcc565b602083015250604082015167ffffffffffffffff81111561268f5761268e611f85565b5b61269b84828501611fcc565b604083015250606082015167ffffffffffffffff8111156126bf576126be611f85565b5b6126cb84828501612024565b60608301525060806126df8482850161200f565b60808301525092915050565b6000602082840312156127015761270061121b565b5b600082015167ffffffffffffffff81111561271f5761271e611220565b5b61272b848285016125ef565b91505092915050565b600067ffffffffffffffff82111561274f5761274e61129e565b5b602082029050602081019050919050565b600061277361276e84612734565b6112fe565b9050808382526020820190506020840283018581111561279657612795611f7b565b5b835b818110156127dd57805167ffffffffffffffff8111156127bb576127ba611283565b5b8086016127c889826125ef565b85526020850194505050602081019050612798565b5050509392505050565b600082601f8301126127fc576127fb611283565b5b815161280c848260208601612760565b91505092915050565b60006020828403121561282b5761282a61121b565b5b600082015167ffffffffffffffff81111561284957612848611220565b5b612855848285016127e7565b91505092915050565b600067ffffffffffffffff8211156128795761287861129e565b5b602082029050602081019050919050565b600061289d6128988461285e565b6112fe565b905080838252602082019050602084028301858111156128c0576128bf611f7b565b5b835b8181101561290757805167ffffffffffffffff8111156128e5576128e4611283565b5b8086016128f28982611fcc565b855260208501945050506020810190506128c2565b5050509392505050565b600082601f83011261292657612925611283565b5b815161293684826020860161288a565b91505092915050565b6000602082840312156129555761295461121b565b5b600082015167ffffffffffffffff81111561297357612972611220565b5b61297f84828501612911565b91505092915050565b7f4e6f2045766964656e6365730000000000000000000000000000000000000000600082015250565b60006129be600c83611e66565b91506129c982612988565b602082019050919050565b600060208201905081810360008301526129ed816129b1565b905091905056fea2646970667358221220adeddcbdb6e3a716f941c979931577626255e69dd585624ddafcc65fc0c5640c64736f6c63430008130033",
  "immutableReferences": {},
  "source": "pragma solidity >=0.8.0;\r\n\r\nimport \"./EntitiesManager.sol\";\r\nimport \"./EvidencesManager.sol\";\r\n\r\ncontract EvidenceChain {\r\n    EntitiesManager public entitiesManager;\r\n    EvidencesManager public evidencesManager;\r\n\r\n    constructor(address _entitiesManagerAddress, address _evidencesManagerAddress) {\r\n        entitiesManager = EntitiesManager(_entitiesManagerAddress);\r\n        evidencesManager = EvidencesManager(_evidencesManagerAddress);\r\n    }\r\n    \r\n    // uint32 public evidence_id = 0;\r\n    uint32 public owner_id = 0;\r\n\r\n    // struct Evidence {\r\n    //     string evidenceUniqueCode;\r\n    //     string evidenceName;\r\n    //     string evidenceType;\r\n    //     address evidenceOwner;\r\n    //     uint32 mfgTimeStamp;\r\n    // }\r\n\r\n    // Evidence [] public evidences;\r\n    \r\n    struct ownership {\r\n        uint32 evidenceId;\r\n        uint32 ownerId;\r\n        uint32 trxTimeStamp;\r\n        address evidenceOwner;\r\n    }\r\n\r\n    mapping(uint32 => ownership) public ownerships;\r\n    mapping(uint32 => uint32[]) public evidenceTrack;  \r\n\r\n    event TransferOwnership(uint32 evidenceId);\r\n    event ParticipantAdded(uint32 indexed userId);\r\n    event EvidenceAdded(uint32 indexed evidenceId);\r\n\r\n    function addEntity(address _entity, string memory _userName, string memory _password, string memory _name, string  memory _departmentCode, string memory _entityType) public {\r\n        entitiesManager.addEntity(_entity, _userName, _password, _name, _departmentCode, _entityType);\r\n    }\r\n\r\n    function getEntities() public view returns (EntitiesManager.Entity[] memory) {\r\n        address[] memory entityAddresses = entitiesManager.getEntities();\r\n        require(entityAddresses.length > 0, \"No Entities\");\r\n        EntitiesManager.Entity[] memory entities = new EntitiesManager.Entity[](entityAddresses.length);\r\n        for (uint32 i = 0; i < entityAddresses.length; i++) {\r\n            entities[i] = entitiesManager.getLastUpdate(entityAddresses[i]);\r\n        }\r\n\r\n        return entities;\r\n    }\r\n\r\n    // function getEntities() public view returns (address[] memory) {\r\n    //     return entitiesManager.getEntities();\r\n    // }\r\n\r\n    function getEntityHistory() public view returns (EntitiesManager.Entity[] memory) {\r\n        return entitiesManager.getEntityHistory(msg.sender);\r\n    }\r\n\r\n    function getEntityHistory(address _entity) public view returns (EntitiesManager.Entity[] memory) {\r\n        return entitiesManager.getEntityHistory(_entity);\r\n    }\r\n\r\n    function getEntity(address _entity) public view returns (EntitiesManager.Entity memory) {\r\n        return entitiesManager.getLastUpdate(_entity);\r\n    }\r\n\r\n    function getEntity() public view returns (EntitiesManager.Entity memory) {\r\n        return entitiesManager.getLastUpdate(msg.sender);\r\n    }\r\n\r\n    // function addParticipant(string memory _name, string memory _pass, address _pAdd, string memory _pType) public {\r\n    //     uint32 userId = participant_id++;\r\n\r\n    //     participants.push(Participant(_name, _pass, _pType, _pAdd));\r\n\r\n    //     emit ParticipantAdded(userId);\r\n    // }\r\n\r\n    // function getParticipants() onlyParticipant() public view returns (Participant[] memory){\r\n    //     return participants;\r\n    // }\r\n\r\n    // function getParticipant() public view returns (Participant memory) \r\n    // {\r\n    //     for (uint32 i = 0; i < participants.length; i++) {\r\n    //         if (participants[i].participantAddress == msg.sender) {\r\n    //             return participants[i];\r\n    //         }\r\n    //     }\r\n    //     revert(\"Participant not found\");\r\n    // }\r\n\r\n    // modifier onlyParticipant() {\r\n    //     require(isParticipant(), \"The address was not found in the list.\");\r\n    //     _;\r\n    // }\r\n\r\n    // function isParticipant() internal view returns(bool) {\r\n    // for (uint32 i = 0; i < participant_id; i++) {\r\n    //     if (participants[i].participantAddress == msg.sender) {\r\n    //         return true;\r\n    //     }\r\n    // }\r\n    // return false;\r\n    // }\r\n\r\n    // function getParticipantId() internal view returns(int32) {\r\n    // for (uint32 i = 0; i < participant_id; i++) {\r\n    //     if (participants[i].participantAddress == msg.sender) {\r\n    //         return int32(i);\r\n    //     }\r\n    // }\r\n    // return -1;\r\n    // }\r\n\r\n    function addEvidence(string memory _evidenceUniqueCode, string memory _evidenceName, string memory _evidenceType) public {\r\n        EntitiesManager.Entity memory _entity = entitiesManager.getLastUpdate(msg.sender);\r\n        require(keccak256(abi.encodePacked(_entity.entityType)) == keccak256(\"Police\"),\"Not Police.\");\r\n        evidencesManager.addEvidence(_evidenceUniqueCode, _evidenceName, _evidenceType, _entity);\r\n    }\r\n\r\n    function getEvidences() public view returns (EvidencesManager.Evidence[] memory) {\r\n        string[] memory evidencesCodes = evidencesManager.getEvidences();\r\n        require(evidencesCodes.length > 0, \"No Evidences\");\r\n        EvidencesManager.Evidence[] memory evidences = new EvidencesManager.Evidence[](evidencesCodes.length);\r\n        for (uint32 i = 0; i < evidencesCodes.length; i++) {\r\n            evidences[i] = evidencesManager.getLastUpdate(evidencesCodes[i]);\r\n        }\r\n\r\n        return evidences;\r\n    }\r\n\r\n    function getEvidenceHistory(string memory _evidenceUniqueCode) public view returns (EvidencesManager.Evidence[] memory) {\r\n        return evidencesManager.getEvidenceHistory(_evidenceUniqueCode);\r\n    }\r\n\r\n    function getEvidence(string memory _evidenceUniqueCode) public view returns (EvidencesManager.Evidence memory) {\r\n        return evidencesManager.getLastUpdate(_evidenceUniqueCode);\r\n    }\r\n\r\n    // function addEvidence(string memory _evidenceUniqueCode,\r\n    //                     string memory _evidenceName,\r\n    //                     string memory _evidenceType) public \r\n    // {\r\n    //     // require(verifyEvidenceUniqueCode(_evidenceUniqueCode));\r\n    //     // int32 _ownerId = getParticipantId();\r\n    //     // require(_ownerId >= 0, \"Not Found Participant!\");\r\n    //     // require(keccak256(abi.encodePacked(participants[uint32(_ownerId)].participantType)) == keccak256(\"Police\"),\"Not Police.\");\r\n        \r\n    //     uint32 evidenceId = evidence_id++;\r\n\r\n    //     evidences.push(Evidence(_evidenceUniqueCode, _evidenceName, _evidenceType, msg.sender, uint32(block.timestamp)));\r\n        \r\n    //     // evidences[evidenceId].evidenceName = _evidenceName;\r\n    //     // evidences[evidenceId].evidenceType = _evidenceType;\r\n    //     // evidences[evidenceId].evidenceOwner = participants[_ownerId].participantAddress;\r\n    //     // evidences[evidenceId].mfgTimeStamp = uint32(block.timestamp);\r\n\r\n    //     //emit EvidenceAdded(evidenceId);\r\n    // }\r\n\r\n    // function verifyEvidenceUniqueCode(string memory _evidenceUniqueCode) internal view returns(bool) {\r\n    // for (uint32 i = 0; i < evidence_id; i++) {\r\n    //     if (keccak256(bytes(evidences[i].evidenceUniqueCode)) == keccak256(bytes(_evidenceUniqueCode))) {\r\n    //         return false;\r\n    //     }\r\n    // }\r\n    // return true;\r\n    // }\r\n\r\n\r\n    // modifier onlyOwner(uint32 _evidenceId) {\r\n    //      require(msg.sender == evidences[_evidenceId].evidenceOwner,\"\");\r\n    //      _;\r\n\r\n    // }\r\n\r\n    // function getEvidences() public view returns (Evidence[] memory){\r\n    //     return evidences;\r\n    // }\r\n\r\n    // function getEvidence(uint32 _evidenceId) public view returns (string memory,string memory,address,uint32){\r\n    //     return (evidences[_evidenceId].evidenceName,\r\n    //             evidences[_evidenceId].evidenceType,\r\n    //             evidences[_evidenceId].evidenceOwner,\r\n    //             evidences[_evidenceId].mfgTimeStamp);\r\n    // }\r\n\r\n\r\n    // function newOwner(uint32 _user1Id,uint32 _user2Id, uint32 _evidId) onlyOwner(_evidId) public returns (bool) {\r\n    //     Participant memory p1 = participants[_user1Id];\r\n    //     Participant memory p2 = participants[_user2Id];\r\n    //     uint32 ownership_id = owner_id++;\r\n\r\n    //     if(keccak256(abi.encodePacked(p1.participantType)) == keccak256(\"Police\")\r\n    //         && keccak256(abi.encodePacked(p2.participantType))==keccak256(\"Lab\")){\r\n    //         ownerships[ownership_id].evidenceId = _evidId;\r\n    //         ownerships[ownership_id].evidenceOwner = p2.participantAddress;\r\n    //         ownerships[ownership_id].ownerId = _user2Id;\r\n    //         ownerships[ownership_id].trxTimeStamp = uint32(block.timestamp);\r\n    //         evidences[_evidId].evidenceOwner = p2.participantAddress;\r\n    //         evidenceTrack[_evidId].push(ownership_id);\r\n    //         emit TransferOwnership(_evidId);\r\n\r\n    //         return (true);\r\n    //     }\r\n    //     else if(keccak256(abi.encodePacked(p1.participantType)) == keccak256(\"Lab\") \r\n    //         && keccak256(abi.encodePacked(p2.participantType))==keccak256(\"Lab\")){\r\n    //         ownerships[ownership_id].evidenceId = _evidId;\r\n    //         ownerships[ownership_id].evidenceOwner = p2.participantAddress;\r\n    //         ownerships[ownership_id].ownerId = _user2Id;\r\n    //         ownerships[ownership_id].trxTimeStamp = uint32(block.timestamp);\r\n    //         evidences[_evidId].evidenceOwner = p2.participantAddress;\r\n    //         evidenceTrack[_evidId].push(ownership_id);\r\n    //         emit TransferOwnership(_evidId);\r\n\r\n    //         return (true);\r\n    //     }\r\n    //     else if(keccak256(abi.encodePacked(p1.participantType)) == keccak256(\"Lab\") \r\n    //         && keccak256(abi.encodePacked(p2.participantType))==keccak256(\"Court\")){\r\n    //         ownerships[ownership_id].evidenceId = _evidId;\r\n    //         ownerships[ownership_id].evidenceOwner = p2.participantAddress;\r\n    //         ownerships[ownership_id].ownerId = _user2Id;\r\n    //         ownerships[ownership_id].trxTimeStamp = uint32(block.timestamp);\r\n    //         evidences[_evidId].evidenceOwner = p2.participantAddress;\r\n    //         evidenceTrack[_evidId].push(ownership_id);\r\n    //         emit TransferOwnership(_evidId);\r\n\r\n    //         return (true);\r\n    //     }\r\n\r\n    //     return (false);\r\n    // }\r\n\r\n    function getProvenance(uint32 _evidenceId) external view returns (uint32[] memory) {\r\n       return evidenceTrack[_evidenceId];\r\n    }\r\n\r\n    function getOwnership(uint32 _regId)  public view returns (uint32,uint32,address,uint32) {\r\n\r\n        ownership memory r = ownerships[_regId];\r\n\r\n         return (r.evidenceId ,r.ownerId ,r.evidenceOwner,r.trxTimeStamp);\r\n    }\r\n\r\n    // function authenticateParticipant(uint32 _uid,\r\n    //                                 string memory _uname,\r\n    //                                 string memory _pass,\r\n    //                                 string memory _utype) public view returns (bool){\r\n    //     if(keccak256(abi.encodePacked(participants[_uid].participantType)) == keccak256(abi.encodePacked(_utype))) {\r\n    //         if(keccak256(abi.encodePacked(participants[_uid].userName)) == keccak256(abi.encodePacked(_uname))) {\r\n    //             if(keccak256(abi.encodePacked(participants[_uid].password)) == keccak256(abi.encodePacked(_pass))) {\r\n    //                 return (true);\r\n    //             }\r\n    //         }\r\n    //     }\r\n\r\n    //     return (false);\r\n    // }\r\n}",
  "sourcePath": "C:\\IPCA DISSERTAO\\evidences_dapp\\contracts\\EvidenceChain.sol",
  "compiler": {
    "name": "solc",
    "version": "0.8.19+commit.7dd6d404.Emscripten.clang"
  },
  "schemaVersion": "3.4.13",
  "updatedAt": "2023-08-12T13:45:07.702Z",
  "devdoc": {
    "kind": "dev",
    "methods": {},
    "version": 1
  },
  "userdoc": {
    "kind": "user",
    "methods": {},
    "version": 1
  }
}