{
  "contractName": "EvidenceChain",
  "abi": [
    {
      "inputs": [
        {
          "internalType": "address",
          "name": "_entitiesManagerAddress",
          "type": "address"
        },
        {
          "internalType": "address",
          "name": "_evidencesManagerAddress",
          "type": "address"
        }
      ],
      "stateMutability": "nonpayable",
      "type": "constructor"
    },
    {
      "anonymous": false,
      "inputs": [
        {
          "indexed": true,
          "internalType": "uint32",
          "name": "evidenceId",
          "type": "uint32"
        }
      ],
      "name": "EvidenceAdded",
      "type": "event"
    },
    {
      "anonymous": false,
      "inputs": [
        {
          "indexed": true,
          "internalType": "uint32",
          "name": "userId",
          "type": "uint32"
        }
      ],
      "name": "ParticipantAdded",
      "type": "event"
    },
    {
      "anonymous": false,
      "inputs": [
        {
          "indexed": false,
          "internalType": "uint32",
          "name": "evidenceId",
          "type": "uint32"
        }
      ],
      "name": "TransferOwnership",
      "type": "event"
    },
    {
      "inputs": [],
      "name": "entitiesManager",
      "outputs": [
        {
          "internalType": "contract EntitiesManager",
          "name": "",
          "type": "address"
        }
      ],
      "stateMutability": "view",
      "type": "function",
      "constant": true
    },
    {
      "inputs": [
        {
          "internalType": "uint32",
          "name": "",
          "type": "uint32"
        },
        {
          "internalType": "uint256",
          "name": "",
          "type": "uint256"
        }
      ],
      "name": "evidenceTrack",
      "outputs": [
        {
          "internalType": "uint32",
          "name": "",
          "type": "uint32"
        }
      ],
      "stateMutability": "view",
      "type": "function",
      "constant": true
    },
    {
      "inputs": [],
      "name": "evidencesManager",
      "outputs": [
        {
          "internalType": "contract EvidencesManager",
          "name": "",
          "type": "address"
        }
      ],
      "stateMutability": "view",
      "type": "function",
      "constant": true
    },
    {
      "inputs": [],
      "name": "owner_id",
      "outputs": [
        {
          "internalType": "uint32",
          "name": "",
          "type": "uint32"
        }
      ],
      "stateMutability": "view",
      "type": "function",
      "constant": true
    },
    {
      "inputs": [
        {
          "internalType": "uint32",
          "name": "",
          "type": "uint32"
        }
      ],
      "name": "ownerships",
      "outputs": [
        {
          "internalType": "uint32",
          "name": "evidenceId",
          "type": "uint32"
        },
        {
          "internalType": "uint32",
          "name": "ownerId",
          "type": "uint32"
        },
        {
          "internalType": "uint32",
          "name": "trxTimeStamp",
          "type": "uint32"
        },
        {
          "internalType": "address",
          "name": "evidenceOwner",
          "type": "address"
        }
      ],
      "stateMutability": "view",
      "type": "function",
      "constant": true
    },
    {
      "inputs": [
        {
          "internalType": "address",
          "name": "_entity",
          "type": "address"
        },
        {
          "internalType": "string",
          "name": "_userName",
          "type": "string"
        },
        {
          "internalType": "string",
          "name": "_password",
          "type": "string"
        },
        {
          "internalType": "string",
          "name": "_name",
          "type": "string"
        },
        {
          "internalType": "string",
          "name": "_departmentCode",
          "type": "string"
        },
        {
          "internalType": "string",
          "name": "_entityType",
          "type": "string"
        }
      ],
      "name": "addEntity",
      "outputs": [],
      "stateMutability": "nonpayable",
      "type": "function"
    },
    {
      "inputs": [],
      "name": "getEntities",
      "outputs": [
        {
          "components": [
            {
              "internalType": "string",
              "name": "userName",
              "type": "string"
            },
            {
              "internalType": "string",
              "name": "password",
              "type": "string"
            },
            {
              "internalType": "string",
              "name": "name",
              "type": "string"
            },
            {
              "internalType": "string",
              "name": "departmentCode",
              "type": "string"
            },
            {
              "internalType": "string",
              "name": "entityType",
              "type": "string"
            },
            {
              "internalType": "address",
              "name": "entityAddress",
              "type": "address"
            },
            {
              "internalType": "uint32",
              "name": "timestamp",
              "type": "uint32"
            }
          ],
          "internalType": "struct EntitiesManager.Entity[]",
          "name": "",
          "type": "tuple[]"
        }
      ],
      "stateMutability": "view",
      "type": "function",
      "constant": true
    },
    {
      "inputs": [
        {
          "internalType": "address",
          "name": "_entity",
          "type": "address"
        }
      ],
      "name": "getEntityHistory",
      "outputs": [
        {
          "components": [
            {
              "internalType": "string",
              "name": "userName",
              "type": "string"
            },
            {
              "internalType": "string",
              "name": "password",
              "type": "string"
            },
            {
              "internalType": "string",
              "name": "name",
              "type": "string"
            },
            {
              "internalType": "string",
              "name": "departmentCode",
              "type": "string"
            },
            {
              "internalType": "string",
              "name": "entityType",
              "type": "string"
            },
            {
              "internalType": "address",
              "name": "entityAddress",
              "type": "address"
            },
            {
              "internalType": "uint32",
              "name": "timestamp",
              "type": "uint32"
            }
          ],
          "internalType": "struct EntitiesManager.Entity[]",
          "name": "",
          "type": "tuple[]"
        }
      ],
      "stateMutability": "view",
      "type": "function",
      "constant": true
    },
    {
      "inputs": [],
      "name": "getEntityHistory",
      "outputs": [
        {
          "components": [
            {
              "internalType": "string",
              "name": "userName",
              "type": "string"
            },
            {
              "internalType": "string",
              "name": "password",
              "type": "string"
            },
            {
              "internalType": "string",
              "name": "name",
              "type": "string"
            },
            {
              "internalType": "string",
              "name": "departmentCode",
              "type": "string"
            },
            {
              "internalType": "string",
              "name": "entityType",
              "type": "string"
            },
            {
              "internalType": "address",
              "name": "entityAddress",
              "type": "address"
            },
            {
              "internalType": "uint32",
              "name": "timestamp",
              "type": "uint32"
            }
          ],
          "internalType": "struct EntitiesManager.Entity[]",
          "name": "",
          "type": "tuple[]"
        }
      ],
      "stateMutability": "view",
      "type": "function",
      "constant": true
    },
    {
      "inputs": [
        {
          "internalType": "address",
          "name": "_entity",
          "type": "address"
        }
      ],
      "name": "getEntity",
      "outputs": [
        {
          "components": [
            {
              "internalType": "string",
              "name": "userName",
              "type": "string"
            },
            {
              "internalType": "string",
              "name": "password",
              "type": "string"
            },
            {
              "internalType": "string",
              "name": "name",
              "type": "string"
            },
            {
              "internalType": "string",
              "name": "departmentCode",
              "type": "string"
            },
            {
              "internalType": "string",
              "name": "entityType",
              "type": "string"
            },
            {
              "internalType": "address",
              "name": "entityAddress",
              "type": "address"
            },
            {
              "internalType": "uint32",
              "name": "timestamp",
              "type": "uint32"
            }
          ],
          "internalType": "struct EntitiesManager.Entity",
          "name": "",
          "type": "tuple"
        }
      ],
      "stateMutability": "view",
      "type": "function",
      "constant": true
    },
    {
      "inputs": [],
      "name": "getEntity",
      "outputs": [
        {
          "components": [
            {
              "internalType": "string",
              "name": "userName",
              "type": "string"
            },
            {
              "internalType": "string",
              "name": "password",
              "type": "string"
            },
            {
              "internalType": "string",
              "name": "name",
              "type": "string"
            },
            {
              "internalType": "string",
              "name": "departmentCode",
              "type": "string"
            },
            {
              "internalType": "string",
              "name": "entityType",
              "type": "string"
            },
            {
              "internalType": "address",
              "name": "entityAddress",
              "type": "address"
            },
            {
              "internalType": "uint32",
              "name": "timestamp",
              "type": "uint32"
            }
          ],
          "internalType": "struct EntitiesManager.Entity",
          "name": "",
          "type": "tuple"
        }
      ],
      "stateMutability": "view",
      "type": "function",
      "constant": true
    },
    {
      "inputs": [
        {
          "internalType": "string",
          "name": "_uname",
          "type": "string"
        },
        {
          "internalType": "string",
          "name": "_pass",
          "type": "string"
        }
      ],
      "name": "authenticateEntity",
      "outputs": [
        {
          "internalType": "bool",
          "name": "",
          "type": "bool"
        }
      ],
      "stateMutability": "view",
      "type": "function",
      "constant": true
    },
    {
      "inputs": [
        {
          "internalType": "string",
          "name": "_evidenceUniqueCode",
          "type": "string"
        },
        {
          "internalType": "string",
          "name": "_caseNo",
          "type": "string"
        },
        {
          "internalType": "string",
          "name": "_classification",
          "type": "string"
        },
        {
          "internalType": "string",
          "name": "_evidenceName",
          "type": "string"
        },
        {
          "internalType": "string",
          "name": "_evidenceType",
          "type": "string"
        },
        {
          "internalType": "string[]",
          "name": "_files",
          "type": "string[]"
        }
      ],
      "name": "addEvidence",
      "outputs": [],
      "stateMutability": "nonpayable",
      "type": "function"
    },
    {
      "inputs": [
        {
          "internalType": "string",
          "name": "_evidenceUniqueCode",
          "type": "string"
        },
        {
          "internalType": "string",
          "name": "_caseNo",
          "type": "string"
        },
        {
          "internalType": "string",
          "name": "_classification",
          "type": "string"
        },
        {
          "internalType": "string",
          "name": "_evidenceName",
          "type": "string"
        },
        {
          "internalType": "string",
          "name": "_evidenceType",
          "type": "string"
        }
      ],
      "name": "addEvidence",
      "outputs": [],
      "stateMutability": "nonpayable",
      "type": "function"
    },
    {
      "inputs": [],
      "name": "getEvidences",
      "outputs": [
        {
          "components": [
            {
              "internalType": "string",
              "name": "uniqueCode",
              "type": "string"
            },
            {
              "internalType": "string",
              "name": "caseNo",
              "type": "string"
            },
            {
              "internalType": "string",
              "name": "classification",
              "type": "string"
            },
            {
              "internalType": "string",
              "name": "name",
              "type": "string"
            },
            {
              "internalType": "string",
              "name": "eType",
              "type": "string"
            },
            {
              "components": [
                {
                  "internalType": "string",
                  "name": "userName",
                  "type": "string"
                },
                {
                  "internalType": "string",
                  "name": "password",
                  "type": "string"
                },
                {
                  "internalType": "string",
                  "name": "name",
                  "type": "string"
                },
                {
                  "internalType": "string",
                  "name": "departmentCode",
                  "type": "string"
                },
                {
                  "internalType": "string",
                  "name": "entityType",
                  "type": "string"
                },
                {
                  "internalType": "address",
                  "name": "entityAddress",
                  "type": "address"
                },
                {
                  "internalType": "uint32",
                  "name": "timestamp",
                  "type": "uint32"
                }
              ],
              "internalType": "struct EntitiesManager.Entity",
              "name": "owner",
              "type": "tuple"
            },
            {
              "internalType": "uint256",
              "name": "timestamp",
              "type": "uint256"
            },
            {
              "internalType": "string[]",
              "name": "uFiles",
              "type": "string[]"
            }
          ],
          "internalType": "struct EvidencesManager.Evidence[]",
          "name": "",
          "type": "tuple[]"
        }
      ],
      "stateMutability": "view",
      "type": "function",
      "constant": true
    },
    {
      "inputs": [
        {
          "internalType": "string",
          "name": "_evidenceUniqueCode",
          "type": "string"
        }
      ],
      "name": "getEvidenceHistory",
      "outputs": [
        {
          "components": [
            {
              "internalType": "string",
              "name": "uniqueCode",
              "type": "string"
            },
            {
              "internalType": "string",
              "name": "caseNo",
              "type": "string"
            },
            {
              "internalType": "string",
              "name": "classification",
              "type": "string"
            },
            {
              "internalType": "string",
              "name": "name",
              "type": "string"
            },
            {
              "internalType": "string",
              "name": "eType",
              "type": "string"
            },
            {
              "components": [
                {
                  "internalType": "string",
                  "name": "userName",
                  "type": "string"
                },
                {
                  "internalType": "string",
                  "name": "password",
                  "type": "string"
                },
                {
                  "internalType": "string",
                  "name": "name",
                  "type": "string"
                },
                {
                  "internalType": "string",
                  "name": "departmentCode",
                  "type": "string"
                },
                {
                  "internalType": "string",
                  "name": "entityType",
                  "type": "string"
                },
                {
                  "internalType": "address",
                  "name": "entityAddress",
                  "type": "address"
                },
                {
                  "internalType": "uint32",
                  "name": "timestamp",
                  "type": "uint32"
                }
              ],
              "internalType": "struct EntitiesManager.Entity",
              "name": "owner",
              "type": "tuple"
            },
            {
              "internalType": "uint256",
              "name": "timestamp",
              "type": "uint256"
            },
            {
              "internalType": "string[]",
              "name": "uFiles",
              "type": "string[]"
            }
          ],
          "internalType": "struct EvidencesManager.Evidence[]",
          "name": "",
          "type": "tuple[]"
        }
      ],
      "stateMutability": "view",
      "type": "function",
      "constant": true
    },
    {
      "inputs": [
        {
          "internalType": "string",
          "name": "_evidenceUniqueCode",
          "type": "string"
        }
      ],
      "name": "getEvidence",
      "outputs": [
        {
          "components": [
            {
              "internalType": "string",
              "name": "uniqueCode",
              "type": "string"
            },
            {
              "internalType": "string",
              "name": "caseNo",
              "type": "string"
            },
            {
              "internalType": "string",
              "name": "classification",
              "type": "string"
            },
            {
              "internalType": "string",
              "name": "name",
              "type": "string"
            },
            {
              "internalType": "string",
              "name": "eType",
              "type": "string"
            },
            {
              "components": [
                {
                  "internalType": "string",
                  "name": "userName",
                  "type": "string"
                },
                {
                  "internalType": "string",
                  "name": "password",
                  "type": "string"
                },
                {
                  "internalType": "string",
                  "name": "name",
                  "type": "string"
                },
                {
                  "internalType": "string",
                  "name": "departmentCode",
                  "type": "string"
                },
                {
                  "internalType": "string",
                  "name": "entityType",
                  "type": "string"
                },
                {
                  "internalType": "address",
                  "name": "entityAddress",
                  "type": "address"
                },
                {
                  "internalType": "uint32",
                  "name": "timestamp",
                  "type": "uint32"
                }
              ],
              "internalType": "struct EntitiesManager.Entity",
              "name": "owner",
              "type": "tuple"
            },
            {
              "internalType": "uint256",
              "name": "timestamp",
              "type": "uint256"
            },
            {
              "internalType": "string[]",
              "name": "uFiles",
              "type": "string[]"
            }
          ],
          "internalType": "struct EvidencesManager.Evidence",
          "name": "",
          "type": "tuple"
        }
      ],
      "stateMutability": "view",
      "type": "function",
      "constant": true
    },
    {
      "inputs": [
        {
          "internalType": "string",
          "name": "_evidenceUniqueCode",
          "type": "string"
        },
        {
          "internalType": "address",
          "name": "_newOwner",
          "type": "address"
        }
      ],
      "name": "evidenceNewOwner",
      "outputs": [],
      "stateMutability": "nonpayable",
      "type": "function"
    },
    {
      "inputs": [
        {
          "internalType": "string",
          "name": "_evidenceUniqueCode",
          "type": "string"
        },
        {
          "internalType": "string[]",
          "name": "_files",
          "type": "string[]"
        }
      ],
      "name": "addFiles",
      "outputs": [],
      "stateMutability": "nonpayable",
      "type": "function"
    },
    {
      "inputs": [
        {
          "internalType": "uint32",
          "name": "_evidenceId",
          "type": "uint32"
        }
      ],
      "name": "getProvenance",
      "outputs": [
        {
          "internalType": "uint32[]",
          "name": "",
          "type": "uint32[]"
        }
      ],
      "stateMutability": "view",
      "type": "function",
      "constant": true
    },
    {
      "inputs": [
        {
          "internalType": "uint32",
          "name": "_regId",
          "type": "uint32"
        }
      ],
      "name": "getOwnership",
      "outputs": [
        {
          "internalType": "uint32",
          "name": "",
          "type": "uint32"
        },
        {
          "internalType": "uint32",
          "name": "",
          "type": "uint32"
        },
        {
          "internalType": "address",
          "name": "",
          "type": "address"
        },
        {
          "internalType": "uint32",
          "name": "",
          "type": "uint32"
        }
      ],
      "stateMutability": "view",
      "type": "function",
      "constant": true
    }
  ],
  "bytecode": "0x60806040526000600160146101000a81548163ffffffff021916908363ffffffff1602179055503480156200003357600080fd5b5060405162003bdd38038062003bdd83398181016040528101906200005991906200014c565b816000806101000a81548173ffffffffffffffffffffffffffffffffffffffff021916908373ffffffffffffffffffffffffffffffffffffffff16021790555080600160006101000a81548173ffffffffffffffffffffffffffffffffffffffff021916908373ffffffffffffffffffffffffffffffffffffffff160217905550505062000193565b600080fd5b600073ffffffffffffffffffffffffffffffffffffffff82169050919050565b60006200011482620000e7565b9050919050565b620001268162000107565b81146200013257600080fd5b50565b60008151905062000146816200011b565b92915050565b60008060408385031215620001665762000165620000e2565b5b6000620001768582860162000135565b9250506020620001898582860162000135565b9150509250929050565b613a3a80620001a36000396000f3fe608060405234801561001057600080fd5b50600436106101375760003560e01c80638cb58fc1116100b8578063c85695651161007c578063c856956514610363578063c892522e14610393578063df6d23f1146103c3578063dff95aac146103f6578063e3271cf914610414578063ff200d2b1461043257610137565b80638cb58fc1146102bf5780638f5ebf71146102dd5780639dce4667146102fb578063b16c6ee714610317578063c6a22c411461034757610137565b80635760620b116100ff5780635760620b146101f2578063621c26051461022257806375894e8c1461023e57806381e156101461026e5780638b57d984146102a157610137565b80631252a0831461013c57806328320e1c1461015857806331b933b91461018857806331eb897f146101a657806333a4721f146101d6575b600080fd5b61015660048036038101906101519190611bdc565b610450565b005b610172600480360381019061016d9190611cf5565b6104ed565b60405161017f9190611f49565b60405180910390f35b610190610595565b60405161019d9190611f49565b60405180910390f35b6101c060048036038101906101bb9190611f6b565b6107de565b6040516101cd9190611ffe565b60405180910390f35b6101f060048036038101906101eb91906120ff565b610947565b005b61020c600480360381019061020791906121d9565b610af8565b6040516102199190612228565b60405180910390f35b61023c60048036038101906102379190612243565b610b41565b005b61025860048036038101906102539190611cf5565b610d12565b6040516102659190612430565b60405180910390f35b61028860048036038101906102839190612452565b610dc0565b604051610298949392919061248e565b60405180910390f35b6102a9610e40565b6040516102b69190611f49565b60405180910390f35b6102c7610ee6565b6040516102d49190612532565b60405180910390f35b6102e5610f0c565b6040516102f29190612228565b60405180910390f35b6103156004803603810190610310919061254d565b610f22565b005b610331600480360381019061032c9190612654565b6110f1565b60405161033e9190612848565b60405180910390f35b610361600480360381019061035c919061286a565b6111a1565b005b61037d60048036038101906103789190612452565b6113f7565b60405161038a9190612975565b60405180910390f35b6103ad60048036038101906103a89190612654565b61149a565b6040516103ba9190612b33565b60405180910390f35b6103dd60048036038101906103d89190612452565b611544565b6040516103ed9493929190612b55565b60405180910390f35b6103fe611664565b60405161040b9190612b33565b60405180910390f35b61041c6118b0565b6040516104299190612bbb565b60405180910390f35b61043a6118d4565b6040516104479190612430565b60405180910390f35b60008054906101000a900473ffffffffffffffffffffffffffffffffffffffff1673ffffffffffffffffffffffffffffffffffffffff16631252a0838787878787876040518763ffffffff1660e01b81526004016104b396959493929190612c20565b600060405180830381600087803b1580156104cd57600080fd5b505af11580156104e1573d6000803e3d6000fd5b50505050505050505050565b606060008054906101000a900473ffffffffffffffffffffffffffffffffffffffff1673ffffffffffffffffffffffffffffffffffffffff166328320e1c836040518263ffffffff1660e01b81526004016105489190612ca4565b600060405180830381865afa158015610565573d6000803e3d6000fd5b505050506040513d6000823e3d601f19601f8201168201806040525081019061058e9190612f84565b9050919050565b606060008060009054906101000a900473ffffffffffffffffffffffffffffffffffffffff1673ffffffffffffffffffffffffffffffffffffffff166331b933b96040518163ffffffff1660e01b8152600401600060405180830381865afa158015610605573d6000803e3d6000fd5b505050506040513d6000823e3d601f19601f8201168201806040525081019061062e9190613090565b90506000815111610674576040517f08c379a000000000000000000000000000000000000000000000000000000000815260040161066b90613125565b60405180910390fd5b6000815167ffffffffffffffff81111561069157610690611ab1565b5b6040519080825280602002602001820160405280156106ca57816020015b6106b7611980565b8152602001906001900390816106af5790505b50905060005b82518163ffffffff1610156107d55760008054906101000a900473ffffffffffffffffffffffffffffffffffffffff1673ffffffffffffffffffffffffffffffffffffffff16635a7e1989848363ffffffff168151811061073457610733613145565b5b60200260200101516040518263ffffffff1660e01b81526004016107589190612ca4565b600060405180830381865afa158015610775573d6000803e3d6000fd5b505050506040513d6000823e3d601f19601f8201168201806040525081019061079e9190613174565b828263ffffffff16815181106107b7576107b6613145565b5b602002602001018190525080806107cd906131ec565b9150506106d0565b50809250505090565b60008060008054906101000a900473ffffffffffffffffffffffffffffffffffffffff1673ffffffffffffffffffffffffffffffffffffffff16635a7e1989336040518263ffffffff1660e01b815260040161083a9190612ca4565b600060405180830381865afa158015610857573d6000803e3d6000fd5b505050506040513d6000823e3d601f19601f820116820180604052508101906108809190613174565b9050836040516020016108939190613254565b6040516020818303038152906040528051906020012081600001516040516020016108be9190613254565b604051602081830303815290604052805190602001200361093b57826040516020016108ea9190613254565b6040516020818303038152906040528051906020012081602001516040516020016109159190613254565b604051602081830303815290604052805190602001200361093a576001915050610941565b5b60009150505b92915050565b816000600160009054906101000a900473ffffffffffffffffffffffffffffffffffffffff1673ffffffffffffffffffffffffffffffffffffffff16633eeb568b836040518263ffffffff1660e01b81526004016109a5919061326b565b600060405180830381865afa1580156109c2573d6000803e3d6000fd5b505050506040513d6000823e3d601f19601f820116820180604052508101906109eb91906134e5565b90508060a0015160a0015173ffffffffffffffffffffffffffffffffffffffff163373ffffffffffffffffffffffffffffffffffffffff1614610a63576040517f08c379a0000000000000000000000000000000000000000000000000000000008152600401610a5a9061357a565b60405180910390fd5b600160009054906101000a900473ffffffffffffffffffffffffffffffffffffffff1673ffffffffffffffffffffffffffffffffffffffff166333a4721f85856040518363ffffffff1660e01b8152600401610ac0929190613620565b600060405180830381600087803b158015610ada57600080fd5b505af1158015610aee573d6000803e3d6000fd5b5050505050505050565b60036020528160005260406000208181548110610b1457600080fd5b9060005260206000209060089182820401919006600402915091509054906101000a900463ffffffff1681565b60008060009054906101000a900473ffffffffffffffffffffffffffffffffffffffff1673ffffffffffffffffffffffffffffffffffffffff16635a7e1989336040518263ffffffff1660e01b8152600401610b9d9190612ca4565b600060405180830381865afa158015610bba573d6000803e3d6000fd5b505050506040513d6000823e3d601f19601f82011682018060405250810190610be39190613174565b90507fe419ba2484d9efb5ea120ea8d8b86dc666551db29ed65e4d8c975262e7a9c3658160800151604051602001610c1b9190613254565b6040516020818303038152906040528051906020012014610c71576040517f08c379a0000000000000000000000000000000000000000000000000000000008152600401610c68906136a3565b60405180910390fd5b600160009054906101000a900473ffffffffffffffffffffffffffffffffffffffff1673ffffffffffffffffffffffffffffffffffffffff1662ffd922888888888887896040518863ffffffff1660e01b8152600401610cd797969594939291906136c3565b600060405180830381600087803b158015610cf157600080fd5b505af1158015610d05573d6000803e3d6000fd5b5050505050505050505050565b610d1a611980565b60008054906101000a900473ffffffffffffffffffffffffffffffffffffffff1673ffffffffffffffffffffffffffffffffffffffff16635a7e1989836040518263ffffffff1660e01b8152600401610d739190612ca4565b600060405180830381865afa158015610d90573d6000803e3d6000fd5b505050506040513d6000823e3d601f19601f82011682018060405250810190610db99190613174565b9050919050565b60026020528060005260406000206000915090508060000160009054906101000a900463ffffffff16908060000160049054906101000a900463ffffffff16908060000160089054906101000a900463ffffffff169080600001600c9054906101000a900473ffffffffffffffffffffffffffffffffffffffff16905084565b606060008054906101000a900473ffffffffffffffffffffffffffffffffffffffff1673ffffffffffffffffffffffffffffffffffffffff166328320e1c336040518263ffffffff1660e01b8152600401610e9b9190612ca4565b600060405180830381865afa158015610eb8573d6000803e3d6000fd5b505050506040513d6000823e3d601f19601f82011682018060405250810190610ee19190612f84565b905090565b600160009054906101000a900473ffffffffffffffffffffffffffffffffffffffff1681565b600160149054906101000a900463ffffffff1681565b60008060009054906101000a900473ffffffffffffffffffffffffffffffffffffffff1673ffffffffffffffffffffffffffffffffffffffff16635a7e1989336040518263ffffffff1660e01b8152600401610f7e9190612ca4565b600060405180830381865afa158015610f9b573d6000803e3d6000fd5b505050506040513d6000823e3d601f19601f82011682018060405250810190610fc49190613174565b90507fe419ba2484d9efb5ea120ea8d8b86dc666551db29ed65e4d8c975262e7a9c3658160800151604051602001610ffc9190613254565b6040516020818303038152906040528051906020012014611052576040517f08c379a0000000000000000000000000000000000000000000000000000000008152600401611049906136a3565b60405180910390fd5b600160009054906101000a900473ffffffffffffffffffffffffffffffffffffffff1673ffffffffffffffffffffffffffffffffffffffff1663acf51e058787878787876040518763ffffffff1660e01b81526004016110b796959493929190613763565b600060405180830381600087803b1580156110d157600080fd5b505af11580156110e5573d6000803e3d6000fd5b50505050505050505050565b6110f96119d9565b600160009054906101000a900473ffffffffffffffffffffffffffffffffffffffff1673ffffffffffffffffffffffffffffffffffffffff16633eeb568b836040518263ffffffff1660e01b8152600401611154919061326b565b600060405180830381865afa158015611171573d6000803e3d6000fd5b505050506040513d6000823e3d601f19601f8201168201806040525081019061119a91906134e5565b9050919050565b816000600160009054906101000a900473ffffffffffffffffffffffffffffffffffffffff1673ffffffffffffffffffffffffffffffffffffffff16633eeb568b836040518263ffffffff1660e01b81526004016111ff919061326b565b600060405180830381865afa15801561121c573d6000803e3d6000fd5b505050506040513d6000823e3d601f19601f8201168201806040525081019061124591906134e5565b90508060a0015160a0015173ffffffffffffffffffffffffffffffffffffffff163373ffffffffffffffffffffffffffffffffffffffff16146112bd576040517f08c379a00000000000000000000000000000000000000000000000000000000081526004016112b49061357a565b60405180910390fd5b60008060009054906101000a900473ffffffffffffffffffffffffffffffffffffffff1673ffffffffffffffffffffffffffffffffffffffff16635a7e1989856040518263ffffffff1660e01b81526004016113199190612ca4565b600060405180830381865afa158015611336573d6000803e3d6000fd5b505050506040513d6000823e3d601f19601f8201168201806040525081019061135f9190613174565b9050600160009054906101000a900473ffffffffffffffffffffffffffffffffffffffff1673ffffffffffffffffffffffffffffffffffffffff16633c39a36386836040518363ffffffff1660e01b81526004016113be9291906137ee565b600060405180830381600087803b1580156113d857600080fd5b505af11580156113ec573d6000803e3d6000fd5b505050505050505050565b6060600360008363ffffffff1663ffffffff16815260200190815260200160002080548060200260200160405190810160405280929190818152602001828054801561148e57602002820191906000526020600020906000905b82829054906101000a900463ffffffff1663ffffffff16815260200190600401906020826003010492830192600103820291508084116114515790505b50505050509050919050565b6060600160009054906101000a900473ffffffffffffffffffffffffffffffffffffffff1673ffffffffffffffffffffffffffffffffffffffff1663c892522e836040518263ffffffff1660e01b81526004016114f7919061326b565b600060405180830381865afa158015611514573d6000803e3d6000fd5b505050506040513d6000823e3d601f19601f8201168201806040525081019061153d9190613906565b9050919050565b6000806000806000600260008763ffffffff1663ffffffff1681526020019081526020016000206040518060800160405290816000820160009054906101000a900463ffffffff1663ffffffff1663ffffffff1681526020016000820160049054906101000a900463ffffffff1663ffffffff1663ffffffff1681526020016000820160089054906101000a900463ffffffff1663ffffffff1663ffffffff16815260200160008201600c9054906101000a900473ffffffffffffffffffffffffffffffffffffffff1673ffffffffffffffffffffffffffffffffffffffff1673ffffffffffffffffffffffffffffffffffffffff1681525050905080600001518160200151826060015183604001519450945094509450509193509193565b60606000600160009054906101000a900473ffffffffffffffffffffffffffffffffffffffff1673ffffffffffffffffffffffffffffffffffffffff1663dff95aac6040518163ffffffff1660e01b8152600401600060405180830381865afa1580156116d5573d6000803e3d6000fd5b505050506040513d6000823e3d601f19601f820116820180604052508101906116fe919061394f565b90506000815111611744576040517f08c379a000000000000000000000000000000000000000000000000000000000815260040161173b906139e4565b60405180910390fd5b6000815167ffffffffffffffff81111561176157611760611ab1565b5b60405190808252806020026020018201604052801561179a57816020015b6117876119d9565b81526020019060019003908161177f5790505b50905060005b82518163ffffffff1610156118a757600160009054906101000a900473ffffffffffffffffffffffffffffffffffffffff1673ffffffffffffffffffffffffffffffffffffffff16633eeb568b848363ffffffff168151811061180657611805613145565b5b60200260200101516040518263ffffffff1660e01b815260040161182a919061326b565b600060405180830381865afa158015611847573d6000803e3d6000fd5b505050506040513d6000823e3d601f19601f8201168201806040525081019061187091906134e5565b828263ffffffff168151811061188957611888613145565b5b6020026020010181905250808061189f906131ec565b9150506117a0565b50809250505090565b60008054906101000a900473ffffffffffffffffffffffffffffffffffffffff1681565b6118dc611980565b60008054906101000a900473ffffffffffffffffffffffffffffffffffffffff1673ffffffffffffffffffffffffffffffffffffffff16635a7e1989336040518263ffffffff1660e01b81526004016119359190612ca4565b600060405180830381865afa158015611952573d6000803e3d6000fd5b505050506040513d6000823e3d601f19601f8201168201806040525081019061197b9190613174565b905090565b6040518060e001604052806060815260200160608152602001606081526020016060815260200160608152602001600073ffffffffffffffffffffffffffffffffffffffff168152602001600063ffffffff1681525090565b6040518061010001604052806060815260200160608152602001606081526020016060815260200160608152602001611a10611980565b815260200160008152602001606081525090565b6000604051905090565b600080fd5b600080fd5b600073ffffffffffffffffffffffffffffffffffffffff82169050919050565b6000611a6382611a38565b9050919050565b611a7381611a58565b8114611a7e57600080fd5b50565b600081359050611a9081611a6a565b92915050565b600080fd5b600080fd5b6000601f19601f8301169050919050565b7f4e487b7100000000000000000000000000000000000000000000000000000000600052604160045260246000fd5b611ae982611aa0565b810181811067ffffffffffffffff82111715611b0857611b07611ab1565b5b80604052505050565b6000611b1b611a24565b9050611b278282611ae0565b919050565b600067ffffffffffffffff821115611b4757611b46611ab1565b5b611b5082611aa0565b9050602081019050919050565b82818337600083830152505050565b6000611b7f611b7a84611b2c565b611b11565b905082815260208101848484011115611b9b57611b9a611a9b565b5b611ba6848285611b5d565b509392505050565b600082601f830112611bc357611bc2611a96565b5b8135611bd3848260208601611b6c565b91505092915050565b60008060008060008060c08789031215611bf957611bf8611a2e565b5b6000611c0789828a01611a81565b965050602087013567ffffffffffffffff811115611c2857611c27611a33565b5b611c3489828a01611bae565b955050604087013567ffffffffffffffff811115611c5557611c54611a33565b5b611c6189828a01611bae565b945050606087013567ffffffffffffffff811115611c8257611c81611a33565b5b611c8e89828a01611bae565b935050608087013567ffffffffffffffff811115611caf57611cae611a33565b5b611cbb89828a01611bae565b92505060a087013567ffffffffffffffff811115611cdc57611cdb611a33565b5b611ce889828a01611bae565b9150509295509295509295565b600060208284031215611d0b57611d0a611a2e565b5b6000611d1984828501611a81565b91505092915050565b600081519050919050565b600082825260208201905092915050565b6000819050602082019050919050565b600081519050919050565b600082825260208201905092915050565b60005b83811015611d88578082015181840152602081019050611d6d565b60008484015250505050565b6000611d9f82611d4e565b611da98185611d59565b9350611db9818560208601611d6a565b611dc281611aa0565b840191505092915050565b611dd681611a58565b82525050565b600063ffffffff82169050919050565b611df581611ddc565b82525050565b600060e0830160008301518482036000860152611e188282611d94565b91505060208301518482036020860152611e328282611d94565b91505060408301518482036040860152611e4c8282611d94565b91505060608301518482036060860152611e668282611d94565b91505060808301518482036080860152611e808282611d94565b91505060a0830151611e9560a0860182611dcd565b5060c0830151611ea860c0860182611dec565b508091505092915050565b6000611ebf8383611dfb565b905092915050565b6000602082019050919050565b6000611edf82611d22565b611ee98185611d2d565b935083602082028501611efb85611d3e565b8060005b85811015611f375784840389528151611f188582611eb3565b9450611f2383611ec7565b925060208a01995050600181019050611eff565b50829750879550505050505092915050565b60006020820190508181036000830152611f638184611ed4565b905092915050565b60008060408385031215611f8257611f81611a2e565b5b600083013567ffffffffffffffff811115611fa057611f9f611a33565b5b611fac85828601611bae565b925050602083013567ffffffffffffffff811115611fcd57611fcc611a33565b5b611fd985828601611bae565b9150509250929050565b60008115159050919050565b611ff881611fe3565b82525050565b60006020820190506120136000830184611fef565b92915050565b600067ffffffffffffffff82111561203457612033611ab1565b5b602082029050602081019050919050565b600080fd5b600061205d61205884612019565b611b11565b905080838252602082019050602084028301858111156120805761207f612045565b5b835b818110156120c757803567ffffffffffffffff8111156120a5576120a4611a96565b5b8086016120b28982611bae565b85526020850194505050602081019050612082565b5050509392505050565b600082601f8301126120e6576120e5611a96565b5b81356120f684826020860161204a565b91505092915050565b6000806040838503121561211657612115611a2e565b5b600083013567ffffffffffffffff81111561213457612133611a33565b5b61214085828601611bae565b925050602083013567ffffffffffffffff81111561216157612160611a33565b5b61216d858286016120d1565b9150509250929050565b61218081611ddc565b811461218b57600080fd5b50565b60008135905061219d81612177565b92915050565b6000819050919050565b6121b6816121a3565b81146121c157600080fd5b50565b6000813590506121d3816121ad565b92915050565b600080604083850312156121f0576121ef611a2e565b5b60006121fe8582860161218e565b925050602061220f858286016121c4565b9150509250929050565b61222281611ddc565b82525050565b600060208201905061223d6000830184612219565b92915050565b60008060008060008060c087890312156122605761225f611a2e565b5b600087013567ffffffffffffffff81111561227e5761227d611a33565b5b61228a89828a01611bae565b965050602087013567ffffffffffffffff8111156122ab576122aa611a33565b5b6122b789828a01611bae565b955050604087013567ffffffffffffffff8111156122d8576122d7611a33565b5b6122e489828a01611bae565b945050606087013567ffffffffffffffff81111561230557612304611a33565b5b61231189828a01611bae565b935050608087013567ffffffffffffffff81111561233257612331611a33565b5b61233e89828a01611bae565b92505060a087013567ffffffffffffffff81111561235f5761235e611a33565b5b61236b89828a016120d1565b9150509295509295509295565b600060e08301600083015184820360008601526123958282611d94565b915050602083015184820360208601526123af8282611d94565b915050604083015184820360408601526123c98282611d94565b915050606083015184820360608601526123e38282611d94565b915050608083015184820360808601526123fd8282611d94565b91505060a083015161241260a0860182611dcd565b5060c083015161242560c0860182611dec565b508091505092915050565b6000602082019050818103600083015261244a8184612378565b905092915050565b60006020828403121561246857612467611a2e565b5b60006124768482850161218e565b91505092915050565b61248881611a58565b82525050565b60006080820190506124a36000830187612219565b6124b06020830186612219565b6124bd6040830185612219565b6124ca606083018461247f565b95945050505050565b6000819050919050565b60006124f86124f36124ee84611a38565b6124d3565b611a38565b9050919050565b600061250a826124dd565b9050919050565b600061251c826124ff565b9050919050565b61252c81612511565b82525050565b60006020820190506125476000830184612523565b92915050565b600080600080600060a0868803121561256957612568611a2e565b5b600086013567ffffffffffffffff81111561258757612586611a33565b5b61259388828901611bae565b955050602086013567ffffffffffffffff8111156125b4576125b3611a33565b5b6125c088828901611bae565b945050604086013567ffffffffffffffff8111156125e1576125e0611a33565b5b6125ed88828901611bae565b935050606086013567ffffffffffffffff81111561260e5761260d611a33565b5b61261a88828901611bae565b925050608086013567ffffffffffffffff81111561263b5761263a611a33565b5b61264788828901611bae565b9150509295509295909350565b60006020828403121561266a57612669611a2e565b5b600082013567ffffffffffffffff81111561268857612687611a33565b5b61269484828501611bae565b91505092915050565b6126a6816121a3565b82525050565b600081519050919050565b600082825260208201905092915050565b6000819050602082019050919050565b60006126e48383611d94565b905092915050565b6000602082019050919050565b6000612704826126ac565b61270e81856126b7565b935083602082028501612720856126c8565b8060005b8581101561275c578484038952815161273d85826126d8565b9450612748836126ec565b925060208a01995050600181019050612724565b50829750879550505050505092915050565b600061010083016000830151848203600086015261278c8282611d94565b915050602083015184820360208601526127a68282611d94565b915050604083015184820360408601526127c08282611d94565b915050606083015184820360608601526127da8282611d94565b915050608083015184820360808601526127f48282611d94565b91505060a083015184820360a086015261280e8282611dfb565b91505060c083015161282360c086018261269d565b5060e083015184820360e086015261283b82826126f9565b9150508091505092915050565b60006020820190508181036000830152612862818461276e565b905092915050565b6000806040838503121561288157612880611a2e565b5b600083013567ffffffffffffffff81111561289f5761289e611a33565b5b6128ab85828601611bae565b92505060206128bc85828601611a81565b9150509250929050565b600081519050919050565b600082825260208201905092915050565b6000819050602082019050919050565b60006128fe8383611dec565b60208301905092915050565b6000602082019050919050565b6000612922826128c6565b61292c81856128d1565b9350612937836128e2565b8060005b8381101561296857815161294f88826128f2565b975061295a8361290a565b92505060018101905061293b565b5085935050505092915050565b6000602082019050818103600083015261298f8184612917565b905092915050565b600081519050919050565b600082825260208201905092915050565b6000819050602082019050919050565b60006101008301600083015184820360008601526129e18282611d94565b915050602083015184820360208601526129fb8282611d94565b91505060408301518482036040860152612a158282611d94565b91505060608301518482036060860152612a2f8282611d94565b91505060808301518482036080860152612a498282611d94565b91505060a083015184820360a0860152612a638282611dfb565b91505060c0830151612a7860c086018261269d565b5060e083015184820360e0860152612a9082826126f9565b9150508091505092915050565b6000612aa983836129c3565b905092915050565b6000602082019050919050565b6000612ac982612997565b612ad381856129a2565b935083602082028501612ae5856129b3565b8060005b85811015612b215784840389528151612b028582612a9d565b9450612b0d83612ab1565b925060208a01995050600181019050612ae9565b50829750879550505050505092915050565b60006020820190508181036000830152612b4d8184612abe565b905092915050565b6000608082019050612b6a6000830187612219565b612b776020830186612219565b612b84604083018561247f565b612b916060830184612219565b95945050505050565b6000612ba5826124ff565b9050919050565b612bb581612b9a565b82525050565b6000602082019050612bd06000830184612bac565b92915050565b600082825260208201905092915050565b6000612bf282611d4e565b612bfc8185612bd6565b9350612c0c818560208601611d6a565b612c1581611aa0565b840191505092915050565b600060c082019050612c35600083018961247f565b8181036020830152612c478188612be7565b90508181036040830152612c5b8187612be7565b90508181036060830152612c6f8186612be7565b90508181036080830152612c838185612be7565b905081810360a0830152612c978184612be7565b9050979650505050505050565b6000602082019050612cb9600083018461247f565b92915050565b600067ffffffffffffffff821115612cda57612cd9611ab1565b5b602082029050602081019050919050565b600080fd5b600080fd5b6000612d08612d0384611b2c565b611b11565b905082815260208101848484011115612d2457612d23611a9b565b5b612d2f848285611d6a565b509392505050565b600082601f830112612d4c57612d4b611a96565b5b8151612d5c848260208601612cf5565b91505092915050565b600081519050612d7481611a6a565b92915050565b600081519050612d8981612177565b92915050565b600060e08284031215612da557612da4612ceb565b5b612daf60e0611b11565b9050600082015167ffffffffffffffff811115612dcf57612dce612cf0565b5b612ddb84828501612d37565b600083015250602082015167ffffffffffffffff811115612dff57612dfe612cf0565b5b612e0b84828501612d37565b602083015250604082015167ffffffffffffffff811115612e2f57612e2e612cf0565b5b612e3b84828501612d37565b604083015250606082015167ffffffffffffffff811115612e5f57612e5e612cf0565b5b612e6b84828501612d37565b606083015250608082015167ffffffffffffffff811115612e8f57612e8e612cf0565b5b612e9b84828501612d37565b60808301525060a0612eaf84828501612d65565b60a08301525060c0612ec384828501612d7a565b60c08301525092915050565b6000612ee2612edd84612cbf565b611b11565b90508083825260208201905060208402830185811115612f0557612f04612045565b5b835b81811015612f4c57805167ffffffffffffffff811115612f2a57612f29611a96565b5b808601612f378982612d8f565b85526020850194505050602081019050612f07565b5050509392505050565b600082601f830112612f6b57612f6a611a96565b5b8151612f7b848260208601612ecf565b91505092915050565b600060208284031215612f9a57612f99611a2e565b5b600082015167ffffffffffffffff811115612fb857612fb7611a33565b5b612fc484828501612f56565b91505092915050565b600067ffffffffffffffff821115612fe857612fe7611ab1565b5b602082029050602081019050919050565b600061300c61300784612fcd565b611b11565b9050808382526020820190506020840283018581111561302f5761302e612045565b5b835b8181101561305857806130448882612d65565b845260208401935050602081019050613031565b5050509392505050565b600082601f83011261307757613076611a96565b5b8151613087848260208601612ff9565b91505092915050565b6000602082840312156130a6576130a5611a2e565b5b600082015167ffffffffffffffff8111156130c4576130c3611a33565b5b6130d084828501613062565b91505092915050565b7f4e6f20456e746974696573000000000000000000000000000000000000000000600082015250565b600061310f600b83612bd6565b915061311a826130d9565b602082019050919050565b6000602082019050818103600083015261313e81613102565b9050919050565b7f4e487b7100000000000000000000000000000000000000000000000000000000600052603260045260246000fd5b60006020828403121561318a57613189611a2e565b5b600082015167ffffffffffffffff8111156131a8576131a7611a33565b5b6131b484828501612d8f565b91505092915050565b7f4e487b7100000000000000000000000000000000000000000000000000000000600052601160045260246000fd5b60006131f782611ddc565b915063ffffffff820361320d5761320c6131bd565b5b600182019050919050565b600081905092915050565b600061322e82611d4e565b6132388185613218565b9350613248818560208601611d6a565b80840191505092915050565b60006132608284613223565b915081905092915050565b600060208201905081810360008301526132858184612be7565b905092915050565b60008151905061329c816121ad565b92915050565b60006132b56132b084612019565b611b11565b905080838252602082019050602084028301858111156132d8576132d7612045565b5b835b8181101561331f57805167ffffffffffffffff8111156132fd576132fc611a96565b5b80860161330a8982612d37565b855260208501945050506020810190506132da565b5050509392505050565b600082601f83011261333e5761333d611a96565b5b815161334e8482602086016132a2565b91505092915050565b6000610100828403121561336e5761336d612ceb565b5b613379610100611b11565b9050600082015167ffffffffffffffff81111561339957613398612cf0565b5b6133a584828501612d37565b600083015250602082015167ffffffffffffffff8111156133c9576133c8612cf0565b5b6133d584828501612d37565b602083015250604082015167ffffffffffffffff8111156133f9576133f8612cf0565b5b61340584828501612d37565b604083015250606082015167ffffffffffffffff81111561342957613428612cf0565b5b61343584828501612d37565b606083015250608082015167ffffffffffffffff81111561345957613458612cf0565b5b61346584828501612d37565b60808301525060a082015167ffffffffffffffff81111561348957613488612cf0565b5b61349584828501612d8f565b60a08301525060c06134a98482850161328d565b60c08301525060e082015167ffffffffffffffff8111156134cd576134cc612cf0565b5b6134d984828501613329565b60e08301525092915050565b6000602082840312156134fb576134fa611a2e565b5b600082015167ffffffffffffffff81111561351957613518611a33565b5b61352584828501613357565b91505092915050565b7f4e6f74204f776e65720000000000000000000000000000000000000000000000600082015250565b6000613564600983612bd6565b915061356f8261352e565b602082019050919050565b6000602082019050818103600083015261359381613557565b9050919050565b600082825260208201905092915050565b60006135b6826126ac565b6135c0818561359a565b9350836020820285016135d2856126c8565b8060005b8581101561360e57848403895281516135ef85826126d8565b94506135fa836126ec565b925060208a019950506001810190506135d6565b50829750879550505050505092915050565b6000604082019050818103600083015261363a8185612be7565b9050818103602083015261364e81846135ab565b90509392505050565b7f4e6f7420506f6c6963652e000000000000000000000000000000000000000000600082015250565b600061368d600b83612bd6565b915061369882613657565b602082019050919050565b600060208201905081810360008301526136bc81613680565b9050919050565b600060e08201905081810360008301526136dd818a612be7565b905081810360208301526136f18189612be7565b905081810360408301526137058188612be7565b905081810360608301526137198187612be7565b9050818103608083015261372d8186612be7565b905081810360a08301526137418185612378565b905081810360c083015261375581846135ab565b905098975050505050505050565b600060c082019050818103600083015261377d8189612be7565b905081810360208301526137918188612be7565b905081810360408301526137a58187612be7565b905081810360608301526137b98186612be7565b905081810360808301526137cd8185612be7565b905081810360a08301526137e18184612378565b9050979650505050505050565b600060408201905081810360008301526138088185612be7565b9050818103602083015261381c8184612378565b90509392505050565b600067ffffffffffffffff8211156138405761383f611ab1565b5b602082029050602081019050919050565b600061386461385f84613825565b611b11565b9050808382526020820190506020840283018581111561388757613886612045565b5b835b818110156138ce57805167ffffffffffffffff8111156138ac576138ab611a96565b5b8086016138b98982613357565b85526020850194505050602081019050613889565b5050509392505050565b600082601f8301126138ed576138ec611a96565b5b81516138fd848260208601613851565b91505092915050565b60006020828403121561391c5761391b611a2e565b5b600082015167ffffffffffffffff81111561393a57613939611a33565b5b613946848285016138d8565b91505092915050565b60006020828403121561396557613964611a2e565b5b600082015167ffffffffffffffff81111561398357613982611a33565b5b61398f84828501613329565b91505092915050565b7f4e6f2045766964656e6365730000000000000000000000000000000000000000600082015250565b60006139ce600c83612bd6565b91506139d982613998565b602082019050919050565b600060208201905081810360008301526139fd816139c1565b905091905056fea26469706673582212205c8ac862d3b17394b25cd89b7d33682499eddbd46a68e78b68c2c32c798472d764736f6c63430008130033",
  "immutableReferences": {},
  "source": "pragma solidity >=0.8.0;\r\n\r\nimport \"./EntitiesManager.sol\";\r\nimport \"./EvidencesManager.sol\";\r\n\r\ncontract EvidenceChain {\r\n    EntitiesManager public entitiesManager;\r\n    EvidencesManager public evidencesManager;\r\n\r\n    constructor(\r\n        address _entitiesManagerAddress,\r\n        address _evidencesManagerAddress\r\n    ) {\r\n        entitiesManager = EntitiesManager(_entitiesManagerAddress);\r\n        evidencesManager = EvidencesManager(_evidencesManagerAddress);\r\n    }\r\n\r\n    // uint32 public evidence_id = 0;\r\n    uint32 public owner_id = 0;\r\n\r\n    // struct Evidence {\r\n    //     string evidenceUniqueCode;\r\n    //     string evidenceName;\r\n    //     string evidenceType;\r\n    //     address evidenceOwner;\r\n    //     uint32 mfgTimeStamp;\r\n    // }\r\n\r\n    // Evidence [] public evidences;\r\n\r\n    struct ownership {\r\n        uint32 evidenceId;\r\n        uint32 ownerId;\r\n        uint32 trxTimeStamp;\r\n        address evidenceOwner;\r\n    }\r\n\r\n    mapping(uint32 => ownership) public ownerships;\r\n    mapping(uint32 => uint32[]) public evidenceTrack;\r\n\r\n    event TransferOwnership(uint32 evidenceId);\r\n    event ParticipantAdded(uint32 indexed userId);\r\n    event EvidenceAdded(uint32 indexed evidenceId);\r\n\r\n    function addEntity(\r\n        address _entity,\r\n        string memory _userName,\r\n        string memory _password,\r\n        string memory _name,\r\n        string memory _departmentCode,\r\n        string memory _entityType\r\n    ) public {\r\n        entitiesManager.addEntity(\r\n            _entity,\r\n            _userName,\r\n            _password,\r\n            _name,\r\n            _departmentCode,\r\n            _entityType\r\n        );\r\n    }\r\n\r\n    function getEntities()\r\n        public\r\n        view\r\n        returns (EntitiesManager.Entity[] memory)\r\n    {\r\n        address[] memory entityAddresses = entitiesManager.getEntities();\r\n        require(entityAddresses.length > 0, \"No Entities\");\r\n        EntitiesManager.Entity[] memory entities = new EntitiesManager.Entity[](\r\n            entityAddresses.length\r\n        );\r\n        for (uint32 i = 0; i < entityAddresses.length; i++) {\r\n            entities[i] = entitiesManager.getLastUpdate(entityAddresses[i]);\r\n        }\r\n\r\n        return entities;\r\n    }\r\n\r\n    // function getEntities() public view returns (address[] memory) {\r\n    //     return entitiesManager.getEntities();\r\n    // }\r\n\r\n    function getEntityHistory()\r\n        public\r\n        view\r\n        returns (EntitiesManager.Entity[] memory)\r\n    {\r\n        return entitiesManager.getEntityHistory(msg.sender);\r\n    }\r\n\r\n    function getEntityHistory(\r\n        address _entity\r\n    ) public view returns (EntitiesManager.Entity[] memory) {\r\n        return entitiesManager.getEntityHistory(_entity);\r\n    }\r\n\r\n    function getEntity(\r\n        address _entity\r\n    ) public view returns (EntitiesManager.Entity memory) {\r\n        return entitiesManager.getLastUpdate(_entity);\r\n    }\r\n\r\n    function getEntity() public view returns (EntitiesManager.Entity memory) {\r\n        return entitiesManager.getLastUpdate(msg.sender);\r\n    }\r\n\r\n    function authenticateEntity(\r\n        string memory _uname,\r\n        string memory _pass\r\n    ) public view returns (bool) {\r\n        EntitiesManager.Entity memory entity = entitiesManager.getLastUpdate(\r\n            msg.sender\r\n        );\r\n\r\n        if (\r\n            keccak256(abi.encodePacked(entity.userName)) ==\r\n            keccak256(abi.encodePacked(_uname))\r\n        ) {\r\n            if (\r\n                keccak256(abi.encodePacked(entity.password)) ==\r\n                keccak256(abi.encodePacked(_pass))\r\n            ) {\r\n                return (true);\r\n            }\r\n        }\r\n\r\n        return (false);\r\n    }\r\n\r\n    // function addParticipant(string memory _name, string memory _pass, address _pAdd, string memory _pType) public {\r\n    //     uint32 userId = participant_id++;\r\n\r\n    //     participants.push(Participant(_name, _pass, _pType, _pAdd));\r\n\r\n    //     emit ParticipantAdded(userId);\r\n    // }\r\n\r\n    // function getParticipants() onlyParticipant() public view returns (Participant[] memory){\r\n    //     return participants;\r\n    // }\r\n\r\n    // function getParticipant() public view returns (Participant memory)\r\n    // {\r\n    //     for (uint32 i = 0; i < participants.length; i++) {\r\n    //         if (participants[i].participantAddress == msg.sender) {\r\n    //             return participants[i];\r\n    //         }\r\n    //     }\r\n    //     revert(\"Participant not found\");\r\n    // }\r\n\r\n    // modifier onlyParticipant() {\r\n    //     require(isParticipant(), \"The address was not found in the list.\");\r\n    //     _;\r\n    // }\r\n\r\n    // function isParticipant() internal view returns(bool) {\r\n    // for (uint32 i = 0; i < participant_id; i++) {\r\n    //     if (participants[i].participantAddress == msg.sender) {\r\n    //         return true;\r\n    //     }\r\n    // }\r\n    // return false;\r\n    // }\r\n\r\n    // function getParticipantId() internal view returns(int32) {\r\n    // for (uint32 i = 0; i < participant_id; i++) {\r\n    //     if (participants[i].participantAddress == msg.sender) {\r\n    //         return int32(i);\r\n    //     }\r\n    // }\r\n    // return -1;\r\n    // }\r\n\r\n    function addEvidence(\r\n        string memory _evidenceUniqueCode,\r\n        string memory _caseNo,\r\n        string memory _classification,\r\n        string memory _evidenceName,\r\n        string memory _evidenceType\r\n    ) public {\r\n        EntitiesManager.Entity memory _entity = entitiesManager.getLastUpdate(\r\n            msg.sender\r\n        );\r\n        require(\r\n            keccak256(abi.encodePacked(_entity.entityType)) ==\r\n                keccak256(\"Police\"),\r\n            \"Not Police.\"\r\n        );\r\n        evidencesManager.addEvidence(\r\n            _evidenceUniqueCode,\r\n            _caseNo,\r\n            _classification,\r\n            _evidenceName,\r\n            _evidenceType,\r\n            _entity\r\n        );\r\n    }\r\n\r\n    function addEvidence(\r\n        string memory _evidenceUniqueCode,\r\n        string memory _caseNo,\r\n        string memory _classification,\r\n        string memory _evidenceName,\r\n        string memory _evidenceType,\r\n        string[] memory _files\r\n    ) public {\r\n        EntitiesManager.Entity memory _entity = entitiesManager.getLastUpdate(\r\n            msg.sender\r\n        );\r\n        require(\r\n            keccak256(abi.encodePacked(_entity.entityType)) ==\r\n                keccak256(\"Police\"),\r\n            \"Not Police.\"\r\n        );\r\n        evidencesManager.addEvidence(\r\n            _evidenceUniqueCode,\r\n            _caseNo,\r\n            _classification,\r\n            _evidenceName,\r\n            _evidenceType,\r\n            _entity,\r\n            _files\r\n        );\r\n    }\r\n\r\n    function getEvidences()\r\n        public\r\n        view\r\n        returns (EvidencesManager.Evidence[] memory)\r\n    {\r\n        string[] memory evidencesCodes = evidencesManager.getEvidences();\r\n        require(evidencesCodes.length > 0, \"No Evidences\");\r\n        EvidencesManager.Evidence[]\r\n            memory evidences = new EvidencesManager.Evidence[](\r\n                evidencesCodes.length\r\n            );\r\n        for (uint32 i = 0; i < evidencesCodes.length; i++) {\r\n            evidences[i] = evidencesManager.getLastUpdate(evidencesCodes[i]);\r\n        }\r\n\r\n        return evidences;\r\n    }\r\n\r\n    function getEvidenceHistory(\r\n        string memory _evidenceUniqueCode\r\n    ) public view returns (EvidencesManager.Evidence[] memory) {\r\n        return evidencesManager.getEvidenceHistory(_evidenceUniqueCode);\r\n    }\r\n\r\n    function getEvidence(\r\n        string memory _evidenceUniqueCode\r\n    ) public view returns (EvidencesManager.Evidence memory) {\r\n        return evidencesManager.getLastUpdate(_evidenceUniqueCode);\r\n    }\r\n\r\n    function evidenceNewOwner(\r\n        string memory _evidenceUniqueCode,\r\n        address _newOwner\r\n    ) public onlyOwner(_evidenceUniqueCode) {\r\n        EntitiesManager.Entity memory _entity = entitiesManager.getLastUpdate(\r\n            _newOwner\r\n        );\r\n        evidencesManager.updateOwner(_evidenceUniqueCode, _entity);\r\n    }\r\n\r\n    function addFiles(\r\n        string memory _evidenceUniqueCode,\r\n        string[] memory _files\r\n    ) public onlyOwner(_evidenceUniqueCode) {\r\n        evidencesManager.addFiles(_evidenceUniqueCode, _files);\r\n    }\r\n\r\n    modifier onlyOwner(string memory _evidenceUniqueCode) {\r\n        EvidencesManager.Evidence memory _evidence = evidencesManager\r\n            .getLastUpdate(_evidenceUniqueCode);\r\n        require(msg.sender == _evidence.owner.entityAddress, \"Not Owner\");\r\n        _;\r\n    }\r\n\r\n    // function addEvidence(string memory _evidenceUniqueCode,\r\n    //                     string memory _evidenceName,\r\n    //                     string memory _evidenceType) public\r\n    // {\r\n    //     // require(verifyEvidenceUniqueCode(_evidenceUniqueCode));\r\n    //     // int32 _ownerId = getParticipantId();\r\n    //     // require(_ownerId >= 0, \"Not Found Participant!\");\r\n    //     // require(keccak256(abi.encodePacked(participants[uint32(_ownerId)].participantType)) == keccak256(\"Police\"),\"Not Police.\");\r\n\r\n    //     uint32 evidenceId = evidence_id++;\r\n\r\n    //     evidences.push(Evidence(_evidenceUniqueCode, _evidenceName, _evidenceType, msg.sender, uint32(block.timestamp)));\r\n\r\n    //     // evidences[evidenceId].evidenceName = _evidenceName;\r\n    //     // evidences[evidenceId].evidenceType = _evidenceType;\r\n    //     // evidences[evidenceId].evidenceOwner = participants[_ownerId].participantAddress;\r\n    //     // evidences[evidenceId].mfgTimeStamp = uint32(block.timestamp);\r\n\r\n    //     //emit EvidenceAdded(evidenceId);\r\n    // }\r\n\r\n    // function verifyEvidenceUniqueCode(string memory _evidenceUniqueCode) internal view returns(bool) {\r\n    // for (uint32 i = 0; i < evidence_id; i++) {\r\n    //     if (keccak256(bytes(evidences[i].evidenceUniqueCode)) == keccak256(bytes(_evidenceUniqueCode))) {\r\n    //         return false;\r\n    //     }\r\n    // }\r\n    // return true;\r\n    // }\r\n\r\n    // function getEvidences() public view returns (Evidence[] memory){\r\n    //     return evidences;\r\n    // }\r\n\r\n    // function getEvidence(uint32 _evidenceId) public view returns (string memory,string memory,address,uint32){\r\n    //     return (evidences[_evidenceId].evidenceName,\r\n    //             evidences[_evidenceId].evidenceType,\r\n    //             evidences[_evidenceId].evidenceOwner,\r\n    //             evidences[_evidenceId].mfgTimeStamp);\r\n    // }\r\n\r\n    // function newOwner(uint32 _user1Id,uint32 _user2Id, uint32 _evidId) onlyOwner(_evidId) public returns (bool) {\r\n    //     Participant memory p1 = participants[_user1Id];\r\n    //     Participant memory p2 = participants[_user2Id];\r\n    //     uint32 ownership_id = owner_id++;\r\n\r\n    //     if(keccak256(abi.encodePacked(p1.participantType)) == keccak256(\"Police\")\r\n    //         && keccak256(abi.encodePacked(p2.participantType))==keccak256(\"Lab\")){\r\n    //         ownerships[ownership_id].evidenceId = _evidId;\r\n    //         ownerships[ownership_id].evidenceOwner = p2.participantAddress;\r\n    //         ownerships[ownership_id].ownerId = _user2Id;\r\n    //         ownerships[ownership_id].trxTimeStamp = uint32(block.timestamp);\r\n    //         evidences[_evidId].evidenceOwner = p2.participantAddress;\r\n    //         evidenceTrack[_evidId].push(ownership_id);\r\n    //         emit TransferOwnership(_evidId);\r\n\r\n    //         return (true);\r\n    //     }\r\n    //     else if(keccak256(abi.encodePacked(p1.participantType)) == keccak256(\"Lab\")\r\n    //         && keccak256(abi.encodePacked(p2.participantType))==keccak256(\"Lab\")){\r\n    //         ownerships[ownership_id].evidenceId = _evidId;\r\n    //         ownerships[ownership_id].evidenceOwner = p2.participantAddress;\r\n    //         ownerships[ownership_id].ownerId = _user2Id;\r\n    //         ownerships[ownership_id].trxTimeStamp = uint32(block.timestamp);\r\n    //         evidences[_evidId].evidenceOwner = p2.participantAddress;\r\n    //         evidenceTrack[_evidId].push(ownership_id);\r\n    //         emit TransferOwnership(_evidId);\r\n\r\n    //         return (true);\r\n    //     }\r\n    //     else if(keccak256(abi.encodePacked(p1.participantType)) == keccak256(\"Lab\")\r\n    //         && keccak256(abi.encodePacked(p2.participantType))==keccak256(\"Court\")){\r\n    //         ownerships[ownership_id].evidenceId = _evidId;\r\n    //         ownerships[ownership_id].evidenceOwner = p2.participantAddress;\r\n    //         ownerships[ownership_id].ownerId = _user2Id;\r\n    //         ownerships[ownership_id].trxTimeStamp = uint32(block.timestamp);\r\n    //         evidences[_evidId].evidenceOwner = p2.participantAddress;\r\n    //         evidenceTrack[_evidId].push(ownership_id);\r\n    //         emit TransferOwnership(_evidId);\r\n\r\n    //         return (true);\r\n    //     }\r\n\r\n    //     return (false);\r\n    // }\r\n\r\n    function getProvenance(\r\n        uint32 _evidenceId\r\n    ) external view returns (uint32[] memory) {\r\n        return evidenceTrack[_evidenceId];\r\n    }\r\n\r\n    function getOwnership(\r\n        uint32 _regId\r\n    ) public view returns (uint32, uint32, address, uint32) {\r\n        ownership memory r = ownerships[_regId];\r\n\r\n        return (r.evidenceId, r.ownerId, r.evidenceOwner, r.trxTimeStamp);\r\n    }\r\n\r\n    // function authenticateParticipant(uint32 _uid,\r\n    //                                 string memory _uname,\r\n    //                                 string memory _pass,\r\n    //                                 string memory _utype) public view returns (bool){\r\n    //     if(keccak256(abi.encodePacked(participants[_uid].participantType)) == keccak256(abi.encodePacked(_utype))) {\r\n    //         if(keccak256(abi.encodePacked(participants[_uid].userName)) == keccak256(abi.encodePacked(_uname))) {\r\n    //             if(keccak256(abi.encodePacked(participants[_uid].password)) == keccak256(abi.encodePacked(_pass))) {\r\n    //                 return (true);\r\n    //             }\r\n    //         }\r\n    //     }\r\n\r\n    //     return (false);\r\n    // }\r\n}\r\n",
  "sourcePath": "C:\\IPCA DISSERTAO\\evidences_dapp\\contracts\\EvidenceChain.sol",
  "compiler": {
    "name": "solc",
    "version": "0.8.19+commit.7dd6d404.Emscripten.clang"
  },
  "schemaVersion": "3.4.13",
  "updatedAt": "2023-08-27T13:27:32.526Z",
  "networkType": "ethereum",
  "devdoc": {
    "kind": "dev",
    "methods": {},
    "version": 1
  },
  "userdoc": {
    "kind": "user",
    "methods": {},
    "version": 1
  }
}