{
  "contractName": "EvidenceChain",
  "abi": [
    {
      "inputs": [
        {
          "internalType": "address",
          "name": "_entitiesManagerAddress",
          "type": "address"
        },
        {
          "internalType": "address",
          "name": "_evidencesManagerAddress",
          "type": "address"
        }
      ],
      "stateMutability": "nonpayable",
      "type": "constructor"
    },
    {
      "anonymous": false,
      "inputs": [
        {
          "indexed": true,
          "internalType": "uint32",
          "name": "evidenceId",
          "type": "uint32"
        }
      ],
      "name": "EvidenceAdded",
      "type": "event"
    },
    {
      "anonymous": false,
      "inputs": [
        {
          "indexed": true,
          "internalType": "uint32",
          "name": "userId",
          "type": "uint32"
        }
      ],
      "name": "ParticipantAdded",
      "type": "event"
    },
    {
      "anonymous": false,
      "inputs": [
        {
          "indexed": false,
          "internalType": "uint32",
          "name": "evidenceId",
          "type": "uint32"
        }
      ],
      "name": "TransferOwnership",
      "type": "event"
    },
    {
      "inputs": [],
      "name": "entitiesManager",
      "outputs": [
        {
          "internalType": "contract EntitiesManager",
          "name": "",
          "type": "address"
        }
      ],
      "stateMutability": "view",
      "type": "function",
      "constant": true
    },
    {
      "inputs": [
        {
          "internalType": "uint32",
          "name": "",
          "type": "uint32"
        },
        {
          "internalType": "uint256",
          "name": "",
          "type": "uint256"
        }
      ],
      "name": "evidenceTrack",
      "outputs": [
        {
          "internalType": "uint32",
          "name": "",
          "type": "uint32"
        }
      ],
      "stateMutability": "view",
      "type": "function",
      "constant": true
    },
    {
      "inputs": [],
      "name": "evidencesManager",
      "outputs": [
        {
          "internalType": "contract EvidencesManager",
          "name": "",
          "type": "address"
        }
      ],
      "stateMutability": "view",
      "type": "function",
      "constant": true
    },
    {
      "inputs": [],
      "name": "owner_id",
      "outputs": [
        {
          "internalType": "uint32",
          "name": "",
          "type": "uint32"
        }
      ],
      "stateMutability": "view",
      "type": "function",
      "constant": true
    },
    {
      "inputs": [
        {
          "internalType": "uint32",
          "name": "",
          "type": "uint32"
        }
      ],
      "name": "ownerships",
      "outputs": [
        {
          "internalType": "uint32",
          "name": "evidenceId",
          "type": "uint32"
        },
        {
          "internalType": "uint32",
          "name": "ownerId",
          "type": "uint32"
        },
        {
          "internalType": "uint32",
          "name": "trxTimeStamp",
          "type": "uint32"
        },
        {
          "internalType": "address",
          "name": "evidenceOwner",
          "type": "address"
        }
      ],
      "stateMutability": "view",
      "type": "function",
      "constant": true
    },
    {
      "inputs": [
        {
          "internalType": "address",
          "name": "_entity",
          "type": "address"
        },
        {
          "internalType": "string",
          "name": "_userName",
          "type": "string"
        },
        {
          "internalType": "string",
          "name": "_password",
          "type": "string"
        },
        {
          "internalType": "string",
          "name": "_name",
          "type": "string"
        },
        {
          "internalType": "string",
          "name": "_departmentCode",
          "type": "string"
        },
        {
          "internalType": "enum EntitiesManager.EntityType",
          "name": "_entityType",
          "type": "uint8"
        }
      ],
      "name": "addEntity",
      "outputs": [],
      "stateMutability": "nonpayable",
      "type": "function"
    },
    {
      "inputs": [
        {
          "internalType": "address",
          "name": "_entity",
          "type": "address"
        },
        {
          "internalType": "string",
          "name": "_userName",
          "type": "string"
        },
        {
          "internalType": "string",
          "name": "_password",
          "type": "string"
        },
        {
          "internalType": "string",
          "name": "_name",
          "type": "string"
        },
        {
          "internalType": "string",
          "name": "_departmentCode",
          "type": "string"
        }
      ],
      "name": "updateEntity",
      "outputs": [],
      "stateMutability": "nonpayable",
      "type": "function"
    },
    {
      "inputs": [],
      "name": "getEntities",
      "outputs": [
        {
          "components": [
            {
              "internalType": "string",
              "name": "userName",
              "type": "string"
            },
            {
              "internalType": "string",
              "name": "password",
              "type": "string"
            },
            {
              "internalType": "string",
              "name": "name",
              "type": "string"
            },
            {
              "internalType": "string",
              "name": "departmentCode",
              "type": "string"
            },
            {
              "internalType": "enum EntitiesManager.EntityType",
              "name": "entityType",
              "type": "uint8"
            },
            {
              "internalType": "address",
              "name": "entityAddress",
              "type": "address"
            },
            {
              "internalType": "uint32",
              "name": "timestamp",
              "type": "uint32"
            }
          ],
          "internalType": "struct EntitiesManager.Entity[]",
          "name": "",
          "type": "tuple[]"
        }
      ],
      "stateMutability": "view",
      "type": "function",
      "constant": true
    },
    {
      "inputs": [
        {
          "internalType": "address",
          "name": "_entity",
          "type": "address"
        }
      ],
      "name": "getEntityHistory",
      "outputs": [
        {
          "components": [
            {
              "internalType": "string",
              "name": "userName",
              "type": "string"
            },
            {
              "internalType": "string",
              "name": "password",
              "type": "string"
            },
            {
              "internalType": "string",
              "name": "name",
              "type": "string"
            },
            {
              "internalType": "string",
              "name": "departmentCode",
              "type": "string"
            },
            {
              "internalType": "enum EntitiesManager.EntityType",
              "name": "entityType",
              "type": "uint8"
            },
            {
              "internalType": "address",
              "name": "entityAddress",
              "type": "address"
            },
            {
              "internalType": "uint32",
              "name": "timestamp",
              "type": "uint32"
            }
          ],
          "internalType": "struct EntitiesManager.Entity[]",
          "name": "",
          "type": "tuple[]"
        }
      ],
      "stateMutability": "view",
      "type": "function",
      "constant": true
    },
    {
      "inputs": [],
      "name": "getEntityHistory",
      "outputs": [
        {
          "components": [
            {
              "internalType": "string",
              "name": "userName",
              "type": "string"
            },
            {
              "internalType": "string",
              "name": "password",
              "type": "string"
            },
            {
              "internalType": "string",
              "name": "name",
              "type": "string"
            },
            {
              "internalType": "string",
              "name": "departmentCode",
              "type": "string"
            },
            {
              "internalType": "enum EntitiesManager.EntityType",
              "name": "entityType",
              "type": "uint8"
            },
            {
              "internalType": "address",
              "name": "entityAddress",
              "type": "address"
            },
            {
              "internalType": "uint32",
              "name": "timestamp",
              "type": "uint32"
            }
          ],
          "internalType": "struct EntitiesManager.Entity[]",
          "name": "",
          "type": "tuple[]"
        }
      ],
      "stateMutability": "view",
      "type": "function",
      "constant": true
    },
    {
      "inputs": [
        {
          "internalType": "address",
          "name": "_entity",
          "type": "address"
        }
      ],
      "name": "getEntity",
      "outputs": [
        {
          "components": [
            {
              "internalType": "string",
              "name": "userName",
              "type": "string"
            },
            {
              "internalType": "string",
              "name": "password",
              "type": "string"
            },
            {
              "internalType": "string",
              "name": "name",
              "type": "string"
            },
            {
              "internalType": "string",
              "name": "departmentCode",
              "type": "string"
            },
            {
              "internalType": "enum EntitiesManager.EntityType",
              "name": "entityType",
              "type": "uint8"
            },
            {
              "internalType": "address",
              "name": "entityAddress",
              "type": "address"
            },
            {
              "internalType": "uint32",
              "name": "timestamp",
              "type": "uint32"
            }
          ],
          "internalType": "struct EntitiesManager.Entity",
          "name": "",
          "type": "tuple"
        }
      ],
      "stateMutability": "view",
      "type": "function",
      "constant": true
    },
    {
      "inputs": [],
      "name": "getEntity",
      "outputs": [
        {
          "components": [
            {
              "internalType": "string",
              "name": "userName",
              "type": "string"
            },
            {
              "internalType": "string",
              "name": "password",
              "type": "string"
            },
            {
              "internalType": "string",
              "name": "name",
              "type": "string"
            },
            {
              "internalType": "string",
              "name": "departmentCode",
              "type": "string"
            },
            {
              "internalType": "enum EntitiesManager.EntityType",
              "name": "entityType",
              "type": "uint8"
            },
            {
              "internalType": "address",
              "name": "entityAddress",
              "type": "address"
            },
            {
              "internalType": "uint32",
              "name": "timestamp",
              "type": "uint32"
            }
          ],
          "internalType": "struct EntitiesManager.Entity",
          "name": "",
          "type": "tuple"
        }
      ],
      "stateMutability": "view",
      "type": "function",
      "constant": true
    },
    {
      "inputs": [
        {
          "internalType": "string",
          "name": "_uname",
          "type": "string"
        },
        {
          "internalType": "string",
          "name": "_pass",
          "type": "string"
        }
      ],
      "name": "authenticateEntity",
      "outputs": [
        {
          "internalType": "bool",
          "name": "",
          "type": "bool"
        }
      ],
      "stateMutability": "view",
      "type": "function",
      "constant": true
    },
    {
      "inputs": [
        {
          "internalType": "string",
          "name": "_evidenceUniqueCode",
          "type": "string"
        },
        {
          "internalType": "string",
          "name": "_caseNo",
          "type": "string"
        },
        {
          "internalType": "enum EvidencesManager.EvidenceClassification",
          "name": "_classification",
          "type": "uint8"
        },
        {
          "internalType": "string",
          "name": "_evidenceName",
          "type": "string"
        },
        {
          "internalType": "enum EvidencesManager.EvidenceType",
          "name": "_evidenceType",
          "type": "uint8"
        }
      ],
      "name": "addEvidence",
      "outputs": [],
      "stateMutability": "nonpayable",
      "type": "function"
    },
    {
      "inputs": [],
      "name": "getEvidences",
      "outputs": [
        {
          "components": [
            {
              "internalType": "string",
              "name": "uniqueCode",
              "type": "string"
            },
            {
              "internalType": "string",
              "name": "caseNo",
              "type": "string"
            },
            {
              "internalType": "enum EvidencesManager.EvidenceClassification",
              "name": "classification",
              "type": "uint8"
            },
            {
              "internalType": "string",
              "name": "name",
              "type": "string"
            },
            {
              "internalType": "enum EvidencesManager.EvidenceType",
              "name": "eType",
              "type": "uint8"
            },
            {
              "components": [
                {
                  "internalType": "string",
                  "name": "userName",
                  "type": "string"
                },
                {
                  "internalType": "string",
                  "name": "password",
                  "type": "string"
                },
                {
                  "internalType": "string",
                  "name": "name",
                  "type": "string"
                },
                {
                  "internalType": "string",
                  "name": "departmentCode",
                  "type": "string"
                },
                {
                  "internalType": "enum EntitiesManager.EntityType",
                  "name": "entityType",
                  "type": "uint8"
                },
                {
                  "internalType": "address",
                  "name": "entityAddress",
                  "type": "address"
                },
                {
                  "internalType": "uint32",
                  "name": "timestamp",
                  "type": "uint32"
                }
              ],
              "internalType": "struct EntitiesManager.Entity",
              "name": "owner",
              "type": "tuple"
            },
            {
              "internalType": "uint256",
              "name": "timestamp",
              "type": "uint256"
            },
            {
              "internalType": "string[]",
              "name": "uFilesCodes",
              "type": "string[]"
            },
            {
              "internalType": "bool",
              "name": "isActive",
              "type": "bool"
            },
            {
              "internalType": "string",
              "name": "observations",
              "type": "string"
            }
          ],
          "internalType": "struct EvidencesManager.Evidence[]",
          "name": "",
          "type": "tuple[]"
        }
      ],
      "stateMutability": "view",
      "type": "function",
      "constant": true
    },
    {
      "inputs": [
        {
          "internalType": "string",
          "name": "_evidenceUniqueCode",
          "type": "string"
        }
      ],
      "name": "getEvidenceHistory",
      "outputs": [
        {
          "components": [
            {
              "internalType": "string",
              "name": "uniqueCode",
              "type": "string"
            },
            {
              "internalType": "string",
              "name": "caseNo",
              "type": "string"
            },
            {
              "internalType": "enum EvidencesManager.EvidenceClassification",
              "name": "classification",
              "type": "uint8"
            },
            {
              "internalType": "string",
              "name": "name",
              "type": "string"
            },
            {
              "internalType": "enum EvidencesManager.EvidenceType",
              "name": "eType",
              "type": "uint8"
            },
            {
              "components": [
                {
                  "internalType": "string",
                  "name": "userName",
                  "type": "string"
                },
                {
                  "internalType": "string",
                  "name": "password",
                  "type": "string"
                },
                {
                  "internalType": "string",
                  "name": "name",
                  "type": "string"
                },
                {
                  "internalType": "string",
                  "name": "departmentCode",
                  "type": "string"
                },
                {
                  "internalType": "enum EntitiesManager.EntityType",
                  "name": "entityType",
                  "type": "uint8"
                },
                {
                  "internalType": "address",
                  "name": "entityAddress",
                  "type": "address"
                },
                {
                  "internalType": "uint32",
                  "name": "timestamp",
                  "type": "uint32"
                }
              ],
              "internalType": "struct EntitiesManager.Entity",
              "name": "owner",
              "type": "tuple"
            },
            {
              "internalType": "uint256",
              "name": "timestamp",
              "type": "uint256"
            },
            {
              "internalType": "string[]",
              "name": "uFilesCodes",
              "type": "string[]"
            },
            {
              "internalType": "bool",
              "name": "isActive",
              "type": "bool"
            },
            {
              "internalType": "string",
              "name": "observations",
              "type": "string"
            }
          ],
          "internalType": "struct EvidencesManager.Evidence[]",
          "name": "",
          "type": "tuple[]"
        }
      ],
      "stateMutability": "view",
      "type": "function",
      "constant": true
    },
    {
      "inputs": [
        {
          "internalType": "string",
          "name": "_evidenceUniqueCode",
          "type": "string"
        }
      ],
      "name": "getEvidence",
      "outputs": [
        {
          "components": [
            {
              "internalType": "string",
              "name": "uniqueCode",
              "type": "string"
            },
            {
              "internalType": "string",
              "name": "caseNo",
              "type": "string"
            },
            {
              "internalType": "enum EvidencesManager.EvidenceClassification",
              "name": "classification",
              "type": "uint8"
            },
            {
              "internalType": "string",
              "name": "name",
              "type": "string"
            },
            {
              "internalType": "enum EvidencesManager.EvidenceType",
              "name": "eType",
              "type": "uint8"
            },
            {
              "components": [
                {
                  "internalType": "string",
                  "name": "userName",
                  "type": "string"
                },
                {
                  "internalType": "string",
                  "name": "password",
                  "type": "string"
                },
                {
                  "internalType": "string",
                  "name": "name",
                  "type": "string"
                },
                {
                  "internalType": "string",
                  "name": "departmentCode",
                  "type": "string"
                },
                {
                  "internalType": "enum EntitiesManager.EntityType",
                  "name": "entityType",
                  "type": "uint8"
                },
                {
                  "internalType": "address",
                  "name": "entityAddress",
                  "type": "address"
                },
                {
                  "internalType": "uint32",
                  "name": "timestamp",
                  "type": "uint32"
                }
              ],
              "internalType": "struct EntitiesManager.Entity",
              "name": "owner",
              "type": "tuple"
            },
            {
              "internalType": "uint256",
              "name": "timestamp",
              "type": "uint256"
            },
            {
              "internalType": "string[]",
              "name": "uFilesCodes",
              "type": "string[]"
            },
            {
              "internalType": "bool",
              "name": "isActive",
              "type": "bool"
            },
            {
              "internalType": "string",
              "name": "observations",
              "type": "string"
            }
          ],
          "internalType": "struct EvidencesManager.Evidence",
          "name": "",
          "type": "tuple"
        }
      ],
      "stateMutability": "view",
      "type": "function",
      "constant": true
    },
    {
      "inputs": [
        {
          "internalType": "string",
          "name": "_evidenceUniqueCode",
          "type": "string"
        },
        {
          "internalType": "address",
          "name": "_newOwner",
          "type": "address"
        }
      ],
      "name": "evidenceNewOwner",
      "outputs": [],
      "stateMutability": "nonpayable",
      "type": "function"
    },
    {
      "inputs": [
        {
          "internalType": "string",
          "name": "_evidenceUniqueCode",
          "type": "string"
        },
        {
          "internalType": "string",
          "name": "_fileId",
          "type": "string"
        },
        {
          "internalType": "string",
          "name": "_fileName",
          "type": "string"
        },
        {
          "internalType": "string",
          "name": "_fileHash",
          "type": "string"
        }
      ],
      "name": "addFile",
      "outputs": [],
      "stateMutability": "nonpayable",
      "type": "function"
    },
    {
      "inputs": [
        {
          "internalType": "string",
          "name": "_evidenceUniqueCode",
          "type": "string"
        },
        {
          "internalType": "string",
          "name": "_fileUniqueCode",
          "type": "string"
        }
      ],
      "name": "getFileInfo",
      "outputs": [
        {
          "components": [
            {
              "internalType": "string",
              "name": "id",
              "type": "string"
            },
            {
              "internalType": "string",
              "name": "fileName",
              "type": "string"
            },
            {
              "internalType": "string",
              "name": "fileHash",
              "type": "string"
            }
          ],
          "internalType": "struct EvidencesManager.EvidenceFile",
          "name": "",
          "type": "tuple"
        }
      ],
      "stateMutability": "view",
      "type": "function",
      "constant": true
    }
  ],
  "bytecode": "0x60806040526000600160146101000a81548163ffffffff021916908363ffffffff1602179055503480156200003357600080fd5b5060405162003ac938038062003ac983398181016040528101906200005991906200014c565b816000806101000a81548173ffffffffffffffffffffffffffffffffffffffff021916908373ffffffffffffffffffffffffffffffffffffffff16021790555080600160006101000a81548173ffffffffffffffffffffffffffffffffffffffff021916908373ffffffffffffffffffffffffffffffffffffffff160217905550505062000193565b600080fd5b600073ffffffffffffffffffffffffffffffffffffffff82169050919050565b60006200011482620000e7565b9050919050565b620001268162000107565b81146200013257600080fd5b50565b60008151905062000146816200011b565b92915050565b60008060408385031215620001665762000165620000e2565b5b6000620001768582860162000135565b9250506020620001898582860162000135565b9150509250929050565b61392680620001a36000396000f3fe608060405234801561001057600080fd5b5060043610610149576000357c0100000000000000000000000000000000000000000000000000000000900480638b57d984116100ca578063c6a22c411161008e578063c6a22c4114610389578063c892522e146103a5578063dff95aac146103d5578063e3271cf9146103f3578063ff200d2b1461041157610149565b80638b57d984146102e35780638cb58fc1146103015780638f5ebf711461031f578063b0d9d59b1461033d578063b16c6ee71461035957610149565b806331eb897f1161011157806331eb897f146102045780635760620b146102345780635f067db01461026457806375894e8c1461028057806381e15610146102b057610149565b806303c8b6fc1461014e5780631f7331471461016a57806328320e1c146101865780632c5ec5c8146101b657806331b933b9146101e6575b600080fd5b61016860048036038101906101639190611ae3565b61042f565b005b610184600480360381019061017f9190611be0565b6104e8565b005b6101a0600480360381019061019b9190611ccb565b61059e565b6040516101ad9190611f8f565b60405180910390f35b6101d060048036038101906101cb9190611fb1565b610662565b6040516101dd9190612087565b60405180910390f35b6101ee610731565b6040516101fb9190611f8f565b60405180910390f35b61021e60048036038101906102199190611fb1565b6109b2565b60405161022b91906120c4565b60405180910390f35b61024e60048036038101906102499190612141565b610b37565b60405161025b9190612190565b60405180910390f35b61027e600480360381019061027991906121ab565b610b80565b005b61029a60048036038101906102959190611ccb565b610d8b565b6040516102a79190612333565b60405180910390f35b6102ca60048036038101906102c59190612355565b610e55565b6040516102da9493929190612391565b60405180910390f35b6102eb610ed5565b6040516102f89190611f8f565b60405180910390f35b610309610f97565b6040516103169190612435565b60405180910390f35b610327610fbd565b6040516103349190612190565b60405180910390f35b6103576004803603810190610352919061249a565b610fd3565b005b610373600480360381019061036e9190612569565b61114e565b604051610380919061281f565b60405180910390f35b6103a3600480360381019061039e9190612841565b61121a565b005b6103bf60048036038101906103ba9190612569565b6114c4565b6040516103cc9190612a5c565b60405180910390f35b6103dd61158a565b6040516103ea9190612a5c565b60405180910390f35b6103fb61170f565b6040516104089190612a9f565b60405180910390f35b610419611733565b6040516104269190612333565b60405180910390f35b60008054906101000a900473ffffffffffffffffffffffffffffffffffffffff1673ffffffffffffffffffffffffffffffffffffffff16635c1612b08787878787876040518763ffffffff167c01000000000000000000000000000000000000000000000000000000000281526004016104ae96959493929190612b13565b600060405180830381600087803b1580156104c857600080fd5b505af11580156104dc573d6000803e3d6000fd5b50505050505050505050565b60008054906101000a900473ffffffffffffffffffffffffffffffffffffffff1673ffffffffffffffffffffffffffffffffffffffff16631f73314786868686866040518663ffffffff167c0100000000000000000000000000000000000000000000000000000000028152600401610565959493929190612b90565b600060405180830381600087803b15801561057f57600080fd5b505af1158015610593573d6000803e3d6000fd5b505050505050505050565b606060008054906101000a900473ffffffffffffffffffffffffffffffffffffffff1673ffffffffffffffffffffffffffffffffffffffff166328320e1c836040518263ffffffff167c01000000000000000000000000000000000000000000000000000000000281526004016106159190612bff565b600060405180830381865afa158015610632573d6000803e3d6000fd5b505050506040513d6000823e3d601f19601f8201168201806040525081019061065b9190612edd565b9050919050565b61066a6117fb565b600160009054906101000a900473ffffffffffffffffffffffffffffffffffffffff1673ffffffffffffffffffffffffffffffffffffffff16632c5ec5c884846040518363ffffffff167c01000000000000000000000000000000000000000000000000000000000281526004016106e3929190612f26565b600060405180830381865afa158015610700573d6000803e3d6000fd5b505050506040513d6000823e3d601f19601f820116820180604052508101906107299190613015565b905092915050565b606060008060009054906101000a900473ffffffffffffffffffffffffffffffffffffffff1673ffffffffffffffffffffffffffffffffffffffff166331b933b96040518163ffffffff167c0100000000000000000000000000000000000000000000000000000000028152600401600060405180830381865afa1580156107bd573d6000803e3d6000fd5b505050506040513d6000823e3d601f19601f820116820180604052508101906107e69190613121565b9050600081511161082c576040517f08c379a0000000000000000000000000000000000000000000000000000000008152600401610823906131b6565b60405180910390fd5b6000815167ffffffffffffffff81111561084957610848611993565b5b60405190808252806020026020018201604052801561088257816020015b61086f61181c565b8152602001906001900390816108675790505b50905060005b82518163ffffffff1610156109a95760008054906101000a900473ffffffffffffffffffffffffffffffffffffffff1673ffffffffffffffffffffffffffffffffffffffff16635a7e1989848363ffffffff16815181106108ec576108eb6131d6565b5b60200260200101516040518263ffffffff167c010000000000000000000000000000000000000000000000000000000002815260040161092c9190612bff565b600060405180830381865afa158015610949573d6000803e3d6000fd5b505050506040513d6000823e3d601f19601f820116820180604052508101906109729190613205565b828263ffffffff168151811061098b5761098a6131d6565b5b602002602001018190525080806109a19061327d565b915050610888565b50809250505090565b60008060008054906101000a900473ffffffffffffffffffffffffffffffffffffffff1673ffffffffffffffffffffffffffffffffffffffff16635a7e1989336040518263ffffffff167c0100000000000000000000000000000000000000000000000000000000028152600401610a2a9190612bff565b600060405180830381865afa158015610a47573d6000803e3d6000fd5b505050506040513d6000823e3d601f19601f82011682018060405250810190610a709190613205565b905083604051602001610a8391906132e5565b604051602081830303815290604052805190602001208160000151604051602001610aae91906132e5565b6040516020818303038152906040528051906020012003610b2b5782604051602001610ada91906132e5565b604051602081830303815290604052805190602001208160200151604051602001610b0591906132e5565b6040516020818303038152906040528051906020012003610b2a576001915050610b31565b5b60009150505b92915050565b60036020528160005260406000208181548110610b5357600080fd5b9060005260206000209060089182820401919006600402915091509054906101000a900463ffffffff1681565b836000600160009054906101000a900473ffffffffffffffffffffffffffffffffffffffff1673ffffffffffffffffffffffffffffffffffffffff16633eeb568b836040518263ffffffff167c0100000000000000000000000000000000000000000000000000000000028152600401610bfa91906132fc565b600060405180830381865afa158015610c17573d6000803e3d6000fd5b505050506040513d6000823e3d601f19601f82011682018060405250810190610c409190613608565b90508060a0015160a0015173ffffffffffffffffffffffffffffffffffffffff163373ffffffffffffffffffffffffffffffffffffffff1614610cb8576040517f08c379a0000000000000000000000000000000000000000000000000000000008152600401610caf9061369d565b60405180910390fd5b60006040518060600160405280878152602001868152602001858152509050600160009054906101000a900473ffffffffffffffffffffffffffffffffffffffff1673ffffffffffffffffffffffffffffffffffffffff1663e634926e88836040518363ffffffff167c0100000000000000000000000000000000000000000000000000000000028152600401610d509291906136bd565b600060405180830381600087803b158015610d6a57600080fd5b505af1158015610d7e573d6000803e3d6000fd5b5050505050505050505050565b610d9361181c565b60008054906101000a900473ffffffffffffffffffffffffffffffffffffffff1673ffffffffffffffffffffffffffffffffffffffff16635a7e1989836040518263ffffffff167c0100000000000000000000000000000000000000000000000000000000028152600401610e089190612bff565b600060405180830381865afa158015610e25573d6000803e3d6000fd5b505050506040513d6000823e3d601f19601f82011682018060405250810190610e4e9190613205565b9050919050565b60026020528060005260406000206000915090508060000160009054906101000a900463ffffffff16908060000160049054906101000a900463ffffffff16908060000160089054906101000a900463ffffffff169080600001600c9054906101000a900473ffffffffffffffffffffffffffffffffffffffff16905084565b606060008054906101000a900473ffffffffffffffffffffffffffffffffffffffff1673ffffffffffffffffffffffffffffffffffffffff166328320e1c336040518263ffffffff167c0100000000000000000000000000000000000000000000000000000000028152600401610f4c9190612bff565b600060405180830381865afa158015610f69573d6000803e3d6000fd5b505050506040513d6000823e3d601f19601f82011682018060405250810190610f929190612edd565b905090565b600160009054906101000a900473ffffffffffffffffffffffffffffffffffffffff1681565b600160149054906101000a900463ffffffff1681565b60008060009054906101000a900473ffffffffffffffffffffffffffffffffffffffff1673ffffffffffffffffffffffffffffffffffffffff16635a7e1989336040518263ffffffff167c010000000000000000000000000000000000000000000000000000000002815260040161104b9190612bff565b600060405180830381865afa158015611068573d6000803e3d6000fd5b505050506040513d6000823e3d601f19601f820116820180604052508101906110919190613205565b9050600160009054906101000a900473ffffffffffffffffffffffffffffffffffffffff1673ffffffffffffffffffffffffffffffffffffffff16633adcc7f98787878787876040518763ffffffff167c010000000000000000000000000000000000000000000000000000000002815260040161111496959493929190613712565b600060405180830381600087803b15801561112e57600080fd5b505af1158015611142573d6000803e3d6000fd5b50505050505050505050565b611156611887565b600160009054906101000a900473ffffffffffffffffffffffffffffffffffffffff1673ffffffffffffffffffffffffffffffffffffffff16633eeb568b836040518263ffffffff167c01000000000000000000000000000000000000000000000000000000000281526004016111cd91906132fc565b600060405180830381865afa1580156111ea573d6000803e3d6000fd5b505050506040513d6000823e3d601f19601f820116820180604052508101906112139190613608565b9050919050565b816000600160009054906101000a900473ffffffffffffffffffffffffffffffffffffffff1673ffffffffffffffffffffffffffffffffffffffff16633eeb568b836040518263ffffffff167c010000000000000000000000000000000000000000000000000000000002815260040161129491906132fc565b600060405180830381865afa1580156112b1573d6000803e3d6000fd5b505050506040513d6000823e3d601f19601f820116820180604052508101906112da9190613608565b90508060a0015160a0015173ffffffffffffffffffffffffffffffffffffffff163373ffffffffffffffffffffffffffffffffffffffff1614611352576040517f08c379a00000000000000000000000000000000000000000000000000000000081526004016113499061369d565b60405180910390fd5b60008060009054906101000a900473ffffffffffffffffffffffffffffffffffffffff1673ffffffffffffffffffffffffffffffffffffffff16635a7e1989856040518263ffffffff167c01000000000000000000000000000000000000000000000000000000000281526004016113ca9190612bff565b600060405180830381865afa1580156113e7573d6000803e3d6000fd5b505050506040513d6000823e3d601f19601f820116820180604052508101906114109190613205565b9050600160009054906101000a900473ffffffffffffffffffffffffffffffffffffffff1673ffffffffffffffffffffffffffffffffffffffff1663ddd16bb286836040518363ffffffff167c010000000000000000000000000000000000000000000000000000000002815260040161148b92919061378f565b600060405180830381600087803b1580156114a557600080fd5b505af11580156114b9573d6000803e3d6000fd5b505050505050505050565b6060600160009054906101000a900473ffffffffffffffffffffffffffffffffffffffff1673ffffffffffffffffffffffffffffffffffffffff1663c892522e836040518263ffffffff167c010000000000000000000000000000000000000000000000000000000002815260040161153d91906132fc565b600060405180830381865afa15801561155a573d6000803e3d6000fd5b505050506040513d6000823e3d601f19601f8201168201806040525081019061158391906138a7565b9050919050565b606060008060009054906101000a900473ffffffffffffffffffffffffffffffffffffffff1673ffffffffffffffffffffffffffffffffffffffff16635a7e1989336040518263ffffffff167c01000000000000000000000000000000000000000000000000000000000281526004016116049190612bff565b600060405180830381865afa158015611621573d6000803e3d6000fd5b505050506040513d6000823e3d601f19601f8201168201806040525081019061164a9190613205565b9050600160009054906101000a900473ffffffffffffffffffffffffffffffffffffffff1673ffffffffffffffffffffffffffffffffffffffff16630ac606ca826040518263ffffffff167c01000000000000000000000000000000000000000000000000000000000281526004016116c39190612333565b600060405180830381865afa1580156116e0573d6000803e3d6000fd5b505050506040513d6000823e3d601f19601f8201168201806040525081019061170991906138a7565b91505090565b60008054906101000a900473ffffffffffffffffffffffffffffffffffffffff1681565b61173b61181c565b60008054906101000a900473ffffffffffffffffffffffffffffffffffffffff1673ffffffffffffffffffffffffffffffffffffffff16635a7e1989336040518263ffffffff167c01000000000000000000000000000000000000000000000000000000000281526004016117b09190612bff565b600060405180830381865afa1580156117cd573d6000803e3d6000fd5b505050506040513d6000823e3d601f19601f820116820180604052508101906117f69190613205565b905090565b60405180606001604052806060815260200160608152602001606081525090565b6040518060e00160405280606081526020016060815260200160608152602001606081526020016000600381111561185757611856611da3565b5b8152602001600073ffffffffffffffffffffffffffffffffffffffff168152602001600063ffffffff1681525090565b6040518061014001604052806060815260200160608152602001600060038111156118b5576118b4611da3565b5b815260200160608152602001600060028111156118d5576118d4611da3565b5b81526020016118e261181c565b81526020016000815260200160608152602001600015158152602001606081525090565b6000604051905090565b600080fd5b600080fd5b600073ffffffffffffffffffffffffffffffffffffffff82169050919050565b60006119458261191a565b9050919050565b6119558161193a565b811461196057600080fd5b50565b6000813590506119728161194c565b92915050565b600080fd5b600080fd5b6000601f19601f8301169050919050565b7f4e487b7100000000000000000000000000000000000000000000000000000000600052604160045260246000fd5b6119cb82611982565b810181811067ffffffffffffffff821117156119ea576119e9611993565b5b80604052505050565b60006119fd611906565b9050611a0982826119c2565b919050565b600067ffffffffffffffff821115611a2957611a28611993565b5b611a3282611982565b9050602081019050919050565b82818337600083830152505050565b6000611a61611a5c84611a0e565b6119f3565b905082815260208101848484011115611a7d57611a7c61197d565b5b611a88848285611a3f565b509392505050565b600082601f830112611aa557611aa4611978565b5b8135611ab5848260208601611a4e565b91505092915050565b60048110611acb57600080fd5b50565b600081359050611add81611abe565b92915050565b60008060008060008060c08789031215611b0057611aff611910565b5b6000611b0e89828a01611963565b965050602087013567ffffffffffffffff811115611b2f57611b2e611915565b5b611b3b89828a01611a90565b955050604087013567ffffffffffffffff811115611b5c57611b5b611915565b5b611b6889828a01611a90565b945050606087013567ffffffffffffffff811115611b8957611b88611915565b5b611b9589828a01611a90565b935050608087013567ffffffffffffffff811115611bb657611bb5611915565b5b611bc289828a01611a90565b92505060a0611bd389828a01611ace565b9150509295509295509295565b600080600080600060a08688031215611bfc57611bfb611910565b5b6000611c0a88828901611963565b955050602086013567ffffffffffffffff811115611c2b57611c2a611915565b5b611c3788828901611a90565b945050604086013567ffffffffffffffff811115611c5857611c57611915565b5b611c6488828901611a90565b935050606086013567ffffffffffffffff811115611c8557611c84611915565b5b611c9188828901611a90565b925050608086013567ffffffffffffffff811115611cb257611cb1611915565b5b611cbe88828901611a90565b9150509295509295909350565b600060208284031215611ce157611ce0611910565b5b6000611cef84828501611963565b91505092915050565b600081519050919050565b600082825260208201905092915050565b6000819050602082019050919050565b600081519050919050565b600082825260208201905092915050565b60005b83811015611d5e578082015181840152602081019050611d43565b60008484015250505050565b6000611d7582611d24565b611d7f8185611d2f565b9350611d8f818560208601611d40565b611d9881611982565b840191505092915050565b7f4e487b7100000000000000000000000000000000000000000000000000000000600052602160045260246000fd5b60048110611de357611de2611da3565b5b50565b6000819050611df482611dd2565b919050565b6000611e0482611de6565b9050919050565b611e1481611df9565b82525050565b611e238161193a565b82525050565b600063ffffffff82169050919050565b611e4281611e29565b82525050565b600060e0830160008301518482036000860152611e658282611d6a565b91505060208301518482036020860152611e7f8282611d6a565b91505060408301518482036040860152611e998282611d6a565b91505060608301518482036060860152611eb38282611d6a565b9150506080830151611ec86080860182611e0b565b5060a0830151611edb60a0860182611e1a565b5060c0830151611eee60c0860182611e39565b508091505092915050565b6000611f058383611e48565b905092915050565b6000602082019050919050565b6000611f2582611cf8565b611f2f8185611d03565b935083602082028501611f4185611d14565b8060005b85811015611f7d5784840389528151611f5e8582611ef9565b9450611f6983611f0d565b925060208a01995050600181019050611f45565b50829750879550505050505092915050565b60006020820190508181036000830152611fa98184611f1a565b905092915050565b60008060408385031215611fc857611fc7611910565b5b600083013567ffffffffffffffff811115611fe657611fe5611915565b5b611ff285828601611a90565b925050602083013567ffffffffffffffff81111561201357612012611915565b5b61201f85828601611a90565b9150509250929050565b600060608301600083015184820360008601526120468282611d6a565b915050602083015184820360208601526120608282611d6a565b9150506040830151848203604086015261207a8282611d6a565b9150508091505092915050565b600060208201905081810360008301526120a18184612029565b905092915050565b60008115159050919050565b6120be816120a9565b82525050565b60006020820190506120d960008301846120b5565b92915050565b6120e881611e29565b81146120f357600080fd5b50565b600081359050612105816120df565b92915050565b6000819050919050565b61211e8161210b565b811461212957600080fd5b50565b60008135905061213b81612115565b92915050565b6000806040838503121561215857612157611910565b5b6000612166858286016120f6565b92505060206121778582860161212c565b9150509250929050565b61218a81611e29565b82525050565b60006020820190506121a56000830184612181565b92915050565b600080600080608085870312156121c5576121c4611910565b5b600085013567ffffffffffffffff8111156121e3576121e2611915565b5b6121ef87828801611a90565b945050602085013567ffffffffffffffff8111156122105761220f611915565b5b61221c87828801611a90565b935050604085013567ffffffffffffffff81111561223d5761223c611915565b5b61224987828801611a90565b925050606085013567ffffffffffffffff81111561226a57612269611915565b5b61227687828801611a90565b91505092959194509250565b600060e083016000830151848203600086015261229f8282611d6a565b915050602083015184820360208601526122b98282611d6a565b915050604083015184820360408601526122d38282611d6a565b915050606083015184820360608601526122ed8282611d6a565b91505060808301516123026080860182611e0b565b5060a083015161231560a0860182611e1a565b5060c083015161232860c0860182611e39565b508091505092915050565b6000602082019050818103600083015261234d8184612282565b905092915050565b60006020828403121561236b5761236a611910565b5b6000612379848285016120f6565b91505092915050565b61238b8161193a565b82525050565b60006080820190506123a66000830187612181565b6123b36020830186612181565b6123c06040830185612181565b6123cd6060830184612382565b95945050505050565b6000819050919050565b60006123fb6123f66123f18461191a565b6123d6565b61191a565b9050919050565b600061240d826123e0565b9050919050565b600061241f82612402565b9050919050565b61242f81612414565b82525050565b600060208201905061244a6000830184612426565b92915050565b6004811061245d57600080fd5b50565b60008135905061246f81612450565b92915050565b6003811061248257600080fd5b50565b60008135905061249481612475565b92915050565b600080600080600060a086880312156124b6576124b5611910565b5b600086013567ffffffffffffffff8111156124d4576124d3611915565b5b6124e088828901611a90565b955050602086013567ffffffffffffffff81111561250157612500611915565b5b61250d88828901611a90565b945050604061251e88828901612460565b935050606086013567ffffffffffffffff81111561253f5761253e611915565b5b61254b88828901611a90565b925050608061255c88828901612485565b9150509295509295909350565b60006020828403121561257f5761257e611910565b5b600082013567ffffffffffffffff81111561259d5761259c611915565b5b6125a984828501611a90565b91505092915050565b600481106125c3576125c2611da3565b5b50565b60008190506125d4826125b2565b919050565b60006125e4826125c6565b9050919050565b6125f4816125d9565b82525050565b6003811061260b5761260a611da3565b5b50565b600081905061261c826125fa565b919050565b600061262c8261260e565b9050919050565b61263c81612621565b82525050565b61264b8161210b565b82525050565b600081519050919050565b600082825260208201905092915050565b6000819050602082019050919050565b60006126898383611d6a565b905092915050565b6000602082019050919050565b60006126a982612651565b6126b3818561265c565b9350836020820285016126c58561266d565b8060005b8581101561270157848403895281516126e2858261267d565b94506126ed83612691565b925060208a019950506001810190506126c9565b50829750879550505050505092915050565b61271c816120a9565b82525050565b60006101408301600083015184820360008601526127408282611d6a565b9150506020830151848203602086015261275a8282611d6a565b915050604083015161276f60408601826125eb565b50606083015184820360608601526127878282611d6a565b915050608083015161279c6080860182612633565b5060a083015184820360a08601526127b48282611e48565b91505060c08301516127c960c0860182612642565b5060e083015184820360e08601526127e1828261269e565b9150506101008301516127f8610100860182612713565b506101208301518482036101208601526128128282611d6a565b9150508091505092915050565b600060208201905081810360008301526128398184612722565b905092915050565b6000806040838503121561285857612857611910565b5b600083013567ffffffffffffffff81111561287657612875611915565b5b61288285828601611a90565b925050602061289385828601611963565b9150509250929050565b600081519050919050565b600082825260208201905092915050565b6000819050602082019050919050565b60006101408301600083015184820360008601526128e78282611d6a565b915050602083015184820360208601526129018282611d6a565b915050604083015161291660408601826125eb565b506060830151848203606086015261292e8282611d6a565b91505060808301516129436080860182612633565b5060a083015184820360a086015261295b8282611e48565b91505060c083015161297060c0860182612642565b5060e083015184820360e0860152612988828261269e565b91505061010083015161299f610100860182612713565b506101208301518482036101208601526129b98282611d6a565b9150508091505092915050565b60006129d283836128c9565b905092915050565b6000602082019050919050565b60006129f28261289d565b6129fc81856128a8565b935083602082028501612a0e856128b9565b8060005b85811015612a4a5784840389528151612a2b85826129c6565b9450612a36836129da565b925060208a01995050600181019050612a12565b50829750879550505050505092915050565b60006020820190508181036000830152612a7681846129e7565b905092915050565b6000612a8982612402565b9050919050565b612a9981612a7e565b82525050565b6000602082019050612ab46000830184612a90565b92915050565b600082825260208201905092915050565b6000612ad682611d24565b612ae08185612aba565b9350612af0818560208601611d40565b612af981611982565b840191505092915050565b612b0d81611df9565b82525050565b600060c082019050612b286000830189612382565b8181036020830152612b3a8188612acb565b90508181036040830152612b4e8187612acb565b90508181036060830152612b628186612acb565b90508181036080830152612b768185612acb565b9050612b8560a0830184612b04565b979650505050505050565b600060a082019050612ba56000830188612382565b8181036020830152612bb78187612acb565b90508181036040830152612bcb8186612acb565b90508181036060830152612bdf8185612acb565b90508181036080830152612bf38184612acb565b90509695505050505050565b6000602082019050612c146000830184612382565b92915050565b600067ffffffffffffffff821115612c3557612c34611993565b5b602082029050602081019050919050565b600080fd5b600080fd5b600080fd5b6000612c68612c6384611a0e565b6119f3565b905082815260208101848484011115612c8457612c8361197d565b5b612c8f848285611d40565b509392505050565b600082601f830112612cac57612cab611978565b5b8151612cbc848260208601612c55565b91505092915050565b600081519050612cd481611abe565b92915050565b600081519050612ce98161194c565b92915050565b600081519050612cfe816120df565b92915050565b600060e08284031215612d1a57612d19612c4b565b5b612d2460e06119f3565b9050600082015167ffffffffffffffff811115612d4457612d43612c50565b5b612d5084828501612c97565b600083015250602082015167ffffffffffffffff811115612d7457612d73612c50565b5b612d8084828501612c97565b602083015250604082015167ffffffffffffffff811115612da457612da3612c50565b5b612db084828501612c97565b604083015250606082015167ffffffffffffffff811115612dd457612dd3612c50565b5b612de084828501612c97565b6060830152506080612df484828501612cc5565b60808301525060a0612e0884828501612cda565b60a08301525060c0612e1c84828501612cef565b60c08301525092915050565b6000612e3b612e3684612c1a565b6119f3565b90508083825260208201905060208402830185811115612e5e57612e5d612c46565b5b835b81811015612ea557805167ffffffffffffffff811115612e8357612e82611978565b5b808601612e908982612d04565b85526020850194505050602081019050612e60565b5050509392505050565b600082601f830112612ec457612ec3611978565b5b8151612ed4848260208601612e28565b91505092915050565b600060208284031215612ef357612ef2611910565b5b600082015167ffffffffffffffff811115612f1157612f10611915565b5b612f1d84828501612eaf565b91505092915050565b60006040820190508181036000830152612f408185612acb565b90508181036020830152612f548184612acb565b90509392505050565b600060608284031215612f7357612f72612c4b565b5b612f7d60606119f3565b9050600082015167ffffffffffffffff811115612f9d57612f9c612c50565b5b612fa984828501612c97565b600083015250602082015167ffffffffffffffff811115612fcd57612fcc612c50565b5b612fd984828501612c97565b602083015250604082015167ffffffffffffffff811115612ffd57612ffc612c50565b5b61300984828501612c97565b60408301525092915050565b60006020828403121561302b5761302a611910565b5b600082015167ffffffffffffffff81111561304957613048611915565b5b61305584828501612f5d565b91505092915050565b600067ffffffffffffffff82111561307957613078611993565b5b602082029050602081019050919050565b600061309d6130988461305e565b6119f3565b905080838252602082019050602084028301858111156130c0576130bf612c46565b5b835b818110156130e957806130d58882612cda565b8452602084019350506020810190506130c2565b5050509392505050565b600082601f83011261310857613107611978565b5b815161311884826020860161308a565b91505092915050565b60006020828403121561313757613136611910565b5b600082015167ffffffffffffffff81111561315557613154611915565b5b613161848285016130f3565b91505092915050565b7f4e6f20456e746974696573000000000000000000000000000000000000000000600082015250565b60006131a0600b83612aba565b91506131ab8261316a565b602082019050919050565b600060208201905081810360008301526131cf81613193565b9050919050565b7f4e487b7100000000000000000000000000000000000000000000000000000000600052603260045260246000fd5b60006020828403121561321b5761321a611910565b5b600082015167ffffffffffffffff81111561323957613238611915565b5b61324584828501612d04565b91505092915050565b7f4e487b7100000000000000000000000000000000000000000000000000000000600052601160045260246000fd5b600061328882611e29565b915063ffffffff820361329e5761329d61324e565b5b600182019050919050565b600081905092915050565b60006132bf82611d24565b6132c981856132a9565b93506132d9818560208601611d40565b80840191505092915050565b60006132f182846132b4565b915081905092915050565b600060208201905081810360008301526133168184612acb565b905092915050565b60008151905061332d81612450565b92915050565b60008151905061334281612475565b92915050565b60008151905061335781612115565b92915050565b600067ffffffffffffffff82111561337857613377611993565b5b602082029050602081019050919050565b600061339c6133978461335d565b6119f3565b905080838252602082019050602084028301858111156133bf576133be612c46565b5b835b8181101561340657805167ffffffffffffffff8111156133e4576133e3611978565b5b8086016133f18982612c97565b855260208501945050506020810190506133c1565b5050509392505050565b600082601f83011261342557613424611978565b5b8151613435848260208601613389565b91505092915050565b613447816120a9565b811461345257600080fd5b50565b6000815190506134648161343e565b92915050565b6000610140828403121561348157613480612c4b565b5b61348c6101406119f3565b9050600082015167ffffffffffffffff8111156134ac576134ab612c50565b5b6134b884828501612c97565b600083015250602082015167ffffffffffffffff8111156134dc576134db612c50565b5b6134e884828501612c97565b60208301525060406134fc8482850161331e565b604083015250606082015167ffffffffffffffff8111156135205761351f612c50565b5b61352c84828501612c97565b606083015250608061354084828501613333565b60808301525060a082015167ffffffffffffffff81111561356457613563612c50565b5b61357084828501612d04565b60a08301525060c061358484828501613348565b60c08301525060e082015167ffffffffffffffff8111156135a8576135a7612c50565b5b6135b484828501613410565b60e0830152506101006135c984828501613455565b6101008301525061012082015167ffffffffffffffff8111156135ef576135ee612c50565b5b6135fb84828501612c97565b6101208301525092915050565b60006020828403121561361e5761361d611910565b5b600082015167ffffffffffffffff81111561363c5761363b611915565b5b6136488482850161346a565b91505092915050565b7f4e6f74204f776e65720000000000000000000000000000000000000000000000600082015250565b6000613687600983612aba565b915061369282613651565b602082019050919050565b600060208201905081810360008301526136b68161367a565b9050919050565b600060408201905081810360008301526136d78185612acb565b905081810360208301526136eb8184612029565b90509392505050565b6136fd816125d9565b82525050565b61370c81612621565b82525050565b600060c082019050818103600083015261372c8189612acb565b905081810360208301526137408188612acb565b905061374f60408301876136f4565b81810360608301526137618186612acb565b90506137706080830185613703565b81810360a08301526137828184612282565b9050979650505050505050565b600060408201905081810360008301526137a98185612acb565b905081810360208301526137bd8184612282565b90509392505050565b600067ffffffffffffffff8211156137e1576137e0611993565b5b602082029050602081019050919050565b6000613805613800846137c6565b6119f3565b9050808382526020820190506020840283018581111561382857613827612c46565b5b835b8181101561386f57805167ffffffffffffffff81111561384d5761384c611978565b5b80860161385a898261346a565b8552602085019450505060208101905061382a565b5050509392505050565b600082601f83011261388e5761388d611978565b5b815161389e8482602086016137f2565b91505092915050565b6000602082840312156138bd576138bc611910565b5b600082015167ffffffffffffffff8111156138db576138da611915565b5b6138e784828501613879565b9150509291505056fea2646970667358221220129013c17e5034c9657539717185102a10b0978e01d379be744d388ce5d1ef6c64736f6c63430008130033",
  "immutableReferences": {},
  "source": "pragma solidity >=0.8.0;\r\n\r\nimport \"./EntitiesManager.sol\";\r\nimport \"./EvidencesManager.sol\";\r\n\r\ncontract EvidenceChain {\r\n    EntitiesManager public entitiesManager;\r\n    EvidencesManager public evidencesManager;\r\n\r\n    constructor(\r\n        address _entitiesManagerAddress,\r\n        address _evidencesManagerAddress\r\n    ) {\r\n        entitiesManager = EntitiesManager(_entitiesManagerAddress);\r\n        evidencesManager = EvidencesManager(_evidencesManagerAddress);\r\n    }\r\n\r\n    uint32 public owner_id = 0;\r\n\r\n    struct ownership {\r\n        uint32 evidenceId;\r\n        uint32 ownerId;\r\n        uint32 trxTimeStamp;\r\n        address evidenceOwner;\r\n    }\r\n\r\n    mapping(uint32 => ownership) public ownerships;\r\n    mapping(uint32 => uint32[]) public evidenceTrack;\r\n\r\n    event TransferOwnership(uint32 evidenceId);\r\n    event ParticipantAdded(uint32 indexed userId);\r\n    event EvidenceAdded(uint32 indexed evidenceId);\r\n\r\n    function addEntity(\r\n        address _entity,\r\n        string memory _userName,\r\n        string memory _password,\r\n        string memory _name,\r\n        string memory _departmentCode,\r\n        EntitiesManager.EntityType _entityType\r\n    ) public {\r\n        entitiesManager.createEntity(\r\n            _entity,\r\n            _userName,\r\n            _password,\r\n            _name,\r\n            _departmentCode,\r\n            _entityType\r\n        );\r\n    }\r\n\r\n    function updateEntity(\r\n        address _entity,\r\n        string memory _userName,\r\n        string memory _password,\r\n        string memory _name,\r\n        string memory _departmentCode\r\n    ) public {\r\n        entitiesManager.updateEntity(\r\n            _entity,\r\n            _userName,\r\n            _password,\r\n            _name,\r\n            _departmentCode\r\n        );\r\n    }\r\n\r\n    function getEntities()\r\n        public\r\n        view\r\n        returns (EntitiesManager.Entity[] memory)\r\n    {\r\n        address[] memory entityAddresses = entitiesManager.getEntities();\r\n        require(entityAddresses.length > 0, \"No Entities\");\r\n        EntitiesManager.Entity[] memory entities = new EntitiesManager.Entity[](\r\n            entityAddresses.length\r\n        );\r\n        for (uint32 i = 0; i < entityAddresses.length; i++) {\r\n            entities[i] = entitiesManager.getLastUpdate(entityAddresses[i]);\r\n        }\r\n\r\n        return entities;\r\n    }\r\n\r\n    function getEntityHistory()\r\n        public\r\n        view\r\n        returns (EntitiesManager.Entity[] memory)\r\n    {\r\n        return entitiesManager.getEntityHistory(msg.sender);\r\n    }\r\n\r\n    function getEntityHistory(\r\n        address _entity\r\n    ) public view returns (EntitiesManager.Entity[] memory) {\r\n        return entitiesManager.getEntityHistory(_entity);\r\n    }\r\n\r\n    function getEntity(\r\n        address _entity\r\n    ) public view returns (EntitiesManager.Entity memory) {\r\n        return entitiesManager.getLastUpdate(_entity);\r\n    }\r\n\r\n    function getEntity() public view returns (EntitiesManager.Entity memory) {\r\n        return entitiesManager.getLastUpdate(msg.sender);\r\n    }\r\n\r\n    function authenticateEntity(\r\n        string memory _uname,\r\n        string memory _pass\r\n    ) public view returns (bool) {\r\n        EntitiesManager.Entity memory entity = entitiesManager.getLastUpdate(\r\n            msg.sender\r\n        );\r\n\r\n        if (\r\n            keccak256(abi.encodePacked(entity.userName)) ==\r\n            keccak256(abi.encodePacked(_uname))\r\n        ) {\r\n            if (\r\n                keccak256(abi.encodePacked(entity.password)) ==\r\n                keccak256(abi.encodePacked(_pass))\r\n            ) {\r\n                return (true);\r\n            }\r\n        }\r\n\r\n        return (false);\r\n    }\r\n\r\n    function addEvidence(\r\n        string memory _evidenceUniqueCode,\r\n        string memory _caseNo,\r\n        EvidencesManager.EvidenceClassification _classification,\r\n        string memory _evidenceName,\r\n        EvidencesManager.EvidenceType _evidenceType\r\n    ) public {\r\n        EntitiesManager.Entity memory _entity = entitiesManager.getLastUpdate(\r\n            msg.sender\r\n        );\r\n        evidencesManager.addEvidence(\r\n            _evidenceUniqueCode,\r\n            _caseNo,\r\n            _classification,\r\n            _evidenceName,\r\n            _evidenceType,\r\n            _entity\r\n        );\r\n    }\r\n\r\n    // function addEvidence(\r\n    //     string memory _evidenceUniqueCode,\r\n    //     string memory _caseNo,\r\n    //     string memory _classification,\r\n    //     string memory _evidenceName,\r\n    //     string memory _evidenceType,\r\n    //     EvidencesManager.EvidenceFile[] memory _files\r\n    // ) public {\r\n    //     EntitiesManager.Entity memory _entity = entitiesManager.getLastUpdate(\r\n    //         msg.sender\r\n    //     );\r\n    //     require(\r\n    //         keccak256(abi.encodePacked(_entity.entityType)) ==\r\n    //             keccak256(\"Police\"),\r\n    //         \"Not Police.\"\r\n    //     );\r\n    //     evidencesManager.addEvidence(\r\n    //         _evidenceUniqueCode,\r\n    //         _caseNo,\r\n    //         _classification,\r\n    //         _evidenceName,\r\n    //         _evidenceType,\r\n    //         _entity,\r\n    //         _files\r\n    //     );\r\n    // }\r\n\r\n    function getEvidences()\r\n        public\r\n        view\r\n        returns (EvidencesManager.Evidence[] memory)\r\n    {\r\n        EntitiesManager.Entity memory entity = entitiesManager.getLastUpdate(msg.sender);\r\n        return evidencesManager.getEvidences(entity);\r\n    }\r\n\r\n    function getEvidenceHistory(\r\n        string memory _evidenceUniqueCode\r\n    ) public view returns (EvidencesManager.Evidence[] memory) {\r\n        return evidencesManager.getEvidenceHistory(_evidenceUniqueCode);\r\n    }\r\n\r\n    function getEvidence(\r\n        string memory _evidenceUniqueCode\r\n    ) public view returns (EvidencesManager.Evidence memory) {\r\n        return evidencesManager.getLastUpdate(_evidenceUniqueCode);\r\n    }\r\n\r\n    function evidenceNewOwner(\r\n        string memory _evidenceUniqueCode,\r\n        address _newOwner\r\n    ) public onlyOwner(_evidenceUniqueCode) {\r\n        EntitiesManager.Entity memory _entity = entitiesManager.getLastUpdate(\r\n            _newOwner\r\n        );\r\n        evidencesManager.updateOwner(_evidenceUniqueCode, _entity);\r\n    }\r\n\r\n    function addFile(\r\n        string memory _evidenceUniqueCode,\r\n        string memory _fileId,\r\n        string memory _fileName,\r\n        string memory _fileHash\r\n    ) public onlyOwner(_evidenceUniqueCode) {\r\n        EvidencesManager.EvidenceFile memory file =  EvidencesManager.EvidenceFile(_fileId, _fileName, _fileHash);\r\n        evidencesManager.addFile(_evidenceUniqueCode, file);\r\n    }\r\n\r\n    modifier onlyOwner(string memory _evidenceUniqueCode) {\r\n        EvidencesManager.Evidence memory _evidence = evidencesManager\r\n            .getLastUpdate(_evidenceUniqueCode);\r\n        require(msg.sender == _evidence.owner.entityAddress, \"Not Owner\");\r\n        _;\r\n    }\r\n\r\n    function getFileInfo(string memory _evidenceUniqueCode, string memory _fileUniqueCode) external view returns (EvidencesManager.EvidenceFile memory)\r\n    {\r\n        return evidencesManager.getFileInfo(_evidenceUniqueCode, _fileUniqueCode);\r\n    }\r\n    \r\n    // function getProvenance(\r\n    //     uint32 _evidenceId\r\n    // ) external view returns (uint32[] memory) {\r\n    //     return evidenceTrack[_evidenceId];\r\n    // }\r\n\r\n    // function getOwnership(\r\n    //     uint32 _regId\r\n    // ) public view returns (uint32, uint32, address, uint32) {\r\n    //     ownership memory r = ownerships[_regId];\r\n\r\n    //     return (r.evidenceId, r.ownerId, r.evidenceOwner, r.trxTimeStamp);\r\n    // }\r\n}\r\n",
  "sourcePath": "C:\\IPCA DISSERTAO\\evidences_dapp\\contracts\\EvidenceChain.sol",
  "compiler": {
    "name": "solc",
    "version": "0.8.19+commit.7dd6d404.Emscripten.clang"
  },
  "schemaVersion": "3.4.13",
  "updatedAt": "2023-09-24T16:55:53.803Z",
  "networkType": "ethereum",
  "devdoc": {
    "kind": "dev",
    "methods": {},
    "version": 1
  },
  "userdoc": {
    "kind": "user",
    "methods": {},
    "version": 1
  }
}