{
  "contractName": "EvidenceChain",
  "abi": [
    {
      "anonymous": false,
      "inputs": [
        {
          "indexed": true,
          "internalType": "uint32",
          "name": "evidenceId",
          "type": "uint32"
        }
      ],
      "name": "EvidenceAdded",
      "type": "event"
    },
    {
      "anonymous": false,
      "inputs": [
        {
          "indexed": true,
          "internalType": "uint32",
          "name": "userId",
          "type": "uint32"
        }
      ],
      "name": "ParticipantAdded",
      "type": "event"
    },
    {
      "anonymous": false,
      "inputs": [
        {
          "indexed": false,
          "internalType": "uint32",
          "name": "evidenceId",
          "type": "uint32"
        }
      ],
      "name": "TransferOwnership",
      "type": "event"
    },
    {
      "inputs": [
        {
          "internalType": "uint32",
          "name": "",
          "type": "uint32"
        },
        {
          "internalType": "uint256",
          "name": "",
          "type": "uint256"
        }
      ],
      "name": "evidenceTrack",
      "outputs": [
        {
          "internalType": "uint32",
          "name": "",
          "type": "uint32"
        }
      ],
      "stateMutability": "view",
      "type": "function",
      "constant": true
    },
    {
      "inputs": [],
      "name": "evidence_id",
      "outputs": [
        {
          "internalType": "uint32",
          "name": "",
          "type": "uint32"
        }
      ],
      "stateMutability": "view",
      "type": "function",
      "constant": true
    },
    {
      "inputs": [],
      "name": "owner_id",
      "outputs": [
        {
          "internalType": "uint32",
          "name": "",
          "type": "uint32"
        }
      ],
      "stateMutability": "view",
      "type": "function",
      "constant": true
    },
    {
      "inputs": [
        {
          "internalType": "uint32",
          "name": "",
          "type": "uint32"
        }
      ],
      "name": "ownerships",
      "outputs": [
        {
          "internalType": "uint32",
          "name": "evidenceId",
          "type": "uint32"
        },
        {
          "internalType": "uint32",
          "name": "ownerId",
          "type": "uint32"
        },
        {
          "internalType": "uint32",
          "name": "trxTimeStamp",
          "type": "uint32"
        },
        {
          "internalType": "address",
          "name": "evidenceOwner",
          "type": "address"
        }
      ],
      "stateMutability": "view",
      "type": "function",
      "constant": true
    },
    {
      "inputs": [],
      "name": "participant_id",
      "outputs": [
        {
          "internalType": "uint32",
          "name": "",
          "type": "uint32"
        }
      ],
      "stateMutability": "view",
      "type": "function",
      "constant": true
    },
    {
      "inputs": [
        {
          "internalType": "string",
          "name": "_name",
          "type": "string"
        },
        {
          "internalType": "string",
          "name": "_pass",
          "type": "string"
        },
        {
          "internalType": "address",
          "name": "_pAdd",
          "type": "address"
        },
        {
          "internalType": "string",
          "name": "_pType",
          "type": "string"
        }
      ],
      "name": "addParticipant",
      "outputs": [],
      "stateMutability": "nonpayable",
      "type": "function"
    },
    {
      "inputs": [],
      "name": "getParticipants",
      "outputs": [
        {
          "components": [
            {
              "internalType": "string",
              "name": "userName",
              "type": "string"
            },
            {
              "internalType": "string",
              "name": "password",
              "type": "string"
            },
            {
              "internalType": "string",
              "name": "participantType",
              "type": "string"
            },
            {
              "internalType": "address",
              "name": "participantAddress",
              "type": "address"
            }
          ],
          "internalType": "struct EvidenceChain.Participant[]",
          "name": "",
          "type": "tuple[]"
        }
      ],
      "stateMutability": "view",
      "type": "function",
      "constant": true
    },
    {
      "inputs": [],
      "name": "getParticipant",
      "outputs": [
        {
          "components": [
            {
              "internalType": "string",
              "name": "userName",
              "type": "string"
            },
            {
              "internalType": "string",
              "name": "password",
              "type": "string"
            },
            {
              "internalType": "string",
              "name": "participantType",
              "type": "string"
            },
            {
              "internalType": "address",
              "name": "participantAddress",
              "type": "address"
            }
          ],
          "internalType": "struct EvidenceChain.Participant",
          "name": "",
          "type": "tuple"
        }
      ],
      "stateMutability": "view",
      "type": "function",
      "constant": true
    },
    {
      "inputs": [
        {
          "internalType": "string",
          "name": "_evidenceUniqueCode",
          "type": "string"
        },
        {
          "internalType": "string",
          "name": "_evidenceName",
          "type": "string"
        },
        {
          "internalType": "string",
          "name": "_evidenceType",
          "type": "string"
        }
      ],
      "name": "addEvidence",
      "outputs": [],
      "stateMutability": "nonpayable",
      "type": "function"
    },
    {
      "inputs": [],
      "name": "getEvidences",
      "outputs": [
        {
          "components": [
            {
              "internalType": "string",
              "name": "evidenceUniqueCode",
              "type": "string"
            },
            {
              "internalType": "string",
              "name": "evidenceName",
              "type": "string"
            },
            {
              "internalType": "string",
              "name": "evidenceType",
              "type": "string"
            },
            {
              "internalType": "address",
              "name": "evidenceOwner",
              "type": "address"
            },
            {
              "internalType": "uint32",
              "name": "mfgTimeStamp",
              "type": "uint32"
            }
          ],
          "internalType": "struct EvidenceChain.Evidence[]",
          "name": "",
          "type": "tuple[]"
        }
      ],
      "stateMutability": "view",
      "type": "function",
      "constant": true
    },
    {
      "inputs": [
        {
          "internalType": "uint32",
          "name": "_evidenceId",
          "type": "uint32"
        }
      ],
      "name": "getEvidence",
      "outputs": [
        {
          "internalType": "string",
          "name": "",
          "type": "string"
        },
        {
          "internalType": "string",
          "name": "",
          "type": "string"
        },
        {
          "internalType": "address",
          "name": "",
          "type": "address"
        },
        {
          "internalType": "uint32",
          "name": "",
          "type": "uint32"
        }
      ],
      "stateMutability": "view",
      "type": "function",
      "constant": true
    },
    {
      "inputs": [
        {
          "internalType": "uint32",
          "name": "_user1Id",
          "type": "uint32"
        },
        {
          "internalType": "uint32",
          "name": "_user2Id",
          "type": "uint32"
        },
        {
          "internalType": "uint32",
          "name": "_evidId",
          "type": "uint32"
        }
      ],
      "name": "newOwner",
      "outputs": [
        {
          "internalType": "bool",
          "name": "",
          "type": "bool"
        }
      ],
      "stateMutability": "nonpayable",
      "type": "function"
    },
    {
      "inputs": [
        {
          "internalType": "uint32",
          "name": "_evidenceId",
          "type": "uint32"
        }
      ],
      "name": "getProvenance",
      "outputs": [
        {
          "internalType": "uint32[]",
          "name": "",
          "type": "uint32[]"
        }
      ],
      "stateMutability": "view",
      "type": "function",
      "constant": true
    },
    {
      "inputs": [
        {
          "internalType": "uint32",
          "name": "_regId",
          "type": "uint32"
        }
      ],
      "name": "getOwnership",
      "outputs": [
        {
          "internalType": "uint32",
          "name": "",
          "type": "uint32"
        },
        {
          "internalType": "uint32",
          "name": "",
          "type": "uint32"
        },
        {
          "internalType": "address",
          "name": "",
          "type": "address"
        },
        {
          "internalType": "uint32",
          "name": "",
          "type": "uint32"
        }
      ],
      "stateMutability": "view",
      "type": "function",
      "constant": true
    },
    {
      "inputs": [
        {
          "internalType": "uint32",
          "name": "_uid",
          "type": "uint32"
        },
        {
          "internalType": "string",
          "name": "_uname",
          "type": "string"
        },
        {
          "internalType": "string",
          "name": "_pass",
          "type": "string"
        },
        {
          "internalType": "string",
          "name": "_utype",
          "type": "string"
        }
      ],
      "name": "authenticateParticipant",
      "outputs": [
        {
          "internalType": "bool",
          "name": "",
          "type": "bool"
        }
      ],
      "stateMutability": "view",
      "type": "function",
      "constant": true
    }
  ],
  "bytecode": "0x608060405260008060006101000a81548163ffffffff021916908363ffffffff16021790555060008060046101000a81548163ffffffff021916908363ffffffff16021790555060008060086101000a81548163ffffffff021916908363ffffffff16021790555034801561007357600080fd5b50613a37806100836000396000f3fe608060405234801561001057600080fd5b50600436106100f55760003560e01c8063721b574311610097578063df6d23f111610066578063df6d23f1146102b4578063dff95aac146102e7578063ebf43a7e14610305578063fc2da91014610321576100f5565b8063721b57431461020357806381e15610146102335780638f5ebf7114610266578063c856956514610284576100f5565b80633cc36a29116100d35780633cc36a29146101665780633cf16fda146101995780635760620b146101b55780635aa68ac0146101e5576100f5565b806314b87862146100fa5780632e9d5284146101185780633c3e841c14610148575b600080fd5b61010261033f565b60405161010f91906128bd565b60405180910390f35b610132600480360381019061012d919061292f565b610674565b60405161013f919061299d565b60405180910390f35b6101506114ca565b60405161015d91906129c7565b60405180910390f35b610180600480360381019061017b91906129e2565b6114de565b6040516101909493929190612a68565b60405180910390f35b6101b360048036038101906101ae9190612bf0565b6116e9565b005b6101cf60048036038101906101ca9190612ccd565b61199d565b6040516101dc91906129c7565b60405180910390f35b6101ed6119e6565b6040516101fa9190612e40565b60405180910390f35b61021d60048036038101906102189190612e62565b611c98565b60405161022a919061299d565b60405180910390f35b61024d600480360381019061024891906129e2565b611e29565b60405161025d9493929190612f1d565b60405180910390f35b61026e611ea9565b60405161027b91906129c7565b60405180910390f35b61029e600480360381019061029991906129e2565b611ebf565b6040516102ab9190613020565b60405180910390f35b6102ce60048036038101906102c991906129e2565b611f62565b6040516102de9493929190613042565b60405180910390f35b6102ef612082565b6040516102fc91906131cd565b60405180910390f35b61031f600480360381019061031a919061321b565b61235a565b005b6103296124c4565b60405161033691906129c7565b60405180910390f35b61034761273d565b60005b6002805490508163ffffffff161015610635573373ffffffffffffffffffffffffffffffffffffffff1660028263ffffffff168154811061038e5761038d6132d6565b5b906000526020600020906004020160030160009054906101000a900473ffffffffffffffffffffffffffffffffffffffff1673ffffffffffffffffffffffffffffffffffffffff16036106225760028163ffffffff16815481106103f5576103f46132d6565b5b906000526020600020906004020160405180608001604052908160008201805461041e90613334565b80601f016020809104026020016040519081016040528092919081815260200182805461044a90613334565b80156104975780601f1061046c57610100808354040283529160200191610497565b820191906000526020600020905b81548152906001019060200180831161047a57829003601f168201915b505050505081526020016001820180546104b090613334565b80601f01602080910402602001604051908101604052809291908181526020018280546104dc90613334565b80156105295780601f106104fe57610100808354040283529160200191610529565b820191906000526020600020905b81548152906001019060200180831161050c57829003601f168201915b5050505050815260200160028201805461054290613334565b80601f016020809104026020016040519081016040528092919081815260200182805461056e90613334565b80156105bb5780601f10610590576101008083540402835291602001916105bb565b820191906000526020600020905b81548152906001019060200180831161059e57829003601f168201915b505050505081526020016003820160009054906101000a900473ffffffffffffffffffffffffffffffffffffffff1673ffffffffffffffffffffffffffffffffffffffff1673ffffffffffffffffffffffffffffffffffffffff1681525050915050610671565b808061062d90613394565b91505061034a565b506040517f08c379a00000000000000000000000000000000000000000000000000000000081526004016106689061340c565b60405180910390fd5b90565b60008160018163ffffffff1681548110610691576106906132d6565b5b906000526020600020906004020160030160009054906101000a900473ffffffffffffffffffffffffffffffffffffffff1673ffffffffffffffffffffffffffffffffffffffff163373ffffffffffffffffffffffffffffffffffffffff1614610730576040517f08c379a000000000000000000000000000000000000000000000000000000000815260040161072790613452565b60405180910390fd5b600060028663ffffffff168154811061074c5761074b6132d6565b5b906000526020600020906004020160405180608001604052908160008201805461077590613334565b80601f01602080910402602001604051908101604052809291908181526020018280546107a190613334565b80156107ee5780601f106107c3576101008083540402835291602001916107ee565b820191906000526020600020905b8154815290600101906020018083116107d157829003601f168201915b5050505050815260200160018201805461080790613334565b80601f016020809104026020016040519081016040528092919081815260200182805461083390613334565b80156108805780601f1061085557610100808354040283529160200191610880565b820191906000526020600020905b81548152906001019060200180831161086357829003601f168201915b5050505050815260200160028201805461089990613334565b80601f01602080910402602001604051908101604052809291908181526020018280546108c590613334565b80156109125780601f106108e757610100808354040283529160200191610912565b820191906000526020600020905b8154815290600101906020018083116108f557829003601f168201915b505050505081526020016003820160009054906101000a900473ffffffffffffffffffffffffffffffffffffffff1673ffffffffffffffffffffffffffffffffffffffff1673ffffffffffffffffffffffffffffffffffffffff16815250509050600060028663ffffffff168154811061098f5761098e6132d6565b5b90600052602060002090600402016040518060800160405290816000820180546109b890613334565b80601f01602080910402602001604051908101604052809291908181526020018280546109e490613334565b8015610a315780601f10610a0657610100808354040283529160200191610a31565b820191906000526020600020905b815481529060010190602001808311610a1457829003601f168201915b50505050508152602001600182018054610a4a90613334565b80601f0160208091040260200160405190810160405280929190818152602001828054610a7690613334565b8015610ac35780601f10610a9857610100808354040283529160200191610ac3565b820191906000526020600020905b815481529060010190602001808311610aa657829003601f168201915b50505050508152602001600282018054610adc90613334565b80601f0160208091040260200160405190810160405280929190818152602001828054610b0890613334565b8015610b555780601f10610b2a57610100808354040283529160200191610b55565b820191906000526020600020905b815481529060010190602001808311610b3857829003601f168201915b505050505081526020016003820160009054906101000a900473ffffffffffffffffffffffffffffffffffffffff1673ffffffffffffffffffffffffffffffffffffffff1673ffffffffffffffffffffffffffffffffffffffff16815250509050600080600881819054906101000a900463ffffffff1680929190610bd990613394565b91906101000a81548163ffffffff021916908363ffffffff16021790555090507fe419ba2484d9efb5ea120ea8d8b86dc666551db29ed65e4d8c975262e7a9c3658360400151604051602001610c2f91906134ae565b60405160208183030381529060405280519060200120148015610c9b57507f97feb579382c507528a724d35d13152502303d69e2d8746a3694fefd9013b47c8260400151604051602001610c8391906134ae565b60405160208183030381529060405280519060200120145b15610ee45785600360008363ffffffff1663ffffffff16815260200190815260200160002060000160006101000a81548163ffffffff021916908363ffffffff1602179055508160600151600360008363ffffffff1663ffffffff168152602001908152602001600020600001600c6101000a81548173ffffffffffffffffffffffffffffffffffffffff021916908373ffffffffffffffffffffffffffffffffffffffff16021790555086600360008363ffffffff1663ffffffff16815260200190815260200160002060000160046101000a81548163ffffffff021916908363ffffffff16021790555042600360008363ffffffff1663ffffffff16815260200190815260200160002060000160086101000a81548163ffffffff021916908363ffffffff160217905550816060015160018763ffffffff1681548110610de757610de66132d6565b5b906000526020600020906004020160030160006101000a81548173ffffffffffffffffffffffffffffffffffffffff021916908373ffffffffffffffffffffffffffffffffffffffff160217905550600460008763ffffffff1663ffffffff1681526020019081526020016000208190806001815401808255809150506001900390600052602060002090600891828204019190066004029091909190916101000a81548163ffffffff021916908363ffffffff1602179055507fa5470ac012c6e9dc500e62b1d3de0de58db49b3ab7cfebbfb126d9abd854199b86604051610ed091906129c7565b60405180910390a1600194505050506114c2565b7f97feb579382c507528a724d35d13152502303d69e2d8746a3694fefd9013b47c8360400151604051602001610f1a91906134ae565b60405160208183030381529060405280519060200120148015610f8657507f97feb579382c507528a724d35d13152502303d69e2d8746a3694fefd9013b47c8260400151604051602001610f6e91906134ae565b60405160208183030381529060405280519060200120145b156111cf5785600360008363ffffffff1663ffffffff16815260200190815260200160002060000160006101000a81548163ffffffff021916908363ffffffff1602179055508160600151600360008363ffffffff1663ffffffff168152602001908152602001600020600001600c6101000a81548173ffffffffffffffffffffffffffffffffffffffff021916908373ffffffffffffffffffffffffffffffffffffffff16021790555086600360008363ffffffff1663ffffffff16815260200190815260200160002060000160046101000a81548163ffffffff021916908363ffffffff16021790555042600360008363ffffffff1663ffffffff16815260200190815260200160002060000160086101000a81548163ffffffff021916908363ffffffff160217905550816060015160018763ffffffff16815481106110d2576110d16132d6565b5b906000526020600020906004020160030160006101000a81548173ffffffffffffffffffffffffffffffffffffffff021916908373ffffffffffffffffffffffffffffffffffffffff160217905550600460008763ffffffff1663ffffffff1681526020019081526020016000208190806001815401808255809150506001900390600052602060002090600891828204019190066004029091909190916101000a81548163ffffffff021916908363ffffffff1602179055507fa5470ac012c6e9dc500e62b1d3de0de58db49b3ab7cfebbfb126d9abd854199b866040516111bb91906129c7565b60405180910390a1600194505050506114c2565b7f97feb579382c507528a724d35d13152502303d69e2d8746a3694fefd9013b47c836040015160405160200161120591906134ae565b6040516020818303038152906040528051906020012014801561127157507f010ecf2d9ebf239264ee38bd2aa310b2266900d2c98c300663a8c5e952493759826040015160405160200161125991906134ae565b60405160208183030381529060405280519060200120145b156114ba5785600360008363ffffffff1663ffffffff16815260200190815260200160002060000160006101000a81548163ffffffff021916908363ffffffff1602179055508160600151600360008363ffffffff1663ffffffff168152602001908152602001600020600001600c6101000a81548173ffffffffffffffffffffffffffffffffffffffff021916908373ffffffffffffffffffffffffffffffffffffffff16021790555086600360008363ffffffff1663ffffffff16815260200190815260200160002060000160046101000a81548163ffffffff021916908363ffffffff16021790555042600360008363ffffffff1663ffffffff16815260200190815260200160002060000160086101000a81548163ffffffff021916908363ffffffff160217905550816060015160018763ffffffff16815481106113bd576113bc6132d6565b5b906000526020600020906004020160030160006101000a81548173ffffffffffffffffffffffffffffffffffffffff021916908373ffffffffffffffffffffffffffffffffffffffff160217905550600460008763ffffffff1663ffffffff1681526020019081526020016000208190806001815401808255809150506001900390600052602060002090600891828204019190066004029091909190916101000a81548163ffffffff021916908363ffffffff1602179055507fa5470ac012c6e9dc500e62b1d3de0de58db49b3ab7cfebbfb126d9abd854199b866040516114a691906129c7565b60405180910390a1600194505050506114c2565b600094505050505b509392505050565b60008054906101000a900463ffffffff1681565b60608060008060018563ffffffff16815481106114fe576114fd6132d6565b5b906000526020600020906004020160010160018663ffffffff1681548110611529576115286132d6565b5b906000526020600020906004020160020160018763ffffffff1681548110611554576115536132d6565b5b906000526020600020906004020160030160009054906101000a900473ffffffffffffffffffffffffffffffffffffffff1660018863ffffffff16815481106115a05761159f6132d6565b5b906000526020600020906004020160030160149054906101000a900463ffffffff168380546115ce90613334565b80601f01602080910402602001604051908101604052809291908181526020018280546115fa90613334565b80156116475780601f1061161c57610100808354040283529160200191611647565b820191906000526020600020905b81548152906001019060200180831161162a57829003601f168201915b5050505050935082805461165a90613334565b80601f016020809104026020016040519081016040528092919081815260200182805461168690613334565b80156116d35780601f106116a8576101008083540402835291602001916116d3565b820191906000526020600020905b8154815290600101906020018083116116b657829003601f168201915b5050505050925093509350935093509193509193565b6116f2836124da565b6116fb57600080fd5b600061170561257b565b905060008160030b121561174e576040517f08c379a000000000000000000000000000000000000000000000000000000000815260040161174590613511565b60405180910390fd5b7fe419ba2484d9efb5ea120ea8d8b86dc666551db29ed65e4d8c975262e7a9c36560028263ffffffff1681548110611789576117886132d6565b5b90600052602060002090600402016002016040516020016117aa91906135c9565b6040516020818303038152906040528051906020012014611800576040517f08c379a00000000000000000000000000000000000000000000000000000000081526004016117f79061362c565b60405180910390fd5b600080600081819054906101000a900463ffffffff168092919061182390613394565b91906101000a81548163ffffffff021916908363ffffffff160217905550905060016040518060a001604052808781526020018681526020018581526020013373ffffffffffffffffffffffffffffffffffffffff1681526020014263ffffffff16815250908060018154018082558091505060019003906000526020600020906004020160009091909190915060008201518160000190816118c691906137e3565b5060208201518160010190816118dc91906137e3565b5060408201518160020190816118f291906137e3565b5060608201518160030160006101000a81548173ffffffffffffffffffffffffffffffffffffffff021916908373ffffffffffffffffffffffffffffffffffffffff16021790555060808201518160030160146101000a81548163ffffffff021916908363ffffffff16021790555050508063ffffffff167fe535b34a551b1d8fc8ab11f8c18f139a4ccb39aef2f138683574f74e21a73b9460405160405180910390a25050505050565b600460205281600052604060002081815481106119b957600080fd5b9060005260206000209060089182820401919006600402915091509054906101000a900463ffffffff1681565b60606119f061266b565b611a2f576040517f08c379a0000000000000000000000000000000000000000000000000000000008152600401611a2690613927565b60405180910390fd5b6002805480602002602001604051908101604052809291908181526020016000905b82821015611c8f5783829060005260206000209060040201604051806080016040529081600082018054611a8490613334565b80601f0160208091040260200160405190810160405280929190818152602001828054611ab090613334565b8015611afd5780601f10611ad257610100808354040283529160200191611afd565b820191906000526020600020905b815481529060010190602001808311611ae057829003601f168201915b50505050508152602001600182018054611b1690613334565b80601f0160208091040260200160405190810160405280929190818152602001828054611b4290613334565b8015611b8f5780601f10611b6457610100808354040283529160200191611b8f565b820191906000526020600020905b815481529060010190602001808311611b7257829003601f168201915b50505050508152602001600282018054611ba890613334565b80601f0160208091040260200160405190810160405280929190818152602001828054611bd490613334565b8015611c215780601f10611bf657610100808354040283529160200191611c21565b820191906000526020600020905b815481529060010190602001808311611c0457829003601f168201915b505050505081526020016003820160009054906101000a900473ffffffffffffffffffffffffffffffffffffffff1673ffffffffffffffffffffffffffffffffffffffff1673ffffffffffffffffffffffffffffffffffffffff168152505081526020019060010190611a51565b50505050905090565b600081604051602001611cab91906134ae565b6040516020818303038152906040528051906020012060028663ffffffff1681548110611cdb57611cda6132d6565b5b9060005260206000209060040201600201604051602001611cfc91906135c9565b6040516020818303038152906040528051906020012003611e1c5783604051602001611d2891906134ae565b6040516020818303038152906040528051906020012060028663ffffffff1681548110611d5857611d576132d6565b5b9060005260206000209060040201600001604051602001611d7991906135c9565b6040516020818303038152906040528051906020012003611e1b5782604051602001611da591906134ae565b6040516020818303038152906040528051906020012060028663ffffffff1681548110611dd557611dd46132d6565b5b9060005260206000209060040201600101604051602001611df691906135c9565b6040516020818303038152906040528051906020012003611e1a5760019050611e21565b5b5b600090505b949350505050565b60036020528060005260406000206000915090508060000160009054906101000a900463ffffffff16908060000160049054906101000a900463ffffffff16908060000160089054906101000a900463ffffffff169080600001600c9054906101000a900473ffffffffffffffffffffffffffffffffffffffff16905084565b600060089054906101000a900463ffffffff1681565b6060600460008363ffffffff1663ffffffff168152602001908152602001600020805480602002602001604051908101604052809291908181526020018280548015611f5657602002820191906000526020600020906000905b82829054906101000a900463ffffffff1663ffffffff1681526020019060040190602082600301049283019260010382029150808411611f195790505b50505050509050919050565b6000806000806000600360008763ffffffff1663ffffffff1681526020019081526020016000206040518060800160405290816000820160009054906101000a900463ffffffff1663ffffffff1663ffffffff1681526020016000820160049054906101000a900463ffffffff1663ffffffff1663ffffffff1681526020016000820160089054906101000a900463ffffffff1663ffffffff1663ffffffff16815260200160008201600c9054906101000a900473ffffffffffffffffffffffffffffffffffffffff1673ffffffffffffffffffffffffffffffffffffffff1673ffffffffffffffffffffffffffffffffffffffff1681525050905080600001518160200151826060015183604001519450945094509450509193509193565b606061208c61266b565b6120cb576040517f08c379a00000000000000000000000000000000000000000000000000000000081526004016120c290613927565b60405180910390fd5b6001805480602002602001604051908101604052809291908181526020016000905b8282101561235157838290600052602060002090600402016040518060a001604052908160008201805461212090613334565b80601f016020809104026020016040519081016040528092919081815260200182805461214c90613334565b80156121995780601f1061216e57610100808354040283529160200191612199565b820191906000526020600020905b81548152906001019060200180831161217c57829003601f168201915b505050505081526020016001820180546121b290613334565b80601f01602080910402602001604051908101604052809291908181526020018280546121de90613334565b801561222b5780601f106122005761010080835404028352916020019161222b565b820191906000526020600020905b81548152906001019060200180831161220e57829003601f168201915b5050505050815260200160028201805461224490613334565b80601f016020809104026020016040519081016040528092919081815260200182805461227090613334565b80156122bd5780601f10612292576101008083540402835291602001916122bd565b820191906000526020600020905b8154815290600101906020018083116122a057829003601f168201915b505050505081526020016003820160009054906101000a900473ffffffffffffffffffffffffffffffffffffffff1673ffffffffffffffffffffffffffffffffffffffff1673ffffffffffffffffffffffffffffffffffffffff1681526020016003820160149054906101000a900463ffffffff1663ffffffff1663ffffffff1681525050815260200190600101906120ed565b50505050905090565b600080600481819054906101000a900463ffffffff168092919061237d90613394565b91906101000a81548163ffffffff021916908363ffffffff1602179055509050600260405180608001604052808781526020018681526020018481526020018573ffffffffffffffffffffffffffffffffffffffff168152509080600181540180825580915050600190039060005260206000209060040201600090919091909150600082015181600001908161241491906137e3565b50602082015181600101908161242a91906137e3565b50604082015181600201908161244091906137e3565b5060608201518160030160006101000a81548173ffffffffffffffffffffffffffffffffffffffff021916908373ffffffffffffffffffffffffffffffffffffffff16021790555050508063ffffffff167f6fcb9d018504c0b1d3044f5b2ddb31fdb32b68f679b251577df346974255d18760405160405180910390a25050505050565b600060049054906101000a900463ffffffff1681565b600080600090505b60008054906101000a900463ffffffff1663ffffffff168163ffffffff16101561257057828051906020012060018263ffffffff1681548110612528576125276132d6565b5b906000526020600020906004020160000160405161254691906139ea565b60405180910390200361255d576000915050612576565b808061256890613394565b9150506124e2565b50600190505b919050565b600080600090505b600060049054906101000a900463ffffffff1663ffffffff168163ffffffff161015612643573373ffffffffffffffffffffffffffffffffffffffff1660028263ffffffff16815481106125da576125d96132d6565b5b906000526020600020906004020160030160009054906101000a900473ffffffffffffffffffffffffffffffffffffffff1673ffffffffffffffffffffffffffffffffffffffff16036126305780915050612668565b808061263b90613394565b915050612583565b507fffffffffffffffffffffffffffffffffffffffffffffffffffffffffffffffff90505b90565b600080600090505b600060049054906101000a900463ffffffff1663ffffffff168163ffffffff161015612734573373ffffffffffffffffffffffffffffffffffffffff1660028263ffffffff16815481106126ca576126c96132d6565b5b906000526020600020906004020160030160009054906101000a900473ffffffffffffffffffffffffffffffffffffffff1673ffffffffffffffffffffffffffffffffffffffff160361272157600191505061273a565b808061272c90613394565b915050612673565b50600090505b90565b6040518060800160405280606081526020016060815260200160608152602001600073ffffffffffffffffffffffffffffffffffffffff1681525090565b600081519050919050565b600082825260208201905092915050565b60005b838110156127b557808201518184015260208101905061279a565b60008484015250505050565b6000601f19601f8301169050919050565b60006127dd8261277b565b6127e78185612786565b93506127f7818560208601612797565b612800816127c1565b840191505092915050565b600073ffffffffffffffffffffffffffffffffffffffff82169050919050565b60006128368261280b565b9050919050565b6128468161282b565b82525050565b6000608083016000830151848203600086015261286982826127d2565b9150506020830151848203602086015261288382826127d2565b9150506040830151848203604086015261289d82826127d2565b91505060608301516128b2606086018261283d565b508091505092915050565b600060208201905081810360008301526128d7818461284c565b905092915050565b6000604051905090565b600080fd5b600080fd5b600063ffffffff82169050919050565b61290c816128f3565b811461291757600080fd5b50565b60008135905061292981612903565b92915050565b600080600060608486031215612948576129476128e9565b5b60006129568682870161291a565b93505060206129678682870161291a565b92505060406129788682870161291a565b9150509250925092565b60008115159050919050565b61299781612982565b82525050565b60006020820190506129b2600083018461298e565b92915050565b6129c1816128f3565b82525050565b60006020820190506129dc60008301846129b8565b92915050565b6000602082840312156129f8576129f76128e9565b5b6000612a068482850161291a565b91505092915050565b600082825260208201905092915050565b6000612a2b8261277b565b612a358185612a0f565b9350612a45818560208601612797565b612a4e816127c1565b840191505092915050565b612a628161282b565b82525050565b60006080820190508181036000830152612a828187612a20565b90508181036020830152612a968186612a20565b9050612aa56040830185612a59565b612ab260608301846129b8565b95945050505050565b600080fd5b600080fd5b7f4e487b7100000000000000000000000000000000000000000000000000000000600052604160045260246000fd5b612afd826127c1565b810181811067ffffffffffffffff82111715612b1c57612b1b612ac5565b5b80604052505050565b6000612b2f6128df565b9050612b3b8282612af4565b919050565b600067ffffffffffffffff821115612b5b57612b5a612ac5565b5b612b64826127c1565b9050602081019050919050565b82818337600083830152505050565b6000612b93612b8e84612b40565b612b25565b905082815260208101848484011115612baf57612bae612ac0565b5b612bba848285612b71565b509392505050565b600082601f830112612bd757612bd6612abb565b5b8135612be7848260208601612b80565b91505092915050565b600080600060608486031215612c0957612c086128e9565b5b600084013567ffffffffffffffff811115612c2757612c266128ee565b5b612c3386828701612bc2565b935050602084013567ffffffffffffffff811115612c5457612c536128ee565b5b612c6086828701612bc2565b925050604084013567ffffffffffffffff811115612c8157612c806128ee565b5b612c8d86828701612bc2565b9150509250925092565b6000819050919050565b612caa81612c97565b8114612cb557600080fd5b50565b600081359050612cc781612ca1565b92915050565b60008060408385031215612ce457612ce36128e9565b5b6000612cf28582860161291a565b9250506020612d0385828601612cb8565b9150509250929050565b600081519050919050565b600082825260208201905092915050565b6000819050602082019050919050565b60006080830160008301518482036000860152612d5682826127d2565b91505060208301518482036020860152612d7082826127d2565b91505060408301518482036040860152612d8a82826127d2565b9150506060830151612d9f606086018261283d565b508091505092915050565b6000612db68383612d39565b905092915050565b6000602082019050919050565b6000612dd682612d0d565b612de08185612d18565b935083602082028501612df285612d29565b8060005b85811015612e2e5784840389528151612e0f8582612daa565b9450612e1a83612dbe565b925060208a01995050600181019050612df6565b50829750879550505050505092915050565b60006020820190508181036000830152612e5a8184612dcb565b905092915050565b60008060008060808587031215612e7c57612e7b6128e9565b5b6000612e8a8782880161291a565b945050602085013567ffffffffffffffff811115612eab57612eaa6128ee565b5b612eb787828801612bc2565b935050604085013567ffffffffffffffff811115612ed857612ed76128ee565b5b612ee487828801612bc2565b925050606085013567ffffffffffffffff811115612f0557612f046128ee565b5b612f1187828801612bc2565b91505092959194509250565b6000608082019050612f3260008301876129b8565b612f3f60208301866129b8565b612f4c60408301856129b8565b612f596060830184612a59565b95945050505050565b600081519050919050565b600082825260208201905092915050565b6000819050602082019050919050565b612f97816128f3565b82525050565b6000612fa98383612f8e565b60208301905092915050565b6000602082019050919050565b6000612fcd82612f62565b612fd78185612f6d565b9350612fe283612f7e565b8060005b83811015613013578151612ffa8882612f9d565b975061300583612fb5565b925050600181019050612fe6565b5085935050505092915050565b6000602082019050818103600083015261303a8184612fc2565b905092915050565b600060808201905061305760008301876129b8565b61306460208301866129b8565b6130716040830185612a59565b61307e60608301846129b8565b95945050505050565b600081519050919050565b600082825260208201905092915050565b6000819050602082019050919050565b600060a08301600083015184820360008601526130d082826127d2565b915050602083015184820360208601526130ea82826127d2565b9150506040830151848203604086015261310482826127d2565b9150506060830151613119606086018261283d565b50608083015161312c6080860182612f8e565b508091505092915050565b600061314383836130b3565b905092915050565b6000602082019050919050565b600061316382613087565b61316d8185613092565b93508360208202850161317f856130a3565b8060005b858110156131bb578484038952815161319c8582613137565b94506131a78361314b565b925060208a01995050600181019050613183565b50829750879550505050505092915050565b600060208201905081810360008301526131e78184613158565b905092915050565b6131f88161282b565b811461320357600080fd5b50565b600081359050613215816131ef565b92915050565b60008060008060808587031215613235576132346128e9565b5b600085013567ffffffffffffffff811115613253576132526128ee565b5b61325f87828801612bc2565b945050602085013567ffffffffffffffff8111156132805761327f6128ee565b5b61328c87828801612bc2565b935050604061329d87828801613206565b925050606085013567ffffffffffffffff8111156132be576132bd6128ee565b5b6132ca87828801612bc2565b91505092959194509250565b7f4e487b7100000000000000000000000000000000000000000000000000000000600052603260045260246000fd5b7f4e487b7100000000000000000000000000000000000000000000000000000000600052602260045260246000fd5b6000600282049050600182168061334c57607f821691505b60208210810361335f5761335e613305565b5b50919050565b7f4e487b7100000000000000000000000000000000000000000000000000000000600052601160045260246000fd5b600061339f826128f3565b915063ffffffff82036133b5576133b4613365565b5b600182019050919050565b7f5061727469636970616e74206e6f7420666f756e640000000000000000000000600082015250565b60006133f6601583612a0f565b9150613401826133c0565b602082019050919050565b60006020820190508181036000830152613425816133e9565b9050919050565b50565b600061343c600083612a0f565b91506134478261342c565b600082019050919050565b6000602082019050818103600083015261346b8161342f565b9050919050565b600081905092915050565b60006134888261277b565b6134928185613472565b93506134a2818560208601612797565b80840191505092915050565b60006134ba828461347d565b915081905092915050565b7f4e6f7420466f756e64205061727469636970616e742100000000000000000000600082015250565b60006134fb601683612a0f565b9150613506826134c5565b602082019050919050565b6000602082019050818103600083015261352a816134ee565b9050919050565b60008190508160005260206000209050919050565b6000815461355381613334565b61355d8186613472565b94506001821660008114613578576001811461358d576135c0565b60ff19831686528115158202860193506135c0565b61359685613531565b60005b838110156135b857815481890152600182019150602081019050613599565b838801955050505b50505092915050565b60006135d58284613546565b915081905092915050565b7f4e6f7420506f6c6963652e000000000000000000000000000000000000000000600082015250565b6000613616600b83612a0f565b9150613621826135e0565b602082019050919050565b6000602082019050818103600083015261364581613609565b9050919050565b60006020601f8301049050919050565b600082821b905092915050565b6000600883026136997fffffffffffffffffffffffffffffffffffffffffffffffffffffffffffffffff8261365c565b6136a3868361365c565b95508019841693508086168417925050509392505050565b6000819050919050565b60006136e06136db6136d684612c97565b6136bb565b612c97565b9050919050565b6000819050919050565b6136fa836136c5565b61370e613706826136e7565b848454613669565b825550505050565b600090565b613723613716565b61372e8184846136f1565b505050565b5b818110156137525761374760008261371b565b600181019050613734565b5050565b601f8211156137975761376881613531565b6137718461364c565b81016020851015613780578190505b61379461378c8561364c565b830182613733565b50505b505050565b600082821c905092915050565b60006137ba6000198460080261379c565b1980831691505092915050565b60006137d383836137a9565b9150826002028217905092915050565b6137ec8261277b565b67ffffffffffffffff81111561380557613804612ac5565b5b61380f8254613334565b61381a828285613756565b600060209050601f83116001811461384d576000841561383b578287015190505b61384585826137c7565b8655506138ad565b601f19841661385b86613531565b60005b828110156138835784890151825560018201915060208501945060208101905061385e565b868310156138a0578489015161389c601f8916826137a9565b8355505b6001600288020188555050505b505050505050565b7f546865206164647265737320776173206e6f7420666f756e6420696e2074686560008201527f206c6973742e0000000000000000000000000000000000000000000000000000602082015250565b6000613911602683612a0f565b915061391c826138b5565b604082019050919050565b6000602082019050818103600083015261394081613904565b9050919050565b600081905092915050565b60008190508160005260206000209050919050565b6000815461397481613334565b61397e8186613947565b9450600182166000811461399957600181146139ae576139e1565b60ff19831686528115158202860193506139e1565b6139b785613952565b60005b838110156139d9578154818901526001820191506020810190506139ba565b838801955050505b50505092915050565b60006139f68284613967565b91508190509291505056fea2646970667358221220932b67faca57b89b1a1086f2c10abd254f1beeb296d85d086c659ef5173669f664736f6c63430008130033",
  "immutableReferences": {},
  "source": "pragma solidity >=0.8.0;\r\n\r\ncontract EvidenceChain {\r\n    uint32 public evidence_id = 0;\r\n    uint32 public participant_id = 0;\r\n    uint32 public owner_id = 0;\r\n\r\n    struct Evidence {\r\n        string evidenceUniqueCode;\r\n        string evidenceName;\r\n        string evidenceType;\r\n        address evidenceOwner;\r\n        uint32 mfgTimeStamp;\r\n    }\r\n\r\n    Evidence [] private evidences;\r\n    //mapping(uint32 => evidence) public evidences;\r\n\r\n    struct Participant {\r\n        string userName;\r\n        string password;\r\n        string participantType;\r\n        address participantAddress;\r\n    }\r\n    //mapping(uint32 => participant) public participants;\r\n\r\n    Participant[] private participants;\r\n\r\n    struct ownership {\r\n        uint32 evidenceId;\r\n        uint32 ownerId;\r\n        uint32 trxTimeStamp;\r\n        address evidenceOwner;\r\n    }\r\n\r\n    mapping(uint32 => ownership) public ownerships;\r\n    mapping(uint32 => uint32[]) public evidenceTrack;  \r\n\r\n    event TransferOwnership(uint32 evidenceId);\r\n    event ParticipantAdded(uint32 indexed userId);\r\n    event EvidenceAdded(uint32 indexed evidenceId);\r\n\r\n    function addParticipant(string memory _name, string memory _pass, address _pAdd, string memory _pType) public {\r\n        uint32 userId = participant_id++;\r\n\r\n        participants.push(Participant(_name, _pass, _pType, _pAdd));\r\n\r\n        emit ParticipantAdded(userId);\r\n    }\r\n\r\n    function getParticipants() onlyParticipant() public view returns (Participant[] memory){\r\n        return participants;\r\n    }\r\n\r\n    function getParticipant() public view returns (Participant memory) \r\n    {\r\n        for (uint32 i = 0; i < participants.length; i++) {\r\n            if (participants[i].participantAddress == msg.sender) {\r\n                return participants[i];\r\n            }\r\n        }\r\n        revert(\"Participant not found\");\r\n    }\r\n\r\n    modifier onlyParticipant() {\r\n        require(isParticipant(), \"The address was not found in the list.\");\r\n        _;\r\n    }\r\n\r\n    function isParticipant() internal view returns(bool) {\r\n    for (uint32 i = 0; i < participant_id; i++) {\r\n        if (participants[i].participantAddress == msg.sender) {\r\n            return true;\r\n        }\r\n    }\r\n    return false;\r\n    }\r\n\r\n    function getParticipantId() internal view returns(int32) {\r\n    for (uint32 i = 0; i < participant_id; i++) {\r\n        if (participants[i].participantAddress == msg.sender) {\r\n            return int32(i);\r\n        }\r\n    }\r\n    return -1;\r\n    }\r\n\r\n\r\n    function addEvidence(string memory _evidenceUniqueCode,\r\n                        string memory _evidenceName,\r\n                        string memory _evidenceType) public \r\n    {\r\n        require(verifyEvidenceUniqueCode(_evidenceUniqueCode));\r\n        int32 _ownerId = getParticipantId();\r\n        require(_ownerId >= 0, \"Not Found Participant!\");\r\n        require(keccak256(abi.encodePacked(participants[uint32(_ownerId)].participantType)) == keccak256(\"Police\"),\"Not Police.\");\r\n        \r\n        uint32 evidenceId = evidence_id++;\r\n\r\n        evidences.push(Evidence(_evidenceUniqueCode, _evidenceName, _evidenceType, msg.sender, uint32(block.timestamp)));\r\n        \r\n        // evidences[evidenceId].evidenceName = _evidenceName;\r\n        // evidences[evidenceId].evidenceType = _evidenceType;\r\n        // evidences[evidenceId].evidenceOwner = participants[_ownerId].participantAddress;\r\n        // evidences[evidenceId].mfgTimeStamp = uint32(block.timestamp);\r\n\r\n        emit EvidenceAdded(evidenceId);\r\n    }\r\n\r\n    function verifyEvidenceUniqueCode(string memory _evidenceUniqueCode) internal view returns(bool) {\r\n    for (uint32 i = 0; i < evidence_id; i++) {\r\n        if (keccak256(bytes(evidences[i].evidenceUniqueCode)) == keccak256(bytes(_evidenceUniqueCode))) {\r\n            return false;\r\n        }\r\n    }\r\n    return true;\r\n    }\r\n\r\n\r\n    modifier onlyOwner(uint32 _evidenceId) {\r\n         require(msg.sender == evidences[_evidenceId].evidenceOwner,\"\");\r\n         _;\r\n\r\n    }\r\n\r\n    function getEvidences() onlyParticipant() public view returns (Evidence[] memory){\r\n        return evidences;\r\n    }\r\n\r\n    function getEvidence(uint32 _evidenceId) public view returns (string memory,string memory,address,uint32){\r\n        return (evidences[_evidenceId].evidenceName,\r\n                evidences[_evidenceId].evidenceType,\r\n                evidences[_evidenceId].evidenceOwner,\r\n                evidences[_evidenceId].mfgTimeStamp);\r\n    }\r\n\r\n\r\n    function newOwner(uint32 _user1Id,uint32 _user2Id, uint32 _evidId) onlyOwner(_evidId) public returns (bool) {\r\n        Participant memory p1 = participants[_user1Id];\r\n        Participant memory p2 = participants[_user2Id];\r\n        uint32 ownership_id = owner_id++;\r\n\r\n        if(keccak256(abi.encodePacked(p1.participantType)) == keccak256(\"Police\")\r\n            && keccak256(abi.encodePacked(p2.participantType))==keccak256(\"Lab\")){\r\n            ownerships[ownership_id].evidenceId = _evidId;\r\n            ownerships[ownership_id].evidenceOwner = p2.participantAddress;\r\n            ownerships[ownership_id].ownerId = _user2Id;\r\n            ownerships[ownership_id].trxTimeStamp = uint32(block.timestamp);\r\n            evidences[_evidId].evidenceOwner = p2.participantAddress;\r\n            evidenceTrack[_evidId].push(ownership_id);\r\n            emit TransferOwnership(_evidId);\r\n\r\n            return (true);\r\n        }\r\n        else if(keccak256(abi.encodePacked(p1.participantType)) == keccak256(\"Lab\") \r\n            && keccak256(abi.encodePacked(p2.participantType))==keccak256(\"Lab\")){\r\n            ownerships[ownership_id].evidenceId = _evidId;\r\n            ownerships[ownership_id].evidenceOwner = p2.participantAddress;\r\n            ownerships[ownership_id].ownerId = _user2Id;\r\n            ownerships[ownership_id].trxTimeStamp = uint32(block.timestamp);\r\n            evidences[_evidId].evidenceOwner = p2.participantAddress;\r\n            evidenceTrack[_evidId].push(ownership_id);\r\n            emit TransferOwnership(_evidId);\r\n\r\n            return (true);\r\n        }\r\n        else if(keccak256(abi.encodePacked(p1.participantType)) == keccak256(\"Lab\") \r\n            && keccak256(abi.encodePacked(p2.participantType))==keccak256(\"Court\")){\r\n            ownerships[ownership_id].evidenceId = _evidId;\r\n            ownerships[ownership_id].evidenceOwner = p2.participantAddress;\r\n            ownerships[ownership_id].ownerId = _user2Id;\r\n            ownerships[ownership_id].trxTimeStamp = uint32(block.timestamp);\r\n            evidences[_evidId].evidenceOwner = p2.participantAddress;\r\n            evidenceTrack[_evidId].push(ownership_id);\r\n            emit TransferOwnership(_evidId);\r\n\r\n            return (true);\r\n        }\r\n\r\n        return (false);\r\n    }\r\n\r\n    function getProvenance(uint32 _evidenceId) external view returns (uint32[] memory) {\r\n       return evidenceTrack[_evidenceId];\r\n    }\r\n\r\n    function getOwnership(uint32 _regId)  public view returns (uint32,uint32,address,uint32) {\r\n\r\n        ownership memory r = ownerships[_regId];\r\n\r\n         return (r.evidenceId ,r.ownerId ,r.evidenceOwner,r.trxTimeStamp);\r\n    }\r\n\r\n    function authenticateParticipant(uint32 _uid,\r\n                                    string memory _uname,\r\n                                    string memory _pass,\r\n                                    string memory _utype) public view returns (bool){\r\n        if(keccak256(abi.encodePacked(participants[_uid].participantType)) == keccak256(abi.encodePacked(_utype))) {\r\n            if(keccak256(abi.encodePacked(participants[_uid].userName)) == keccak256(abi.encodePacked(_uname))) {\r\n                if(keccak256(abi.encodePacked(participants[_uid].password)) == keccak256(abi.encodePacked(_pass))) {\r\n                    return (true);\r\n                }\r\n            }\r\n        }\r\n\r\n        return (false);\r\n    }\r\n}",
  "sourcePath": "C:\\IPCA DISSERTAO\\evidences_dapp\\contracts\\EvidenceChain.sol",
  "compiler": {
    "name": "solc",
    "version": "0.8.19+commit.7dd6d404.Emscripten.clang"
  },
  "schemaVersion": "3.4.13",
  "updatedAt": "2023-08-10T21:39:34.634Z",
  "networkType": "ethereum",
  "devdoc": {
    "kind": "dev",
    "methods": {},
    "version": 1
  },
  "userdoc": {
    "kind": "user",
    "methods": {},
    "version": 1
  }
}