{
  "contractName": "EvidenceChain",
  "abi": [
    {
      "anonymous": false,
      "inputs": [
        {
          "indexed": true,
          "internalType": "uint32",
          "name": "evidenceId",
          "type": "uint32"
        }
      ],
      "name": "EvidenceAdded",
      "type": "event"
    },
    {
      "anonymous": false,
      "inputs": [
        {
          "indexed": true,
          "internalType": "uint32",
          "name": "userId",
          "type": "uint32"
        }
      ],
      "name": "ParticipantAdded",
      "type": "event"
    },
    {
      "anonymous": false,
      "inputs": [
        {
          "indexed": false,
          "internalType": "uint32",
          "name": "evidenceId",
          "type": "uint32"
        }
      ],
      "name": "TransferOwnership",
      "type": "event"
    },
    {
      "inputs": [
        {
          "internalType": "uint32",
          "name": "",
          "type": "uint32"
        },
        {
          "internalType": "uint256",
          "name": "",
          "type": "uint256"
        }
      ],
      "name": "evidenceTrack",
      "outputs": [
        {
          "internalType": "uint32",
          "name": "",
          "type": "uint32"
        }
      ],
      "stateMutability": "view",
      "type": "function",
      "constant": true
    },
    {
      "inputs": [],
      "name": "evidence_id",
      "outputs": [
        {
          "internalType": "uint32",
          "name": "",
          "type": "uint32"
        }
      ],
      "stateMutability": "view",
      "type": "function",
      "constant": true
    },
    {
      "inputs": [
        {
          "internalType": "uint32",
          "name": "",
          "type": "uint32"
        }
      ],
      "name": "evidences",
      "outputs": [
        {
          "internalType": "string",
          "name": "evidenceName",
          "type": "string"
        },
        {
          "internalType": "string",
          "name": "evidenceType",
          "type": "string"
        },
        {
          "internalType": "address",
          "name": "evidenceOwner",
          "type": "address"
        },
        {
          "internalType": "uint32",
          "name": "mfgTimeStamp",
          "type": "uint32"
        }
      ],
      "stateMutability": "view",
      "type": "function",
      "constant": true
    },
    {
      "inputs": [],
      "name": "owner_id",
      "outputs": [
        {
          "internalType": "uint32",
          "name": "",
          "type": "uint32"
        }
      ],
      "stateMutability": "view",
      "type": "function",
      "constant": true
    },
    {
      "inputs": [
        {
          "internalType": "uint32",
          "name": "",
          "type": "uint32"
        }
      ],
      "name": "ownerships",
      "outputs": [
        {
          "internalType": "uint32",
          "name": "evidenceId",
          "type": "uint32"
        },
        {
          "internalType": "uint32",
          "name": "ownerId",
          "type": "uint32"
        },
        {
          "internalType": "uint32",
          "name": "trxTimeStamp",
          "type": "uint32"
        },
        {
          "internalType": "address",
          "name": "evidenceOwner",
          "type": "address"
        }
      ],
      "stateMutability": "view",
      "type": "function",
      "constant": true
    },
    {
      "inputs": [],
      "name": "participant_id",
      "outputs": [
        {
          "internalType": "uint32",
          "name": "",
          "type": "uint32"
        }
      ],
      "stateMutability": "view",
      "type": "function",
      "constant": true
    },
    {
      "inputs": [
        {
          "internalType": "string",
          "name": "_name",
          "type": "string"
        },
        {
          "internalType": "string",
          "name": "_pass",
          "type": "string"
        },
        {
          "internalType": "address",
          "name": "_pAdd",
          "type": "address"
        },
        {
          "internalType": "string",
          "name": "_pType",
          "type": "string"
        }
      ],
      "name": "addParticipant",
      "outputs": [],
      "stateMutability": "nonpayable",
      "type": "function"
    },
    {
      "inputs": [],
      "name": "getParticipants",
      "outputs": [
        {
          "components": [
            {
              "internalType": "string",
              "name": "userName",
              "type": "string"
            },
            {
              "internalType": "string",
              "name": "password",
              "type": "string"
            },
            {
              "internalType": "string",
              "name": "participantType",
              "type": "string"
            },
            {
              "internalType": "address",
              "name": "participantAddress",
              "type": "address"
            }
          ],
          "internalType": "struct EvidenceChain.Participant[]",
          "name": "",
          "type": "tuple[]"
        }
      ],
      "stateMutability": "view",
      "type": "function",
      "constant": true
    },
    {
      "inputs": [],
      "name": "getParticipant",
      "outputs": [
        {
          "components": [
            {
              "internalType": "string",
              "name": "userName",
              "type": "string"
            },
            {
              "internalType": "string",
              "name": "password",
              "type": "string"
            },
            {
              "internalType": "string",
              "name": "participantType",
              "type": "string"
            },
            {
              "internalType": "address",
              "name": "participantAddress",
              "type": "address"
            }
          ],
          "internalType": "struct EvidenceChain.Participant",
          "name": "",
          "type": "tuple"
        }
      ],
      "stateMutability": "view",
      "type": "function",
      "constant": true
    },
    {
      "inputs": [
        {
          "internalType": "uint32",
          "name": "_ownerId",
          "type": "uint32"
        },
        {
          "internalType": "string",
          "name": "_evidenceName",
          "type": "string"
        },
        {
          "internalType": "string",
          "name": "_evidenceType",
          "type": "string"
        }
      ],
      "name": "addEvidence",
      "outputs": [],
      "stateMutability": "nonpayable",
      "type": "function"
    },
    {
      "inputs": [
        {
          "internalType": "uint32",
          "name": "_evidenceId",
          "type": "uint32"
        }
      ],
      "name": "getEvidence",
      "outputs": [
        {
          "internalType": "string",
          "name": "",
          "type": "string"
        },
        {
          "internalType": "string",
          "name": "",
          "type": "string"
        },
        {
          "internalType": "address",
          "name": "",
          "type": "address"
        },
        {
          "internalType": "uint32",
          "name": "",
          "type": "uint32"
        }
      ],
      "stateMutability": "view",
      "type": "function",
      "constant": true
    },
    {
      "inputs": [
        {
          "internalType": "uint32",
          "name": "_user1Id",
          "type": "uint32"
        },
        {
          "internalType": "uint32",
          "name": "_user2Id",
          "type": "uint32"
        },
        {
          "internalType": "uint32",
          "name": "_evidId",
          "type": "uint32"
        }
      ],
      "name": "newOwner",
      "outputs": [
        {
          "internalType": "bool",
          "name": "",
          "type": "bool"
        }
      ],
      "stateMutability": "nonpayable",
      "type": "function"
    },
    {
      "inputs": [
        {
          "internalType": "uint32",
          "name": "_evidenceId",
          "type": "uint32"
        }
      ],
      "name": "getProvenance",
      "outputs": [
        {
          "internalType": "uint32[]",
          "name": "",
          "type": "uint32[]"
        }
      ],
      "stateMutability": "view",
      "type": "function",
      "constant": true
    },
    {
      "inputs": [
        {
          "internalType": "uint32",
          "name": "_regId",
          "type": "uint32"
        }
      ],
      "name": "getOwnership",
      "outputs": [
        {
          "internalType": "uint32",
          "name": "",
          "type": "uint32"
        },
        {
          "internalType": "uint32",
          "name": "",
          "type": "uint32"
        },
        {
          "internalType": "address",
          "name": "",
          "type": "address"
        },
        {
          "internalType": "uint32",
          "name": "",
          "type": "uint32"
        }
      ],
      "stateMutability": "view",
      "type": "function",
      "constant": true
    },
    {
      "inputs": [
        {
          "internalType": "uint32",
          "name": "_uid",
          "type": "uint32"
        },
        {
          "internalType": "string",
          "name": "_uname",
          "type": "string"
        },
        {
          "internalType": "string",
          "name": "_pass",
          "type": "string"
        },
        {
          "internalType": "string",
          "name": "_utype",
          "type": "string"
        }
      ],
      "name": "authenticateParticipant",
      "outputs": [
        {
          "internalType": "bool",
          "name": "",
          "type": "bool"
        }
      ],
      "stateMutability": "view",
      "type": "function",
      "constant": true
    }
  ],
  "bytecode": "0x608060405260008060006101000a81548163ffffffff021916908363ffffffff16021790555060008060046101000a81548163ffffffff021916908363ffffffff16021790555060008060086101000a81548163ffffffff021916908363ffffffff16021790555034801561007357600080fd5b50613428806100836000396000f3fe608060405234801561001057600080fd5b50600436106100f55760003560e01c8063721b574311610097578063df6d23f111610066578063df6d23f1146102b4578063ebf43a7e146102e7578063f58ba1a614610303578063fc2da91014610336576100f5565b8063721b57431461020357806381e15610146102335780638f5ebf7114610266578063c856956514610284576100f5565b80633cc36a29116100d35780633cc36a29146101665780635760620b146101995780635aa68ac0146101c957806369ee7507146101e7576100f5565b806314b87862146100fa5780632e9d5284146101185780633c3e841c14610148575b600080fd5b610102610354565b60405161010f9190612558565b60405180910390f35b610132600480360381019061012d91906125ca565b610689565b60405161013f9190612638565b60405180910390f35b6101506114bb565b60405161015d9190612662565b60405180910390f35b610180600480360381019061017b919061267d565b6114cf565b6040516101909493929190612703565b60405180910390f35b6101b360048036038101906101ae919061278c565b6116b6565b6040516101c09190612662565b60405180910390f35b6101d16116ff565b6040516101de91906128ff565b60405180910390f35b61020160048036038101906101fc9190612a56565b6119b1565b005b61021d60048036038101906102189190612ae1565b611c2c565b60405161022a9190612638565b60405180910390f35b61024d6004803603810190610248919061267d565b611dbd565b60405161025d9493929190612b9c565b60405180910390f35b61026e611e3d565b60405161027b9190612662565b60405180910390f35b61029e6004803603810190610299919061267d565b611e53565b6040516102ab9190612c9f565b60405180910390f35b6102ce60048036038101906102c9919061267d565b611ef6565b6040516102de9493929190612cc1565b60405180910390f35b61030160048036038101906102fc9190612d32565b612016565b005b61031d6004803603810190610318919061267d565b612180565b60405161032d9493929190612703565b60405180910390f35b61033e6122f0565b60405161034b9190612662565b60405180910390f35b61035c6123d8565b60005b6002805490508163ffffffff16101561064a573373ffffffffffffffffffffffffffffffffffffffff1660028263ffffffff16815481106103a3576103a2612ded565b5b906000526020600020906004020160030160009054906101000a900473ffffffffffffffffffffffffffffffffffffffff1673ffffffffffffffffffffffffffffffffffffffff16036106375760028163ffffffff168154811061040a57610409612ded565b5b906000526020600020906004020160405180608001604052908160008201805461043390612e4b565b80601f016020809104026020016040519081016040528092919081815260200182805461045f90612e4b565b80156104ac5780601f10610481576101008083540402835291602001916104ac565b820191906000526020600020905b81548152906001019060200180831161048f57829003601f168201915b505050505081526020016001820180546104c590612e4b565b80601f01602080910402602001604051908101604052809291908181526020018280546104f190612e4b565b801561053e5780601f106105135761010080835404028352916020019161053e565b820191906000526020600020905b81548152906001019060200180831161052157829003601f168201915b5050505050815260200160028201805461055790612e4b565b80601f016020809104026020016040519081016040528092919081815260200182805461058390612e4b565b80156105d05780601f106105a5576101008083540402835291602001916105d0565b820191906000526020600020905b8154815290600101906020018083116105b357829003601f168201915b505050505081526020016003820160009054906101000a900473ffffffffffffffffffffffffffffffffffffffff1673ffffffffffffffffffffffffffffffffffffffff1673ffffffffffffffffffffffffffffffffffffffff1681525050915050610686565b808061064290612eab565b91505061035f565b506040517f08c379a000000000000000000000000000000000000000000000000000000000815260040161067d90612f23565b60405180910390fd5b90565b600081600160008263ffffffff1663ffffffff16815260200190815260200160002060020160009054906101000a900473ffffffffffffffffffffffffffffffffffffffff1673ffffffffffffffffffffffffffffffffffffffff163373ffffffffffffffffffffffffffffffffffffffff161461073c576040517f08c379a000000000000000000000000000000000000000000000000000000000815260040161073390612f69565b60405180910390fd5b600060028663ffffffff168154811061075857610757612ded565b5b906000526020600020906004020160405180608001604052908160008201805461078190612e4b565b80601f01602080910402602001604051908101604052809291908181526020018280546107ad90612e4b565b80156107fa5780601f106107cf576101008083540402835291602001916107fa565b820191906000526020600020905b8154815290600101906020018083116107dd57829003601f168201915b5050505050815260200160018201805461081390612e4b565b80601f016020809104026020016040519081016040528092919081815260200182805461083f90612e4b565b801561088c5780601f106108615761010080835404028352916020019161088c565b820191906000526020600020905b81548152906001019060200180831161086f57829003601f168201915b505050505081526020016002820180546108a590612e4b565b80601f01602080910402602001604051908101604052809291908181526020018280546108d190612e4b565b801561091e5780601f106108f35761010080835404028352916020019161091e565b820191906000526020600020905b81548152906001019060200180831161090157829003601f168201915b505050505081526020016003820160009054906101000a900473ffffffffffffffffffffffffffffffffffffffff1673ffffffffffffffffffffffffffffffffffffffff1673ffffffffffffffffffffffffffffffffffffffff16815250509050600060028663ffffffff168154811061099b5761099a612ded565b5b90600052602060002090600402016040518060800160405290816000820180546109c490612e4b565b80601f01602080910402602001604051908101604052809291908181526020018280546109f090612e4b565b8015610a3d5780601f10610a1257610100808354040283529160200191610a3d565b820191906000526020600020905b815481529060010190602001808311610a2057829003601f168201915b50505050508152602001600182018054610a5690612e4b565b80601f0160208091040260200160405190810160405280929190818152602001828054610a8290612e4b565b8015610acf5780601f10610aa457610100808354040283529160200191610acf565b820191906000526020600020905b815481529060010190602001808311610ab257829003601f168201915b50505050508152602001600282018054610ae890612e4b565b80601f0160208091040260200160405190810160405280929190818152602001828054610b1490612e4b565b8015610b615780601f10610b3657610100808354040283529160200191610b61565b820191906000526020600020905b815481529060010190602001808311610b4457829003601f168201915b505050505081526020016003820160009054906101000a900473ffffffffffffffffffffffffffffffffffffffff1673ffffffffffffffffffffffffffffffffffffffff1673ffffffffffffffffffffffffffffffffffffffff16815250509050600080600881819054906101000a900463ffffffff1680929190610be590612eab565b91906101000a81548163ffffffff021916908363ffffffff16021790555090507fe419ba2484d9efb5ea120ea8d8b86dc666551db29ed65e4d8c975262e7a9c3658360400151604051602001610c3b9190612fc5565b60405160208183030381529060405280519060200120148015610ca757507f97feb579382c507528a724d35d13152502303d69e2d8746a3694fefd9013b47c8260400151604051602001610c8f9190612fc5565b60405160208183030381529060405280519060200120145b15610ee75785600360008363ffffffff1663ffffffff16815260200190815260200160002060000160006101000a81548163ffffffff021916908363ffffffff1602179055508160600151600360008363ffffffff1663ffffffff168152602001908152602001600020600001600c6101000a81548173ffffffffffffffffffffffffffffffffffffffff021916908373ffffffffffffffffffffffffffffffffffffffff16021790555086600360008363ffffffff1663ffffffff16815260200190815260200160002060000160046101000a81548163ffffffff021916908363ffffffff16021790555042600360008363ffffffff1663ffffffff16815260200190815260200160002060000160086101000a81548163ffffffff021916908363ffffffff1602179055508160600151600160008863ffffffff1663ffffffff16815260200190815260200160002060020160006101000a81548173ffffffffffffffffffffffffffffffffffffffff021916908373ffffffffffffffffffffffffffffffffffffffff160217905550600460008763ffffffff1663ffffffff1681526020019081526020016000208190806001815401808255809150506001900390600052602060002090600891828204019190066004029091909190916101000a81548163ffffffff021916908363ffffffff1602179055507fa5470ac012c6e9dc500e62b1d3de0de58db49b3ab7cfebbfb126d9abd854199b86604051610ed39190612662565b60405180910390a1600194505050506114b3565b7f97feb579382c507528a724d35d13152502303d69e2d8746a3694fefd9013b47c8360400151604051602001610f1d9190612fc5565b60405160208183030381529060405280519060200120148015610f8957507f97feb579382c507528a724d35d13152502303d69e2d8746a3694fefd9013b47c8260400151604051602001610f719190612fc5565b60405160208183030381529060405280519060200120145b156111c95785600360008363ffffffff1663ffffffff16815260200190815260200160002060000160006101000a81548163ffffffff021916908363ffffffff1602179055508160600151600360008363ffffffff1663ffffffff168152602001908152602001600020600001600c6101000a81548173ffffffffffffffffffffffffffffffffffffffff021916908373ffffffffffffffffffffffffffffffffffffffff16021790555086600360008363ffffffff1663ffffffff16815260200190815260200160002060000160046101000a81548163ffffffff021916908363ffffffff16021790555042600360008363ffffffff1663ffffffff16815260200190815260200160002060000160086101000a81548163ffffffff021916908363ffffffff1602179055508160600151600160008863ffffffff1663ffffffff16815260200190815260200160002060020160006101000a81548173ffffffffffffffffffffffffffffffffffffffff021916908373ffffffffffffffffffffffffffffffffffffffff160217905550600460008763ffffffff1663ffffffff1681526020019081526020016000208190806001815401808255809150506001900390600052602060002090600891828204019190066004029091909190916101000a81548163ffffffff021916908363ffffffff1602179055507fa5470ac012c6e9dc500e62b1d3de0de58db49b3ab7cfebbfb126d9abd854199b866040516111b59190612662565b60405180910390a1600194505050506114b3565b7f97feb579382c507528a724d35d13152502303d69e2d8746a3694fefd9013b47c83604001516040516020016111ff9190612fc5565b6040516020818303038152906040528051906020012014801561126b57507f010ecf2d9ebf239264ee38bd2aa310b2266900d2c98c300663a8c5e95249375982604001516040516020016112539190612fc5565b60405160208183030381529060405280519060200120145b156114ab5785600360008363ffffffff1663ffffffff16815260200190815260200160002060000160006101000a81548163ffffffff021916908363ffffffff1602179055508160600151600360008363ffffffff1663ffffffff168152602001908152602001600020600001600c6101000a81548173ffffffffffffffffffffffffffffffffffffffff021916908373ffffffffffffffffffffffffffffffffffffffff16021790555086600360008363ffffffff1663ffffffff16815260200190815260200160002060000160046101000a81548163ffffffff021916908363ffffffff16021790555042600360008363ffffffff1663ffffffff16815260200190815260200160002060000160086101000a81548163ffffffff021916908363ffffffff1602179055508160600151600160008863ffffffff1663ffffffff16815260200190815260200160002060020160006101000a81548173ffffffffffffffffffffffffffffffffffffffff021916908373ffffffffffffffffffffffffffffffffffffffff160217905550600460008763ffffffff1663ffffffff1681526020019081526020016000208190806001815401808255809150506001900390600052602060002090600891828204019190066004029091909190916101000a81548163ffffffff021916908363ffffffff1602179055507fa5470ac012c6e9dc500e62b1d3de0de58db49b3ab7cfebbfb126d9abd854199b866040516114979190612662565b60405180910390a1600194505050506114b3565b600094505050505b509392505050565b60008054906101000a900463ffffffff1681565b606080600080600160008663ffffffff1663ffffffff168152602001908152602001600020600001600160008763ffffffff1663ffffffff168152602001908152602001600020600101600160008863ffffffff1663ffffffff16815260200190815260200160002060020160009054906101000a900473ffffffffffffffffffffffffffffffffffffffff16600160008963ffffffff1663ffffffff16815260200190815260200160002060020160149054906101000a900463ffffffff1683805461159b90612e4b565b80601f01602080910402602001604051908101604052809291908181526020018280546115c790612e4b565b80156116145780601f106115e957610100808354040283529160200191611614565b820191906000526020600020905b8154815290600101906020018083116115f757829003601f168201915b5050505050935082805461162790612e4b565b80601f016020809104026020016040519081016040528092919081815260200182805461165390612e4b565b80156116a05780601f10611675576101008083540402835291602001916116a0565b820191906000526020600020905b81548152906001019060200180831161168357829003601f168201915b5050505050925093509350935093509193509193565b600460205281600052604060002081815481106116d257600080fd5b9060005260206000209060089182820401919006600402915091509054906101000a900463ffffffff1681565b6060611709612306565b611748576040517f08c379a000000000000000000000000000000000000000000000000000000000815260040161173f9061304e565b60405180910390fd5b6002805480602002602001604051908101604052809291908181526020016000905b828210156119a8578382906000526020600020906004020160405180608001604052908160008201805461179d90612e4b565b80601f01602080910402602001604051908101604052809291908181526020018280546117c990612e4b565b80156118165780601f106117eb57610100808354040283529160200191611816565b820191906000526020600020905b8154815290600101906020018083116117f957829003601f168201915b5050505050815260200160018201805461182f90612e4b565b80601f016020809104026020016040519081016040528092919081815260200182805461185b90612e4b565b80156118a85780601f1061187d576101008083540402835291602001916118a8565b820191906000526020600020905b81548152906001019060200180831161188b57829003601f168201915b505050505081526020016002820180546118c190612e4b565b80601f01602080910402602001604051908101604052809291908181526020018280546118ed90612e4b565b801561193a5780601f1061190f5761010080835404028352916020019161193a565b820191906000526020600020905b81548152906001019060200180831161191d57829003601f168201915b505050505081526020016003820160009054906101000a900473ffffffffffffffffffffffffffffffffffffffff1673ffffffffffffffffffffffffffffffffffffffff1673ffffffffffffffffffffffffffffffffffffffff16815250508152602001906001019061176a565b50505050905090565b7fe419ba2484d9efb5ea120ea8d8b86dc666551db29ed65e4d8c975262e7a9c36560028463ffffffff16815481106119ec576119eb612ded565b5b9060005260206000209060040201600201604051602001611a0d9190613106565b6040516020818303038152906040528051906020012014611a63576040517f08c379a0000000000000000000000000000000000000000000000000000000008152600401611a5a90613169565b60405180910390fd5b600080600081819054906101000a900463ffffffff1680929190611a8690612eab565b91906101000a81548163ffffffff021916908363ffffffff160217905550905082600160008363ffffffff1663ffffffff1681526020019081526020016000206000019081611ad59190613320565b5081600160008363ffffffff1663ffffffff1681526020019081526020016000206001019081611b059190613320565b5060028463ffffffff1681548110611b2057611b1f612ded565b5b906000526020600020906004020160030160009054906101000a900473ffffffffffffffffffffffffffffffffffffffff16600160008363ffffffff1663ffffffff16815260200190815260200160002060020160006101000a81548173ffffffffffffffffffffffffffffffffffffffff021916908373ffffffffffffffffffffffffffffffffffffffff16021790555042600160008363ffffffff1663ffffffff16815260200190815260200160002060020160146101000a81548163ffffffff021916908363ffffffff1602179055508063ffffffff167fe535b34a551b1d8fc8ab11f8c18f139a4ccb39aef2f138683574f74e21a73b9460405160405180910390a250505050565b600081604051602001611c3f9190612fc5565b6040516020818303038152906040528051906020012060028663ffffffff1681548110611c6f57611c6e612ded565b5b9060005260206000209060040201600201604051602001611c909190613106565b6040516020818303038152906040528051906020012003611db05783604051602001611cbc9190612fc5565b6040516020818303038152906040528051906020012060028663ffffffff1681548110611cec57611ceb612ded565b5b9060005260206000209060040201600001604051602001611d0d9190613106565b6040516020818303038152906040528051906020012003611daf5782604051602001611d399190612fc5565b6040516020818303038152906040528051906020012060028663ffffffff1681548110611d6957611d68612ded565b5b9060005260206000209060040201600101604051602001611d8a9190613106565b6040516020818303038152906040528051906020012003611dae5760019050611db5565b5b5b600090505b949350505050565b60036020528060005260406000206000915090508060000160009054906101000a900463ffffffff16908060000160049054906101000a900463ffffffff16908060000160089054906101000a900463ffffffff169080600001600c9054906101000a900473ffffffffffffffffffffffffffffffffffffffff16905084565b600060089054906101000a900463ffffffff1681565b6060600460008363ffffffff1663ffffffff168152602001908152602001600020805480602002602001604051908101604052809291908181526020018280548015611eea57602002820191906000526020600020906000905b82829054906101000a900463ffffffff1663ffffffff1681526020019060040190602082600301049283019260010382029150808411611ead5790505b50505050509050919050565b6000806000806000600360008763ffffffff1663ffffffff1681526020019081526020016000206040518060800160405290816000820160009054906101000a900463ffffffff1663ffffffff1663ffffffff1681526020016000820160049054906101000a900463ffffffff1663ffffffff1663ffffffff1681526020016000820160089054906101000a900463ffffffff1663ffffffff1663ffffffff16815260200160008201600c9054906101000a900473ffffffffffffffffffffffffffffffffffffffff1673ffffffffffffffffffffffffffffffffffffffff1673ffffffffffffffffffffffffffffffffffffffff1681525050905080600001518160200151826060015183604001519450945094509450509193509193565b600080600481819054906101000a900463ffffffff168092919061203990612eab565b91906101000a81548163ffffffff021916908363ffffffff1602179055509050600260405180608001604052808781526020018681526020018481526020018573ffffffffffffffffffffffffffffffffffffffff16815250908060018154018082558091505060019003906000526020600020906004020160009091909190915060008201518160000190816120d09190613320565b5060208201518160010190816120e69190613320565b5060408201518160020190816120fc9190613320565b5060608201518160030160006101000a81548173ffffffffffffffffffffffffffffffffffffffff021916908373ffffffffffffffffffffffffffffffffffffffff16021790555050508063ffffffff167f6fcb9d018504c0b1d3044f5b2ddb31fdb32b68f679b251577df346974255d18760405160405180910390a25050505050565b60016020528060005260406000206000915090508060000180546121a390612e4b565b80601f01602080910402602001604051908101604052809291908181526020018280546121cf90612e4b565b801561221c5780601f106121f15761010080835404028352916020019161221c565b820191906000526020600020905b8154815290600101906020018083116121ff57829003601f168201915b50505050509080600101805461223190612e4b565b80601f016020809104026020016040519081016040528092919081815260200182805461225d90612e4b565b80156122aa5780601f1061227f576101008083540402835291602001916122aa565b820191906000526020600020905b81548152906001019060200180831161228d57829003601f168201915b5050505050908060020160009054906101000a900473ffffffffffffffffffffffffffffffffffffffff16908060020160149054906101000a900463ffffffff16905084565b600060049054906101000a900463ffffffff1681565b600080600090505b600060049054906101000a900463ffffffff1663ffffffff168163ffffffff1610156123cf573373ffffffffffffffffffffffffffffffffffffffff1660028263ffffffff168154811061236557612364612ded565b5b906000526020600020906004020160030160009054906101000a900473ffffffffffffffffffffffffffffffffffffffff1673ffffffffffffffffffffffffffffffffffffffff16036123bc5760019150506123d5565b80806123c790612eab565b91505061230e565b50600090505b90565b6040518060800160405280606081526020016060815260200160608152602001600073ffffffffffffffffffffffffffffffffffffffff1681525090565b600081519050919050565b600082825260208201905092915050565b60005b83811015612450578082015181840152602081019050612435565b60008484015250505050565b6000601f19601f8301169050919050565b600061247882612416565b6124828185612421565b9350612492818560208601612432565b61249b8161245c565b840191505092915050565b600073ffffffffffffffffffffffffffffffffffffffff82169050919050565b60006124d1826124a6565b9050919050565b6124e1816124c6565b82525050565b60006080830160008301518482036000860152612504828261246d565b9150506020830151848203602086015261251e828261246d565b91505060408301518482036040860152612538828261246d565b915050606083015161254d60608601826124d8565b508091505092915050565b6000602082019050818103600083015261257281846124e7565b905092915050565b6000604051905090565b600080fd5b600080fd5b600063ffffffff82169050919050565b6125a78161258e565b81146125b257600080fd5b50565b6000813590506125c48161259e565b92915050565b6000806000606084860312156125e3576125e2612584565b5b60006125f1868287016125b5565b9350506020612602868287016125b5565b9250506040612613868287016125b5565b9150509250925092565b60008115159050919050565b6126328161261d565b82525050565b600060208201905061264d6000830184612629565b92915050565b61265c8161258e565b82525050565b60006020820190506126776000830184612653565b92915050565b60006020828403121561269357612692612584565b5b60006126a1848285016125b5565b91505092915050565b600082825260208201905092915050565b60006126c682612416565b6126d081856126aa565b93506126e0818560208601612432565b6126e98161245c565b840191505092915050565b6126fd816124c6565b82525050565b6000608082019050818103600083015261271d81876126bb565b9050818103602083015261273181866126bb565b905061274060408301856126f4565b61274d6060830184612653565b95945050505050565b6000819050919050565b61276981612756565b811461277457600080fd5b50565b60008135905061278681612760565b92915050565b600080604083850312156127a3576127a2612584565b5b60006127b1858286016125b5565b92505060206127c285828601612777565b9150509250929050565b600081519050919050565b600082825260208201905092915050565b6000819050602082019050919050565b60006080830160008301518482036000860152612815828261246d565b9150506020830151848203602086015261282f828261246d565b91505060408301518482036040860152612849828261246d565b915050606083015161285e60608601826124d8565b508091505092915050565b600061287583836127f8565b905092915050565b6000602082019050919050565b6000612895826127cc565b61289f81856127d7565b9350836020820285016128b1856127e8565b8060005b858110156128ed57848403895281516128ce8582612869565b94506128d98361287d565b925060208a019950506001810190506128b5565b50829750879550505050505092915050565b60006020820190508181036000830152612919818461288a565b905092915050565b600080fd5b600080fd5b7f4e487b7100000000000000000000000000000000000000000000000000000000600052604160045260246000fd5b6129638261245c565b810181811067ffffffffffffffff821117156129825761298161292b565b5b80604052505050565b600061299561257a565b90506129a1828261295a565b919050565b600067ffffffffffffffff8211156129c1576129c061292b565b5b6129ca8261245c565b9050602081019050919050565b82818337600083830152505050565b60006129f96129f4846129a6565b61298b565b905082815260208101848484011115612a1557612a14612926565b5b612a208482856129d7565b509392505050565b600082601f830112612a3d57612a3c612921565b5b8135612a4d8482602086016129e6565b91505092915050565b600080600060608486031215612a6f57612a6e612584565b5b6000612a7d868287016125b5565b935050602084013567ffffffffffffffff811115612a9e57612a9d612589565b5b612aaa86828701612a28565b925050604084013567ffffffffffffffff811115612acb57612aca612589565b5b612ad786828701612a28565b9150509250925092565b60008060008060808587031215612afb57612afa612584565b5b6000612b09878288016125b5565b945050602085013567ffffffffffffffff811115612b2a57612b29612589565b5b612b3687828801612a28565b935050604085013567ffffffffffffffff811115612b5757612b56612589565b5b612b6387828801612a28565b925050606085013567ffffffffffffffff811115612b8457612b83612589565b5b612b9087828801612a28565b91505092959194509250565b6000608082019050612bb16000830187612653565b612bbe6020830186612653565b612bcb6040830185612653565b612bd860608301846126f4565b95945050505050565b600081519050919050565b600082825260208201905092915050565b6000819050602082019050919050565b612c168161258e565b82525050565b6000612c288383612c0d565b60208301905092915050565b6000602082019050919050565b6000612c4c82612be1565b612c568185612bec565b9350612c6183612bfd565b8060005b83811015612c92578151612c798882612c1c565b9750612c8483612c34565b925050600181019050612c65565b5085935050505092915050565b60006020820190508181036000830152612cb98184612c41565b905092915050565b6000608082019050612cd66000830187612653565b612ce36020830186612653565b612cf060408301856126f4565b612cfd6060830184612653565b95945050505050565b612d0f816124c6565b8114612d1a57600080fd5b50565b600081359050612d2c81612d06565b92915050565b60008060008060808587031215612d4c57612d4b612584565b5b600085013567ffffffffffffffff811115612d6a57612d69612589565b5b612d7687828801612a28565b945050602085013567ffffffffffffffff811115612d9757612d96612589565b5b612da387828801612a28565b9350506040612db487828801612d1d565b925050606085013567ffffffffffffffff811115612dd557612dd4612589565b5b612de187828801612a28565b91505092959194509250565b7f4e487b7100000000000000000000000000000000000000000000000000000000600052603260045260246000fd5b7f4e487b7100000000000000000000000000000000000000000000000000000000600052602260045260246000fd5b60006002820490506001821680612e6357607f821691505b602082108103612e7657612e75612e1c565b5b50919050565b7f4e487b7100000000000000000000000000000000000000000000000000000000600052601160045260246000fd5b6000612eb68261258e565b915063ffffffff8203612ecc57612ecb612e7c565b5b600182019050919050565b7f5061727469636970616e74206e6f7420666f756e640000000000000000000000600082015250565b6000612f0d6015836126aa565b9150612f1882612ed7565b602082019050919050565b60006020820190508181036000830152612f3c81612f00565b9050919050565b50565b6000612f536000836126aa565b9150612f5e82612f43565b600082019050919050565b60006020820190508181036000830152612f8281612f46565b9050919050565b600081905092915050565b6000612f9f82612416565b612fa98185612f89565b9350612fb9818560208601612432565b80840191505092915050565b6000612fd18284612f94565b915081905092915050565b7f546865206164647265737320776173206e6f7420666f756e6420696e2074686560008201527f206c6973742e0000000000000000000000000000000000000000000000000000602082015250565b60006130386026836126aa565b915061304382612fdc565b604082019050919050565b600060208201905081810360008301526130678161302b565b9050919050565b60008190508160005260206000209050919050565b6000815461309081612e4b565b61309a8186612f89565b945060018216600081146130b557600181146130ca576130fd565b60ff19831686528115158202860193506130fd565b6130d38561306e565b60005b838110156130f5578154818901526001820191506020810190506130d6565b838801955050505b50505092915050565b60006131128284613083565b915081905092915050565b7f4e6f7420506f6c6963652e000000000000000000000000000000000000000000600082015250565b6000613153600b836126aa565b915061315e8261311d565b602082019050919050565b6000602082019050818103600083015261318281613146565b9050919050565b60006020601f8301049050919050565b600082821b905092915050565b6000600883026131d67fffffffffffffffffffffffffffffffffffffffffffffffffffffffffffffffff82613199565b6131e08683613199565b95508019841693508086168417925050509392505050565b6000819050919050565b600061321d61321861321384612756565b6131f8565b612756565b9050919050565b6000819050919050565b61323783613202565b61324b61324382613224565b8484546131a6565b825550505050565b600090565b613260613253565b61326b81848461322e565b505050565b5b8181101561328f57613284600082613258565b600181019050613271565b5050565b601f8211156132d4576132a58161306e565b6132ae84613189565b810160208510156132bd578190505b6132d16132c985613189565b830182613270565b50505b505050565b600082821c905092915050565b60006132f7600019846008026132d9565b1980831691505092915050565b600061331083836132e6565b9150826002028217905092915050565b61332982612416565b67ffffffffffffffff8111156133425761334161292b565b5b61334c8254612e4b565b613357828285613293565b600060209050601f83116001811461338a5760008415613378578287015190505b6133828582613304565b8655506133ea565b601f1984166133988661306e565b60005b828110156133c05784890151825560018201915060208501945060208101905061339b565b868310156133dd57848901516133d9601f8916826132e6565b8355505b6001600288020188555050505b50505050505056fea26469706673582212207ab36d36cc1fb4113083bf48a54e2707e5cb24c1455ab9a457c1d747bd5cfed064736f6c63430008130033",
  "immutableReferences": {},
  "source": "pragma solidity >=0.8.0;\r\n\r\ncontract EvidenceChain {\r\n    uint32 public evidence_id = 0;\r\n    uint32 public participant_id = 0;\r\n    uint32 public owner_id = 0;\r\n\r\n    struct evidence {\r\n        string evidenceName;\r\n        string evidenceType;\r\n        address evidenceOwner;\r\n        uint32 mfgTimeStamp;\r\n    }\r\n\r\n    mapping(uint32 => evidence) public evidences;\r\n\r\n    struct Participant {\r\n        string userName;\r\n        string password;\r\n        string participantType;\r\n        address participantAddress;\r\n    }\r\n    //mapping(uint32 => participant) public participants;\r\n\r\n    Participant[] private participants;\r\n\r\n    struct ownership {\r\n        uint32 evidenceId;\r\n        uint32 ownerId;\r\n        uint32 trxTimeStamp;\r\n        address evidenceOwner;\r\n    }\r\n\r\n    mapping(uint32 => ownership) public ownerships;\r\n    mapping(uint32 => uint32[]) public evidenceTrack;  \r\n\r\n    event TransferOwnership(uint32 evidenceId);\r\n    event ParticipantAdded(uint32 indexed userId);\r\n    event EvidenceAdded(uint32 indexed evidenceId);\r\n\r\n    function addParticipant(string memory _name, string memory _pass, address _pAdd, string memory _pType) public {\r\n        uint32 userId = participant_id++;\r\n\r\n        participants.push(Participant(_name, _pass, _pType, _pAdd));\r\n        \r\n        // participants[userId].userName = _name;\r\n        // participants[userId].password = _pass;\r\n        // participants[userId].participantAddress = _pAdd;\r\n        // participants[userId].participantType = _pType;\r\n\r\n        emit ParticipantAdded(userId);\r\n    }\r\n\r\n    function getParticipants() onlyParticipant() public view returns (Participant[] memory){\r\n        return participants;\r\n    }\r\n\r\n    function getParticipant() public view returns (Participant memory) \r\n    {\r\n        for (uint32 i = 0; i < participants.length; i++) {\r\n            if (participants[i].participantAddress == msg.sender) {\r\n                return participants[i];\r\n            }\r\n        }\r\n        revert(\"Participant not found\");\r\n    }\r\n\r\n    modifier onlyParticipant() {\r\n        require(isParticipant(), \"The address was not found in the list.\");\r\n        _;\r\n    }\r\n\r\n    function isParticipant() internal view returns(bool) {\r\n    for (uint32 i = 0; i < participant_id; i++) {\r\n        if (participants[i].participantAddress == msg.sender) {\r\n            return true;\r\n        }\r\n    }\r\n    return false;\r\n    }\r\n\r\n\r\n    function addEvidence(uint32 _ownerId,\r\n                        string memory _evidenceName,\r\n                        string memory _evidenceType) public \r\n    {\r\n        require(keccak256(abi.encodePacked(participants[_ownerId].participantType)) == keccak256(\"Police\"),\"Not Police.\");\r\n\r\n        uint32 evidenceId = evidence_id++;\r\n\r\n        evidences[evidenceId].evidenceName = _evidenceName;\r\n        evidences[evidenceId].evidenceType = _evidenceType;\r\n        evidences[evidenceId].evidenceOwner = participants[_ownerId].participantAddress;\r\n        evidences[evidenceId].mfgTimeStamp = uint32(block.timestamp);\r\n\r\n        emit EvidenceAdded(evidenceId);\r\n    }\r\n\r\n    modifier onlyOwner(uint32 _evidenceId) {\r\n         require(msg.sender == evidences[_evidenceId].evidenceOwner,\"\");\r\n         _;\r\n\r\n    }\r\n\r\n    function getEvidence(uint32 _evidenceId) public view returns (string memory,string memory,address,uint32){\r\n        return (evidences[_evidenceId].evidenceName,\r\n                evidences[_evidenceId].evidenceType,\r\n                evidences[_evidenceId].evidenceOwner,\r\n                evidences[_evidenceId].mfgTimeStamp);\r\n    }\r\n\r\n\r\n    function newOwner(uint32 _user1Id,uint32 _user2Id, uint32 _evidId) onlyOwner(_evidId) public returns (bool) {\r\n        Participant memory p1 = participants[_user1Id];\r\n        Participant memory p2 = participants[_user2Id];\r\n        uint32 ownership_id = owner_id++;\r\n\r\n        if(keccak256(abi.encodePacked(p1.participantType)) == keccak256(\"Police\")\r\n            && keccak256(abi.encodePacked(p2.participantType))==keccak256(\"Lab\")){\r\n            ownerships[ownership_id].evidenceId = _evidId;\r\n            ownerships[ownership_id].evidenceOwner = p2.participantAddress;\r\n            ownerships[ownership_id].ownerId = _user2Id;\r\n            ownerships[ownership_id].trxTimeStamp = uint32(block.timestamp);\r\n            evidences[_evidId].evidenceOwner = p2.participantAddress;\r\n            evidenceTrack[_evidId].push(ownership_id);\r\n            emit TransferOwnership(_evidId);\r\n\r\n            return (true);\r\n        }\r\n        else if(keccak256(abi.encodePacked(p1.participantType)) == keccak256(\"Lab\") \r\n            && keccak256(abi.encodePacked(p2.participantType))==keccak256(\"Lab\")){\r\n            ownerships[ownership_id].evidenceId = _evidId;\r\n            ownerships[ownership_id].evidenceOwner = p2.participantAddress;\r\n            ownerships[ownership_id].ownerId = _user2Id;\r\n            ownerships[ownership_id].trxTimeStamp = uint32(block.timestamp);\r\n            evidences[_evidId].evidenceOwner = p2.participantAddress;\r\n            evidenceTrack[_evidId].push(ownership_id);\r\n            emit TransferOwnership(_evidId);\r\n\r\n            return (true);\r\n        }\r\n        else if(keccak256(abi.encodePacked(p1.participantType)) == keccak256(\"Lab\") \r\n            && keccak256(abi.encodePacked(p2.participantType))==keccak256(\"Court\")){\r\n            ownerships[ownership_id].evidenceId = _evidId;\r\n            ownerships[ownership_id].evidenceOwner = p2.participantAddress;\r\n            ownerships[ownership_id].ownerId = _user2Id;\r\n            ownerships[ownership_id].trxTimeStamp = uint32(block.timestamp);\r\n            evidences[_evidId].evidenceOwner = p2.participantAddress;\r\n            evidenceTrack[_evidId].push(ownership_id);\r\n            emit TransferOwnership(_evidId);\r\n\r\n            return (true);\r\n        }\r\n\r\n        return (false);\r\n    }\r\n\r\n    function getProvenance(uint32 _evidenceId) external view returns (uint32[] memory) {\r\n       return evidenceTrack[_evidenceId];\r\n    }\r\n\r\n    function getOwnership(uint32 _regId)  public view returns (uint32,uint32,address,uint32) {\r\n\r\n        ownership memory r = ownerships[_regId];\r\n\r\n         return (r.evidenceId ,r.ownerId ,r.evidenceOwner,r.trxTimeStamp);\r\n    }\r\n\r\n    function authenticateParticipant(uint32 _uid,\r\n                                    string memory _uname,\r\n                                    string memory _pass,\r\n                                    string memory _utype) public view returns (bool){\r\n        if(keccak256(abi.encodePacked(participants[_uid].participantType)) == keccak256(abi.encodePacked(_utype))) {\r\n            if(keccak256(abi.encodePacked(participants[_uid].userName)) == keccak256(abi.encodePacked(_uname))) {\r\n                if(keccak256(abi.encodePacked(participants[_uid].password)) == keccak256(abi.encodePacked(_pass))) {\r\n                    return (true);\r\n                }\r\n            }\r\n        }\r\n\r\n        return (false);\r\n    }\r\n}",
  "sourcePath": "C:\\IPCA DISSERTAO\\evidences_dapp\\contracts\\EvidenceChain.sol",
  "compiler": {
    "name": "solc",
    "version": "0.8.19+commit.7dd6d404.Emscripten.clang"
  },
  "schemaVersion": "3.4.13",
  "updatedAt": "2023-08-06T18:59:50.923Z",
  "networkType": "ethereum",
  "devdoc": {
    "kind": "dev",
    "methods": {},
    "version": 1
  },
  "userdoc": {
    "kind": "user",
    "methods": {},
    "version": 1
  }
}