{
  "contractName": "EvidencesManager",
  "abi": [
    {
      "inputs": [
        {
          "internalType": "uint256",
          "name": "",
          "type": "uint256"
        }
      ],
      "name": "allEvidences",
      "outputs": [
        {
          "internalType": "string",
          "name": "",
          "type": "string"
        }
      ],
      "stateMutability": "view",
      "type": "function"
    },
    {
      "inputs": [
        {
          "internalType": "string",
          "name": "",
          "type": "string"
        },
        {
          "internalType": "uint256",
          "name": "",
          "type": "uint256"
        }
      ],
      "name": "evidencesHistory",
      "outputs": [
        {
          "internalType": "string",
          "name": "evidenceUniqueCode",
          "type": "string"
        },
        {
          "internalType": "string",
          "name": "evidenceName",
          "type": "string"
        },
        {
          "internalType": "string",
          "name": "evidenceType",
          "type": "string"
        },
        {
          "components": [
            {
              "internalType": "string",
              "name": "userName",
              "type": "string"
            },
            {
              "internalType": "string",
              "name": "password",
              "type": "string"
            },
            {
              "internalType": "string",
              "name": "name",
              "type": "string"
            },
            {
              "internalType": "string",
              "name": "departmentCode",
              "type": "string"
            },
            {
              "internalType": "string",
              "name": "entityType",
              "type": "string"
            },
            {
              "internalType": "address",
              "name": "entityAddress",
              "type": "address"
            },
            {
              "internalType": "uint256",
              "name": "timestamp",
              "type": "uint256"
            }
          ],
          "internalType": "struct EntitiesManager.Entity",
          "name": "evidenceOwner",
          "type": "tuple"
        },
        {
          "internalType": "uint256",
          "name": "timestamp",
          "type": "uint256"
        }
      ],
      "stateMutability": "view",
      "type": "function"
    },
    {
      "inputs": [
        {
          "internalType": "string",
          "name": "_evidenceUniqueCode",
          "type": "string"
        },
        {
          "internalType": "string",
          "name": "_evidenceName",
          "type": "string"
        },
        {
          "internalType": "string",
          "name": "_evidenceType",
          "type": "string"
        },
        {
          "components": [
            {
              "internalType": "string",
              "name": "userName",
              "type": "string"
            },
            {
              "internalType": "string",
              "name": "password",
              "type": "string"
            },
            {
              "internalType": "string",
              "name": "name",
              "type": "string"
            },
            {
              "internalType": "string",
              "name": "departmentCode",
              "type": "string"
            },
            {
              "internalType": "string",
              "name": "entityType",
              "type": "string"
            },
            {
              "internalType": "address",
              "name": "entityAddress",
              "type": "address"
            },
            {
              "internalType": "uint256",
              "name": "timestamp",
              "type": "uint256"
            }
          ],
          "internalType": "struct EntitiesManager.Entity",
          "name": "_entity",
          "type": "tuple"
        }
      ],
      "name": "addEvidence",
      "outputs": [],
      "stateMutability": "nonpayable",
      "type": "function"
    },
    {
      "inputs": [],
      "name": "getEvidences",
      "outputs": [
        {
          "internalType": "string[]",
          "name": "",
          "type": "string[]"
        }
      ],
      "stateMutability": "view",
      "type": "function"
    },
    {
      "inputs": [
        {
          "internalType": "string",
          "name": "_evidenceUniqueCode",
          "type": "string"
        }
      ],
      "name": "getEvidenceHistory",
      "outputs": [
        {
          "components": [
            {
              "internalType": "string",
              "name": "evidenceUniqueCode",
              "type": "string"
            },
            {
              "internalType": "string",
              "name": "evidenceName",
              "type": "string"
            },
            {
              "internalType": "string",
              "name": "evidenceType",
              "type": "string"
            },
            {
              "components": [
                {
                  "internalType": "string",
                  "name": "userName",
                  "type": "string"
                },
                {
                  "internalType": "string",
                  "name": "password",
                  "type": "string"
                },
                {
                  "internalType": "string",
                  "name": "name",
                  "type": "string"
                },
                {
                  "internalType": "string",
                  "name": "departmentCode",
                  "type": "string"
                },
                {
                  "internalType": "string",
                  "name": "entityType",
                  "type": "string"
                },
                {
                  "internalType": "address",
                  "name": "entityAddress",
                  "type": "address"
                },
                {
                  "internalType": "uint256",
                  "name": "timestamp",
                  "type": "uint256"
                }
              ],
              "internalType": "struct EntitiesManager.Entity",
              "name": "evidenceOwner",
              "type": "tuple"
            },
            {
              "internalType": "uint256",
              "name": "timestamp",
              "type": "uint256"
            }
          ],
          "internalType": "struct EvidencesManager.Evidence[]",
          "name": "",
          "type": "tuple[]"
        }
      ],
      "stateMutability": "view",
      "type": "function"
    },
    {
      "inputs": [
        {
          "internalType": "string",
          "name": "_evidenceUniqueCode",
          "type": "string"
        }
      ],
      "name": "getLastUpdate",
      "outputs": [
        {
          "components": [
            {
              "internalType": "string",
              "name": "evidenceUniqueCode",
              "type": "string"
            },
            {
              "internalType": "string",
              "name": "evidenceName",
              "type": "string"
            },
            {
              "internalType": "string",
              "name": "evidenceType",
              "type": "string"
            },
            {
              "components": [
                {
                  "internalType": "string",
                  "name": "userName",
                  "type": "string"
                },
                {
                  "internalType": "string",
                  "name": "password",
                  "type": "string"
                },
                {
                  "internalType": "string",
                  "name": "name",
                  "type": "string"
                },
                {
                  "internalType": "string",
                  "name": "departmentCode",
                  "type": "string"
                },
                {
                  "internalType": "string",
                  "name": "entityType",
                  "type": "string"
                },
                {
                  "internalType": "address",
                  "name": "entityAddress",
                  "type": "address"
                },
                {
                  "internalType": "uint256",
                  "name": "timestamp",
                  "type": "uint256"
                }
              ],
              "internalType": "struct EntitiesManager.Entity",
              "name": "evidenceOwner",
              "type": "tuple"
            },
            {
              "internalType": "uint256",
              "name": "timestamp",
              "type": "uint256"
            }
          ],
          "internalType": "struct EvidencesManager.Evidence",
          "name": "",
          "type": "tuple"
        }
      ],
      "stateMutability": "view",
      "type": "function"
    }
  ],
  "bytecode": "0x608060405234801561001057600080fd5b50612545806100206000396000f3fe608060405234801561001057600080fd5b50600436106100625760003560e01c80633eeb568b14610067578063590800a014610097578063697b22da146100b3578063947ea5ac146100e7578063c892522e14610117578063dff95aac14610147575b600080fd5b610081600480360381019061007c9190611762565b610165565b60405161008e91906119c7565b60405180910390f35b6100b160048036038101906100ac9190611b8b565b610740565b005b6100cd60048036038101906100c89190611c62565b61092b565b6040516100de959493929190611dcf565b60405180910390f35b61010160048036038101906100fc9190611e3e565b610e70565b60405161010e9190611e6b565b60405180910390f35b610131600480360381019061012c9190611762565b610f1c565b60405161013e9190611fda565b60405180910390f35b61014f6114a7565b60405161015c91906120be565b60405180910390f35b61016d611580565b6000808360405161017e919061211c565b9081526020016040518091039020805490509050600081116101d5576040517f08c379a00000000000000000000000000000000000000000000000000000000081526004016101cc9061217f565b60405180910390fd5b6000836040516101e5919061211c565b908152602001604051809103902060018261020091906121ce565b8154811061021157610210612202565b5b90600052602060002090600b02016040518060a001604052908160008201805461023a90612260565b80601f016020809104026020016040519081016040528092919081815260200182805461026690612260565b80156102b35780601f10610288576101008083540402835291602001916102b3565b820191906000526020600020905b81548152906001019060200180831161029657829003601f168201915b505050505081526020016001820180546102cc90612260565b80601f01602080910402602001604051908101604052809291908181526020018280546102f890612260565b80156103455780601f1061031a57610100808354040283529160200191610345565b820191906000526020600020905b81548152906001019060200180831161032857829003601f168201915b5050505050815260200160028201805461035e90612260565b80601f016020809104026020016040519081016040528092919081815260200182805461038a90612260565b80156103d75780601f106103ac576101008083540402835291602001916103d7565b820191906000526020600020905b8154815290600101906020018083116103ba57829003601f168201915b50505050508152602001600382016040518060e001604052908160008201805461040090612260565b80601f016020809104026020016040519081016040528092919081815260200182805461042c90612260565b80156104795780601f1061044e57610100808354040283529160200191610479565b820191906000526020600020905b81548152906001019060200180831161045c57829003601f168201915b5050505050815260200160018201805461049290612260565b80601f01602080910402602001604051908101604052809291908181526020018280546104be90612260565b801561050b5780601f106104e05761010080835404028352916020019161050b565b820191906000526020600020905b8154815290600101906020018083116104ee57829003601f168201915b5050505050815260200160028201805461052490612260565b80601f016020809104026020016040519081016040528092919081815260200182805461055090612260565b801561059d5780601f106105725761010080835404028352916020019161059d565b820191906000526020600020905b81548152906001019060200180831161058057829003601f168201915b505050505081526020016003820180546105b690612260565b80601f01602080910402602001604051908101604052809291908181526020018280546105e290612260565b801561062f5780601f106106045761010080835404028352916020019161062f565b820191906000526020600020905b81548152906001019060200180831161061257829003601f168201915b5050505050815260200160048201805461064890612260565b80601f016020809104026020016040519081016040528092919081815260200182805461067490612260565b80156106c15780601f10610696576101008083540402835291602001916106c1565b820191906000526020600020905b8154815290600101906020018083116106a457829003601f168201915b505050505081526020016005820160009054906101000a900473ffffffffffffffffffffffffffffffffffffffff1673ffffffffffffffffffffffffffffffffffffffff1673ffffffffffffffffffffffffffffffffffffffff1681526020016006820154815250508152602001600a82015481525050915050919050565b600084604051610750919061211c565b90815260200160405180910390206040518060a001604052808681526020018581526020018481526020018381526020014281525090806001815401808255809150506001900390600052602060002090600b020160009091909190915060008201518160000190816107c3919061243d565b5060208201518160010190816107d9919061243d565b5060408201518160020190816107ef919061243d565b50606082015181600301600082015181600001908161080e919061243d565b506020820151816001019081610824919061243d565b50604082015181600201908161083a919061243d565b506060820151816003019081610850919061243d565b506080820151816004019081610866919061243d565b5060a08201518160050160006101000a81548173ffffffffffffffffffffffffffffffffffffffff021916908373ffffffffffffffffffffffffffffffffffffffff16021790555060c082015181600601555050608082015181600a0155505060016000856040516108d8919061211c565b9081526020016040518091039020805490500361092557600184908060018154018082558091505060019003906000526020600020016000909190919091509081610923919061243d565b505b50505050565b600082805160208101820180518482526020830160208501208183528095505050505050818154811061095d57600080fd5b90600052602060002090600b02016000915091505080600001805461098190612260565b80601f01602080910402602001604051908101604052809291908181526020018280546109ad90612260565b80156109fa5780601f106109cf576101008083540402835291602001916109fa565b820191906000526020600020905b8154815290600101906020018083116109dd57829003601f168201915b505050505090806001018054610a0f90612260565b80601f0160208091040260200160405190810160405280929190818152602001828054610a3b90612260565b8015610a885780601f10610a5d57610100808354040283529160200191610a88565b820191906000526020600020905b815481529060010190602001808311610a6b57829003601f168201915b505050505090806002018054610a9d90612260565b80601f0160208091040260200160405190810160405280929190818152602001828054610ac990612260565b8015610b165780601f10610aeb57610100808354040283529160200191610b16565b820191906000526020600020905b815481529060010190602001808311610af957829003601f168201915b505050505090806003016040518060e0016040529081600082018054610b3b90612260565b80601f0160208091040260200160405190810160405280929190818152602001828054610b6790612260565b8015610bb45780601f10610b8957610100808354040283529160200191610bb4565b820191906000526020600020905b815481529060010190602001808311610b9757829003601f168201915b50505050508152602001600182018054610bcd90612260565b80601f0160208091040260200160405190810160405280929190818152602001828054610bf990612260565b8015610c465780601f10610c1b57610100808354040283529160200191610c46565b820191906000526020600020905b815481529060010190602001808311610c2957829003601f168201915b50505050508152602001600282018054610c5f90612260565b80601f0160208091040260200160405190810160405280929190818152602001828054610c8b90612260565b8015610cd85780601f10610cad57610100808354040283529160200191610cd8565b820191906000526020600020905b815481529060010190602001808311610cbb57829003601f168201915b50505050508152602001600382018054610cf190612260565b80601f0160208091040260200160405190810160405280929190818152602001828054610d1d90612260565b8015610d6a5780601f10610d3f57610100808354040283529160200191610d6a565b820191906000526020600020905b815481529060010190602001808311610d4d57829003601f168201915b50505050508152602001600482018054610d8390612260565b80601f0160208091040260200160405190810160405280929190818152602001828054610daf90612260565b8015610dfc5780601f10610dd157610100808354040283529160200191610dfc565b820191906000526020600020905b815481529060010190602001808311610ddf57829003601f168201915b505050505081526020016005820160009054906101000a900473ffffffffffffffffffffffffffffffffffffffff1673ffffffffffffffffffffffffffffffffffffffff1673ffffffffffffffffffffffffffffffffffffffff1681526020016006820154815250509080600a0154905085565b60018181548110610e8057600080fd5b906000526020600020016000915090508054610e9b90612260565b80601f0160208091040260200160405190810160405280929190818152602001828054610ec790612260565b8015610f145780601f10610ee957610100808354040283529160200191610f14565b820191906000526020600020905b815481529060010190602001808311610ef757829003601f168201915b505050505081565b6060600082604051610f2e919061211c565b9081526020016040518091039020805480602002602001604051908101604052809291908181526020016000905b8282101561149c57838290600052602060002090600b02016040518060a0016040529081600082018054610f8f90612260565b80601f0160208091040260200160405190810160405280929190818152602001828054610fbb90612260565b80156110085780601f10610fdd57610100808354040283529160200191611008565b820191906000526020600020905b815481529060010190602001808311610feb57829003601f168201915b5050505050815260200160018201805461102190612260565b80601f016020809104026020016040519081016040528092919081815260200182805461104d90612260565b801561109a5780601f1061106f5761010080835404028352916020019161109a565b820191906000526020600020905b81548152906001019060200180831161107d57829003601f168201915b505050505081526020016002820180546110b390612260565b80601f01602080910402602001604051908101604052809291908181526020018280546110df90612260565b801561112c5780601f106111015761010080835404028352916020019161112c565b820191906000526020600020905b81548152906001019060200180831161110f57829003601f168201915b50505050508152602001600382016040518060e001604052908160008201805461115590612260565b80601f016020809104026020016040519081016040528092919081815260200182805461118190612260565b80156111ce5780601f106111a3576101008083540402835291602001916111ce565b820191906000526020600020905b8154815290600101906020018083116111b157829003601f168201915b505050505081526020016001820180546111e790612260565b80601f016020809104026020016040519081016040528092919081815260200182805461121390612260565b80156112605780601f1061123557610100808354040283529160200191611260565b820191906000526020600020905b81548152906001019060200180831161124357829003601f168201915b5050505050815260200160028201805461127990612260565b80601f01602080910402602001604051908101604052809291908181526020018280546112a590612260565b80156112f25780601f106112c7576101008083540402835291602001916112f2565b820191906000526020600020905b8154815290600101906020018083116112d557829003601f168201915b5050505050815260200160038201805461130b90612260565b80601f016020809104026020016040519081016040528092919081815260200182805461133790612260565b80156113845780601f1061135957610100808354040283529160200191611384565b820191906000526020600020905b81548152906001019060200180831161136757829003601f168201915b5050505050815260200160048201805461139d90612260565b80601f01602080910402602001604051908101604052809291908181526020018280546113c990612260565b80156114165780601f106113eb57610100808354040283529160200191611416565b820191906000526020600020905b8154815290600101906020018083116113f957829003601f168201915b505050505081526020016005820160009054906101000a900473ffffffffffffffffffffffffffffffffffffffff1673ffffffffffffffffffffffffffffffffffffffff1673ffffffffffffffffffffffffffffffffffffffff1681526020016006820154815250508152602001600a8201548152505081526020019060010190610f5c565b505050509050919050565b60606001805480602002602001604051908101604052809291908181526020016000905b828210156115775783829060005260206000200180546114ea90612260565b80601f016020809104026020016040519081016040528092919081815260200182805461151690612260565b80156115635780601f1061153857610100808354040283529160200191611563565b820191906000526020600020905b81548152906001019060200180831161154657829003601f168201915b5050505050815260200190600101906114cb565b50505050905090565b6040518060a001604052806060815260200160608152602001606081526020016115a86115b5565b8152602001600081525090565b6040518060e001604052806060815260200160608152602001606081526020016060815260200160608152602001600073ffffffffffffffffffffffffffffffffffffffff168152602001600081525090565b6000604051905090565b600080fd5b600080fd5b600080fd5b600080fd5b6000601f19601f8301169050919050565b7f4e487b7100000000000000000000000000000000000000000000000000000000600052604160045260246000fd5b61166f82611626565b810181811067ffffffffffffffff8211171561168e5761168d611637565b5b80604052505050565b60006116a1611608565b90506116ad8282611666565b919050565b600067ffffffffffffffff8211156116cd576116cc611637565b5b6116d682611626565b9050602081019050919050565b82818337600083830152505050565b6000611705611700846116b2565b611697565b90508281526020810184848401111561172157611720611621565b5b61172c8482856116e3565b509392505050565b600082601f8301126117495761174861161c565b5b81356117598482602086016116f2565b91505092915050565b60006020828403121561177857611777611612565b5b600082013567ffffffffffffffff81111561179657611795611617565b5b6117a284828501611734565b91505092915050565b600081519050919050565b600082825260208201905092915050565b60005b838110156117e55780820151818401526020810190506117ca565b60008484015250505050565b60006117fc826117ab565b61180681856117b6565b93506118168185602086016117c7565b61181f81611626565b840191505092915050565b600073ffffffffffffffffffffffffffffffffffffffff82169050919050565b60006118558261182a565b9050919050565b6118658161184a565b82525050565b6000819050919050565b61187e8161186b565b82525050565b600060e08301600083015184820360008601526118a182826117f1565b915050602083015184820360208601526118bb82826117f1565b915050604083015184820360408601526118d582826117f1565b915050606083015184820360608601526118ef82826117f1565b9150506080830151848203608086015261190982826117f1565b91505060a083015161191e60a086018261185c565b5060c083015161193160c0860182611875565b508091505092915050565b600060a083016000830151848203600086015261195982826117f1565b9150506020830151848203602086015261197382826117f1565b9150506040830151848203604086015261198d82826117f1565b915050606083015184820360608601526119a78282611884565b91505060808301516119bc6080860182611875565b508091505092915050565b600060208201905081810360008301526119e1818461193c565b905092915050565b600080fd5b600080fd5b6119fc8161184a565b8114611a0757600080fd5b50565b600081359050611a19816119f3565b92915050565b611a288161186b565b8114611a3357600080fd5b50565b600081359050611a4581611a1f565b92915050565b600060e08284031215611a6157611a606119e9565b5b611a6b60e0611697565b9050600082013567ffffffffffffffff811115611a8b57611a8a6119ee565b5b611a9784828501611734565b600083015250602082013567ffffffffffffffff811115611abb57611aba6119ee565b5b611ac784828501611734565b602083015250604082013567ffffffffffffffff811115611aeb57611aea6119ee565b5b611af784828501611734565b604083015250606082013567ffffffffffffffff811115611b1b57611b1a6119ee565b5b611b2784828501611734565b606083015250608082013567ffffffffffffffff811115611b4b57611b4a6119ee565b5b611b5784828501611734565b60808301525060a0611b6b84828501611a0a565b60a08301525060c0611b7f84828501611a36565b60c08301525092915050565b60008060008060808587031215611ba557611ba4611612565b5b600085013567ffffffffffffffff811115611bc357611bc2611617565b5b611bcf87828801611734565b945050602085013567ffffffffffffffff811115611bf057611bef611617565b5b611bfc87828801611734565b935050604085013567ffffffffffffffff811115611c1d57611c1c611617565b5b611c2987828801611734565b925050606085013567ffffffffffffffff811115611c4a57611c49611617565b5b611c5687828801611a4b565b91505092959194509250565b60008060408385031215611c7957611c78611612565b5b600083013567ffffffffffffffff811115611c9757611c96611617565b5b611ca385828601611734565b9250506020611cb485828601611a36565b9150509250929050565b600082825260208201905092915050565b6000611cda826117ab565b611ce48185611cbe565b9350611cf48185602086016117c7565b611cfd81611626565b840191505092915050565b600060e0830160008301518482036000860152611d2582826117f1565b91505060208301518482036020860152611d3f82826117f1565b91505060408301518482036040860152611d5982826117f1565b91505060608301518482036060860152611d7382826117f1565b91505060808301518482036080860152611d8d82826117f1565b91505060a0830151611da260a086018261185c565b5060c0830151611db560c0860182611875565b508091505092915050565b611dc98161186b565b82525050565b600060a0820190508181036000830152611de98188611ccf565b90508181036020830152611dfd8187611ccf565b90508181036040830152611e118186611ccf565b90508181036060830152611e258185611d08565b9050611e346080830184611dc0565b9695505050505050565b600060208284031215611e5457611e53611612565b5b6000611e6284828501611a36565b91505092915050565b60006020820190508181036000830152611e858184611ccf565b905092915050565b600081519050919050565b600082825260208201905092915050565b6000819050602082019050919050565b600060a0830160008301518482036000860152611ed682826117f1565b91505060208301518482036020860152611ef082826117f1565b91505060408301518482036040860152611f0a82826117f1565b91505060608301518482036060860152611f248282611884565b9150506080830151611f396080860182611875565b508091505092915050565b6000611f508383611eb9565b905092915050565b6000602082019050919050565b6000611f7082611e8d565b611f7a8185611e98565b935083602082028501611f8c85611ea9565b8060005b85811015611fc85784840389528151611fa98582611f44565b9450611fb483611f58565b925060208a01995050600181019050611f90565b50829750879550505050505092915050565b60006020820190508181036000830152611ff48184611f65565b905092915050565b600081519050919050565b600082825260208201905092915050565b6000819050602082019050919050565b600061203483836117f1565b905092915050565b6000602082019050919050565b600061205482611ffc565b61205e8185612007565b93508360208202850161207085612018565b8060005b858110156120ac578484038952815161208d8582612028565b94506120988361203c565b925060208a01995050600181019050612074565b50829750879550505050505092915050565b600060208201905081810360008301526120d88184612049565b905092915050565b600081905092915050565b60006120f6826117ab565b61210081856120e0565b93506121108185602086016117c7565b80840191505092915050565b600061212882846120eb565b915081905092915050565b7f45766964656e6365206e616f20656e636f6e747261646f000000000000000000600082015250565b6000612169601783611cbe565b915061217482612133565b602082019050919050565b600060208201905081810360008301526121988161215c565b9050919050565b7f4e487b7100000000000000000000000000000000000000000000000000000000600052601160045260246000fd5b60006121d98261186b565b91506121e48361186b565b92508282039050818111156121fc576121fb61219f565b5b92915050565b7f4e487b7100000000000000000000000000000000000000000000000000000000600052603260045260246000fd5b7f4e487b7100000000000000000000000000000000000000000000000000000000600052602260045260246000fd5b6000600282049050600182168061227857607f821691505b60208210810361228b5761228a612231565b5b50919050565b60008190508160005260206000209050919050565b60006020601f8301049050919050565b600082821b905092915050565b6000600883026122f37fffffffffffffffffffffffffffffffffffffffffffffffffffffffffffffffff826122b6565b6122fd86836122b6565b95508019841693508086168417925050509392505050565b6000819050919050565b600061233a6123356123308461186b565b612315565b61186b565b9050919050565b6000819050919050565b6123548361231f565b61236861236082612341565b8484546122c3565b825550505050565b600090565b61237d612370565b61238881848461234b565b505050565b5b818110156123ac576123a1600082612375565b60018101905061238e565b5050565b601f8211156123f1576123c281612291565b6123cb846122a6565b810160208510156123da578190505b6123ee6123e6856122a6565b83018261238d565b50505b505050565b600082821c905092915050565b6000612414600019846008026123f6565b1980831691505092915050565b600061242d8383612403565b9150826002028217905092915050565b612446826117ab565b67ffffffffffffffff81111561245f5761245e611637565b5b6124698254612260565b6124748282856123b0565b600060209050601f8311600181146124a75760008415612495578287015190505b61249f8582612421565b865550612507565b601f1984166124b586612291565b60005b828110156124dd578489015182556001820191506020850194506020810190506124b8565b868310156124fa57848901516124f6601f891682612403565b8355505b6001600288020188555050505b50505050505056fea264697066735822122021f1772fb12fbcc50fdaf6b909218888bb0a8eb54b63ab5d10c2de5e3a4f67c164736f6c63430008130033",
  "immutableReferences": {},
  "source": "pragma solidity ^0.8.0;\r\nimport \"./EntitiesManager.sol\";\r\n\r\ncontract EvidencesManager {\r\n\r\n    struct Evidence {\r\n        string evidenceUniqueCode;\r\n        string evidenceName;\r\n        string evidenceType;\r\n        EntitiesManager.Entity evidenceOwner;\r\n        uint256 timestamp;\r\n    }\r\n\r\n    mapping(string => Evidence[]) public evidencesHistory;\r\n    string[] public allEvidences;\r\n\r\n    function addEvidence(string memory _evidenceUniqueCode, string memory _evidenceName, string memory _evidenceType, EntitiesManager.Entity memory _entity) public {\r\n        evidencesHistory[_evidenceUniqueCode].push(Evidence(_evidenceUniqueCode, _evidenceName, _evidenceType, _entity, block.timestamp));\r\n        if (evidencesHistory[_evidenceUniqueCode].length == 1) \r\n        {\r\n            allEvidences.push(_evidenceUniqueCode);\r\n        }\r\n    }\r\n\r\n    function getEvidences() public view returns (string[] memory) {\r\n        return allEvidences;\r\n    }\r\n\r\n    function getEvidenceHistory(string memory _evidenceUniqueCode) public view returns (Evidence[] memory) {\r\n        return evidencesHistory[_evidenceUniqueCode];\r\n    }\r\n\r\n    function getLastUpdate (string memory _evidenceUniqueCode) public view returns (Evidence memory) {\r\n        uint totalVersions = evidencesHistory[_evidenceUniqueCode].length;\r\n        require(totalVersions > 0, \"Evidence nao encontrado\");\r\n\r\n        return evidencesHistory[_evidenceUniqueCode][totalVersions - 1];\r\n    }\r\n}",
  "sourcePath": "C:\\IPCA DISSERTAO\\evidences_dapp\\contracts\\EvidencesManager.sol",
  "compiler": {
    "name": "solc",
    "version": "0.8.19+commit.7dd6d404.Emscripten.clang"
  },
  "schemaVersion": "3.4.13",
  "updatedAt": "2023-08-12T13:45:07.712Z",
  "devdoc": {
    "kind": "dev",
    "methods": {},
    "version": 1
  },
  "userdoc": {
    "kind": "user",
    "methods": {},
    "version": 1
  }
}