{
  "contractName": "EvidencesManager",
  "abi": [
    {
      "inputs": [
        {
          "internalType": "uint256",
          "name": "",
          "type": "uint256"
        }
      ],
      "name": "allEvidences",
      "outputs": [
        {
          "internalType": "string",
          "name": "",
          "type": "string"
        }
      ],
      "stateMutability": "view",
      "type": "function",
      "constant": true
    },
    {
      "inputs": [
        {
          "internalType": "string",
          "name": "",
          "type": "string"
        },
        {
          "internalType": "uint256",
          "name": "",
          "type": "uint256"
        }
      ],
      "name": "evidencesHistory",
      "outputs": [
        {
          "internalType": "string",
          "name": "evidenceUniqueCode",
          "type": "string"
        },
        {
          "internalType": "string",
          "name": "evidenceName",
          "type": "string"
        },
        {
          "internalType": "string",
          "name": "evidenceType",
          "type": "string"
        },
        {
          "components": [
            {
              "internalType": "string",
              "name": "userName",
              "type": "string"
            },
            {
              "internalType": "string",
              "name": "password",
              "type": "string"
            },
            {
              "internalType": "string",
              "name": "name",
              "type": "string"
            },
            {
              "internalType": "string",
              "name": "departmentCode",
              "type": "string"
            },
            {
              "internalType": "string",
              "name": "entityType",
              "type": "string"
            },
            {
              "internalType": "address",
              "name": "entityAddress",
              "type": "address"
            },
            {
              "internalType": "uint32",
              "name": "timestamp",
              "type": "uint32"
            }
          ],
          "internalType": "struct EntitiesManager.Entity",
          "name": "evidenceOwner",
          "type": "tuple"
        },
        {
          "internalType": "uint256",
          "name": "timestamp",
          "type": "uint256"
        }
      ],
      "stateMutability": "view",
      "type": "function",
      "constant": true
    },
    {
      "inputs": [
        {
          "internalType": "string",
          "name": "_evidenceUniqueCode",
          "type": "string"
        },
        {
          "internalType": "string",
          "name": "_evidenceName",
          "type": "string"
        },
        {
          "internalType": "string",
          "name": "_evidenceType",
          "type": "string"
        },
        {
          "components": [
            {
              "internalType": "string",
              "name": "userName",
              "type": "string"
            },
            {
              "internalType": "string",
              "name": "password",
              "type": "string"
            },
            {
              "internalType": "string",
              "name": "name",
              "type": "string"
            },
            {
              "internalType": "string",
              "name": "departmentCode",
              "type": "string"
            },
            {
              "internalType": "string",
              "name": "entityType",
              "type": "string"
            },
            {
              "internalType": "address",
              "name": "entityAddress",
              "type": "address"
            },
            {
              "internalType": "uint32",
              "name": "timestamp",
              "type": "uint32"
            }
          ],
          "internalType": "struct EntitiesManager.Entity",
          "name": "_entity",
          "type": "tuple"
        }
      ],
      "name": "addEvidence",
      "outputs": [],
      "stateMutability": "nonpayable",
      "type": "function"
    },
    {
      "inputs": [],
      "name": "getEvidences",
      "outputs": [
        {
          "internalType": "string[]",
          "name": "",
          "type": "string[]"
        }
      ],
      "stateMutability": "view",
      "type": "function",
      "constant": true
    },
    {
      "inputs": [
        {
          "internalType": "string",
          "name": "_evidenceUniqueCode",
          "type": "string"
        }
      ],
      "name": "getEvidenceHistory",
      "outputs": [
        {
          "components": [
            {
              "internalType": "string",
              "name": "evidenceUniqueCode",
              "type": "string"
            },
            {
              "internalType": "string",
              "name": "evidenceName",
              "type": "string"
            },
            {
              "internalType": "string",
              "name": "evidenceType",
              "type": "string"
            },
            {
              "components": [
                {
                  "internalType": "string",
                  "name": "userName",
                  "type": "string"
                },
                {
                  "internalType": "string",
                  "name": "password",
                  "type": "string"
                },
                {
                  "internalType": "string",
                  "name": "name",
                  "type": "string"
                },
                {
                  "internalType": "string",
                  "name": "departmentCode",
                  "type": "string"
                },
                {
                  "internalType": "string",
                  "name": "entityType",
                  "type": "string"
                },
                {
                  "internalType": "address",
                  "name": "entityAddress",
                  "type": "address"
                },
                {
                  "internalType": "uint32",
                  "name": "timestamp",
                  "type": "uint32"
                }
              ],
              "internalType": "struct EntitiesManager.Entity",
              "name": "evidenceOwner",
              "type": "tuple"
            },
            {
              "internalType": "uint256",
              "name": "timestamp",
              "type": "uint256"
            }
          ],
          "internalType": "struct EvidencesManager.Evidence[]",
          "name": "",
          "type": "tuple[]"
        }
      ],
      "stateMutability": "view",
      "type": "function",
      "constant": true
    },
    {
      "inputs": [
        {
          "internalType": "string",
          "name": "_evidenceUniqueCode",
          "type": "string"
        }
      ],
      "name": "getLastUpdate",
      "outputs": [
        {
          "components": [
            {
              "internalType": "string",
              "name": "evidenceUniqueCode",
              "type": "string"
            },
            {
              "internalType": "string",
              "name": "evidenceName",
              "type": "string"
            },
            {
              "internalType": "string",
              "name": "evidenceType",
              "type": "string"
            },
            {
              "components": [
                {
                  "internalType": "string",
                  "name": "userName",
                  "type": "string"
                },
                {
                  "internalType": "string",
                  "name": "password",
                  "type": "string"
                },
                {
                  "internalType": "string",
                  "name": "name",
                  "type": "string"
                },
                {
                  "internalType": "string",
                  "name": "departmentCode",
                  "type": "string"
                },
                {
                  "internalType": "string",
                  "name": "entityType",
                  "type": "string"
                },
                {
                  "internalType": "address",
                  "name": "entityAddress",
                  "type": "address"
                },
                {
                  "internalType": "uint32",
                  "name": "timestamp",
                  "type": "uint32"
                }
              ],
              "internalType": "struct EntitiesManager.Entity",
              "name": "evidenceOwner",
              "type": "tuple"
            },
            {
              "internalType": "uint256",
              "name": "timestamp",
              "type": "uint256"
            }
          ],
          "internalType": "struct EvidencesManager.Evidence",
          "name": "",
          "type": "tuple"
        }
      ],
      "stateMutability": "view",
      "type": "function",
      "constant": true
    }
  ],
  "bytecode": "0x608060405234801561001057600080fd5b50612607806100206000396000f3fe608060405234801561001057600080fd5b50600436106100625760003560e01c80632005df6d146100675780633eeb568b14610083578063697b22da146100b3578063947ea5ac146100e7578063c892522e14610117578063dff95aac14610147575b600080fd5b610081600480360381019061007c91906119bd565b610165565b005b61009d60048036038101906100989190611a94565b61036d565b6040516100aa9190611cd6565b60405180910390f35b6100cd60048036038101906100c89190611d24565b610964565b6040516100de959493929190611e91565b60405180910390f35b61010160048036038101906100fc9190611f00565b610ec5565b60405161010e9190611f2d565b60405180910390f35b610131600480360381019061012c9190611a94565b610f71565b60405161013e919061209c565b60405180910390f35b61014f611518565b60405161015c9190612180565b60405180910390f35b60008460405161017591906121de565b90815260200160405180910390206040518060a001604052808681526020018581526020018481526020018381526020014281525090806001815401808255809150506001900390600052602060002090600a020160009091909190915060008201518160000190816101e89190612401565b5060208201518160010190816101fe9190612401565b5060408201518160020190816102149190612401565b5060608201518160030160008201518160000190816102339190612401565b5060208201518160010190816102499190612401565b50604082015181600201908161025f9190612401565b5060608201518160030190816102759190612401565b50608082015181600401908161028b9190612401565b5060a08201518160050160006101000a81548173ffffffffffffffffffffffffffffffffffffffff021916908373ffffffffffffffffffffffffffffffffffffffff16021790555060c08201518160050160146101000a81548163ffffffff021916908363ffffffff1602179055505050608082015181600901555050600160008560405161031a91906121de565b90815260200160405180910390208054905003610367576001849080600181540180825580915050600190039060005260206000200160009091909190915090816103659190612401565b505b50505050565b6103756115f1565b6000808360405161038691906121de565b9081526020016040518091039020805490509050600081116103dd576040517f08c379a00000000000000000000000000000000000000000000000000000000081526004016103d49061251f565b60405180910390fd5b6000836040516103ed91906121de565b9081526020016040518091039020600182610408919061256e565b81548110610419576104186125a2565b5b90600052602060002090600a02016040518060a001604052908160008201805461044290612224565b80601f016020809104026020016040519081016040528092919081815260200182805461046e90612224565b80156104bb5780601f10610490576101008083540402835291602001916104bb565b820191906000526020600020905b81548152906001019060200180831161049e57829003601f168201915b505050505081526020016001820180546104d490612224565b80601f016020809104026020016040519081016040528092919081815260200182805461050090612224565b801561054d5780601f106105225761010080835404028352916020019161054d565b820191906000526020600020905b81548152906001019060200180831161053057829003601f168201915b5050505050815260200160028201805461056690612224565b80601f016020809104026020016040519081016040528092919081815260200182805461059290612224565b80156105df5780601f106105b4576101008083540402835291602001916105df565b820191906000526020600020905b8154815290600101906020018083116105c257829003601f168201915b50505050508152602001600382016040518060e001604052908160008201805461060890612224565b80601f016020809104026020016040519081016040528092919081815260200182805461063490612224565b80156106815780601f1061065657610100808354040283529160200191610681565b820191906000526020600020905b81548152906001019060200180831161066457829003601f168201915b5050505050815260200160018201805461069a90612224565b80601f01602080910402602001604051908101604052809291908181526020018280546106c690612224565b80156107135780601f106106e857610100808354040283529160200191610713565b820191906000526020600020905b8154815290600101906020018083116106f657829003601f168201915b5050505050815260200160028201805461072c90612224565b80601f016020809104026020016040519081016040528092919081815260200182805461075890612224565b80156107a55780601f1061077a576101008083540402835291602001916107a5565b820191906000526020600020905b81548152906001019060200180831161078857829003601f168201915b505050505081526020016003820180546107be90612224565b80601f01602080910402602001604051908101604052809291908181526020018280546107ea90612224565b80156108375780601f1061080c57610100808354040283529160200191610837565b820191906000526020600020905b81548152906001019060200180831161081a57829003601f168201915b5050505050815260200160048201805461085090612224565b80601f016020809104026020016040519081016040528092919081815260200182805461087c90612224565b80156108c95780601f1061089e576101008083540402835291602001916108c9565b820191906000526020600020905b8154815290600101906020018083116108ac57829003601f168201915b505050505081526020016005820160009054906101000a900473ffffffffffffffffffffffffffffffffffffffff1673ffffffffffffffffffffffffffffffffffffffff1673ffffffffffffffffffffffffffffffffffffffff1681526020016005820160149054906101000a900463ffffffff1663ffffffff1663ffffffff16815250508152602001600982015481525050915050919050565b600082805160208101820180518482526020830160208501208183528095505050505050818154811061099657600080fd5b90600052602060002090600a0201600091509150508060000180546109ba90612224565b80601f01602080910402602001604051908101604052809291908181526020018280546109e690612224565b8015610a335780601f10610a0857610100808354040283529160200191610a33565b820191906000526020600020905b815481529060010190602001808311610a1657829003601f168201915b505050505090806001018054610a4890612224565b80601f0160208091040260200160405190810160405280929190818152602001828054610a7490612224565b8015610ac15780601f10610a9657610100808354040283529160200191610ac1565b820191906000526020600020905b815481529060010190602001808311610aa457829003601f168201915b505050505090806002018054610ad690612224565b80601f0160208091040260200160405190810160405280929190818152602001828054610b0290612224565b8015610b4f5780601f10610b2457610100808354040283529160200191610b4f565b820191906000526020600020905b815481529060010190602001808311610b3257829003601f168201915b505050505090806003016040518060e0016040529081600082018054610b7490612224565b80601f0160208091040260200160405190810160405280929190818152602001828054610ba090612224565b8015610bed5780601f10610bc257610100808354040283529160200191610bed565b820191906000526020600020905b815481529060010190602001808311610bd057829003601f168201915b50505050508152602001600182018054610c0690612224565b80601f0160208091040260200160405190810160405280929190818152602001828054610c3290612224565b8015610c7f5780601f10610c5457610100808354040283529160200191610c7f565b820191906000526020600020905b815481529060010190602001808311610c6257829003601f168201915b50505050508152602001600282018054610c9890612224565b80601f0160208091040260200160405190810160405280929190818152602001828054610cc490612224565b8015610d115780601f10610ce657610100808354040283529160200191610d11565b820191906000526020600020905b815481529060010190602001808311610cf457829003601f168201915b50505050508152602001600382018054610d2a90612224565b80601f0160208091040260200160405190810160405280929190818152602001828054610d5690612224565b8015610da35780601f10610d7857610100808354040283529160200191610da3565b820191906000526020600020905b815481529060010190602001808311610d8657829003601f168201915b50505050508152602001600482018054610dbc90612224565b80601f0160208091040260200160405190810160405280929190818152602001828054610de890612224565b8015610e355780601f10610e0a57610100808354040283529160200191610e35565b820191906000526020600020905b815481529060010190602001808311610e1857829003601f168201915b505050505081526020016005820160009054906101000a900473ffffffffffffffffffffffffffffffffffffffff1673ffffffffffffffffffffffffffffffffffffffff1673ffffffffffffffffffffffffffffffffffffffff1681526020016005820160149054906101000a900463ffffffff1663ffffffff1663ffffffff1681525050908060090154905085565b60018181548110610ed557600080fd5b906000526020600020016000915090508054610ef090612224565b80601f0160208091040260200160405190810160405280929190818152602001828054610f1c90612224565b8015610f695780601f10610f3e57610100808354040283529160200191610f69565b820191906000526020600020905b815481529060010190602001808311610f4c57829003601f168201915b505050505081565b6060600082604051610f8391906121de565b9081526020016040518091039020805480602002602001604051908101604052809291908181526020016000905b8282101561150d57838290600052602060002090600a02016040518060a0016040529081600082018054610fe490612224565b80601f016020809104026020016040519081016040528092919081815260200182805461101090612224565b801561105d5780601f106110325761010080835404028352916020019161105d565b820191906000526020600020905b81548152906001019060200180831161104057829003601f168201915b5050505050815260200160018201805461107690612224565b80601f01602080910402602001604051908101604052809291908181526020018280546110a290612224565b80156110ef5780601f106110c4576101008083540402835291602001916110ef565b820191906000526020600020905b8154815290600101906020018083116110d257829003601f168201915b5050505050815260200160028201805461110890612224565b80601f016020809104026020016040519081016040528092919081815260200182805461113490612224565b80156111815780601f1061115657610100808354040283529160200191611181565b820191906000526020600020905b81548152906001019060200180831161116457829003601f168201915b50505050508152602001600382016040518060e00160405290816000820180546111aa90612224565b80601f01602080910402602001604051908101604052809291908181526020018280546111d690612224565b80156112235780601f106111f857610100808354040283529160200191611223565b820191906000526020600020905b81548152906001019060200180831161120657829003601f168201915b5050505050815260200160018201805461123c90612224565b80601f016020809104026020016040519081016040528092919081815260200182805461126890612224565b80156112b55780601f1061128a576101008083540402835291602001916112b5565b820191906000526020600020905b81548152906001019060200180831161129857829003601f168201915b505050505081526020016002820180546112ce90612224565b80601f01602080910402602001604051908101604052809291908181526020018280546112fa90612224565b80156113475780601f1061131c57610100808354040283529160200191611347565b820191906000526020600020905b81548152906001019060200180831161132a57829003601f168201915b5050505050815260200160038201805461136090612224565b80601f016020809104026020016040519081016040528092919081815260200182805461138c90612224565b80156113d95780601f106113ae576101008083540402835291602001916113d9565b820191906000526020600020905b8154815290600101906020018083116113bc57829003601f168201915b505050505081526020016004820180546113f290612224565b80601f016020809104026020016040519081016040528092919081815260200182805461141e90612224565b801561146b5780601f106114405761010080835404028352916020019161146b565b820191906000526020600020905b81548152906001019060200180831161144e57829003601f168201915b505050505081526020016005820160009054906101000a900473ffffffffffffffffffffffffffffffffffffffff1673ffffffffffffffffffffffffffffffffffffffff1673ffffffffffffffffffffffffffffffffffffffff1681526020016005820160149054906101000a900463ffffffff1663ffffffff1663ffffffff1681525050815260200160098201548152505081526020019060010190610fb1565b505050509050919050565b60606001805480602002602001604051908101604052809291908181526020016000905b828210156115e857838290600052602060002001805461155b90612224565b80601f016020809104026020016040519081016040528092919081815260200182805461158790612224565b80156115d45780601f106115a9576101008083540402835291602001916115d4565b820191906000526020600020905b8154815290600101906020018083116115b757829003601f168201915b50505050508152602001906001019061153c565b50505050905090565b6040518060a00160405280606081526020016060815260200160608152602001611619611626565b8152602001600081525090565b6040518060e001604052806060815260200160608152602001606081526020016060815260200160608152602001600073ffffffffffffffffffffffffffffffffffffffff168152602001600063ffffffff1681525090565b6000604051905090565b600080fd5b600080fd5b600080fd5b600080fd5b6000601f19601f8301169050919050565b7f4e487b7100000000000000000000000000000000000000000000000000000000600052604160045260246000fd5b6116e68261169d565b810181811067ffffffffffffffff82111715611705576117046116ae565b5b80604052505050565b600061171861167f565b905061172482826116dd565b919050565b600067ffffffffffffffff821115611744576117436116ae565b5b61174d8261169d565b9050602081019050919050565b82818337600083830152505050565b600061177c61177784611729565b61170e565b90508281526020810184848401111561179857611797611698565b5b6117a384828561175a565b509392505050565b600082601f8301126117c0576117bf611693565b5b81356117d0848260208601611769565b91505092915050565b600080fd5b600080fd5b600073ffffffffffffffffffffffffffffffffffffffff82169050919050565b600061180e826117e3565b9050919050565b61181e81611803565b811461182957600080fd5b50565b60008135905061183b81611815565b92915050565b600063ffffffff82169050919050565b61185a81611841565b811461186557600080fd5b50565b60008135905061187781611851565b92915050565b600060e08284031215611893576118926117d9565b5b61189d60e061170e565b9050600082013567ffffffffffffffff8111156118bd576118bc6117de565b5b6118c9848285016117ab565b600083015250602082013567ffffffffffffffff8111156118ed576118ec6117de565b5b6118f9848285016117ab565b602083015250604082013567ffffffffffffffff81111561191d5761191c6117de565b5b611929848285016117ab565b604083015250606082013567ffffffffffffffff81111561194d5761194c6117de565b5b611959848285016117ab565b606083015250608082013567ffffffffffffffff81111561197d5761197c6117de565b5b611989848285016117ab565b60808301525060a061199d8482850161182c565b60a08301525060c06119b184828501611868565b60c08301525092915050565b600080600080608085870312156119d7576119d6611689565b5b600085013567ffffffffffffffff8111156119f5576119f461168e565b5b611a01878288016117ab565b945050602085013567ffffffffffffffff811115611a2257611a2161168e565b5b611a2e878288016117ab565b935050604085013567ffffffffffffffff811115611a4f57611a4e61168e565b5b611a5b878288016117ab565b925050606085013567ffffffffffffffff811115611a7c57611a7b61168e565b5b611a888782880161187d565b91505092959194509250565b600060208284031215611aaa57611aa9611689565b5b600082013567ffffffffffffffff811115611ac857611ac761168e565b5b611ad4848285016117ab565b91505092915050565b600081519050919050565b600082825260208201905092915050565b60005b83811015611b17578082015181840152602081019050611afc565b60008484015250505050565b6000611b2e82611add565b611b388185611ae8565b9350611b48818560208601611af9565b611b518161169d565b840191505092915050565b611b6581611803565b82525050565b611b7481611841565b82525050565b600060e0830160008301518482036000860152611b978282611b23565b91505060208301518482036020860152611bb18282611b23565b91505060408301518482036040860152611bcb8282611b23565b91505060608301518482036060860152611be58282611b23565b91505060808301518482036080860152611bff8282611b23565b91505060a0830151611c1460a0860182611b5c565b5060c0830151611c2760c0860182611b6b565b508091505092915050565b6000819050919050565b611c4581611c32565b82525050565b600060a0830160008301518482036000860152611c688282611b23565b91505060208301518482036020860152611c828282611b23565b91505060408301518482036040860152611c9c8282611b23565b91505060608301518482036060860152611cb68282611b7a565b9150506080830151611ccb6080860182611c3c565b508091505092915050565b60006020820190508181036000830152611cf08184611c4b565b905092915050565b611d0181611c32565b8114611d0c57600080fd5b50565b600081359050611d1e81611cf8565b92915050565b60008060408385031215611d3b57611d3a611689565b5b600083013567ffffffffffffffff811115611d5957611d5861168e565b5b611d65858286016117ab565b9250506020611d7685828601611d0f565b9150509250929050565b600082825260208201905092915050565b6000611d9c82611add565b611da68185611d80565b9350611db6818560208601611af9565b611dbf8161169d565b840191505092915050565b600060e0830160008301518482036000860152611de78282611b23565b91505060208301518482036020860152611e018282611b23565b91505060408301518482036040860152611e1b8282611b23565b91505060608301518482036060860152611e358282611b23565b91505060808301518482036080860152611e4f8282611b23565b91505060a0830151611e6460a0860182611b5c565b5060c0830151611e7760c0860182611b6b565b508091505092915050565b611e8b81611c32565b82525050565b600060a0820190508181036000830152611eab8188611d91565b90508181036020830152611ebf8187611d91565b90508181036040830152611ed38186611d91565b90508181036060830152611ee78185611dca565b9050611ef66080830184611e82565b9695505050505050565b600060208284031215611f1657611f15611689565b5b6000611f2484828501611d0f565b91505092915050565b60006020820190508181036000830152611f478184611d91565b905092915050565b600081519050919050565b600082825260208201905092915050565b6000819050602082019050919050565b600060a0830160008301518482036000860152611f988282611b23565b91505060208301518482036020860152611fb28282611b23565b91505060408301518482036040860152611fcc8282611b23565b91505060608301518482036060860152611fe68282611b7a565b9150506080830151611ffb6080860182611c3c565b508091505092915050565b60006120128383611f7b565b905092915050565b6000602082019050919050565b600061203282611f4f565b61203c8185611f5a565b93508360208202850161204e85611f6b565b8060005b8581101561208a578484038952815161206b8582612006565b94506120768361201a565b925060208a01995050600181019050612052565b50829750879550505050505092915050565b600060208201905081810360008301526120b68184612027565b905092915050565b600081519050919050565b600082825260208201905092915050565b6000819050602082019050919050565b60006120f68383611b23565b905092915050565b6000602082019050919050565b6000612116826120be565b61212081856120c9565b935083602082028501612132856120da565b8060005b8581101561216e578484038952815161214f85826120ea565b945061215a836120fe565b925060208a01995050600181019050612136565b50829750879550505050505092915050565b6000602082019050818103600083015261219a818461210b565b905092915050565b600081905092915050565b60006121b882611add565b6121c281856121a2565b93506121d2818560208601611af9565b80840191505092915050565b60006121ea82846121ad565b915081905092915050565b7f4e487b7100000000000000000000000000000000000000000000000000000000600052602260045260246000fd5b6000600282049050600182168061223c57607f821691505b60208210810361224f5761224e6121f5565b5b50919050565b60008190508160005260206000209050919050565b60006020601f8301049050919050565b600082821b905092915050565b6000600883026122b77fffffffffffffffffffffffffffffffffffffffffffffffffffffffffffffffff8261227a565b6122c1868361227a565b95508019841693508086168417925050509392505050565b6000819050919050565b60006122fe6122f96122f484611c32565b6122d9565b611c32565b9050919050565b6000819050919050565b612318836122e3565b61232c61232482612305565b848454612287565b825550505050565b600090565b612341612334565b61234c81848461230f565b505050565b5b8181101561237057612365600082612339565b600181019050612352565b5050565b601f8211156123b55761238681612255565b61238f8461226a565b8101602085101561239e578190505b6123b26123aa8561226a565b830182612351565b50505b505050565b600082821c905092915050565b60006123d8600019846008026123ba565b1980831691505092915050565b60006123f183836123c7565b9150826002028217905092915050565b61240a82611add565b67ffffffffffffffff811115612423576124226116ae565b5b61242d8254612224565b612438828285612374565b600060209050601f83116001811461246b5760008415612459578287015190505b61246385826123e5565b8655506124cb565b601f19841661247986612255565b60005b828110156124a15784890151825560018201915060208501945060208101905061247c565b868310156124be57848901516124ba601f8916826123c7565b8355505b6001600288020188555050505b505050505050565b7f45766964656e6365206e616f20656e636f6e747261646f000000000000000000600082015250565b6000612509601783611d80565b9150612514826124d3565b602082019050919050565b60006020820190508181036000830152612538816124fc565b9050919050565b7f4e487b7100000000000000000000000000000000000000000000000000000000600052601160045260246000fd5b600061257982611c32565b915061258483611c32565b925082820390508181111561259c5761259b61253f565b5b92915050565b7f4e487b7100000000000000000000000000000000000000000000000000000000600052603260045260246000fdfea26469706673582212200dd5b358142f6ba72bda2a48bb93b6a1e8b2540f861f08a917d65efb753be52464736f6c63430008130033",
  "immutableReferences": {},
  "source": "pragma solidity ^0.8.0;\r\nimport \"./EntitiesManager.sol\";\r\n\r\ncontract EvidencesManager {\r\n\r\n    struct Evidence {\r\n        string evidenceUniqueCode;\r\n        string evidenceName;\r\n        string evidenceType;\r\n        EntitiesManager.Entity evidenceOwner;\r\n        uint256 timestamp;\r\n    }\r\n\r\n    mapping(string => Evidence[]) public evidencesHistory;\r\n    string[] public allEvidences;\r\n\r\n    function addEvidence(string memory _evidenceUniqueCode, string memory _evidenceName, string memory _evidenceType, EntitiesManager.Entity memory _entity) public {\r\n        evidencesHistory[_evidenceUniqueCode].push(Evidence(_evidenceUniqueCode, _evidenceName, _evidenceType, _entity, block.timestamp));\r\n        if (evidencesHistory[_evidenceUniqueCode].length == 1) \r\n        {\r\n            allEvidences.push(_evidenceUniqueCode);\r\n        }\r\n    }\r\n\r\n    function getEvidences() public view returns (string[] memory) {\r\n        return allEvidences;\r\n    }\r\n\r\n    function getEvidenceHistory(string memory _evidenceUniqueCode) public view returns (Evidence[] memory) {\r\n        return evidencesHistory[_evidenceUniqueCode];\r\n    }\r\n\r\n    function getLastUpdate (string memory _evidenceUniqueCode) public view returns (Evidence memory) {\r\n        uint totalVersions = evidencesHistory[_evidenceUniqueCode].length;\r\n        require(totalVersions > 0, \"Evidence nao encontrado\");\r\n\r\n        return evidencesHistory[_evidenceUniqueCode][totalVersions - 1];\r\n    }\r\n}",
  "sourcePath": "C:\\IPCA DISSERTAO\\evidences_dapp\\contracts\\EvidencesManager.sol",
  "compiler": {
    "name": "solc",
    "version": "0.8.19+commit.7dd6d404.Emscripten.clang"
  },
  "schemaVersion": "3.4.13",
  "updatedAt": "2023-08-13T00:19:18.852Z",
  "networkType": "ethereum",
  "devdoc": {
    "kind": "dev",
    "methods": {},
    "version": 1
  },
  "userdoc": {
    "kind": "user",
    "methods": {},
    "version": 1
  }
}