{
  "contractName": "EvidenceChain",
  "abi": [
    {
      "inputs": [
        {
          "internalType": "address",
          "name": "_entitiesManagerAddress",
          "type": "address"
        },
        {
          "internalType": "address",
          "name": "_evidencesManagerAddress",
          "type": "address"
        }
      ],
      "stateMutability": "nonpayable",
      "type": "constructor"
    },
    {
      "anonymous": false,
      "inputs": [
        {
          "indexed": true,
          "internalType": "uint32",
          "name": "evidenceId",
          "type": "uint32"
        }
      ],
      "name": "EvidenceAdded",
      "type": "event"
    },
    {
      "anonymous": false,
      "inputs": [
        {
          "indexed": true,
          "internalType": "uint32",
          "name": "userId",
          "type": "uint32"
        }
      ],
      "name": "ParticipantAdded",
      "type": "event"
    },
    {
      "anonymous": false,
      "inputs": [
        {
          "indexed": false,
          "internalType": "uint32",
          "name": "evidenceId",
          "type": "uint32"
        }
      ],
      "name": "TransferOwnership",
      "type": "event"
    },
    {
      "inputs": [],
      "name": "entitiesManager",
      "outputs": [
        {
          "internalType": "contract EntitiesManager",
          "name": "",
          "type": "address"
        }
      ],
      "stateMutability": "view",
      "type": "function",
      "constant": true
    },
    {
      "inputs": [
        {
          "internalType": "uint32",
          "name": "",
          "type": "uint32"
        },
        {
          "internalType": "uint256",
          "name": "",
          "type": "uint256"
        }
      ],
      "name": "evidenceTrack",
      "outputs": [
        {
          "internalType": "uint32",
          "name": "",
          "type": "uint32"
        }
      ],
      "stateMutability": "view",
      "type": "function",
      "constant": true
    },
    {
      "inputs": [],
      "name": "evidencesManager",
      "outputs": [
        {
          "internalType": "contract EvidencesManager",
          "name": "",
          "type": "address"
        }
      ],
      "stateMutability": "view",
      "type": "function",
      "constant": true
    },
    {
      "inputs": [],
      "name": "owner_id",
      "outputs": [
        {
          "internalType": "uint32",
          "name": "",
          "type": "uint32"
        }
      ],
      "stateMutability": "view",
      "type": "function",
      "constant": true
    },
    {
      "inputs": [
        {
          "internalType": "uint32",
          "name": "",
          "type": "uint32"
        }
      ],
      "name": "ownerships",
      "outputs": [
        {
          "internalType": "uint32",
          "name": "evidenceId",
          "type": "uint32"
        },
        {
          "internalType": "uint32",
          "name": "ownerId",
          "type": "uint32"
        },
        {
          "internalType": "uint32",
          "name": "trxTimeStamp",
          "type": "uint32"
        },
        {
          "internalType": "address",
          "name": "evidenceOwner",
          "type": "address"
        }
      ],
      "stateMutability": "view",
      "type": "function",
      "constant": true
    },
    {
      "inputs": [
        {
          "internalType": "address",
          "name": "_entity",
          "type": "address"
        },
        {
          "internalType": "string",
          "name": "_userName",
          "type": "string"
        },
        {
          "internalType": "string",
          "name": "_password",
          "type": "string"
        },
        {
          "internalType": "string",
          "name": "_name",
          "type": "string"
        },
        {
          "internalType": "string",
          "name": "_departmentCode",
          "type": "string"
        },
        {
          "internalType": "string",
          "name": "_entityType",
          "type": "string"
        }
      ],
      "name": "addEntity",
      "outputs": [],
      "stateMutability": "nonpayable",
      "type": "function"
    },
    {
      "inputs": [],
      "name": "getEntities",
      "outputs": [
        {
          "components": [
            {
              "internalType": "string",
              "name": "userName",
              "type": "string"
            },
            {
              "internalType": "string",
              "name": "password",
              "type": "string"
            },
            {
              "internalType": "string",
              "name": "name",
              "type": "string"
            },
            {
              "internalType": "string",
              "name": "departmentCode",
              "type": "string"
            },
            {
              "internalType": "string",
              "name": "entityType",
              "type": "string"
            },
            {
              "internalType": "address",
              "name": "entityAddress",
              "type": "address"
            },
            {
              "internalType": "uint32",
              "name": "timestamp",
              "type": "uint32"
            }
          ],
          "internalType": "struct EntitiesManager.Entity[]",
          "name": "",
          "type": "tuple[]"
        }
      ],
      "stateMutability": "view",
      "type": "function",
      "constant": true
    },
    {
      "inputs": [
        {
          "internalType": "address",
          "name": "_entity",
          "type": "address"
        }
      ],
      "name": "getEntityHistory",
      "outputs": [
        {
          "components": [
            {
              "internalType": "string",
              "name": "userName",
              "type": "string"
            },
            {
              "internalType": "string",
              "name": "password",
              "type": "string"
            },
            {
              "internalType": "string",
              "name": "name",
              "type": "string"
            },
            {
              "internalType": "string",
              "name": "departmentCode",
              "type": "string"
            },
            {
              "internalType": "string",
              "name": "entityType",
              "type": "string"
            },
            {
              "internalType": "address",
              "name": "entityAddress",
              "type": "address"
            },
            {
              "internalType": "uint32",
              "name": "timestamp",
              "type": "uint32"
            }
          ],
          "internalType": "struct EntitiesManager.Entity[]",
          "name": "",
          "type": "tuple[]"
        }
      ],
      "stateMutability": "view",
      "type": "function",
      "constant": true
    },
    {
      "inputs": [],
      "name": "getEntityHistory",
      "outputs": [
        {
          "components": [
            {
              "internalType": "string",
              "name": "userName",
              "type": "string"
            },
            {
              "internalType": "string",
              "name": "password",
              "type": "string"
            },
            {
              "internalType": "string",
              "name": "name",
              "type": "string"
            },
            {
              "internalType": "string",
              "name": "departmentCode",
              "type": "string"
            },
            {
              "internalType": "string",
              "name": "entityType",
              "type": "string"
            },
            {
              "internalType": "address",
              "name": "entityAddress",
              "type": "address"
            },
            {
              "internalType": "uint32",
              "name": "timestamp",
              "type": "uint32"
            }
          ],
          "internalType": "struct EntitiesManager.Entity[]",
          "name": "",
          "type": "tuple[]"
        }
      ],
      "stateMutability": "view",
      "type": "function",
      "constant": true
    },
    {
      "inputs": [
        {
          "internalType": "address",
          "name": "_entity",
          "type": "address"
        }
      ],
      "name": "getEntity",
      "outputs": [
        {
          "components": [
            {
              "internalType": "string",
              "name": "userName",
              "type": "string"
            },
            {
              "internalType": "string",
              "name": "password",
              "type": "string"
            },
            {
              "internalType": "string",
              "name": "name",
              "type": "string"
            },
            {
              "internalType": "string",
              "name": "departmentCode",
              "type": "string"
            },
            {
              "internalType": "string",
              "name": "entityType",
              "type": "string"
            },
            {
              "internalType": "address",
              "name": "entityAddress",
              "type": "address"
            },
            {
              "internalType": "uint32",
              "name": "timestamp",
              "type": "uint32"
            }
          ],
          "internalType": "struct EntitiesManager.Entity",
          "name": "",
          "type": "tuple"
        }
      ],
      "stateMutability": "view",
      "type": "function",
      "constant": true
    },
    {
      "inputs": [],
      "name": "getEntity",
      "outputs": [
        {
          "components": [
            {
              "internalType": "string",
              "name": "userName",
              "type": "string"
            },
            {
              "internalType": "string",
              "name": "password",
              "type": "string"
            },
            {
              "internalType": "string",
              "name": "name",
              "type": "string"
            },
            {
              "internalType": "string",
              "name": "departmentCode",
              "type": "string"
            },
            {
              "internalType": "string",
              "name": "entityType",
              "type": "string"
            },
            {
              "internalType": "address",
              "name": "entityAddress",
              "type": "address"
            },
            {
              "internalType": "uint32",
              "name": "timestamp",
              "type": "uint32"
            }
          ],
          "internalType": "struct EntitiesManager.Entity",
          "name": "",
          "type": "tuple"
        }
      ],
      "stateMutability": "view",
      "type": "function",
      "constant": true
    },
    {
      "inputs": [
        {
          "internalType": "string",
          "name": "_evidenceUniqueCode",
          "type": "string"
        },
        {
          "internalType": "string",
          "name": "_evidenceName",
          "type": "string"
        },
        {
          "internalType": "string",
          "name": "_evidenceType",
          "type": "string"
        }
      ],
      "name": "addEvidence",
      "outputs": [],
      "stateMutability": "nonpayable",
      "type": "function"
    },
    {
      "inputs": [],
      "name": "getEvidences",
      "outputs": [
        {
          "components": [
            {
              "internalType": "string",
              "name": "evidenceUniqueCode",
              "type": "string"
            },
            {
              "internalType": "string",
              "name": "evidenceName",
              "type": "string"
            },
            {
              "internalType": "string",
              "name": "evidenceType",
              "type": "string"
            },
            {
              "components": [
                {
                  "internalType": "string",
                  "name": "userName",
                  "type": "string"
                },
                {
                  "internalType": "string",
                  "name": "password",
                  "type": "string"
                },
                {
                  "internalType": "string",
                  "name": "name",
                  "type": "string"
                },
                {
                  "internalType": "string",
                  "name": "departmentCode",
                  "type": "string"
                },
                {
                  "internalType": "string",
                  "name": "entityType",
                  "type": "string"
                },
                {
                  "internalType": "address",
                  "name": "entityAddress",
                  "type": "address"
                },
                {
                  "internalType": "uint32",
                  "name": "timestamp",
                  "type": "uint32"
                }
              ],
              "internalType": "struct EntitiesManager.Entity",
              "name": "evidenceOwner",
              "type": "tuple"
            },
            {
              "internalType": "uint256",
              "name": "timestamp",
              "type": "uint256"
            }
          ],
          "internalType": "struct EvidencesManager.Evidence[]",
          "name": "",
          "type": "tuple[]"
        }
      ],
      "stateMutability": "view",
      "type": "function",
      "constant": true
    },
    {
      "inputs": [
        {
          "internalType": "string",
          "name": "_evidenceUniqueCode",
          "type": "string"
        }
      ],
      "name": "getEvidenceHistory",
      "outputs": [
        {
          "components": [
            {
              "internalType": "string",
              "name": "evidenceUniqueCode",
              "type": "string"
            },
            {
              "internalType": "string",
              "name": "evidenceName",
              "type": "string"
            },
            {
              "internalType": "string",
              "name": "evidenceType",
              "type": "string"
            },
            {
              "components": [
                {
                  "internalType": "string",
                  "name": "userName",
                  "type": "string"
                },
                {
                  "internalType": "string",
                  "name": "password",
                  "type": "string"
                },
                {
                  "internalType": "string",
                  "name": "name",
                  "type": "string"
                },
                {
                  "internalType": "string",
                  "name": "departmentCode",
                  "type": "string"
                },
                {
                  "internalType": "string",
                  "name": "entityType",
                  "type": "string"
                },
                {
                  "internalType": "address",
                  "name": "entityAddress",
                  "type": "address"
                },
                {
                  "internalType": "uint32",
                  "name": "timestamp",
                  "type": "uint32"
                }
              ],
              "internalType": "struct EntitiesManager.Entity",
              "name": "evidenceOwner",
              "type": "tuple"
            },
            {
              "internalType": "uint256",
              "name": "timestamp",
              "type": "uint256"
            }
          ],
          "internalType": "struct EvidencesManager.Evidence[]",
          "name": "",
          "type": "tuple[]"
        }
      ],
      "stateMutability": "view",
      "type": "function",
      "constant": true
    },
    {
      "inputs": [
        {
          "internalType": "string",
          "name": "_evidenceUniqueCode",
          "type": "string"
        }
      ],
      "name": "getEvidence",
      "outputs": [
        {
          "components": [
            {
              "internalType": "string",
              "name": "evidenceUniqueCode",
              "type": "string"
            },
            {
              "internalType": "string",
              "name": "evidenceName",
              "type": "string"
            },
            {
              "internalType": "string",
              "name": "evidenceType",
              "type": "string"
            },
            {
              "components": [
                {
                  "internalType": "string",
                  "name": "userName",
                  "type": "string"
                },
                {
                  "internalType": "string",
                  "name": "password",
                  "type": "string"
                },
                {
                  "internalType": "string",
                  "name": "name",
                  "type": "string"
                },
                {
                  "internalType": "string",
                  "name": "departmentCode",
                  "type": "string"
                },
                {
                  "internalType": "string",
                  "name": "entityType",
                  "type": "string"
                },
                {
                  "internalType": "address",
                  "name": "entityAddress",
                  "type": "address"
                },
                {
                  "internalType": "uint32",
                  "name": "timestamp",
                  "type": "uint32"
                }
              ],
              "internalType": "struct EntitiesManager.Entity",
              "name": "evidenceOwner",
              "type": "tuple"
            },
            {
              "internalType": "uint256",
              "name": "timestamp",
              "type": "uint256"
            }
          ],
          "internalType": "struct EvidencesManager.Evidence",
          "name": "",
          "type": "tuple"
        }
      ],
      "stateMutability": "view",
      "type": "function",
      "constant": true
    },
    {
      "inputs": [
        {
          "internalType": "string",
          "name": "_evidenceUniqueCode",
          "type": "string"
        },
        {
          "internalType": "address",
          "name": "_newOwner",
          "type": "address"
        }
      ],
      "name": "evidenceNewOwner",
      "outputs": [],
      "stateMutability": "nonpayable",
      "type": "function"
    },
    {
      "inputs": [
        {
          "internalType": "uint32",
          "name": "_evidenceId",
          "type": "uint32"
        }
      ],
      "name": "getProvenance",
      "outputs": [
        {
          "internalType": "uint32[]",
          "name": "",
          "type": "uint32[]"
        }
      ],
      "stateMutability": "view",
      "type": "function",
      "constant": true
    },
    {
      "inputs": [
        {
          "internalType": "uint32",
          "name": "_regId",
          "type": "uint32"
        }
      ],
      "name": "getOwnership",
      "outputs": [
        {
          "internalType": "uint32",
          "name": "",
          "type": "uint32"
        },
        {
          "internalType": "uint32",
          "name": "",
          "type": "uint32"
        },
        {
          "internalType": "address",
          "name": "",
          "type": "address"
        },
        {
          "internalType": "uint32",
          "name": "",
          "type": "uint32"
        }
      ],
      "stateMutability": "view",
      "type": "function",
      "constant": true
    }
  ],
  "bytecode": "0x60806040526000600160146101000a81548163ffffffff021916908363ffffffff1602179055503480156200003357600080fd5b5060405162002fe338038062002fe383398181016040528101906200005991906200014c565b816000806101000a81548173ffffffffffffffffffffffffffffffffffffffff021916908373ffffffffffffffffffffffffffffffffffffffff16021790555080600160006101000a81548173ffffffffffffffffffffffffffffffffffffffff021916908373ffffffffffffffffffffffffffffffffffffffff160217905550505062000193565b600080fd5b600073ffffffffffffffffffffffffffffffffffffffff82169050919050565b60006200011482620000e7565b9050919050565b620001268162000107565b81146200013257600080fd5b50565b60008151905062000146816200011b565b92915050565b60008060408385031215620001665762000165620000e2565b5b6000620001768582860162000135565b9250506020620001898582860162000135565b9150509250929050565b612e4080620001a36000396000f3fe608060405234801561001057600080fd5b50600436106101165760003560e01c80638f5ebf71116100a2578063c892522e11610071578063c892522e1461030a578063df6d23f11461033a578063dff95aac1461036d578063e3271cf91461038b578063ff200d2b146103a957610116565b80638f5ebf7114610270578063b16c6ee71461028e578063c6a22c41146102be578063c8569565146102da57610116565b80635760620b116100e95780635760620b146101a157806375894e8c146101d157806381e15610146102015780638b57d984146102345780638cb58fc11461025257610116565b80631252a0831461011b57806328320e1c1461013757806331b933b9146101675780633cf16fda14610185575b600080fd5b61013560048036038101906101309190611702565b6103c7565b005b610151600480360381019061014c919061181b565b610464565b60405161015e9190611a6f565b60405180910390f35b61016f61050c565b60405161017c9190611a6f565b60405180910390f35b61019f600480360381019061019a9190611a91565b610755565b005b6101bb60048036038101906101b69190611b9a565b61091e565b6040516101c89190611be9565b60405180910390f35b6101eb60048036038101906101e6919061181b565b610967565b6040516101f89190611cbc565b60405180910390f35b61021b60048036038101906102169190611cde565b610a15565b60405161022b9493929190611d1a565b60405180910390f35b61023c610a95565b6040516102499190611a6f565b60405180910390f35b61025a610b3b565b6040516102679190611dbe565b60405180910390f35b610278610b61565b6040516102859190611be9565b60405180910390f35b6102a860048036038101906102a39190611dd9565b610b77565b6040516102b59190611ebc565b60405180910390f35b6102d860048036038101906102d39190611ede565b610c27565b005b6102f460048036038101906102ef9190611cde565b610f33565b6040516103019190611fe9565b60405180910390f35b610324600480360381019061031f9190611dd9565b610fd6565b6040516103319190612158565b60405180910390f35b610354600480360381019061034f9190611cde565b611080565b604051610364949392919061217a565b60405180910390f35b6103756111a0565b6040516103829190612158565b60405180910390f35b6103936113ec565b6040516103a091906121e0565b60405180910390f35b6103b1611410565b6040516103be9190611cbc565b60405180910390f35b60008054906101000a900473ffffffffffffffffffffffffffffffffffffffff1673ffffffffffffffffffffffffffffffffffffffff16631252a0838787878787876040518763ffffffff1660e01b815260040161042a96959493929190612245565b600060405180830381600087803b15801561044457600080fd5b505af1158015610458573d6000803e3d6000fd5b50505050505050505050565b606060008054906101000a900473ffffffffffffffffffffffffffffffffffffffff1673ffffffffffffffffffffffffffffffffffffffff166328320e1c836040518263ffffffff1660e01b81526004016104bf91906122c9565b600060405180830381865afa1580156104dc573d6000803e3d6000fd5b505050506040513d6000823e3d601f19601f8201168201806040525081019061050591906125ae565b9050919050565b606060008060009054906101000a900473ffffffffffffffffffffffffffffffffffffffff1673ffffffffffffffffffffffffffffffffffffffff166331b933b96040518163ffffffff1660e01b8152600401600060405180830381865afa15801561057c573d6000803e3d6000fd5b505050506040513d6000823e3d601f19601f820116820180604052508101906105a591906126ba565b905060008151116105eb576040517f08c379a00000000000000000000000000000000000000000000000000000000081526004016105e29061274f565b60405180910390fd5b6000815167ffffffffffffffff811115610608576106076115d7565b5b60405190808252806020026020018201604052801561064157816020015b61062e6114bc565b8152602001906001900390816106265790505b50905060005b82518163ffffffff16101561074c5760008054906101000a900473ffffffffffffffffffffffffffffffffffffffff1673ffffffffffffffffffffffffffffffffffffffff16635a7e1989848363ffffffff16815181106106ab576106aa61276f565b5b60200260200101516040518263ffffffff1660e01b81526004016106cf91906122c9565b600060405180830381865afa1580156106ec573d6000803e3d6000fd5b505050506040513d6000823e3d601f19601f82011682018060405250810190610715919061279e565b828263ffffffff168151811061072e5761072d61276f565b5b6020026020010181905250808061074490612816565b915050610647565b50809250505090565b60008060009054906101000a900473ffffffffffffffffffffffffffffffffffffffff1673ffffffffffffffffffffffffffffffffffffffff16635a7e1989336040518263ffffffff1660e01b81526004016107b191906122c9565b600060405180830381865afa1580156107ce573d6000803e3d6000fd5b505050506040513d6000823e3d601f19601f820116820180604052508101906107f7919061279e565b90507fe419ba2484d9efb5ea120ea8d8b86dc666551db29ed65e4d8c975262e7a9c365816080015160405160200161082f919061287e565b6040516020818303038152906040528051906020012014610885576040517f08c379a000000000000000000000000000000000000000000000000000000000815260040161087c906128e1565b60405180910390fd5b600160009054906101000a900473ffffffffffffffffffffffffffffffffffffffff1673ffffffffffffffffffffffffffffffffffffffff16632005df6d858585856040518563ffffffff1660e01b81526004016108e69493929190612901565b600060405180830381600087803b15801561090057600080fd5b505af1158015610914573d6000803e3d6000fd5b5050505050505050565b6003602052816000526040600020818154811061093a57600080fd5b9060005260206000209060089182820401919006600402915091509054906101000a900463ffffffff1681565b61096f6114bc565b60008054906101000a900473ffffffffffffffffffffffffffffffffffffffff1673ffffffffffffffffffffffffffffffffffffffff16635a7e1989836040518263ffffffff1660e01b81526004016109c891906122c9565b600060405180830381865afa1580156109e5573d6000803e3d6000fd5b505050506040513d6000823e3d601f19601f82011682018060405250810190610a0e919061279e565b9050919050565b60026020528060005260406000206000915090508060000160009054906101000a900463ffffffff16908060000160049054906101000a900463ffffffff16908060000160089054906101000a900463ffffffff169080600001600c9054906101000a900473ffffffffffffffffffffffffffffffffffffffff16905084565b606060008054906101000a900473ffffffffffffffffffffffffffffffffffffffff1673ffffffffffffffffffffffffffffffffffffffff166328320e1c336040518263ffffffff1660e01b8152600401610af091906122c9565b600060405180830381865afa158015610b0d573d6000803e3d6000fd5b505050506040513d6000823e3d601f19601f82011682018060405250810190610b3691906125ae565b905090565b600160009054906101000a900473ffffffffffffffffffffffffffffffffffffffff1681565b600160149054906101000a900463ffffffff1681565b610b7f611515565b600160009054906101000a900473ffffffffffffffffffffffffffffffffffffffff1673ffffffffffffffffffffffffffffffffffffffff16633eeb568b836040518263ffffffff1660e01b8152600401610bda9190612962565b600060405180830381865afa158015610bf7573d6000803e3d6000fd5b505050506040513d6000823e3d601f19601f82011682018060405250810190610c209190612a95565b9050919050565b816000600160009054906101000a900473ffffffffffffffffffffffffffffffffffffffff1673ffffffffffffffffffffffffffffffffffffffff16633eeb568b836040518263ffffffff1660e01b8152600401610c859190612962565b600060405180830381865afa158015610ca2573d6000803e3d6000fd5b505050506040513d6000823e3d601f19601f82011682018060405250810190610ccb9190612a95565b9050806060015160a0015173ffffffffffffffffffffffffffffffffffffffff163373ffffffffffffffffffffffffffffffffffffffff1614610d43576040517f08c379a0000000000000000000000000000000000000000000000000000000008152600401610d3a90612b2a565b60405180910390fd5b6000600160009054906101000a900473ffffffffffffffffffffffffffffffffffffffff1673ffffffffffffffffffffffffffffffffffffffff16633eeb568b866040518263ffffffff1660e01b8152600401610da09190612962565b600060405180830381865afa158015610dbd573d6000803e3d6000fd5b505050506040513d6000823e3d601f19601f82011682018060405250810190610de69190612a95565b905060008060009054906101000a900473ffffffffffffffffffffffffffffffffffffffff1673ffffffffffffffffffffffffffffffffffffffff16635a7e1989866040518263ffffffff1660e01b8152600401610e4491906122c9565b600060405180830381865afa158015610e61573d6000803e3d6000fd5b505050506040513d6000823e3d601f19601f82011682018060405250810190610e8a919061279e565b9050600160009054906101000a900473ffffffffffffffffffffffffffffffffffffffff1673ffffffffffffffffffffffffffffffffffffffff16630615c5d2836000015184602001518560400151856040518563ffffffff1660e01b8152600401610ef99493929190612901565b600060405180830381600087803b158015610f1357600080fd5b505af1158015610f27573d6000803e3d6000fd5b50505050505050505050565b6060600360008363ffffffff1663ffffffff168152602001908152602001600020805480602002602001604051908101604052809291908181526020018280548015610fca57602002820191906000526020600020906000905b82829054906101000a900463ffffffff1663ffffffff1681526020019060040190602082600301049283019260010382029150808411610f8d5790505b50505050509050919050565b6060600160009054906101000a900473ffffffffffffffffffffffffffffffffffffffff1673ffffffffffffffffffffffffffffffffffffffff1663c892522e836040518263ffffffff1660e01b81526004016110339190612962565b600060405180830381865afa158015611050573d6000803e3d6000fd5b505050506040513d6000823e3d601f19601f820116820180604052508101906110799190612c2b565b9050919050565b6000806000806000600260008763ffffffff1663ffffffff1681526020019081526020016000206040518060800160405290816000820160009054906101000a900463ffffffff1663ffffffff1663ffffffff1681526020016000820160049054906101000a900463ffffffff1663ffffffff1663ffffffff1681526020016000820160089054906101000a900463ffffffff1663ffffffff1663ffffffff16815260200160008201600c9054906101000a900473ffffffffffffffffffffffffffffffffffffffff1673ffffffffffffffffffffffffffffffffffffffff1673ffffffffffffffffffffffffffffffffffffffff1681525050905080600001518160200151826060015183604001519450945094509450509193509193565b60606000600160009054906101000a900473ffffffffffffffffffffffffffffffffffffffff1673ffffffffffffffffffffffffffffffffffffffff1663dff95aac6040518163ffffffff1660e01b8152600401600060405180830381865afa158015611211573d6000803e3d6000fd5b505050506040513d6000823e3d601f19601f8201168201806040525081019061123a9190612d55565b90506000815111611280576040517f08c379a000000000000000000000000000000000000000000000000000000000815260040161127790612dea565b60405180910390fd5b6000815167ffffffffffffffff81111561129d5761129c6115d7565b5b6040519080825280602002602001820160405280156112d657816020015b6112c3611515565b8152602001906001900390816112bb5790505b50905060005b82518163ffffffff1610156113e357600160009054906101000a900473ffffffffffffffffffffffffffffffffffffffff1673ffffffffffffffffffffffffffffffffffffffff16633eeb568b848363ffffffff16815181106113425761134161276f565b5b60200260200101516040518263ffffffff1660e01b81526004016113669190612962565b600060405180830381865afa158015611383573d6000803e3d6000fd5b505050506040513d6000823e3d601f19601f820116820180604052508101906113ac9190612a95565b828263ffffffff16815181106113c5576113c461276f565b5b602002602001018190525080806113db90612816565b9150506112dc565b50809250505090565b60008054906101000a900473ffffffffffffffffffffffffffffffffffffffff1681565b6114186114bc565b60008054906101000a900473ffffffffffffffffffffffffffffffffffffffff1673ffffffffffffffffffffffffffffffffffffffff16635a7e1989336040518263ffffffff1660e01b815260040161147191906122c9565b600060405180830381865afa15801561148e573d6000803e3d6000fd5b505050506040513d6000823e3d601f19601f820116820180604052508101906114b7919061279e565b905090565b6040518060e001604052806060815260200160608152602001606081526020016060815260200160608152602001600073ffffffffffffffffffffffffffffffffffffffff168152602001600063ffffffff1681525090565b6040518060a0016040528060608152602001606081526020016060815260200161153d6114bc565b8152602001600081525090565b6000604051905090565b600080fd5b600080fd5b600073ffffffffffffffffffffffffffffffffffffffff82169050919050565b60006115898261155e565b9050919050565b6115998161157e565b81146115a457600080fd5b50565b6000813590506115b681611590565b92915050565b600080fd5b600080fd5b6000601f19601f8301169050919050565b7f4e487b7100000000000000000000000000000000000000000000000000000000600052604160045260246000fd5b61160f826115c6565b810181811067ffffffffffffffff8211171561162e5761162d6115d7565b5b80604052505050565b600061164161154a565b905061164d8282611606565b919050565b600067ffffffffffffffff82111561166d5761166c6115d7565b5b611676826115c6565b9050602081019050919050565b82818337600083830152505050565b60006116a56116a084611652565b611637565b9050828152602081018484840111156116c1576116c06115c1565b5b6116cc848285611683565b509392505050565b600082601f8301126116e9576116e86115bc565b5b81356116f9848260208601611692565b91505092915050565b60008060008060008060c0878903121561171f5761171e611554565b5b600061172d89828a016115a7565b965050602087013567ffffffffffffffff81111561174e5761174d611559565b5b61175a89828a016116d4565b955050604087013567ffffffffffffffff81111561177b5761177a611559565b5b61178789828a016116d4565b945050606087013567ffffffffffffffff8111156117a8576117a7611559565b5b6117b489828a016116d4565b935050608087013567ffffffffffffffff8111156117d5576117d4611559565b5b6117e189828a016116d4565b92505060a087013567ffffffffffffffff81111561180257611801611559565b5b61180e89828a016116d4565b9150509295509295509295565b60006020828403121561183157611830611554565b5b600061183f848285016115a7565b91505092915050565b600081519050919050565b600082825260208201905092915050565b6000819050602082019050919050565b600081519050919050565b600082825260208201905092915050565b60005b838110156118ae578082015181840152602081019050611893565b60008484015250505050565b60006118c582611874565b6118cf818561187f565b93506118df818560208601611890565b6118e8816115c6565b840191505092915050565b6118fc8161157e565b82525050565b600063ffffffff82169050919050565b61191b81611902565b82525050565b600060e083016000830151848203600086015261193e82826118ba565b9150506020830151848203602086015261195882826118ba565b9150506040830151848203604086015261197282826118ba565b9150506060830151848203606086015261198c82826118ba565b915050608083015184820360808601526119a682826118ba565b91505060a08301516119bb60a08601826118f3565b5060c08301516119ce60c0860182611912565b508091505092915050565b60006119e58383611921565b905092915050565b6000602082019050919050565b6000611a0582611848565b611a0f8185611853565b935083602082028501611a2185611864565b8060005b85811015611a5d5784840389528151611a3e85826119d9565b9450611a49836119ed565b925060208a01995050600181019050611a25565b50829750879550505050505092915050565b60006020820190508181036000830152611a8981846119fa565b905092915050565b600080600060608486031215611aaa57611aa9611554565b5b600084013567ffffffffffffffff811115611ac857611ac7611559565b5b611ad4868287016116d4565b935050602084013567ffffffffffffffff811115611af557611af4611559565b5b611b01868287016116d4565b925050604084013567ffffffffffffffff811115611b2257611b21611559565b5b611b2e868287016116d4565b9150509250925092565b611b4181611902565b8114611b4c57600080fd5b50565b600081359050611b5e81611b38565b92915050565b6000819050919050565b611b7781611b64565b8114611b8257600080fd5b50565b600081359050611b9481611b6e565b92915050565b60008060408385031215611bb157611bb0611554565b5b6000611bbf85828601611b4f565b9250506020611bd085828601611b85565b9150509250929050565b611be381611902565b82525050565b6000602082019050611bfe6000830184611bda565b92915050565b600060e0830160008301518482036000860152611c2182826118ba565b91505060208301518482036020860152611c3b82826118ba565b91505060408301518482036040860152611c5582826118ba565b91505060608301518482036060860152611c6f82826118ba565b91505060808301518482036080860152611c8982826118ba565b91505060a0830151611c9e60a08601826118f3565b5060c0830151611cb160c0860182611912565b508091505092915050565b60006020820190508181036000830152611cd68184611c04565b905092915050565b600060208284031215611cf457611cf3611554565b5b6000611d0284828501611b4f565b91505092915050565b611d148161157e565b82525050565b6000608082019050611d2f6000830187611bda565b611d3c6020830186611bda565b611d496040830185611bda565b611d566060830184611d0b565b95945050505050565b6000819050919050565b6000611d84611d7f611d7a8461155e565b611d5f565b61155e565b9050919050565b6000611d9682611d69565b9050919050565b6000611da882611d8b565b9050919050565b611db881611d9d565b82525050565b6000602082019050611dd36000830184611daf565b92915050565b600060208284031215611def57611dee611554565b5b600082013567ffffffffffffffff811115611e0d57611e0c611559565b5b611e19848285016116d4565b91505092915050565b611e2b81611b64565b82525050565b600060a0830160008301518482036000860152611e4e82826118ba565b91505060208301518482036020860152611e6882826118ba565b91505060408301518482036040860152611e8282826118ba565b91505060608301518482036060860152611e9c8282611921565b9150506080830151611eb16080860182611e22565b508091505092915050565b60006020820190508181036000830152611ed68184611e31565b905092915050565b60008060408385031215611ef557611ef4611554565b5b600083013567ffffffffffffffff811115611f1357611f12611559565b5b611f1f858286016116d4565b9250506020611f30858286016115a7565b9150509250929050565b600081519050919050565b600082825260208201905092915050565b6000819050602082019050919050565b6000611f728383611912565b60208301905092915050565b6000602082019050919050565b6000611f9682611f3a565b611fa08185611f45565b9350611fab83611f56565b8060005b83811015611fdc578151611fc38882611f66565b9750611fce83611f7e565b925050600181019050611faf565b5085935050505092915050565b600060208201905081810360008301526120038184611f8b565b905092915050565b600081519050919050565b600082825260208201905092915050565b6000819050602082019050919050565b600060a083016000830151848203600086015261205482826118ba565b9150506020830151848203602086015261206e82826118ba565b9150506040830151848203604086015261208882826118ba565b915050606083015184820360608601526120a28282611921565b91505060808301516120b76080860182611e22565b508091505092915050565b60006120ce8383612037565b905092915050565b6000602082019050919050565b60006120ee8261200b565b6120f88185612016565b93508360208202850161210a85612027565b8060005b85811015612146578484038952815161212785826120c2565b9450612132836120d6565b925060208a0199505060018101905061210e565b50829750879550505050505092915050565b6000602082019050818103600083015261217281846120e3565b905092915050565b600060808201905061218f6000830187611bda565b61219c6020830186611bda565b6121a96040830185611d0b565b6121b66060830184611bda565b95945050505050565b60006121ca82611d8b565b9050919050565b6121da816121bf565b82525050565b60006020820190506121f560008301846121d1565b92915050565b600082825260208201905092915050565b600061221782611874565b61222181856121fb565b9350612231818560208601611890565b61223a816115c6565b840191505092915050565b600060c08201905061225a6000830189611d0b565b818103602083015261226c818861220c565b90508181036040830152612280818761220c565b90508181036060830152612294818661220c565b905081810360808301526122a8818561220c565b905081810360a08301526122bc818461220c565b9050979650505050505050565b60006020820190506122de6000830184611d0b565b92915050565b600067ffffffffffffffff8211156122ff576122fe6115d7565b5b602082029050602081019050919050565b600080fd5b600080fd5b600080fd5b600061233261232d84611652565b611637565b90508281526020810184848401111561234e5761234d6115c1565b5b612359848285611890565b509392505050565b600082601f830112612376576123756115bc565b5b815161238684826020860161231f565b91505092915050565b60008151905061239e81611590565b92915050565b6000815190506123b381611b38565b92915050565b600060e082840312156123cf576123ce612315565b5b6123d960e0611637565b9050600082015167ffffffffffffffff8111156123f9576123f861231a565b5b61240584828501612361565b600083015250602082015167ffffffffffffffff8111156124295761242861231a565b5b61243584828501612361565b602083015250604082015167ffffffffffffffff8111156124595761245861231a565b5b61246584828501612361565b604083015250606082015167ffffffffffffffff8111156124895761248861231a565b5b61249584828501612361565b606083015250608082015167ffffffffffffffff8111156124b9576124b861231a565b5b6124c584828501612361565b60808301525060a06124d98482850161238f565b60a08301525060c06124ed848285016123a4565b60c08301525092915050565b600061250c612507846122e4565b611637565b9050808382526020820190506020840283018581111561252f5761252e612310565b5b835b8181101561257657805167ffffffffffffffff811115612554576125536115bc565b5b80860161256189826123b9565b85526020850194505050602081019050612531565b5050509392505050565b600082601f830112612595576125946115bc565b5b81516125a58482602086016124f9565b91505092915050565b6000602082840312156125c4576125c3611554565b5b600082015167ffffffffffffffff8111156125e2576125e1611559565b5b6125ee84828501612580565b91505092915050565b600067ffffffffffffffff821115612612576126116115d7565b5b602082029050602081019050919050565b6000612636612631846125f7565b611637565b9050808382526020820190506020840283018581111561265957612658612310565b5b835b81811015612682578061266e888261238f565b84526020840193505060208101905061265b565b5050509392505050565b600082601f8301126126a1576126a06115bc565b5b81516126b1848260208601612623565b91505092915050565b6000602082840312156126d0576126cf611554565b5b600082015167ffffffffffffffff8111156126ee576126ed611559565b5b6126fa8482850161268c565b91505092915050565b7f4e6f20456e746974696573000000000000000000000000000000000000000000600082015250565b6000612739600b836121fb565b915061274482612703565b602082019050919050565b600060208201905081810360008301526127688161272c565b9050919050565b7f4e487b7100000000000000000000000000000000000000000000000000000000600052603260045260246000fd5b6000602082840312156127b4576127b3611554565b5b600082015167ffffffffffffffff8111156127d2576127d1611559565b5b6127de848285016123b9565b91505092915050565b7f4e487b7100000000000000000000000000000000000000000000000000000000600052601160045260246000fd5b600061282182611902565b915063ffffffff8203612837576128366127e7565b5b600182019050919050565b600081905092915050565b600061285882611874565b6128628185612842565b9350612872818560208601611890565b80840191505092915050565b600061288a828461284d565b915081905092915050565b7f4e6f7420506f6c6963652e000000000000000000000000000000000000000000600082015250565b60006128cb600b836121fb565b91506128d682612895565b602082019050919050565b600060208201905081810360008301526128fa816128be565b9050919050565b6000608082019050818103600083015261291b818761220c565b9050818103602083015261292f818661220c565b90508181036040830152612943818561220c565b905081810360608301526129578184611c04565b905095945050505050565b6000602082019050818103600083015261297c818461220c565b905092915050565b60008151905061299381611b6e565b92915050565b600060a082840312156129af576129ae612315565b5b6129b960a0611637565b9050600082015167ffffffffffffffff8111156129d9576129d861231a565b5b6129e584828501612361565b600083015250602082015167ffffffffffffffff811115612a0957612a0861231a565b5b612a1584828501612361565b602083015250604082015167ffffffffffffffff811115612a3957612a3861231a565b5b612a4584828501612361565b604083015250606082015167ffffffffffffffff811115612a6957612a6861231a565b5b612a75848285016123b9565b6060830152506080612a8984828501612984565b60808301525092915050565b600060208284031215612aab57612aaa611554565b5b600082015167ffffffffffffffff811115612ac957612ac8611559565b5b612ad584828501612999565b91505092915050565b7f4e6f74204f776e65720000000000000000000000000000000000000000000000600082015250565b6000612b146009836121fb565b9150612b1f82612ade565b602082019050919050565b60006020820190508181036000830152612b4381612b07565b9050919050565b600067ffffffffffffffff821115612b6557612b646115d7565b5b602082029050602081019050919050565b6000612b89612b8484612b4a565b611637565b90508083825260208201905060208402830185811115612bac57612bab612310565b5b835b81811015612bf357805167ffffffffffffffff811115612bd157612bd06115bc565b5b808601612bde8982612999565b85526020850194505050602081019050612bae565b5050509392505050565b600082601f830112612c1257612c116115bc565b5b8151612c22848260208601612b76565b91505092915050565b600060208284031215612c4157612c40611554565b5b600082015167ffffffffffffffff811115612c5f57612c5e611559565b5b612c6b84828501612bfd565b91505092915050565b600067ffffffffffffffff821115612c8f57612c8e6115d7565b5b602082029050602081019050919050565b6000612cb3612cae84612c74565b611637565b90508083825260208201905060208402830185811115612cd657612cd5612310565b5b835b81811015612d1d57805167ffffffffffffffff811115612cfb57612cfa6115bc565b5b808601612d088982612361565b85526020850194505050602081019050612cd8565b5050509392505050565b600082601f830112612d3c57612d3b6115bc565b5b8151612d4c848260208601612ca0565b91505092915050565b600060208284031215612d6b57612d6a611554565b5b600082015167ffffffffffffffff811115612d8957612d88611559565b5b612d9584828501612d27565b91505092915050565b7f4e6f2045766964656e6365730000000000000000000000000000000000000000600082015250565b6000612dd4600c836121fb565b9150612ddf82612d9e565b602082019050919050565b60006020820190508181036000830152612e0381612dc7565b905091905056fea26469706673582212204b759ecfcd915deb9eda81a6496f9bb275fd4681d9a462e93841f47bc46c508664736f6c63430008130033",
  "immutableReferences": {},
  "source": "pragma solidity >=0.8.0;\r\n\r\nimport \"./EntitiesManager.sol\";\r\nimport \"./EvidencesManager.sol\";\r\n\r\ncontract EvidenceChain {\r\n    EntitiesManager public entitiesManager;\r\n    EvidencesManager public evidencesManager;\r\n\r\n    constructor(address _entitiesManagerAddress, address _evidencesManagerAddress) {\r\n        entitiesManager = EntitiesManager(_entitiesManagerAddress);\r\n        evidencesManager = EvidencesManager(_evidencesManagerAddress);\r\n    }\r\n    \r\n    // uint32 public evidence_id = 0;\r\n    uint32 public owner_id = 0;\r\n\r\n    // struct Evidence {\r\n    //     string evidenceUniqueCode;\r\n    //     string evidenceName;\r\n    //     string evidenceType;\r\n    //     address evidenceOwner;\r\n    //     uint32 mfgTimeStamp;\r\n    // }\r\n\r\n    // Evidence [] public evidences;\r\n    \r\n    struct ownership {\r\n        uint32 evidenceId;\r\n        uint32 ownerId;\r\n        uint32 trxTimeStamp;\r\n        address evidenceOwner;\r\n    }\r\n\r\n    mapping(uint32 => ownership) public ownerships;\r\n    mapping(uint32 => uint32[]) public evidenceTrack;  \r\n\r\n    event TransferOwnership(uint32 evidenceId);\r\n    event ParticipantAdded(uint32 indexed userId);\r\n    event EvidenceAdded(uint32 indexed evidenceId);\r\n\r\n    function addEntity(address _entity, string memory _userName, string memory _password, string memory _name, string  memory _departmentCode, string memory _entityType) public {\r\n        entitiesManager.addEntity(_entity, _userName, _password, _name, _departmentCode, _entityType);\r\n    }\r\n\r\n    function getEntities() public view returns (EntitiesManager.Entity[] memory) {\r\n        address[] memory entityAddresses = entitiesManager.getEntities();\r\n        require(entityAddresses.length > 0, \"No Entities\");\r\n        EntitiesManager.Entity[] memory entities = new EntitiesManager.Entity[](entityAddresses.length);\r\n        for (uint32 i = 0; i < entityAddresses.length; i++) {\r\n            entities[i] = entitiesManager.getLastUpdate(entityAddresses[i]);\r\n        }\r\n\r\n        return entities;\r\n    }\r\n\r\n    // function getEntities() public view returns (address[] memory) {\r\n    //     return entitiesManager.getEntities();\r\n    // }\r\n\r\n    function getEntityHistory() public view returns (EntitiesManager.Entity[] memory) {\r\n        return entitiesManager.getEntityHistory(msg.sender);\r\n    }\r\n\r\n    function getEntityHistory(address _entity) public view returns (EntitiesManager.Entity[] memory) {\r\n        return entitiesManager.getEntityHistory(_entity);\r\n    }\r\n\r\n    function getEntity(address _entity) public view returns (EntitiesManager.Entity memory) {\r\n        return entitiesManager.getLastUpdate(_entity);\r\n    }\r\n\r\n    function getEntity() public view returns (EntitiesManager.Entity memory) {\r\n        return entitiesManager.getLastUpdate(msg.sender);\r\n    }\r\n\r\n    // function addParticipant(string memory _name, string memory _pass, address _pAdd, string memory _pType) public {\r\n    //     uint32 userId = participant_id++;\r\n\r\n    //     participants.push(Participant(_name, _pass, _pType, _pAdd));\r\n\r\n    //     emit ParticipantAdded(userId);\r\n    // }\r\n\r\n    // function getParticipants() onlyParticipant() public view returns (Participant[] memory){\r\n    //     return participants;\r\n    // }\r\n\r\n    // function getParticipant() public view returns (Participant memory) \r\n    // {\r\n    //     for (uint32 i = 0; i < participants.length; i++) {\r\n    //         if (participants[i].participantAddress == msg.sender) {\r\n    //             return participants[i];\r\n    //         }\r\n    //     }\r\n    //     revert(\"Participant not found\");\r\n    // }\r\n\r\n    // modifier onlyParticipant() {\r\n    //     require(isParticipant(), \"The address was not found in the list.\");\r\n    //     _;\r\n    // }\r\n\r\n    // function isParticipant() internal view returns(bool) {\r\n    // for (uint32 i = 0; i < participant_id; i++) {\r\n    //     if (participants[i].participantAddress == msg.sender) {\r\n    //         return true;\r\n    //     }\r\n    // }\r\n    // return false;\r\n    // }\r\n\r\n    // function getParticipantId() internal view returns(int32) {\r\n    // for (uint32 i = 0; i < participant_id; i++) {\r\n    //     if (participants[i].participantAddress == msg.sender) {\r\n    //         return int32(i);\r\n    //     }\r\n    // }\r\n    // return -1;\r\n    // }\r\n\r\n    function addEvidence(string memory _evidenceUniqueCode, string memory _evidenceName, string memory _evidenceType) public {\r\n        EntitiesManager.Entity memory _entity = entitiesManager.getLastUpdate(msg.sender);\r\n        require(keccak256(abi.encodePacked(_entity.entityType)) == keccak256(\"Police\"),\"Not Police.\");\r\n        evidencesManager.addEvidence(_evidenceUniqueCode, _evidenceName, _evidenceType, _entity);\r\n    }\r\n\r\n    function getEvidences() public view returns (EvidencesManager.Evidence[] memory) {\r\n        string[] memory evidencesCodes = evidencesManager.getEvidences();\r\n        require(evidencesCodes.length > 0, \"No Evidences\");\r\n        EvidencesManager.Evidence[] memory evidences = new EvidencesManager.Evidence[](evidencesCodes.length);\r\n        for (uint32 i = 0; i < evidencesCodes.length; i++) {\r\n            evidences[i] = evidencesManager.getLastUpdate(evidencesCodes[i]);\r\n        }\r\n\r\n        return evidences;\r\n    }\r\n\r\n    function getEvidenceHistory(string memory _evidenceUniqueCode) public view returns (EvidencesManager.Evidence[] memory) {\r\n        return evidencesManager.getEvidenceHistory(_evidenceUniqueCode);\r\n    }\r\n\r\n    function getEvidence(string memory _evidenceUniqueCode) public view returns (EvidencesManager.Evidence memory) {\r\n        return evidencesManager.getLastUpdate(_evidenceUniqueCode);\r\n    }\r\n    \r\n    function evidenceNewOwner(string memory _evidenceUniqueCode, address _newOwner) onlyOwner(_evidenceUniqueCode) public {\r\n        EvidencesManager.Evidence memory _evidence =  evidencesManager.getLastUpdate(_evidenceUniqueCode);\r\n        EntitiesManager.Entity memory _entity =  entitiesManager.getLastUpdate(_newOwner);\r\n        evidencesManager.updateOwner(_evidence.evidenceUniqueCode, _evidence.evidenceName, _evidence.evidenceType, _entity);\r\n    } \r\n\r\n     modifier onlyOwner(string memory _evidenceUniqueCode) {\r\n          EvidencesManager.Evidence memory _evidence =  evidencesManager.getLastUpdate(_evidenceUniqueCode);\r\n          require(msg.sender == _evidence.evidenceOwner.entityAddress,\"Not Owner\");\r\n          _;\r\n     }\r\n\r\n\r\n    // function addEvidence(string memory _evidenceUniqueCode,\r\n    //                     string memory _evidenceName,\r\n    //                     string memory _evidenceType) public \r\n    // {\r\n    //     // require(verifyEvidenceUniqueCode(_evidenceUniqueCode));\r\n    //     // int32 _ownerId = getParticipantId();\r\n    //     // require(_ownerId >= 0, \"Not Found Participant!\");\r\n    //     // require(keccak256(abi.encodePacked(participants[uint32(_ownerId)].participantType)) == keccak256(\"Police\"),\"Not Police.\");\r\n        \r\n    //     uint32 evidenceId = evidence_id++;\r\n\r\n    //     evidences.push(Evidence(_evidenceUniqueCode, _evidenceName, _evidenceType, msg.sender, uint32(block.timestamp)));\r\n        \r\n    //     // evidences[evidenceId].evidenceName = _evidenceName;\r\n    //     // evidences[evidenceId].evidenceType = _evidenceType;\r\n    //     // evidences[evidenceId].evidenceOwner = participants[_ownerId].participantAddress;\r\n    //     // evidences[evidenceId].mfgTimeStamp = uint32(block.timestamp);\r\n\r\n    //     //emit EvidenceAdded(evidenceId);\r\n    // }\r\n\r\n    // function verifyEvidenceUniqueCode(string memory _evidenceUniqueCode) internal view returns(bool) {\r\n    // for (uint32 i = 0; i < evidence_id; i++) {\r\n    //     if (keccak256(bytes(evidences[i].evidenceUniqueCode)) == keccak256(bytes(_evidenceUniqueCode))) {\r\n    //         return false;\r\n    //     }\r\n    // }\r\n    // return true;\r\n    // }\r\n\r\n    // function getEvidences() public view returns (Evidence[] memory){\r\n    //     return evidences;\r\n    // }\r\n\r\n    // function getEvidence(uint32 _evidenceId) public view returns (string memory,string memory,address,uint32){\r\n    //     return (evidences[_evidenceId].evidenceName,\r\n    //             evidences[_evidenceId].evidenceType,\r\n    //             evidences[_evidenceId].evidenceOwner,\r\n    //             evidences[_evidenceId].mfgTimeStamp);\r\n    // }\r\n\r\n\r\n    // function newOwner(uint32 _user1Id,uint32 _user2Id, uint32 _evidId) onlyOwner(_evidId) public returns (bool) {\r\n    //     Participant memory p1 = participants[_user1Id];\r\n    //     Participant memory p2 = participants[_user2Id];\r\n    //     uint32 ownership_id = owner_id++;\r\n\r\n    //     if(keccak256(abi.encodePacked(p1.participantType)) == keccak256(\"Police\")\r\n    //         && keccak256(abi.encodePacked(p2.participantType))==keccak256(\"Lab\")){\r\n    //         ownerships[ownership_id].evidenceId = _evidId;\r\n    //         ownerships[ownership_id].evidenceOwner = p2.participantAddress;\r\n    //         ownerships[ownership_id].ownerId = _user2Id;\r\n    //         ownerships[ownership_id].trxTimeStamp = uint32(block.timestamp);\r\n    //         evidences[_evidId].evidenceOwner = p2.participantAddress;\r\n    //         evidenceTrack[_evidId].push(ownership_id);\r\n    //         emit TransferOwnership(_evidId);\r\n\r\n    //         return (true);\r\n    //     }\r\n    //     else if(keccak256(abi.encodePacked(p1.participantType)) == keccak256(\"Lab\") \r\n    //         && keccak256(abi.encodePacked(p2.participantType))==keccak256(\"Lab\")){\r\n    //         ownerships[ownership_id].evidenceId = _evidId;\r\n    //         ownerships[ownership_id].evidenceOwner = p2.participantAddress;\r\n    //         ownerships[ownership_id].ownerId = _user2Id;\r\n    //         ownerships[ownership_id].trxTimeStamp = uint32(block.timestamp);\r\n    //         evidences[_evidId].evidenceOwner = p2.participantAddress;\r\n    //         evidenceTrack[_evidId].push(ownership_id);\r\n    //         emit TransferOwnership(_evidId);\r\n\r\n    //         return (true);\r\n    //     }\r\n    //     else if(keccak256(abi.encodePacked(p1.participantType)) == keccak256(\"Lab\") \r\n    //         && keccak256(abi.encodePacked(p2.participantType))==keccak256(\"Court\")){\r\n    //         ownerships[ownership_id].evidenceId = _evidId;\r\n    //         ownerships[ownership_id].evidenceOwner = p2.participantAddress;\r\n    //         ownerships[ownership_id].ownerId = _user2Id;\r\n    //         ownerships[ownership_id].trxTimeStamp = uint32(block.timestamp);\r\n    //         evidences[_evidId].evidenceOwner = p2.participantAddress;\r\n    //         evidenceTrack[_evidId].push(ownership_id);\r\n    //         emit TransferOwnership(_evidId);\r\n\r\n    //         return (true);\r\n    //     }\r\n\r\n    //     return (false);\r\n    // }\r\n\r\n    function getProvenance(uint32 _evidenceId) external view returns (uint32[] memory) {\r\n       return evidenceTrack[_evidenceId];\r\n    }\r\n\r\n    function getOwnership(uint32 _regId)  public view returns (uint32,uint32,address,uint32) {\r\n\r\n        ownership memory r = ownerships[_regId];\r\n\r\n         return (r.evidenceId ,r.ownerId ,r.evidenceOwner,r.trxTimeStamp);\r\n    }\r\n\r\n    // function authenticateParticipant(uint32 _uid,\r\n    //                                 string memory _uname,\r\n    //                                 string memory _pass,\r\n    //                                 string memory _utype) public view returns (bool){\r\n    //     if(keccak256(abi.encodePacked(participants[_uid].participantType)) == keccak256(abi.encodePacked(_utype))) {\r\n    //         if(keccak256(abi.encodePacked(participants[_uid].userName)) == keccak256(abi.encodePacked(_uname))) {\r\n    //             if(keccak256(abi.encodePacked(participants[_uid].password)) == keccak256(abi.encodePacked(_pass))) {\r\n    //                 return (true);\r\n    //             }\r\n    //         }\r\n    //     }\r\n\r\n    //     return (false);\r\n    // }\r\n}",
  "sourcePath": "C:\\IPCA DISSERTAO\\evidences_dapp\\contracts\\EvidenceChain.sol",
  "compiler": {
    "name": "solc",
    "version": "0.8.19+commit.7dd6d404.Emscripten.clang"
  },
  "schemaVersion": "3.4.13",
  "updatedAt": "2023-08-17T13:28:05.948Z",
  "networkType": "ethereum",
  "devdoc": {
    "kind": "dev",
    "methods": {},
    "version": 1
  },
  "userdoc": {
    "kind": "user",
    "methods": {},
    "version": 1
  }
}