{
  "contractName": "EvidencesManager",
  "abi": [
    {
      "inputs": [
        {
          "internalType": "uint256",
          "name": "",
          "type": "uint256"
        }
      ],
      "name": "allEvidences",
      "outputs": [
        {
          "internalType": "string",
          "name": "",
          "type": "string"
        }
      ],
      "stateMutability": "view",
      "type": "function",
      "constant": true
    },
    {
      "inputs": [
        {
          "internalType": "string",
          "name": "",
          "type": "string"
        },
        {
          "internalType": "uint256",
          "name": "",
          "type": "uint256"
        }
      ],
      "name": "evidencesHistory",
      "outputs": [
        {
          "internalType": "string",
          "name": "evidenceUniqueCode",
          "type": "string"
        },
        {
          "internalType": "string",
          "name": "evidenceName",
          "type": "string"
        },
        {
          "internalType": "string",
          "name": "evidenceType",
          "type": "string"
        },
        {
          "components": [
            {
              "internalType": "string",
              "name": "userName",
              "type": "string"
            },
            {
              "internalType": "string",
              "name": "password",
              "type": "string"
            },
            {
              "internalType": "string",
              "name": "name",
              "type": "string"
            },
            {
              "internalType": "string",
              "name": "departmentCode",
              "type": "string"
            },
            {
              "internalType": "string",
              "name": "entityType",
              "type": "string"
            },
            {
              "internalType": "address",
              "name": "entityAddress",
              "type": "address"
            },
            {
              "internalType": "uint32",
              "name": "timestamp",
              "type": "uint32"
            }
          ],
          "internalType": "struct EntitiesManager.Entity",
          "name": "evidenceOwner",
          "type": "tuple"
        },
        {
          "internalType": "uint256",
          "name": "timestamp",
          "type": "uint256"
        }
      ],
      "stateMutability": "view",
      "type": "function",
      "constant": true
    },
    {
      "inputs": [
        {
          "internalType": "string",
          "name": "_evidenceUniqueCode",
          "type": "string"
        },
        {
          "internalType": "string",
          "name": "_evidenceName",
          "type": "string"
        },
        {
          "internalType": "string",
          "name": "_evidenceType",
          "type": "string"
        },
        {
          "components": [
            {
              "internalType": "string",
              "name": "userName",
              "type": "string"
            },
            {
              "internalType": "string",
              "name": "password",
              "type": "string"
            },
            {
              "internalType": "string",
              "name": "name",
              "type": "string"
            },
            {
              "internalType": "string",
              "name": "departmentCode",
              "type": "string"
            },
            {
              "internalType": "string",
              "name": "entityType",
              "type": "string"
            },
            {
              "internalType": "address",
              "name": "entityAddress",
              "type": "address"
            },
            {
              "internalType": "uint32",
              "name": "timestamp",
              "type": "uint32"
            }
          ],
          "internalType": "struct EntitiesManager.Entity",
          "name": "_entity",
          "type": "tuple"
        }
      ],
      "name": "addEvidence",
      "outputs": [],
      "stateMutability": "nonpayable",
      "type": "function"
    },
    {
      "inputs": [
        {
          "internalType": "string",
          "name": "_evidenceUniqueCode",
          "type": "string"
        },
        {
          "internalType": "string",
          "name": "_evidenceName",
          "type": "string"
        },
        {
          "internalType": "string",
          "name": "_evidenceType",
          "type": "string"
        },
        {
          "components": [
            {
              "internalType": "string",
              "name": "userName",
              "type": "string"
            },
            {
              "internalType": "string",
              "name": "password",
              "type": "string"
            },
            {
              "internalType": "string",
              "name": "name",
              "type": "string"
            },
            {
              "internalType": "string",
              "name": "departmentCode",
              "type": "string"
            },
            {
              "internalType": "string",
              "name": "entityType",
              "type": "string"
            },
            {
              "internalType": "address",
              "name": "entityAddress",
              "type": "address"
            },
            {
              "internalType": "uint32",
              "name": "timestamp",
              "type": "uint32"
            }
          ],
          "internalType": "struct EntitiesManager.Entity",
          "name": "_entity",
          "type": "tuple"
        }
      ],
      "name": "updateOwner",
      "outputs": [],
      "stateMutability": "nonpayable",
      "type": "function"
    },
    {
      "inputs": [],
      "name": "getEvidences",
      "outputs": [
        {
          "internalType": "string[]",
          "name": "",
          "type": "string[]"
        }
      ],
      "stateMutability": "view",
      "type": "function",
      "constant": true
    },
    {
      "inputs": [
        {
          "internalType": "string",
          "name": "_evidenceUniqueCode",
          "type": "string"
        }
      ],
      "name": "getEvidenceHistory",
      "outputs": [
        {
          "components": [
            {
              "internalType": "string",
              "name": "evidenceUniqueCode",
              "type": "string"
            },
            {
              "internalType": "string",
              "name": "evidenceName",
              "type": "string"
            },
            {
              "internalType": "string",
              "name": "evidenceType",
              "type": "string"
            },
            {
              "components": [
                {
                  "internalType": "string",
                  "name": "userName",
                  "type": "string"
                },
                {
                  "internalType": "string",
                  "name": "password",
                  "type": "string"
                },
                {
                  "internalType": "string",
                  "name": "name",
                  "type": "string"
                },
                {
                  "internalType": "string",
                  "name": "departmentCode",
                  "type": "string"
                },
                {
                  "internalType": "string",
                  "name": "entityType",
                  "type": "string"
                },
                {
                  "internalType": "address",
                  "name": "entityAddress",
                  "type": "address"
                },
                {
                  "internalType": "uint32",
                  "name": "timestamp",
                  "type": "uint32"
                }
              ],
              "internalType": "struct EntitiesManager.Entity",
              "name": "evidenceOwner",
              "type": "tuple"
            },
            {
              "internalType": "uint256",
              "name": "timestamp",
              "type": "uint256"
            }
          ],
          "internalType": "struct EvidencesManager.Evidence[]",
          "name": "",
          "type": "tuple[]"
        }
      ],
      "stateMutability": "view",
      "type": "function",
      "constant": true
    },
    {
      "inputs": [
        {
          "internalType": "string",
          "name": "_evidenceUniqueCode",
          "type": "string"
        }
      ],
      "name": "getLastUpdate",
      "outputs": [
        {
          "components": [
            {
              "internalType": "string",
              "name": "evidenceUniqueCode",
              "type": "string"
            },
            {
              "internalType": "string",
              "name": "evidenceName",
              "type": "string"
            },
            {
              "internalType": "string",
              "name": "evidenceType",
              "type": "string"
            },
            {
              "components": [
                {
                  "internalType": "string",
                  "name": "userName",
                  "type": "string"
                },
                {
                  "internalType": "string",
                  "name": "password",
                  "type": "string"
                },
                {
                  "internalType": "string",
                  "name": "name",
                  "type": "string"
                },
                {
                  "internalType": "string",
                  "name": "departmentCode",
                  "type": "string"
                },
                {
                  "internalType": "string",
                  "name": "entityType",
                  "type": "string"
                },
                {
                  "internalType": "address",
                  "name": "entityAddress",
                  "type": "address"
                },
                {
                  "internalType": "uint32",
                  "name": "timestamp",
                  "type": "uint32"
                }
              ],
              "internalType": "struct EntitiesManager.Entity",
              "name": "evidenceOwner",
              "type": "tuple"
            },
            {
              "internalType": "uint256",
              "name": "timestamp",
              "type": "uint256"
            }
          ],
          "internalType": "struct EvidencesManager.Evidence",
          "name": "",
          "type": "tuple"
        }
      ],
      "stateMutability": "view",
      "type": "function",
      "constant": true
    }
  ],
  "bytecode": "0x608060405234801561001057600080fd5b5061301d806100206000396000f3fe608060405234801561001057600080fd5b506004361061007d5760003560e01c8063697b22da1161005b578063697b22da146100ea578063947ea5ac1461011e578063c892522e1461014e578063dff95aac1461017e5761007d565b80630615c5d2146100825780632005df6d1461009e5780633eeb568b146100ba575b600080fd5b61009c60048036038101906100979190612367565b61019c565b005b6100b860048036038101906100b39190612367565b610345565b005b6100d460048036038101906100cf919061243e565b610d17565b6040516100e19190612680565b60405180910390f35b61010460048036038101906100ff91906126ce565b61130e565b60405161011595949392919061283b565b60405180910390f35b610138600480360381019061013391906128aa565b61186f565b60405161014591906128d7565b60405180910390f35b6101686004803603810190610163919061243e565b61191b565b6040516101759190612a46565b60405180910390f35b610186611ec2565b6040516101939190612b2a565b60405180910390f35b6000846040516101ac9190612b88565b90815260200160405180910390206040518060a001604052808681526020018581526020018481526020018381526020014281525090806001815401808255809150506001900390600052602060002090600a0201600090919091909150600082015181600001908161021f9190612dab565b5060208201518160010190816102359190612dab565b50604082015181600201908161024b9190612dab565b50606082015181600301600082015181600001908161026a9190612dab565b5060208201518160010190816102809190612dab565b5060408201518160020190816102969190612dab565b5060608201518160030190816102ac9190612dab565b5060808201518160040190816102c29190612dab565b5060a08201518160050160006101000a81548173ffffffffffffffffffffffffffffffffffffffff021916908373ffffffffffffffffffffffffffffffffffffffff16021790555060c08201518160050160146101000a81548163ffffffff021916908363ffffffff160217905550505060808201518160090155505050505050565b600080856040516103569190612b88565b9081526020016040518091039020805490500361054a5760008460405161037d9190612b88565b90815260200160405180910390206040518060a001604052808681526020018581526020018481526020018381526020014281525090806001815401808255809150506001900390600052602060002090600a020160009091909190915060008201518160000190816103f09190612dab565b5060208201518160010190816104069190612dab565b50604082015181600201908161041c9190612dab565b50606082015181600301600082015181600001908161043b9190612dab565b5060208201518160010190816104519190612dab565b5060408201518160020190816104679190612dab565b50606082015181600301908161047d9190612dab565b5060808201518160040190816104939190612dab565b5060a08201518160050160006101000a81548173ffffffffffffffffffffffffffffffffffffffff021916908373ffffffffffffffffffffffffffffffffffffffff16021790555060c08201518160050160146101000a81548163ffffffff021916908363ffffffff16021790555050506080820151816009015550506001849080600181540180825580915050600190039060005260206000200160009091909190915090816105449190612dab565b50610d11565b6000808560405161055b9190612b88565b9081526020016040518091039020805490509050600080866040516105809190612b88565b908152602001604051809103902060018361059b9190612eac565b815481106105ac576105ab612ee0565b5b90600052602060002090600a02016040518060a00160405290816000820180546105d590612bce565b80601f016020809104026020016040519081016040528092919081815260200182805461060190612bce565b801561064e5780601f106106235761010080835404028352916020019161064e565b820191906000526020600020905b81548152906001019060200180831161063157829003601f168201915b5050505050815260200160018201805461066790612bce565b80601f016020809104026020016040519081016040528092919081815260200182805461069390612bce565b80156106e05780601f106106b5576101008083540402835291602001916106e0565b820191906000526020600020905b8154815290600101906020018083116106c357829003601f168201915b505050505081526020016002820180546106f990612bce565b80601f016020809104026020016040519081016040528092919081815260200182805461072590612bce565b80156107725780601f1061074757610100808354040283529160200191610772565b820191906000526020600020905b81548152906001019060200180831161075557829003601f168201915b50505050508152602001600382016040518060e001604052908160008201805461079b90612bce565b80601f01602080910402602001604051908101604052809291908181526020018280546107c790612bce565b80156108145780601f106107e957610100808354040283529160200191610814565b820191906000526020600020905b8154815290600101906020018083116107f757829003601f168201915b5050505050815260200160018201805461082d90612bce565b80601f016020809104026020016040519081016040528092919081815260200182805461085990612bce565b80156108a65780601f1061087b576101008083540402835291602001916108a6565b820191906000526020600020905b81548152906001019060200180831161088957829003601f168201915b505050505081526020016002820180546108bf90612bce565b80601f01602080910402602001604051908101604052809291908181526020018280546108eb90612bce565b80156109385780601f1061090d57610100808354040283529160200191610938565b820191906000526020600020905b81548152906001019060200180831161091b57829003601f168201915b5050505050815260200160038201805461095190612bce565b80601f016020809104026020016040519081016040528092919081815260200182805461097d90612bce565b80156109ca5780601f1061099f576101008083540402835291602001916109ca565b820191906000526020600020905b8154815290600101906020018083116109ad57829003601f168201915b505050505081526020016004820180546109e390612bce565b80601f0160208091040260200160405190810160405280929190818152602001828054610a0f90612bce565b8015610a5c5780601f10610a3157610100808354040283529160200191610a5c565b820191906000526020600020905b815481529060010190602001808311610a3f57829003601f168201915b505050505081526020016005820160009054906101000a900473ffffffffffffffffffffffffffffffffffffffff1673ffffffffffffffffffffffffffffffffffffffff1673ffffffffffffffffffffffffffffffffffffffff1681526020016005820160149054906101000a900463ffffffff1663ffffffff1663ffffffff1681525050815260200160098201548152505090508260a0015173ffffffffffffffffffffffffffffffffffffffff16816060015160a0015173ffffffffffffffffffffffffffffffffffffffff1614610b6b576040517f08c379a0000000000000000000000000000000000000000000000000000000008152600401610b6290612f5b565b60405180910390fd5b600086604051610b7b9190612b88565b90815260200160405180910390206040518060a001604052808881526020018781526020018681526020018581526020014281525090806001815401808255809150506001900390600052602060002090600a02016000909190919091506000820151816000019081610bee9190612dab565b506020820151816001019081610c049190612dab565b506040820151816002019081610c1a9190612dab565b506060820151816003016000820151816000019081610c399190612dab565b506020820151816001019081610c4f9190612dab565b506040820151816002019081610c659190612dab565b506060820151816003019081610c7b9190612dab565b506080820151816004019081610c919190612dab565b5060a08201518160050160006101000a81548173ffffffffffffffffffffffffffffffffffffffff021916908373ffffffffffffffffffffffffffffffffffffffff16021790555060c08201518160050160146101000a81548163ffffffff021916908363ffffffff160217905550505060808201518160090155505050505b50505050565b610d1f611f9b565b60008083604051610d309190612b88565b908152602001604051809103902080549050905060008111610d87576040517f08c379a0000000000000000000000000000000000000000000000000000000008152600401610d7e90612fc7565b60405180910390fd5b600083604051610d979190612b88565b9081526020016040518091039020600182610db29190612eac565b81548110610dc357610dc2612ee0565b5b90600052602060002090600a02016040518060a0016040529081600082018054610dec90612bce565b80601f0160208091040260200160405190810160405280929190818152602001828054610e1890612bce565b8015610e655780601f10610e3a57610100808354040283529160200191610e65565b820191906000526020600020905b815481529060010190602001808311610e4857829003601f168201915b50505050508152602001600182018054610e7e90612bce565b80601f0160208091040260200160405190810160405280929190818152602001828054610eaa90612bce565b8015610ef75780601f10610ecc57610100808354040283529160200191610ef7565b820191906000526020600020905b815481529060010190602001808311610eda57829003601f168201915b50505050508152602001600282018054610f1090612bce565b80601f0160208091040260200160405190810160405280929190818152602001828054610f3c90612bce565b8015610f895780601f10610f5e57610100808354040283529160200191610f89565b820191906000526020600020905b815481529060010190602001808311610f6c57829003601f168201915b50505050508152602001600382016040518060e0016040529081600082018054610fb290612bce565b80601f0160208091040260200160405190810160405280929190818152602001828054610fde90612bce565b801561102b5780601f106110005761010080835404028352916020019161102b565b820191906000526020600020905b81548152906001019060200180831161100e57829003601f168201915b5050505050815260200160018201805461104490612bce565b80601f016020809104026020016040519081016040528092919081815260200182805461107090612bce565b80156110bd5780601f10611092576101008083540402835291602001916110bd565b820191906000526020600020905b8154815290600101906020018083116110a057829003601f168201915b505050505081526020016002820180546110d690612bce565b80601f016020809104026020016040519081016040528092919081815260200182805461110290612bce565b801561114f5780601f106111245761010080835404028352916020019161114f565b820191906000526020600020905b81548152906001019060200180831161113257829003601f168201915b5050505050815260200160038201805461116890612bce565b80601f016020809104026020016040519081016040528092919081815260200182805461119490612bce565b80156111e15780601f106111b6576101008083540402835291602001916111e1565b820191906000526020600020905b8154815290600101906020018083116111c457829003601f168201915b505050505081526020016004820180546111fa90612bce565b80601f016020809104026020016040519081016040528092919081815260200182805461122690612bce565b80156112735780601f1061124857610100808354040283529160200191611273565b820191906000526020600020905b81548152906001019060200180831161125657829003601f168201915b505050505081526020016005820160009054906101000a900473ffffffffffffffffffffffffffffffffffffffff1673ffffffffffffffffffffffffffffffffffffffff1673ffffffffffffffffffffffffffffffffffffffff1681526020016005820160149054906101000a900463ffffffff1663ffffffff1663ffffffff16815250508152602001600982015481525050915050919050565b600082805160208101820180518482526020830160208501208183528095505050505050818154811061134057600080fd5b90600052602060002090600a02016000915091505080600001805461136490612bce565b80601f016020809104026020016040519081016040528092919081815260200182805461139090612bce565b80156113dd5780601f106113b2576101008083540402835291602001916113dd565b820191906000526020600020905b8154815290600101906020018083116113c057829003601f168201915b5050505050908060010180546113f290612bce565b80601f016020809104026020016040519081016040528092919081815260200182805461141e90612bce565b801561146b5780601f106114405761010080835404028352916020019161146b565b820191906000526020600020905b81548152906001019060200180831161144e57829003601f168201915b50505050509080600201805461148090612bce565b80601f01602080910402602001604051908101604052809291908181526020018280546114ac90612bce565b80156114f95780601f106114ce576101008083540402835291602001916114f9565b820191906000526020600020905b8154815290600101906020018083116114dc57829003601f168201915b505050505090806003016040518060e001604052908160008201805461151e90612bce565b80601f016020809104026020016040519081016040528092919081815260200182805461154a90612bce565b80156115975780601f1061156c57610100808354040283529160200191611597565b820191906000526020600020905b81548152906001019060200180831161157a57829003601f168201915b505050505081526020016001820180546115b090612bce565b80601f01602080910402602001604051908101604052809291908181526020018280546115dc90612bce565b80156116295780601f106115fe57610100808354040283529160200191611629565b820191906000526020600020905b81548152906001019060200180831161160c57829003601f168201915b5050505050815260200160028201805461164290612bce565b80601f016020809104026020016040519081016040528092919081815260200182805461166e90612bce565b80156116bb5780601f10611690576101008083540402835291602001916116bb565b820191906000526020600020905b81548152906001019060200180831161169e57829003601f168201915b505050505081526020016003820180546116d490612bce565b80601f016020809104026020016040519081016040528092919081815260200182805461170090612bce565b801561174d5780601f106117225761010080835404028352916020019161174d565b820191906000526020600020905b81548152906001019060200180831161173057829003601f168201915b5050505050815260200160048201805461176690612bce565b80601f016020809104026020016040519081016040528092919081815260200182805461179290612bce565b80156117df5780601f106117b4576101008083540402835291602001916117df565b820191906000526020600020905b8154815290600101906020018083116117c257829003601f168201915b505050505081526020016005820160009054906101000a900473ffffffffffffffffffffffffffffffffffffffff1673ffffffffffffffffffffffffffffffffffffffff1673ffffffffffffffffffffffffffffffffffffffff1681526020016005820160149054906101000a900463ffffffff1663ffffffff1663ffffffff1681525050908060090154905085565b6001818154811061187f57600080fd5b90600052602060002001600091509050805461189a90612bce565b80601f01602080910402602001604051908101604052809291908181526020018280546118c690612bce565b80156119135780601f106118e857610100808354040283529160200191611913565b820191906000526020600020905b8154815290600101906020018083116118f657829003601f168201915b505050505081565b606060008260405161192d9190612b88565b9081526020016040518091039020805480602002602001604051908101604052809291908181526020016000905b82821015611eb757838290600052602060002090600a02016040518060a001604052908160008201805461198e90612bce565b80601f01602080910402602001604051908101604052809291908181526020018280546119ba90612bce565b8015611a075780601f106119dc57610100808354040283529160200191611a07565b820191906000526020600020905b8154815290600101906020018083116119ea57829003601f168201915b50505050508152602001600182018054611a2090612bce565b80601f0160208091040260200160405190810160405280929190818152602001828054611a4c90612bce565b8015611a995780601f10611a6e57610100808354040283529160200191611a99565b820191906000526020600020905b815481529060010190602001808311611a7c57829003601f168201915b50505050508152602001600282018054611ab290612bce565b80601f0160208091040260200160405190810160405280929190818152602001828054611ade90612bce565b8015611b2b5780601f10611b0057610100808354040283529160200191611b2b565b820191906000526020600020905b815481529060010190602001808311611b0e57829003601f168201915b50505050508152602001600382016040518060e0016040529081600082018054611b5490612bce565b80601f0160208091040260200160405190810160405280929190818152602001828054611b8090612bce565b8015611bcd5780601f10611ba257610100808354040283529160200191611bcd565b820191906000526020600020905b815481529060010190602001808311611bb057829003601f168201915b50505050508152602001600182018054611be690612bce565b80601f0160208091040260200160405190810160405280929190818152602001828054611c1290612bce565b8015611c5f5780601f10611c3457610100808354040283529160200191611c5f565b820191906000526020600020905b815481529060010190602001808311611c4257829003601f168201915b50505050508152602001600282018054611c7890612bce565b80601f0160208091040260200160405190810160405280929190818152602001828054611ca490612bce565b8015611cf15780601f10611cc657610100808354040283529160200191611cf1565b820191906000526020600020905b815481529060010190602001808311611cd457829003601f168201915b50505050508152602001600382018054611d0a90612bce565b80601f0160208091040260200160405190810160405280929190818152602001828054611d3690612bce565b8015611d835780601f10611d5857610100808354040283529160200191611d83565b820191906000526020600020905b815481529060010190602001808311611d6657829003601f168201915b50505050508152602001600482018054611d9c90612bce565b80601f0160208091040260200160405190810160405280929190818152602001828054611dc890612bce565b8015611e155780601f10611dea57610100808354040283529160200191611e15565b820191906000526020600020905b815481529060010190602001808311611df857829003601f168201915b505050505081526020016005820160009054906101000a900473ffffffffffffffffffffffffffffffffffffffff1673ffffffffffffffffffffffffffffffffffffffff1673ffffffffffffffffffffffffffffffffffffffff1681526020016005820160149054906101000a900463ffffffff1663ffffffff1663ffffffff168152505081526020016009820154815250508152602001906001019061195b565b505050509050919050565b60606001805480602002602001604051908101604052809291908181526020016000905b82821015611f92578382906000526020600020018054611f0590612bce565b80601f0160208091040260200160405190810160405280929190818152602001828054611f3190612bce565b8015611f7e5780601f10611f5357610100808354040283529160200191611f7e565b820191906000526020600020905b815481529060010190602001808311611f6157829003601f168201915b505050505081526020019060010190611ee6565b50505050905090565b6040518060a00160405280606081526020016060815260200160608152602001611fc3611fd0565b8152602001600081525090565b6040518060e001604052806060815260200160608152602001606081526020016060815260200160608152602001600073ffffffffffffffffffffffffffffffffffffffff168152602001600063ffffffff1681525090565b6000604051905090565b600080fd5b600080fd5b600080fd5b600080fd5b6000601f19601f8301169050919050565b7f4e487b7100000000000000000000000000000000000000000000000000000000600052604160045260246000fd5b61209082612047565b810181811067ffffffffffffffff821117156120af576120ae612058565b5b80604052505050565b60006120c2612029565b90506120ce8282612087565b919050565b600067ffffffffffffffff8211156120ee576120ed612058565b5b6120f782612047565b9050602081019050919050565b82818337600083830152505050565b6000612126612121846120d3565b6120b8565b90508281526020810184848401111561214257612141612042565b5b61214d848285612104565b509392505050565b600082601f83011261216a5761216961203d565b5b813561217a848260208601612113565b91505092915050565b600080fd5b600080fd5b600073ffffffffffffffffffffffffffffffffffffffff82169050919050565b60006121b88261218d565b9050919050565b6121c8816121ad565b81146121d357600080fd5b50565b6000813590506121e5816121bf565b92915050565b600063ffffffff82169050919050565b612204816121eb565b811461220f57600080fd5b50565b600081359050612221816121fb565b92915050565b600060e0828403121561223d5761223c612183565b5b61224760e06120b8565b9050600082013567ffffffffffffffff81111561226757612266612188565b5b61227384828501612155565b600083015250602082013567ffffffffffffffff81111561229757612296612188565b5b6122a384828501612155565b602083015250604082013567ffffffffffffffff8111156122c7576122c6612188565b5b6122d384828501612155565b604083015250606082013567ffffffffffffffff8111156122f7576122f6612188565b5b61230384828501612155565b606083015250608082013567ffffffffffffffff81111561232757612326612188565b5b61233384828501612155565b60808301525060a0612347848285016121d6565b60a08301525060c061235b84828501612212565b60c08301525092915050565b6000806000806080858703121561238157612380612033565b5b600085013567ffffffffffffffff81111561239f5761239e612038565b5b6123ab87828801612155565b945050602085013567ffffffffffffffff8111156123cc576123cb612038565b5b6123d887828801612155565b935050604085013567ffffffffffffffff8111156123f9576123f8612038565b5b61240587828801612155565b925050606085013567ffffffffffffffff81111561242657612425612038565b5b61243287828801612227565b91505092959194509250565b60006020828403121561245457612453612033565b5b600082013567ffffffffffffffff81111561247257612471612038565b5b61247e84828501612155565b91505092915050565b600081519050919050565b600082825260208201905092915050565b60005b838110156124c15780820151818401526020810190506124a6565b60008484015250505050565b60006124d882612487565b6124e28185612492565b93506124f28185602086016124a3565b6124fb81612047565b840191505092915050565b61250f816121ad565b82525050565b61251e816121eb565b82525050565b600060e083016000830151848203600086015261254182826124cd565b9150506020830151848203602086015261255b82826124cd565b9150506040830151848203604086015261257582826124cd565b9150506060830151848203606086015261258f82826124cd565b915050608083015184820360808601526125a982826124cd565b91505060a08301516125be60a0860182612506565b5060c08301516125d160c0860182612515565b508091505092915050565b6000819050919050565b6125ef816125dc565b82525050565b600060a083016000830151848203600086015261261282826124cd565b9150506020830151848203602086015261262c82826124cd565b9150506040830151848203604086015261264682826124cd565b915050606083015184820360608601526126608282612524565b915050608083015161267560808601826125e6565b508091505092915050565b6000602082019050818103600083015261269a81846125f5565b905092915050565b6126ab816125dc565b81146126b657600080fd5b50565b6000813590506126c8816126a2565b92915050565b600080604083850312156126e5576126e4612033565b5b600083013567ffffffffffffffff81111561270357612702612038565b5b61270f85828601612155565b9250506020612720858286016126b9565b9150509250929050565b600082825260208201905092915050565b600061274682612487565b612750818561272a565b93506127608185602086016124a3565b61276981612047565b840191505092915050565b600060e083016000830151848203600086015261279182826124cd565b915050602083015184820360208601526127ab82826124cd565b915050604083015184820360408601526127c582826124cd565b915050606083015184820360608601526127df82826124cd565b915050608083015184820360808601526127f982826124cd565b91505060a083015161280e60a0860182612506565b5060c083015161282160c0860182612515565b508091505092915050565b612835816125dc565b82525050565b600060a0820190508181036000830152612855818861273b565b90508181036020830152612869818761273b565b9050818103604083015261287d818661273b565b905081810360608301526128918185612774565b90506128a0608083018461282c565b9695505050505050565b6000602082840312156128c0576128bf612033565b5b60006128ce848285016126b9565b91505092915050565b600060208201905081810360008301526128f1818461273b565b905092915050565b600081519050919050565b600082825260208201905092915050565b6000819050602082019050919050565b600060a083016000830151848203600086015261294282826124cd565b9150506020830151848203602086015261295c82826124cd565b9150506040830151848203604086015261297682826124cd565b915050606083015184820360608601526129908282612524565b91505060808301516129a560808601826125e6565b508091505092915050565b60006129bc8383612925565b905092915050565b6000602082019050919050565b60006129dc826128f9565b6129e68185612904565b9350836020820285016129f885612915565b8060005b85811015612a345784840389528151612a1585826129b0565b9450612a20836129c4565b925060208a019950506001810190506129fc565b50829750879550505050505092915050565b60006020820190508181036000830152612a6081846129d1565b905092915050565b600081519050919050565b600082825260208201905092915050565b6000819050602082019050919050565b6000612aa083836124cd565b905092915050565b6000602082019050919050565b6000612ac082612a68565b612aca8185612a73565b935083602082028501612adc85612a84565b8060005b85811015612b185784840389528151612af98582612a94565b9450612b0483612aa8565b925060208a01995050600181019050612ae0565b50829750879550505050505092915050565b60006020820190508181036000830152612b448184612ab5565b905092915050565b600081905092915050565b6000612b6282612487565b612b6c8185612b4c565b9350612b7c8185602086016124a3565b80840191505092915050565b6000612b948284612b57565b915081905092915050565b7f4e487b7100000000000000000000000000000000000000000000000000000000600052602260045260246000fd5b60006002820490506001821680612be657607f821691505b602082108103612bf957612bf8612b9f565b5b50919050565b60008190508160005260206000209050919050565b60006020601f8301049050919050565b600082821b905092915050565b600060088302612c617fffffffffffffffffffffffffffffffffffffffffffffffffffffffffffffffff82612c24565b612c6b8683612c24565b95508019841693508086168417925050509392505050565b6000819050919050565b6000612ca8612ca3612c9e846125dc565b612c83565b6125dc565b9050919050565b6000819050919050565b612cc283612c8d565b612cd6612cce82612caf565b848454612c31565b825550505050565b600090565b612ceb612cde565b612cf6818484612cb9565b505050565b5b81811015612d1a57612d0f600082612ce3565b600181019050612cfc565b5050565b601f821115612d5f57612d3081612bff565b612d3984612c14565b81016020851015612d48578190505b612d5c612d5485612c14565b830182612cfb565b50505b505050565b600082821c905092915050565b6000612d8260001984600802612d64565b1980831691505092915050565b6000612d9b8383612d71565b9150826002028217905092915050565b612db482612487565b67ffffffffffffffff811115612dcd57612dcc612058565b5b612dd78254612bce565b612de2828285612d1e565b600060209050601f831160018114612e155760008415612e03578287015190505b612e0d8582612d8f565b865550612e75565b601f198416612e2386612bff565b60005b82811015612e4b57848901518255600182019150602085019450602081019050612e26565b86831015612e685784890151612e64601f891682612d71565b8355505b6001600288020188555050505b505050505050565b7f4e487b7100000000000000000000000000000000000000000000000000000000600052601160045260246000fd5b6000612eb7826125dc565b9150612ec2836125dc565b9250828203905081811115612eda57612ed9612e7d565b5b92915050565b7f4e487b7100000000000000000000000000000000000000000000000000000000600052603260045260246000fd5b7f4e6f74204f776e65720000000000000000000000000000000000000000000000600082015250565b6000612f4560098361272a565b9150612f5082612f0f565b602082019050919050565b60006020820190508181036000830152612f7481612f38565b9050919050565b7f45766964656e6365206e616f20656e636f6e747261646f000000000000000000600082015250565b6000612fb160178361272a565b9150612fbc82612f7b565b602082019050919050565b60006020820190508181036000830152612fe081612fa4565b905091905056fea264697066735822122021098f87e9a111c6d3524e26af1aec0fe791fdf5106960b0a15c5d24a4e5509664736f6c63430008130033",
  "immutableReferences": {},
  "source": "pragma solidity ^0.8.0;\r\nimport \"./EntitiesManager.sol\";\r\n\r\ncontract EvidencesManager {\r\n\r\n    struct Evidence {\r\n        string evidenceUniqueCode;\r\n        string evidenceName;\r\n        string evidenceType;\r\n        EntitiesManager.Entity evidenceOwner;\r\n        uint256 timestamp;\r\n    }\r\n\r\n    mapping(string => Evidence[]) public evidencesHistory;\r\n    string[] public allEvidences;\r\n\r\n    function addEvidence(string memory _evidenceUniqueCode, string memory _evidenceName, string memory _evidenceType, EntitiesManager.Entity memory _entity) public {\r\n        if (evidencesHistory[_evidenceUniqueCode].length == 0) \r\n        {\r\n            evidencesHistory[_evidenceUniqueCode].push(Evidence(_evidenceUniqueCode, _evidenceName, _evidenceType, _entity, block.timestamp));\r\n            allEvidences.push(_evidenceUniqueCode);\r\n        }\r\n        else{\r\n            uint totalVersions = evidencesHistory[_evidenceUniqueCode].length;\r\n            Evidence memory lastEvidence = evidencesHistory[_evidenceUniqueCode][totalVersions - 1];\r\n            require(lastEvidence.evidenceOwner.entityAddress == _entity.entityAddress, \"Not Owner\");\r\n            evidencesHistory[_evidenceUniqueCode].push(Evidence(_evidenceUniqueCode, _evidenceName, _evidenceType, _entity, block.timestamp));\r\n        }\r\n    }\r\n\r\n    function updateOwner(string memory _evidenceUniqueCode, string memory _evidenceName, string memory _evidenceType, EntitiesManager.Entity memory _entity)public \r\n    {\r\n        evidencesHistory[_evidenceUniqueCode].push(Evidence(_evidenceUniqueCode, _evidenceName, _evidenceType, _entity, block.timestamp));\r\n    }\r\n\r\n    function getEvidences() public view returns (string[] memory) {\r\n        return allEvidences;\r\n    }\r\n\r\n    function getEvidenceHistory(string memory _evidenceUniqueCode) public view returns (Evidence[] memory) {\r\n        return evidencesHistory[_evidenceUniqueCode];\r\n    }\r\n\r\n    function getLastUpdate (string memory _evidenceUniqueCode) public view returns (Evidence memory) {\r\n        uint totalVersions = evidencesHistory[_evidenceUniqueCode].length;\r\n        require(totalVersions > 0, \"Evidence nao encontrado\");\r\n\r\n        return evidencesHistory[_evidenceUniqueCode][totalVersions - 1];\r\n    }\r\n}",
  "sourcePath": "C:\\IPCA DISSERTAO\\evidences_dapp\\contracts\\EvidencesManager.sol",
  "compiler": {
    "name": "solc",
    "version": "0.8.19+commit.7dd6d404.Emscripten.clang"
  },
  "schemaVersion": "3.4.13",
  "updatedAt": "2023-08-17T13:28:05.987Z",
  "networkType": "ethereum",
  "devdoc": {
    "kind": "dev",
    "methods": {},
    "version": 1
  },
  "userdoc": {
    "kind": "user",
    "methods": {},
    "version": 1
  }
}