{
  "contractName": "EvidencesManager",
  "abi": [
    {
      "inputs": [
        {
          "internalType": "uint256",
          "name": "",
          "type": "uint256"
        }
      ],
      "name": "allEvidences",
      "outputs": [
        {
          "internalType": "string",
          "name": "",
          "type": "string"
        }
      ],
      "stateMutability": "view",
      "type": "function",
      "constant": true
    },
    {
      "inputs": [
        {
          "internalType": "string",
          "name": "",
          "type": "string"
        },
        {
          "internalType": "uint256",
          "name": "",
          "type": "uint256"
        }
      ],
      "name": "evidencesFiles",
      "outputs": [
        {
          "internalType": "string",
          "name": "id",
          "type": "string"
        },
        {
          "internalType": "string",
          "name": "fileName",
          "type": "string"
        },
        {
          "internalType": "string",
          "name": "fileHash",
          "type": "string"
        }
      ],
      "stateMutability": "view",
      "type": "function",
      "constant": true
    },
    {
      "inputs": [
        {
          "internalType": "string",
          "name": "",
          "type": "string"
        },
        {
          "internalType": "uint256",
          "name": "",
          "type": "uint256"
        }
      ],
      "name": "evidencesHistory",
      "outputs": [
        {
          "internalType": "string",
          "name": "uniqueCode",
          "type": "string"
        },
        {
          "internalType": "string",
          "name": "caseNo",
          "type": "string"
        },
        {
          "internalType": "string",
          "name": "classification",
          "type": "string"
        },
        {
          "internalType": "string",
          "name": "name",
          "type": "string"
        },
        {
          "internalType": "string",
          "name": "eType",
          "type": "string"
        },
        {
          "components": [
            {
              "internalType": "string",
              "name": "userName",
              "type": "string"
            },
            {
              "internalType": "string",
              "name": "password",
              "type": "string"
            },
            {
              "internalType": "string",
              "name": "name",
              "type": "string"
            },
            {
              "internalType": "string",
              "name": "departmentCode",
              "type": "string"
            },
            {
              "internalType": "string",
              "name": "entityType",
              "type": "string"
            },
            {
              "internalType": "address",
              "name": "entityAddress",
              "type": "address"
            },
            {
              "internalType": "uint32",
              "name": "timestamp",
              "type": "uint32"
            }
          ],
          "internalType": "struct EntitiesManager.Entity",
          "name": "owner",
          "type": "tuple"
        },
        {
          "internalType": "uint256",
          "name": "timestamp",
          "type": "uint256"
        }
      ],
      "stateMutability": "view",
      "type": "function",
      "constant": true
    },
    {
      "inputs": [
        {
          "internalType": "string",
          "name": "_evidenceUniqueCode",
          "type": "string"
        },
        {
          "internalType": "string",
          "name": "_caseNo",
          "type": "string"
        },
        {
          "internalType": "string",
          "name": "_classification",
          "type": "string"
        },
        {
          "internalType": "string",
          "name": "_evidenceName",
          "type": "string"
        },
        {
          "internalType": "string",
          "name": "_evidenceType",
          "type": "string"
        },
        {
          "components": [
            {
              "internalType": "string",
              "name": "userName",
              "type": "string"
            },
            {
              "internalType": "string",
              "name": "password",
              "type": "string"
            },
            {
              "internalType": "string",
              "name": "name",
              "type": "string"
            },
            {
              "internalType": "string",
              "name": "departmentCode",
              "type": "string"
            },
            {
              "internalType": "string",
              "name": "entityType",
              "type": "string"
            },
            {
              "internalType": "address",
              "name": "entityAddress",
              "type": "address"
            },
            {
              "internalType": "uint32",
              "name": "timestamp",
              "type": "uint32"
            }
          ],
          "internalType": "struct EntitiesManager.Entity",
          "name": "_entity",
          "type": "tuple"
        }
      ],
      "name": "addEvidence",
      "outputs": [],
      "stateMutability": "nonpayable",
      "type": "function"
    },
    {
      "inputs": [
        {
          "internalType": "string",
          "name": "_evidenceUniqueCode",
          "type": "string"
        },
        {
          "components": [
            {
              "internalType": "string",
              "name": "id",
              "type": "string"
            },
            {
              "internalType": "string",
              "name": "fileName",
              "type": "string"
            },
            {
              "internalType": "string",
              "name": "fileHash",
              "type": "string"
            }
          ],
          "internalType": "struct EvidencesManager.EvidenceFile[]",
          "name": "_files",
          "type": "tuple[]"
        }
      ],
      "name": "addFiles",
      "outputs": [],
      "stateMutability": "nonpayable",
      "type": "function"
    },
    {
      "inputs": [
        {
          "internalType": "string",
          "name": "_evidenceUniqueCode",
          "type": "string"
        },
        {
          "components": [
            {
              "internalType": "string",
              "name": "id",
              "type": "string"
            },
            {
              "internalType": "string",
              "name": "fileName",
              "type": "string"
            },
            {
              "internalType": "string",
              "name": "fileHash",
              "type": "string"
            }
          ],
          "internalType": "struct EvidencesManager.EvidenceFile",
          "name": "_file",
          "type": "tuple"
        }
      ],
      "name": "addFile",
      "outputs": [],
      "stateMutability": "nonpayable",
      "type": "function"
    },
    {
      "inputs": [
        {
          "internalType": "string",
          "name": "_evidenceUniqueCode",
          "type": "string"
        },
        {
          "components": [
            {
              "internalType": "string",
              "name": "userName",
              "type": "string"
            },
            {
              "internalType": "string",
              "name": "password",
              "type": "string"
            },
            {
              "internalType": "string",
              "name": "name",
              "type": "string"
            },
            {
              "internalType": "string",
              "name": "departmentCode",
              "type": "string"
            },
            {
              "internalType": "string",
              "name": "entityType",
              "type": "string"
            },
            {
              "internalType": "address",
              "name": "entityAddress",
              "type": "address"
            },
            {
              "internalType": "uint32",
              "name": "timestamp",
              "type": "uint32"
            }
          ],
          "internalType": "struct EntitiesManager.Entity",
          "name": "_entity",
          "type": "tuple"
        }
      ],
      "name": "updateOwner",
      "outputs": [],
      "stateMutability": "nonpayable",
      "type": "function"
    },
    {
      "inputs": [],
      "name": "getEvidences",
      "outputs": [
        {
          "internalType": "string[]",
          "name": "",
          "type": "string[]"
        }
      ],
      "stateMutability": "view",
      "type": "function",
      "constant": true
    },
    {
      "inputs": [
        {
          "internalType": "string",
          "name": "_evidenceUniqueCode",
          "type": "string"
        }
      ],
      "name": "getEvidenceHistory",
      "outputs": [
        {
          "components": [
            {
              "internalType": "string",
              "name": "uniqueCode",
              "type": "string"
            },
            {
              "internalType": "string",
              "name": "caseNo",
              "type": "string"
            },
            {
              "internalType": "string",
              "name": "classification",
              "type": "string"
            },
            {
              "internalType": "string",
              "name": "name",
              "type": "string"
            },
            {
              "internalType": "string",
              "name": "eType",
              "type": "string"
            },
            {
              "components": [
                {
                  "internalType": "string",
                  "name": "userName",
                  "type": "string"
                },
                {
                  "internalType": "string",
                  "name": "password",
                  "type": "string"
                },
                {
                  "internalType": "string",
                  "name": "name",
                  "type": "string"
                },
                {
                  "internalType": "string",
                  "name": "departmentCode",
                  "type": "string"
                },
                {
                  "internalType": "string",
                  "name": "entityType",
                  "type": "string"
                },
                {
                  "internalType": "address",
                  "name": "entityAddress",
                  "type": "address"
                },
                {
                  "internalType": "uint32",
                  "name": "timestamp",
                  "type": "uint32"
                }
              ],
              "internalType": "struct EntitiesManager.Entity",
              "name": "owner",
              "type": "tuple"
            },
            {
              "internalType": "uint256",
              "name": "timestamp",
              "type": "uint256"
            },
            {
              "internalType": "string[]",
              "name": "uFilesCodes",
              "type": "string[]"
            }
          ],
          "internalType": "struct EvidencesManager.Evidence[]",
          "name": "",
          "type": "tuple[]"
        }
      ],
      "stateMutability": "view",
      "type": "function",
      "constant": true
    },
    {
      "inputs": [
        {
          "internalType": "string",
          "name": "_evidenceUniqueCode",
          "type": "string"
        },
        {
          "internalType": "string",
          "name": "_fileId",
          "type": "string"
        }
      ],
      "name": "getFileInfo",
      "outputs": [
        {
          "components": [
            {
              "internalType": "string",
              "name": "id",
              "type": "string"
            },
            {
              "internalType": "string",
              "name": "fileName",
              "type": "string"
            },
            {
              "internalType": "string",
              "name": "fileHash",
              "type": "string"
            }
          ],
          "internalType": "struct EvidencesManager.EvidenceFile",
          "name": "",
          "type": "tuple"
        }
      ],
      "stateMutability": "view",
      "type": "function",
      "constant": true
    },
    {
      "inputs": [
        {
          "internalType": "string",
          "name": "_evidenceUniqueCode",
          "type": "string"
        }
      ],
      "name": "getLastUpdate",
      "outputs": [
        {
          "components": [
            {
              "internalType": "string",
              "name": "uniqueCode",
              "type": "string"
            },
            {
              "internalType": "string",
              "name": "caseNo",
              "type": "string"
            },
            {
              "internalType": "string",
              "name": "classification",
              "type": "string"
            },
            {
              "internalType": "string",
              "name": "name",
              "type": "string"
            },
            {
              "internalType": "string",
              "name": "eType",
              "type": "string"
            },
            {
              "components": [
                {
                  "internalType": "string",
                  "name": "userName",
                  "type": "string"
                },
                {
                  "internalType": "string",
                  "name": "password",
                  "type": "string"
                },
                {
                  "internalType": "string",
                  "name": "name",
                  "type": "string"
                },
                {
                  "internalType": "string",
                  "name": "departmentCode",
                  "type": "string"
                },
                {
                  "internalType": "string",
                  "name": "entityType",
                  "type": "string"
                },
                {
                  "internalType": "address",
                  "name": "entityAddress",
                  "type": "address"
                },
                {
                  "internalType": "uint32",
                  "name": "timestamp",
                  "type": "uint32"
                }
              ],
              "internalType": "struct EntitiesManager.Entity",
              "name": "owner",
              "type": "tuple"
            },
            {
              "internalType": "uint256",
              "name": "timestamp",
              "type": "uint256"
            },
            {
              "internalType": "string[]",
              "name": "uFilesCodes",
              "type": "string[]"
            }
          ],
          "internalType": "struct EvidencesManager.Evidence",
          "name": "",
          "type": "tuple"
        }
      ],
      "stateMutability": "view",
      "type": "function",
      "constant": true
    }
  ],
  "bytecode": "0x608060405234801561001057600080fd5b50614e10806100206000396000f3fe608060405234801561001057600080fd5b50600436106100a95760003560e01c8063947ea5ac11610071578063947ea5ac1461017c578063a076b31f146101ac578063acf51e05146101de578063c892522e146101fa578063dff95aac1461022a578063e634926e14610248576100a9565b8063277ecf4b146100ae5780632c5ec5c8146100ca5780633c39a363146100fa5780633eeb568b14610116578063697b22da14610146575b600080fd5b6100c860048036038101906100c39190613a46565b610264565b005b6100e460048036038101906100df9190613abe565b61063a565b6040516100f19190613c13565b60405180910390f35b610114600480360381019061010f9190613e0f565b610930565b005b610130600480360381019061012b9190613e87565b610b9f565b60405161013d919061415b565b60405180910390f35b610160600480360381019061015b91906141a9565b611394565b6040516101739796959493929190614316565b60405180910390f35b610196600480360381019061019191906143af565b611a11565b6040516101a391906143dc565b60405180910390f35b6101c660048036038101906101c191906141a9565b611abd565b6040516101d5939291906143fe565b60405180910390f35b6101f860048036038101906101f3919061444a565b611cb2565b005b610214600480360381019061020f9190613e87565b6129d8565b604051610221919061471b565b60405180910390f35b61023261317d565b60405161023f91906147c3565b60405180910390f35b610262600480360381019061025d91906147e5565b613256565b005b600061026f83610b9f565b90506000825167ffffffffffffffff81111561028e5761028d613773565b5b6040519080825280602002602001820160405280156102c157816020015b60608152602001906001900390816102ac5790505b50905060005b8351811015610420576001856040516102e09190614899565b9081526020016040518091039020604051806060016040528086848151811061030c5761030b6148b0565b5b60200260200101516000015181526020018684815181106103305761032f6148b0565b5b6020026020010151602001518152602001868481518110610354576103536148b0565b5b602002602001015160400151815250908060018154018082558091505060019003906000526020600020906003020160009091909190915060008201518160000190816103a19190614aeb565b5060208201518160010190816103b79190614aeb565b5060408201518160020190816103cd9190614aeb565b5050508381815181106103e3576103e26148b0565b5b602002602001015160000151828281518110610402576104016148b0565b5b6020026020010181905250808061041890614bec565b9150506102c7565b506000846040516104319190614899565b9081526020016040518091039020604051806101000160405280868152602001846020015181526020018460400151815260200184606001518152602001846080015181526020018460a0015181526020014281526020018381525090806001815401808255809150506001900390600052602060002090600d020160009091909190915060008201518160000190816104cb9190614aeb565b5060208201518160010190816104e19190614aeb565b5060408201518160020190816104f79190614aeb565b50606082015181600301908161050d9190614aeb565b5060808201518160040190816105239190614aeb565b5060a08201518160050160008201518160000190816105429190614aeb565b5060208201518160010190816105589190614aeb565b50604082015181600201908161056e9190614aeb565b5060608201518160030190816105849190614aeb565b50608082015181600401908161059a9190614aeb565b5060a08201518160050160006101000a81548173ffffffffffffffffffffffffffffffffffffffff021916908373ffffffffffffffffffffffffffffffffffffffff16021790555060c08201518160050160146101000a81548163ffffffff021916908363ffffffff160217905550505060c082015181600b015560e082015181600c0190805190602001906106319291906135a5565b50505050505050565b6106426135fe565b61064a6135fe565b60005b60018560405161065d9190614899565b90815260200160405180910390208054905081101561092457836040516020016106879190614899565b604051602081830303815290604052805190602001206001866040516106ad9190614899565b908152602001604051809103902082815481106106cd576106cc6148b0565b5b90600052602060002090600302016000016040516020016106ee9190614cb7565b6040516020818303038152906040528051906020012003610911576001856040516107199190614899565b90815260200160405180910390208181548110610739576107386148b0565b5b90600052602060002090600302016040518060600160405290816000820180546107629061490e565b80601f016020809104026020016040519081016040528092919081815260200182805461078e9061490e565b80156107db5780601f106107b0576101008083540402835291602001916107db565b820191906000526020600020905b8154815290600101906020018083116107be57829003601f168201915b505050505081526020016001820180546107f49061490e565b80601f01602080910402602001604051908101604052809291908181526020018280546108209061490e565b801561086d5780601f106108425761010080835404028352916020019161086d565b820191906000526020600020905b81548152906001019060200180831161085057829003601f168201915b505050505081526020016002820180546108869061490e565b80601f01602080910402602001604051908101604052809291908181526020018280546108b29061490e565b80156108ff5780601f106108d4576101008083540402835291602001916108ff565b820191906000526020600020905b8154815290600101906020018083116108e257829003601f168201915b5050505050815250509250505061092a565b808061091c90614bec565b91505061064d565b50809150505b92915050565b600061093b83610b9f565b905060008360405161094d9190614899565b908152602001604051809103902060405180610100016040528085815260200183602001518152602001836040015181526020018360600151815260200183608001518152602001848152602001428152602001600067ffffffffffffffff8111156109bc576109bb613773565b5b6040519080825280602002602001820160405280156109ef57816020015b60608152602001906001900390816109da5790505b5081525090806001815401808255809150506001900390600052602060002090600d02016000909190919091506000820151816000019081610a319190614aeb565b506020820151816001019081610a479190614aeb565b506040820151816002019081610a5d9190614aeb565b506060820151816003019081610a739190614aeb565b506080820151816004019081610a899190614aeb565b5060a0820151816005016000820151816000019081610aa89190614aeb565b506020820151816001019081610abe9190614aeb565b506040820151816002019081610ad49190614aeb565b506060820151816003019081610aea9190614aeb565b506080820151816004019081610b009190614aeb565b5060a08201518160050160006101000a81548173ffffffffffffffffffffffffffffffffffffffff021916908373ffffffffffffffffffffffffffffffffffffffff16021790555060c08201518160050160146101000a81548163ffffffff021916908363ffffffff160217905550505060c082015181600b015560e082015181600c019080519060200190610b979291906135a5565b505050505050565b610ba761361f565b60008083604051610bb89190614899565b908152602001604051809103902080549050905060008111610c0f576040517f08c379a0000000000000000000000000000000000000000000000000000000008152600401610c0690614d1a565b60405180910390fd5b600083604051610c1f9190614899565b9081526020016040518091039020600182610c3a9190614d3a565b81548110610c4b57610c4a6148b0565b5b90600052602060002090600d020160405180610100016040529081600082018054610c759061490e565b80601f0160208091040260200160405190810160405280929190818152602001828054610ca19061490e565b8015610cee5780601f10610cc357610100808354040283529160200191610cee565b820191906000526020600020905b815481529060010190602001808311610cd157829003601f168201915b50505050508152602001600182018054610d079061490e565b80601f0160208091040260200160405190810160405280929190818152602001828054610d339061490e565b8015610d805780601f10610d5557610100808354040283529160200191610d80565b820191906000526020600020905b815481529060010190602001808311610d6357829003601f168201915b50505050508152602001600282018054610d999061490e565b80601f0160208091040260200160405190810160405280929190818152602001828054610dc59061490e565b8015610e125780601f10610de757610100808354040283529160200191610e12565b820191906000526020600020905b815481529060010190602001808311610df557829003601f168201915b50505050508152602001600382018054610e2b9061490e565b80601f0160208091040260200160405190810160405280929190818152602001828054610e579061490e565b8015610ea45780601f10610e7957610100808354040283529160200191610ea4565b820191906000526020600020905b815481529060010190602001808311610e8757829003601f168201915b50505050508152602001600482018054610ebd9061490e565b80601f0160208091040260200160405190810160405280929190818152602001828054610ee99061490e565b8015610f365780601f10610f0b57610100808354040283529160200191610f36565b820191906000526020600020905b815481529060010190602001808311610f1957829003601f168201915b50505050508152602001600582016040518060e0016040529081600082018054610f5f9061490e565b80601f0160208091040260200160405190810160405280929190818152602001828054610f8b9061490e565b8015610fd85780601f10610fad57610100808354040283529160200191610fd8565b820191906000526020600020905b815481529060010190602001808311610fbb57829003601f168201915b50505050508152602001600182018054610ff19061490e565b80601f016020809104026020016040519081016040528092919081815260200182805461101d9061490e565b801561106a5780601f1061103f5761010080835404028352916020019161106a565b820191906000526020600020905b81548152906001019060200180831161104d57829003601f168201915b505050505081526020016002820180546110839061490e565b80601f01602080910402602001604051908101604052809291908181526020018280546110af9061490e565b80156110fc5780601f106110d1576101008083540402835291602001916110fc565b820191906000526020600020905b8154815290600101906020018083116110df57829003601f168201915b505050505081526020016003820180546111159061490e565b80601f01602080910402602001604051908101604052809291908181526020018280546111419061490e565b801561118e5780601f106111635761010080835404028352916020019161118e565b820191906000526020600020905b81548152906001019060200180831161117157829003601f168201915b505050505081526020016004820180546111a79061490e565b80601f01602080910402602001604051908101604052809291908181526020018280546111d39061490e565b80156112205780601f106111f557610100808354040283529160200191611220565b820191906000526020600020905b81548152906001019060200180831161120357829003601f168201915b505050505081526020016005820160009054906101000a900473ffffffffffffffffffffffffffffffffffffffff1673ffffffffffffffffffffffffffffffffffffffff1673ffffffffffffffffffffffffffffffffffffffff1681526020016005820160149054906101000a900463ffffffff1663ffffffff1663ffffffff16815250508152602001600b8201548152602001600c8201805480602002602001604051908101604052809291908181526020016000905b828210156113845783829060005260206000200180546112f79061490e565b80601f01602080910402602001604051908101604052809291908181526020018280546113239061490e565b80156113705780601f1061134557610100808354040283529160200191611370565b820191906000526020600020905b81548152906001019060200180831161135357829003601f168201915b5050505050815260200190600101906112d8565b5050505081525050915050919050565b60008280516020810182018051848252602083016020850120818352809550505050505081815481106113c657600080fd5b90600052602060002090600d0201600091509150508060000180546113ea9061490e565b80601f01602080910402602001604051908101604052809291908181526020018280546114169061490e565b80156114635780601f1061143857610100808354040283529160200191611463565b820191906000526020600020905b81548152906001019060200180831161144657829003601f168201915b5050505050908060010180546114789061490e565b80601f01602080910402602001604051908101604052809291908181526020018280546114a49061490e565b80156114f15780601f106114c6576101008083540402835291602001916114f1565b820191906000526020600020905b8154815290600101906020018083116114d457829003601f168201915b5050505050908060020180546115069061490e565b80601f01602080910402602001604051908101604052809291908181526020018280546115329061490e565b801561157f5780601f106115545761010080835404028352916020019161157f565b820191906000526020600020905b81548152906001019060200180831161156257829003601f168201915b5050505050908060030180546115949061490e565b80601f01602080910402602001604051908101604052809291908181526020018280546115c09061490e565b801561160d5780601f106115e25761010080835404028352916020019161160d565b820191906000526020600020905b8154815290600101906020018083116115f057829003601f168201915b5050505050908060040180546116229061490e565b80601f016020809104026020016040519081016040528092919081815260200182805461164e9061490e565b801561169b5780601f106116705761010080835404028352916020019161169b565b820191906000526020600020905b81548152906001019060200180831161167e57829003601f168201915b505050505090806005016040518060e00160405290816000820180546116c09061490e565b80601f01602080910402602001604051908101604052809291908181526020018280546116ec9061490e565b80156117395780601f1061170e57610100808354040283529160200191611739565b820191906000526020600020905b81548152906001019060200180831161171c57829003601f168201915b505050505081526020016001820180546117529061490e565b80601f016020809104026020016040519081016040528092919081815260200182805461177e9061490e565b80156117cb5780601f106117a0576101008083540402835291602001916117cb565b820191906000526020600020905b8154815290600101906020018083116117ae57829003601f168201915b505050505081526020016002820180546117e49061490e565b80601f01602080910402602001604051908101604052809291908181526020018280546118109061490e565b801561185d5780601f106118325761010080835404028352916020019161185d565b820191906000526020600020905b81548152906001019060200180831161184057829003601f168201915b505050505081526020016003820180546118769061490e565b80601f01602080910402602001604051908101604052809291908181526020018280546118a29061490e565b80156118ef5780601f106118c4576101008083540402835291602001916118ef565b820191906000526020600020905b8154815290600101906020018083116118d257829003601f168201915b505050505081526020016004820180546119089061490e565b80601f01602080910402602001604051908101604052809291908181526020018280546119349061490e565b80156119815780601f1061195657610100808354040283529160200191611981565b820191906000526020600020905b81548152906001019060200180831161196457829003601f168201915b505050505081526020016005820160009054906101000a900473ffffffffffffffffffffffffffffffffffffffff1673ffffffffffffffffffffffffffffffffffffffff1673ffffffffffffffffffffffffffffffffffffffff1681526020016005820160149054906101000a900463ffffffff1663ffffffff1663ffffffff16815250509080600b0154905087565b60028181548110611a2157600080fd5b906000526020600020016000915090508054611a3c9061490e565b80601f0160208091040260200160405190810160405280929190818152602001828054611a689061490e565b8015611ab55780601f10611a8a57610100808354040283529160200191611ab5565b820191906000526020600020905b815481529060010190602001808311611a9857829003601f168201915b505050505081565b6001828051602081018201805184825260208301602085012081835280955050505050508181548110611aef57600080fd5b906000526020600020906003020160009150915050806000018054611b139061490e565b80601f0160208091040260200160405190810160405280929190818152602001828054611b3f9061490e565b8015611b8c5780601f10611b6157610100808354040283529160200191611b8c565b820191906000526020600020905b815481529060010190602001808311611b6f57829003601f168201915b505050505090806001018054611ba19061490e565b80601f0160208091040260200160405190810160405280929190818152602001828054611bcd9061490e565b8015611c1a5780601f10611bef57610100808354040283529160200191611c1a565b820191906000526020600020905b815481529060010190602001808311611bfd57829003601f168201915b505050505090806002018054611c2f9061490e565b80601f0160208091040260200160405190810160405280929190818152602001828054611c5b9061490e565b8015611ca85780601f10611c7d57610100808354040283529160200191611ca8565b820191906000526020600020905b815481529060010190602001808311611c8b57829003601f168201915b5050505050905083565b60008087604051611cc39190614899565b90815260200160405180910390208054905003611f6157600086604051611cea9190614899565b9081526020016040518091039020604051806101000160405280888152602001878152602001868152602001858152602001848152602001838152602001428152602001600067ffffffffffffffff811115611d4957611d48613773565b5b604051908082528060200260200182016040528015611d7c57816020015b6060815260200190600190039081611d675790505b5081525090806001815401808255809150506001900390600052602060002090600d02016000909190919091506000820151816000019081611dbe9190614aeb565b506020820151816001019081611dd49190614aeb565b506040820151816002019081611dea9190614aeb565b506060820151816003019081611e009190614aeb565b506080820151816004019081611e169190614aeb565b5060a0820151816005016000820151816000019081611e359190614aeb565b506020820151816001019081611e4b9190614aeb565b506040820151816002019081611e619190614aeb565b506060820151816003019081611e779190614aeb565b506080820151816004019081611e8d9190614aeb565b5060a08201518160050160006101000a81548173ffffffffffffffffffffffffffffffffffffffff021916908373ffffffffffffffffffffffffffffffffffffffff16021790555060c08201518160050160146101000a81548163ffffffff021916908363ffffffff160217905550505060c082015181600b015560e082015181600c019080519060200190611f249291906135a5565b505050600286908060018154018082558091505060019003906000526020600020016000909190919091509081611f5b9190614aeb565b506129d0565b60008087604051611f729190614899565b908152602001604051809103902080549050905060008088604051611f979190614899565b9081526020016040518091039020600183611fb29190614d3a565b81548110611fc357611fc26148b0565b5b90600052602060002090600d020160405180610100016040529081600082018054611fed9061490e565b80601f01602080910402602001604051908101604052809291908181526020018280546120199061490e565b80156120665780601f1061203b57610100808354040283529160200191612066565b820191906000526020600020905b81548152906001019060200180831161204957829003601f168201915b5050505050815260200160018201805461207f9061490e565b80601f01602080910402602001604051908101604052809291908181526020018280546120ab9061490e565b80156120f85780601f106120cd576101008083540402835291602001916120f8565b820191906000526020600020905b8154815290600101906020018083116120db57829003601f168201915b505050505081526020016002820180546121119061490e565b80601f016020809104026020016040519081016040528092919081815260200182805461213d9061490e565b801561218a5780601f1061215f5761010080835404028352916020019161218a565b820191906000526020600020905b81548152906001019060200180831161216d57829003601f168201915b505050505081526020016003820180546121a39061490e565b80601f01602080910402602001604051908101604052809291908181526020018280546121cf9061490e565b801561221c5780601f106121f15761010080835404028352916020019161221c565b820191906000526020600020905b8154815290600101906020018083116121ff57829003601f168201915b505050505081526020016004820180546122359061490e565b80601f01602080910402602001604051908101604052809291908181526020018280546122619061490e565b80156122ae5780601f10612283576101008083540402835291602001916122ae565b820191906000526020600020905b81548152906001019060200180831161229157829003601f168201915b50505050508152602001600582016040518060e00160405290816000820180546122d79061490e565b80601f01602080910402602001604051908101604052809291908181526020018280546123039061490e565b80156123505780601f1061232557610100808354040283529160200191612350565b820191906000526020600020905b81548152906001019060200180831161233357829003601f168201915b505050505081526020016001820180546123699061490e565b80601f01602080910402602001604051908101604052809291908181526020018280546123959061490e565b80156123e25780601f106123b7576101008083540402835291602001916123e2565b820191906000526020600020905b8154815290600101906020018083116123c557829003601f168201915b505050505081526020016002820180546123fb9061490e565b80601f01602080910402602001604051908101604052809291908181526020018280546124279061490e565b80156124745780601f1061244957610100808354040283529160200191612474565b820191906000526020600020905b81548152906001019060200180831161245757829003601f168201915b5050505050815260200160038201805461248d9061490e565b80601f01602080910402602001604051908101604052809291908181526020018280546124b99061490e565b80156125065780601f106124db57610100808354040283529160200191612506565b820191906000526020600020905b8154815290600101906020018083116124e957829003601f168201915b5050505050815260200160048201805461251f9061490e565b80601f016020809104026020016040519081016040528092919081815260200182805461254b9061490e565b80156125985780601f1061256d57610100808354040283529160200191612598565b820191906000526020600020905b81548152906001019060200180831161257b57829003601f168201915b505050505081526020016005820160009054906101000a900473ffffffffffffffffffffffffffffffffffffffff1673ffffffffffffffffffffffffffffffffffffffff1673ffffffffffffffffffffffffffffffffffffffff1681526020016005820160149054906101000a900463ffffffff1663ffffffff1663ffffffff16815250508152602001600b8201548152602001600c8201805480602002602001604051908101604052809291908181526020016000905b828210156126fc57838290600052602060002001805461266f9061490e565b80601f016020809104026020016040519081016040528092919081815260200182805461269b9061490e565b80156126e85780601f106126bd576101008083540402835291602001916126e8565b820191906000526020600020905b8154815290600101906020018083116126cb57829003601f168201915b505050505081526020019060010190612650565b505050508152505090508260a0015173ffffffffffffffffffffffffffffffffffffffff168160a0015160a0015173ffffffffffffffffffffffffffffffffffffffff1614612780576040517f08c379a000000000000000000000000000000000000000000000000000000000815260040161277790614dba565b60405180910390fd5b6000886040516127909190614899565b90815260200160405180910390206040518061010001604052808a8152602001898152602001888152602001878152602001868152602001858152602001428152602001600067ffffffffffffffff8111156127ef576127ee613773565b5b60405190808252806020026020018201604052801561282257816020015b606081526020019060019003908161280d5790505b5081525090806001815401808255809150506001900390600052602060002090600d020160009091909190915060008201518160000190816128649190614aeb565b50602082015181600101908161287a9190614aeb565b5060408201518160020190816128909190614aeb565b5060608201518160030190816128a69190614aeb565b5060808201518160040190816128bc9190614aeb565b5060a08201518160050160008201518160000190816128db9190614aeb565b5060208201518160010190816128f19190614aeb565b5060408201518160020190816129079190614aeb565b50606082015181600301908161291d9190614aeb565b5060808201518160040190816129339190614aeb565b5060a08201518160050160006101000a81548173ffffffffffffffffffffffffffffffffffffffff021916908373ffffffffffffffffffffffffffffffffffffffff16021790555060c08201518160050160146101000a81548163ffffffff021916908363ffffffff160217905550505060c082015181600b015560e082015181600c0190805190602001906129ca9291906135a5565b50505050505b505050505050565b60606000826040516129ea9190614899565b9081526020016040518091039020805480602002602001604051908101604052809291908181526020016000905b8282101561317257838290600052602060002090600d020160405180610100016040529081600082018054612a4c9061490e565b80601f0160208091040260200160405190810160405280929190818152602001828054612a789061490e565b8015612ac55780601f10612a9a57610100808354040283529160200191612ac5565b820191906000526020600020905b815481529060010190602001808311612aa857829003601f168201915b50505050508152602001600182018054612ade9061490e565b80601f0160208091040260200160405190810160405280929190818152602001828054612b0a9061490e565b8015612b575780601f10612b2c57610100808354040283529160200191612b57565b820191906000526020600020905b815481529060010190602001808311612b3a57829003601f168201915b50505050508152602001600282018054612b709061490e565b80601f0160208091040260200160405190810160405280929190818152602001828054612b9c9061490e565b8015612be95780601f10612bbe57610100808354040283529160200191612be9565b820191906000526020600020905b815481529060010190602001808311612bcc57829003601f168201915b50505050508152602001600382018054612c029061490e565b80601f0160208091040260200160405190810160405280929190818152602001828054612c2e9061490e565b8015612c7b5780601f10612c5057610100808354040283529160200191612c7b565b820191906000526020600020905b815481529060010190602001808311612c5e57829003601f168201915b50505050508152602001600482018054612c949061490e565b80601f0160208091040260200160405190810160405280929190818152602001828054612cc09061490e565b8015612d0d5780601f10612ce257610100808354040283529160200191612d0d565b820191906000526020600020905b815481529060010190602001808311612cf057829003601f168201915b50505050508152602001600582016040518060e0016040529081600082018054612d369061490e565b80601f0160208091040260200160405190810160405280929190818152602001828054612d629061490e565b8015612daf5780601f10612d8457610100808354040283529160200191612daf565b820191906000526020600020905b815481529060010190602001808311612d9257829003601f168201915b50505050508152602001600182018054612dc89061490e565b80601f0160208091040260200160405190810160405280929190818152602001828054612df49061490e565b8015612e415780601f10612e1657610100808354040283529160200191612e41565b820191906000526020600020905b815481529060010190602001808311612e2457829003601f168201915b50505050508152602001600282018054612e5a9061490e565b80601f0160208091040260200160405190810160405280929190818152602001828054612e869061490e565b8015612ed35780601f10612ea857610100808354040283529160200191612ed3565b820191906000526020600020905b815481529060010190602001808311612eb657829003601f168201915b50505050508152602001600382018054612eec9061490e565b80601f0160208091040260200160405190810160405280929190818152602001828054612f189061490e565b8015612f655780601f10612f3a57610100808354040283529160200191612f65565b820191906000526020600020905b815481529060010190602001808311612f4857829003601f168201915b50505050508152602001600482018054612f7e9061490e565b80601f0160208091040260200160405190810160405280929190818152602001828054612faa9061490e565b8015612ff75780601f10612fcc57610100808354040283529160200191612ff7565b820191906000526020600020905b815481529060010190602001808311612fda57829003601f168201915b505050505081526020016005820160009054906101000a900473ffffffffffffffffffffffffffffffffffffffff1673ffffffffffffffffffffffffffffffffffffffff1673ffffffffffffffffffffffffffffffffffffffff1681526020016005820160149054906101000a900463ffffffff1663ffffffff1663ffffffff16815250508152602001600b8201548152602001600c8201805480602002602001604051908101604052809291908181526020016000905b8282101561315b5783829060005260206000200180546130ce9061490e565b80601f01602080910402602001604051908101604052809291908181526020018280546130fa9061490e565b80156131475780601f1061311c57610100808354040283529160200191613147565b820191906000526020600020905b81548152906001019060200180831161312a57829003601f168201915b5050505050815260200190600101906130af565b505050508152505081526020019060010190612a18565b505050509050919050565b60606002805480602002602001604051908101604052809291908181526020016000905b8282101561324d5783829060005260206000200180546131c09061490e565b80601f01602080910402602001604051908101604052809291908181526020018280546131ec9061490e565b80156132395780601f1061320e57610100808354040283529160200191613239565b820191906000526020600020905b81548152906001019060200180831161321c57829003601f168201915b5050505050815260200190600101906131a1565b50505050905090565b600061326183610b9f565b90506000600167ffffffffffffffff8111156132805761327f613773565b5b6040519080825280602002602001820160405280156132b357816020015b606081526020019060019003908161329e5790505b5090508260000151816000815181106132cf576132ce6148b0565b5b60200260200101819052506001846040516132ea9190614899565b90815260200160405180910390206040518060600160405280856000015181526020018560200151815260200185604001518152509080600181540180825580915050600190039060005260206000209060030201600090919091909150600082015181600001908161335d9190614aeb565b5060208201518160010190816133739190614aeb565b5060408201518160020190816133899190614aeb565b50505060008460405161339c9190614899565b9081526020016040518091039020604051806101000160405280868152602001846020015181526020018460400151815260200184606001518152602001846080015181526020018460a0015181526020014281526020018381525090806001815401808255809150506001900390600052602060002090600d020160009091909190915060008201518160000190816134369190614aeb565b50602082015181600101908161344c9190614aeb565b5060408201518160020190816134629190614aeb565b5060608201518160030190816134789190614aeb565b50608082015181600401908161348e9190614aeb565b5060a08201518160050160008201518160000190816134ad9190614aeb565b5060208201518160010190816134c39190614aeb565b5060408201518160020190816134d99190614aeb565b5060608201518160030190816134ef9190614aeb565b5060808201518160040190816135059190614aeb565b5060a08201518160050160006101000a81548173ffffffffffffffffffffffffffffffffffffffff021916908373ffffffffffffffffffffffffffffffffffffffff16021790555060c08201518160050160146101000a81548163ffffffff021916908363ffffffff160217905550505060c082015181600b015560e082015181600c01908051906020019061359c9291906135a5565b50505050505050565b8280548282559060005260206000209081019282156135ed579160200282015b828111156135ec5782518290816135dc9190614aeb565b50916020019190600101906135c5565b5b5090506135fa919061366a565b5090565b60405180606001604052806060815260200160608152602001606081525090565b604051806101000160405280606081526020016060815260200160608152602001606081526020016060815260200161365661368e565b815260200160008152602001606081525090565b5b8082111561368a576000818161368191906136e7565b5060010161366b565b5090565b6040518060e001604052806060815260200160608152602001606081526020016060815260200160608152602001600073ffffffffffffffffffffffffffffffffffffffff168152602001600063ffffffff1681525090565b5080546136f39061490e565b6000825580601f106137055750613724565b601f0160209004906000526020600020908101906137239190613727565b5b50565b5b80821115613740576000816000905550600101613728565b5090565b6000604051905090565b600080fd5b600080fd5b600080fd5b600080fd5b6000601f19601f8301169050919050565b7f4e487b7100000000000000000000000000000000000000000000000000000000600052604160045260246000fd5b6137ab82613762565b810181811067ffffffffffffffff821117156137ca576137c9613773565b5b80604052505050565b60006137dd613744565b90506137e982826137a2565b919050565b600067ffffffffffffffff82111561380957613808613773565b5b61381282613762565b9050602081019050919050565b82818337600083830152505050565b600061384161383c846137ee565b6137d3565b90508281526020810184848401111561385d5761385c61375d565b5b61386884828561381f565b509392505050565b600082601f83011261388557613884613758565b5b813561389584826020860161382e565b91505092915050565b600067ffffffffffffffff8211156138b9576138b8613773565b5b602082029050602081019050919050565b600080fd5b600080fd5b600080fd5b6000606082840312156138ef576138ee6138cf565b5b6138f960606137d3565b9050600082013567ffffffffffffffff811115613919576139186138d4565b5b61392584828501613870565b600083015250602082013567ffffffffffffffff811115613949576139486138d4565b5b61395584828501613870565b602083015250604082013567ffffffffffffffff811115613979576139786138d4565b5b61398584828501613870565b60408301525092915050565b60006139a461399f8461389e565b6137d3565b905080838252602082019050602084028301858111156139c7576139c66138ca565b5b835b81811015613a0e57803567ffffffffffffffff8111156139ec576139eb613758565b5b8086016139f989826138d9565b855260208501945050506020810190506139c9565b5050509392505050565b600082601f830112613a2d57613a2c613758565b5b8135613a3d848260208601613991565b91505092915050565b60008060408385031215613a5d57613a5c61374e565b5b600083013567ffffffffffffffff811115613a7b57613a7a613753565b5b613a8785828601613870565b925050602083013567ffffffffffffffff811115613aa857613aa7613753565b5b613ab485828601613a18565b9150509250929050565b60008060408385031215613ad557613ad461374e565b5b600083013567ffffffffffffffff811115613af357613af2613753565b5b613aff85828601613870565b925050602083013567ffffffffffffffff811115613b2057613b1f613753565b5b613b2c85828601613870565b9150509250929050565b600081519050919050565b600082825260208201905092915050565b60005b83811015613b70578082015181840152602081019050613b55565b60008484015250505050565b6000613b8782613b36565b613b918185613b41565b9350613ba1818560208601613b52565b613baa81613762565b840191505092915050565b60006060830160008301518482036000860152613bd28282613b7c565b91505060208301518482036020860152613bec8282613b7c565b91505060408301518482036040860152613c068282613b7c565b9150508091505092915050565b60006020820190508181036000830152613c2d8184613bb5565b905092915050565b600073ffffffffffffffffffffffffffffffffffffffff82169050919050565b6000613c6082613c35565b9050919050565b613c7081613c55565b8114613c7b57600080fd5b50565b600081359050613c8d81613c67565b92915050565b600063ffffffff82169050919050565b613cac81613c93565b8114613cb757600080fd5b50565b600081359050613cc981613ca3565b92915050565b600060e08284031215613ce557613ce46138cf565b5b613cef60e06137d3565b9050600082013567ffffffffffffffff811115613d0f57613d0e6138d4565b5b613d1b84828501613870565b600083015250602082013567ffffffffffffffff811115613d3f57613d3e6138d4565b5b613d4b84828501613870565b602083015250604082013567ffffffffffffffff811115613d6f57613d6e6138d4565b5b613d7b84828501613870565b604083015250606082013567ffffffffffffffff811115613d9f57613d9e6138d4565b5b613dab84828501613870565b606083015250608082013567ffffffffffffffff811115613dcf57613dce6138d4565b5b613ddb84828501613870565b60808301525060a0613def84828501613c7e565b60a08301525060c0613e0384828501613cba565b60c08301525092915050565b60008060408385031215613e2657613e2561374e565b5b600083013567ffffffffffffffff811115613e4457613e43613753565b5b613e5085828601613870565b925050602083013567ffffffffffffffff811115613e7157613e70613753565b5b613e7d85828601613ccf565b9150509250929050565b600060208284031215613e9d57613e9c61374e565b5b600082013567ffffffffffffffff811115613ebb57613eba613753565b5b613ec784828501613870565b91505092915050565b613ed981613c55565b82525050565b613ee881613c93565b82525050565b600060e0830160008301518482036000860152613f0b8282613b7c565b91505060208301518482036020860152613f258282613b7c565b91505060408301518482036040860152613f3f8282613b7c565b91505060608301518482036060860152613f598282613b7c565b91505060808301518482036080860152613f738282613b7c565b91505060a0830151613f8860a0860182613ed0565b5060c0830151613f9b60c0860182613edf565b508091505092915050565b6000819050919050565b613fb981613fa6565b82525050565b600081519050919050565b600082825260208201905092915050565b6000819050602082019050919050565b6000613ff78383613b7c565b905092915050565b6000602082019050919050565b600061401782613fbf565b6140218185613fca565b93508360208202850161403385613fdb565b8060005b8581101561406f57848403895281516140508582613feb565b945061405b83613fff565b925060208a01995050600181019050614037565b50829750879550505050505092915050565b600061010083016000830151848203600086015261409f8282613b7c565b915050602083015184820360208601526140b98282613b7c565b915050604083015184820360408601526140d38282613b7c565b915050606083015184820360608601526140ed8282613b7c565b915050608083015184820360808601526141078282613b7c565b91505060a083015184820360a08601526141218282613eee565b91505060c083015161413660c0860182613fb0565b5060e083015184820360e086015261414e828261400c565b9150508091505092915050565b600060208201905081810360008301526141758184614081565b905092915050565b61418681613fa6565b811461419157600080fd5b50565b6000813590506141a38161417d565b92915050565b600080604083850312156141c0576141bf61374e565b5b600083013567ffffffffffffffff8111156141de576141dd613753565b5b6141ea85828601613870565b92505060206141fb85828601614194565b9150509250929050565b600082825260208201905092915050565b600061422182613b36565b61422b8185614205565b935061423b818560208601613b52565b61424481613762565b840191505092915050565b600060e083016000830151848203600086015261426c8282613b7c565b915050602083015184820360208601526142868282613b7c565b915050604083015184820360408601526142a08282613b7c565b915050606083015184820360608601526142ba8282613b7c565b915050608083015184820360808601526142d48282613b7c565b91505060a08301516142e960a0860182613ed0565b5060c08301516142fc60c0860182613edf565b508091505092915050565b61431081613fa6565b82525050565b600060e0820190508181036000830152614330818a614216565b905081810360208301526143448189614216565b905081810360408301526143588188614216565b9050818103606083015261436c8187614216565b905081810360808301526143808186614216565b905081810360a0830152614394818561424f565b90506143a360c0830184614307565b98975050505050505050565b6000602082840312156143c5576143c461374e565b5b60006143d384828501614194565b91505092915050565b600060208201905081810360008301526143f68184614216565b905092915050565b600060608201905081810360008301526144188186614216565b9050818103602083015261442c8185614216565b905081810360408301526144408184614216565b9050949350505050565b60008060008060008060c087890312156144675761446661374e565b5b600087013567ffffffffffffffff81111561448557614484613753565b5b61449189828a01613870565b965050602087013567ffffffffffffffff8111156144b2576144b1613753565b5b6144be89828a01613870565b955050604087013567ffffffffffffffff8111156144df576144de613753565b5b6144eb89828a01613870565b945050606087013567ffffffffffffffff81111561450c5761450b613753565b5b61451889828a01613870565b935050608087013567ffffffffffffffff81111561453957614538613753565b5b61454589828a01613870565b92505060a087013567ffffffffffffffff81111561456657614565613753565b5b61457289828a01613ccf565b9150509295509295509295565b600081519050919050565b600082825260208201905092915050565b6000819050602082019050919050565b60006101008301600083015184820360008601526145c98282613b7c565b915050602083015184820360208601526145e38282613b7c565b915050604083015184820360408601526145fd8282613b7c565b915050606083015184820360608601526146178282613b7c565b915050608083015184820360808601526146318282613b7c565b91505060a083015184820360a086015261464b8282613eee565b91505060c083015161466060c0860182613fb0565b5060e083015184820360e0860152614678828261400c565b9150508091505092915050565b600061469183836145ab565b905092915050565b6000602082019050919050565b60006146b18261457f565b6146bb818561458a565b9350836020820285016146cd8561459b565b8060005b8581101561470957848403895281516146ea8582614685565b94506146f583614699565b925060208a019950506001810190506146d1565b50829750879550505050505092915050565b6000602082019050818103600083015261473581846146a6565b905092915050565b600082825260208201905092915050565b600061475982613fbf565b614763818561473d565b93508360208202850161477585613fdb565b8060005b858110156147b157848403895281516147928582613feb565b945061479d83613fff565b925060208a01995050600181019050614779565b50829750879550505050505092915050565b600060208201905081810360008301526147dd818461474e565b905092915050565b600080604083850312156147fc576147fb61374e565b5b600083013567ffffffffffffffff81111561481a57614819613753565b5b61482685828601613870565b925050602083013567ffffffffffffffff81111561484757614846613753565b5b614853858286016138d9565b9150509250929050565b600081905092915050565b600061487382613b36565b61487d818561485d565b935061488d818560208601613b52565b80840191505092915050565b60006148a58284614868565b915081905092915050565b7f4e487b7100000000000000000000000000000000000000000000000000000000600052603260045260246000fd5b7f4e487b7100000000000000000000000000000000000000000000000000000000600052602260045260246000fd5b6000600282049050600182168061492657607f821691505b602082108103614939576149386148df565b5b50919050565b60008190508160005260206000209050919050565b60006020601f8301049050919050565b600082821b905092915050565b6000600883026149a17fffffffffffffffffffffffffffffffffffffffffffffffffffffffffffffffff82614964565b6149ab8683614964565b95508019841693508086168417925050509392505050565b6000819050919050565b60006149e86149e36149de84613fa6565b6149c3565b613fa6565b9050919050565b6000819050919050565b614a02836149cd565b614a16614a0e826149ef565b848454614971565b825550505050565b600090565b614a2b614a1e565b614a368184846149f9565b505050565b5b81811015614a5a57614a4f600082614a23565b600181019050614a3c565b5050565b601f821115614a9f57614a708161493f565b614a7984614954565b81016020851015614a88578190505b614a9c614a9485614954565b830182614a3b565b50505b505050565b600082821c905092915050565b6000614ac260001984600802614aa4565b1980831691505092915050565b6000614adb8383614ab1565b9150826002028217905092915050565b614af482613b36565b67ffffffffffffffff811115614b0d57614b0c613773565b5b614b17825461490e565b614b22828285614a5e565b600060209050601f831160018114614b555760008415614b43578287015190505b614b4d8582614acf565b865550614bb5565b601f198416614b638661493f565b60005b82811015614b8b57848901518255600182019150602085019450602081019050614b66565b86831015614ba85784890151614ba4601f891682614ab1565b8355505b6001600288020188555050505b505050505050565b7f4e487b7100000000000000000000000000000000000000000000000000000000600052601160045260246000fd5b6000614bf782613fa6565b91507fffffffffffffffffffffffffffffffffffffffffffffffffffffffffffffffff8203614c2957614c28614bbd565b5b600182019050919050565b60008154614c418161490e565b614c4b818661485d565b94506001821660008114614c665760018114614c7b57614cae565b60ff1983168652811515820286019350614cae565b614c848561493f565b60005b83811015614ca657815481890152600182019150602081019050614c87565b838801955050505b50505092915050565b6000614cc38284614c34565b915081905092915050565b7f45766964656e6365206e6f7420666f756e640000000000000000000000000000600082015250565b6000614d04601283614205565b9150614d0f82614cce565b602082019050919050565b60006020820190508181036000830152614d3381614cf7565b9050919050565b6000614d4582613fa6565b9150614d5083613fa6565b9250828203905081811115614d6857614d67614bbd565b5b92915050565b7f4e6f74204f776e65720000000000000000000000000000000000000000000000600082015250565b6000614da4600983614205565b9150614daf82614d6e565b602082019050919050565b60006020820190508181036000830152614dd381614d97565b905091905056fea264697066735822122058aaefd33735b21be2f679979fc88e320843e20147d709054646a28bfe43824964736f6c63430008130033",
  "immutableReferences": {},
  "source": "pragma solidity ^0.8.0;\r\nimport \"./EntitiesManager.sol\";\r\n\r\ncontract EvidencesManager {\r\n    \r\n    struct EvidenceFile {\r\n        string id;\r\n        string fileName;\r\n        string fileHash;\r\n    }\r\n\r\n    struct Evidence {\r\n        string uniqueCode;\r\n        string caseNo;\r\n        string classification;\r\n        string name;\r\n        string eType;\r\n        EntitiesManager.Entity owner;\r\n        uint256 timestamp;\r\n        string [] uFilesCodes;\r\n    }\r\n\r\n    mapping(string => Evidence[]) public evidencesHistory;\r\n    mapping(string => EvidenceFile[]) public evidencesFiles;\r\n\r\n    string[] public allEvidences;\r\n\r\n    function addEvidence(string memory _evidenceUniqueCode, string memory _caseNo, string memory _classification, string memory _evidenceName, string memory _evidenceType, EntitiesManager.Entity memory _entity) public {\r\n        if (evidencesHistory[_evidenceUniqueCode].length == 0) \r\n        {\r\n            evidencesHistory[_evidenceUniqueCode].push(Evidence(_evidenceUniqueCode, _caseNo, _classification,_evidenceName, _evidenceType, _entity, block.timestamp, new string[](0)));\r\n            allEvidences.push(_evidenceUniqueCode);\r\n        }\r\n        else{\r\n            uint totalVersions = evidencesHistory[_evidenceUniqueCode].length;\r\n            Evidence memory lastEvidence = evidencesHistory[_evidenceUniqueCode][totalVersions - 1];\r\n            require(lastEvidence.owner.entityAddress == _entity.entityAddress, \"Not Owner\");\r\n            evidencesHistory[_evidenceUniqueCode].push(Evidence(_evidenceUniqueCode, _caseNo, _classification,_evidenceName, _evidenceType, _entity, block.timestamp, new string[](0)));\r\n        }\r\n    }\r\n\r\n    // function addEvidence(string memory _evidenceUniqueCode, string memory _caseNo, string memory _classification, string memory _evidenceName, string memory _evidenceType, EntitiesManager.Entity memory _entity, EvidenceFile[] memory _files) public {\r\n        \r\n    //     string[] memory fileIds = new string[](_files.length);\r\n        \r\n    //     for (uint256 i = 0; i < _files.length; i++) {\r\n    //         evidencesFiles[_evidenceUniqueCode].push(EvidenceFile(_files[i].id, _files[i].fileName, _files[i].fileHash));\r\n    //         fileIds[i] = _files[i].id;\r\n    //     }\r\n        \r\n    //     if (evidencesHistory[_evidenceUniqueCode].length == 0) \r\n    //     {\r\n    //         evidencesHistory[_evidenceUniqueCode].push(Evidence(_evidenceUniqueCode, _caseNo, _classification,_evidenceName, _evidenceType, _entity, block.timestamp, fileIds));\r\n    //         allEvidences.push(_evidenceUniqueCode);\r\n    //     }\r\n    //     else{\r\n    //         uint totalVersions = evidencesHistory[_evidenceUniqueCode].length;\r\n    //         Evidence memory lastEvidence = evidencesHistory[_evidenceUniqueCode][totalVersions - 1];\r\n    //         require(lastEvidence.owner.entityAddress == _entity.entityAddress, \"Not Owner\");\r\n    //         evidencesHistory[_evidenceUniqueCode].push(Evidence(_evidenceUniqueCode, _caseNo, _classification,_evidenceName, _evidenceType, _entity, block.timestamp, fileIds));\r\n    //     }\r\n    // }\r\n\r\n    function addFiles(string memory _evidenceUniqueCode, EvidenceFile[] memory _files) public {\r\n        Evidence memory evidence = getLastUpdate(_evidenceUniqueCode);\r\n        string[] memory fileIds = new string[](_files.length);\r\n\r\n        for (uint256 i = 0; i < _files.length; i++) {\r\n            evidencesFiles[_evidenceUniqueCode].push(EvidenceFile(_files[i].id, _files[i].fileName, _files[i].fileHash));\r\n            fileIds[i] = _files[i].id;\r\n        }\r\n\r\n        evidencesHistory[_evidenceUniqueCode].push(Evidence(_evidenceUniqueCode, evidence.caseNo, evidence.classification, evidence.name, evidence.eType, evidence.owner, block.timestamp, fileIds));\r\n    }\r\n\r\n    function addFile(string memory _evidenceUniqueCode, EvidenceFile memory _file) public {\r\n        Evidence memory evidence = getLastUpdate(_evidenceUniqueCode);\r\n        string[] memory fileIds = new string[](1);\r\n        fileIds[0] = _file.id;\r\n        evidencesFiles[_evidenceUniqueCode].push(EvidenceFile(_file.id, _file.fileName, _file.fileHash));\r\n\r\n        evidencesHistory[_evidenceUniqueCode].push(Evidence(_evidenceUniqueCode, evidence.caseNo, evidence.classification, evidence.name, evidence.eType, evidence.owner, block.timestamp, fileIds));\r\n    }\r\n\r\n\r\n    function updateOwner(string memory _evidenceUniqueCode, EntitiesManager.Entity memory _entity)public \r\n    {\r\n        Evidence memory evidence = getLastUpdate(_evidenceUniqueCode);\r\n        evidencesHistory[_evidenceUniqueCode].push(Evidence(_evidenceUniqueCode, evidence.caseNo, evidence.classification, evidence.name, evidence.eType, _entity, block.timestamp, new string[](0)));\r\n    }\r\n\r\n    function getEvidences() public view returns (string[] memory) {\r\n        return allEvidences;\r\n    }\r\n\r\n    function getEvidenceHistory(string memory _evidenceUniqueCode) public view returns (Evidence[] memory) {\r\n        return evidencesHistory[_evidenceUniqueCode];\r\n    }\r\n\r\n    function getFileInfo(string memory _evidenceUniqueCode, string memory _fileId) public view returns (EvidenceFile memory){\r\n        EvidenceFile memory evidenceFile;\r\n        for (uint256 i = 0; i < evidencesFiles[_evidenceUniqueCode].length; i++) {\r\n            if (keccak256(abi.encodePacked(evidencesFiles[_evidenceUniqueCode][i].id)) == keccak256(abi.encodePacked(_fileId))) {\r\n                return evidencesFiles[_evidenceUniqueCode][i];\r\n            }\r\n        }\r\n        return evidenceFile;\r\n    }\r\n\r\n    function getLastUpdate (string memory _evidenceUniqueCode) public view returns (Evidence memory) {\r\n        uint totalVersions = evidencesHistory[_evidenceUniqueCode].length;\r\n        require(totalVersions > 0, \"Evidence not found\");\r\n\r\n        return evidencesHistory[_evidenceUniqueCode][totalVersions - 1];\r\n    }\r\n}",
  "sourcePath": "C:\\IPCA DISSERTAO\\evidences_dapp\\contracts\\EvidencesManager.sol",
  "compiler": {
    "name": "solc",
    "version": "0.8.19+commit.7dd6d404.Emscripten.clang"
  },
  "schemaVersion": "3.4.13",
  "updatedAt": "2023-08-28T22:30:01.624Z",
  "networkType": "ethereum",
  "devdoc": {
    "kind": "dev",
    "methods": {},
    "version": 1
  },
  "userdoc": {
    "kind": "user",
    "methods": {},
    "version": 1
  }
}