{
  "contractName": "EvidenceChain",
  "abi": [
    {
      "inputs": [
        {
          "internalType": "address",
          "name": "_entitiesManagerAddress",
          "type": "address"
        },
        {
          "internalType": "address",
          "name": "_evidencesManagerAddress",
          "type": "address"
        }
      ],
      "stateMutability": "nonpayable",
      "type": "constructor"
    },
    {
      "anonymous": false,
      "inputs": [
        {
          "indexed": true,
          "internalType": "uint32",
          "name": "evidenceId",
          "type": "uint32"
        }
      ],
      "name": "EvidenceAdded",
      "type": "event"
    },
    {
      "anonymous": false,
      "inputs": [
        {
          "indexed": true,
          "internalType": "uint32",
          "name": "userId",
          "type": "uint32"
        }
      ],
      "name": "ParticipantAdded",
      "type": "event"
    },
    {
      "anonymous": false,
      "inputs": [
        {
          "indexed": false,
          "internalType": "uint32",
          "name": "evidenceId",
          "type": "uint32"
        }
      ],
      "name": "TransferOwnership",
      "type": "event"
    },
    {
      "inputs": [],
      "name": "entitiesManager",
      "outputs": [
        {
          "internalType": "contract EntitiesManager",
          "name": "",
          "type": "address"
        }
      ],
      "stateMutability": "view",
      "type": "function",
      "constant": true
    },
    {
      "inputs": [
        {
          "internalType": "uint32",
          "name": "",
          "type": "uint32"
        },
        {
          "internalType": "uint256",
          "name": "",
          "type": "uint256"
        }
      ],
      "name": "evidenceTrack",
      "outputs": [
        {
          "internalType": "uint32",
          "name": "",
          "type": "uint32"
        }
      ],
      "stateMutability": "view",
      "type": "function",
      "constant": true
    },
    {
      "inputs": [],
      "name": "evidencesManager",
      "outputs": [
        {
          "internalType": "contract EvidencesManager",
          "name": "",
          "type": "address"
        }
      ],
      "stateMutability": "view",
      "type": "function",
      "constant": true
    },
    {
      "inputs": [],
      "name": "owner_id",
      "outputs": [
        {
          "internalType": "uint32",
          "name": "",
          "type": "uint32"
        }
      ],
      "stateMutability": "view",
      "type": "function",
      "constant": true
    },
    {
      "inputs": [
        {
          "internalType": "uint32",
          "name": "",
          "type": "uint32"
        }
      ],
      "name": "ownerships",
      "outputs": [
        {
          "internalType": "uint32",
          "name": "evidenceId",
          "type": "uint32"
        },
        {
          "internalType": "uint32",
          "name": "ownerId",
          "type": "uint32"
        },
        {
          "internalType": "uint32",
          "name": "trxTimeStamp",
          "type": "uint32"
        },
        {
          "internalType": "address",
          "name": "evidenceOwner",
          "type": "address"
        }
      ],
      "stateMutability": "view",
      "type": "function",
      "constant": true
    },
    {
      "inputs": [
        {
          "internalType": "address",
          "name": "_entity",
          "type": "address"
        },
        {
          "internalType": "string",
          "name": "_userName",
          "type": "string"
        },
        {
          "internalType": "string",
          "name": "_password",
          "type": "string"
        },
        {
          "internalType": "string",
          "name": "_name",
          "type": "string"
        },
        {
          "internalType": "string",
          "name": "_departmentCode",
          "type": "string"
        },
        {
          "internalType": "string",
          "name": "_entityType",
          "type": "string"
        }
      ],
      "name": "addEntity",
      "outputs": [],
      "stateMutability": "nonpayable",
      "type": "function"
    },
    {
      "inputs": [],
      "name": "getEntities",
      "outputs": [
        {
          "components": [
            {
              "internalType": "string",
              "name": "userName",
              "type": "string"
            },
            {
              "internalType": "string",
              "name": "password",
              "type": "string"
            },
            {
              "internalType": "string",
              "name": "name",
              "type": "string"
            },
            {
              "internalType": "string",
              "name": "departmentCode",
              "type": "string"
            },
            {
              "internalType": "string",
              "name": "entityType",
              "type": "string"
            },
            {
              "internalType": "address",
              "name": "entityAddress",
              "type": "address"
            },
            {
              "internalType": "uint32",
              "name": "timestamp",
              "type": "uint32"
            }
          ],
          "internalType": "struct EntitiesManager.Entity[]",
          "name": "",
          "type": "tuple[]"
        }
      ],
      "stateMutability": "view",
      "type": "function",
      "constant": true
    },
    {
      "inputs": [
        {
          "internalType": "address",
          "name": "_entity",
          "type": "address"
        }
      ],
      "name": "getEntityHistory",
      "outputs": [
        {
          "components": [
            {
              "internalType": "string",
              "name": "userName",
              "type": "string"
            },
            {
              "internalType": "string",
              "name": "password",
              "type": "string"
            },
            {
              "internalType": "string",
              "name": "name",
              "type": "string"
            },
            {
              "internalType": "string",
              "name": "departmentCode",
              "type": "string"
            },
            {
              "internalType": "string",
              "name": "entityType",
              "type": "string"
            },
            {
              "internalType": "address",
              "name": "entityAddress",
              "type": "address"
            },
            {
              "internalType": "uint32",
              "name": "timestamp",
              "type": "uint32"
            }
          ],
          "internalType": "struct EntitiesManager.Entity[]",
          "name": "",
          "type": "tuple[]"
        }
      ],
      "stateMutability": "view",
      "type": "function",
      "constant": true
    },
    {
      "inputs": [],
      "name": "getEntityHistory",
      "outputs": [
        {
          "components": [
            {
              "internalType": "string",
              "name": "userName",
              "type": "string"
            },
            {
              "internalType": "string",
              "name": "password",
              "type": "string"
            },
            {
              "internalType": "string",
              "name": "name",
              "type": "string"
            },
            {
              "internalType": "string",
              "name": "departmentCode",
              "type": "string"
            },
            {
              "internalType": "string",
              "name": "entityType",
              "type": "string"
            },
            {
              "internalType": "address",
              "name": "entityAddress",
              "type": "address"
            },
            {
              "internalType": "uint32",
              "name": "timestamp",
              "type": "uint32"
            }
          ],
          "internalType": "struct EntitiesManager.Entity[]",
          "name": "",
          "type": "tuple[]"
        }
      ],
      "stateMutability": "view",
      "type": "function",
      "constant": true
    },
    {
      "inputs": [
        {
          "internalType": "address",
          "name": "_entity",
          "type": "address"
        }
      ],
      "name": "getEntity",
      "outputs": [
        {
          "components": [
            {
              "internalType": "string",
              "name": "userName",
              "type": "string"
            },
            {
              "internalType": "string",
              "name": "password",
              "type": "string"
            },
            {
              "internalType": "string",
              "name": "name",
              "type": "string"
            },
            {
              "internalType": "string",
              "name": "departmentCode",
              "type": "string"
            },
            {
              "internalType": "string",
              "name": "entityType",
              "type": "string"
            },
            {
              "internalType": "address",
              "name": "entityAddress",
              "type": "address"
            },
            {
              "internalType": "uint32",
              "name": "timestamp",
              "type": "uint32"
            }
          ],
          "internalType": "struct EntitiesManager.Entity",
          "name": "",
          "type": "tuple"
        }
      ],
      "stateMutability": "view",
      "type": "function",
      "constant": true
    },
    {
      "inputs": [],
      "name": "getEntity",
      "outputs": [
        {
          "components": [
            {
              "internalType": "string",
              "name": "userName",
              "type": "string"
            },
            {
              "internalType": "string",
              "name": "password",
              "type": "string"
            },
            {
              "internalType": "string",
              "name": "name",
              "type": "string"
            },
            {
              "internalType": "string",
              "name": "departmentCode",
              "type": "string"
            },
            {
              "internalType": "string",
              "name": "entityType",
              "type": "string"
            },
            {
              "internalType": "address",
              "name": "entityAddress",
              "type": "address"
            },
            {
              "internalType": "uint32",
              "name": "timestamp",
              "type": "uint32"
            }
          ],
          "internalType": "struct EntitiesManager.Entity",
          "name": "",
          "type": "tuple"
        }
      ],
      "stateMutability": "view",
      "type": "function",
      "constant": true
    },
    {
      "inputs": [
        {
          "internalType": "string",
          "name": "_evidenceUniqueCode",
          "type": "string"
        },
        {
          "internalType": "string",
          "name": "_evidenceName",
          "type": "string"
        },
        {
          "internalType": "string",
          "name": "_evidenceType",
          "type": "string"
        }
      ],
      "name": "addEvidence",
      "outputs": [],
      "stateMutability": "nonpayable",
      "type": "function"
    },
    {
      "inputs": [],
      "name": "getEvidences",
      "outputs": [
        {
          "components": [
            {
              "internalType": "string",
              "name": "evidenceUniqueCode",
              "type": "string"
            },
            {
              "internalType": "string",
              "name": "evidenceName",
              "type": "string"
            },
            {
              "internalType": "string",
              "name": "evidenceType",
              "type": "string"
            },
            {
              "components": [
                {
                  "internalType": "string",
                  "name": "userName",
                  "type": "string"
                },
                {
                  "internalType": "string",
                  "name": "password",
                  "type": "string"
                },
                {
                  "internalType": "string",
                  "name": "name",
                  "type": "string"
                },
                {
                  "internalType": "string",
                  "name": "departmentCode",
                  "type": "string"
                },
                {
                  "internalType": "string",
                  "name": "entityType",
                  "type": "string"
                },
                {
                  "internalType": "address",
                  "name": "entityAddress",
                  "type": "address"
                },
                {
                  "internalType": "uint32",
                  "name": "timestamp",
                  "type": "uint32"
                }
              ],
              "internalType": "struct EntitiesManager.Entity",
              "name": "evidenceOwner",
              "type": "tuple"
            },
            {
              "internalType": "uint256",
              "name": "timestamp",
              "type": "uint256"
            }
          ],
          "internalType": "struct EvidencesManager.Evidence[]",
          "name": "",
          "type": "tuple[]"
        }
      ],
      "stateMutability": "view",
      "type": "function",
      "constant": true
    },
    {
      "inputs": [
        {
          "internalType": "string",
          "name": "_evidenceUniqueCode",
          "type": "string"
        }
      ],
      "name": "getEvidenceHistory",
      "outputs": [
        {
          "components": [
            {
              "internalType": "string",
              "name": "evidenceUniqueCode",
              "type": "string"
            },
            {
              "internalType": "string",
              "name": "evidenceName",
              "type": "string"
            },
            {
              "internalType": "string",
              "name": "evidenceType",
              "type": "string"
            },
            {
              "components": [
                {
                  "internalType": "string",
                  "name": "userName",
                  "type": "string"
                },
                {
                  "internalType": "string",
                  "name": "password",
                  "type": "string"
                },
                {
                  "internalType": "string",
                  "name": "name",
                  "type": "string"
                },
                {
                  "internalType": "string",
                  "name": "departmentCode",
                  "type": "string"
                },
                {
                  "internalType": "string",
                  "name": "entityType",
                  "type": "string"
                },
                {
                  "internalType": "address",
                  "name": "entityAddress",
                  "type": "address"
                },
                {
                  "internalType": "uint32",
                  "name": "timestamp",
                  "type": "uint32"
                }
              ],
              "internalType": "struct EntitiesManager.Entity",
              "name": "evidenceOwner",
              "type": "tuple"
            },
            {
              "internalType": "uint256",
              "name": "timestamp",
              "type": "uint256"
            }
          ],
          "internalType": "struct EvidencesManager.Evidence[]",
          "name": "",
          "type": "tuple[]"
        }
      ],
      "stateMutability": "view",
      "type": "function",
      "constant": true
    },
    {
      "inputs": [
        {
          "internalType": "string",
          "name": "_evidenceUniqueCode",
          "type": "string"
        }
      ],
      "name": "getEvidence",
      "outputs": [
        {
          "components": [
            {
              "internalType": "string",
              "name": "evidenceUniqueCode",
              "type": "string"
            },
            {
              "internalType": "string",
              "name": "evidenceName",
              "type": "string"
            },
            {
              "internalType": "string",
              "name": "evidenceType",
              "type": "string"
            },
            {
              "components": [
                {
                  "internalType": "string",
                  "name": "userName",
                  "type": "string"
                },
                {
                  "internalType": "string",
                  "name": "password",
                  "type": "string"
                },
                {
                  "internalType": "string",
                  "name": "name",
                  "type": "string"
                },
                {
                  "internalType": "string",
                  "name": "departmentCode",
                  "type": "string"
                },
                {
                  "internalType": "string",
                  "name": "entityType",
                  "type": "string"
                },
                {
                  "internalType": "address",
                  "name": "entityAddress",
                  "type": "address"
                },
                {
                  "internalType": "uint32",
                  "name": "timestamp",
                  "type": "uint32"
                }
              ],
              "internalType": "struct EntitiesManager.Entity",
              "name": "evidenceOwner",
              "type": "tuple"
            },
            {
              "internalType": "uint256",
              "name": "timestamp",
              "type": "uint256"
            }
          ],
          "internalType": "struct EvidencesManager.Evidence",
          "name": "",
          "type": "tuple"
        }
      ],
      "stateMutability": "view",
      "type": "function",
      "constant": true
    },
    {
      "inputs": [
        {
          "internalType": "uint32",
          "name": "_evidenceId",
          "type": "uint32"
        }
      ],
      "name": "getProvenance",
      "outputs": [
        {
          "internalType": "uint32[]",
          "name": "",
          "type": "uint32[]"
        }
      ],
      "stateMutability": "view",
      "type": "function",
      "constant": true
    },
    {
      "inputs": [
        {
          "internalType": "uint32",
          "name": "_regId",
          "type": "uint32"
        }
      ],
      "name": "getOwnership",
      "outputs": [
        {
          "internalType": "uint32",
          "name": "",
          "type": "uint32"
        },
        {
          "internalType": "uint32",
          "name": "",
          "type": "uint32"
        },
        {
          "internalType": "address",
          "name": "",
          "type": "address"
        },
        {
          "internalType": "uint32",
          "name": "",
          "type": "uint32"
        }
      ],
      "stateMutability": "view",
      "type": "function",
      "constant": true
    }
  ],
  "bytecode": "0x60806040526000600160146101000a81548163ffffffff021916908363ffffffff1602179055503480156200003357600080fd5b5060405162002be838038062002be883398181016040528101906200005991906200014c565b816000806101000a81548173ffffffffffffffffffffffffffffffffffffffff021916908373ffffffffffffffffffffffffffffffffffffffff16021790555080600160006101000a81548173ffffffffffffffffffffffffffffffffffffffff021916908373ffffffffffffffffffffffffffffffffffffffff160217905550505062000193565b600080fd5b600073ffffffffffffffffffffffffffffffffffffffff82169050919050565b60006200011482620000e7565b9050919050565b620001268162000107565b81146200013257600080fd5b50565b60008151905062000146816200011b565b92915050565b60008060408385031215620001665762000165620000e2565b5b6000620001768582860162000135565b9250506020620001898582860162000135565b9150509250929050565b612a4580620001a36000396000f3fe608060405234801561001057600080fd5b506004361061010b5760003560e01c80638cb58fc1116100a2578063c892522e11610071578063c892522e146102e3578063df6d23f114610313578063dff95aac14610346578063e3271cf914610364578063ff200d2b146103825761010b565b80638cb58fc1146102475780638f5ebf7114610265578063b16c6ee714610283578063c8569565146102b35761010b565b80635760620b116100de5780635760620b1461019657806375894e8c146101c657806381e15610146101f65780638b57d984146102295761010b565b80631252a0831461011057806328320e1c1461012c57806331b933b91461015c5780633cf16fda1461017a575b600080fd5b61012a600480360381019061012591906113cf565b6103a0565b005b610146600480360381019061014191906114e8565b61043d565b604051610153919061173c565b60405180910390f35b6101646104e5565b604051610171919061173c565b60405180910390f35b610194600480360381019061018f919061175e565b61072e565b005b6101b060048036038101906101ab9190611867565b6108f7565b6040516101bd91906118b6565b60405180910390f35b6101e060048036038101906101db91906114e8565b610940565b6040516101ed9190611989565b60405180910390f35b610210600480360381019061020b91906119ab565b6109ee565b60405161022094939291906119e7565b60405180910390f35b610231610a6e565b60405161023e919061173c565b60405180910390f35b61024f610b14565b60405161025c9190611a8b565b60405180910390f35b61026d610b3a565b60405161027a91906118b6565b60405180910390f35b61029d60048036038101906102989190611aa6565b610b50565b6040516102aa9190611b89565b60405180910390f35b6102cd60048036038101906102c891906119ab565b610c00565b6040516102da9190611c5a565b60405180910390f35b6102fd60048036038101906102f89190611aa6565b610ca3565b60405161030a9190611dc9565b60405180910390f35b61032d600480360381019061032891906119ab565b610d4d565b60405161033d9493929190611deb565b60405180910390f35b61034e610e6d565b60405161035b9190611dc9565b60405180910390f35b61036c6110b9565b6040516103799190611e51565b60405180910390f35b61038a6110dd565b6040516103979190611989565b60405180910390f35b60008054906101000a900473ffffffffffffffffffffffffffffffffffffffff1673ffffffffffffffffffffffffffffffffffffffff16631252a0838787878787876040518763ffffffff1660e01b815260040161040396959493929190611eb6565b600060405180830381600087803b15801561041d57600080fd5b505af1158015610431573d6000803e3d6000fd5b50505050505050505050565b606060008054906101000a900473ffffffffffffffffffffffffffffffffffffffff1673ffffffffffffffffffffffffffffffffffffffff166328320e1c836040518263ffffffff1660e01b81526004016104989190611f3a565b600060405180830381865afa1580156104b5573d6000803e3d6000fd5b505050506040513d6000823e3d601f19601f820116820180604052508101906104de919061221f565b9050919050565b606060008060009054906101000a900473ffffffffffffffffffffffffffffffffffffffff1673ffffffffffffffffffffffffffffffffffffffff166331b933b96040518163ffffffff1660e01b8152600401600060405180830381865afa158015610555573d6000803e3d6000fd5b505050506040513d6000823e3d601f19601f8201168201806040525081019061057e919061232b565b905060008151116105c4576040517f08c379a00000000000000000000000000000000000000000000000000000000081526004016105bb906123c0565b60405180910390fd5b6000815167ffffffffffffffff8111156105e1576105e06112a4565b5b60405190808252806020026020018201604052801561061a57816020015b610607611189565b8152602001906001900390816105ff5790505b50905060005b82518163ffffffff1610156107255760008054906101000a900473ffffffffffffffffffffffffffffffffffffffff1673ffffffffffffffffffffffffffffffffffffffff16635a7e1989848363ffffffff1681518110610684576106836123e0565b5b60200260200101516040518263ffffffff1660e01b81526004016106a89190611f3a565b600060405180830381865afa1580156106c5573d6000803e3d6000fd5b505050506040513d6000823e3d601f19601f820116820180604052508101906106ee919061240f565b828263ffffffff1681518110610707576107066123e0565b5b6020026020010181905250808061071d90612487565b915050610620565b50809250505090565b60008060009054906101000a900473ffffffffffffffffffffffffffffffffffffffff1673ffffffffffffffffffffffffffffffffffffffff16635a7e1989336040518263ffffffff1660e01b815260040161078a9190611f3a565b600060405180830381865afa1580156107a7573d6000803e3d6000fd5b505050506040513d6000823e3d601f19601f820116820180604052508101906107d0919061240f565b90507fe419ba2484d9efb5ea120ea8d8b86dc666551db29ed65e4d8c975262e7a9c365816080015160405160200161080891906124ef565b604051602081830303815290604052805190602001201461085e576040517f08c379a000000000000000000000000000000000000000000000000000000000815260040161085590612552565b60405180910390fd5b600160009054906101000a900473ffffffffffffffffffffffffffffffffffffffff1673ffffffffffffffffffffffffffffffffffffffff16632005df6d858585856040518563ffffffff1660e01b81526004016108bf9493929190612572565b600060405180830381600087803b1580156108d957600080fd5b505af11580156108ed573d6000803e3d6000fd5b5050505050505050565b6003602052816000526040600020818154811061091357600080fd5b9060005260206000209060089182820401919006600402915091509054906101000a900463ffffffff1681565b610948611189565b60008054906101000a900473ffffffffffffffffffffffffffffffffffffffff1673ffffffffffffffffffffffffffffffffffffffff16635a7e1989836040518263ffffffff1660e01b81526004016109a19190611f3a565b600060405180830381865afa1580156109be573d6000803e3d6000fd5b505050506040513d6000823e3d601f19601f820116820180604052508101906109e7919061240f565b9050919050565b60026020528060005260406000206000915090508060000160009054906101000a900463ffffffff16908060000160049054906101000a900463ffffffff16908060000160089054906101000a900463ffffffff169080600001600c9054906101000a900473ffffffffffffffffffffffffffffffffffffffff16905084565b606060008054906101000a900473ffffffffffffffffffffffffffffffffffffffff1673ffffffffffffffffffffffffffffffffffffffff166328320e1c336040518263ffffffff1660e01b8152600401610ac99190611f3a565b600060405180830381865afa158015610ae6573d6000803e3d6000fd5b505050506040513d6000823e3d601f19601f82011682018060405250810190610b0f919061221f565b905090565b600160009054906101000a900473ffffffffffffffffffffffffffffffffffffffff1681565b600160149054906101000a900463ffffffff1681565b610b586111e2565b600160009054906101000a900473ffffffffffffffffffffffffffffffffffffffff1673ffffffffffffffffffffffffffffffffffffffff16633eeb568b836040518263ffffffff1660e01b8152600401610bb391906125d3565b600060405180830381865afa158015610bd0573d6000803e3d6000fd5b505050506040513d6000823e3d601f19601f82011682018060405250810190610bf99190612706565b9050919050565b6060600360008363ffffffff1663ffffffff168152602001908152602001600020805480602002602001604051908101604052809291908181526020018280548015610c9757602002820191906000526020600020906000905b82829054906101000a900463ffffffff1663ffffffff1681526020019060040190602082600301049283019260010382029150808411610c5a5790505b50505050509050919050565b6060600160009054906101000a900473ffffffffffffffffffffffffffffffffffffffff1673ffffffffffffffffffffffffffffffffffffffff1663c892522e836040518263ffffffff1660e01b8152600401610d0091906125d3565b600060405180830381865afa158015610d1d573d6000803e3d6000fd5b505050506040513d6000823e3d601f19601f82011682018060405250810190610d469190612830565b9050919050565b6000806000806000600260008763ffffffff1663ffffffff1681526020019081526020016000206040518060800160405290816000820160009054906101000a900463ffffffff1663ffffffff1663ffffffff1681526020016000820160049054906101000a900463ffffffff1663ffffffff1663ffffffff1681526020016000820160089054906101000a900463ffffffff1663ffffffff1663ffffffff16815260200160008201600c9054906101000a900473ffffffffffffffffffffffffffffffffffffffff1673ffffffffffffffffffffffffffffffffffffffff1673ffffffffffffffffffffffffffffffffffffffff1681525050905080600001518160200151826060015183604001519450945094509450509193509193565b60606000600160009054906101000a900473ffffffffffffffffffffffffffffffffffffffff1673ffffffffffffffffffffffffffffffffffffffff1663dff95aac6040518163ffffffff1660e01b8152600401600060405180830381865afa158015610ede573d6000803e3d6000fd5b505050506040513d6000823e3d601f19601f82011682018060405250810190610f07919061295a565b90506000815111610f4d576040517f08c379a0000000000000000000000000000000000000000000000000000000008152600401610f44906129ef565b60405180910390fd5b6000815167ffffffffffffffff811115610f6a57610f696112a4565b5b604051908082528060200260200182016040528015610fa357816020015b610f906111e2565b815260200190600190039081610f885790505b50905060005b82518163ffffffff1610156110b057600160009054906101000a900473ffffffffffffffffffffffffffffffffffffffff1673ffffffffffffffffffffffffffffffffffffffff16633eeb568b848363ffffffff168151811061100f5761100e6123e0565b5b60200260200101516040518263ffffffff1660e01b815260040161103391906125d3565b600060405180830381865afa158015611050573d6000803e3d6000fd5b505050506040513d6000823e3d601f19601f820116820180604052508101906110799190612706565b828263ffffffff1681518110611092576110916123e0565b5b602002602001018190525080806110a890612487565b915050610fa9565b50809250505090565b60008054906101000a900473ffffffffffffffffffffffffffffffffffffffff1681565b6110e5611189565b60008054906101000a900473ffffffffffffffffffffffffffffffffffffffff1673ffffffffffffffffffffffffffffffffffffffff16635a7e1989336040518263ffffffff1660e01b815260040161113e9190611f3a565b600060405180830381865afa15801561115b573d6000803e3d6000fd5b505050506040513d6000823e3d601f19601f82011682018060405250810190611184919061240f565b905090565b6040518060e001604052806060815260200160608152602001606081526020016060815260200160608152602001600073ffffffffffffffffffffffffffffffffffffffff168152602001600063ffffffff1681525090565b6040518060a0016040528060608152602001606081526020016060815260200161120a611189565b8152602001600081525090565b6000604051905090565b600080fd5b600080fd5b600073ffffffffffffffffffffffffffffffffffffffff82169050919050565b60006112568261122b565b9050919050565b6112668161124b565b811461127157600080fd5b50565b6000813590506112838161125d565b92915050565b600080fd5b600080fd5b6000601f19601f8301169050919050565b7f4e487b7100000000000000000000000000000000000000000000000000000000600052604160045260246000fd5b6112dc82611293565b810181811067ffffffffffffffff821117156112fb576112fa6112a4565b5b80604052505050565b600061130e611217565b905061131a82826112d3565b919050565b600067ffffffffffffffff82111561133a576113396112a4565b5b61134382611293565b9050602081019050919050565b82818337600083830152505050565b600061137261136d8461131f565b611304565b90508281526020810184848401111561138e5761138d61128e565b5b611399848285611350565b509392505050565b600082601f8301126113b6576113b5611289565b5b81356113c684826020860161135f565b91505092915050565b60008060008060008060c087890312156113ec576113eb611221565b5b60006113fa89828a01611274565b965050602087013567ffffffffffffffff81111561141b5761141a611226565b5b61142789828a016113a1565b955050604087013567ffffffffffffffff81111561144857611447611226565b5b61145489828a016113a1565b945050606087013567ffffffffffffffff81111561147557611474611226565b5b61148189828a016113a1565b935050608087013567ffffffffffffffff8111156114a2576114a1611226565b5b6114ae89828a016113a1565b92505060a087013567ffffffffffffffff8111156114cf576114ce611226565b5b6114db89828a016113a1565b9150509295509295509295565b6000602082840312156114fe576114fd611221565b5b600061150c84828501611274565b91505092915050565b600081519050919050565b600082825260208201905092915050565b6000819050602082019050919050565b600081519050919050565b600082825260208201905092915050565b60005b8381101561157b578082015181840152602081019050611560565b60008484015250505050565b600061159282611541565b61159c818561154c565b93506115ac81856020860161155d565b6115b581611293565b840191505092915050565b6115c98161124b565b82525050565b600063ffffffff82169050919050565b6115e8816115cf565b82525050565b600060e083016000830151848203600086015261160b8282611587565b915050602083015184820360208601526116258282611587565b9150506040830151848203604086015261163f8282611587565b915050606083015184820360608601526116598282611587565b915050608083015184820360808601526116738282611587565b91505060a083015161168860a08601826115c0565b5060c083015161169b60c08601826115df565b508091505092915050565b60006116b283836115ee565b905092915050565b6000602082019050919050565b60006116d282611515565b6116dc8185611520565b9350836020820285016116ee85611531565b8060005b8581101561172a578484038952815161170b85826116a6565b9450611716836116ba565b925060208a019950506001810190506116f2565b50829750879550505050505092915050565b6000602082019050818103600083015261175681846116c7565b905092915050565b60008060006060848603121561177757611776611221565b5b600084013567ffffffffffffffff81111561179557611794611226565b5b6117a1868287016113a1565b935050602084013567ffffffffffffffff8111156117c2576117c1611226565b5b6117ce868287016113a1565b925050604084013567ffffffffffffffff8111156117ef576117ee611226565b5b6117fb868287016113a1565b9150509250925092565b61180e816115cf565b811461181957600080fd5b50565b60008135905061182b81611805565b92915050565b6000819050919050565b61184481611831565b811461184f57600080fd5b50565b6000813590506118618161183b565b92915050565b6000806040838503121561187e5761187d611221565b5b600061188c8582860161181c565b925050602061189d85828601611852565b9150509250929050565b6118b0816115cf565b82525050565b60006020820190506118cb60008301846118a7565b92915050565b600060e08301600083015184820360008601526118ee8282611587565b915050602083015184820360208601526119088282611587565b915050604083015184820360408601526119228282611587565b9150506060830151848203606086015261193c8282611587565b915050608083015184820360808601526119568282611587565b91505060a083015161196b60a08601826115c0565b5060c083015161197e60c08601826115df565b508091505092915050565b600060208201905081810360008301526119a381846118d1565b905092915050565b6000602082840312156119c1576119c0611221565b5b60006119cf8482850161181c565b91505092915050565b6119e18161124b565b82525050565b60006080820190506119fc60008301876118a7565b611a0960208301866118a7565b611a1660408301856118a7565b611a2360608301846119d8565b95945050505050565b6000819050919050565b6000611a51611a4c611a478461122b565b611a2c565b61122b565b9050919050565b6000611a6382611a36565b9050919050565b6000611a7582611a58565b9050919050565b611a8581611a6a565b82525050565b6000602082019050611aa06000830184611a7c565b92915050565b600060208284031215611abc57611abb611221565b5b600082013567ffffffffffffffff811115611ada57611ad9611226565b5b611ae6848285016113a1565b91505092915050565b611af881611831565b82525050565b600060a0830160008301518482036000860152611b1b8282611587565b91505060208301518482036020860152611b358282611587565b91505060408301518482036040860152611b4f8282611587565b91505060608301518482036060860152611b6982826115ee565b9150506080830151611b7e6080860182611aef565b508091505092915050565b60006020820190508181036000830152611ba38184611afe565b905092915050565b600081519050919050565b600082825260208201905092915050565b6000819050602082019050919050565b6000611be383836115df565b60208301905092915050565b6000602082019050919050565b6000611c0782611bab565b611c118185611bb6565b9350611c1c83611bc7565b8060005b83811015611c4d578151611c348882611bd7565b9750611c3f83611bef565b925050600181019050611c20565b5085935050505092915050565b60006020820190508181036000830152611c748184611bfc565b905092915050565b600081519050919050565b600082825260208201905092915050565b6000819050602082019050919050565b600060a0830160008301518482036000860152611cc58282611587565b91505060208301518482036020860152611cdf8282611587565b91505060408301518482036040860152611cf98282611587565b91505060608301518482036060860152611d1382826115ee565b9150506080830151611d286080860182611aef565b508091505092915050565b6000611d3f8383611ca8565b905092915050565b6000602082019050919050565b6000611d5f82611c7c565b611d698185611c87565b935083602082028501611d7b85611c98565b8060005b85811015611db75784840389528151611d988582611d33565b9450611da383611d47565b925060208a01995050600181019050611d7f565b50829750879550505050505092915050565b60006020820190508181036000830152611de38184611d54565b905092915050565b6000608082019050611e0060008301876118a7565b611e0d60208301866118a7565b611e1a60408301856119d8565b611e2760608301846118a7565b95945050505050565b6000611e3b82611a58565b9050919050565b611e4b81611e30565b82525050565b6000602082019050611e666000830184611e42565b92915050565b600082825260208201905092915050565b6000611e8882611541565b611e928185611e6c565b9350611ea281856020860161155d565b611eab81611293565b840191505092915050565b600060c082019050611ecb60008301896119d8565b8181036020830152611edd8188611e7d565b90508181036040830152611ef18187611e7d565b90508181036060830152611f058186611e7d565b90508181036080830152611f198185611e7d565b905081810360a0830152611f2d8184611e7d565b9050979650505050505050565b6000602082019050611f4f60008301846119d8565b92915050565b600067ffffffffffffffff821115611f7057611f6f6112a4565b5b602082029050602081019050919050565b600080fd5b600080fd5b600080fd5b6000611fa3611f9e8461131f565b611304565b905082815260208101848484011115611fbf57611fbe61128e565b5b611fca84828561155d565b509392505050565b600082601f830112611fe757611fe6611289565b5b8151611ff7848260208601611f90565b91505092915050565b60008151905061200f8161125d565b92915050565b60008151905061202481611805565b92915050565b600060e082840312156120405761203f611f86565b5b61204a60e0611304565b9050600082015167ffffffffffffffff81111561206a57612069611f8b565b5b61207684828501611fd2565b600083015250602082015167ffffffffffffffff81111561209a57612099611f8b565b5b6120a684828501611fd2565b602083015250604082015167ffffffffffffffff8111156120ca576120c9611f8b565b5b6120d684828501611fd2565b604083015250606082015167ffffffffffffffff8111156120fa576120f9611f8b565b5b61210684828501611fd2565b606083015250608082015167ffffffffffffffff81111561212a57612129611f8b565b5b61213684828501611fd2565b60808301525060a061214a84828501612000565b60a08301525060c061215e84828501612015565b60c08301525092915050565b600061217d61217884611f55565b611304565b905080838252602082019050602084028301858111156121a05761219f611f81565b5b835b818110156121e757805167ffffffffffffffff8111156121c5576121c4611289565b5b8086016121d2898261202a565b855260208501945050506020810190506121a2565b5050509392505050565b600082601f83011261220657612205611289565b5b815161221684826020860161216a565b91505092915050565b60006020828403121561223557612234611221565b5b600082015167ffffffffffffffff81111561225357612252611226565b5b61225f848285016121f1565b91505092915050565b600067ffffffffffffffff821115612283576122826112a4565b5b602082029050602081019050919050565b60006122a76122a284612268565b611304565b905080838252602082019050602084028301858111156122ca576122c9611f81565b5b835b818110156122f357806122df8882612000565b8452602084019350506020810190506122cc565b5050509392505050565b600082601f83011261231257612311611289565b5b8151612322848260208601612294565b91505092915050565b60006020828403121561234157612340611221565b5b600082015167ffffffffffffffff81111561235f5761235e611226565b5b61236b848285016122fd565b91505092915050565b7f4e6f20456e746974696573000000000000000000000000000000000000000000600082015250565b60006123aa600b83611e6c565b91506123b582612374565b602082019050919050565b600060208201905081810360008301526123d98161239d565b9050919050565b7f4e487b7100000000000000000000000000000000000000000000000000000000600052603260045260246000fd5b60006020828403121561242557612424611221565b5b600082015167ffffffffffffffff81111561244357612442611226565b5b61244f8482850161202a565b91505092915050565b7f4e487b7100000000000000000000000000000000000000000000000000000000600052601160045260246000fd5b6000612492826115cf565b915063ffffffff82036124a8576124a7612458565b5b600182019050919050565b600081905092915050565b60006124c982611541565b6124d381856124b3565b93506124e381856020860161155d565b80840191505092915050565b60006124fb82846124be565b915081905092915050565b7f4e6f7420506f6c6963652e000000000000000000000000000000000000000000600082015250565b600061253c600b83611e6c565b915061254782612506565b602082019050919050565b6000602082019050818103600083015261256b8161252f565b9050919050565b6000608082019050818103600083015261258c8187611e7d565b905081810360208301526125a08186611e7d565b905081810360408301526125b48185611e7d565b905081810360608301526125c881846118d1565b905095945050505050565b600060208201905081810360008301526125ed8184611e7d565b905092915050565b6000815190506126048161183b565b92915050565b600060a082840312156126205761261f611f86565b5b61262a60a0611304565b9050600082015167ffffffffffffffff81111561264a57612649611f8b565b5b61265684828501611fd2565b600083015250602082015167ffffffffffffffff81111561267a57612679611f8b565b5b61268684828501611fd2565b602083015250604082015167ffffffffffffffff8111156126aa576126a9611f8b565b5b6126b684828501611fd2565b604083015250606082015167ffffffffffffffff8111156126da576126d9611f8b565b5b6126e68482850161202a565b60608301525060806126fa848285016125f5565b60808301525092915050565b60006020828403121561271c5761271b611221565b5b600082015167ffffffffffffffff81111561273a57612739611226565b5b6127468482850161260a565b91505092915050565b600067ffffffffffffffff82111561276a576127696112a4565b5b602082029050602081019050919050565b600061278e6127898461274f565b611304565b905080838252602082019050602084028301858111156127b1576127b0611f81565b5b835b818110156127f857805167ffffffffffffffff8111156127d6576127d5611289565b5b8086016127e3898261260a565b855260208501945050506020810190506127b3565b5050509392505050565b600082601f83011261281757612816611289565b5b815161282784826020860161277b565b91505092915050565b60006020828403121561284657612845611221565b5b600082015167ffffffffffffffff81111561286457612863611226565b5b61287084828501612802565b91505092915050565b600067ffffffffffffffff821115612894576128936112a4565b5b602082029050602081019050919050565b60006128b86128b384612879565b611304565b905080838252602082019050602084028301858111156128db576128da611f81565b5b835b8181101561292257805167ffffffffffffffff811115612900576128ff611289565b5b80860161290d8982611fd2565b855260208501945050506020810190506128dd565b5050509392505050565b600082601f83011261294157612940611289565b5b81516129518482602086016128a5565b91505092915050565b6000602082840312156129705761296f611221565b5b600082015167ffffffffffffffff81111561298e5761298d611226565b5b61299a8482850161292c565b91505092915050565b7f4e6f2045766964656e6365730000000000000000000000000000000000000000600082015250565b60006129d9600c83611e6c565b91506129e4826129a3565b602082019050919050565b60006020820190508181036000830152612a08816129cc565b905091905056fea2646970667358221220ce6636882312b6ec2989d13a9a70306315124681bd65d32cb25a2fd88ef0fbb164736f6c63430008130033",
  "immutableReferences": {},
  "source": "pragma solidity >=0.8.0;\r\n\r\nimport \"./EntitiesManager.sol\";\r\nimport \"./EvidencesManager.sol\";\r\n\r\ncontract EvidenceChain {\r\n    EntitiesManager public entitiesManager;\r\n    EvidencesManager public evidencesManager;\r\n\r\n    constructor(address _entitiesManagerAddress, address _evidencesManagerAddress) {\r\n        entitiesManager = EntitiesManager(_entitiesManagerAddress);\r\n        evidencesManager = EvidencesManager(_evidencesManagerAddress);\r\n    }\r\n    \r\n    // uint32 public evidence_id = 0;\r\n    uint32 public owner_id = 0;\r\n\r\n    // struct Evidence {\r\n    //     string evidenceUniqueCode;\r\n    //     string evidenceName;\r\n    //     string evidenceType;\r\n    //     address evidenceOwner;\r\n    //     uint32 mfgTimeStamp;\r\n    // }\r\n\r\n    // Evidence [] public evidences;\r\n    \r\n    struct ownership {\r\n        uint32 evidenceId;\r\n        uint32 ownerId;\r\n        uint32 trxTimeStamp;\r\n        address evidenceOwner;\r\n    }\r\n\r\n    mapping(uint32 => ownership) public ownerships;\r\n    mapping(uint32 => uint32[]) public evidenceTrack;  \r\n\r\n    event TransferOwnership(uint32 evidenceId);\r\n    event ParticipantAdded(uint32 indexed userId);\r\n    event EvidenceAdded(uint32 indexed evidenceId);\r\n\r\n    function addEntity(address _entity, string memory _userName, string memory _password, string memory _name, string  memory _departmentCode, string memory _entityType) public {\r\n        entitiesManager.addEntity(_entity, _userName, _password, _name, _departmentCode, _entityType);\r\n    }\r\n\r\n    function getEntities() public view returns (EntitiesManager.Entity[] memory) {\r\n        address[] memory entityAddresses = entitiesManager.getEntities();\r\n        require(entityAddresses.length > 0, \"No Entities\");\r\n        EntitiesManager.Entity[] memory entities = new EntitiesManager.Entity[](entityAddresses.length);\r\n        for (uint32 i = 0; i < entityAddresses.length; i++) {\r\n            entities[i] = entitiesManager.getLastUpdate(entityAddresses[i]);\r\n        }\r\n\r\n        return entities;\r\n    }\r\n\r\n    // function getEntities() public view returns (address[] memory) {\r\n    //     return entitiesManager.getEntities();\r\n    // }\r\n\r\n    function getEntityHistory() public view returns (EntitiesManager.Entity[] memory) {\r\n        return entitiesManager.getEntityHistory(msg.sender);\r\n    }\r\n\r\n    function getEntityHistory(address _entity) public view returns (EntitiesManager.Entity[] memory) {\r\n        return entitiesManager.getEntityHistory(_entity);\r\n    }\r\n\r\n    function getEntity(address _entity) public view returns (EntitiesManager.Entity memory) {\r\n        return entitiesManager.getLastUpdate(_entity);\r\n    }\r\n\r\n    function getEntity() public view returns (EntitiesManager.Entity memory) {\r\n        return entitiesManager.getLastUpdate(msg.sender);\r\n    }\r\n\r\n    // function addParticipant(string memory _name, string memory _pass, address _pAdd, string memory _pType) public {\r\n    //     uint32 userId = participant_id++;\r\n\r\n    //     participants.push(Participant(_name, _pass, _pType, _pAdd));\r\n\r\n    //     emit ParticipantAdded(userId);\r\n    // }\r\n\r\n    // function getParticipants() onlyParticipant() public view returns (Participant[] memory){\r\n    //     return participants;\r\n    // }\r\n\r\n    // function getParticipant() public view returns (Participant memory) \r\n    // {\r\n    //     for (uint32 i = 0; i < participants.length; i++) {\r\n    //         if (participants[i].participantAddress == msg.sender) {\r\n    //             return participants[i];\r\n    //         }\r\n    //     }\r\n    //     revert(\"Participant not found\");\r\n    // }\r\n\r\n    // modifier onlyParticipant() {\r\n    //     require(isParticipant(), \"The address was not found in the list.\");\r\n    //     _;\r\n    // }\r\n\r\n    // function isParticipant() internal view returns(bool) {\r\n    // for (uint32 i = 0; i < participant_id; i++) {\r\n    //     if (participants[i].participantAddress == msg.sender) {\r\n    //         return true;\r\n    //     }\r\n    // }\r\n    // return false;\r\n    // }\r\n\r\n    // function getParticipantId() internal view returns(int32) {\r\n    // for (uint32 i = 0; i < participant_id; i++) {\r\n    //     if (participants[i].participantAddress == msg.sender) {\r\n    //         return int32(i);\r\n    //     }\r\n    // }\r\n    // return -1;\r\n    // }\r\n\r\n    function addEvidence(string memory _evidenceUniqueCode, string memory _evidenceName, string memory _evidenceType) public {\r\n        EntitiesManager.Entity memory _entity = entitiesManager.getLastUpdate(msg.sender);\r\n        require(keccak256(abi.encodePacked(_entity.entityType)) == keccak256(\"Police\"),\"Not Police.\");\r\n        evidencesManager.addEvidence(_evidenceUniqueCode, _evidenceName, _evidenceType, _entity);\r\n    }\r\n\r\n    function getEvidences() public view returns (EvidencesManager.Evidence[] memory) {\r\n        string[] memory evidencesCodes = evidencesManager.getEvidences();\r\n        require(evidencesCodes.length > 0, \"No Evidences\");\r\n        EvidencesManager.Evidence[] memory evidences = new EvidencesManager.Evidence[](evidencesCodes.length);\r\n        for (uint32 i = 0; i < evidencesCodes.length; i++) {\r\n            evidences[i] = evidencesManager.getLastUpdate(evidencesCodes[i]);\r\n        }\r\n\r\n        return evidences;\r\n    }\r\n\r\n    function getEvidenceHistory(string memory _evidenceUniqueCode) public view returns (EvidencesManager.Evidence[] memory) {\r\n        return evidencesManager.getEvidenceHistory(_evidenceUniqueCode);\r\n    }\r\n\r\n    function getEvidence(string memory _evidenceUniqueCode) public view returns (EvidencesManager.Evidence memory) {\r\n        return evidencesManager.getLastUpdate(_evidenceUniqueCode);\r\n    }\r\n\r\n    // function addEvidence(string memory _evidenceUniqueCode,\r\n    //                     string memory _evidenceName,\r\n    //                     string memory _evidenceType) public \r\n    // {\r\n    //     // require(verifyEvidenceUniqueCode(_evidenceUniqueCode));\r\n    //     // int32 _ownerId = getParticipantId();\r\n    //     // require(_ownerId >= 0, \"Not Found Participant!\");\r\n    //     // require(keccak256(abi.encodePacked(participants[uint32(_ownerId)].participantType)) == keccak256(\"Police\"),\"Not Police.\");\r\n        \r\n    //     uint32 evidenceId = evidence_id++;\r\n\r\n    //     evidences.push(Evidence(_evidenceUniqueCode, _evidenceName, _evidenceType, msg.sender, uint32(block.timestamp)));\r\n        \r\n    //     // evidences[evidenceId].evidenceName = _evidenceName;\r\n    //     // evidences[evidenceId].evidenceType = _evidenceType;\r\n    //     // evidences[evidenceId].evidenceOwner = participants[_ownerId].participantAddress;\r\n    //     // evidences[evidenceId].mfgTimeStamp = uint32(block.timestamp);\r\n\r\n    //     //emit EvidenceAdded(evidenceId);\r\n    // }\r\n\r\n    // function verifyEvidenceUniqueCode(string memory _evidenceUniqueCode) internal view returns(bool) {\r\n    // for (uint32 i = 0; i < evidence_id; i++) {\r\n    //     if (keccak256(bytes(evidences[i].evidenceUniqueCode)) == keccak256(bytes(_evidenceUniqueCode))) {\r\n    //         return false;\r\n    //     }\r\n    // }\r\n    // return true;\r\n    // }\r\n\r\n\r\n    // modifier onlyOwner(uint32 _evidenceId) {\r\n    //      require(msg.sender == evidences[_evidenceId].evidenceOwner,\"\");\r\n    //      _;\r\n\r\n    // }\r\n\r\n    // function getEvidences() public view returns (Evidence[] memory){\r\n    //     return evidences;\r\n    // }\r\n\r\n    // function getEvidence(uint32 _evidenceId) public view returns (string memory,string memory,address,uint32){\r\n    //     return (evidences[_evidenceId].evidenceName,\r\n    //             evidences[_evidenceId].evidenceType,\r\n    //             evidences[_evidenceId].evidenceOwner,\r\n    //             evidences[_evidenceId].mfgTimeStamp);\r\n    // }\r\n\r\n\r\n    // function newOwner(uint32 _user1Id,uint32 _user2Id, uint32 _evidId) onlyOwner(_evidId) public returns (bool) {\r\n    //     Participant memory p1 = participants[_user1Id];\r\n    //     Participant memory p2 = participants[_user2Id];\r\n    //     uint32 ownership_id = owner_id++;\r\n\r\n    //     if(keccak256(abi.encodePacked(p1.participantType)) == keccak256(\"Police\")\r\n    //         && keccak256(abi.encodePacked(p2.participantType))==keccak256(\"Lab\")){\r\n    //         ownerships[ownership_id].evidenceId = _evidId;\r\n    //         ownerships[ownership_id].evidenceOwner = p2.participantAddress;\r\n    //         ownerships[ownership_id].ownerId = _user2Id;\r\n    //         ownerships[ownership_id].trxTimeStamp = uint32(block.timestamp);\r\n    //         evidences[_evidId].evidenceOwner = p2.participantAddress;\r\n    //         evidenceTrack[_evidId].push(ownership_id);\r\n    //         emit TransferOwnership(_evidId);\r\n\r\n    //         return (true);\r\n    //     }\r\n    //     else if(keccak256(abi.encodePacked(p1.participantType)) == keccak256(\"Lab\") \r\n    //         && keccak256(abi.encodePacked(p2.participantType))==keccak256(\"Lab\")){\r\n    //         ownerships[ownership_id].evidenceId = _evidId;\r\n    //         ownerships[ownership_id].evidenceOwner = p2.participantAddress;\r\n    //         ownerships[ownership_id].ownerId = _user2Id;\r\n    //         ownerships[ownership_id].trxTimeStamp = uint32(block.timestamp);\r\n    //         evidences[_evidId].evidenceOwner = p2.participantAddress;\r\n    //         evidenceTrack[_evidId].push(ownership_id);\r\n    //         emit TransferOwnership(_evidId);\r\n\r\n    //         return (true);\r\n    //     }\r\n    //     else if(keccak256(abi.encodePacked(p1.participantType)) == keccak256(\"Lab\") \r\n    //         && keccak256(abi.encodePacked(p2.participantType))==keccak256(\"Court\")){\r\n    //         ownerships[ownership_id].evidenceId = _evidId;\r\n    //         ownerships[ownership_id].evidenceOwner = p2.participantAddress;\r\n    //         ownerships[ownership_id].ownerId = _user2Id;\r\n    //         ownerships[ownership_id].trxTimeStamp = uint32(block.timestamp);\r\n    //         evidences[_evidId].evidenceOwner = p2.participantAddress;\r\n    //         evidenceTrack[_evidId].push(ownership_id);\r\n    //         emit TransferOwnership(_evidId);\r\n\r\n    //         return (true);\r\n    //     }\r\n\r\n    //     return (false);\r\n    // }\r\n\r\n    function getProvenance(uint32 _evidenceId) external view returns (uint32[] memory) {\r\n       return evidenceTrack[_evidenceId];\r\n    }\r\n\r\n    function getOwnership(uint32 _regId)  public view returns (uint32,uint32,address,uint32) {\r\n\r\n        ownership memory r = ownerships[_regId];\r\n\r\n         return (r.evidenceId ,r.ownerId ,r.evidenceOwner,r.trxTimeStamp);\r\n    }\r\n\r\n    // function authenticateParticipant(uint32 _uid,\r\n    //                                 string memory _uname,\r\n    //                                 string memory _pass,\r\n    //                                 string memory _utype) public view returns (bool){\r\n    //     if(keccak256(abi.encodePacked(participants[_uid].participantType)) == keccak256(abi.encodePacked(_utype))) {\r\n    //         if(keccak256(abi.encodePacked(participants[_uid].userName)) == keccak256(abi.encodePacked(_uname))) {\r\n    //             if(keccak256(abi.encodePacked(participants[_uid].password)) == keccak256(abi.encodePacked(_pass))) {\r\n    //                 return (true);\r\n    //             }\r\n    //         }\r\n    //     }\r\n\r\n    //     return (false);\r\n    // }\r\n}",
  "sourcePath": "C:\\IPCA DISSERTAO\\evidences_dapp\\contracts\\EvidenceChain.sol",
  "compiler": {
    "name": "solc",
    "version": "0.8.19+commit.7dd6d404.Emscripten.clang"
  },
  "schemaVersion": "3.4.13",
  "updatedAt": "2023-08-13T00:19:18.824Z",
  "networkType": "ethereum",
  "devdoc": {
    "kind": "dev",
    "methods": {},
    "version": 1
  },
  "userdoc": {
    "kind": "user",
    "methods": {},
    "version": 1
  }
}