{
  "contractName": "evidenceChain",
  "abi": [
    {
      "anonymous": false,
      "inputs": [
        {
          "indexed": true,
          "internalType": "uint32",
          "name": "evidenceId",
          "type": "uint32"
        }
      ],
      "name": "EvidenceAdded",
      "type": "event"
    },
    {
      "anonymous": false,
      "inputs": [
        {
          "indexed": true,
          "internalType": "uint32",
          "name": "userId",
          "type": "uint32"
        }
      ],
      "name": "ParticipantAdded",
      "type": "event"
    },
    {
      "anonymous": false,
      "inputs": [
        {
          "indexed": false,
          "internalType": "uint32",
          "name": "evidenceId",
          "type": "uint32"
        }
      ],
      "name": "TransferOwnership",
      "type": "event"
    },
    {
      "inputs": [
        {
          "internalType": "uint32",
          "name": "",
          "type": "uint32"
        },
        {
          "internalType": "uint256",
          "name": "",
          "type": "uint256"
        }
      ],
      "name": "evidenceTrack",
      "outputs": [
        {
          "internalType": "uint32",
          "name": "",
          "type": "uint32"
        }
      ],
      "stateMutability": "view",
      "type": "function",
      "constant": true
    },
    {
      "inputs": [],
      "name": "evidence_id",
      "outputs": [
        {
          "internalType": "uint32",
          "name": "",
          "type": "uint32"
        }
      ],
      "stateMutability": "view",
      "type": "function",
      "constant": true
    },
    {
      "inputs": [
        {
          "internalType": "uint32",
          "name": "",
          "type": "uint32"
        }
      ],
      "name": "evidences",
      "outputs": [
        {
          "internalType": "string",
          "name": "evidenceName",
          "type": "string"
        },
        {
          "internalType": "string",
          "name": "evidenceType",
          "type": "string"
        },
        {
          "internalType": "address",
          "name": "evidenceOwner",
          "type": "address"
        },
        {
          "internalType": "uint32",
          "name": "mfgTimeStamp",
          "type": "uint32"
        }
      ],
      "stateMutability": "view",
      "type": "function",
      "constant": true
    },
    {
      "inputs": [],
      "name": "owner_id",
      "outputs": [
        {
          "internalType": "uint32",
          "name": "",
          "type": "uint32"
        }
      ],
      "stateMutability": "view",
      "type": "function",
      "constant": true
    },
    {
      "inputs": [
        {
          "internalType": "uint32",
          "name": "",
          "type": "uint32"
        }
      ],
      "name": "ownerships",
      "outputs": [
        {
          "internalType": "uint32",
          "name": "evidenceId",
          "type": "uint32"
        },
        {
          "internalType": "uint32",
          "name": "ownerId",
          "type": "uint32"
        },
        {
          "internalType": "uint32",
          "name": "trxTimeStamp",
          "type": "uint32"
        },
        {
          "internalType": "address",
          "name": "evidenceOwner",
          "type": "address"
        }
      ],
      "stateMutability": "view",
      "type": "function",
      "constant": true
    },
    {
      "inputs": [],
      "name": "participant_id",
      "outputs": [
        {
          "internalType": "uint32",
          "name": "",
          "type": "uint32"
        }
      ],
      "stateMutability": "view",
      "type": "function",
      "constant": true
    },
    {
      "inputs": [
        {
          "internalType": "uint32",
          "name": "",
          "type": "uint32"
        }
      ],
      "name": "participants",
      "outputs": [
        {
          "internalType": "string",
          "name": "userName",
          "type": "string"
        },
        {
          "internalType": "string",
          "name": "password",
          "type": "string"
        },
        {
          "internalType": "string",
          "name": "participantType",
          "type": "string"
        },
        {
          "internalType": "address",
          "name": "participantAddress",
          "type": "address"
        }
      ],
      "stateMutability": "view",
      "type": "function",
      "constant": true
    },
    {
      "inputs": [
        {
          "internalType": "string",
          "name": "_name",
          "type": "string"
        },
        {
          "internalType": "string",
          "name": "_pass",
          "type": "string"
        },
        {
          "internalType": "address",
          "name": "_pAdd",
          "type": "address"
        },
        {
          "internalType": "string",
          "name": "_pType",
          "type": "string"
        }
      ],
      "name": "addParticipant",
      "outputs": [],
      "stateMutability": "nonpayable",
      "type": "function"
    },
    {
      "inputs": [
        {
          "internalType": "uint32",
          "name": "_participant_id",
          "type": "uint32"
        }
      ],
      "name": "getParticipant",
      "outputs": [
        {
          "internalType": "string",
          "name": "",
          "type": "string"
        },
        {
          "internalType": "address",
          "name": "",
          "type": "address"
        },
        {
          "internalType": "string",
          "name": "",
          "type": "string"
        }
      ],
      "stateMutability": "view",
      "type": "function",
      "constant": true
    },
    {
      "inputs": [
        {
          "internalType": "uint32",
          "name": "_ownerId",
          "type": "uint32"
        },
        {
          "internalType": "string",
          "name": "_evidenceName",
          "type": "string"
        },
        {
          "internalType": "string",
          "name": "_evidenceType",
          "type": "string"
        }
      ],
      "name": "addEvidence",
      "outputs": [],
      "stateMutability": "nonpayable",
      "type": "function"
    },
    {
      "inputs": [
        {
          "internalType": "uint32",
          "name": "_evidenceId",
          "type": "uint32"
        }
      ],
      "name": "getEvidence",
      "outputs": [
        {
          "internalType": "string",
          "name": "",
          "type": "string"
        },
        {
          "internalType": "string",
          "name": "",
          "type": "string"
        },
        {
          "internalType": "address",
          "name": "",
          "type": "address"
        },
        {
          "internalType": "uint32",
          "name": "",
          "type": "uint32"
        }
      ],
      "stateMutability": "view",
      "type": "function",
      "constant": true
    },
    {
      "inputs": [
        {
          "internalType": "uint32",
          "name": "_user1Id",
          "type": "uint32"
        },
        {
          "internalType": "uint32",
          "name": "_user2Id",
          "type": "uint32"
        },
        {
          "internalType": "uint32",
          "name": "_evidId",
          "type": "uint32"
        }
      ],
      "name": "newOwner",
      "outputs": [
        {
          "internalType": "bool",
          "name": "",
          "type": "bool"
        }
      ],
      "stateMutability": "nonpayable",
      "type": "function"
    },
    {
      "inputs": [
        {
          "internalType": "uint32",
          "name": "_evidenceId",
          "type": "uint32"
        }
      ],
      "name": "getProvenance",
      "outputs": [
        {
          "internalType": "uint32[]",
          "name": "",
          "type": "uint32[]"
        }
      ],
      "stateMutability": "view",
      "type": "function",
      "constant": true
    },
    {
      "inputs": [
        {
          "internalType": "uint32",
          "name": "_regId",
          "type": "uint32"
        }
      ],
      "name": "getOwnership",
      "outputs": [
        {
          "internalType": "uint32",
          "name": "",
          "type": "uint32"
        },
        {
          "internalType": "uint32",
          "name": "",
          "type": "uint32"
        },
        {
          "internalType": "address",
          "name": "",
          "type": "address"
        },
        {
          "internalType": "uint32",
          "name": "",
          "type": "uint32"
        }
      ],
      "stateMutability": "view",
      "type": "function",
      "constant": true
    },
    {
      "inputs": [
        {
          "internalType": "uint32",
          "name": "_uid",
          "type": "uint32"
        },
        {
          "internalType": "string",
          "name": "_uname",
          "type": "string"
        },
        {
          "internalType": "string",
          "name": "_pass",
          "type": "string"
        },
        {
          "internalType": "string",
          "name": "_utype",
          "type": "string"
        }
      ],
      "name": "authenticateParticipant",
      "outputs": [
        {
          "internalType": "bool",
          "name": "",
          "type": "bool"
        }
      ],
      "stateMutability": "view",
      "type": "function",
      "constant": true
    }
  ],
  "bytecode": "0x608060405260008060006101000a81548163ffffffff021916908363ffffffff16021790555060008060046101000a81548163ffffffff021916908363ffffffff16021790555060008060086101000a81548163ffffffff021916908363ffffffff16021790555034801561007357600080fd5b50612f8c806100836000396000f3fe608060405234801561001057600080fd5b50600436106100f55760003560e01c80637d0a9ac911610097578063df6d23f111610066578063df6d23f1146102dd578063ebf43a7e14610310578063f58ba1a61461032c578063fc2da9101461035f576100f5565b80637d0a9ac91461022957806381e156101461025c5780638f5ebf711461028f578063c8569565146102ad576100f5565b80633cc36a29116100d35780633cc36a291461017a5780635760620b146101ad57806369ee7507146101dd578063721b5743146101f9576100f5565b80632e9d5284146100fa5780633b26a65d1461012a5780633c3e841c1461015c575b600080fd5b610114600480360381019061010f9190612207565b61037d565b6040516101219190612275565b60405180910390f35b610144600480360381019061013f9190612290565b61119d565b6040516101539392919061238e565b60405180910390f35b610164611396565b60405161017191906123e2565b60405180910390f35b610194600480360381019061018f9190612290565b6113aa565b6040516101a494939291906123fd565b60405180910390f35b6101c760048036038101906101c29190612486565b611591565b6040516101d491906123e2565b60405180910390f35b6101f760048036038101906101f291906125fb565b6115da565b005b610213600480360381019061020e9190612686565b611843565b6040516102209190612275565b60405180910390f35b610243600480360381019061023e9190612290565b6119b9565b6040516102539493929190612741565b60405180910390f35b61027660048036038101906102719190612290565b611ba1565b604051610286949392919061279b565b60405180910390f35b610297611c21565b6040516102a491906123e2565b60405180910390f35b6102c760048036038101906102c29190612290565b611c37565b6040516102d4919061289e565b60405180910390f35b6102f760048036038101906102f29190612290565b611cda565b60405161030794939291906128c0565b60405180910390f35b61032a60048036038101906103259190612931565b611dfa565b005b61034660048036038101906103419190612290565b611f68565b60405161035694939291906123fd565b60405180910390f35b6103676120d8565b60405161037491906123e2565b60405180910390f35b600081600160008263ffffffff1663ffffffff16815260200190815260200160002060020160009054906101000a900473ffffffffffffffffffffffffffffffffffffffff1673ffffffffffffffffffffffffffffffffffffffff163373ffffffffffffffffffffffffffffffffffffffff1614610430576040517f08c379a000000000000000000000000000000000000000000000000000000000815260040161042790612a12565b60405180910390fd5b6000600260008763ffffffff1663ffffffff16815260200190815260200160002060405180608001604052908160008201805461046c90612a61565b80601f016020809104026020016040519081016040528092919081815260200182805461049890612a61565b80156104e55780601f106104ba576101008083540402835291602001916104e5565b820191906000526020600020905b8154815290600101906020018083116104c857829003601f168201915b505050505081526020016001820180546104fe90612a61565b80601f016020809104026020016040519081016040528092919081815260200182805461052a90612a61565b80156105775780601f1061054c57610100808354040283529160200191610577565b820191906000526020600020905b81548152906001019060200180831161055a57829003601f168201915b5050505050815260200160028201805461059090612a61565b80601f01602080910402602001604051908101604052809291908181526020018280546105bc90612a61565b80156106095780601f106105de57610100808354040283529160200191610609565b820191906000526020600020905b8154815290600101906020018083116105ec57829003601f168201915b505050505081526020016003820160009054906101000a900473ffffffffffffffffffffffffffffffffffffffff1673ffffffffffffffffffffffffffffffffffffffff1673ffffffffffffffffffffffffffffffffffffffff168152505090506000600260008763ffffffff1663ffffffff1681526020019081526020016000206040518060800160405290816000820180546106a690612a61565b80601f01602080910402602001604051908101604052809291908181526020018280546106d290612a61565b801561071f5780601f106106f45761010080835404028352916020019161071f565b820191906000526020600020905b81548152906001019060200180831161070257829003601f168201915b5050505050815260200160018201805461073890612a61565b80601f016020809104026020016040519081016040528092919081815260200182805461076490612a61565b80156107b15780601f10610786576101008083540402835291602001916107b1565b820191906000526020600020905b81548152906001019060200180831161079457829003601f168201915b505050505081526020016002820180546107ca90612a61565b80601f01602080910402602001604051908101604052809291908181526020018280546107f690612a61565b80156108435780601f1061081857610100808354040283529160200191610843565b820191906000526020600020905b81548152906001019060200180831161082657829003601f168201915b505050505081526020016003820160009054906101000a900473ffffffffffffffffffffffffffffffffffffffff1673ffffffffffffffffffffffffffffffffffffffff1673ffffffffffffffffffffffffffffffffffffffff16815250509050600080600881819054906101000a900463ffffffff16809291906108c790612ac1565b91906101000a81548163ffffffff021916908363ffffffff16021790555090507fe419ba2484d9efb5ea120ea8d8b86dc666551db29ed65e4d8c975262e7a9c365836040015160405160200161091d9190612b29565b6040516020818303038152906040528051906020012014801561098957507f97feb579382c507528a724d35d13152502303d69e2d8746a3694fefd9013b47c82604001516040516020016109719190612b29565b60405160208183030381529060405280519060200120145b15610bc95785600360008363ffffffff1663ffffffff16815260200190815260200160002060000160006101000a81548163ffffffff021916908363ffffffff1602179055508160600151600360008363ffffffff1663ffffffff168152602001908152602001600020600001600c6101000a81548173ffffffffffffffffffffffffffffffffffffffff021916908373ffffffffffffffffffffffffffffffffffffffff16021790555086600360008363ffffffff1663ffffffff16815260200190815260200160002060000160046101000a81548163ffffffff021916908363ffffffff16021790555042600360008363ffffffff1663ffffffff16815260200190815260200160002060000160086101000a81548163ffffffff021916908363ffffffff1602179055508160600151600160008863ffffffff1663ffffffff16815260200190815260200160002060020160006101000a81548173ffffffffffffffffffffffffffffffffffffffff021916908373ffffffffffffffffffffffffffffffffffffffff160217905550600460008763ffffffff1663ffffffff1681526020019081526020016000208190806001815401808255809150506001900390600052602060002090600891828204019190066004029091909190916101000a81548163ffffffff021916908363ffffffff1602179055507fa5470ac012c6e9dc500e62b1d3de0de58db49b3ab7cfebbfb126d9abd854199b86604051610bb591906123e2565b60405180910390a160019450505050611195565b7f97feb579382c507528a724d35d13152502303d69e2d8746a3694fefd9013b47c8360400151604051602001610bff9190612b29565b60405160208183030381529060405280519060200120148015610c6b57507f97feb579382c507528a724d35d13152502303d69e2d8746a3694fefd9013b47c8260400151604051602001610c539190612b29565b60405160208183030381529060405280519060200120145b15610eab5785600360008363ffffffff1663ffffffff16815260200190815260200160002060000160006101000a81548163ffffffff021916908363ffffffff1602179055508160600151600360008363ffffffff1663ffffffff168152602001908152602001600020600001600c6101000a81548173ffffffffffffffffffffffffffffffffffffffff021916908373ffffffffffffffffffffffffffffffffffffffff16021790555086600360008363ffffffff1663ffffffff16815260200190815260200160002060000160046101000a81548163ffffffff021916908363ffffffff16021790555042600360008363ffffffff1663ffffffff16815260200190815260200160002060000160086101000a81548163ffffffff021916908363ffffffff1602179055508160600151600160008863ffffffff1663ffffffff16815260200190815260200160002060020160006101000a81548173ffffffffffffffffffffffffffffffffffffffff021916908373ffffffffffffffffffffffffffffffffffffffff160217905550600460008763ffffffff1663ffffffff1681526020019081526020016000208190806001815401808255809150506001900390600052602060002090600891828204019190066004029091909190916101000a81548163ffffffff021916908363ffffffff1602179055507fa5470ac012c6e9dc500e62b1d3de0de58db49b3ab7cfebbfb126d9abd854199b86604051610e9791906123e2565b60405180910390a160019450505050611195565b7f97feb579382c507528a724d35d13152502303d69e2d8746a3694fefd9013b47c8360400151604051602001610ee19190612b29565b60405160208183030381529060405280519060200120148015610f4d57507f010ecf2d9ebf239264ee38bd2aa310b2266900d2c98c300663a8c5e9524937598260400151604051602001610f359190612b29565b60405160208183030381529060405280519060200120145b1561118d5785600360008363ffffffff1663ffffffff16815260200190815260200160002060000160006101000a81548163ffffffff021916908363ffffffff1602179055508160600151600360008363ffffffff1663ffffffff168152602001908152602001600020600001600c6101000a81548173ffffffffffffffffffffffffffffffffffffffff021916908373ffffffffffffffffffffffffffffffffffffffff16021790555086600360008363ffffffff1663ffffffff16815260200190815260200160002060000160046101000a81548163ffffffff021916908363ffffffff16021790555042600360008363ffffffff1663ffffffff16815260200190815260200160002060000160086101000a81548163ffffffff021916908363ffffffff1602179055508160600151600160008863ffffffff1663ffffffff16815260200190815260200160002060020160006101000a81548173ffffffffffffffffffffffffffffffffffffffff021916908373ffffffffffffffffffffffffffffffffffffffff160217905550600460008763ffffffff1663ffffffff1681526020019081526020016000208190806001815401808255809150506001900390600052602060002090600891828204019190066004029091909190916101000a81548163ffffffff021916908363ffffffff1602179055507fa5470ac012c6e9dc500e62b1d3de0de58db49b3ab7cfebbfb126d9abd854199b8660405161117991906123e2565b60405180910390a160019450505050611195565b600094505050505b509392505050565b6060600060606111ab6120ee565b6111ea576040517f08c379a00000000000000000000000000000000000000000000000000000000081526004016111e190612bb2565b60405180910390fd5b600260008563ffffffff1663ffffffff168152602001908152602001600020600001600260008663ffffffff1663ffffffff16815260200190815260200160002060030160009054906101000a900473ffffffffffffffffffffffffffffffffffffffff16600260008763ffffffff1663ffffffff16815260200190815260200160002060020182805461127d90612a61565b80601f01602080910402602001604051908101604052809291908181526020018280546112a990612a61565b80156112f65780601f106112cb576101008083540402835291602001916112f6565b820191906000526020600020905b8154815290600101906020018083116112d957829003601f168201915b5050505050925080805461130990612a61565b80601f016020809104026020016040519081016040528092919081815260200182805461133590612a61565b80156113825780601f1061135757610100808354040283529160200191611382565b820191906000526020600020905b81548152906001019060200180831161136557829003601f168201915b505050505090509250925092509193909250565b60008054906101000a900463ffffffff1681565b606080600080600160008663ffffffff1663ffffffff168152602001908152602001600020600001600160008763ffffffff1663ffffffff168152602001908152602001600020600101600160008863ffffffff1663ffffffff16815260200190815260200160002060020160009054906101000a900473ffffffffffffffffffffffffffffffffffffffff16600160008963ffffffff1663ffffffff16815260200190815260200160002060020160149054906101000a900463ffffffff1683805461147690612a61565b80601f01602080910402602001604051908101604052809291908181526020018280546114a290612a61565b80156114ef5780601f106114c4576101008083540402835291602001916114ef565b820191906000526020600020905b8154815290600101906020018083116114d257829003601f168201915b5050505050935082805461150290612a61565b80601f016020809104026020016040519081016040528092919081815260200182805461152e90612a61565b801561157b5780601f106115505761010080835404028352916020019161157b565b820191906000526020600020905b81548152906001019060200180831161155e57829003601f168201915b5050505050925093509350935093509193509193565b600460205281600052604060002081815481106115ad57600080fd5b9060005260206000209060089182820401919006600402915091509054906101000a900463ffffffff1681565b7fe419ba2484d9efb5ea120ea8d8b86dc666551db29ed65e4d8c975262e7a9c365600260008563ffffffff1663ffffffff16815260200190815260200160002060020160405160200161162d9190612c6a565b6040516020818303038152906040528051906020012014611683576040517f08c379a000000000000000000000000000000000000000000000000000000000815260040161167a90612ccd565b60405180910390fd5b600080600081819054906101000a900463ffffffff16809291906116a690612ac1565b91906101000a81548163ffffffff021916908363ffffffff160217905550905082600160008363ffffffff1663ffffffff16815260200190815260200160002060000190816116f59190612e84565b5081600160008363ffffffff1663ffffffff16815260200190815260200160002060010190816117259190612e84565b50600260008563ffffffff1663ffffffff16815260200190815260200160002060030160009054906101000a900473ffffffffffffffffffffffffffffffffffffffff16600160008363ffffffff1663ffffffff16815260200190815260200160002060020160006101000a81548173ffffffffffffffffffffffffffffffffffffffff021916908373ffffffffffffffffffffffffffffffffffffffff16021790555042600160008363ffffffff1663ffffffff16815260200190815260200160002060020160146101000a81548163ffffffff021916908363ffffffff1602179055508063ffffffff167fe535b34a551b1d8fc8ab11f8c18f139a4ccb39aef2f138683574f74e21a73b9460405160405180910390a250505050565b6000816040516020016118569190612b29565b60405160208183030381529060405280519060200120600260008763ffffffff1663ffffffff16815260200190815260200160002060020160405160200161189e9190612c6a565b60405160208183030381529060405280519060200120036119ac57836040516020016118ca9190612b29565b60405160208183030381529060405280519060200120600260008763ffffffff1663ffffffff1681526020019081526020016000206000016040516020016119129190612c6a565b60405160208183030381529060405280519060200120036119ab578260405160200161193e9190612b29565b60405160208183030381529060405280519060200120600260008763ffffffff1663ffffffff1681526020019081526020016000206001016040516020016119869190612c6a565b60405160208183030381529060405280519060200120036119aa57600190506119b1565b5b5b600090505b949350505050565b60026020528060005260406000206000915090508060000180546119dc90612a61565b80601f0160208091040260200160405190810160405280929190818152602001828054611a0890612a61565b8015611a555780601f10611a2a57610100808354040283529160200191611a55565b820191906000526020600020905b815481529060010190602001808311611a3857829003601f168201915b505050505090806001018054611a6a90612a61565b80601f0160208091040260200160405190810160405280929190818152602001828054611a9690612a61565b8015611ae35780601f10611ab857610100808354040283529160200191611ae3565b820191906000526020600020905b815481529060010190602001808311611ac657829003601f168201915b505050505090806002018054611af890612a61565b80601f0160208091040260200160405190810160405280929190818152602001828054611b2490612a61565b8015611b715780601f10611b4657610100808354040283529160200191611b71565b820191906000526020600020905b815481529060010190602001808311611b5457829003601f168201915b5050505050908060030160009054906101000a900473ffffffffffffffffffffffffffffffffffffffff16905084565b60036020528060005260406000206000915090508060000160009054906101000a900463ffffffff16908060000160049054906101000a900463ffffffff16908060000160089054906101000a900463ffffffff169080600001600c9054906101000a900473ffffffffffffffffffffffffffffffffffffffff16905084565b600060089054906101000a900463ffffffff1681565b6060600460008363ffffffff1663ffffffff168152602001908152602001600020805480602002602001604051908101604052809291908181526020018280548015611cce57602002820191906000526020600020906000905b82829054906101000a900463ffffffff1663ffffffff1681526020019060040190602082600301049283019260010382029150808411611c915790505b50505050509050919050565b6000806000806000600360008763ffffffff1663ffffffff1681526020019081526020016000206040518060800160405290816000820160009054906101000a900463ffffffff1663ffffffff1663ffffffff1681526020016000820160049054906101000a900463ffffffff1663ffffffff1663ffffffff1681526020016000820160089054906101000a900463ffffffff1663ffffffff1663ffffffff16815260200160008201600c9054906101000a900473ffffffffffffffffffffffffffffffffffffffff1673ffffffffffffffffffffffffffffffffffffffff1673ffffffffffffffffffffffffffffffffffffffff1681525050905080600001518160200151826060015183604001519450945094509450509193509193565b600080600481819054906101000a900463ffffffff1680929190611e1d90612ac1565b91906101000a81548163ffffffff021916908363ffffffff160217905550905084600260008363ffffffff1663ffffffff1681526020019081526020016000206000019081611e6c9190612e84565b5083600260008363ffffffff1663ffffffff1681526020019081526020016000206001019081611e9c9190612e84565b5082600260008363ffffffff1663ffffffff16815260200190815260200160002060030160006101000a81548173ffffffffffffffffffffffffffffffffffffffff021916908373ffffffffffffffffffffffffffffffffffffffff16021790555081600260008363ffffffff1663ffffffff1681526020019081526020016000206002019081611f2d9190612e84565b508063ffffffff167f6fcb9d018504c0b1d3044f5b2ddb31fdb32b68f679b251577df346974255d18760405160405180910390a25050505050565b6001602052806000526040600020600091509050806000018054611f8b90612a61565b80601f0160208091040260200160405190810160405280929190818152602001828054611fb790612a61565b80156120045780601f10611fd957610100808354040283529160200191612004565b820191906000526020600020905b815481529060010190602001808311611fe757829003601f168201915b50505050509080600101805461201990612a61565b80601f016020809104026020016040519081016040528092919081815260200182805461204590612a61565b80156120925780601f1061206757610100808354040283529160200191612092565b820191906000526020600020905b81548152906001019060200180831161207557829003601f168201915b5050505050908060020160009054906101000a900473ffffffffffffffffffffffffffffffffffffffff16908060020160149054906101000a900463ffffffff16905084565b600060049054906101000a900463ffffffff1681565b600080600090505b600060049054906101000a900463ffffffff1663ffffffff168163ffffffff1610156121ae573373ffffffffffffffffffffffffffffffffffffffff16600260008363ffffffff1663ffffffff16815260200190815260200160002060030160009054906101000a900473ffffffffffffffffffffffffffffffffffffffff1673ffffffffffffffffffffffffffffffffffffffff160361219b5760019150506121b4565b80806121a690612ac1565b9150506120f6565b50600090505b90565b6000604051905090565b600080fd5b600080fd5b600063ffffffff82169050919050565b6121e4816121cb565b81146121ef57600080fd5b50565b600081359050612201816121db565b92915050565b6000806000606084860312156122205761221f6121c1565b5b600061222e868287016121f2565b935050602061223f868287016121f2565b9250506040612250868287016121f2565b9150509250925092565b60008115159050919050565b61226f8161225a565b82525050565b600060208201905061228a6000830184612266565b92915050565b6000602082840312156122a6576122a56121c1565b5b60006122b4848285016121f2565b91505092915050565b600081519050919050565b600082825260208201905092915050565b60005b838110156122f75780820151818401526020810190506122dc565b60008484015250505050565b6000601f19601f8301169050919050565b600061231f826122bd565b61232981856122c8565b93506123398185602086016122d9565b61234281612303565b840191505092915050565b600073ffffffffffffffffffffffffffffffffffffffff82169050919050565b60006123788261234d565b9050919050565b6123888161236d565b82525050565b600060608201905081810360008301526123a88186612314565b90506123b7602083018561237f565b81810360408301526123c98184612314565b9050949350505050565b6123dc816121cb565b82525050565b60006020820190506123f760008301846123d3565b92915050565b600060808201905081810360008301526124178187612314565b9050818103602083015261242b8186612314565b905061243a604083018561237f565b61244760608301846123d3565b95945050505050565b6000819050919050565b61246381612450565b811461246e57600080fd5b50565b6000813590506124808161245a565b92915050565b6000806040838503121561249d5761249c6121c1565b5b60006124ab858286016121f2565b92505060206124bc85828601612471565b9150509250929050565b600080fd5b600080fd5b7f4e487b7100000000000000000000000000000000000000000000000000000000600052604160045260246000fd5b61250882612303565b810181811067ffffffffffffffff82111715612527576125266124d0565b5b80604052505050565b600061253a6121b7565b905061254682826124ff565b919050565b600067ffffffffffffffff821115612566576125656124d0565b5b61256f82612303565b9050602081019050919050565b82818337600083830152505050565b600061259e6125998461254b565b612530565b9050828152602081018484840111156125ba576125b96124cb565b5b6125c584828561257c565b509392505050565b600082601f8301126125e2576125e16124c6565b5b81356125f284826020860161258b565b91505092915050565b600080600060608486031215612614576126136121c1565b5b6000612622868287016121f2565b935050602084013567ffffffffffffffff811115612643576126426121c6565b5b61264f868287016125cd565b925050604084013567ffffffffffffffff8111156126705761266f6121c6565b5b61267c868287016125cd565b9150509250925092565b600080600080608085870312156126a05761269f6121c1565b5b60006126ae878288016121f2565b945050602085013567ffffffffffffffff8111156126cf576126ce6121c6565b5b6126db878288016125cd565b935050604085013567ffffffffffffffff8111156126fc576126fb6121c6565b5b612708878288016125cd565b925050606085013567ffffffffffffffff811115612729576127286121c6565b5b612735878288016125cd565b91505092959194509250565b6000608082019050818103600083015261275b8187612314565b9050818103602083015261276f8186612314565b905081810360408301526127838185612314565b9050612792606083018461237f565b95945050505050565b60006080820190506127b060008301876123d3565b6127bd60208301866123d3565b6127ca60408301856123d3565b6127d7606083018461237f565b95945050505050565b600081519050919050565b600082825260208201905092915050565b6000819050602082019050919050565b612815816121cb565b82525050565b6000612827838361280c565b60208301905092915050565b6000602082019050919050565b600061284b826127e0565b61285581856127eb565b9350612860836127fc565b8060005b83811015612891578151612878888261281b565b975061288383612833565b925050600181019050612864565b5085935050505092915050565b600060208201905081810360008301526128b88184612840565b905092915050565b60006080820190506128d560008301876123d3565b6128e260208301866123d3565b6128ef604083018561237f565b6128fc60608301846123d3565b95945050505050565b61290e8161236d565b811461291957600080fd5b50565b60008135905061292b81612905565b92915050565b6000806000806080858703121561294b5761294a6121c1565b5b600085013567ffffffffffffffff811115612969576129686121c6565b5b612975878288016125cd565b945050602085013567ffffffffffffffff811115612996576129956121c6565b5b6129a2878288016125cd565b93505060406129b38782880161291c565b925050606085013567ffffffffffffffff8111156129d4576129d36121c6565b5b6129e0878288016125cd565b91505092959194509250565b50565b60006129fc6000836122c8565b9150612a07826129ec565b600082019050919050565b60006020820190508181036000830152612a2b816129ef565b9050919050565b7f4e487b7100000000000000000000000000000000000000000000000000000000600052602260045260246000fd5b60006002820490506001821680612a7957607f821691505b602082108103612a8c57612a8b612a32565b5b50919050565b7f4e487b7100000000000000000000000000000000000000000000000000000000600052601160045260246000fd5b6000612acc826121cb565b915063ffffffff8203612ae257612ae1612a92565b5b600182019050919050565b600081905092915050565b6000612b03826122bd565b612b0d8185612aed565b9350612b1d8185602086016122d9565b80840191505092915050565b6000612b358284612af8565b915081905092915050565b7f546865206164647265737320776173206e6f7420666f756e6420696e2074686560008201527f206c6973742e0000000000000000000000000000000000000000000000000000602082015250565b6000612b9c6026836122c8565b9150612ba782612b40565b604082019050919050565b60006020820190508181036000830152612bcb81612b8f565b9050919050565b60008190508160005260206000209050919050565b60008154612bf481612a61565b612bfe8186612aed565b94506001821660008114612c195760018114612c2e57612c61565b60ff1983168652811515820286019350612c61565b612c3785612bd2565b60005b83811015612c5957815481890152600182019150602081019050612c3a565b838801955050505b50505092915050565b6000612c768284612be7565b915081905092915050565b7f4e6f7420506f6c6963652e000000000000000000000000000000000000000000600082015250565b6000612cb7600b836122c8565b9150612cc282612c81565b602082019050919050565b60006020820190508181036000830152612ce681612caa565b9050919050565b60006020601f8301049050919050565b600082821b905092915050565b600060088302612d3a7fffffffffffffffffffffffffffffffffffffffffffffffffffffffffffffffff82612cfd565b612d448683612cfd565b95508019841693508086168417925050509392505050565b6000819050919050565b6000612d81612d7c612d7784612450565b612d5c565b612450565b9050919050565b6000819050919050565b612d9b83612d66565b612daf612da782612d88565b848454612d0a565b825550505050565b600090565b612dc4612db7565b612dcf818484612d92565b505050565b5b81811015612df357612de8600082612dbc565b600181019050612dd5565b5050565b601f821115612e3857612e0981612bd2565b612e1284612ced565b81016020851015612e21578190505b612e35612e2d85612ced565b830182612dd4565b50505b505050565b600082821c905092915050565b6000612e5b60001984600802612e3d565b1980831691505092915050565b6000612e748383612e4a565b9150826002028217905092915050565b612e8d826122bd565b67ffffffffffffffff811115612ea657612ea56124d0565b5b612eb08254612a61565b612ebb828285612df7565b600060209050601f831160018114612eee5760008415612edc578287015190505b612ee68582612e68565b865550612f4e565b601f198416612efc86612bd2565b60005b82811015612f2457848901518255600182019150602085019450602081019050612eff565b86831015612f415784890151612f3d601f891682612e4a565b8355505b6001600288020188555050505b50505050505056fea2646970667358221220d1ed969d50ddf490f0cbc932e139405e316a94213047d80a83dfc9923b463cc764736f6c63430008130033",
  "immutableReferences": {},
  "source": "pragma solidity >=0.8.0;\r\n\r\ncontract evidenceChain {\r\n    uint32 public evidence_id = 0;\r\n    uint32 public participant_id = 0;\r\n    uint32 public owner_id = 0;\r\n\r\n    struct evidence {\r\n        string evidenceName;\r\n        string evidenceType;\r\n        address evidenceOwner;\r\n        uint32 mfgTimeStamp;\r\n    }\r\n\r\n    mapping(uint32 => evidence) public evidences;\r\n\r\n    struct participant {\r\n        string userName;\r\n        string password;\r\n        string participantType;\r\n        address participantAddress;\r\n    }\r\n    mapping(uint32 => participant) public participants;\r\n\r\n    struct ownership {\r\n        uint32 evidenceId;\r\n        uint32 ownerId;\r\n        uint32 trxTimeStamp;\r\n        address evidenceOwner;\r\n    }\r\n    mapping(uint32 => ownership) public ownerships;\r\n    mapping(uint32 => uint32[]) public evidenceTrack;  \r\n\r\n    event TransferOwnership(uint32 evidenceId);\r\n    event ParticipantAdded(uint32 indexed userId);\r\n    event EvidenceAdded(uint32 indexed evidenceId);\r\n\r\n    function addParticipant(string memory _name, string memory _pass, address _pAdd, string memory _pType) public {\r\n        uint32 userId = participant_id++;\r\n        participants[userId].userName = _name;\r\n        participants[userId].password = _pass;\r\n        participants[userId].participantAddress = _pAdd;\r\n        participants[userId].participantType = _pType;\r\n\r\n        emit ParticipantAdded(userId);\r\n    }\r\n\r\n    function getParticipant(uint32 _participant_id) onlyParticipant() public view returns (string memory,address,string memory) \r\n    {\r\n        return (participants[_participant_id].userName,\r\n                participants[_participant_id].participantAddress,\r\n                participants[_participant_id].participantType);\r\n    }\r\n\r\n    modifier onlyParticipant() {\r\n        require(isParticipant(), \"The address was not found in the list.\");\r\n        _;\r\n    }\r\n\r\n    function isParticipant() internal view returns(bool) {\r\n    for (uint32 i = 0; i < participant_id; i++) {\r\n        if (participants[i].participantAddress == msg.sender) {\r\n            return true;\r\n        }\r\n    }\r\n    return false;\r\n    }\r\n\r\n\r\n    function addEvidence(uint32 _ownerId,\r\n                        string memory _evidenceName,\r\n                        string memory _evidenceType) public \r\n    {\r\n        require(keccak256(abi.encodePacked(participants[_ownerId].participantType)) == keccak256(\"Police\"),\"Not Police.\");\r\n\r\n        uint32 evidenceId = evidence_id++;\r\n\r\n        evidences[evidenceId].evidenceName = _evidenceName;\r\n        evidences[evidenceId].evidenceType = _evidenceType;\r\n        evidences[evidenceId].evidenceOwner = participants[_ownerId].participantAddress;\r\n        evidences[evidenceId].mfgTimeStamp = uint32(block.timestamp);\r\n\r\n        emit EvidenceAdded(evidenceId);\r\n    }\r\n\r\n    modifier onlyOwner(uint32 _evidenceId) {\r\n         require(msg.sender == evidences[_evidenceId].evidenceOwner,\"\");\r\n         _;\r\n\r\n    }\r\n\r\n    function getEvidence(uint32 _evidenceId) public view returns (string memory,string memory,address,uint32){\r\n        return (evidences[_evidenceId].evidenceName,\r\n                evidences[_evidenceId].evidenceType,\r\n                evidences[_evidenceId].evidenceOwner,\r\n                evidences[_evidenceId].mfgTimeStamp);\r\n    }\r\n\r\n\r\n    function newOwner(uint32 _user1Id,uint32 _user2Id, uint32 _evidId) onlyOwner(_evidId) public returns (bool) {\r\n        participant memory p1 = participants[_user1Id];\r\n        participant memory p2 = participants[_user2Id];\r\n        uint32 ownership_id = owner_id++;\r\n\r\n        if(keccak256(abi.encodePacked(p1.participantType)) == keccak256(\"Police\")\r\n            && keccak256(abi.encodePacked(p2.participantType))==keccak256(\"Lab\")){\r\n            ownerships[ownership_id].evidenceId = _evidId;\r\n            ownerships[ownership_id].evidenceOwner = p2.participantAddress;\r\n            ownerships[ownership_id].ownerId = _user2Id;\r\n            ownerships[ownership_id].trxTimeStamp = uint32(block.timestamp);\r\n            evidences[_evidId].evidenceOwner = p2.participantAddress;\r\n            evidenceTrack[_evidId].push(ownership_id);\r\n            emit TransferOwnership(_evidId);\r\n\r\n            return (true);\r\n        }\r\n        else if(keccak256(abi.encodePacked(p1.participantType)) == keccak256(\"Lab\") \r\n            && keccak256(abi.encodePacked(p2.participantType))==keccak256(\"Lab\")){\r\n            ownerships[ownership_id].evidenceId = _evidId;\r\n            ownerships[ownership_id].evidenceOwner = p2.participantAddress;\r\n            ownerships[ownership_id].ownerId = _user2Id;\r\n            ownerships[ownership_id].trxTimeStamp = uint32(block.timestamp);\r\n            evidences[_evidId].evidenceOwner = p2.participantAddress;\r\n            evidenceTrack[_evidId].push(ownership_id);\r\n            emit TransferOwnership(_evidId);\r\n\r\n            return (true);\r\n        }\r\n        else if(keccak256(abi.encodePacked(p1.participantType)) == keccak256(\"Lab\") \r\n            && keccak256(abi.encodePacked(p2.participantType))==keccak256(\"Court\")){\r\n            ownerships[ownership_id].evidenceId = _evidId;\r\n            ownerships[ownership_id].evidenceOwner = p2.participantAddress;\r\n            ownerships[ownership_id].ownerId = _user2Id;\r\n            ownerships[ownership_id].trxTimeStamp = uint32(block.timestamp);\r\n            evidences[_evidId].evidenceOwner = p2.participantAddress;\r\n            evidenceTrack[_evidId].push(ownership_id);\r\n            emit TransferOwnership(_evidId);\r\n\r\n            return (true);\r\n        }\r\n\r\n        return (false);\r\n    }\r\n\r\n    function getProvenance(uint32 _evidenceId) external view returns (uint32[] memory) {\r\n       return evidenceTrack[_evidenceId];\r\n    }\r\n\r\n    function getOwnership(uint32 _regId)  public view returns (uint32,uint32,address,uint32) {\r\n\r\n        ownership memory r = ownerships[_regId];\r\n\r\n         return (r.evidenceId ,r.ownerId ,r.evidenceOwner,r.trxTimeStamp);\r\n    }\r\n\r\n    function authenticateParticipant(uint32 _uid,\r\n                                    string memory _uname,\r\n                                    string memory _pass,\r\n                                    string memory _utype) public view returns (bool){\r\n        if(keccak256(abi.encodePacked(participants[_uid].participantType)) == keccak256(abi.encodePacked(_utype))) {\r\n            if(keccak256(abi.encodePacked(participants[_uid].userName)) == keccak256(abi.encodePacked(_uname))) {\r\n                if(keccak256(abi.encodePacked(participants[_uid].password)) == keccak256(abi.encodePacked(_pass))) {\r\n                    return (true);\r\n                }\r\n            }\r\n        }\r\n\r\n        return (false);\r\n    }\r\n}",
  "sourcePath": "C:\\IPCA DISSERTAO\\evidances_dapp\\contracts\\EvidenceChain.sol",
  "compiler": {
    "name": "solc",
    "version": "0.8.19+commit.7dd6d404.Emscripten.clang"
  },
  "schemaVersion": "3.4.13",
  "updatedAt": "2023-08-06T14:31:01.241Z",
  "networkType": "ethereum",
  "devdoc": {
    "kind": "dev",
    "methods": {},
    "version": 1
  },
  "userdoc": {
    "kind": "user",
    "methods": {},
    "version": 1
  }
}