{
  "contractName": "EvidencesManagerAllowedUsers",
  "abi": [
    {
      "inputs": [
        {
          "internalType": "string",
          "name": "",
          "type": "string"
        },
        {
          "internalType": "uint256",
          "name": "",
          "type": "uint256"
        }
      ],
      "name": "evidencesAllowedUsers",
      "outputs": [
        {
          "internalType": "string",
          "name": "userName",
          "type": "string"
        },
        {
          "internalType": "string",
          "name": "password",
          "type": "string"
        },
        {
          "internalType": "string",
          "name": "name",
          "type": "string"
        },
        {
          "internalType": "string",
          "name": "departmentCode",
          "type": "string"
        },
        {
          "internalType": "enum EntitiesManager.EntityType",
          "name": "entityType",
          "type": "uint8"
        },
        {
          "internalType": "address",
          "name": "entityAddress",
          "type": "address"
        },
        {
          "internalType": "uint32",
          "name": "timestamp",
          "type": "uint32"
        }
      ],
      "stateMutability": "view",
      "type": "function",
      "constant": true
    },
    {
      "inputs": [
        {
          "internalType": "string",
          "name": "_evidenceUniqueCode",
          "type": "string"
        },
        {
          "components": [
            {
              "internalType": "string",
              "name": "userName",
              "type": "string"
            },
            {
              "internalType": "string",
              "name": "password",
              "type": "string"
            },
            {
              "internalType": "string",
              "name": "name",
              "type": "string"
            },
            {
              "internalType": "string",
              "name": "departmentCode",
              "type": "string"
            },
            {
              "internalType": "enum EntitiesManager.EntityType",
              "name": "entityType",
              "type": "uint8"
            },
            {
              "internalType": "address",
              "name": "entityAddress",
              "type": "address"
            },
            {
              "internalType": "uint32",
              "name": "timestamp",
              "type": "uint32"
            }
          ],
          "internalType": "struct EntitiesManager.Entity",
          "name": "_entity",
          "type": "tuple"
        }
      ],
      "name": "addAllowedUser",
      "outputs": [],
      "stateMutability": "nonpayable",
      "type": "function"
    },
    {
      "inputs": [
        {
          "components": [
            {
              "internalType": "string",
              "name": "uniqueCode",
              "type": "string"
            },
            {
              "internalType": "string",
              "name": "caseNo",
              "type": "string"
            },
            {
              "internalType": "enum EvidencesManager.EvidenceClassification",
              "name": "classification",
              "type": "uint8"
            },
            {
              "internalType": "string",
              "name": "name",
              "type": "string"
            },
            {
              "internalType": "enum EvidencesManager.EvidenceType",
              "name": "eType",
              "type": "uint8"
            },
            {
              "components": [
                {
                  "internalType": "string",
                  "name": "userName",
                  "type": "string"
                },
                {
                  "internalType": "string",
                  "name": "password",
                  "type": "string"
                },
                {
                  "internalType": "string",
                  "name": "name",
                  "type": "string"
                },
                {
                  "internalType": "string",
                  "name": "departmentCode",
                  "type": "string"
                },
                {
                  "internalType": "enum EntitiesManager.EntityType",
                  "name": "entityType",
                  "type": "uint8"
                },
                {
                  "internalType": "address",
                  "name": "entityAddress",
                  "type": "address"
                },
                {
                  "internalType": "uint32",
                  "name": "timestamp",
                  "type": "uint32"
                }
              ],
              "internalType": "struct EntitiesManager.Entity",
              "name": "owner",
              "type": "tuple"
            },
            {
              "internalType": "uint256",
              "name": "timestamp",
              "type": "uint256"
            },
            {
              "internalType": "string[]",
              "name": "uFilesCodes",
              "type": "string[]"
            },
            {
              "internalType": "bool",
              "name": "isActive",
              "type": "bool"
            },
            {
              "internalType": "string",
              "name": "observations",
              "type": "string"
            }
          ],
          "internalType": "struct EvidencesManager.Evidence",
          "name": "evidence",
          "type": "tuple"
        },
        {
          "components": [
            {
              "internalType": "string",
              "name": "userName",
              "type": "string"
            },
            {
              "internalType": "string",
              "name": "password",
              "type": "string"
            },
            {
              "internalType": "string",
              "name": "name",
              "type": "string"
            },
            {
              "internalType": "string",
              "name": "departmentCode",
              "type": "string"
            },
            {
              "internalType": "enum EntitiesManager.EntityType",
              "name": "entityType",
              "type": "uint8"
            },
            {
              "internalType": "address",
              "name": "entityAddress",
              "type": "address"
            },
            {
              "internalType": "uint32",
              "name": "timestamp",
              "type": "uint32"
            }
          ],
          "internalType": "struct EntitiesManager.Entity",
          "name": "entity",
          "type": "tuple"
        }
      ],
      "name": "checkIfAllowed",
      "outputs": [
        {
          "internalType": "bool",
          "name": "",
          "type": "bool"
        }
      ],
      "stateMutability": "view",
      "type": "function",
      "constant": true
    }
  ],
  "bytecode": "0x608060405234801561001057600080fd5b50611c72806100206000396000f3fe608060405234801561001057600080fd5b506004361061005e576000357c010000000000000000000000000000000000000000000000000000000090048063255d9618146100635780634f301cb214610099578063c4ee1866146100c9575b600080fd5b61007d60048036038101906100789190611073565b6100e5565b6040516100909796959493929190611225565b60405180910390f35b6100b360048036038101906100ae9190611761565b6103b7565b6040516100c091906117e8565b60405180910390f35b6100e360048036038101906100de9190611803565b6109b8565b005b600082805160208101820180518482526020830160208501208183528095505050505050818154811061011757600080fd5b90600052602060002090600502016000915091505080600001805461013b906118aa565b80601f0160208091040260200160405190810160405280929190818152602001828054610167906118aa565b80156101b45780601f10610189576101008083540402835291602001916101b4565b820191906000526020600020905b81548152906001019060200180831161019757829003601f168201915b5050505050908060010180546101c9906118aa565b80601f01602080910402602001604051908101604052809291908181526020018280546101f5906118aa565b80156102425780601f1061021757610100808354040283529160200191610242565b820191906000526020600020905b81548152906001019060200180831161022557829003601f168201915b505050505090806002018054610257906118aa565b80601f0160208091040260200160405190810160405280929190818152602001828054610283906118aa565b80156102d05780601f106102a5576101008083540402835291602001916102d0565b820191906000526020600020905b8154815290600101906020018083116102b357829003601f168201915b5050505050908060030180546102e5906118aa565b80601f0160208091040260200160405190810160405280929190818152602001828054610311906118aa565b801561035e5780601f106103335761010080835404028352916020019161035e565b820191906000526020600020905b81548152906001019060200180831161034157829003601f168201915b5050505050908060040160009054906101000a900460ff16908060040160019054906101000a900473ffffffffffffffffffffffffffffffffffffffff16908060040160159054906101000a900463ffffffff16905087565b6000600260038111156103cd576103cc61114e565b5b826080015160038111156103e4576103e361114e565b5b036103f257600190506109b2565b600060028111156104065761040561114e565b5b8360400151600281111561041d5761041c61114e565b5b0361042b57600190506109b2565b6001600381111561043f5761043e61114e565b5b826080015160038111156104565761045561114e565b5b14801561048b57506002808111156104715761047061114e565b5b836040015160028111156104885761048761114e565b5b14155b1561049957600190506109b2565b6003808111156104ac576104ab61114e565b5b826080015160038111156104c3576104c261114e565b5b1480156104f857506002808111156104de576104dd61114e565b5b836040015160028111156104f5576104f461114e565b5b14155b801561052d5750600160028111156105135761051261114e565b5b8360400151600281111561052a5761052961114e565b5b14155b1561053b57600190506109b2565b60028081111561054e5761054d61114e565b5b836040015160028111156105655761056461114e565b5b14806105995750600160028111156105805761057f61114e565b5b836040015160028111156105975761059661114e565b5b145b156109ad5760008084600001516040516105b39190611917565b9081526020016040518091039020805480602002602001604051908101604052809291908181526020016000905b8282101561091257838290600052602060002090600502016040518060e0016040529081600082018054610614906118aa565b80601f0160208091040260200160405190810160405280929190818152602001828054610640906118aa565b801561068d5780601f106106625761010080835404028352916020019161068d565b820191906000526020600020905b81548152906001019060200180831161067057829003601f168201915b505050505081526020016001820180546106a6906118aa565b80601f01602080910402602001604051908101604052809291908181526020018280546106d2906118aa565b801561071f5780601f106106f45761010080835404028352916020019161071f565b820191906000526020600020905b81548152906001019060200180831161070257829003601f168201915b50505050508152602001600282018054610738906118aa565b80601f0160208091040260200160405190810160405280929190818152602001828054610764906118aa565b80156107b15780601f10610786576101008083540402835291602001916107b1565b820191906000526020600020905b81548152906001019060200180831161079457829003601f168201915b505050505081526020016003820180546107ca906118aa565b80601f01602080910402602001604051908101604052809291908181526020018280546107f6906118aa565b80156108435780601f1061081857610100808354040283529160200191610843565b820191906000526020600020905b81548152906001019060200180831161082657829003601f168201915b505050505081526020016004820160009054906101000a900460ff1660038111156108715761087061114e565b5b60038111156108835761088261114e565b5b81526020016004820160019054906101000a900473ffffffffffffffffffffffffffffffffffffffff1673ffffffffffffffffffffffffffffffffffffffff1673ffffffffffffffffffffffffffffffffffffffff1681526020016004820160159054906101000a900463ffffffff1663ffffffff1663ffffffff1681525050815260200190600101906105e1565b50505050905060005b81518163ffffffff1610156109aa576000828263ffffffff16815181106109455761094461192e565b5b602002602001015190508060a0015173ffffffffffffffffffffffffffffffffffffffff168560a0015173ffffffffffffffffffffffffffffffffffffffff160361099657600193505050506109b2565b5080806109a29061198c565b91505061091b565b50505b600090505b92915050565b6000805b6000846040516109cc9190611917565b9081526020016040518091039020805490508163ffffffff161015610d9057600080856040516109fc9190611917565b90815260200160405180910390208263ffffffff1681548110610a2257610a2161192e565b5b90600052602060002090600502016040518060e0016040529081600082018054610a4b906118aa565b80601f0160208091040260200160405190810160405280929190818152602001828054610a77906118aa565b8015610ac45780601f10610a9957610100808354040283529160200191610ac4565b820191906000526020600020905b815481529060010190602001808311610aa757829003601f168201915b50505050508152602001600182018054610add906118aa565b80601f0160208091040260200160405190810160405280929190818152602001828054610b09906118aa565b8015610b565780601f10610b2b57610100808354040283529160200191610b56565b820191906000526020600020905b815481529060010190602001808311610b3957829003601f168201915b50505050508152602001600282018054610b6f906118aa565b80601f0160208091040260200160405190810160405280929190818152602001828054610b9b906118aa565b8015610be85780601f10610bbd57610100808354040283529160200191610be8565b820191906000526020600020905b815481529060010190602001808311610bcb57829003601f168201915b50505050508152602001600382018054610c01906118aa565b80601f0160208091040260200160405190810160405280929190818152602001828054610c2d906118aa565b8015610c7a5780601f10610c4f57610100808354040283529160200191610c7a565b820191906000526020600020905b815481529060010190602001808311610c5d57829003601f168201915b505050505081526020016004820160009054906101000a900460ff166003811115610ca857610ca761114e565b5b6003811115610cba57610cb961114e565b5b81526020016004820160019054906101000a900473ffffffffffffffffffffffffffffffffffffffff1673ffffffffffffffffffffffffffffffffffffffff1673ffffffffffffffffffffffffffffffffffffffff1681526020016004820160159054906101000a900463ffffffff1663ffffffff1663ffffffff168152505090508360a0015173ffffffffffffffffffffffffffffffffffffffff168160a0015173ffffffffffffffffffffffffffffffffffffffff1603610d7c57600192505b508080610d889061198c565b9150506109bc565b506000151581151503610ede57600083604051610dad9190611917565b90815260200160405180910390208290806001815401808255809150506001900390600052602060002090600502016000909190919091506000820151816000019081610dfa9190611b6a565b506020820151816001019081610e109190611b6a565b506040820151816002019081610e269190611b6a565b506060820151816003019081610e3c9190611b6a565b5060808201518160040160006101000a81548160ff02191690836003811115610e6857610e6761114e565b5b021790555060a08201518160040160016101000a81548173ffffffffffffffffffffffffffffffffffffffff021916908373ffffffffffffffffffffffffffffffffffffffff16021790555060c08201518160040160156101000a81548163ffffffff021916908363ffffffff16021790555050505b505050565b6000604051905090565b600080fd5b600080fd5b600080fd5b600080fd5b6000601f19601f8301169050919050565b7f4e487b7100000000000000000000000000000000000000000000000000000000600052604160045260246000fd5b610f4a82610f01565b810181811067ffffffffffffffff82111715610f6957610f68610f12565b5b80604052505050565b6000610f7c610ee3565b9050610f888282610f41565b919050565b600067ffffffffffffffff821115610fa857610fa7610f12565b5b610fb182610f01565b9050602081019050919050565b82818337600083830152505050565b6000610fe0610fdb84610f8d565b610f72565b905082815260208101848484011115610ffc57610ffb610efc565b5b611007848285610fbe565b509392505050565b600082601f83011261102457611023610ef7565b5b8135611034848260208601610fcd565b91505092915050565b6000819050919050565b6110508161103d565b811461105b57600080fd5b50565b60008135905061106d81611047565b92915050565b6000806040838503121561108a57611089610eed565b5b600083013567ffffffffffffffff8111156110a8576110a7610ef2565b5b6110b48582860161100f565b92505060206110c58582860161105e565b9150509250929050565b600081519050919050565b600082825260208201905092915050565b60005b838110156111095780820151818401526020810190506110ee565b60008484015250505050565b6000611120826110cf565b61112a81856110da565b935061113a8185602086016110eb565b61114381610f01565b840191505092915050565b7f4e487b7100000000000000000000000000000000000000000000000000000000600052602160045260246000fd5b6004811061118e5761118d61114e565b5b50565b600081905061119f8261117d565b919050565b60006111af82611191565b9050919050565b6111bf816111a4565b82525050565b600073ffffffffffffffffffffffffffffffffffffffff82169050919050565b60006111f0826111c5565b9050919050565b611200816111e5565b82525050565b600063ffffffff82169050919050565b61121f81611206565b82525050565b600060e082019050818103600083015261123f818a611115565b905081810360208301526112538189611115565b905081810360408301526112678188611115565b9050818103606083015261127b8187611115565b905061128a60808301866111b6565b61129760a08301856111f7565b6112a460c0830184611216565b98975050505050505050565b600080fd5b600080fd5b600381106112c757600080fd5b50565b6000813590506112d9816112ba565b92915050565b600381106112ec57600080fd5b50565b6000813590506112fe816112df565b92915050565b6004811061131157600080fd5b50565b60008135905061132381611304565b92915050565b611332816111e5565b811461133d57600080fd5b50565b60008135905061134f81611329565b92915050565b61135e81611206565b811461136957600080fd5b50565b60008135905061137b81611355565b92915050565b600060e08284031215611397576113966112b0565b5b6113a160e0610f72565b9050600082013567ffffffffffffffff8111156113c1576113c06112b5565b5b6113cd8482850161100f565b600083015250602082013567ffffffffffffffff8111156113f1576113f06112b5565b5b6113fd8482850161100f565b602083015250604082013567ffffffffffffffff811115611421576114206112b5565b5b61142d8482850161100f565b604083015250606082013567ffffffffffffffff811115611451576114506112b5565b5b61145d8482850161100f565b606083015250608061147184828501611314565b60808301525060a061148584828501611340565b60a08301525060c06114998482850161136c565b60c08301525092915050565b600067ffffffffffffffff8211156114c0576114bf610f12565b5b602082029050602081019050919050565b600080fd5b60006114e96114e4846114a5565b610f72565b9050808382526020820190506020840283018581111561150c5761150b6114d1565b5b835b8181101561155357803567ffffffffffffffff81111561153157611530610ef7565b5b80860161153e898261100f565b8552602085019450505060208101905061150e565b5050509392505050565b600082601f83011261157257611571610ef7565b5b81356115828482602086016114d6565b91505092915050565b60008115159050919050565b6115a08161158b565b81146115ab57600080fd5b50565b6000813590506115bd81611597565b92915050565b600061014082840312156115da576115d96112b0565b5b6115e5610140610f72565b9050600082013567ffffffffffffffff811115611605576116046112b5565b5b6116118482850161100f565b600083015250602082013567ffffffffffffffff811115611635576116346112b5565b5b6116418482850161100f565b6020830152506040611655848285016112ca565b604083015250606082013567ffffffffffffffff811115611679576116786112b5565b5b6116858482850161100f565b6060830152506080611699848285016112ef565b60808301525060a082013567ffffffffffffffff8111156116bd576116bc6112b5565b5b6116c984828501611381565b60a08301525060c06116dd8482850161105e565b60c08301525060e082013567ffffffffffffffff811115611701576117006112b5565b5b61170d8482850161155d565b60e083015250610100611722848285016115ae565b6101008301525061012082013567ffffffffffffffff811115611748576117476112b5565b5b6117548482850161100f565b6101208301525092915050565b6000806040838503121561177857611777610eed565b5b600083013567ffffffffffffffff81111561179657611795610ef2565b5b6117a2858286016115c3565b925050602083013567ffffffffffffffff8111156117c3576117c2610ef2565b5b6117cf85828601611381565b9150509250929050565b6117e28161158b565b82525050565b60006020820190506117fd60008301846117d9565b92915050565b6000806040838503121561181a57611819610eed565b5b600083013567ffffffffffffffff81111561183857611837610ef2565b5b6118448582860161100f565b925050602083013567ffffffffffffffff81111561186557611864610ef2565b5b61187185828601611381565b9150509250929050565b7f4e487b7100000000000000000000000000000000000000000000000000000000600052602260045260246000fd5b600060028204905060018216806118c257607f821691505b6020821081036118d5576118d461187b565b5b50919050565b600081905092915050565b60006118f1826110cf565b6118fb81856118db565b935061190b8185602086016110eb565b80840191505092915050565b600061192382846118e6565b915081905092915050565b7f4e487b7100000000000000000000000000000000000000000000000000000000600052603260045260246000fd5b7f4e487b7100000000000000000000000000000000000000000000000000000000600052601160045260246000fd5b600061199782611206565b915063ffffffff82036119ad576119ac61195d565b5b600182019050919050565b60008190508160005260206000209050919050565b60006020601f8301049050919050565b60008160020a8302905092915050565b600060088302611a1d7fffffffffffffffffffffffffffffffffffffffffffffffffffffffffffffffff826119dd565b611a2786836119dd565b95508019841693508086168417925050509392505050565b6000819050919050565b6000611a64611a5f611a5a8461103d565b611a3f565b61103d565b9050919050565b6000819050919050565b611a7e83611a49565b611a92611a8a82611a6b565b8484546119ed565b825550505050565b600090565b611aa7611a9a565b611ab2818484611a75565b505050565b5b81811015611ad657611acb600082611a9f565b600181019050611ab8565b5050565b601f821115611b1b57611aec816119b8565b611af5846119cd565b81016020851015611b04578190505b611b18611b10856119cd565b830182611ab7565b50505b505050565b60008160020a8304905092915050565b6000611b4160001984600802611b20565b1980831691505092915050565b6000611b5a8383611b30565b9150826002028217905092915050565b611b73826110cf565b67ffffffffffffffff811115611b8c57611b8b610f12565b5b611b9682546118aa565b611ba1828285611ada565b600060209050601f831160018114611bd45760008415611bc2578287015190505b611bcc8582611b4e565b865550611c34565b601f198416611be2866119b8565b60005b82811015611c0a57848901518255600182019150602085019450602081019050611be5565b86831015611c275784890151611c23601f891682611b30565b8355505b6001600288020188555050505b50505050505056fea26469706673582212209c90019baf612a4ecd70ccabf0db79af9c667e3471861b86c2f795839ceeb1ef64736f6c63430008130033",
  "immutableReferences": {},
  "source": "pragma solidity ^0.8.0;\r\nimport \"./EntitiesManager.sol\";\r\nimport \"./EvidencesManager.sol\";\r\n\r\ncontract EvidencesManagerAllowedUsers {\r\n    mapping(string => EntitiesManager.Entity[]) public evidencesAllowedUsers;\r\n\r\n    function addAllowedUser(string memory _evidenceUniqueCode, EntitiesManager.Entity memory _entity) public {\r\n        bool alreadyAllowed = false;\r\n        for (uint32 i = 0; i < evidencesAllowedUsers[_evidenceUniqueCode].length; i++) {\r\n            EntitiesManager.Entity memory entity = evidencesAllowedUsers[_evidenceUniqueCode][i];\r\n            if (entity.entityAddress == _entity.entityAddress){\r\n                alreadyAllowed = true;\r\n            }\r\n        }\r\n        if(alreadyAllowed == false){\r\n            evidencesAllowedUsers[_evidenceUniqueCode].push(_entity);\r\n        }\r\n    }\r\n\r\n    function checkIfAllowed (EvidencesManager.Evidence memory evidence, EntitiesManager.Entity memory entity) public view returns (bool)\r\n    {\r\n        if (entity.entityType == EntitiesManager.EntityType.Court){\r\n            return true;\r\n        }\r\n        \r\n        if (evidence.classification == EvidencesManager.EvidenceClassification.Public){\r\n            return true;\r\n        }\r\n\r\n        if (entity.entityType == EntitiesManager.EntityType.Forensics && evidence.classification != EvidencesManager.EvidenceClassification.AllowedPersonalOnly){\r\n            return true;\r\n        }\r\n\r\n        if (entity.entityType == EntitiesManager.EntityType.Lawyer && evidence.classification != EvidencesManager.EvidenceClassification.AllowedPersonalOnly && evidence.classification != EvidencesManager.EvidenceClassification.Secret){\r\n            return true;\r\n        }\r\n\r\n        if (evidence.classification == EvidencesManager.EvidenceClassification.AllowedPersonalOnly || evidence.classification == EvidencesManager.EvidenceClassification.Secret){\r\n            EntitiesManager.Entity[] memory allowedEntities= evidencesAllowedUsers[evidence.uniqueCode];\r\n            for (uint32 i = 0; i < allowedEntities.length; i++){\r\n                EntitiesManager.Entity memory allowed = allowedEntities[i];\r\n                if (entity.entityAddress == allowed.entityAddress){\r\n                    return true;\r\n                }\r\n            }\r\n        }\r\n        \r\n        return false;\r\n    }\r\n}\r\n",
  "sourcePath": "C:\\IPCA DISSERTAO\\evidences_dapp\\contracts\\EvidencesManagerAllowedUsers.sol",
  "compiler": {
    "name": "solc",
    "version": "0.8.19+commit.7dd6d404.Emscripten.clang"
  },
  "schemaVersion": "3.4.13",
  "updatedAt": "2023-10-05T12:44:27.209Z",
  "networkType": "ethereum",
  "devdoc": {
    "kind": "dev",
    "methods": {},
    "version": 1
  },
  "userdoc": {
    "kind": "user",
    "methods": {},
    "version": 1
  }
}