{
  "contractName": "EvidencesManager",
  "abi": [
    {
      "inputs": [
        {
          "internalType": "address",
          "name": "_evidencesManagerAllowedUserAddress",
          "type": "address"
        }
      ],
      "stateMutability": "nonpayable",
      "type": "constructor"
    },
    {
      "inputs": [
        {
          "internalType": "uint256",
          "name": "",
          "type": "uint256"
        }
      ],
      "name": "allEvidences",
      "outputs": [
        {
          "internalType": "string",
          "name": "",
          "type": "string"
        }
      ],
      "stateMutability": "view",
      "type": "function",
      "constant": true
    },
    {
      "inputs": [
        {
          "internalType": "string",
          "name": "",
          "type": "string"
        },
        {
          "internalType": "uint256",
          "name": "",
          "type": "uint256"
        }
      ],
      "name": "evidencesFiles",
      "outputs": [
        {
          "internalType": "string",
          "name": "id",
          "type": "string"
        },
        {
          "internalType": "string",
          "name": "fileName",
          "type": "string"
        },
        {
          "internalType": "string",
          "name": "fileHash",
          "type": "string"
        }
      ],
      "stateMutability": "view",
      "type": "function",
      "constant": true
    },
    {
      "inputs": [
        {
          "internalType": "string",
          "name": "",
          "type": "string"
        },
        {
          "internalType": "uint256",
          "name": "",
          "type": "uint256"
        }
      ],
      "name": "evidencesHistory",
      "outputs": [
        {
          "internalType": "string",
          "name": "uniqueCode",
          "type": "string"
        },
        {
          "internalType": "string",
          "name": "caseNo",
          "type": "string"
        },
        {
          "internalType": "enum EvidencesManager.EvidenceClassification",
          "name": "classification",
          "type": "uint8"
        },
        {
          "internalType": "string",
          "name": "name",
          "type": "string"
        },
        {
          "internalType": "enum EvidencesManager.EvidenceType",
          "name": "eType",
          "type": "uint8"
        },
        {
          "components": [
            {
              "internalType": "string",
              "name": "userName",
              "type": "string"
            },
            {
              "internalType": "string",
              "name": "password",
              "type": "string"
            },
            {
              "internalType": "string",
              "name": "name",
              "type": "string"
            },
            {
              "internalType": "string",
              "name": "departmentCode",
              "type": "string"
            },
            {
              "internalType": "enum EntitiesManager.EntityType",
              "name": "entityType",
              "type": "uint8"
            },
            {
              "internalType": "address",
              "name": "entityAddress",
              "type": "address"
            },
            {
              "internalType": "uint32",
              "name": "timestamp",
              "type": "uint32"
            }
          ],
          "internalType": "struct EntitiesManager.Entity",
          "name": "owner",
          "type": "tuple"
        },
        {
          "internalType": "uint256",
          "name": "timestamp",
          "type": "uint256"
        },
        {
          "internalType": "bool",
          "name": "isActive",
          "type": "bool"
        },
        {
          "internalType": "string",
          "name": "observations",
          "type": "string"
        }
      ],
      "stateMutability": "view",
      "type": "function",
      "constant": true
    },
    {
      "inputs": [],
      "name": "evidencesManagerAllowedUsers",
      "outputs": [
        {
          "internalType": "contract EvidencesManagerAllowedUsers",
          "name": "",
          "type": "address"
        }
      ],
      "stateMutability": "view",
      "type": "function",
      "constant": true
    },
    {
      "inputs": [
        {
          "internalType": "enum EvidencesManager.ObservationsTipified",
          "name": "_obs",
          "type": "uint8"
        }
      ],
      "name": "obsToString",
      "outputs": [
        {
          "internalType": "string",
          "name": "",
          "type": "string"
        }
      ],
      "stateMutability": "pure",
      "type": "function",
      "constant": true
    },
    {
      "inputs": [
        {
          "internalType": "string",
          "name": "_evidenceUniqueCode",
          "type": "string"
        },
        {
          "internalType": "string",
          "name": "_caseNo",
          "type": "string"
        },
        {
          "internalType": "enum EvidencesManager.EvidenceClassification",
          "name": "_classification",
          "type": "uint8"
        },
        {
          "internalType": "string",
          "name": "_evidenceName",
          "type": "string"
        },
        {
          "internalType": "enum EvidencesManager.EvidenceType",
          "name": "_evidenceType",
          "type": "uint8"
        },
        {
          "components": [
            {
              "internalType": "string",
              "name": "userName",
              "type": "string"
            },
            {
              "internalType": "string",
              "name": "password",
              "type": "string"
            },
            {
              "internalType": "string",
              "name": "name",
              "type": "string"
            },
            {
              "internalType": "string",
              "name": "departmentCode",
              "type": "string"
            },
            {
              "internalType": "enum EntitiesManager.EntityType",
              "name": "entityType",
              "type": "uint8"
            },
            {
              "internalType": "address",
              "name": "entityAddress",
              "type": "address"
            },
            {
              "internalType": "uint32",
              "name": "timestamp",
              "type": "uint32"
            }
          ],
          "internalType": "struct EntitiesManager.Entity",
          "name": "_entity",
          "type": "tuple"
        }
      ],
      "name": "addEvidence",
      "outputs": [],
      "stateMutability": "nonpayable",
      "type": "function"
    },
    {
      "inputs": [
        {
          "internalType": "string",
          "name": "_evidenceUniqueCode",
          "type": "string"
        },
        {
          "components": [
            {
              "internalType": "string",
              "name": "id",
              "type": "string"
            },
            {
              "internalType": "string",
              "name": "fileName",
              "type": "string"
            },
            {
              "internalType": "string",
              "name": "fileHash",
              "type": "string"
            }
          ],
          "internalType": "struct EvidencesManager.EvidenceFile",
          "name": "_file",
          "type": "tuple"
        }
      ],
      "name": "addFile",
      "outputs": [],
      "stateMutability": "nonpayable",
      "type": "function"
    },
    {
      "inputs": [
        {
          "internalType": "string",
          "name": "_evidenceUniqueCode",
          "type": "string"
        },
        {
          "components": [
            {
              "internalType": "string",
              "name": "userName",
              "type": "string"
            },
            {
              "internalType": "string",
              "name": "password",
              "type": "string"
            },
            {
              "internalType": "string",
              "name": "name",
              "type": "string"
            },
            {
              "internalType": "string",
              "name": "departmentCode",
              "type": "string"
            },
            {
              "internalType": "enum EntitiesManager.EntityType",
              "name": "entityType",
              "type": "uint8"
            },
            {
              "internalType": "address",
              "name": "entityAddress",
              "type": "address"
            },
            {
              "internalType": "uint32",
              "name": "timestamp",
              "type": "uint32"
            }
          ],
          "internalType": "struct EntitiesManager.Entity[]",
          "name": "_entities",
          "type": "tuple[]"
        }
      ],
      "name": "addAllowedUsers",
      "outputs": [],
      "stateMutability": "nonpayable",
      "type": "function"
    },
    {
      "inputs": [
        {
          "internalType": "string",
          "name": "_evidenceUniqueCode",
          "type": "string"
        },
        {
          "components": [
            {
              "internalType": "string",
              "name": "userName",
              "type": "string"
            },
            {
              "internalType": "string",
              "name": "password",
              "type": "string"
            },
            {
              "internalType": "string",
              "name": "name",
              "type": "string"
            },
            {
              "internalType": "string",
              "name": "departmentCode",
              "type": "string"
            },
            {
              "internalType": "enum EntitiesManager.EntityType",
              "name": "entityType",
              "type": "uint8"
            },
            {
              "internalType": "address",
              "name": "entityAddress",
              "type": "address"
            },
            {
              "internalType": "uint32",
              "name": "timestamp",
              "type": "uint32"
            }
          ],
          "internalType": "struct EntitiesManager.Entity",
          "name": "_entity",
          "type": "tuple"
        }
      ],
      "name": "updateOwner",
      "outputs": [],
      "stateMutability": "nonpayable",
      "type": "function"
    },
    {
      "inputs": [
        {
          "components": [
            {
              "internalType": "string",
              "name": "userName",
              "type": "string"
            },
            {
              "internalType": "string",
              "name": "password",
              "type": "string"
            },
            {
              "internalType": "string",
              "name": "name",
              "type": "string"
            },
            {
              "internalType": "string",
              "name": "departmentCode",
              "type": "string"
            },
            {
              "internalType": "enum EntitiesManager.EntityType",
              "name": "entityType",
              "type": "uint8"
            },
            {
              "internalType": "address",
              "name": "entityAddress",
              "type": "address"
            },
            {
              "internalType": "uint32",
              "name": "timestamp",
              "type": "uint32"
            }
          ],
          "internalType": "struct EntitiesManager.Entity",
          "name": "entity",
          "type": "tuple"
        }
      ],
      "name": "getEvidences",
      "outputs": [
        {
          "components": [
            {
              "internalType": "string",
              "name": "uniqueCode",
              "type": "string"
            },
            {
              "internalType": "string",
              "name": "caseNo",
              "type": "string"
            },
            {
              "internalType": "enum EvidencesManager.EvidenceClassification",
              "name": "classification",
              "type": "uint8"
            },
            {
              "internalType": "string",
              "name": "name",
              "type": "string"
            },
            {
              "internalType": "enum EvidencesManager.EvidenceType",
              "name": "eType",
              "type": "uint8"
            },
            {
              "components": [
                {
                  "internalType": "string",
                  "name": "userName",
                  "type": "string"
                },
                {
                  "internalType": "string",
                  "name": "password",
                  "type": "string"
                },
                {
                  "internalType": "string",
                  "name": "name",
                  "type": "string"
                },
                {
                  "internalType": "string",
                  "name": "departmentCode",
                  "type": "string"
                },
                {
                  "internalType": "enum EntitiesManager.EntityType",
                  "name": "entityType",
                  "type": "uint8"
                },
                {
                  "internalType": "address",
                  "name": "entityAddress",
                  "type": "address"
                },
                {
                  "internalType": "uint32",
                  "name": "timestamp",
                  "type": "uint32"
                }
              ],
              "internalType": "struct EntitiesManager.Entity",
              "name": "owner",
              "type": "tuple"
            },
            {
              "internalType": "uint256",
              "name": "timestamp",
              "type": "uint256"
            },
            {
              "internalType": "string[]",
              "name": "uFilesCodes",
              "type": "string[]"
            },
            {
              "internalType": "bool",
              "name": "isActive",
              "type": "bool"
            },
            {
              "internalType": "string",
              "name": "observations",
              "type": "string"
            }
          ],
          "internalType": "struct EvidencesManager.Evidence[]",
          "name": "",
          "type": "tuple[]"
        }
      ],
      "stateMutability": "view",
      "type": "function",
      "constant": true
    },
    {
      "inputs": [
        {
          "internalType": "string",
          "name": "_evidenceUniqueCode",
          "type": "string"
        }
      ],
      "name": "getEvidenceHistory",
      "outputs": [
        {
          "components": [
            {
              "internalType": "string",
              "name": "uniqueCode",
              "type": "string"
            },
            {
              "internalType": "string",
              "name": "caseNo",
              "type": "string"
            },
            {
              "internalType": "enum EvidencesManager.EvidenceClassification",
              "name": "classification",
              "type": "uint8"
            },
            {
              "internalType": "string",
              "name": "name",
              "type": "string"
            },
            {
              "internalType": "enum EvidencesManager.EvidenceType",
              "name": "eType",
              "type": "uint8"
            },
            {
              "components": [
                {
                  "internalType": "string",
                  "name": "userName",
                  "type": "string"
                },
                {
                  "internalType": "string",
                  "name": "password",
                  "type": "string"
                },
                {
                  "internalType": "string",
                  "name": "name",
                  "type": "string"
                },
                {
                  "internalType": "string",
                  "name": "departmentCode",
                  "type": "string"
                },
                {
                  "internalType": "enum EntitiesManager.EntityType",
                  "name": "entityType",
                  "type": "uint8"
                },
                {
                  "internalType": "address",
                  "name": "entityAddress",
                  "type": "address"
                },
                {
                  "internalType": "uint32",
                  "name": "timestamp",
                  "type": "uint32"
                }
              ],
              "internalType": "struct EntitiesManager.Entity",
              "name": "owner",
              "type": "tuple"
            },
            {
              "internalType": "uint256",
              "name": "timestamp",
              "type": "uint256"
            },
            {
              "internalType": "string[]",
              "name": "uFilesCodes",
              "type": "string[]"
            },
            {
              "internalType": "bool",
              "name": "isActive",
              "type": "bool"
            },
            {
              "internalType": "string",
              "name": "observations",
              "type": "string"
            }
          ],
          "internalType": "struct EvidencesManager.Evidence[]",
          "name": "",
          "type": "tuple[]"
        }
      ],
      "stateMutability": "view",
      "type": "function",
      "constant": true
    },
    {
      "inputs": [
        {
          "internalType": "string",
          "name": "_evidenceUniqueCode",
          "type": "string"
        },
        {
          "internalType": "string",
          "name": "_fileId",
          "type": "string"
        }
      ],
      "name": "getFileInfo",
      "outputs": [
        {
          "components": [
            {
              "internalType": "string",
              "name": "id",
              "type": "string"
            },
            {
              "internalType": "string",
              "name": "fileName",
              "type": "string"
            },
            {
              "internalType": "string",
              "name": "fileHash",
              "type": "string"
            }
          ],
          "internalType": "struct EvidencesManager.EvidenceFile",
          "name": "",
          "type": "tuple"
        }
      ],
      "stateMutability": "view",
      "type": "function",
      "constant": true
    },
    {
      "inputs": [
        {
          "internalType": "string",
          "name": "_evidenceUniqueCode",
          "type": "string"
        }
      ],
      "name": "getLastUpdate",
      "outputs": [
        {
          "components": [
            {
              "internalType": "string",
              "name": "uniqueCode",
              "type": "string"
            },
            {
              "internalType": "string",
              "name": "caseNo",
              "type": "string"
            },
            {
              "internalType": "enum EvidencesManager.EvidenceClassification",
              "name": "classification",
              "type": "uint8"
            },
            {
              "internalType": "string",
              "name": "name",
              "type": "string"
            },
            {
              "internalType": "enum EvidencesManager.EvidenceType",
              "name": "eType",
              "type": "uint8"
            },
            {
              "components": [
                {
                  "internalType": "string",
                  "name": "userName",
                  "type": "string"
                },
                {
                  "internalType": "string",
                  "name": "password",
                  "type": "string"
                },
                {
                  "internalType": "string",
                  "name": "name",
                  "type": "string"
                },
                {
                  "internalType": "string",
                  "name": "departmentCode",
                  "type": "string"
                },
                {
                  "internalType": "enum EntitiesManager.EntityType",
                  "name": "entityType",
                  "type": "uint8"
                },
                {
                  "internalType": "address",
                  "name": "entityAddress",
                  "type": "address"
                },
                {
                  "internalType": "uint32",
                  "name": "timestamp",
                  "type": "uint32"
                }
              ],
              "internalType": "struct EntitiesManager.Entity",
              "name": "owner",
              "type": "tuple"
            },
            {
              "internalType": "uint256",
              "name": "timestamp",
              "type": "uint256"
            },
            {
              "internalType": "string[]",
              "name": "uFilesCodes",
              "type": "string[]"
            },
            {
              "internalType": "bool",
              "name": "isActive",
              "type": "bool"
            },
            {
              "internalType": "string",
              "name": "observations",
              "type": "string"
            }
          ],
          "internalType": "struct EvidencesManager.Evidence",
          "name": "",
          "type": "tuple"
        }
      ],
      "stateMutability": "view",
      "type": "function",
      "constant": true
    }
  ],
  "bytecode": "0x60806040523480156200001157600080fd5b5060405162005e4e38038062005e4e8339818101604052810190620000379190620000e8565b806000806101000a81548173ffffffffffffffffffffffffffffffffffffffff021916908373ffffffffffffffffffffffffffffffffffffffff160217905550506200011a565b600080fd5b600073ffffffffffffffffffffffffffffffffffffffff82169050919050565b6000620000b08262000083565b9050919050565b620000c281620000a3565b8114620000ce57600080fd5b50565b600081519050620000e281620000b7565b92915050565b6000602082840312156200010157620001006200007e565b5b60006200011184828501620000d1565b91505092915050565b615d24806200012a6000396000f3fe608060405234801561001057600080fd5b50600436106100ec576000357c010000000000000000000000000000000000000000000000000000000090048063947ea5ac116100a9578063c892522e11610083578063c892522e14610271578063ddd16bb2146102a1578063e634926e146102bd578063fe441f43146102d9576100ec565b8063947ea5ac146101f35780639be9b6f514610223578063a076b31f1461023f576100ec565b80630ac606ca146100f15780631deea486146101215780632c5ec5c81461013f5780633adcc7f91461016f5780633eeb568b1461018b578063697b22da146101bb575b600080fd5b61010b600480360381019061010691906144cb565b610309565b6040516101189190614a1e565b60405180910390f35b61012961058d565b6040516101369190614a9f565b60405180910390f35b61015960048036038101906101549190614aba565b6105b1565b6040516101669190614b90565b60405180910390f35b61018960048036038101906101849190614bfc565b6108a7565b005b6101a560048036038101906101a09190614cf9565b61181d565b6040516101b29190614e3f565b60405180910390f35b6101d560048036038101906101d09190614e8d565b611fbb565b6040516101ea99989796959493929190615020565b60405180910390f35b61020d600480360381019061020891906150d0565b61258c565b60405161021a91906150fd565b60405180910390f35b61023d60048036038101906102389190615205565b612638565b005b61025960048036038101906102549190614e8d565b612af3565b6040516102689392919061527d565b60405180910390f35b61028b60048036038101906102869190614cf9565b612ce8565b6040516102989190614a1e565b60405180910390f35b6102bb60048036038101906102b691906152c9565b613435565b005b6102d760048036038101906102d291906153f9565b61388b565b005b6102f360048036038101906102ee9190615496565b613ce8565b60405161030091906150fd565b60405180910390f35b6060600060038054905011610353576040517f08c379a000000000000000000000000000000000000000000000000000000000815260040161034a9061550f565b60405180910390fd5b600060038054905067ffffffffffffffff811115610374576103736141ae565b5b6040519080825280602002602001820160405280156103ad57816020015b61039a613f9f565b8152602001906001900390816103925790505b5090506000805b6003805490508163ffffffff16101561057f57600061047e60038363ffffffff16815481106103e6576103e561552f565b5b9060005260206000200180546103fb9061558d565b80601f01602080910402602001604051908101604052809291908181526020018280546104279061558d565b80156104745780601f1061044957610100808354040283529160200191610474565b820191906000526020600020905b81548152906001019060200180831161045757829003601f168201915b505050505061181d565b905060008054906101000a900473ffffffffffffffffffffffffffffffffffffffff1673ffffffffffffffffffffffffffffffffffffffff16634f301cb282886040518363ffffffff167c01000000000000000000000000000000000000000000000000000000000281526004016104f79291906155be565b602060405180830381865afa158015610514573d6000803e3d6000fd5b505050506040513d601f19601f820116820180604052508101906105389190615621565b1561056b57808484815181106105515761055061552f565b5b602002602001018190525082806105679061567d565b9350505b508080610577906156c5565b9150506103b4565b508082528192505050919050565b60008054906101000a900473ffffffffffffffffffffffffffffffffffffffff1681565b6105b961401e565b6105c161401e565b60005b6002856040516105d4919061572d565b90815260200160405180910390208054905081101561089b57836040516020016105fe919061572d565b60405160208183030381529060405280519060200120600286604051610624919061572d565b908152602001604051809103902082815481106106445761064361552f565b5b906000526020600020906003020160000160405160200161066591906157dc565b604051602081830303815290604052805190602001200361088857600285604051610690919061572d565b908152602001604051809103902081815481106106b0576106af61552f565b5b90600052602060002090600302016040518060600160405290816000820180546106d99061558d565b80601f01602080910402602001604051908101604052809291908181526020018280546107059061558d565b80156107525780601f1061072757610100808354040283529160200191610752565b820191906000526020600020905b81548152906001019060200180831161073557829003601f168201915b5050505050815260200160018201805461076b9061558d565b80601f01602080910402602001604051908101604052809291908181526020018280546107979061558d565b80156107e45780601f106107b9576101008083540402835291602001916107e4565b820191906000526020600020905b8154815290600101906020018083116107c757829003601f168201915b505050505081526020016002820180546107fd9061558d565b80601f01602080910402602001604051908101604052809291908181526020018280546108299061558d565b80156108765780601f1061084b57610100808354040283529160200191610876565b820191906000526020600020905b81548152906001019060200180831161085957829003601f168201915b505050505081525050925050506108a1565b80806108939061567d565b9150506105c4565b50809150505b92915050565b60006001876040516108b9919061572d565b90815260200160405180910390208054905003610c19576001866040516108e0919061572d565b9081526020016040518091039020604051806101400160405280888152602001878152602001866002811115610919576109186145bf565b5b8152602001858152602001846002811115610937576109366145bf565b5b8152602001838152602001428152602001600067ffffffffffffffff811115610963576109626141ae565b5b60405190808252806020026020018201604052801561099657816020015b60608152602001906001900390816109815790505b5081526020016001151581526020016109af6000613ce8565b81525090806001815401808255809150506001900390600052602060002090600e020160009091909190915060008201518160000190816109f09190615986565b506020820151816001019081610a069190615986565b5060408201518160020160006101000a81548160ff02191690836002811115610a3257610a316145bf565b5b02179055506060820151816003019081610a4c9190615986565b5060808201518160040160006101000a81548160ff02191690836002811115610a7857610a776145bf565b5b021790555060a0820151816005016000820151816000019081610a9b9190615986565b506020820151816001019081610ab19190615986565b506040820151816002019081610ac79190615986565b506060820151816003019081610add9190615986565b5060808201518160040160006101000a81548160ff02191690836003811115610b0957610b086145bf565b5b021790555060a08201518160040160016101000a81548173ffffffffffffffffffffffffffffffffffffffff021916908373ffffffffffffffffffffffffffffffffffffffff16021790555060c08201518160040160156101000a81548163ffffffff021916908363ffffffff160217905550505060c082015181600a015560e082015181600b019080519060200190610ba492919061403f565b5061010082015181600c0160006101000a81548160ff02191690831515021790555061012082015181600d019081610bdc9190615986565b505050600386908060018154018082558091505060019003906000526020600020016000909190919091509081610c139190615986565b50611740565b6000600187604051610c2b919061572d565b90815260200160405180910390208054905090506000600188604051610c51919061572d565b9081526020016040518091039020600183610c6c9190615a58565b81548110610c7d57610c7c61552f565b5b90600052602060002090600e020160405180610140016040529081600082018054610ca79061558d565b80601f0160208091040260200160405190810160405280929190818152602001828054610cd39061558d565b8015610d205780601f10610cf557610100808354040283529160200191610d20565b820191906000526020600020905b815481529060010190602001808311610d0357829003601f168201915b50505050508152602001600182018054610d399061558d565b80601f0160208091040260200160405190810160405280929190818152602001828054610d659061558d565b8015610db25780601f10610d8757610100808354040283529160200191610db2565b820191906000526020600020905b815481529060010190602001808311610d9557829003601f168201915b505050505081526020016002820160009054906101000a900460ff166002811115610de057610ddf6145bf565b5b6002811115610df257610df16145bf565b5b8152602001600382018054610e069061558d565b80601f0160208091040260200160405190810160405280929190818152602001828054610e329061558d565b8015610e7f5780601f10610e5457610100808354040283529160200191610e7f565b820191906000526020600020905b815481529060010190602001808311610e6257829003601f168201915b505050505081526020016004820160009054906101000a900460ff166002811115610ead57610eac6145bf565b5b6002811115610ebf57610ebe6145bf565b5b8152602001600582016040518060e0016040529081600082018054610ee39061558d565b80601f0160208091040260200160405190810160405280929190818152602001828054610f0f9061558d565b8015610f5c5780601f10610f3157610100808354040283529160200191610f5c565b820191906000526020600020905b815481529060010190602001808311610f3f57829003601f168201915b50505050508152602001600182018054610f759061558d565b80601f0160208091040260200160405190810160405280929190818152602001828054610fa19061558d565b8015610fee5780601f10610fc357610100808354040283529160200191610fee565b820191906000526020600020905b815481529060010190602001808311610fd157829003601f168201915b505050505081526020016002820180546110079061558d565b80601f01602080910402602001604051908101604052809291908181526020018280546110339061558d565b80156110805780601f1061105557610100808354040283529160200191611080565b820191906000526020600020905b81548152906001019060200180831161106357829003601f168201915b505050505081526020016003820180546110999061558d565b80601f01602080910402602001604051908101604052809291908181526020018280546110c59061558d565b80156111125780601f106110e757610100808354040283529160200191611112565b820191906000526020600020905b8154815290600101906020018083116110f557829003601f168201915b505050505081526020016004820160009054906101000a900460ff1660038111156111405761113f6145bf565b5b6003811115611152576111516145bf565b5b81526020016004820160019054906101000a900473ffffffffffffffffffffffffffffffffffffffff1673ffffffffffffffffffffffffffffffffffffffff1673ffffffffffffffffffffffffffffffffffffffff1681526020016004820160159054906101000a900463ffffffff1663ffffffff1663ffffffff16815250508152602001600a8201548152602001600b8201805480602002602001604051908101604052809291908181526020016000905b828210156112b15783829060005260206000200180546112249061558d565b80601f01602080910402602001604051908101604052809291908181526020018280546112509061558d565b801561129d5780601f106112725761010080835404028352916020019161129d565b820191906000526020600020905b81548152906001019060200180831161128057829003601f168201915b505050505081526020019060010190611205565b505050508152602001600c820160009054906101000a900460ff16151515158152602001600d820180546112e49061558d565b80601f01602080910402602001604051908101604052809291908181526020018280546113109061558d565b801561135d5780601f106113325761010080835404028352916020019161135d565b820191906000526020600020905b81548152906001019060200180831161134057829003601f168201915b50505050508152505090508260a0015173ffffffffffffffffffffffffffffffffffffffff168160a0015160a0015173ffffffffffffffffffffffffffffffffffffffff16146113e2576040517f08c379a00000000000000000000000000000000000000000000000000000000081526004016113d990615ad8565b60405180910390fd5b6001151581610100015115151461142e576040517f08c379a000000000000000000000000000000000000000000000000000000000815260040161142590615b44565b60405180910390fd5b60018860405161143e919061572d565b90815260200160405180910390206040518061014001604052808a8152602001898152602001886002811115611477576114766145bf565b5b8152602001878152602001866002811115611495576114946145bf565b5b8152602001858152602001428152602001600067ffffffffffffffff8111156114c1576114c06141ae565b5b6040519080825280602002602001820160405280156114f457816020015b60608152602001906001900390816114df5790505b50815260200160011515815260200161150d6001613ce8565b81525090806001815401808255809150506001900390600052602060002090600e0201600090919091909150600082015181600001908161154e9190615986565b5060208201518160010190816115649190615986565b5060408201518160020160006101000a81548160ff021916908360028111156115905761158f6145bf565b5b021790555060608201518160030190816115aa9190615986565b5060808201518160040160006101000a81548160ff021916908360028111156115d6576115d56145bf565b5b021790555060a08201518160050160008201518160000190816115f99190615986565b50602082015181600101908161160f9190615986565b5060408201518160020190816116259190615986565b50606082015181600301908161163b9190615986565b5060808201518160040160006101000a81548160ff02191690836003811115611667576116666145bf565b5b021790555060a08201518160040160016101000a81548173ffffffffffffffffffffffffffffffffffffffff021916908373ffffffffffffffffffffffffffffffffffffffff16021790555060c08201518160040160156101000a81548163ffffffff021916908363ffffffff160217905550505060c082015181600a015560e082015181600b01908051906020019061170292919061403f565b5061010082015181600c0160006101000a81548160ff02191690831515021790555061012082015181600d01908161173a9190615986565b50505050505b600280811115611753576117526145bf565b5b846002811115611766576117656145bf565b5b036118155760008054906101000a900473ffffffffffffffffffffffffffffffffffffffff1673ffffffffffffffffffffffffffffffffffffffff1663c4ee186687836040518363ffffffff167c01000000000000000000000000000000000000000000000000000000000281526004016117e2929190615b64565b600060405180830381600087803b1580156117fc57600080fd5b505af1158015611810573d6000803e3d6000fd5b505050505b505050505050565b611825613f9f565b6000600183604051611837919061572d565b90815260200160405180910390208054905090506000811161188e576040517f08c379a000000000000000000000000000000000000000000000000000000000815260040161188590615be7565b60405180910390fd5b60018360405161189e919061572d565b90815260200160405180910390206001826118b99190615a58565b815481106118ca576118c961552f565b5b90600052602060002090600e0201604051806101400160405290816000820180546118f49061558d565b80601f01602080910402602001604051908101604052809291908181526020018280546119209061558d565b801561196d5780601f106119425761010080835404028352916020019161196d565b820191906000526020600020905b81548152906001019060200180831161195057829003601f168201915b505050505081526020016001820180546119869061558d565b80601f01602080910402602001604051908101604052809291908181526020018280546119b29061558d565b80156119ff5780601f106119d4576101008083540402835291602001916119ff565b820191906000526020600020905b8154815290600101906020018083116119e257829003601f168201915b505050505081526020016002820160009054906101000a900460ff166002811115611a2d57611a2c6145bf565b5b6002811115611a3f57611a3e6145bf565b5b8152602001600382018054611a539061558d565b80601f0160208091040260200160405190810160405280929190818152602001828054611a7f9061558d565b8015611acc5780601f10611aa157610100808354040283529160200191611acc565b820191906000526020600020905b815481529060010190602001808311611aaf57829003601f168201915b505050505081526020016004820160009054906101000a900460ff166002811115611afa57611af96145bf565b5b6002811115611b0c57611b0b6145bf565b5b8152602001600582016040518060e0016040529081600082018054611b309061558d565b80601f0160208091040260200160405190810160405280929190818152602001828054611b5c9061558d565b8015611ba95780601f10611b7e57610100808354040283529160200191611ba9565b820191906000526020600020905b815481529060010190602001808311611b8c57829003601f168201915b50505050508152602001600182018054611bc29061558d565b80601f0160208091040260200160405190810160405280929190818152602001828054611bee9061558d565b8015611c3b5780601f10611c1057610100808354040283529160200191611c3b565b820191906000526020600020905b815481529060010190602001808311611c1e57829003601f168201915b50505050508152602001600282018054611c549061558d565b80601f0160208091040260200160405190810160405280929190818152602001828054611c809061558d565b8015611ccd5780601f10611ca257610100808354040283529160200191611ccd565b820191906000526020600020905b815481529060010190602001808311611cb057829003601f168201915b50505050508152602001600382018054611ce69061558d565b80601f0160208091040260200160405190810160405280929190818152602001828054611d129061558d565b8015611d5f5780601f10611d3457610100808354040283529160200191611d5f565b820191906000526020600020905b815481529060010190602001808311611d4257829003601f168201915b505050505081526020016004820160009054906101000a900460ff166003811115611d8d57611d8c6145bf565b5b6003811115611d9f57611d9e6145bf565b5b81526020016004820160019054906101000a900473ffffffffffffffffffffffffffffffffffffffff1673ffffffffffffffffffffffffffffffffffffffff1673ffffffffffffffffffffffffffffffffffffffff1681526020016004820160159054906101000a900463ffffffff1663ffffffff1663ffffffff16815250508152602001600a8201548152602001600b8201805480602002602001604051908101604052809291908181526020016000905b82821015611efe578382906000526020600020018054611e719061558d565b80601f0160208091040260200160405190810160405280929190818152602001828054611e9d9061558d565b8015611eea5780601f10611ebf57610100808354040283529160200191611eea565b820191906000526020600020905b815481529060010190602001808311611ecd57829003601f168201915b505050505081526020019060010190611e52565b505050508152602001600c820160009054906101000a900460ff16151515158152602001600d82018054611f319061558d565b80601f0160208091040260200160405190810160405280929190818152602001828054611f5d9061558d565b8015611faa5780601f10611f7f57610100808354040283529160200191611faa565b820191906000526020600020905b815481529060010190602001808311611f8d57829003601f168201915b505050505081525050915050919050565b6001828051602081018201805184825260208301602085012081835280955050505050508181548110611fed57600080fd5b90600052602060002090600e0201600091509150508060000180546120119061558d565b80601f016020809104026020016040519081016040528092919081815260200182805461203d9061558d565b801561208a5780601f1061205f5761010080835404028352916020019161208a565b820191906000526020600020905b81548152906001019060200180831161206d57829003601f168201915b50505050509080600101805461209f9061558d565b80601f01602080910402602001604051908101604052809291908181526020018280546120cb9061558d565b80156121185780601f106120ed57610100808354040283529160200191612118565b820191906000526020600020905b8154815290600101906020018083116120fb57829003601f168201915b5050505050908060020160009054906101000a900460ff16908060030180546121409061558d565b80601f016020809104026020016040519081016040528092919081815260200182805461216c9061558d565b80156121b95780601f1061218e576101008083540402835291602001916121b9565b820191906000526020600020905b81548152906001019060200180831161219c57829003601f168201915b5050505050908060040160009054906101000a900460ff1690806005016040518060e00160405290816000820180546121f19061558d565b80601f016020809104026020016040519081016040528092919081815260200182805461221d9061558d565b801561226a5780601f1061223f5761010080835404028352916020019161226a565b820191906000526020600020905b81548152906001019060200180831161224d57829003601f168201915b505050505081526020016001820180546122839061558d565b80601f01602080910402602001604051908101604052809291908181526020018280546122af9061558d565b80156122fc5780601f106122d1576101008083540402835291602001916122fc565b820191906000526020600020905b8154815290600101906020018083116122df57829003601f168201915b505050505081526020016002820180546123159061558d565b80601f01602080910402602001604051908101604052809291908181526020018280546123419061558d565b801561238e5780601f106123635761010080835404028352916020019161238e565b820191906000526020600020905b81548152906001019060200180831161237157829003601f168201915b505050505081526020016003820180546123a79061558d565b80601f01602080910402602001604051908101604052809291908181526020018280546123d39061558d565b80156124205780601f106123f557610100808354040283529160200191612420565b820191906000526020600020905b81548152906001019060200180831161240357829003601f168201915b505050505081526020016004820160009054906101000a900460ff16600381111561244e5761244d6145bf565b5b60038111156124605761245f6145bf565b5b81526020016004820160019054906101000a900473ffffffffffffffffffffffffffffffffffffffff1673ffffffffffffffffffffffffffffffffffffffff1673ffffffffffffffffffffffffffffffffffffffff1681526020016004820160159054906101000a900463ffffffff1663ffffffff1663ffffffff16815250509080600a01549080600c0160009054906101000a900460ff169080600d0180546125099061558d565b80601f01602080910402602001604051908101604052809291908181526020018280546125359061558d565b80156125825780601f1061255757610100808354040283529160200191612582565b820191906000526020600020905b81548152906001019060200180831161256557829003601f168201915b5050505050905089565b6003818154811061259c57600080fd5b9060005260206000200160009150905080546125b79061558d565b80601f01602080910402602001604051908101604052809291908181526020018280546125e39061558d565b80156126305780601f1061260557610100808354040283529160200191612630565b820191906000526020600020905b81548152906001019060200180831161261357829003601f168201915b505050505081565b60006126438361181d565b905060011515816101000151151514612691576040517f08c379a000000000000000000000000000000000000000000000000000000000815260040161268890615b44565b60405180910390fd5b60005b82518163ffffffff161015612aed5760008054906101000a900473ffffffffffffffffffffffffffffffffffffffff1673ffffffffffffffffffffffffffffffffffffffff1663c4ee186685858463ffffffff16815181106126f9576126f861552f565b5b60200260200101516040518363ffffffff167c010000000000000000000000000000000000000000000000000000000002815260040161273a929190615b64565b600060405180830381600087803b15801561275457600080fd5b505af1158015612768573d6000803e3d6000fd5b5050505060006127786005613ce8565b848363ffffffff16815181106127915761279061552f565b5b6020026020010151600001516040516020016127ae929190615c53565b60405160208183030381529060405290506001856040516127cf919061572d565b908152602001604051809103902060405180610140016040528087815260200185602001518152602001856040015160028111156128105761280f6145bf565b5b81526020018560600151815260200185608001516002811115612836576128356145bf565b5b81526020018560a001518152602001428152602001600067ffffffffffffffff811115612866576128656141ae565b5b60405190808252806020026020018201604052801561289957816020015b60608152602001906001900390816128845790505b5081526020016001151581526020018381525090806001815401808255809150506001900390600052602060002090600e020160009091909190915060008201518160000190816128ea9190615986565b5060208201518160010190816129009190615986565b5060408201518160020160006101000a81548160ff0219169083600281111561292c5761292b6145bf565b5b021790555060608201518160030190816129469190615986565b5060808201518160040160006101000a81548160ff02191690836002811115612972576129716145bf565b5b021790555060a08201518160050160008201518160000190816129959190615986565b5060208201518160010190816129ab9190615986565b5060408201518160020190816129c19190615986565b5060608201518160030190816129d79190615986565b5060808201518160040160006101000a81548160ff02191690836003811115612a0357612a026145bf565b5b021790555060a08201518160040160016101000a81548173ffffffffffffffffffffffffffffffffffffffff021916908373ffffffffffffffffffffffffffffffffffffffff16021790555060c08201518160040160156101000a81548163ffffffff021916908363ffffffff160217905550505060c082015181600a015560e082015181600b019080519060200190612a9e92919061403f565b5061010082015181600c0160006101000a81548160ff02191690831515021790555061012082015181600d019081612ad69190615986565b505050508080612ae5906156c5565b915050612694565b50505050565b6002828051602081018201805184825260208301602085012081835280955050505050508181548110612b2557600080fd5b906000526020600020906003020160009150915050806000018054612b499061558d565b80601f0160208091040260200160405190810160405280929190818152602001828054612b759061558d565b8015612bc25780601f10612b9757610100808354040283529160200191612bc2565b820191906000526020600020905b815481529060010190602001808311612ba557829003601f168201915b505050505090806001018054612bd79061558d565b80601f0160208091040260200160405190810160405280929190818152602001828054612c039061558d565b8015612c505780601f10612c2557610100808354040283529160200191612c50565b820191906000526020600020905b815481529060010190602001808311612c3357829003601f168201915b505050505090806002018054612c659061558d565b80601f0160208091040260200160405190810160405280929190818152602001828054612c919061558d565b8015612cde5780601f10612cb357610100808354040283529160200191612cde565b820191906000526020600020905b815481529060010190602001808311612cc157829003601f168201915b5050505050905083565b6060600182604051612cfa919061572d565b9081526020016040518091039020805480602002602001604051908101604052809291908181526020016000905b8282101561342a57838290600052602060002090600e020160405180610140016040529081600082018054612d5c9061558d565b80601f0160208091040260200160405190810160405280929190818152602001828054612d889061558d565b8015612dd55780601f10612daa57610100808354040283529160200191612dd5565b820191906000526020600020905b815481529060010190602001808311612db857829003601f168201915b50505050508152602001600182018054612dee9061558d565b80601f0160208091040260200160405190810160405280929190818152602001828054612e1a9061558d565b8015612e675780601f10612e3c57610100808354040283529160200191612e67565b820191906000526020600020905b815481529060010190602001808311612e4a57829003601f168201915b505050505081526020016002820160009054906101000a900460ff166002811115612e9557612e946145bf565b5b6002811115612ea757612ea66145bf565b5b8152602001600382018054612ebb9061558d565b80601f0160208091040260200160405190810160405280929190818152602001828054612ee79061558d565b8015612f345780601f10612f0957610100808354040283529160200191612f34565b820191906000526020600020905b815481529060010190602001808311612f1757829003601f168201915b505050505081526020016004820160009054906101000a900460ff166002811115612f6257612f616145bf565b5b6002811115612f7457612f736145bf565b5b8152602001600582016040518060e0016040529081600082018054612f989061558d565b80601f0160208091040260200160405190810160405280929190818152602001828054612fc49061558d565b80156130115780601f10612fe657610100808354040283529160200191613011565b820191906000526020600020905b815481529060010190602001808311612ff457829003601f168201915b5050505050815260200160018201805461302a9061558d565b80601f01602080910402602001604051908101604052809291908181526020018280546130569061558d565b80156130a35780601f10613078576101008083540402835291602001916130a3565b820191906000526020600020905b81548152906001019060200180831161308657829003601f168201915b505050505081526020016002820180546130bc9061558d565b80601f01602080910402602001604051908101604052809291908181526020018280546130e89061558d565b80156131355780601f1061310a57610100808354040283529160200191613135565b820191906000526020600020905b81548152906001019060200180831161311857829003601f168201915b5050505050815260200160038201805461314e9061558d565b80601f016020809104026020016040519081016040528092919081815260200182805461317a9061558d565b80156131c75780601f1061319c576101008083540402835291602001916131c7565b820191906000526020600020905b8154815290600101906020018083116131aa57829003601f168201915b505050505081526020016004820160009054906101000a900460ff1660038111156131f5576131f46145bf565b5b6003811115613207576132066145bf565b5b81526020016004820160019054906101000a900473ffffffffffffffffffffffffffffffffffffffff1673ffffffffffffffffffffffffffffffffffffffff1673ffffffffffffffffffffffffffffffffffffffff1681526020016004820160159054906101000a900463ffffffff1663ffffffff1663ffffffff16815250508152602001600a8201548152602001600b8201805480602002602001604051908101604052809291908181526020016000905b828210156133665783829060005260206000200180546132d99061558d565b80601f01602080910402602001604051908101604052809291908181526020018280546133059061558d565b80156133525780601f1061332757610100808354040283529160200191613352565b820191906000526020600020905b81548152906001019060200180831161333557829003601f168201915b5050505050815260200190600101906132ba565b505050508152602001600c820160009054906101000a900460ff16151515158152602001600d820180546133999061558d565b80601f01602080910402602001604051908101604052809291908181526020018280546133c59061558d565b80156134125780601f106133e757610100808354040283529160200191613412565b820191906000526020600020905b8154815290600101906020018083116133f557829003601f168201915b50505050508152505081526020019060010190612d28565b505050509050919050565b60006134408361181d565b90506001151581610100015115151461348e576040517f08c379a000000000000000000000000000000000000000000000000000000000815260040161348590615b44565b60405180910390fd5b60018360405161349e919061572d565b908152602001604051809103902060405180610140016040528085815260200183602001518152602001836040015160028111156134df576134de6145bf565b5b81526020018360600151815260200183608001516002811115613505576135046145bf565b5b8152602001848152602001428152602001600067ffffffffffffffff811115613531576135306141ae565b5b60405190808252806020026020018201604052801561356457816020015b606081526020019060019003908161354f5790505b50815260200160011515815260200161357d6004613ce8565b81525090806001815401808255809150506001900390600052602060002090600e020160009091909190915060008201518160000190816135be9190615986565b5060208201518160010190816135d49190615986565b5060408201518160020160006101000a81548160ff02191690836002811115613600576135ff6145bf565b5b0217905550606082015181600301908161361a9190615986565b5060808201518160040160006101000a81548160ff02191690836002811115613646576136456145bf565b5b021790555060a08201518160050160008201518160000190816136699190615986565b50602082015181600101908161367f9190615986565b5060408201518160020190816136959190615986565b5060608201518160030190816136ab9190615986565b5060808201518160040160006101000a81548160ff021916908360038111156136d7576136d66145bf565b5b021790555060a08201518160040160016101000a81548173ffffffffffffffffffffffffffffffffffffffff021916908373ffffffffffffffffffffffffffffffffffffffff16021790555060c08201518160040160156101000a81548163ffffffff021916908363ffffffff160217905550505060c082015181600a015560e082015181600b01908051906020019061377292919061403f565b5061010082015181600c0160006101000a81548160ff02191690831515021790555061012082015181600d0190816137aa9190615986565b5050506002808111156137c0576137bf6145bf565b5b816040015160028111156137d7576137d66145bf565b5b036138865760008054906101000a900473ffffffffffffffffffffffffffffffffffffffff1673ffffffffffffffffffffffffffffffffffffffff1663c4ee186684846040518363ffffffff167c0100000000000000000000000000000000000000000000000000000000028152600401613853929190615b64565b600060405180830381600087803b15801561386d57600080fd5b505af1158015613881573d6000803e3d6000fd5b505050505b505050565b60006138968361181d565b9050600115158161010001511515146138e4576040517f08c379a00000000000000000000000000000000000000000000000000000000081526004016138db90615b44565b60405180910390fd5b6000600167ffffffffffffffff811115613901576139006141ae565b5b60405190808252806020026020018201604052801561393457816020015b606081526020019060019003908161391f5790505b5090508260000151816000815181106139505761394f61552f565b5b602002602001018190525060028460405161396b919061572d565b9081526020016040518091039020604051806060016040528085600001518152602001856020015181526020018560400151815250908060018154018082558091505060019003906000526020600020906003020160009091909190915060008201518160000190816139de9190615986565b5060208201518160010190816139f49190615986565b506040820151816002019081613a0a9190615986565b505050600184604051613a1d919061572d565b90815260200160405180910390206040518061014001604052808681526020018460200151815260200184604001516002811115613a5e57613a5d6145bf565b5b81526020018460600151815260200184608001516002811115613a8457613a836145bf565b5b81526020018460a001518152602001428152602001838152602001600115158152602001613ab26003613ce8565b81525090806001815401808255809150506001900390600052602060002090600e02016000909190919091506000820151816000019081613af39190615986565b506020820151816001019081613b099190615986565b5060408201518160020160006101000a81548160ff02191690836002811115613b3557613b346145bf565b5b02179055506060820151816003019081613b4f9190615986565b5060808201518160040160006101000a81548160ff02191690836002811115613b7b57613b7a6145bf565b5b021790555060a0820151816005016000820151816000019081613b9e9190615986565b506020820151816001019081613bb49190615986565b506040820151816002019081613bca9190615986565b506060820151816003019081613be09190615986565b5060808201518160040160006101000a81548160ff02191690836003811115613c0c57613c0b6145bf565b5b021790555060a08201518160040160016101000a81548173ffffffffffffffffffffffffffffffffffffffff021916908373ffffffffffffffffffffffffffffffffffffffff16021790555060c08201518160040160156101000a81548163ffffffff021916908363ffffffff160217905550505060c082015181600a015560e082015181600b019080519060200190613ca792919061403f565b5061010082015181600c0160006101000a81548160ff02191690831515021790555061012082015181600d019081613cdf9190615986565b50505050505050565b606060016005811115613cfe57613cfd6145bf565b5b826005811115613d1157613d106145bf565b5b03613d53576040518060400160405280600781526020017f55706461746564000000000000000000000000000000000000000000000000008152509050613f9a565b60006005811115613d6757613d666145bf565b5b826005811115613d7a57613d796145bf565b5b03613dbc576040518060400160405280600781526020017f43726561746564000000000000000000000000000000000000000000000000008152509050613f9a565b60036005811115613dd057613dcf6145bf565b5b826005811115613de357613de26145bf565b5b03613e25576040518060400160405280600a81526020017f41646465642046696c65000000000000000000000000000000000000000000008152509050613f9a565b60026005811115613e3957613e386145bf565b5b826005811115613e4c57613e4b6145bf565b5b03613e8e576040518060400160405280600b81526020017f496e6163746976617465640000000000000000000000000000000000000000008152509050613f9a565b60046005811115613ea257613ea16145bf565b5b826005811115613eb557613eb46145bf565b5b03613ef7576040518060400160405280600d81526020017f55706461746564204f776e6572000000000000000000000000000000000000008152509050613f9a565b600580811115613f0a57613f096145bf565b5b826005811115613f1d57613f1c6145bf565b5b03613f5f576040518060400160405280601281526020017f416464656420416c6c6f776564205573657200000000000000000000000000008152509050613f9a565b6040517f08c379a0000000000000000000000000000000000000000000000000000000008152600401613f9190615cce565b60405180910390fd5b919050565b604051806101400160405280606081526020016060815260200160006002811115613fcd57613fcc6145bf565b5b81526020016060815260200160006002811115613fed57613fec6145bf565b5b8152602001613ffa614098565b81526020016000815260200160608152602001600015158152602001606081525090565b60405180606001604052806060815260200160608152602001606081525090565b828054828255906000526020600020908101928215614087579160200282015b828111156140865782518290816140769190615986565b509160200191906001019061405f565b5b5090506140949190614103565b5090565b6040518060e0016040528060608152602001606081526020016060815260200160608152602001600060038111156140d3576140d26145bf565b5b8152602001600073ffffffffffffffffffffffffffffffffffffffff168152602001600063ffffffff1681525090565b5b80821115614123576000818161411a9190614127565b50600101614104565b5090565b5080546141339061558d565b6000825580601f106141455750614164565b601f0160209004906000526020600020908101906141639190614167565b5b50565b5b80821115614180576000816000905550600101614168565b5090565b6000604051905090565b600080fd5b600080fd5b600080fd5b6000601f19601f8301169050919050565b7f4e487b7100000000000000000000000000000000000000000000000000000000600052604160045260246000fd5b6141e68261419d565b810181811067ffffffffffffffff82111715614205576142046141ae565b5b80604052505050565b6000614218614184565b905061422482826141dd565b919050565b600080fd5b600080fd5b600080fd5b600067ffffffffffffffff821115614253576142526141ae565b5b61425c8261419d565b9050602081019050919050565b82818337600083830152505050565b600061428b61428684614238565b61420e565b9050828152602081018484840111156142a7576142a6614233565b5b6142b2848285614269565b509392505050565b600082601f8301126142cf576142ce61422e565b5b81356142df848260208601614278565b91505092915050565b600481106142f557600080fd5b50565b600081359050614307816142e8565b92915050565b600073ffffffffffffffffffffffffffffffffffffffff82169050919050565b60006143388261430d565b9050919050565b6143488161432d565b811461435357600080fd5b50565b6000813590506143658161433f565b92915050565b600063ffffffff82169050919050565b6143848161436b565b811461438f57600080fd5b50565b6000813590506143a18161437b565b92915050565b600060e082840312156143bd576143bc614198565b5b6143c760e061420e565b9050600082013567ffffffffffffffff8111156143e7576143e6614229565b5b6143f3848285016142ba565b600083015250602082013567ffffffffffffffff81111561441757614416614229565b5b614423848285016142ba565b602083015250604082013567ffffffffffffffff81111561444757614446614229565b5b614453848285016142ba565b604083015250606082013567ffffffffffffffff81111561447757614476614229565b5b614483848285016142ba565b6060830152506080614497848285016142f8565b60808301525060a06144ab84828501614356565b60a08301525060c06144bf84828501614392565b60c08301525092915050565b6000602082840312156144e1576144e061418e565b5b600082013567ffffffffffffffff8111156144ff576144fe614193565b5b61450b848285016143a7565b91505092915050565b600081519050919050565b600082825260208201905092915050565b6000819050602082019050919050565b600081519050919050565b600082825260208201905092915050565b60005b8381101561457a57808201518184015260208101905061455f565b60008484015250505050565b600061459182614540565b61459b818561454b565b93506145ab81856020860161455c565b6145b48161419d565b840191505092915050565b7f4e487b7100000000000000000000000000000000000000000000000000000000600052602160045260246000fd5b600381106145ff576145fe6145bf565b5b50565b6000819050614610826145ee565b919050565b600061462082614602565b9050919050565b61463081614615565b82525050565b60038110614647576146466145bf565b5b50565b600081905061465882614636565b919050565b60006146688261464a565b9050919050565b6146788161465d565b82525050565b6004811061468f5761468e6145bf565b5b50565b60008190506146a08261467e565b919050565b60006146b082614692565b9050919050565b6146c0816146a5565b82525050565b6146cf8161432d565b82525050565b6146de8161436b565b82525050565b600060e08301600083015184820360008601526147018282614586565b9150506020830151848203602086015261471b8282614586565b915050604083015184820360408601526147358282614586565b9150506060830151848203606086015261474f8282614586565b915050608083015161476460808601826146b7565b5060a083015161477760a08601826146c6565b5060c083015161478a60c08601826146d5565b508091505092915050565b6000819050919050565b6147a881614795565b82525050565b600081519050919050565b600082825260208201905092915050565b6000819050602082019050919050565b60006147e68383614586565b905092915050565b6000602082019050919050565b6000614806826147ae565b61481081856147b9565b935083602082028501614822856147ca565b8060005b8581101561485e578484038952815161483f85826147da565b945061484a836147ee565b925060208a01995050600181019050614826565b50829750879550505050505092915050565b60008115159050919050565b61488581614870565b82525050565b60006101408301600083015184820360008601526148a98282614586565b915050602083015184820360208601526148c38282614586565b91505060408301516148d86040860182614627565b50606083015184820360608601526148f08282614586565b9150506080830151614905608086018261466f565b5060a083015184820360a086015261491d82826146e4565b91505060c083015161493260c086018261479f565b5060e083015184820360e086015261494a82826147fb565b91505061010083015161496161010086018261487c565b5061012083015184820361012086015261497b8282614586565b9150508091505092915050565b6000614994838361488b565b905092915050565b6000602082019050919050565b60006149b482614514565b6149be818561451f565b9350836020820285016149d085614530565b8060005b85811015614a0c57848403895281516149ed8582614988565b94506149f88361499c565b925060208a019950506001810190506149d4565b50829750879550505050505092915050565b60006020820190508181036000830152614a3881846149a9565b905092915050565b6000819050919050565b6000614a65614a60614a5b8461430d565b614a40565b61430d565b9050919050565b6000614a7782614a4a565b9050919050565b6000614a8982614a6c565b9050919050565b614a9981614a7e565b82525050565b6000602082019050614ab46000830184614a90565b92915050565b60008060408385031215614ad157614ad061418e565b5b600083013567ffffffffffffffff811115614aef57614aee614193565b5b614afb858286016142ba565b925050602083013567ffffffffffffffff811115614b1c57614b1b614193565b5b614b28858286016142ba565b9150509250929050565b60006060830160008301518482036000860152614b4f8282614586565b91505060208301518482036020860152614b698282614586565b91505060408301518482036040860152614b838282614586565b9150508091505092915050565b60006020820190508181036000830152614baa8184614b32565b905092915050565b60038110614bbf57600080fd5b50565b600081359050614bd181614bb2565b92915050565b60038110614be457600080fd5b50565b600081359050614bf681614bd7565b92915050565b60008060008060008060c08789031215614c1957614c1861418e565b5b600087013567ffffffffffffffff811115614c3757614c36614193565b5b614c4389828a016142ba565b965050602087013567ffffffffffffffff811115614c6457614c63614193565b5b614c7089828a016142ba565b9550506040614c8189828a01614bc2565b945050606087013567ffffffffffffffff811115614ca257614ca1614193565b5b614cae89828a016142ba565b9350506080614cbf89828a01614be7565b92505060a087013567ffffffffffffffff811115614ce057614cdf614193565b5b614cec89828a016143a7565b9150509295509295509295565b600060208284031215614d0f57614d0e61418e565b5b600082013567ffffffffffffffff811115614d2d57614d2c614193565b5b614d39848285016142ba565b91505092915050565b6000610140830160008301518482036000860152614d608282614586565b91505060208301518482036020860152614d7a8282614586565b9150506040830151614d8f6040860182614627565b5060608301518482036060860152614da78282614586565b9150506080830151614dbc608086018261466f565b5060a083015184820360a0860152614dd482826146e4565b91505060c0830151614de960c086018261479f565b5060e083015184820360e0860152614e0182826147fb565b915050610100830151614e1861010086018261487c565b50610120830151848203610120860152614e328282614586565b9150508091505092915050565b60006020820190508181036000830152614e598184614d42565b905092915050565b614e6a81614795565b8114614e7557600080fd5b50565b600081359050614e8781614e61565b92915050565b60008060408385031215614ea457614ea361418e565b5b600083013567ffffffffffffffff811115614ec257614ec1614193565b5b614ece858286016142ba565b9250506020614edf85828601614e78565b9150509250929050565b600082825260208201905092915050565b6000614f0582614540565b614f0f8185614ee9565b9350614f1f81856020860161455c565b614f288161419d565b840191505092915050565b614f3c81614615565b82525050565b614f4b8161465d565b82525050565b600060e0830160008301518482036000860152614f6e8282614586565b91505060208301518482036020860152614f888282614586565b91505060408301518482036040860152614fa28282614586565b91505060608301518482036060860152614fbc8282614586565b9150506080830151614fd160808601826146b7565b5060a0830151614fe460a08601826146c6565b5060c0830151614ff760c08601826146d5565b508091505092915050565b61500b81614795565b82525050565b61501a81614870565b82525050565b600061012082019050818103600083015261503b818c614efa565b9050818103602083015261504f818b614efa565b905061505e604083018a614f33565b81810360608301526150708189614efa565b905061507f6080830188614f42565b81810360a08301526150918187614f51565b90506150a060c0830186615002565b6150ad60e0830185615011565b8181036101008301526150c08184614efa565b90509a9950505050505050505050565b6000602082840312156150e6576150e561418e565b5b60006150f484828501614e78565b91505092915050565b600060208201905081810360008301526151178184614efa565b905092915050565b600067ffffffffffffffff82111561513a576151396141ae565b5b602082029050602081019050919050565b600080fd5b600061516361515e8461511f565b61420e565b905080838252602082019050602084028301858111156151865761518561514b565b5b835b818110156151cd57803567ffffffffffffffff8111156151ab576151aa61422e565b5b8086016151b889826143a7565b85526020850194505050602081019050615188565b5050509392505050565b600082601f8301126151ec576151eb61422e565b5b81356151fc848260208601615150565b91505092915050565b6000806040838503121561521c5761521b61418e565b5b600083013567ffffffffffffffff81111561523a57615239614193565b5b615246858286016142ba565b925050602083013567ffffffffffffffff81111561526757615266614193565b5b615273858286016151d7565b9150509250929050565b600060608201905081810360008301526152978186614efa565b905081810360208301526152ab8185614efa565b905081810360408301526152bf8184614efa565b9050949350505050565b600080604083850312156152e0576152df61418e565b5b600083013567ffffffffffffffff8111156152fe576152fd614193565b5b61530a858286016142ba565b925050602083013567ffffffffffffffff81111561532b5761532a614193565b5b615337858286016143a7565b9150509250929050565b60006060828403121561535757615356614198565b5b615361606061420e565b9050600082013567ffffffffffffffff81111561538157615380614229565b5b61538d848285016142ba565b600083015250602082013567ffffffffffffffff8111156153b1576153b0614229565b5b6153bd848285016142ba565b602083015250604082013567ffffffffffffffff8111156153e1576153e0614229565b5b6153ed848285016142ba565b60408301525092915050565b600080604083850312156154105761540f61418e565b5b600083013567ffffffffffffffff81111561542e5761542d614193565b5b61543a858286016142ba565b925050602083013567ffffffffffffffff81111561545b5761545a614193565b5b61546785828601615341565b9150509250929050565b6006811061547e57600080fd5b50565b60008135905061549081615471565b92915050565b6000602082840312156154ac576154ab61418e565b5b60006154ba84828501615481565b91505092915050565b7f4e6f2045766964656e6365730000000000000000000000000000000000000000600082015250565b60006154f9600c83614ee9565b9150615504826154c3565b602082019050919050565b60006020820190508181036000830152615528816154ec565b9050919050565b7f4e487b7100000000000000000000000000000000000000000000000000000000600052603260045260246000fd5b7f4e487b7100000000000000000000000000000000000000000000000000000000600052602260045260246000fd5b600060028204905060018216806155a557607f821691505b6020821081036155b8576155b761555e565b5b50919050565b600060408201905081810360008301526155d88185614d42565b905081810360208301526155ec8184614f51565b90509392505050565b6155fe81614870565b811461560957600080fd5b50565b60008151905061561b816155f5565b92915050565b6000602082840312156156375761563661418e565b5b60006156458482850161560c565b91505092915050565b7f4e487b7100000000000000000000000000000000000000000000000000000000600052601160045260246000fd5b600061568882614795565b91507fffffffffffffffffffffffffffffffffffffffffffffffffffffffffffffffff82036156ba576156b961564e565b5b600182019050919050565b60006156d08261436b565b915063ffffffff82036156e6576156e561564e565b5b600182019050919050565b600081905092915050565b600061570782614540565b61571181856156f1565b935061572181856020860161455c565b80840191505092915050565b600061573982846156fc565b915081905092915050565b60008190508160005260206000209050919050565b600081546157668161558d565b61577081866156f1565b9450600182166000811461578b57600181146157a0576157d3565b60ff19831686528115158202860193506157d3565b6157a985615744565b60005b838110156157cb578154818901526001820191506020810190506157ac565b838801955050505b50505092915050565b60006157e88284615759565b915081905092915050565b60006020601f8301049050919050565b60008160020a8302905092915050565b6000600883026158437fffffffffffffffffffffffffffffffffffffffffffffffffffffffffffffffff82615803565b61584d8683615803565b95508019841693508086168417925050509392505050565b600061588061587b61587684614795565b614a40565b614795565b9050919050565b6000819050919050565b61589a83615865565b6158ae6158a682615887565b848454615813565b825550505050565b600090565b6158c36158b6565b6158ce818484615891565b505050565b5b818110156158f2576158e76000826158bb565b6001810190506158d4565b5050565b601f8211156159375761590881615744565b615911846157f3565b81016020851015615920578190505b61593461592c856157f3565b8301826158d3565b50505b505050565b60008160020a8304905092915050565b600061595d6000198460080261593c565b1980831691505092915050565b6000615976838361594c565b9150826002028217905092915050565b61598f82614540565b67ffffffffffffffff8111156159a8576159a76141ae565b5b6159b2825461558d565b6159bd8282856158f6565b600060209050601f8311600181146159f057600084156159de578287015190505b6159e8858261596a565b865550615a50565b601f1984166159fe86615744565b60005b82811015615a2657848901518255600182019150602085019450602081019050615a01565b86831015615a435784890151615a3f601f89168261594c565b8355505b6001600288020188555050505b505050505050565b6000615a6382614795565b9150615a6e83614795565b9250828203905081811115615a8657615a8561564e565b5b92915050565b7f4e6f74204f776e65720000000000000000000000000000000000000000000000600082015250565b6000615ac2600983614ee9565b9150615acd82615a8c565b602082019050919050565b60006020820190508181036000830152615af181615ab5565b9050919050565b7f45766964656e636520696e616374697665000000000000000000000000000000600082015250565b6000615b2e601183614ee9565b9150615b3982615af8565b602082019050919050565b60006020820190508181036000830152615b5d81615b21565b9050919050565b60006040820190508181036000830152615b7e8185614efa565b90508181036020830152615b928184614f51565b90509392505050565b7f45766964656e6365206e6f7420666f756e640000000000000000000000000000600082015250565b6000615bd1601283614ee9565b9150615bdc82615b9b565b602082019050919050565b60006020820190508181036000830152615c0081615bc4565b9050919050565b7f2000000000000000000000000000000000000000000000000000000000000000600082015250565b6000615c3d6001836156f1565b9150615c4882615c07565b600182019050919050565b6000615c5f82856156fc565b9150615c6a82615c30565b9150615c7682846156fc565b91508190509392505050565b7f496e76616c696420737461747573000000000000000000000000000000000000600082015250565b6000615cb8600e83614ee9565b9150615cc382615c82565b602082019050919050565b60006020820190508181036000830152615ce781615cab565b905091905056fea264697066735822122059d21b071e3f7eb912b50c81380f3522bcc7b2a9cdb673d488a9b074095b7a5c64736f6c63430008130033",
  "immutableReferences": {},
  "source": "pragma solidity ^0.8.0;\r\nimport \"./EntitiesManager.sol\";\r\nimport \"./EvidencesManagerAllowedUsers.sol\";\r\n\r\ncontract EvidencesManager {\r\n    EvidencesManagerAllowedUsers public evidencesManagerAllowedUsers;\r\n\r\n    constructor(\r\n        address _evidencesManagerAllowedUserAddress\r\n    ) {\r\n        evidencesManagerAllowedUsers = EvidencesManagerAllowedUsers(_evidencesManagerAllowedUserAddress);\r\n    }\r\n\r\n    enum ObservationsTipified{\r\n        Created,\r\n        Updated,\r\n        Inactive,\r\n        AddFile,\r\n        UpdatedOwner,\r\n        AddAllowedUser\r\n    }\r\n\r\n    enum EvidenceClassification {\r\n    Public,\r\n    Secret,\r\n    AllowedPersonalOnly\r\n    }\r\n\r\n    enum EvidenceType {\r\n    Document,\r\n    Image,\r\n    Video\r\n    }\r\n\r\n    struct EvidenceFile {\r\n        string id;\r\n        string fileName;\r\n        string fileHash;\r\n    }\r\n\r\n\r\n    struct Evidence {\r\n        string uniqueCode;\r\n        string caseNo;\r\n        EvidenceClassification classification;\r\n        string name;\r\n        EvidenceType eType;\r\n        EntitiesManager.Entity owner;\r\n        uint256 timestamp;\r\n        string [] uFilesCodes;\r\n        bool isActive;\r\n        string observations;\r\n    }\r\n\r\n    mapping(string => Evidence[]) public evidencesHistory;\r\n    mapping(string => EvidenceFile[]) public evidencesFiles;\r\n\r\n    string[] public allEvidences;\r\n\r\n    function obsToString(ObservationsTipified _obs) public pure returns (string memory) {\r\n        if (_obs == ObservationsTipified.Updated) {\r\n            return \"Updated\";\r\n        } else if (_obs == ObservationsTipified.Created) {\r\n            return \"Created\";\r\n        } else if (_obs == ObservationsTipified.AddFile) {\r\n            return \"Added File\";\r\n        } else if (_obs == ObservationsTipified.Inactive) {\r\n            return \"Inactivated\";\r\n        } else if (_obs == ObservationsTipified.UpdatedOwner) {\r\n            return \"Updated Owner\";\r\n        } else if (_obs == ObservationsTipified.AddAllowedUser) {\r\n            return \"Added Allowed User\";\r\n        } else {\r\n            revert(\"Invalid status\");\r\n        }\r\n    }\r\n\r\n    function addEvidence(string memory _evidenceUniqueCode, string memory _caseNo, EvidenceClassification _classification, string memory _evidenceName, EvidenceType _evidenceType, EntitiesManager.Entity memory _entity) public {\r\n        if (evidencesHistory[_evidenceUniqueCode].length == 0) \r\n        {\r\n            evidencesHistory[_evidenceUniqueCode].push(Evidence(_evidenceUniqueCode, _caseNo, _classification,_evidenceName, _evidenceType, _entity, block.timestamp, new string[](0), true, obsToString(ObservationsTipified.Created)));\r\n            allEvidences.push(_evidenceUniqueCode);\r\n        }\r\n        else{\r\n            uint totalVersions = evidencesHistory[_evidenceUniqueCode].length;\r\n            Evidence memory lastEvidence = evidencesHistory[_evidenceUniqueCode][totalVersions - 1];\r\n            require(lastEvidence.owner.entityAddress == _entity.entityAddress, \"Not Owner\");\r\n            require(lastEvidence.isActive == true, \"Evidence inactive\");\r\n            evidencesHistory[_evidenceUniqueCode].push(Evidence(_evidenceUniqueCode, _caseNo, _classification,_evidenceName, _evidenceType, _entity, block.timestamp, new string[](0), true, obsToString(ObservationsTipified.Updated)));\r\n        }\r\n\r\n        if (_classification == EvidenceClassification.AllowedPersonalOnly){\r\n            evidencesManagerAllowedUsers.addAllowedUser(_evidenceUniqueCode, _entity);\r\n        }\r\n    }\r\n\r\n    function addFile(string memory _evidenceUniqueCode, EvidenceFile memory _file) public {\r\n        Evidence memory evidence = getLastUpdate(_evidenceUniqueCode);\r\n        require(evidence.isActive == true, \"Evidence inactive\");\r\n        string[] memory fileIds = new string[](1);\r\n        fileIds[0] = _file.id;\r\n        evidencesFiles[_evidenceUniqueCode].push(EvidenceFile(_file.id, _file.fileName, _file.fileHash));\r\n\r\n        evidencesHistory[_evidenceUniqueCode].push(Evidence(_evidenceUniqueCode, evidence.caseNo, evidence.classification, evidence.name, evidence.eType, evidence.owner, block.timestamp, fileIds, true, obsToString(ObservationsTipified.AddFile)));\r\n    }\r\n\r\n    function addAllowedUsers (string memory _evidenceUniqueCode, EntitiesManager.Entity[] memory _entities) public {\r\n        Evidence memory evidence = getLastUpdate(_evidenceUniqueCode);\r\n        require(evidence.isActive == true, \"Evidence inactive\");\r\n        //require(evidence.classification == EvidenceClassification.AllowedPersonalOnly, \"Not Classified as Allowed Personal Only\");\r\n    \r\n        for (uint32 i = 0; i < _entities.length; i++) {\r\n            evidencesManagerAllowedUsers.addAllowedUser(_evidenceUniqueCode, _entities[i]);\r\n            //string memory _obs= string(abi.encodePacked(obsToString(ObservationsTipified.AddAllowedUser), ' ', _entities[i].entityAddress, ' ', _entities[i].userName));\r\n            string memory _obs= string(abi.encodePacked(obsToString(ObservationsTipified.AddAllowedUser), ' ', _entities[i].userName));\r\n            evidencesHistory[_evidenceUniqueCode].push(Evidence(_evidenceUniqueCode, evidence.caseNo, evidence.classification, evidence.name, evidence.eType, evidence.owner, block.timestamp, new string[](0), true, _obs));\r\n        }\r\n    }\r\n\r\n\r\n    function updateOwner(string memory _evidenceUniqueCode, EntitiesManager.Entity memory _entity)public \r\n    {\r\n        Evidence memory evidence = getLastUpdate(_evidenceUniqueCode);\r\n        require(evidence.isActive == true, \"Evidence inactive\");\r\n        evidencesHistory[_evidenceUniqueCode].push(Evidence(_evidenceUniqueCode, evidence.caseNo, evidence.classification, evidence.name, evidence.eType, _entity, block.timestamp, new string[](0), true, obsToString(ObservationsTipified.UpdatedOwner)));\r\n        if (evidence.classification == EvidenceClassification.AllowedPersonalOnly){\r\n            evidencesManagerAllowedUsers.addAllowedUser(_evidenceUniqueCode, _entity);\r\n        }\r\n    }\r\n\r\n    function getEvidences(EntitiesManager.Entity memory entity) public view returns (EvidencesManager.Evidence[] memory) {\r\n        require(allEvidences.length > 0, \"No Evidences\");\r\n\r\n        EvidencesManager.Evidence[] memory evidences = new EvidencesManager.Evidence[](allEvidences.length);\r\n        \r\n        uint256 count = 0;\r\n        for (uint32 i = 0; i < allEvidences.length; i++) {\r\n            Evidence memory evidence = getLastUpdate(allEvidences[i]);\r\n            if (evidencesManagerAllowedUsers.checkIfAllowed(evidence, entity))\r\n            {\r\n                evidences[count] = evidence;\r\n                count++;\r\n            }    \r\n        }\r\n\r\n        // Resize the memory array to the actual number of filtered results\r\n        assembly {\r\n            mstore(evidences, count)\r\n        }\r\n\r\n        return evidences;\r\n    }\r\n\r\n    function getEvidenceHistory(string memory _evidenceUniqueCode) public view returns (Evidence[] memory) {\r\n        return evidencesHistory[_evidenceUniqueCode];\r\n    }\r\n\r\n    function getFileInfo(string memory _evidenceUniqueCode, string memory _fileId) public view returns (EvidenceFile memory){\r\n        EvidenceFile memory evidenceFile;\r\n        for (uint256 i = 0; i < evidencesFiles[_evidenceUniqueCode].length; i++) {\r\n            if (keccak256(abi.encodePacked(evidencesFiles[_evidenceUniqueCode][i].id)) == keccak256(abi.encodePacked(_fileId))) {\r\n                return evidencesFiles[_evidenceUniqueCode][i];\r\n            }\r\n        }\r\n        return evidenceFile;\r\n    }\r\n\r\n    function getLastUpdate (string memory _evidenceUniqueCode) public view returns (Evidence memory) {\r\n        uint totalVersions = evidencesHistory[_evidenceUniqueCode].length;\r\n        require(totalVersions > 0, \"Evidence not found\");\r\n\r\n        return evidencesHistory[_evidenceUniqueCode][totalVersions - 1];\r\n    }\r\n}",
  "sourcePath": "C:\\IPCA DISSERTAO\\evidences_dapp\\contracts\\EvidencesManager.sol",
  "compiler": {
    "name": "solc",
    "version": "0.8.19+commit.7dd6d404.Emscripten.clang"
  },
  "schemaVersion": "3.4.13",
  "updatedAt": "2023-10-05T12:44:27.194Z",
  "networkType": "ethereum",
  "devdoc": {
    "kind": "dev",
    "methods": {},
    "version": 1
  },
  "userdoc": {
    "kind": "user",
    "methods": {},
    "version": 1
  }
}