{
  "contractName": "EvidencesManagerAllowedUsers",
  "abi": [
    {
      "inputs": [
        {
          "internalType": "string",
          "name": "",
          "type": "string"
        },
        {
          "internalType": "uint256",
          "name": "",
          "type": "uint256"
        }
      ],
      "name": "evidencesAllowedUsers",
      "outputs": [
        {
          "internalType": "string",
          "name": "userName",
          "type": "string"
        },
        {
          "internalType": "string",
          "name": "password",
          "type": "string"
        },
        {
          "internalType": "string",
          "name": "name",
          "type": "string"
        },
        {
          "internalType": "string",
          "name": "departmentCode",
          "type": "string"
        },
        {
          "internalType": "enum EntitiesManager.EntityType",
          "name": "entityType",
          "type": "uint8"
        },
        {
          "internalType": "address",
          "name": "entityAddress",
          "type": "address"
        },
        {
          "internalType": "uint256",
          "name": "timestamp",
          "type": "uint256"
        },
        {
          "internalType": "bool",
          "name": "isApproved",
          "type": "bool"
        },
        {
          "internalType": "address",
          "name": "approverAddress",
          "type": "address"
        }
      ],
      "stateMutability": "view",
      "type": "function",
      "constant": true
    },
    {
      "inputs": [
        {
          "internalType": "string",
          "name": "_evidenceUniqueCode",
          "type": "string"
        },
        {
          "components": [
            {
              "internalType": "string",
              "name": "userName",
              "type": "string"
            },
            {
              "internalType": "string",
              "name": "password",
              "type": "string"
            },
            {
              "internalType": "string",
              "name": "name",
              "type": "string"
            },
            {
              "internalType": "string",
              "name": "departmentCode",
              "type": "string"
            },
            {
              "internalType": "enum EntitiesManager.EntityType",
              "name": "entityType",
              "type": "uint8"
            },
            {
              "internalType": "address",
              "name": "entityAddress",
              "type": "address"
            },
            {
              "internalType": "uint256",
              "name": "timestamp",
              "type": "uint256"
            },
            {
              "internalType": "bool",
              "name": "isApproved",
              "type": "bool"
            },
            {
              "internalType": "address",
              "name": "approverAddress",
              "type": "address"
            }
          ],
          "internalType": "struct EntitiesManager.Entity",
          "name": "_entity",
          "type": "tuple"
        }
      ],
      "name": "addAllowedUser",
      "outputs": [],
      "stateMutability": "nonpayable",
      "type": "function"
    },
    {
      "inputs": [
        {
          "components": [
            {
              "internalType": "string",
              "name": "uniqueCode",
              "type": "string"
            },
            {
              "internalType": "string",
              "name": "caseNo",
              "type": "string"
            },
            {
              "internalType": "enum EvidencesManager.EvidenceClassification",
              "name": "classification",
              "type": "uint8"
            },
            {
              "internalType": "string",
              "name": "name",
              "type": "string"
            },
            {
              "internalType": "enum EvidencesManager.EvidenceType",
              "name": "eType",
              "type": "uint8"
            },
            {
              "components": [
                {
                  "internalType": "string",
                  "name": "userName",
                  "type": "string"
                },
                {
                  "internalType": "string",
                  "name": "password",
                  "type": "string"
                },
                {
                  "internalType": "string",
                  "name": "name",
                  "type": "string"
                },
                {
                  "internalType": "string",
                  "name": "departmentCode",
                  "type": "string"
                },
                {
                  "internalType": "enum EntitiesManager.EntityType",
                  "name": "entityType",
                  "type": "uint8"
                },
                {
                  "internalType": "address",
                  "name": "entityAddress",
                  "type": "address"
                },
                {
                  "internalType": "uint256",
                  "name": "timestamp",
                  "type": "uint256"
                },
                {
                  "internalType": "bool",
                  "name": "isApproved",
                  "type": "bool"
                },
                {
                  "internalType": "address",
                  "name": "approverAddress",
                  "type": "address"
                }
              ],
              "internalType": "struct EntitiesManager.Entity",
              "name": "owner",
              "type": "tuple"
            },
            {
              "internalType": "uint256",
              "name": "timestamp",
              "type": "uint256"
            },
            {
              "internalType": "string[]",
              "name": "uFilesCodes",
              "type": "string[]"
            },
            {
              "internalType": "bool",
              "name": "isActive",
              "type": "bool"
            },
            {
              "internalType": "string",
              "name": "observations",
              "type": "string"
            }
          ],
          "internalType": "struct EvidencesManager.Evidence",
          "name": "evidence",
          "type": "tuple"
        },
        {
          "components": [
            {
              "internalType": "string",
              "name": "userName",
              "type": "string"
            },
            {
              "internalType": "string",
              "name": "password",
              "type": "string"
            },
            {
              "internalType": "string",
              "name": "name",
              "type": "string"
            },
            {
              "internalType": "string",
              "name": "departmentCode",
              "type": "string"
            },
            {
              "internalType": "enum EntitiesManager.EntityType",
              "name": "entityType",
              "type": "uint8"
            },
            {
              "internalType": "address",
              "name": "entityAddress",
              "type": "address"
            },
            {
              "internalType": "uint256",
              "name": "timestamp",
              "type": "uint256"
            },
            {
              "internalType": "bool",
              "name": "isApproved",
              "type": "bool"
            },
            {
              "internalType": "address",
              "name": "approverAddress",
              "type": "address"
            }
          ],
          "internalType": "struct EntitiesManager.Entity",
          "name": "entity",
          "type": "tuple"
        }
      ],
      "name": "checkIfAllowed",
      "outputs": [
        {
          "internalType": "bool",
          "name": "",
          "type": "bool"
        }
      ],
      "stateMutability": "view",
      "type": "function",
      "constant": true
    }
  ],
  "bytecode": "0x608060405234801561001057600080fd5b50611d10806100206000396000f3fe608060405234801561001057600080fd5b506004361061005e576000357c010000000000000000000000000000000000000000000000000000000090048063186b0cb014610063578063255d96181461007f5780634bf25d9b146100b7575b600080fd5b61007d60048036038101906100789190611308565b6100e7565b005b61009960048036038101906100949190611380565b6106b3565b6040516100ae999897969594939291906114ff565b60405180910390f35b6100d160048036038101906100cc9190611876565b6109ae565b6040516100de91906118ee565b60405180910390f35b6000805b6000846040516100fb9190611945565b9081526020016040518091039020805490508163ffffffff161015610515576000808560405161012b9190611945565b90815260200160405180910390208263ffffffff16815481106101515761015061195c565b5b90600052602060002090600702016040518061012001604052908160008201805461017b906119ba565b80601f01602080910402602001604051908101604052809291908181526020018280546101a7906119ba565b80156101f45780601f106101c9576101008083540402835291602001916101f4565b820191906000526020600020905b8154815290600101906020018083116101d757829003601f168201915b5050505050815260200160018201805461020d906119ba565b80601f0160208091040260200160405190810160405280929190818152602001828054610239906119ba565b80156102865780601f1061025b57610100808354040283529160200191610286565b820191906000526020600020905b81548152906001019060200180831161026957829003601f168201915b5050505050815260200160028201805461029f906119ba565b80601f01602080910402602001604051908101604052809291908181526020018280546102cb906119ba565b80156103185780601f106102ed57610100808354040283529160200191610318565b820191906000526020600020905b8154815290600101906020018083116102fb57829003601f168201915b50505050508152602001600382018054610331906119ba565b80601f016020809104026020016040519081016040528092919081815260200182805461035d906119ba565b80156103aa5780601f1061037f576101008083540402835291602001916103aa565b820191906000526020600020905b81548152906001019060200180831161038d57829003601f168201915b505050505081526020016004820160009054906101000a900460ff1660048111156103d8576103d761145b565b5b60048111156103ea576103e961145b565b5b81526020016004820160019054906101000a900473ffffffffffffffffffffffffffffffffffffffff1673ffffffffffffffffffffffffffffffffffffffff1673ffffffffffffffffffffffffffffffffffffffff168152602001600582015481526020016006820160009054906101000a900460ff161515151581526020016006820160019054906101000a900473ffffffffffffffffffffffffffffffffffffffff1673ffffffffffffffffffffffffffffffffffffffff1673ffffffffffffffffffffffffffffffffffffffff168152505090508360a0015173ffffffffffffffffffffffffffffffffffffffff168160a0015173ffffffffffffffffffffffffffffffffffffffff160361050157600192505b50808061050d90611a2a565b9150506100eb565b5060001515811515036106ae576000836040516105329190611945565b9081526020016040518091039020829080600181540180825580915050600190039060005260206000209060070201600090919091909150600082015181600001908161057f9190611c08565b5060208201518160010190816105959190611c08565b5060408201518160020190816105ab9190611c08565b5060608201518160030190816105c19190611c08565b5060808201518160040160006101000a81548160ff021916908360048111156105ed576105ec61145b565b5b021790555060a08201518160040160016101000a81548173ffffffffffffffffffffffffffffffffffffffff021916908373ffffffffffffffffffffffffffffffffffffffff16021790555060c0820151816005015560e08201518160060160006101000a81548160ff0219169083151502179055506101008201518160060160016101000a81548173ffffffffffffffffffffffffffffffffffffffff021916908373ffffffffffffffffffffffffffffffffffffffff16021790555050505b505050565b60008280516020810182018051848252602083016020850120818352809550505050505081815481106106e557600080fd5b906000526020600020906007020160009150915050806000018054610709906119ba565b80601f0160208091040260200160405190810160405280929190818152602001828054610735906119ba565b80156107825780601f1061075757610100808354040283529160200191610782565b820191906000526020600020905b81548152906001019060200180831161076557829003601f168201915b505050505090806001018054610797906119ba565b80601f01602080910402602001604051908101604052809291908181526020018280546107c3906119ba565b80156108105780601f106107e557610100808354040283529160200191610810565b820191906000526020600020905b8154815290600101906020018083116107f357829003601f168201915b505050505090806002018054610825906119ba565b80601f0160208091040260200160405190810160405280929190818152602001828054610851906119ba565b801561089e5780601f106108735761010080835404028352916020019161089e565b820191906000526020600020905b81548152906001019060200180831161088157829003601f168201915b5050505050908060030180546108b3906119ba565b80601f01602080910402602001604051908101604052809291908181526020018280546108df906119ba565b801561092c5780601f106109015761010080835404028352916020019161092c565b820191906000526020600020905b81548152906001019060200180831161090f57829003601f168201915b5050505050908060040160009054906101000a900460ff16908060040160019054906101000a900473ffffffffffffffffffffffffffffffffffffffff16908060050154908060060160009054906101000a900460ff16908060060160019054906101000a900473ffffffffffffffffffffffffffffffffffffffff16905089565b6000600260048111156109c4576109c361145b565b5b826080015160048111156109db576109da61145b565b5b036109e95760019050610f5d565b600060028111156109fd576109fc61145b565b5b83604001516002811115610a1457610a1361145b565b5b03610a225760019050610f5d565b60016004811115610a3657610a3561145b565b5b82608001516004811115610a4d57610a4c61145b565b5b148015610a825750600280811115610a6857610a6761145b565b5b83604001516002811115610a7f57610a7e61145b565b5b14155b15610a905760019050610f5d565b600280811115610aa357610aa261145b565b5b83604001516002811115610aba57610ab961145b565b5b1480610aee575060016002811115610ad557610ad461145b565b5b83604001516002811115610aec57610aeb61145b565b5b145b15610f58576000808460000151604051610b089190611945565b9081526020016040518091039020805480602002602001604051908101604052809291908181526020016000905b82821015610ebd578382906000526020600020906007020160405180610120016040529081600082018054610b6a906119ba565b80601f0160208091040260200160405190810160405280929190818152602001828054610b96906119ba565b8015610be35780601f10610bb857610100808354040283529160200191610be3565b820191906000526020600020905b815481529060010190602001808311610bc657829003601f168201915b50505050508152602001600182018054610bfc906119ba565b80601f0160208091040260200160405190810160405280929190818152602001828054610c28906119ba565b8015610c755780601f10610c4a57610100808354040283529160200191610c75565b820191906000526020600020905b815481529060010190602001808311610c5857829003601f168201915b50505050508152602001600282018054610c8e906119ba565b80601f0160208091040260200160405190810160405280929190818152602001828054610cba906119ba565b8015610d075780601f10610cdc57610100808354040283529160200191610d07565b820191906000526020600020905b815481529060010190602001808311610cea57829003601f168201915b50505050508152602001600382018054610d20906119ba565b80601f0160208091040260200160405190810160405280929190818152602001828054610d4c906119ba565b8015610d995780601f10610d6e57610100808354040283529160200191610d99565b820191906000526020600020905b815481529060010190602001808311610d7c57829003601f168201915b505050505081526020016004820160009054906101000a900460ff166004811115610dc757610dc661145b565b5b6004811115610dd957610dd861145b565b5b81526020016004820160019054906101000a900473ffffffffffffffffffffffffffffffffffffffff1673ffffffffffffffffffffffffffffffffffffffff1673ffffffffffffffffffffffffffffffffffffffff168152602001600582015481526020016006820160009054906101000a900460ff161515151581526020016006820160019054906101000a900473ffffffffffffffffffffffffffffffffffffffff1673ffffffffffffffffffffffffffffffffffffffff1673ffffffffffffffffffffffffffffffffffffffff168152505081526020019060010190610b36565b50505050905060005b81518163ffffffff161015610f55576000828263ffffffff1681518110610ef057610eef61195c565b5b602002602001015190508060a0015173ffffffffffffffffffffffffffffffffffffffff168560a0015173ffffffffffffffffffffffffffffffffffffffff1603610f415760019350505050610f5d565b508080610f4d90611a2a565b915050610ec6565b50505b600090505b92915050565b6000604051905090565b600080fd5b600080fd5b600080fd5b600080fd5b6000601f19601f8301169050919050565b7f4e487b7100000000000000000000000000000000000000000000000000000000600052604160045260246000fd5b610fca82610f81565b810181811067ffffffffffffffff82111715610fe957610fe8610f92565b5b80604052505050565b6000610ffc610f63565b90506110088282610fc1565b919050565b600067ffffffffffffffff82111561102857611027610f92565b5b61103182610f81565b9050602081019050919050565b82818337600083830152505050565b600061106061105b8461100d565b610ff2565b90508281526020810184848401111561107c5761107b610f7c565b5b61108784828561103e565b509392505050565b600082601f8301126110a4576110a3610f77565b5b81356110b484826020860161104d565b91505092915050565b600080fd5b600080fd5b600581106110d457600080fd5b50565b6000813590506110e6816110c7565b92915050565b600073ffffffffffffffffffffffffffffffffffffffff82169050919050565b6000611117826110ec565b9050919050565b6111278161110c565b811461113257600080fd5b50565b6000813590506111448161111e565b92915050565b6000819050919050565b61115d8161114a565b811461116857600080fd5b50565b60008135905061117a81611154565b92915050565b60008115159050919050565b61119581611180565b81146111a057600080fd5b50565b6000813590506111b28161118c565b92915050565b600061012082840312156111cf576111ce6110bd565b5b6111da610120610ff2565b9050600082013567ffffffffffffffff8111156111fa576111f96110c2565b5b6112068482850161108f565b600083015250602082013567ffffffffffffffff81111561122a576112296110c2565b5b6112368482850161108f565b602083015250604082013567ffffffffffffffff81111561125a576112596110c2565b5b6112668482850161108f565b604083015250606082013567ffffffffffffffff81111561128a576112896110c2565b5b6112968482850161108f565b60608301525060806112aa848285016110d7565b60808301525060a06112be84828501611135565b60a08301525060c06112d28482850161116b565b60c08301525060e06112e6848285016111a3565b60e0830152506101006112fb84828501611135565b6101008301525092915050565b6000806040838503121561131f5761131e610f6d565b5b600083013567ffffffffffffffff81111561133d5761133c610f72565b5b6113498582860161108f565b925050602083013567ffffffffffffffff81111561136a57611369610f72565b5b611376858286016111b8565b9150509250929050565b6000806040838503121561139757611396610f6d565b5b600083013567ffffffffffffffff8111156113b5576113b4610f72565b5b6113c18582860161108f565b92505060206113d28582860161116b565b9150509250929050565b600081519050919050565b600082825260208201905092915050565b60005b838110156114165780820151818401526020810190506113fb565b60008484015250505050565b600061142d826113dc565b61143781856113e7565b93506114478185602086016113f8565b61145081610f81565b840191505092915050565b7f4e487b7100000000000000000000000000000000000000000000000000000000600052602160045260246000fd5b6005811061149b5761149a61145b565b5b50565b60008190506114ac8261148a565b919050565b60006114bc8261149e565b9050919050565b6114cc816114b1565b82525050565b6114db8161110c565b82525050565b6114ea8161114a565b82525050565b6114f981611180565b82525050565b600061012082019050818103600083015261151a818c611422565b9050818103602083015261152e818b611422565b90508181036040830152611542818a611422565b905081810360608301526115568189611422565b905061156560808301886114c3565b61157260a08301876114d2565b61157f60c08301866114e1565b61158c60e08301856114f0565b61159a6101008301846114d2565b9a9950505050505050505050565b600381106115b557600080fd5b50565b6000813590506115c7816115a8565b92915050565b600481106115da57600080fd5b50565b6000813590506115ec816115cd565b92915050565b600067ffffffffffffffff82111561160d5761160c610f92565b5b602082029050602081019050919050565b600080fd5b6000611636611631846115f2565b610ff2565b905080838252602082019050602084028301858111156116595761165861161e565b5b835b818110156116a057803567ffffffffffffffff81111561167e5761167d610f77565b5b80860161168b898261108f565b8552602085019450505060208101905061165b565b5050509392505050565b600082601f8301126116bf576116be610f77565b5b81356116cf848260208601611623565b91505092915050565b600061014082840312156116ef576116ee6110bd565b5b6116fa610140610ff2565b9050600082013567ffffffffffffffff81111561171a576117196110c2565b5b6117268482850161108f565b600083015250602082013567ffffffffffffffff81111561174a576117496110c2565b5b6117568482850161108f565b602083015250604061176a848285016115b8565b604083015250606082013567ffffffffffffffff81111561178e5761178d6110c2565b5b61179a8482850161108f565b60608301525060806117ae848285016115dd565b60808301525060a082013567ffffffffffffffff8111156117d2576117d16110c2565b5b6117de848285016111b8565b60a08301525060c06117f28482850161116b565b60c08301525060e082013567ffffffffffffffff811115611816576118156110c2565b5b611822848285016116aa565b60e083015250610100611837848285016111a3565b6101008301525061012082013567ffffffffffffffff81111561185d5761185c6110c2565b5b6118698482850161108f565b6101208301525092915050565b6000806040838503121561188d5761188c610f6d565b5b600083013567ffffffffffffffff8111156118ab576118aa610f72565b5b6118b7858286016116d8565b925050602083013567ffffffffffffffff8111156118d8576118d7610f72565b5b6118e4858286016111b8565b9150509250929050565b600060208201905061190360008301846114f0565b92915050565b600081905092915050565b600061191f826113dc565b6119298185611909565b93506119398185602086016113f8565b80840191505092915050565b60006119518284611914565b915081905092915050565b7f4e487b7100000000000000000000000000000000000000000000000000000000600052603260045260246000fd5b7f4e487b7100000000000000000000000000000000000000000000000000000000600052602260045260246000fd5b600060028204905060018216806119d257607f821691505b6020821081036119e5576119e461198b565b5b50919050565b7f4e487b7100000000000000000000000000000000000000000000000000000000600052601160045260246000fd5b600063ffffffff82169050919050565b6000611a3582611a1a565b915063ffffffff8203611a4b57611a4a6119eb565b5b600182019050919050565b60008190508160005260206000209050919050565b60006020601f8301049050919050565b60008160020a8302905092915050565b600060088302611abb7fffffffffffffffffffffffffffffffffffffffffffffffffffffffffffffffff82611a7b565b611ac58683611a7b565b95508019841693508086168417925050509392505050565b6000819050919050565b6000611b02611afd611af88461114a565b611add565b61114a565b9050919050565b6000819050919050565b611b1c83611ae7565b611b30611b2882611b09565b848454611a8b565b825550505050565b600090565b611b45611b38565b611b50818484611b13565b505050565b5b81811015611b7457611b69600082611b3d565b600181019050611b56565b5050565b601f821115611bb957611b8a81611a56565b611b9384611a6b565b81016020851015611ba2578190505b611bb6611bae85611a6b565b830182611b55565b50505b505050565b60008160020a8304905092915050565b6000611bdf60001984600802611bbe565b1980831691505092915050565b6000611bf88383611bce565b9150826002028217905092915050565b611c11826113dc565b67ffffffffffffffff811115611c2a57611c29610f92565b5b611c3482546119ba565b611c3f828285611b78565b600060209050601f831160018114611c725760008415611c60578287015190505b611c6a8582611bec565b865550611cd2565b601f198416611c8086611a56565b60005b82811015611ca857848901518255600182019150602085019450602081019050611c83565b86831015611cc55784890151611cc1601f891682611bce565b8355505b6001600288020188555050505b50505050505056fea2646970667358221220aee8988ed512676812a6f66d24c547d78a0ac5a06b2e9284729b28bbb78d497f64736f6c63430008130033",
  "immutableReferences": {},
  "source": "pragma solidity ^0.8.0;\r\nimport \"./EntitiesManager.sol\";\r\nimport \"./EvidencesManager.sol\";\r\n\r\ncontract EvidencesManagerAllowedUsers {\r\n    mapping(string => EntitiesManager.Entity[]) public evidencesAllowedUsers;\r\n\r\n    function addAllowedUser(string memory _evidenceUniqueCode, EntitiesManager.Entity memory _entity) public {\r\n        bool alreadyAllowed = false;\r\n        for (uint32 i = 0; i < evidencesAllowedUsers[_evidenceUniqueCode].length; i++) {\r\n            EntitiesManager.Entity memory entity = evidencesAllowedUsers[_evidenceUniqueCode][i];\r\n            if (entity.entityAddress == _entity.entityAddress){\r\n                alreadyAllowed = true;\r\n            }\r\n        }\r\n        if(alreadyAllowed == false){\r\n            evidencesAllowedUsers[_evidenceUniqueCode].push(_entity);\r\n        }\r\n    }\r\n\r\n    function checkIfAllowed (EvidencesManager.Evidence memory evidence, EntitiesManager.Entity memory entity) public view returns (bool)\r\n    {\r\n        if (entity.entityType == EntitiesManager.EntityType.Court){\r\n            return true;\r\n        }\r\n        \r\n        if (evidence.classification == EvidencesManager.EvidenceClassification.Public){\r\n            return true;\r\n        }\r\n\r\n        if (entity.entityType == EntitiesManager.EntityType.Forensics && evidence.classification != EvidencesManager.EvidenceClassification.AllowedPersonalOnly){\r\n            return true;\r\n        }\r\n\r\n        if (evidence.classification == EvidencesManager.EvidenceClassification.AllowedPersonalOnly || evidence.classification == EvidencesManager.EvidenceClassification.Secret){\r\n            EntitiesManager.Entity[] memory allowedEntities= evidencesAllowedUsers[evidence.uniqueCode];\r\n            for (uint32 i = 0; i < allowedEntities.length; i++){\r\n                EntitiesManager.Entity memory allowed = allowedEntities[i];\r\n                if (entity.entityAddress == allowed.entityAddress){\r\n                    return true;\r\n                }\r\n            }\r\n        }\r\n        \r\n        return false;\r\n    }\r\n}\r\n",
  "sourcePath": "C:\\IPCA DISSERTAO\\evidences_dapp\\contracts\\EvidencesManagerAllowedUsers.sol",
  "compiler": {
    "name": "solc",
    "version": "0.8.19+commit.7dd6d404.Emscripten.clang"
  },
  "schemaVersion": "3.4.13",
  "updatedAt": "2023-10-19T18:56:52.185Z",
  "networkType": "ethereum",
  "devdoc": {
    "kind": "dev",
    "methods": {},
    "version": 1
  },
  "userdoc": {
    "kind": "user",
    "methods": {},
    "version": 1
  }
}